{"abi":[{"type":"function","name":"getGasConsumed","inputs":[{"name":"account","type":"address","internalType":"address"},{"name":"phase","type":"uint256","internalType":"uint256"}],"outputs":[{"name":"","type":"uint256","internalType":"uint256"}],"stateMutability":"view"}],"bytecode":{"object":"0x6080604052348015600e575f5ffd5b5060d580601a5f395ff3fe6080604052348015600e575f5ffd5b50600436106026575f3560e01c8063ee5a97c814602a575b5f5ffd5b605a6035366004606c565b6001600160a01b03919091165f90815260208181526040808320938352929052205490565b60405190815260200160405180910390f35b5f5f60408385031215607c575f5ffd5b82356001600160a01b03811681146091575f5ffd5b94602093909301359350505056fea26469706673582212202e88416f8c5dfbf04fcbf0286812228ace7aa1d5bcfb1c9611ba93c3e100bf1564736f6c634300081c0033","linkReferences":{}},"methodIdentifiers":{"getGasConsumed(address,uint256)":"ee5a97c8"},"id":8}