{"abi":[{"type":"constructor","inputs":[],"stateMutability":"nonpayable"},{"type":"function","name":"COMMAND_BYTES","inputs":[],"outputs":[{"name":"","type":"uint256","internalType":"uint256"}],"stateMutability":"view"},{"type":"function","name":"COMMAND_FIELDS","inputs":[],"outputs":[{"name":"","type":"uint256","internalType":"uint256"}],"stateMutability":"view"},{"type":"function","name":"DOMAIN_BYTES","inputs":[],"outputs":[{"name":"","type":"uint256","internalType":"uint256"}],"stateMutability":"view"},{"type":"function","name":"DOMAIN_FIELDS","inputs":[],"outputs":[{"name":"","type":"uint256","internalType":"uint256"}],"stateMutability":"view"},{"type":"function","name":"UPGRADE_INTERFACE_VERSION","inputs":[],"outputs":[{"name":"","type":"string","internalType":"string"}],"stateMutability":"view"},{"type":"function","name":"commandBytes","inputs":[],"outputs":[{"name":"","type":"uint256","internalType":"uint256"}],"stateMutability":"pure"},{"type":"function","name":"initialize","inputs":[{"name":"_initialOwner","type":"address","internalType":"address"},{"name":"_groth16Verifier","type":"address","internalType":"address"}],"outputs":[],"stateMutability":"nonpayable"},{"type":"function","name":"owner","inputs":[],"outputs":[{"name":"","type":"address","internalType":"address"}],"stateMutability":"view"},{"type":"function","name":"proxiableUUID","inputs":[],"outputs":[{"name":"","type":"bytes32","internalType":"bytes32"}],"stateMutability":"view"},{"type":"function","name":"renounceOwnership","inputs":[],"outputs":[],"stateMutability":"nonpayable"},{"type":"function","name":"transferOwnership","inputs":[{"name":"newOwner","type":"address","internalType":"address"}],"outputs":[],"stateMutability":"nonpayable"},{"type":"function","name":"updateGroth16Verifier","inputs":[{"name":"_groth16Verifier","type":"address","internalType":"address"}],"outputs":[],"stateMutability":"nonpayable"},{"type":"function","name":"upgradeToAndCall","inputs":[{"name":"newImplementation","type":"address","internalType":"address"},{"name":"data","type":"bytes","internalType":"bytes"}],"outputs":[],"stateMutability":"payable"},{"type":"function","name":"verifyEmailProof","inputs":[{"name":"proof","type":"tuple","internalType":"struct EmailProof","components":[{"name":"domainName","type":"string","internalType":"string"},{"name":"publicKeyHash","type":"bytes32","internalType":"bytes32"},{"name":"timestamp","type":"uint256","internalType":"uint256"},{"name":"maskedCommand","type":"string","internalType":"string"},{"name":"emailNullifier","type":"bytes32","internalType":"bytes32"},{"name":"accountSalt","type":"bytes32","internalType":"bytes32"},{"name":"isCodeExist","type":"bool","internalType":"bool"},{"name":"proof","type":"bytes","internalType":"bytes"}]}],"outputs":[{"name":"","type":"bool","internalType":"bool"}],"stateMutability":"view"},{"type":"event","name":"Initialized","inputs":[{"name":"version","type":"uint64","indexed":false,"internalType":"uint64"}],"anonymous":false},{"type":"event","name":"OwnershipTransferred","inputs":[{"name":"previousOwner","type":"address","indexed":true,"internalType":"address"},{"name":"newOwner","type":"address","indexed":true,"internalType":"address"}],"anonymous":false},{"type":"event","name":"Upgraded","inputs":[{"name":"implementation","type":"address","indexed":true,"internalType":"address"}],"anonymous":false},{"type":"error","name":"AddressEmptyCode","inputs":[{"name":"target","type":"address","internalType":"address"}]},{"type":"error","name":"ERC1967InvalidImplementation","inputs":[{"name":"implementation","type":"address","internalType":"address"}]},{"type":"error","name":"ERC1967NonPayable","inputs":[]},{"type":"error","name":"FailedCall","inputs":[]},{"type":"error","name":"InvalidInitialization","inputs":[]},{"type":"error","name":"NotInitializing","inputs":[]},{"type":"error","name":"OwnableInvalidOwner","inputs":[{"name":"owner","type":"address","internalType":"address"}]},{"type":"error","name":"OwnableUnauthorizedAccount","inputs":[{"name":"account","type":"address","internalType":"address"}]},{"type":"error","name":"UUPSUnauthorizedCallContext","inputs":[]},{"type":"error","name":"UUPSUnsupportedProxiableUUID","inputs":[{"name":"slot","type":"bytes32","internalType":"bytes32"}]}],"bytecode":{"object":"0x60a0604052306080523480156012575f5ffd5b506080516114cd6100395f395f81816108d9015281816109020152610a4601526114cd5ff3fe6080604052600436106100d9575f3560e01c80638da5cb5b1161007c578063ad3cb1cc11610057578063ad3cb1cc1461020e578063b2defd781461024b578063b5f21e881461025f578063f2fde38b1461027e575f5ffd5b80638da5cb5b146101845780639241b06e146101ca5780639ecd8310146101df575f5ffd5b806352d1902d116100b757806352d1902d146101345780636fd061e514610148578063715018a61461015c57806386c290ae14610170575f5ffd5b8063485cc955146100dd5780634f1ef286146100fe5780634f37e3dc14610111575b5f5ffd5b3480156100e8575f5ffd5b506100fc6100f7366004610f14565b61029d565b005b6100fc61010c366004611026565b6103c6565b34801561011c575f5ffd5b5061025d5b6040519081526020015b60405180910390f35b34801561013f575f5ffd5b506101216103e5565b348015610153575f5ffd5b50610121601481565b348015610167575f5ffd5b506100fc610400565b34801561017b575f5ffd5b5061012160ff81565b34801561018f575f5ffd5b507f9016d09d72d40fdae2fd8ceac6b6234c7706214fd39c1cd1e609a0528c199300546040516001600160a01b03909116815260200161012b565b3480156101d5575f5ffd5b5061012161025d81565b3480156101ea575f5ffd5b506101fe6101f9366004611089565b610413565b604051901515815260200161012b565b348015610219575f5ffd5b5061023e604051806040016040528060058152602001640352e302e360dc1b81525081565b60405161012b9190611185565b348015610256575f5ffd5b50610121600981565b34801561026a575f5ffd5b506100fc6102793660046111ba565b6107f2565b348015610289575f5ffd5b506100fc6102983660046111ba565b610880565b7ff0c57e16840df040f15088dc2f81fe391c3923bec73e23a9662efc9c229c6a008054600160401b810460ff16159067ffffffffffffffff165f811580156102e25750825b90505f8267ffffffffffffffff1660011480156102fe5750303b155b90508115801561030c575080155b1561032a5760405163f92ee8a960e01b815260040160405180910390fd5b845467ffffffffffffffff19166001178555831561035457845460ff60401b1916600160401b1785555b61035d876108bd565b5f80546001600160a01b0319166001600160a01b03881617905583156103bd57845460ff60401b19168555604051600181527fc7f505b2f371ae2175ee4913f4499e1f2633a7b5936321eed1cdaeb6115181d29060200160405180910390a15b50505050505050565b6103ce6108ce565b6103d782610972565b6103e1828261097a565b5050565b5f6103ee610a3b565b505f5160206114785f395f51905f5290565b610408610a84565b6104115f610adf565b565b5f5f5f5f8460e0015180602001905181019061042f9190611222565b825192955090935091505f5160206114585f395f51905f52118015610464575060208301515f5160206114585f395f51905f52115b6104ac5760405162461bcd60e51b8152602060048201526014602482015273696e76616c696420666f726d6174206f6620704160601b60448201526064015b60405180910390fd5b8151515f5160206114585f395f51905f521180156104db57508151602001515f5160206114585f395f51905f52115b80156104f857506020820151515f5160206114585f395f51905f52115b8015610517575060208083015101515f5160206114585f395f51905f52115b61055a5760405162461bcd60e51b815260206004820152601460248201527334b73b30b634b2103337b936b0ba1037b310382160611b60448201526064016104a3565b80515f5160206114585f395f51905f52118015610587575060208101515f5160206114585f395f51905f52115b6105ca5760405162461bcd60e51b8152602060048201526014602482015273696e76616c696420666f726d6174206f6620704360601b60448201526064016104a3565b6105d2610eda565b60606105e2875f015160ff610b4f565b90505f5b600981101561062857818181518110610601576106016112ac565b602002602001015183826022811061061b5761061b6112ac565b60200201526001016105e6565b506020870151610120830152608087015182610646600960016112d4565b60228110610656576106566112ac565b602002015260408701518261066d600960026112d4565b6022811061067d5761067d6112ac565b602002015260608701516106939061025d610b4f565b90505f5b60148110156106f1578181815181106106b2576106b26112ac565b60200260200101518382600960036106ca91906112d4565b6106d491906112d4565b602281106106e4576106e46112ac565b6020020152600101610697565b5060a0870151826014610706600960036112d4565b61071091906112d4565b60228110610720576107206112ac565b602002015260c0870151610734575f610737565b60015b60ff16826014610749600960036112d4565b61075391906112d4565b61075e9060016112d4565b6022811061076e5761076e6112ac565b60200201525f54604051638525a61d60e01b81526001600160a01b0390911690638525a61d906107a8908890889088908890600401611331565b602060405180830381865afa1580156107c3573d5f5f3e3d5ffd5b505050506040513d601f19601f820116820180604052508101906107e791906113ab565b979650505050505050565b6107fa610a84565b6001600160a01b03811661085f5760405162461bcd60e51b815260206004820152602660248201527f4e65772067726f746831365665726966696572206164647265737320697320696044820152651b9d985b1a5960d21b60648201526084016104a3565b5f80546001600160a01b0319166001600160a01b0392909216919091179055565b610888610a84565b6001600160a01b0381166108b157604051631e4fbdf760e01b81525f60048201526024016104a3565b6108ba81610adf565b50565b6108c5610cb9565b6108ba81610d02565b306001600160a01b037f000000000000000000000000000000000000000000000000000000000000000016148061095457507f00000000000000000000000000000000000000000000000000000000000000006001600160a01b03166109485f5160206114785f395f51905f52546001600160a01b031690565b6001600160a01b031614155b156104115760405163703e46dd60e11b815260040160405180910390fd5b6108ba610a84565b816001600160a01b03166352d1902d6040518163ffffffff1660e01b8152600401602060405180830381865afa9250505080156109d4575060408051601f3d908101601f191682019092526109d1918101906113c6565b60015b6109fc57604051634c9c8ce360e01b81526001600160a01b03831660048201526024016104a3565b5f5160206114785f395f51905f528114610a2c57604051632a87526960e21b8152600481018290526024016104a3565b610a368383610d0a565b505050565b306001600160a01b037f000000000000000000000000000000000000000000000000000000000000000016146104115760405163703e46dd60e11b815260040160405180910390fd5b33610ab67f9016d09d72d40fdae2fd8ceac6b6234c7706214fd39c1cd1e609a0528c199300546001600160a01b031690565b6001600160a01b0316146104115760405163118cdaa760e01b81523360048201526024016104a3565b7f9016d09d72d40fdae2fd8ceac6b6234c7706214fd39c1cd1e609a0528c19930080546001600160a01b031981166001600160a01b03848116918217845560405192169182907f8be0079c531659141344cd1fd0a4f28419497f9722a3daafe3b4186f6b6457e0905f90a3505050565b60605f610b5d601f846113f1565b90505f601f610b6c8386611404565b610b769190611417565b90508115610b8c57610b896001826112d4565b90505b5f8167ffffffffffffffff811115610ba657610ba6610f45565b604051908082528060200260200182016040528015610bcf578160200160208202803683370190505b5090505f80805b84811015610caa575f5b601f811015610ca15780610bf583601f61142a565b610bff91906112d4565b935088841015610ca15789518410610c19575f9250610c36565b898481518110610c2b57610c2b6112ac565b016020015160f81c92505b805f03610c615782858381518110610c5057610c506112ac565b602002602001018181525050610c99565b610c6c81600861142a565b83901b858381518110610c8157610c816112ac565b60200260200101818151610c9591906112d4565b9052505b600101610be0565b50600101610bd6565b50919450505050505b92915050565b7ff0c57e16840df040f15088dc2f81fe391c3923bec73e23a9662efc9c229c6a0054600160401b900460ff1661041157604051631afcd79f60e31b815260040160405180910390fd5b610888610cb9565b610d1382610d5f565b6040516001600160a01b038316907fbc7cd75a20ee27fd9adebab32041f755214dbc6bffa90cc0225b39da2e5c2d3b905f90a2805115610d5757610a368282610dc2565b6103e1610e34565b806001600160a01b03163b5f03610d9457604051634c9c8ce360e01b81526001600160a01b03821660048201526024016104a3565b5f5160206114785f395f51905f5280546001600160a01b0319166001600160a01b0392909216919091179055565b60605f5f846001600160a01b031684604051610dde9190611441565b5f60405180830381855af49150503d805f8114610e16576040519150601f19603f3d011682016040523d82523d5f602084013e610e1b565b606091505b5091509150610e2b858383610e53565b95945050505050565b34156104115760405163b398979f60e01b815260040160405180910390fd5b606082610e6857610e6382610eb2565b610eab565b8151158015610e7f57506001600160a01b0384163b155b15610ea857604051639996b31560e01b81526001600160a01b03851660048201526024016104a3565b50805b9392505050565b805115610ec157805160208201fd5b60405163d6bda27560e01b815260040160405180910390fd5b6040518061044001604052806022906020820280368337509192915050565b80356001600160a01b0381168114610f0f575f5ffd5b919050565b5f5f60408385031215610f25575f5ffd5b610f2e83610ef9565b9150610f3c60208401610ef9565b90509250929050565b634e487b7160e01b5f52604160045260245ffd5b604051610100810167ffffffffffffffff81118282101715610f7d57610f7d610f45565b60405290565b604051601f8201601f1916810167ffffffffffffffff81118282101715610fac57610fac610f45565b604052919050565b5f82601f830112610fc3575f5ffd5b8135602083015f5f67ffffffffffffffff841115610fe357610fe3610f45565b50601f8301601f1916602001610ff881610f83565b91505082815285838301111561100c575f5ffd5b828260208301375f92810160200192909252509392505050565b5f5f60408385031215611037575f5ffd5b61104083610ef9565b9150602083013567ffffffffffffffff81111561105b575f5ffd5b61106785828601610fb4565b9150509250929050565b80151581146108ba575f5ffd5b8035610f0f81611071565b5f60208284031215611099575f5ffd5b813567ffffffffffffffff8111156110af575f5ffd5b820161010081850312156110c1575f5ffd5b6110c9610f59565b813567ffffffffffffffff8111156110df575f5ffd5b6110eb86828501610fb4565b8252506020828101359082015260408083013590820152606082013567ffffffffffffffff81111561111b575f5ffd5b61112786828501610fb4565b6060830152506080828101359082015260a0808301359082015261114d60c0830161107e565b60c082015260e082013567ffffffffffffffff81111561116b575f5ffd5b61117786828501610fb4565b60e083015250949350505050565b602081525f82518060208401528060208501604085015e5f604082850101526040601f19601f83011684010191505092915050565b5f602082840312156111ca575f5ffd5b610eab82610ef9565b5f82601f8301126111e2575f5ffd5b6111ec6040610f83565b8060408401858111156111fd575f5ffd5b845b818110156112175780518452602093840193016111ff565b509095945050505050565b5f5f5f6101008486031215611235575f5ffd5b61123f85856111d3565b925084605f85011261124f575f5ffd5b604061125a81610f83565b8060c087018881111561126b575f5ffd5b604088015b81811015611291576112828a826111d3565b84526020909301928401611270565b5081955061129f89826111d3565b9450505050509250925092565b634e487b7160e01b5f52603260045260245ffd5b634e487b7160e01b5f52601160045260245ffd5b80820180821115610cb357610cb36112c0565b805f5b60028110156113095781518452602093840193909101906001016112ea565b50505050565b805f5b6022811015611309578151845260209384019390910190600101611312565b610540810161134082876112e7565b60408201855f5b600281101561138d578151835f5b6002811015611374578251825260209283019290910190600101611355565b5050506040929092019160209190910190600101611347565b50505061139d60c08301856112e7565b610e2b61010083018461130f565b5f602082840312156113bb575f5ffd5b8151610eab81611071565b5f602082840312156113d6575f5ffd5b5051919050565b634e487b7160e01b5f52601260045260245ffd5b5f826113ff576113ff6113dd565b500690565b81810381811115610cb357610cb36112c0565b5f82611425576114256113dd565b500490565b8082028115828204841417610cb357610cb36112c0565b5f82518060208501845e5f92019182525091905056fe30644e72e131a029b85045b68181585d97816a916871ca8d3c208c16d87cfd47360894a13ba1a3210667c828492db98dca3e2076cc3735a920a3ca505d382bbca2646970667358221220dfcf1e828dcb047fa508fd6fa7dd6987d79d51e43acf67e2adcde5a9b09dd51364736f6c634300081c0033","linkReferences":{}},"methodIdentifiers":{"COMMAND_BYTES()":"9241b06e","COMMAND_FIELDS()":"6fd061e5","DOMAIN_BYTES()":"86c290ae","DOMAIN_FIELDS()":"b2defd78","UPGRADE_INTERFACE_VERSION()":"ad3cb1cc","commandBytes()":"4f37e3dc","initialize(address,address)":"485cc955","owner()":"8da5cb5b","proxiableUUID()":"52d1902d","renounceOwnership()":"715018a6","transferOwnership(address)":"f2fde38b","updateGroth16Verifier(address)":"b5f21e88","upgradeToAndCall(address,bytes)":"4f1ef286","verifyEmailProof((string,bytes32,uint256,string,bytes32,bytes32,bool,bytes))":"9ecd8310"},"id":229}