{"abi":[{"type":"function","name":"verifyProof","inputs":[{"name":"_pA","type":"uint256[2]","internalType":"uint256[2]"},{"name":"_pB","type":"uint256[2][2]","internalType":"uint256[2][2]"},{"name":"_pC","type":"uint256[2]","internalType":"uint256[2]"},{"name":"_pubSignals","type":"uint256[34]","internalType":"uint256[34]"}],"outputs":[{"name":"","type":"bool","internalType":"bool"}],"stateMutability":"view"}],"bytecode":{"object":"0x6080604052348015600e575f5ffd5b506111798061001c5f395ff3fe608060405234801561000f575f5ffd5b5060043610610029575f3560e01c80638525a61d1461002d575b5f5ffd5b61004061003b3660046110e1565b610054565b604051901515815260200160405180910390f35b5f610ed6565b7f30644e72e131a029b85045b68181585d2833e84879b9709143e1f593f00000018110610089575f5f5260205ff35b50565b5f60405183815284602082015285604082015260408160608360076107d05a03fa9150816100bc575f5f5260205ff35b825160408201526020830151606082015260408360808360066107d05a03fa915050806100eb575f5f5260205ff35b5050505050565b7f219c3179aaae71b15c3c39491a8182358ea55d95535921f7e846384937140f1185527f2fe3b1cdd402e7aee991fab4493937252f3325d985001acd2591b33b7ae421f460208601525f608086018661018e87357f025072b5b471b5a78c76a96120b277a9c9ee90f823927d73a36027b8aa30f5f17f0e443e6086a5eded93e029bfa8f2d4cedde23bce118456b26fb16be7037fe2ff8461008c565b6101de60208801357f24a6ec7bec53139bbb3027b06a5343f5c436368c4929e72728afb8142a8ad6537f2b3f7eee3c0f3f6bdf3ab5d9ccd11e35ee26f3dc915cce3742a1496061289f2d8461008c565b61022e60408801357f05dce5de396712db88a3f9721a9b77bf3c54325f6608fa8a6b16a10a417c7d207f0f23db23b2d804e7e0d59d5e5f72520f6b1f4a2edf8321dfd96a5783dc6324a88461008c565b61027e60608801357f1b6d2dab33960bda20d765d502b75edc95311a753b1612e8744a6dc8e765ee1f7f053c408d749165a6a627a273b1ddedb505ea669afcb6631ca339c19d3b5a1ad18461008c565b6102ce60808801357f0b9be97418b8f536c7f57a2f6588db6424c51da3f1839b8b11454c12f089e42a7f1bb87bba1bb24bad3e652ff8d449c45a1ca6a9b3d5266f2f658887a82318ec218461008c565b61031e60a08801357f05563d6b15075f5e802e63ce529f0e5e42ed46984030683009e91277aae9b70e7f2fcb802be50ba2514461e4f078dc97eb4a4d172654c44ef58f4e79802eda01e98461008c565b61036e60c08801357f066a695a6e5f6e55a39126a94716482554d865c3cd910cb000b5eff16edb2ec77f157904a38d67c4b4a4e323cd01f5badaee31bf50f2b3f0e499df09680efc33018461008c565b6103be60e08801357f0201e47989c63e29bc81462c12f7aea9a01679df9206b7ed86f84ca84427ea847f235139e12685f9711cdfbade2f7ddbc3bc4022ceecb2c984d42bb18d7fc4d8db8461008c565b61040f6101008801357f1e0bf8f042f2c7740535ab3e6bf4e53ea5dd3385bbbd219c3dbf5c2fe2b486b07f014febb37a249d3f404777c5972e3c7b9456273d6cb252363d28667f64acc8f98461008c565b6104606101208801357f18766a61294f987dc674cee005a2c3d971e1877e4d80824b16d3fdd28dc06a747f0b554f2b66639f117781efb2e6dc949d198cb0dcb341182df54f8ee9d2db06b28461008c565b6104b16101408801357f27edc3154ba0a25f1b58fee64f25fc4ff3cc90eedc54842240dbd3b829041e887f100cf5f6481b116da1b99e7be1c312eed8022b8600ecd8e0de3616e502c3ba028461008c565b6105026101608801357f2ef1dcf10c4328859d17c99c34d06767567ea772d56fbfe7d3bd135d288a5aea7f2d9c809d309576fc4eb1d44389a3c358c0c4fabc4d2fe9ae65481d1d3e9f9eb28461008c565b6105536101808801357f212709e26753d6967d55a14502a4d20902f07d248bf9d4cda49de5bf81bb4f027f2fab1a1661c13df7bed487532bcbe706167f5a08e07dd61ee1f1e072bd8273818461008c565b6105a46101a08801357f0757220b862823829693994baaa89a1fffa8e4a0bff5b653311327d95502af6d7f21c83d2d35deb268d15d63ade9a9af4229a3c9bfb7104628383422dd971558d38461008c565b6105f56101c08801357f19e10421533d7ec44326250dd6315a6fcd5bfc385f6f24de51929a76049d52967f26df0d53a57cebe204a638ac996fcdccd47efdd856ff2fa73798b42e06130bfb8461008c565b6106466101e08801357f269e925720675bdd79631066a06dca6b187bca64cd580eb5667db720f2013b7f7f134d882b2fb8405f674219d55afb84499e63d5762ecc7106a862ec3ac315e2f08461008c565b6106976102008801357f057bb1c307d27a7c66eb374f6ccb8c8978d948019d4cd42b56f59f8c655d24777f139732dd9b0c62f82cf7dfc99a036b88fe560158408eefff4d95c8d71439f97a8461008c565b6106e86102208801357f19158948073604dfa2601cb8cb751fd6e61308bd1e3dbc0019c3d677ed9a47897f27a94e083cba4ee837d026616c5aa0058bc291a30e8c30bf5246ea657cd4f54f8461008c565b6107396102408801357f0b88b186f507d84d54210bf26592b3de368398c2213a72840028d91d57e09b937f2783720163f6fd4036fa4d1ae013795e987ea293d211d8e6b389b6433f0a92b58461008c565b61078a6102608801357f0d8698e0a5de8088896990edeec1148f38608b8f874b8dee57e70ce401032e5b7f29277dfc6f0907abb9a65325d2507251bb5edd61227fe5550da7d116de18e3d28461008c565b6107db6102808801357f23409373e8d0c9a41ccd236fc20d5c564d8452b2599d3f993d2f4b3e7221a7707f30265f7d7104bf08c5fd5fc63bd790d240951d7fa6f11055662a0efce476eff68461008c565b61082c6102a08801357f27a18d88c5b837dd9b1781717131050364797797948318becc20ef8770b835bc7f14d3c3f53bf4d177ebb7934421624987ad9036676f05728a705f0e7437c8dbd78461008c565b61087d6102c08801357f250d2d8d0c3cacb06897cdde942512fbcffe270aee058b64c2c12cb701e0ea147f045b48c5f3e293d6098480eb93bd4accd3eb8aeba64f169a717223981503b66b8461008c565b6108ce6102e08801357f2dfd722ef5ae77bf2da88392b4903766b808bc41ffbf18d2af7a7e74a15424ad7f1826b4afbda7ab115668de18a9d32f33f08d80d9168ff0e28d8e080a4f4c2ebd8461008c565b61091f6103008801357f0acb71903e0cb2059f9d96b2b852a7cd9474ddb969f194ab85718d1d537d0e627f12c50b92d39ee937ec8431363640e3cae93c8a4477bb58247b354371a67991f98461008c565b6109706103208801357f0cff21ddf673b7661814816defc34c20a62829e4d8778990550b6b7ca6b1c33e7f197b467da47c25d2793e88e8766eb3cb84865dd9f4afb3a8b7195a49d7bd3a908461008c565b6109c16103408801357f013bd77d73d99806de844a31de176717c605473d3ee942c875ccd7eb363f5e967f2c393f60a8598a71b924e384b844b5c53396c2df83a2ed9214f56ff9f67659e48461008c565b610a126103608801357f147c27fe64c608a106d96fcfca37240efe5a056e6298e5aaaf1c491c5140cc4e7f0337aaeffbfcd4f55794ee3c415f00ee6617498736dbd5ed519eec24f99e677f8461008c565b610a636103808801357f132151baa2f97f0232395935e11913a7b472eeaf60cc9a00305688a650efddf37f12c666a98b56a57201eb1d2f559a8095bb5da75478ee05a4bf14a97e7527cf348461008c565b610ab46103a08801357f2de9ee9f2e87e893ce77d44ce2a51778f2e43e09f90647f2da6dcef5aa47ff2e7f1c9ede7457d1903691e235624c43a4a6941c91fd659965f55b9e0c62d7757b9f8461008c565b610b056103c08801357f149d341b74f78a810738b219086533462f1f50ecb2c96230f4424b70b46226fa7f1b87952be7269c9f067080ec76659ccbf48fbd9669b9bd3358de1b7822dc4eb78461008c565b610b566103e08801357f10333aabd03f5de6c715ed44957a4c32fcbaee1f621171599c936e9427267ef47f216bfe23e8c3fe997e95b8b7172bba74b2c95124d093863306ebbbd72487b3598461008c565b610ba76104008801357f13b866c6140ab9557712823015eeb9e53a0e2dd55afd8ee879ee10e5cf3b07767f259553af4991e3437a9a40f338976b3da697be9b1c75af873a0ba506718c3c568461008c565b610bf86104208801357f1450cfd1b42d4b126c4c14f9c380fb3865723283147793cf0e6e4d80237fa0d77f22996d59c4468be795726264157175bdf656ce443dedffcd922265aa9109d3078461008c565b50823581527f30644e72e131a029b85045b68181585d97816a916871ca8d3c208c16d87cfd4760208401357f30644e72e131a029b85045b68181585d97816a916871ca8d3c208c16d87cfd4703066020820152833560408201526020840135606082015260408401356080820152606084013560a08201527f245229d9b076b3c0e8a4d70bde8c1cccffa08a9fae7557b165b3b0dbd653e2c760c08201527f253ec85988dbb84e46e94b5efa3373b47a000b4ac6c86b2d4b798d274a18230260e08201527f07090a82e8fabbd39299be24705b92cf208ee8b3487f6f2b39ff27978a29a1db6101008201527f2424bcc1f60a5472685fd50705b2809626e170120acaf441e133a2bd5e61d2446101208201527f0ae1135cffdaf227c5dc266740607aa930bc3bd92ddc2b135086d9da2dfd3e2a6101408201527f2b86859fd3d55c9d150fb3f0aeba798826493dd73d357ab0f9fdaced9fc818296101608201525f87015161018082015260205f018701516101a08201527f198e9393920d483a7260bfb731fb5d25f1aa493335a9e71297e485b7aef312c26101c08201527f1800deef121f1e76426a00665e5c4479674322d4f75edadd46debd5cd992f6ed6101e08201527f090689d0585ff075ec9e99ad690c3395bc4b313370b38ef355acdadcd122975b6102008201527f12c85ea5db8c6deb4aab71808dcb408fe3d1e7690c43d37b4ce6cc0166fa7daa610220820152843561024082015260208501356102608201527f16b1875842c46f6b54a948c5e053f91cc6cc67c2ad93cdcbec9b183cba46ad446102808201527f287bfc0f6665486acaeda2a01443978b0604257cb49c0fdfb6efc3a94697d2746102a08201527f21f7d32e3db5becb8df713de300dd96090e265ec91baf2106b0dc5ff3318e89f6102c08201527f01e9d11710225abec5a4017187c390ed02290efb0f5042a9b67d1aff172cc5116102e08201526020816103008360086107d05a03fa9051169695505050505050565b6040516103808101604052610eed5f84013561005a565b610efa602084013561005a565b610f07604084013561005a565b610f14606084013561005a565b610f21608084013561005a565b610f2e60a084013561005a565b610f3b60c084013561005a565b610f4860e084013561005a565b610f5661010084013561005a565b610f6461012084013561005a565b610f7261014084013561005a565b610f8061016084013561005a565b610f8e61018084013561005a565b610f9c6101a084013561005a565b610faa6101c084013561005a565b610fb86101e084013561005a565b610fc661020084013561005a565b610fd461022084013561005a565b610fe261024084013561005a565b610ff061026084013561005a565b610ffe61028084013561005a565b61100c6102a084013561005a565b61101a6102c084013561005a565b6110286102e084013561005a565b61103661030084013561005a565b61104461032084013561005a565b61105261034084013561005a565b61106061036084013561005a565b61106e61038084013561005a565b61107c6103a084013561005a565b61108a6103c084013561005a565b6110986103e084013561005a565b6110a661040084013561005a565b6110b461042084013561005a565b6110c1818486888a6100f2565b9050805f5260205ff35b80604081018310156110db575f5ffd5b92915050565b5f5f5f5f61054085870312156110f5575f5ffd5b6110ff86866110cb565b935060c0850186811115611111575f5ffd5b60408601935061112187826110cb565b9250508561054086011115611134575f5ffd5b5091949093509091610100019056fea26469706673582212201e3767542bc3cae42a92766ab6fe6d4b0aa77eaae506a90beb98c4a85359815864736f6c634300081c0033","linkReferences":{}},"methodIdentifiers":{"verifyProof(uint256[2],uint256[2][2],uint256[2],uint256[34])":"8525a61d"},"id":228}