{"abi":[{"type":"constructor","inputs":[],"stateMutability":"nonpayable"},{"type":"fallback","stateMutability":"payable"},{"type":"receive","stateMutability":"payable"},{"type":"function","name":"changeOwner","inputs":[{"name":"newOwner","type":"address","internalType":"address"}],"outputs":[],"stateMutability":"nonpayable"},{"type":"function","name":"initialize","inputs":[{"name":"_initialOwner","type":"address","internalType":"address"},{"name":"_recoveryController","type":"address","internalType":"address"}],"outputs":[],"stateMutability":"nonpayable"},{"type":"function","name":"isValidSignature","inputs":[{"name":"_hash","type":"bytes32","internalType":"bytes32"},{"name":"_signature","type":"bytes","internalType":"bytes"}],"outputs":[{"name":"","type":"bytes4","internalType":"bytes4"}],"stateMutability":"view"},{"type":"function","name":"owner","inputs":[],"outputs":[{"name":"","type":"address","internalType":"address"}],"stateMutability":"view"},{"type":"function","name":"recoveryController","inputs":[],"outputs":[{"name":"","type":"address","internalType":"address"}],"stateMutability":"view"},{"type":"function","name":"renounceOwnership","inputs":[],"outputs":[],"stateMutability":"nonpayable"},{"type":"function","name":"requestGuardian","inputs":[{"name":"guardian","type":"address","internalType":"address"}],"outputs":[],"stateMutability":"nonpayable"},{"type":"function","name":"transfer","inputs":[{"name":"to","type":"address","internalType":"address"},{"name":"amount","type":"uint256","internalType":"uint256"}],"outputs":[],"stateMutability":"nonpayable"},{"type":"function","name":"transferOwnership","inputs":[{"name":"newOwner","type":"address","internalType":"address"}],"outputs":[],"stateMutability":"nonpayable"},{"type":"function","name":"withdraw","inputs":[{"name":"amount","type":"uint256","internalType":"uint256"}],"outputs":[],"stateMutability":"nonpayable"},{"type":"event","name":"Initialized","inputs":[{"name":"version","type":"uint64","indexed":false,"internalType":"uint64"}],"anonymous":false},{"type":"event","name":"OwnershipTransferred","inputs":[{"name":"previousOwner","type":"address","indexed":true,"internalType":"address"},{"name":"newOwner","type":"address","indexed":true,"internalType":"address"}],"anonymous":false},{"type":"error","name":"ECDSAInvalidSignature","inputs":[]},{"type":"error","name":"ECDSAInvalidSignatureLength","inputs":[{"name":"length","type":"uint256","internalType":"uint256"}]},{"type":"error","name":"ECDSAInvalidSignatureS","inputs":[{"name":"s","type":"bytes32","internalType":"bytes32"}]},{"type":"error","name":"FailedCall","inputs":[]},{"type":"error","name":"InsufficientBalance","inputs":[{"name":"balance","type":"uint256","internalType":"uint256"},{"name":"needed","type":"uint256","internalType":"uint256"}]},{"type":"error","name":"InvalidInitialization","inputs":[]},{"type":"error","name":"NotInitializing","inputs":[]},{"type":"error","name":"OwnableInvalidOwner","inputs":[{"name":"owner","type":"address","internalType":"address"}]},{"type":"error","name":"OwnableUnauthorizedAccount","inputs":[{"name":"account","type":"address","internalType":"address"}]}],"bytecode":{"object":"0x6080604052348015600e575f5ffd5b50610b8b8061001c5f395ff3fe60806040526004361061008d575f3560e01c8063a6f9dae111610055578063a6f9dae11461014a578063a9059cbb14610169578063dbeb882a14610188578063f2fde38b146101a7578063f48da475146101c657005b80631626ba7e1461008f5780632e1a7d4d146100cc578063485cc955146100eb578063715018a61461010a5780638da5cb5b1461011e575b005b34801561009a575f5ffd5b506100ae6100a9366004610a0f565b6101e4565b6040516001600160e01b031990911681526020015b60405180910390f35b3480156100d7575f5ffd5b5061008d6100e6366004610a86565b610265565b3480156100f6575f5ffd5b5061008d610105366004610ab8565b61027a565b348015610115575f5ffd5b5061008d610456565b348015610129575f5ffd5b50610132610469565b6040516001600160a01b0390911681526020016100c3565b348015610155575f5ffd5b5061008d610164366004610ae9565b610497565b348015610174575f5ffd5b5061008d610183366004610b02565b610521565b348015610193575f5ffd5b5061008d6101a2366004610ae9565b61057e565b3480156101b2575f5ffd5b5061008d6101c1366004610ae9565b61062f565b3480156101d1575f5ffd5b505f54610132906001600160a01b031681565b5f6101ed610469565b6001600160a01b031661023784848080601f0160208091040260200160405190810160405280939291908181526020018383808284375f9201919091525089939250506106609050565b6001600160a01b0316036102535750630b135d3f60e11b61025e565b506001600160e01b03195b9392505050565b61026d610688565b6102773382610521565b50565b7ff0c57e16840df040f15088dc2f81fe391c3923bec73e23a9662efc9c229c6a008054600160401b810460ff16159067ffffffffffffffff165f811580156102bf5750825b90505f8267ffffffffffffffff1660011480156102db5750303b155b9050811580156102e9575080155b156103075760405163f92ee8a960e01b815260040160405180910390fd5b845467ffffffffffffffff19166001178555831561033157845460ff60401b1916600160401b1785555b61033a876106ba565b5f80546001600160a01b0319166001600160a01b0388169081179091556040805163ca914d2760e01b8152905163138d2a4b91839163ca914d27916004808201926020929091908290030181865afa158015610398573d5f5f3e3d5ffd5b505050506040513d601f19601f820116820180604052508101906103bc9190610b2a565b6040518263ffffffff1660e01b81526004016103da91815260200190565b5f604051808303815f87803b1580156103f1575f5ffd5b505af1158015610403573d5f5f3e3d5ffd5b50505050831561044d57845460ff60401b19168555604051600181527fc7f505b2f371ae2175ee4913f4499e1f2633a7b5936321eed1cdaeb6115181d29060200160405180910390a15b50505050505050565b61045e610688565b6104675f6106cb565b565b7f9016d09d72d40fdae2fd8ceac6b6234c7706214fd39c1cd1e609a0528c199300546001600160a01b031690565b61049f610469565b6001600160a01b0316336001600160a01b031614806104c757505f546001600160a01b031633145b6105185760405162461bcd60e51b815260206004820152601860248201527f6f6e6c79206f776e6572206f7220636f6e74726f6c6c6572000000000000000060448201526064015b60405180910390fd5b610277816106cb565b610529610688565b804710156105705760405162461bcd60e51b8152602060048201526014602482015273696e73756666696369656e742062616c616e636560601b604482015260640161050f565b61057a828261073b565b5050565b610586610469565b6001600160a01b0316336001600160a01b0316146105d35760405162461bcd60e51b815260206004820152600a60248201526937b7363c9037bbb732b960b11b604482015260640161050f565b5f54604051636df5c41560e11b81526001600160a01b0383811660048301529091169063dbeb882a906024015f604051808303815f87803b158015610616575f5ffd5b505af1158015610628573d5f5f3e3d5ffd5b5050505050565b610637610688565b6001600160a01b03811661051857604051631e4fbdf760e01b81525f600482015260240161050f565b5f5f5f5f61066e86866107cd565b92509250925061067e8282610816565b5090949350505050565b33610691610469565b6001600160a01b0316146104675760405163118cdaa760e01b815233600482015260240161050f565b6106c26108ce565b61027781610917565b7f9016d09d72d40fdae2fd8ceac6b6234c7706214fd39c1cd1e609a0528c19930080546001600160a01b031981166001600160a01b03848116918217845560405192169182907f8be0079c531659141344cd1fd0a4f28419497f9722a3daafe3b4186f6b6457e0905f90a3505050565b804710156107655760405163cf47918160e01b81524760048201526024810182905260440161050f565b5f5f836001600160a01b0316836040515f6040518083038185875af1925050503d805f81146107af576040519150601f19603f3d011682016040523d82523d5f602084013e6107b4565b606091505b5091509150816107c7576107c78161091f565b50505050565b5f5f5f8351604103610804576020840151604085015160608601515f1a6107f688828585610947565b95509550955050505061080f565b505081515f91506002905b9250925092565b5f82600381111561082957610829610b41565b03610832575050565b600182600381111561084657610846610b41565b036108645760405163f645eedf60e01b815260040160405180910390fd5b600282600381111561087857610878610b41565b036108995760405163fce698f760e01b81526004810182905260240161050f565b60038260038111156108ad576108ad610b41565b0361057a576040516335e2f38360e21b81526004810182905260240161050f565b7ff0c57e16840df040f15088dc2f81fe391c3923bec73e23a9662efc9c229c6a0054600160401b900460ff1661046757604051631afcd79f60e31b815260040160405180910390fd5b6106376108ce565b80511561092e57805160208201fd5b60405163d6bda27560e01b815260040160405180910390fd5b5f80807f7fffffffffffffffffffffffffffffff5d576e7357a4501ddfe92f46681b20a084111561098057505f91506003905082610a05565b604080515f808252602082018084528a905260ff891692820192909252606081018790526080810186905260019060a0016020604051602081039080840390855afa1580156109d1573d5f5f3e3d5ffd5b5050604051601f1901519150506001600160a01b0381166109fc57505f925060019150829050610a05565b92505f91508190505b9450945094915050565b5f5f5f60408486031215610a21575f5ffd5b83359250602084013567ffffffffffffffff811115610a3e575f5ffd5b8401601f81018613610a4e575f5ffd5b803567ffffffffffffffff811115610a64575f5ffd5b866020828401011115610a75575f5ffd5b939660209190910195509293505050565b5f60208284031215610a96575f5ffd5b5035919050565b80356001600160a01b0381168114610ab3575f5ffd5b919050565b5f5f60408385031215610ac9575f5ffd5b610ad283610a9d565b9150610ae060208401610a9d565b90509250929050565b5f60208284031215610af9575f5ffd5b61025e82610a9d565b5f5f60408385031215610b13575f5ffd5b610b1c83610a9d565b946020939093013593505050565b5f60208284031215610b3a575f5ffd5b5051919050565b634e487b7160e01b5f52602160045260245ffdfea26469706673582212206c5cba6841e81911345e1970acfb131c5ecd0c8f121e3616b28316d53f418e2564736f6c634300081c0033","linkReferences":{}},"methodIdentifiers":{"changeOwner(address)":"a6f9dae1","initialize(address,address)":"485cc955","isValidSignature(bytes32,bytes)":"1626ba7e","owner()":"8da5cb5b","recoveryController()":"f48da475","renounceOwnership()":"715018a6","requestGuardian(address)":"dbeb882a","transfer(address,uint256)":"a9059cbb","transferOwnership(address)":"f2fde38b","withdraw(uint256)":"2e1a7d4d"},"id":304}