{"abi":[{"type":"constructor","inputs":[{"name":"_contractsContainer","type":"address","internalType":"contract OPContractsManagerContractsContainer"}],"stateMutability":"nonpayable"},{"type":"function","name":"assertValidContractAddress","inputs":[{"name":"_who","type":"address","internalType":"address"}],"outputs":[],"stateMutability":"view"},{"type":"function","name":"blueprints","inputs":[],"outputs":[{"name":"","type":"tuple","internalType":"struct OPContractsManager.Blueprints","components":[{"name":"addressManager","type":"address","internalType":"address"},{"name":"proxy","type":"address","internalType":"address"},{"name":"proxyAdmin","type":"address","internalType":"address"},{"name":"l1ChugSplashProxy","type":"address","internalType":"address"},{"name":"resolvedDelegateProxy","type":"address","internalType":"address"}]}],"stateMutability":"view"},{"type":"function","name":"chainIdToBatchInboxAddress","inputs":[{"name":"_l2ChainId","type":"uint256","internalType":"uint256"}],"outputs":[{"name":"","type":"address","internalType":"address"}],"stateMutability":"pure"},{"type":"function","name":"contractsContainer","inputs":[],"outputs":[{"name":"","type":"address","internalType":"contract OPContractsManagerContractsContainer"}],"stateMutability":"view"},{"type":"function","name":"devFeatureBitmap","inputs":[],"outputs":[{"name":"","type":"bytes32","internalType":"bytes32"}],"stateMutability":"view"},{"type":"function","name":"implementations","inputs":[],"outputs":[{"name":"","type":"tuple","internalType":"struct OPContractsManager.Implementations","components":[{"name":"superchainConfigImpl","type":"address","internalType":"address"},{"name":"protocolVersionsImpl","type":"address","internalType":"address"},{"name":"l1ERC721BridgeImpl","type":"address","internalType":"address"},{"name":"optimismPortalImpl","type":"address","internalType":"address"},{"name":"optimismPortalInteropImpl","type":"address","internalType":"address"},{"name":"ethLockboxImpl","type":"address","internalType":"address"},{"name":"systemConfigImpl","type":"address","internalType":"address"},{"name":"optimismMintableERC20FactoryImpl","type":"address","internalType":"address"},{"name":"l1CrossDomainMessengerImpl","type":"address","internalType":"address"},{"name":"l1StandardBridgeImpl","type":"address","internalType":"address"},{"name":"disputeGameFactoryImpl","type":"address","internalType":"address"},{"name":"anchorStateRegistryImpl","type":"address","internalType":"address"},{"name":"delayedWETHImpl","type":"address","internalType":"address"},{"name":"mipsImpl","type":"address","internalType":"address"},{"name":"faultDisputeGameV2Impl","type":"address","internalType":"address"},{"name":"permissionedDisputeGameV2Impl","type":"address","internalType":"address"},{"name":"superFaultDisputeGameImpl","type":"address","internalType":"address"},{"name":"superPermissionedDisputeGameImpl","type":"address","internalType":"address"}]}],"stateMutability":"view"},{"type":"function","name":"isDevFeatureEnabled","inputs":[{"name":"_feature","type":"bytes32","internalType":"bytes32"}],"outputs":[{"name":"","type":"bool","internalType":"bool"}],"stateMutability":"view"},{"type":"function","name":"upgrade","inputs":[{"name":"_opChainConfigs","type":"tuple[]","internalType":"struct OPContractsManager.OpChainConfig[]","components":[{"name":"systemConfigProxy","type":"address","internalType":"contract ISystemConfig"},{"name":"cannonPrestate","type":"bytes32","internalType":"Claim"},{"name":"cannonKonaPrestate","type":"bytes32","internalType":"Claim"}]}],"outputs":[],"stateMutability":"nonpayable"},{"type":"function","name":"upgradeSuperchainConfig","inputs":[{"name":"_superchainConfig","type":"address","internalType":"contract ISuperchainConfig"}],"outputs":[],"stateMutability":"nonpayable"},{"type":"event","name":"Upgraded","inputs":[{"name":"l2ChainId","type":"uint256","indexed":true,"internalType":"uint256"},{"name":"systemConfig","type":"address","indexed":true,"internalType":"contract ISystemConfig"},{"name":"upgrader","type":"address","indexed":true,"internalType":"address"}],"anonymous":false},{"type":"error","name":"AddressHasNoCode","inputs":[{"name":"who","type":"address","internalType":"address"}]},{"type":"error","name":"BytesArrayTooLong","inputs":[]},{"type":"error","name":"DeploymentFailed","inputs":[]},{"type":"error","name":"EmptyInitcode","inputs":[]},{"type":"error","name":"IdentityPrecompileCallFailed","inputs":[]},{"type":"error","name":"InvalidGameArgsLength","inputs":[]},{"type":"error","name":"NotABlueprint","inputs":[]},{"type":"error","name":"OPContractsManagerUpgrader_SuperchainConfigAlreadyUpToDate","inputs":[]},{"type":"error","name":"OPContractsManagerUpgrader_SuperchainConfigMismatch","inputs":[]},{"type":"error","name":"OPContractsManagerUpgrader_SuperchainConfigNeedsUpgrade","inputs":[{"name":"index","type":"uint256","internalType":"uint256"}]},{"type":"error","name":"OPContractsManager_InvalidGameType","inputs":[]},{"type":"error","name":"PrestateNotSet","inputs":[]},{"type":"error","name":"ReservedBitsSet","inputs":[]},{"type":"error","name":"SemverComp_InvalidSemverParts","inputs":[]},{"type":"error","name":"UnexpectedPreambleData","inputs":[{"name":"data","type":"bytes","internalType":"bytes"}]},{"type":"error","name":"UnsupportedERCVersion","inputs":[{"name":"version","type":"uint8","internalType":"uint8"}]}],"bytecode":{"object":"0x60c06040523480156200001157600080fd5b50604051620036e5380380620036e583398101604081905262000034916200004a565b6001600160a01b03166080523060a0526200007c565b6000602082840312156200005d57600080fd5b81516001600160a01b03811681146200007557600080fd5b9392505050565b60805160a051613620620000c560003960008181610abe0152611f27015260008181610108015281816101e3015281816102fb0152818161042901526104cf01526136206000f3fe608060405234801561001057600080fd5b50600436106100a35760003560e01c806378ecabce11610076578063b6a4cd211161005b578063b6a4cd21146101a4578063c993f27c146101b9578063cbeda5a7146101cc57600080fd5b806378ecabce1461012a578063b51f9c2b1461014d57600080fd5b80631d8a4e92146100a857806330e9012c146100c3578063318b1b80146100d85780635a4dab3314610103575b600080fd5b6100b06101df565b6040519081526020015b60405180910390f35b6100cb610268565b6040516100ba9190612b93565b6100eb6100e6366004612cf7565b61037c565b6040516001600160a01b0390911681526020016100ba565b6100eb7f000000000000000000000000000000000000000000000000000000000000000081565b61013d610138366004612cf7565b6103f7565b60405190151581526020016100ba565b6101556104a2565b6040516100ba919081516001600160a01b039081168252602080840151821690830152604080840151821690830152606080840151821690830152608092830151169181019190915260a00190565b6101b76101b2366004612d25565b61054f565b005b6101b76101c7366004612d25565b6105a6565b6101b76101da366004612def565b610742565b60007f00000000000000000000000000000000000000000000000000000000000000006001600160a01b0316631d8a4e926040518163ffffffff1660e01b8152600401602060405180830381865afa15801561023f573d6000803e3d6000fd5b505050506040513d601f19601f820116820180604052508101906102639190612ecc565b905090565b6040805161024081018252600080825260208201819052918101829052606081018290526080810182905260a0810182905260c0810182905260e08101829052610100810182905261012081018290526101408101829052610160810182905261018081018290526101a081018290526101c081018290526101e0810182905261020081018290526102208101919091527f00000000000000000000000000000000000000000000000000000000000000006001600160a01b03166330e9012c6040518163ffffffff1660e01b815260040161024060405180830381865afa158015610358573d6000803e3d6000fd5b505050506040513d601f19601f820116820180604052508101906102639190612ef0565b604080516020808201849052825180830382018152828401845280519101206000606083018190527fffffffffffffffffffffffffffffffffffffff0000000000000000000000000082166061840152835160548185030181526074909301909352829181906103eb90613048565b60601c95945050505050565b6040517f78ecabce000000000000000000000000000000000000000000000000000000008152600481018290526000907f00000000000000000000000000000000000000000000000000000000000000006001600160a01b0316906378ecabce90602401602060405180830381865afa158015610478573d6000803e3d6000fd5b505050506040513d601f19601f8201168201806040525081019061049c9190613098565b92915050565b6040805160a0810182526000808252602082018190529181018290526060810182905260808101919091527f00000000000000000000000000000000000000000000000000000000000000006001600160a01b031663b51f9c2b6040518163ffffffff1660e01b815260040160a060405180830381865afa15801561052b573d6000803e3d6000fd5b505050506040513d601f19601f8201168201806040525081019061026391906130ba565b806001600160a01b03163b6000036105a3576040517f86bb51b80000000000000000000000000000000000000000000000000000000081526001600160a01b03821660048201526024015b60405180910390fd5b50565b610685816001600160a01b03166354fd4d506040518163ffffffff1660e01b8152600401600060405180830381865afa1580156105e7573d6000803e3d6000fd5b505050506040513d6000823e601f3d908101601f1916820160405261060f91908101906131d1565b610617610a2b565b600001516001600160a01b03166354fd4d506040518163ffffffff1660e01b8152600401600060405180830381865afa158015610658573d6000803e3d6000fd5b505050506040513d6000823e601f3d908101601f1916820160405261068091908101906131d1565b610b1b565b156106bc576040517f1b44701300000000000000000000000000000000000000000000000000000000815260040160405180910390fd5b60006106c6610a2b565b90506000826001600160a01b0316633e47158c6040518163ffffffff1660e01b8152600401602060405180830381865afa158015610708573d6000803e3d6000fd5b505050506040513d601f19601f8201168201806040525081019061072c9190613222565b905061073d81848460000151610b3e565b505050565b600061074c610a2b565b905060005b825181101561073d5761077c83828151811061076f5761076f61323f565b6020026020010151610bc8565b60008382815181106107905761079061323f565b6020026020010151600001516001600160a01b031663d6ae3cd56040518163ffffffff1660e01b8152600401602060405180830381865afa1580156107d9573d6000803e3d6000fd5b505050506040513d601f19601f820116820180604052508101906107fd9190612ecc565b905060008483815181106108135761081361323f565b6020026020010151600001516001600160a01b03166335e80ab36040518163ffffffff1660e01b8152600401602060405180830381865afa15801561085c573d6000803e3d6000fd5b505050506040513d601f19601f820116820180604052508101906108809190613222565b905061095a816001600160a01b03166354fd4d506040518163ffffffff1660e01b8152600401600060405180830381865afa1580156108c3573d6000803e3d6000fd5b505050506040513d6000823e601f3d908101601f191682016040526108eb91908101906131d1565b85600001516001600160a01b03166354fd4d506040518163ffffffff1660e01b8152600401600060405180830381865afa15801561092d573d6000803e3d6000fd5b505050506040513d6000823e601f3d908101601f1916820160405261095591908101906131d1565b610bd3565b15610994576040517fccc6ea860000000000000000000000000000000000000000000000000000000081526004810184905260240161059a565b6109b8848685815181106109aa576109aa61323f565b602002602001015184610c4c565b306001600160a01b03168584815181106109d4576109d461323f565b6020026020010151600001516001600160a01b0316837f78bc67b9bf548ef6410becd31a3e10b9ea6c255974ef6b4530728b431df3003060405160405180910390a450508080610a239061329d565b915050610751565b6040805161024081018252600080825260208201819052918101829052606081018290526080810182905260a0810182905260c0810182905260e08101829052610100810182905261012081018290526101408101829052610160810182905261018081018290526101a081018290526101c081018290526101e0810182905261020081018290526102208101919091527f00000000000000000000000000000000000000000000000000000000000000006001600160a01b03166330e9012c6040518163ffffffff1660e01b815260040161024060405180830381865afa158015610358573d6000803e3d6000fd5b6000610b278383611493565b80610b375750610b3783836114df565b9392505050565b610b478161054f565b6040517f99a88ec40000000000000000000000000000000000000000000000000000000081526001600160a01b03838116600483015282811660248301528416906399a88ec490604401600060405180830381600087803b158015610bab57600080fd5b505af1158015610bbf573d6000803e3d6000fd5b50505050505050565b80516105a39061054f565b600080610bdf84611505565b90506000610bec84611505565b805183519192501180610c12575080518251148015610c12575080602001518260200151105b80610c43575080518251148015610c30575080602001518260200151145b8015610c43575080604001518260400151105b95945050505050565b600082600001516001600160a01b0316633e47158c6040518163ffffffff1660e01b8152600401602060405180830381865afa158015610c90573d6000803e3d6000fd5b505050506040513d601f19601f82011682018060405250810190610cb49190613222565b9050610cc98184600001518660c00151610b3e565b600083600001516001600160a01b0316630a49cb036040518163ffffffff1660e01b8152600401602060405180830381865afa158015610d0d573d6000803e3d6000fd5b505050506040513d601f19601f82011682018060405250810190610d319190613222565b9050610d3d60016103f7565b1561102a57610d5182828760800151610b3e565b6000816001600160a01b031663b682c4446040518163ffffffff1660e01b8152600401602060405180830381865afa158015610d91573d6000803e3d6000fd5b505050506040513d601f19601f82011682018060405250810190610db59190613222565b90506001600160a01b038116610f3f57610e128484610dd788600001516116d1565b6040518060400160405280600f81526020017f4554484c6f636b626f782d5531366100000000000000000000000000000000008152506116ff565b60408051600180825281830190925291925060009190602080830190803683370190505090508281600081518110610e4c57610e4c61323f565b60200260200101906001600160a01b031690816001600160a01b031681525050610eea84838960a00151896000015185604051602401610e8d9291906132b7565b60408051601f198184030181529190526020810180517bffffffffffffffffffffffffffffffffffffffffffffffffffffffff167f946d92040000000000000000000000000000000000000000000000000000000017905261175d565b826001600160a01b031663bda204bb6040518163ffffffff1660e01b8152600401600060405180830381600087803b158015610f2557600080fd5b505af1158015610f39573d6000803e3d6000fd5b50505050505b6000826001600160a01b0316635c0cba336040518163ffffffff1660e01b8152600401602060405180830381865afa158015610f7f573d6000803e3d6000fd5b505050506040513d601f19601f82011682018060405250810190610fa39190613222565b6040517f99a88ec40000000000000000000000000000000000000000000000000000000081526001600160a01b0380831660048301528481166024830152919250908416906399a88ec490604401600060405180830381600087803b15801561100b57600080fd5b505af115801561101f573d6000803e3d6000fd5b505050505050611039565b61103982828760600151610b3e565b6110aa82826001600160a01b0316635c0cba336040518163ffffffff1660e01b8152600401602060405180830381865afa15801561107b573d6000803e3d6000fd5b505050506040513d601f19601f8201168201806040525081019061109f9190613222565b876101600151610b3e565b61111e8285600001516001600160a01b0316639b7d7f0a6040518163ffffffff1660e01b8152600401602060405180830381865afa1580156110f0573d6000803e3d6000fd5b505050506040513d601f19601f820116820180604052508101906111149190613222565b8760e00151610b3e565b600084600001516001600160a01b031663f2b4e6176040518163ffffffff1660e01b8152600401602060405180830381865afa158015611162573d6000803e3d6000fd5b505050506040513d601f19601f820116820180604052508101906111869190613222565b90506111988382886101400151610b3e565b600085600001516001600160a01b031663a39fac126040518163ffffffff1660e01b815260040160c060405180830381865afa1580156111dc573d6000803e3d6000fd5b505050506040513d601f19601f820116820180604052508101906112009190613312565b9050611216848260000151896101000151610b3e565b61122a848260400151896101200151610b3e565b61123d8482602001518960400151610b3e565b50600061124b8260016117dd565b905061127187868361125f86866001611867565b61126b87876001611982565b8b611a70565b600061127e8360006117dd565b90506001600160a01b0381161561148957600087600001516001600160a01b031663f2b4e6176040518163ffffffff1660e01b8152600401602060405180830381865afa1580156112d3573d6000803e3d6000fd5b505050506040513d601f19601f820116820180604052508101906112f79190613222565b905060008060001b61130a8a6020015190565b036113205761131b82846000611bdb565b611326565b88602001515b905061134e8a898361133a89886000611867565b6113468a896000611982565b600088611cee565b604089015115611486576113828a898b6040015161136e89886000611867565b61137a8a896000611982565b600888611cee565b6040517f6593dc6e000000000000000000000000000000000000000000000000000000008152600060048201819052906001600160a01b03841690636593dc6e90602401602060405180830381865afa1580156113e3573d6000803e3d6000fd5b505050506040513d601f19601f820116820180604052508101906114079190612ecc565b6040517f1e33424000000000000000000000000000000000000000000000000000000000815260086004820152602481018290529091506001600160a01b03841690631e33424090604401600060405180830381600087803b15801561146c57600080fd5b505af1158015611480573d6000803e3d6000fd5b50505050505b50505b5050505050505050565b60008061149f84611505565b905060006114ac84611505565b805183519192501480156114c7575080602001518260200151145b8015610c435750604090810151910151149392505050565b60006114eb8383611493565b158015610b3757506114fd8383610bd3565b159392505050565b61152960405180606001604052806000815260200160008152602001600081525090565b600061156a836040518060400160405280600181526020017f2e00000000000000000000000000000000000000000000000000000000000000815250611da1565b90506003815110156115a8576040517f9eda858c00000000000000000000000000000000000000000000000000000000815260040160405180910390fd5b6000611603826002815181106115c0576115c061323f565b60200260200101516040518060400160405280600181526020017f2d00000000000000000000000000000000000000000000000000000000000000815250611da1565b905060006116608260008151811061161d5761161d61323f565b60200260200101516040518060400160405280600181526020017f2b00000000000000000000000000000000000000000000000000000000000000815250611da1565b90506040518060600160405280611690856000815181106116835761168361323f565b6020026020010151611e4c565b81526020016116ab856001815181106116835761168361323f565b81526020016116c6836000815181106116835761168361323f565b905295945050505050565b604080516001600160a01b0383166020820152606091015b6040516020818303038152906040529050919050565b60008061170d868585611ec4565b905061175361171a611efa565b60200151828760405160200161173f91906001600160a01b0391909116815260200190565b604051602081830303815290604052611f83565b9695505050505050565b6117668261054f565b6040517f9623609d0000000000000000000000000000000000000000000000000000000081526001600160a01b03851690639623609d906117af908690869086906004016133e9565b600060405180830381600087803b1580156117c957600080fd5b505af1158015611489573d6000803e3d6000fd5b6040517f1b685b9e00000000000000000000000000000000000000000000000000000000815263ffffffff821660048201526000906001600160a01b03841690631b685b9e90602401602060405180830381865afa158015611843573d6000803e3d6000fd5b505050506040513d601f19601f82011682018060405250810190610b379190613222565b6040517f74cc86ac00000000000000000000000000000000000000000000000000000000815263ffffffff8216600482015260009081906001600160a01b038616906374cc86ac90602401600060405180830381865afa1580156118cf573d6000803e3d6000fd5b505050506040513d6000823e601f3d908101601f191682016040526118f791908101906131d1565b9050805160000361196c57836001600160a01b0316633fc8cef36040518163ffffffff1660e01b8152600401602060405180830381865afa158015611940573d6000803e3d6000fd5b505050506040513d601f19601f820116820180604052508101906119649190613222565b915050610b37565b611975816120bd565b6060015195945050505050565b6040517f74cc86ac00000000000000000000000000000000000000000000000000000000815263ffffffff8216600482015260009081906001600160a01b038616906374cc86ac90602401600060405180830381865afa1580156119ea573d6000803e3d6000fd5b505050506040513d6000823e601f3d908101601f19168201604052611a1291908101906131d1565b90508051600003611a5b57836001600160a01b0316635c0cba336040518163ffffffff1660e01b8152600401602060405180830381865afa158015611940573d6000803e3d6000fd5b611a64816120bd565b60400151915050610b37565b600081600001516001600160a01b031663f2b4e6176040518163ffffffff1660e01b8152600401602060405180830381865afa158015611ab4573d6000803e3d6000fd5b505050506040513d601f19601f82011682018060405250810190611ad89190613222565b6020830151909150600090611afa57611af382876001611bdb565b9050611b01565b5060208201515b80611b38576040517fefc878f200000000000000000000000000000000000000000000000000000000815260040160405180910390fd5b6000886101e0015190506000611bcc6040518060e00160405280611b598690565b81526020018c6101a001516001600160a01b03168152602001886001600160a01b03168152602001896001600160a01b031681526020018b8152602001611ba2878c60016121ef565b6001600160a01b03168152602001611bbc878c60016122dd565b6001600160a01b031690526123cb565b90506114868460018484612502565b6040517f74cc86ac00000000000000000000000000000000000000000000000000000000815263ffffffff8216600482015260009081906001600160a01b038616906374cc86ac90602401600060405180830381865afa158015611c43573d6000803e3d6000fd5b505050506040513d6000823e601f3d908101601f19168201604052611c6b91908101906131d1565b90508051600003611cd857836001600160a01b0316638d450a956040518163ffffffff1660e01b8152600401602060405180830381865afa158015611cb4573d6000803e3d6000fd5b505050506040513d601f19601f820116820180604052508101906119649190612ecc565b6000611ce3826120bd565b519250610b37915050565b84611d25576040517fefc878f200000000000000000000000000000000000000000000000000000000815260040160405180910390fd5b6000876101c0015190506000611d886040518060e00160405280611d468a90565b81526101a08c01516001600160a01b039081166020830152888116604083015289166060820152608081018b9052600060a0820181905260c0909101526123cb565b9050611d9683858484612502565b505050505050505050565b60606000611daf848461254b565b9050601f1960208201600183510160051b81018651838201526001845101845260005b825160608452818114611e175760405182820380825286601f8201165b8b850181015183820152870180611def5750600082820160200152603f018616810160405284525b875160209490940193019050818310611dd257505050508091508251611e4557602081019150600281510382525b5092915050565b80516000907f1999999999999999999999999999999999999999999999999999999999999999825b600181019050603060ff82870151160382851185600a028281019650600983118188108317171586029550505050828110611e7457505080611ebe5763101827966000526004601cfd5b50919050565b6000838383604051602001611edb93929190613415565b6040516020818303038152906040528051906020012090509392505050565b6040805160a0810182526000808252602082018190529181018290526060810182905260808101919091527f00000000000000000000000000000000000000000000000000000000000000006001600160a01b031663b51f9c2b6040518163ffffffff1660e01b815260040160a060405180830381865afa15801561052b573d6000803e3d6000fd5b600080611fb4856001600160a01b0316803b806020016040519081016040528181526000908060200190933c61261a565b805190915060ff1615611ffb5780516040517f1a66c69200000000000000000000000000000000000000000000000000000000815260ff909116600482015260240161059a565b6020810151511561203e5780602001516040517f57a0583500000000000000000000000000000000000000000000000000000000815260040161059a9190613440565b6000816040015184604051602001612057929190613453565b6040516020818303038152906040529050848151602083016000f592506001600160a01b0383166120b4576040517f3011642500000000000000000000000000000000000000000000000000000000815260040160405180910390fd5b50509392505050565b6040805160e081018252600080825260208201819052918101829052606081018290526080810182905260a0810182905260c0810191909152815160a4811480159061210a5750607c8114155b15612141576040517fbff6e41600000000000000000000000000000000000000000000000000000000815260040160405180910390fd5b6020830151604084015160548501516068860151607c870151606093841c9392831c929190911c906000807fffffffffffffffffffffffffffffffffffffffffffffffffffffffffffffff5c88016121a7575050609c88015160b0890151606091821c911c5b6040805160e0810182529788526001600160a01b0396871660208901529486169487019490945291841660608601526080850152821660a08401521660c08201529392505050565b6040517f74cc86ac00000000000000000000000000000000000000000000000000000000815263ffffffff8216600482015260009081906001600160a01b038616906374cc86ac90602401600060405180830381865afa158015612257573d6000803e3d6000fd5b505050506040513d6000823e601f3d908101601f1916820160405261227f91908101906131d1565b905080516000036122c857836001600160a01b031663a8e4fb906040518163ffffffff1660e01b8152600401602060405180830381865afa158015611940573d6000803e3d6000fd5b6122d1816120bd565b60a00151915050610b37565b6040517f74cc86ac00000000000000000000000000000000000000000000000000000000815263ffffffff8216600482015260009081906001600160a01b038616906374cc86ac90602401600060405180830381865afa158015612345573d6000803e3d6000fd5b505050506040513d6000823e601f3d908101601f1916820160405261236d91908101906131d1565b905080516000036123b657836001600160a01b031663534db0e26040518163ffffffff1660e01b8152600401602060405180830381865afa158015611940573d6000803e3d6000fd5b6123bf816120bd565b60c00151915050610b37565b60a08101516060906001600160a01b03161580156123f4575060c08201516001600160a01b0316155b1561246b5781516020808401516040808601516060870151608088015192516116e996959293919201948552606093841b7fffffffffffffffffffffffffffffffffffffffff000000000000000000000000908116602087015292841b83166034860152921b166048830152605c820152607c0190565b8151602080840151604080860151606080880151608089015160a08a015160c08b01518651988901999099527fffffffffffffffffffffffffffffffffffffffff00000000000000000000000096841b87169588019590955292821b85166054870152811b84166068860152607c85019190915290811b8216609c8401529290921b90911660b082015260c4016116e9565b919050565b6040517fb10709570000000000000000000000000000000000000000000000000000000081526001600160a01b0385169063b1070957906117af90869086908690600401613482565b60608251825181811161261257602085019450602084019350602060405101925084600182848801030160006020841061258457508286205b601f841660200360031b87515b8951818118831c6125e65783156125c45783878c20146125c45760018b019a50848b106125be57506125f5565b50612591565b858b0389529986019960209098019786156125e657848b106125be57506125f5565b5060018a019950838a10612591575b505060408051601f198189030160051c8152602090970190525050505b505092915050565b6126416040518060600160405280600060ff16815260200160608152602001606081525090565b6002825110806126ab57508160008151811061265f5761265f61323f565b6020910101517fff00000000000000000000000000000000000000000000000000000000000000167ffe0000000000000000000000000000000000000000000000000000000000000014155b806127105750816001815181106126c4576126c461323f565b6020910101517fff00000000000000000000000000000000000000000000000000000000000000167f710000000000000000000000000000000000000000000000000000000000000014155b15612747576040517f31f56e1f00000000000000000000000000000000000000000000000000000000815260040160405180910390fd5b600060028360028151811061275e5761275e61323f565b602001015160f81c60f81b60fc60f81b1660f81c60ff16901c905060008360028151811061278e5761278e61323f565b60209101015160f81c600390811691508190036127d7576040517fb214675a00000000000000000000000000000000000000000000000000000000815260040160405180910390fd5b600060ff8216156128c35760008260ff1667ffffffffffffffff81111561280057612800612d42565b6040519080825280601f01601f19166020018201604052801561282a576020820181803683370190505b50905060005b8360ff168110156128b557866128478260036134b0565b815181106128575761285761323f565b602001015160f81c60f81b8282815181106128745761287461323f565b60200101907effffffffffffffffffffffffffffffffffffffffffffffffffffffffffffff1916908160001a905350806128ad8161329d565b915050612830565b506128bf81612ad9565b9150505b60008167ffffffffffffffff8111156128de576128de612d42565b6040519080825280601f01601f191660200182016040528015612908576020820181803683370190505b50905060ff8316156129ad5760006129218460036134c8565b60ff16905060005b838110156129aa578761293c82846134b0565b8151811061294c5761294c61323f565b602001015160f81c60f81b8382815181106129695761296961323f565b60200101907effffffffffffffffffffffffffffffffffffffffffffffffffffffffffffff1916908160001a905350806129a28161329d565b915050612929565b50505b6000826129bb8560036134c8565b60ff166129c891906134b0565b905060008188516129d991906134ed565b905080600003612a15576040517f028512d400000000000000000000000000000000000000000000000000000000815260040160405180910390fd5b60008167ffffffffffffffff811115612a3057612a30612d42565b6040519080825280601f01601f191660200182016040528015612a5a576020820181803683370190505b50905060008360208b0101602083018481868460045afa9250505080612aac576040517ff7046f3000000000000000000000000000000000000000000000000000000000815260040160405180910390fd5b60405180606001604052808960ff1681526020018681526020018381525098505050505050505050919050565b6000602082511115612b17576040517f5623dc1c00000000000000000000000000000000000000000000000000000000815260040160405180910390fd5b6000805b8351811015611e4557612b2f8160016134b0565b8451612b3b91906134ed565b612b46906008613504565b612b51906002613607565b848281518110612b6357612b6361323f565b0160200151612b75919060f81c613504565b612b7f90836134b0565b915080612b8b8161329d565b915050612b1b565b81516001600160a01b0316815261024081016020830151612bbf60208401826001600160a01b03169052565b506040830151612bda60408401826001600160a01b03169052565b506060830151612bf560608401826001600160a01b03169052565b506080830151612c1060808401826001600160a01b03169052565b5060a0830151612c2b60a08401826001600160a01b03169052565b5060c0830151612c4660c08401826001600160a01b03169052565b5060e0830151612c6160e08401826001600160a01b03169052565b50610100838101516001600160a01b0390811691840191909152610120808501518216908401526101408085015182169084015261016080850151821690840152610180808501518216908401526101a0808501518216908401526101c0808501518216908401526101e08085015182169084015261020080850151821690840152610220808501519182168185015290612612565b600060208284031215612d0957600080fd5b5035919050565b6001600160a01b03811681146105a357600080fd5b600060208284031215612d3757600080fd5b8135610b3781612d10565b7f4e487b7100000000000000000000000000000000000000000000000000000000600052604160045260246000fd5b6040516060810167ffffffffffffffff81118282101715612d9457612d94612d42565b60405290565b604051610240810167ffffffffffffffff81118282101715612d9457612d94612d42565b604051601f8201601f1916810167ffffffffffffffff81118282101715612de757612de7612d42565b604052919050565b60006020808385031215612e0257600080fd5b823567ffffffffffffffff80821115612e1a57600080fd5b818501915085601f830112612e2e57600080fd5b813581811115612e4057612e40612d42565b612e4e848260051b01612dbe565b81815284810192506060918202840185019188831115612e6d57600080fd5b938501935b82851015612ec05780858a031215612e8a5760008081fd5b612e92612d71565b8535612e9d81612d10565b815285870135878201526040808701359082015284529384019392850192612e72565b50979650505050505050565b600060208284031215612ede57600080fd5b5051919050565b80516124fd81612d10565b60006102408284031215612f0357600080fd5b612f0b612d9a565b612f1483612ee5565b8152612f2260208401612ee5565b6020820152612f3360408401612ee5565b6040820152612f4460608401612ee5565b6060820152612f5560808401612ee5565b6080820152612f6660a08401612ee5565b60a0820152612f7760c08401612ee5565b60c0820152612f8860e08401612ee5565b60e0820152610100612f9b818501612ee5565b90820152610120612fad848201612ee5565b90820152610140612fbf848201612ee5565b90820152610160612fd1848201612ee5565b90820152610180612fe3848201612ee5565b908201526101a0612ff5848201612ee5565b908201526101c0613007848201612ee5565b908201526101e0613019848201612ee5565b9082015261020061302b848201612ee5565b9082015261022061303d848201612ee5565b908201529392505050565b6000815160208301517fffffffffffffffffffffffffffffffffffffffff000000000000000000000000808216935060148310156130905780818460140360031b1b83161693505b505050919050565b6000602082840312156130aa57600080fd5b81518015158114610b3757600080fd5b600060a082840312156130cc57600080fd5b60405160a0810181811067ffffffffffffffff821117156130ef576130ef612d42565b60405282516130fd81612d10565b8152602083015161310d81612d10565b6020820152604083015161312081612d10565b6040820152606083015161313381612d10565b6060820152608083015161314681612d10565b60808201529392505050565b60005b8381101561316d578181015183820152602001613155565b8381111561317c576000848401525b50505050565b600067ffffffffffffffff83111561319c5761319c612d42565b6131af6020601f19601f86011601612dbe565b90508281528383830111156131c357600080fd5b610b37836020830184613152565b6000602082840312156131e357600080fd5b815167ffffffffffffffff8111156131fa57600080fd5b8201601f8101841361320b57600080fd5b61321a84825160208401613182565b949350505050565b60006020828403121561323457600080fd5b8151610b3781612d10565b7f4e487b7100000000000000000000000000000000000000000000000000000000600052603260045260246000fd5b7f4e487b7100000000000000000000000000000000000000000000000000000000600052601160045260246000fd5b600060001982036132b0576132b061326e565b5060010190565b6000604082016001600160a01b0380861684526020604081860152828651808552606087019150828801945060005b818110156133045785518516835294830194918301916001016132e6565b509098975050505050505050565b600060c0828403121561332457600080fd5b60405160c0810181811067ffffffffffffffff8211171561334757613347612d42565b604052825161335581612d10565b8152602083015161336581612d10565b6020820152604083015161337881612d10565b6040820152606083015161338b81612d10565b6060820152608083015161339e81612d10565b608082015260a08301516133b181612d10565b60a08201529392505050565b600081518084526133d5816020860160208601613152565b601f01601f19169290920160200192915050565b60006001600160a01b03808616835280851660208401525060606040830152610c4360608301846133bd565b83815260606020820152600061342e60608301856133bd565b828103604084015261175381856133bd565b602081526000610b3760208301846133bd565b60008351613465818460208801613152565b835190830190613479818360208801613152565b01949350505050565b63ffffffff841681526001600160a01b0383166020820152606060408201526000610c4360608301846133bd565b600082198211156134c3576134c361326e565b500190565b600060ff821660ff84168060ff038211156134e5576134e561326e565b019392505050565b6000828210156134ff576134ff61326e565b500390565b600081600019048311821515161561351e5761351e61326e565b500290565b600181815b8085111561355e5781600019048211156135445761354461326e565b8085161561355157918102915b93841c9390800290613528565b509250929050565b6000826135755750600161049c565b816135825750600061049c565b816001811461359857600281146135a2576135be565b600191505061049c565b60ff8411156135b3576135b361326e565b50506001821b61049c565b5060208310610133831016604e8410600b84101617156135e1575081810a61049c565b6135eb8383613523565b80600019048211156135ff576135ff61326e565b029392505050565b6000610b37838361356656fea164736f6c634300080f000a","linkReferences":{}},"methodIdentifiers":{"assertValidContractAddress(address)":"b6a4cd21","blueprints()":"b51f9c2b","chainIdToBatchInboxAddress(uint256)":"318b1b80","contractsContainer()":"5a4dab33","devFeatureBitmap()":"1d8a4e92","implementations()":"30e9012c","isDevFeatureEnabled(bytes32)":"78ecabce","upgrade((address,bytes32,bytes32)[])":"cbeda5a7","upgradeSuperchainConfig(address)":"c993f27c"},"storageLayout":{"storage":[],"types":{}},"userdoc":{"version":1,"kind":"user","methods":{"blueprints()":{"notice":"Retrieves the blueprint addresses stored in this OPCM contract"},"chainIdToBatchInboxAddress(uint256)":{"notice":"Maps an L2 chain ID to an L1 batch inbox address as defined by the standard configuration's convention. This convention is `versionByte || keccak256(bytes32(chainId))[:19]`, where || denotes concatenation`, versionByte is 0x00, and chainId is a uint256. https://specs.optimism.io/protocol/configurability.html#consensus-parameters"},"contractsContainer()":{"notice":"The blueprint contract addresses contract."},"devFeatureBitmap()":{"notice":"Retrieves the development feature bitmap stored in this OPCM contract"},"implementations()":{"notice":"Retrieves the implementation addresses stored in this OPCM contract"},"isDevFeatureEnabled(bytes32)":{"notice":"Retrieves the status of a development feature. Note that this function does not check         that the input feature represents a single feature and the bitwise AND operation         allows for multiple features to be enabled at once. Users should generally check         for only a single feature at a time."},"upgrade((address,bytes32,bytes32)[])":{"notice":"Upgrades a set of chains to the latest implementation contracts"},"upgradeSuperchainConfig(address)":{"notice":"Upgrades the SuperchainConfig contract."}},"events":{"Upgraded(uint256,address,address)":{"notice":"Emitted when a chain is upgraded"}},"errors":{"AddressHasNoCode(address)":[{"notice":"Throw when a contract address has no code."}],"BytesArrayTooLong()":[{"notice":"Thrown when converting a bytes array to a uint256 and the bytes array is too long."}],"DeploymentFailed()":[{"notice":"Throw when contract deployment fails."}],"EmptyInitcode()":[{"notice":"Thrown when parsing a blueprint preamble and the resulting initcode is empty."}],"IdentityPrecompileCallFailed()":[{"notice":"Thrown when call to the identity precompile fails."}],"InvalidGameArgsLength()":[{"notice":"Thrown when the length of the game arguments is invalid."}],"NotABlueprint()":[{"notice":"Thrown when parsing a blueprint preamble and the bytecode does not contain the expected prefix bytes."}],"OPContractsManagerUpgrader_SuperchainConfigAlreadyUpToDate()":[{"notice":"Thrown when upgradeSuperchainConfig is called with a superchainConfig that is already up to date."}],"OPContractsManagerUpgrader_SuperchainConfigMismatch()":[{"notice":"Thrown when the SuperchainConfig contract does not match the unified config."}],"OPContractsManagerUpgrader_SuperchainConfigNeedsUpgrade(uint256)":[{"notice":"Thrown when upgrade is called with a chain whose superchainConfig is not upgraded."}],"OPContractsManager_InvalidGameType()":[{"notice":"Thrown when an invalid game type is used."}],"PrestateNotSet()":[{"notice":"Thrown when a prestate is not set for a game."}],"ReservedBitsSet()":[{"notice":"Thrown when parsing a blueprint preamble and the reserved bits are set."}],"SemverComp_InvalidSemverParts()":[{"notice":"Error thrown when a semver string has less than 3 parts."}],"UnexpectedPreambleData(bytes)":[{"notice":"Thrown when parsing a blueprint preamble and the preamble data is not empty. We do not use the preamble data, so it's expected to be empty."}],"UnsupportedERCVersion(uint8)":[{"notice":"Thrown during deployment if the ERC version is not supported."}]}},"devdoc":{"version":1,"kind":"dev","methods":{"constructor":{"params":{"_contractsContainer":"The OPContractsManagerContractsContainer to use."}},"isDevFeatureEnabled(bytes32)":{"params":{"_feature":"The feature to check."},"returns":{"_0":"True if the feature is enabled, false otherwise."}},"upgrade((address,bytes32,bytes32)[])":{"details":"This function is intended to be DELEGATECALLed by an address that is the common owner of every chain in      `_opChainConfigs`'s ProxyAdmin.This function requires that each chain's superchainConfig is already upgraded.","params":{"_opChainConfigs":"Array of OpChain structs, one per chain to upgrade"}},"upgradeSuperchainConfig(address)":{"details":"This function is intended to be DELEGATECALLed by the superchainConfig's ProxyAdminOwner.This function will revert if the SuperchainConfig is already at or above the target version.","params":{"_superchainConfig":"The SuperchainConfig contract to upgrade."}}},"events":{"Upgraded(uint256,address,address)":{"params":{"systemConfig":"Address of the chain's SystemConfig contract","upgrader":"Address that initiated the upgrade"}}}},"id":66}