{"abi":[{"type":"constructor","inputs":[{"name":"_blueprints","type":"tuple","internalType":"struct OPContractsManager.Blueprints","components":[{"name":"addressManager","type":"address","internalType":"address"},{"name":"proxy","type":"address","internalType":"address"},{"name":"proxyAdmin","type":"address","internalType":"address"},{"name":"l1ChugSplashProxy","type":"address","internalType":"address"},{"name":"resolvedDelegateProxy","type":"address","internalType":"address"}]},{"name":"_implementations","type":"tuple","internalType":"struct OPContractsManager.Implementations","components":[{"name":"superchainConfigImpl","type":"address","internalType":"address"},{"name":"protocolVersionsImpl","type":"address","internalType":"address"},{"name":"l1ERC721BridgeImpl","type":"address","internalType":"address"},{"name":"optimismPortalImpl","type":"address","internalType":"address"},{"name":"optimismPortalInteropImpl","type":"address","internalType":"address"},{"name":"ethLockboxImpl","type":"address","internalType":"address"},{"name":"systemConfigImpl","type":"address","internalType":"address"},{"name":"optimismMintableERC20FactoryImpl","type":"address","internalType":"address"},{"name":"l1CrossDomainMessengerImpl","type":"address","internalType":"address"},{"name":"l1StandardBridgeImpl","type":"address","internalType":"address"},{"name":"disputeGameFactoryImpl","type":"address","internalType":"address"},{"name":"anchorStateRegistryImpl","type":"address","internalType":"address"},{"name":"delayedWETHImpl","type":"address","internalType":"address"},{"name":"mipsImpl","type":"address","internalType":"address"},{"name":"faultDisputeGameV2Impl","type":"address","internalType":"address"},{"name":"permissionedDisputeGameV2Impl","type":"address","internalType":"address"},{"name":"superFaultDisputeGameImpl","type":"address","internalType":"address"},{"name":"superPermissionedDisputeGameImpl","type":"address","internalType":"address"}]},{"name":"_devFeatureBitmap","type":"bytes32","internalType":"bytes32"}],"stateMutability":"nonpayable"},{"type":"function","name":"_isTestingEnvironment","inputs":[],"outputs":[{"name":"","type":"bool","internalType":"bool"}],"stateMutability":"view"},{"type":"function","name":"blueprints","inputs":[],"outputs":[{"name":"","type":"tuple","internalType":"struct OPContractsManager.Blueprints","components":[{"name":"addressManager","type":"address","internalType":"address"},{"name":"proxy","type":"address","internalType":"address"},{"name":"proxyAdmin","type":"address","internalType":"address"},{"name":"l1ChugSplashProxy","type":"address","internalType":"address"},{"name":"resolvedDelegateProxy","type":"address","internalType":"address"}]}],"stateMutability":"view"},{"type":"function","name":"devFeatureBitmap","inputs":[],"outputs":[{"name":"","type":"bytes32","internalType":"bytes32"}],"stateMutability":"view"},{"type":"function","name":"implementations","inputs":[],"outputs":[{"name":"","type":"tuple","internalType":"struct OPContractsManager.Implementations","components":[{"name":"superchainConfigImpl","type":"address","internalType":"address"},{"name":"protocolVersionsImpl","type":"address","internalType":"address"},{"name":"l1ERC721BridgeImpl","type":"address","internalType":"address"},{"name":"optimismPortalImpl","type":"address","internalType":"address"},{"name":"optimismPortalInteropImpl","type":"address","internalType":"address"},{"name":"ethLockboxImpl","type":"address","internalType":"address"},{"name":"systemConfigImpl","type":"address","internalType":"address"},{"name":"optimismMintableERC20FactoryImpl","type":"address","internalType":"address"},{"name":"l1CrossDomainMessengerImpl","type":"address","internalType":"address"},{"name":"l1StandardBridgeImpl","type":"address","internalType":"address"},{"name":"disputeGameFactoryImpl","type":"address","internalType":"address"},{"name":"anchorStateRegistryImpl","type":"address","internalType":"address"},{"name":"delayedWETHImpl","type":"address","internalType":"address"},{"name":"mipsImpl","type":"address","internalType":"address"},{"name":"faultDisputeGameV2Impl","type":"address","internalType":"address"},{"name":"permissionedDisputeGameV2Impl","type":"address","internalType":"address"},{"name":"superFaultDisputeGameImpl","type":"address","internalType":"address"},{"name":"superPermissionedDisputeGameImpl","type":"address","internalType":"address"}]}],"stateMutability":"view"},{"type":"function","name":"isDevFeatureEnabled","inputs":[{"name":"_feature","type":"bytes32","internalType":"bytes32"}],"outputs":[{"name":"","type":"bool","internalType":"bool"}],"stateMutability":"view"},{"type":"error","name":"OPContractsManagerContractsContainer_DevFeatureInProd","inputs":[]}],"bytecode":{"object":"0x60a06040523480156200001157600080fd5b5060405162000ab638038062000ab68339810160408190526200003491620002e3565b8251600080546001600160a01b03199081166001600160a01b03938416179091556020808601516001805484169185169190911781556040808801516002805486169187169190911790556060808901516003805487169188169190911790556080808a0151600480548816918916919091179055885160058054881691891691909117905593880151600680548716918816919091179055908701516007805486169187169190911790558601516008805485169186169190911790558582015160098054851691861691909117905560a0860151600a8054851691861691909117905560c0860151600b8054851691861691909117905560e0860151600c80548516918616919091179055610100860151600d80548516918616919091179055610120860151600e80548516918616919091179055610140860151600f805485169186169190911790556101608601516010805485169186169190911790556101808601516011805485169186169190911790556101a08601516012805485169186169190911790556101c08601516013805485169186169190911790556101e0860151601480548516918616919091179055610200860151601580548516918616919091179055610220860151601680549094169416939093179091558290524614801562000229575063beefcafe3b155b80156200023557508015155b15620002545760405163a349c3e360e01b815260040160405180910390fd5b50505062000511565b60405160a081016001600160401b03811182821017156200028e57634e487b7160e01b600052604160045260246000fd5b60405290565b60405161024081016001600160401b03811182821017156200028e57634e487b7160e01b600052604160045260246000fd5b80516001600160a01b0381168114620002de57600080fd5b919050565b6000806000838503610300811215620002fb57600080fd5b60a08112156200030a57600080fd5b620003146200025d565b6200031f86620002c6565b81526200032f60208701620002c6565b60208201526200034260408701620002c6565b60408201526200035560608701620002c6565b60608201526200036860808701620002c6565b60808201529350610240609f1982018113156200038457600080fd5b6200038e62000294565b91506200039e60a08701620002c6565b8252620003ae60c08701620002c6565b6020830152620003c160e08701620002c6565b6040830152610100620003d6818801620002c6565b6060840152610120620003eb818901620002c6565b608085015261014062000400818a01620002c6565b60a086015261016062000415818b01620002c6565b60c08701526101806200042a818c01620002c6565b60e08801526101a06200043f818d01620002c6565b868901526101c0955062000455868d01620002c6565b858901526101e094506200046b858d01620002c6565b84890152610200935062000481848d01620002c6565b83890152610220925062000497838d01620002c6565b82890152620004a8878d01620002c6565b9088015250620004bc6102608b01620002c6565b84870152620004cf6102808b01620002c6565b83870152620004e26102a08b01620002c6565b82870152620004f56102c08b01620002c6565b818701525050505050809250506102e084015190509250925092565b60805161058362000533600039600081816071015261034101526105836000f3fe608060405234801561001057600080fd5b50600436106100675760003560e01c806378ecabce1161005057806378ecabce1461022a578063b51f9c2b1461024d578063debc60071461032d57600080fd5b80631d8a4e921461006c57806330e9012c146100a6575b600080fd5b6100937f000000000000000000000000000000000000000000000000000000000000000081565b6040519081526020015b60405180910390f35b61021d6040805161024081018252600080825260208201819052918101829052606081018290526080810182905260a0810182905260c0810182905260e08101829052610100810182905261012081018290526101408101829052610160810182905261018081018290526101a081018290526101c081018290526101e08101829052610200810182905261022081019190915250604080516102408101825260055473ffffffffffffffffffffffffffffffffffffffff9081168252600654811660208301526007548116928201929092526008548216606082015260095482166080820152600a54821660a0820152600b54821660c0820152600c54821660e0820152600d548216610100820152600e548216610120820152600f5482166101408201526010548216610160820152601154821661018082015260125482166101a082015260135482166101c082015260145482166101e0820152601554821661020082015260165490911661022082015290565b60405161009d9190610385565b61023d61023836600461055d565b61033a565b604051901515815260200161009d565b6102d16040805160a081018252600080825260208201819052918101829052606081018290526080810191909152506040805160a08101825260005473ffffffffffffffffffffffffffffffffffffffff90811682526001548116602083015260025481169282019290925260035482166060820152600454909116608082015290565b60405161009d9190815173ffffffffffffffffffffffffffffffffffffffff9081168252602080840151821690830152604080840151821690830152606080840151821690830152608092830151169181019190915260a00190565b63beefcafe3b151561023d565b60006103667f00000000000000000000000000000000000000000000000000000000000000008361036c565b92915050565b6000811580159061037e575081828416145b9392505050565b815173ffffffffffffffffffffffffffffffffffffffff168152610240810160208301516103cb602084018273ffffffffffffffffffffffffffffffffffffffff169052565b5060408301516103f3604084018273ffffffffffffffffffffffffffffffffffffffff169052565b50606083015161041b606084018273ffffffffffffffffffffffffffffffffffffffff169052565b506080830151610443608084018273ffffffffffffffffffffffffffffffffffffffff169052565b5060a083015161046b60a084018273ffffffffffffffffffffffffffffffffffffffff169052565b5060c083015161049360c084018273ffffffffffffffffffffffffffffffffffffffff169052565b5060e08301516104bb60e084018273ffffffffffffffffffffffffffffffffffffffff169052565b506101008381015173ffffffffffffffffffffffffffffffffffffffff90811691840191909152610120808501518216908401526101408085015182169084015261016080850151821690840152610180808501518216908401526101a0808501518216908401526101c0808501518216908401526101e080850151821690840152610200808501518216908401526102209384015116929091019190915290565b60006020828403121561056f57600080fd5b503591905056fea164736f6c634300080f000a","linkReferences":{}},"methodIdentifiers":{"_isTestingEnvironment()":"debc6007","blueprints()":"b51f9c2b","devFeatureBitmap()":"1d8a4e92","implementations()":"30e9012c","isDevFeatureEnabled(bytes32)":"78ecabce"},"storageLayout":{"storage":[{"astId":47371,"contract":"src/L1/OPContractsManager.sol:OPContractsManagerContractsContainer","label":"blueprint","offset":0,"slot":"0","type":"t_struct(Blueprints)52437_storage"},{"astId":47375,"contract":"src/L1/OPContractsManager.sol:OPContractsManagerContractsContainer","label":"implementation","offset":0,"slot":"5","type":"t_struct(Implementations)52474_storage"}],"types":{"t_address":{"encoding":"inplace","label":"address","numberOfBytes":"20"},"t_struct(Blueprints)52437_storage":{"encoding":"inplace","label":"struct OPContractsManager.Blueprints","numberOfBytes":"160","members":[{"astId":52428,"contract":"src/L1/OPContractsManager.sol:OPContractsManagerContractsContainer","label":"addressManager","offset":0,"slot":"0","type":"t_address"},{"astId":52430,"contract":"src/L1/OPContractsManager.sol:OPContractsManagerContractsContainer","label":"proxy","offset":0,"slot":"1","type":"t_address"},{"astId":52432,"contract":"src/L1/OPContractsManager.sol:OPContractsManagerContractsContainer","label":"proxyAdmin","offset":0,"slot":"2","type":"t_address"},{"astId":52434,"contract":"src/L1/OPContractsManager.sol:OPContractsManagerContractsContainer","label":"l1ChugSplashProxy","offset":0,"slot":"3","type":"t_address"},{"astId":52436,"contract":"src/L1/OPContractsManager.sol:OPContractsManagerContractsContainer","label":"resolvedDelegateProxy","offset":0,"slot":"4","type":"t_address"}]},"t_struct(Implementations)52474_storage":{"encoding":"inplace","label":"struct OPContractsManager.Implementations","numberOfBytes":"576","members":[{"astId":52439,"contract":"src/L1/OPContractsManager.sol:OPContractsManagerContractsContainer","label":"superchainConfigImpl","offset":0,"slot":"0","type":"t_address"},{"astId":52441,"contract":"src/L1/OPContractsManager.sol:OPContractsManagerContractsContainer","label":"protocolVersionsImpl","offset":0,"slot":"1","type":"t_address"},{"astId":52443,"contract":"src/L1/OPContractsManager.sol:OPContractsManagerContractsContainer","label":"l1ERC721BridgeImpl","offset":0,"slot":"2","type":"t_address"},{"astId":52445,"contract":"src/L1/OPContractsManager.sol:OPContractsManagerContractsContainer","label":"optimismPortalImpl","offset":0,"slot":"3","type":"t_address"},{"astId":52447,"contract":"src/L1/OPContractsManager.sol:OPContractsManagerContractsContainer","label":"optimismPortalInteropImpl","offset":0,"slot":"4","type":"t_address"},{"astId":52449,"contract":"src/L1/OPContractsManager.sol:OPContractsManagerContractsContainer","label":"ethLockboxImpl","offset":0,"slot":"5","type":"t_address"},{"astId":52451,"contract":"src/L1/OPContractsManager.sol:OPContractsManagerContractsContainer","label":"systemConfigImpl","offset":0,"slot":"6","type":"t_address"},{"astId":52453,"contract":"src/L1/OPContractsManager.sol:OPContractsManagerContractsContainer","label":"optimismMintableERC20FactoryImpl","offset":0,"slot":"7","type":"t_address"},{"astId":52455,"contract":"src/L1/OPContractsManager.sol:OPContractsManagerContractsContainer","label":"l1CrossDomainMessengerImpl","offset":0,"slot":"8","type":"t_address"},{"astId":52457,"contract":"src/L1/OPContractsManager.sol:OPContractsManagerContractsContainer","label":"l1StandardBridgeImpl","offset":0,"slot":"9","type":"t_address"},{"astId":52459,"contract":"src/L1/OPContractsManager.sol:OPContractsManagerContractsContainer","label":"disputeGameFactoryImpl","offset":0,"slot":"10","type":"t_address"},{"astId":52461,"contract":"src/L1/OPContractsManager.sol:OPContractsManagerContractsContainer","label":"anchorStateRegistryImpl","offset":0,"slot":"11","type":"t_address"},{"astId":52463,"contract":"src/L1/OPContractsManager.sol:OPContractsManagerContractsContainer","label":"delayedWETHImpl","offset":0,"slot":"12","type":"t_address"},{"astId":52465,"contract":"src/L1/OPContractsManager.sol:OPContractsManagerContractsContainer","label":"mipsImpl","offset":0,"slot":"13","type":"t_address"},{"astId":52467,"contract":"src/L1/OPContractsManager.sol:OPContractsManagerContractsContainer","label":"faultDisputeGameV2Impl","offset":0,"slot":"14","type":"t_address"},{"astId":52469,"contract":"src/L1/OPContractsManager.sol:OPContractsManagerContractsContainer","label":"permissionedDisputeGameV2Impl","offset":0,"slot":"15","type":"t_address"},{"astId":52471,"contract":"src/L1/OPContractsManager.sol:OPContractsManagerContractsContainer","label":"superFaultDisputeGameImpl","offset":0,"slot":"16","type":"t_address"},{"astId":52473,"contract":"src/L1/OPContractsManager.sol:OPContractsManagerContractsContainer","label":"superPermissionedDisputeGameImpl","offset":0,"slot":"17","type":"t_address"}]}}},"userdoc":{"version":1,"kind":"user","methods":{"_isTestingEnvironment()":{"notice":"Returns true if the contract is running in a testing environment. Checks that the         code for the address 0xbeefcafe is not zero, which is an address that should never         have any code in production environments but can be made to have code in tests."},"devFeatureBitmap()":{"notice":"Bitmap of development features that are enabled. We keep the development feature         bitmap here rather than in the actual OPCM because other contracts always get a         reference to this but not to the OPCM itself."},"isDevFeatureEnabled(bytes32)":{"notice":"Returns the status of a development feature. Note that this function does not check         that the input feature represents a single feature and the bitwise AND operation         allows for multiple features to be enabled at once. Users should generally check         for only a single feature at a time."}},"errors":{"OPContractsManagerContractsContainer_DevFeatureInProd()":[{"notice":"Thrown when a development feature is enabled in production."}]}},"devdoc":{"version":1,"kind":"dev","methods":{"_isTestingEnvironment()":{"returns":{"_0":"True if the contract is running in a testing environment, false otherwise."}},"constructor":{"params":{"_blueprints":"The blueprint contract addresses.","_devFeatureBitmap":"The bitmap of development features that are enabled.","_implementations":"The implementation contract addresses."}},"isDevFeatureEnabled(bytes32)":{"params":{"_feature":"The feature to check."},"returns":{"_0":"True if the feature is enabled, false otherwise."}}}},"id":66}