{"abi":[{"type":"function","name":"configModuleUserOp","inputs":[{"name":"instance","type":"tuple","internalType":"struct AccountInstance","components":[{"name":"account","type":"address","internalType":"address"},{"name":"accountType","type":"uint8","internalType":"enum AccountType"},{"name":"accountHelper","type":"address","internalType":"address"},{"name":"aux","type":"tuple","internalType":"struct Auxiliary","components":[{"name":"entrypoint","type":"address","internalType":"contract IEntryPoint"},{"name":"gasSimulation","type":"address","internalType":"contract UserOpGasLog"},{"name":"registry","type":"address","internalType":"contract IERC7484"},{"name":"mockFactory","type":"address","internalType":"contract MockFactory"},{"name":"smartSession","type":"address","internalType":"contract ISmartSession"}]},{"name":"defaultValidator","type":"address","internalType":"contract IValidator"},{"name":"salt","type":"bytes32","internalType":"bytes32"},{"name":"initCode","type":"bytes","internalType":"bytes"},{"name":"accountFactory","type":"address","internalType":"address"},{"name":"smartSession","type":"address","internalType":"contract ISmartSession"},{"name":"defaultSessionValidator","type":"address","internalType":"contract ISessionValidator"}]},{"name":"moduleType","type":"uint256","internalType":"uint256"},{"name":"module","type":"address","internalType":"address"},{"name":"initData","type":"bytes","internalType":"bytes"},{"name":"isInstall","type":"bool","internalType":"bool"},{"name":"txValidator","type":"address","internalType":"address"}],"outputs":[{"name":"userOp","type":"tuple","internalType":"struct PackedUserOperation","components":[{"name":"sender","type":"address","internalType":"address"},{"name":"nonce","type":"uint256","internalType":"uint256"},{"name":"initCode","type":"bytes","internalType":"bytes"},{"name":"callData","type":"bytes","internalType":"bytes"},{"name":"accountGasLimits","type":"bytes32","internalType":"bytes32"},{"name":"preVerificationGas","type":"uint256","internalType":"uint256"},{"name":"gasFees","type":"bytes32","internalType":"bytes32"},{"name":"paymasterAndData","type":"bytes","internalType":"bytes"},{"name":"signature","type":"bytes","internalType":"bytes"}]},{"name":"userOpHash","type":"bytes32","internalType":"bytes32"}],"stateMutability":"nonpayable"},{"type":"function","name":"deployAccount","inputs":[{"name":"instance","type":"tuple","internalType":"struct AccountInstance","components":[{"name":"account","type":"address","internalType":"address"},{"name":"accountType","type":"uint8","internalType":"enum AccountType"},{"name":"accountHelper","type":"address","internalType":"address"},{"name":"aux","type":"tuple","internalType":"struct Auxiliary","components":[{"name":"entrypoint","type":"address","internalType":"contract IEntryPoint"},{"name":"gasSimulation","type":"address","internalType":"contract UserOpGasLog"},{"name":"registry","type":"address","internalType":"contract IERC7484"},{"name":"mockFactory","type":"address","internalType":"contract MockFactory"},{"name":"smartSession","type":"address","internalType":"contract ISmartSession"}]},{"name":"defaultValidator","type":"address","internalType":"contract IValidator"},{"name":"salt","type":"bytes32","internalType":"bytes32"},{"name":"initCode","type":"bytes","internalType":"bytes"},{"name":"accountFactory","type":"address","internalType":"address"},{"name":"smartSession","type":"address","internalType":"contract ISmartSession"},{"name":"defaultSessionValidator","type":"address","internalType":"contract ISessionValidator"}]}],"outputs":[],"stateMutability":"nonpayable"},{"type":"function","name":"encode","inputs":[{"name":"target","type":"address","internalType":"address"},{"name":"value","type":"uint256","internalType":"uint256"},{"name":"callData","type":"bytes","internalType":"bytes"}],"outputs":[{"name":"erc7579Tx","type":"bytes","internalType":"bytes"}],"stateMutability":"pure"},{"type":"function","name":"encode","inputs":[{"name":"executions","type":"tuple[]","internalType":"struct Execution[]","components":[{"name":"target","type":"address","internalType":"address"},{"name":"value","type":"uint256","internalType":"uint256"},{"name":"callData","type":"bytes","internalType":"bytes"}]}],"outputs":[{"name":"erc7579Tx","type":"bytes","internalType":"bytes"}],"stateMutability":"pure"},{"type":"function","name":"execUserOp","inputs":[{"name":"instance","type":"tuple","internalType":"struct AccountInstance","components":[{"name":"account","type":"address","internalType":"address"},{"name":"accountType","type":"uint8","internalType":"enum AccountType"},{"name":"accountHelper","type":"address","internalType":"address"},{"name":"aux","type":"tuple","internalType":"struct Auxiliary","components":[{"name":"entrypoint","type":"address","internalType":"contract IEntryPoint"},{"name":"gasSimulation","type":"address","internalType":"contract UserOpGasLog"},{"name":"registry","type":"address","internalType":"contract IERC7484"},{"name":"mockFactory","type":"address","internalType":"contract MockFactory"},{"name":"smartSession","type":"address","internalType":"contract ISmartSession"}]},{"name":"defaultValidator","type":"address","internalType":"contract IValidator"},{"name":"salt","type":"bytes32","internalType":"bytes32"},{"name":"initCode","type":"bytes","internalType":"bytes"},{"name":"accountFactory","type":"address","internalType":"address"},{"name":"smartSession","type":"address","internalType":"contract ISmartSession"},{"name":"defaultSessionValidator","type":"address","internalType":"contract ISessionValidator"}]},{"name":"callData","type":"bytes","internalType":"bytes"},{"name":"txValidator","type":"address","internalType":"address"}],"outputs":[{"name":"userOp","type":"tuple","internalType":"struct PackedUserOperation","components":[{"name":"sender","type":"address","internalType":"address"},{"name":"nonce","type":"uint256","internalType":"uint256"},{"name":"initCode","type":"bytes","internalType":"bytes"},{"name":"callData","type":"bytes","internalType":"bytes"},{"name":"accountGasLimits","type":"bytes32","internalType":"bytes32"},{"name":"preVerificationGas","type":"uint256","internalType":"uint256"},{"name":"gasFees","type":"bytes32","internalType":"bytes32"},{"name":"paymasterAndData","type":"bytes","internalType":"bytes"},{"name":"signature","type":"bytes","internalType":"bytes"}]},{"name":"userOpHash","type":"bytes32","internalType":"bytes32"}],"stateMutability":"nonpayable"},{"type":"function","name":"formatERC1271Hash","inputs":[{"name":"","type":"tuple","internalType":"struct AccountInstance","components":[{"name":"account","type":"address","internalType":"address"},{"name":"accountType","type":"uint8","internalType":"enum AccountType"},{"name":"accountHelper","type":"address","internalType":"address"},{"name":"aux","type":"tuple","internalType":"struct Auxiliary","components":[{"name":"entrypoint","type":"address","internalType":"contract IEntryPoint"},{"name":"gasSimulation","type":"address","internalType":"contract UserOpGasLog"},{"name":"registry","type":"address","internalType":"contract IERC7484"},{"name":"mockFactory","type":"address","internalType":"contract MockFactory"},{"name":"smartSession","type":"address","internalType":"contract ISmartSession"}]},{"name":"defaultValidator","type":"address","internalType":"contract IValidator"},{"name":"salt","type":"bytes32","internalType":"bytes32"},{"name":"initCode","type":"bytes","internalType":"bytes"},{"name":"accountFactory","type":"address","internalType":"address"},{"name":"smartSession","type":"address","internalType":"contract ISmartSession"},{"name":"defaultSessionValidator","type":"address","internalType":"contract ISessionValidator"}]},{"name":"","type":"address","internalType":"address"},{"name":"hash","type":"bytes32","internalType":"bytes32"}],"outputs":[{"name":"","type":"bytes32","internalType":"bytes32"}],"stateMutability":"nonpayable"},{"type":"function","name":"formatERC1271Signature","inputs":[{"name":"","type":"tuple","internalType":"struct AccountInstance","components":[{"name":"account","type":"address","internalType":"address"},{"name":"accountType","type":"uint8","internalType":"enum AccountType"},{"name":"accountHelper","type":"address","internalType":"address"},{"name":"aux","type":"tuple","internalType":"struct Auxiliary","components":[{"name":"entrypoint","type":"address","internalType":"contract IEntryPoint"},{"name":"gasSimulation","type":"address","internalType":"contract UserOpGasLog"},{"name":"registry","type":"address","internalType":"contract IERC7484"},{"name":"mockFactory","type":"address","internalType":"contract MockFactory"},{"name":"smartSession","type":"address","internalType":"contract ISmartSession"}]},{"name":"defaultValidator","type":"address","internalType":"contract IValidator"},{"name":"salt","type":"bytes32","internalType":"bytes32"},{"name":"initCode","type":"bytes","internalType":"bytes"},{"name":"accountFactory","type":"address","internalType":"address"},{"name":"smartSession","type":"address","internalType":"contract ISmartSession"},{"name":"defaultSessionValidator","type":"address","internalType":"contract ISessionValidator"}]},{"name":"validator","type":"address","internalType":"address"},{"name":"signature","type":"bytes","internalType":"bytes"}],"outputs":[{"name":"","type":"bytes","internalType":"bytes"}],"stateMutability":"nonpayable"},{"type":"function","name":"getInstallExecutorData","inputs":[{"name":"","type":"tuple","internalType":"struct AccountInstance","components":[{"name":"account","type":"address","internalType":"address"},{"name":"accountType","type":"uint8","internalType":"enum AccountType"},{"name":"accountHelper","type":"address","internalType":"address"},{"name":"aux","type":"tuple","internalType":"struct Auxiliary","components":[{"name":"entrypoint","type":"address","internalType":"contract IEntryPoint"},{"name":"gasSimulation","type":"address","internalType":"contract UserOpGasLog"},{"name":"registry","type":"address","internalType":"contract IERC7484"},{"name":"mockFactory","type":"address","internalType":"contract MockFactory"},{"name":"smartSession","type":"address","internalType":"contract ISmartSession"}]},{"name":"defaultValidator","type":"address","internalType":"contract IValidator"},{"name":"salt","type":"bytes32","internalType":"bytes32"},{"name":"initCode","type":"bytes","internalType":"bytes"},{"name":"accountFactory","type":"address","internalType":"address"},{"name":"smartSession","type":"address","internalType":"contract ISmartSession"},{"name":"defaultSessionValidator","type":"address","internalType":"contract ISessionValidator"}]},{"name":"","type":"address","internalType":"address"},{"name":"initData","type":"bytes","internalType":"bytes"}],"outputs":[{"name":"data","type":"bytes","internalType":"bytes"}],"stateMutability":"view"},{"type":"function","name":"getInstallFallbackData","inputs":[{"name":"","type":"tuple","internalType":"struct AccountInstance","components":[{"name":"account","type":"address","internalType":"address"},{"name":"accountType","type":"uint8","internalType":"enum AccountType"},{"name":"accountHelper","type":"address","internalType":"address"},{"name":"aux","type":"tuple","internalType":"struct Auxiliary","components":[{"name":"entrypoint","type":"address","internalType":"contract IEntryPoint"},{"name":"gasSimulation","type":"address","internalType":"contract UserOpGasLog"},{"name":"registry","type":"address","internalType":"contract IERC7484"},{"name":"mockFactory","type":"address","internalType":"contract MockFactory"},{"name":"smartSession","type":"address","internalType":"contract ISmartSession"}]},{"name":"defaultValidator","type":"address","internalType":"contract IValidator"},{"name":"salt","type":"bytes32","internalType":"bytes32"},{"name":"initCode","type":"bytes","internalType":"bytes"},{"name":"accountFactory","type":"address","internalType":"address"},{"name":"smartSession","type":"address","internalType":"contract ISmartSession"},{"name":"defaultSessionValidator","type":"address","internalType":"contract ISessionValidator"}]},{"name":"","type":"address","internalType":"address"},{"name":"initData","type":"bytes","internalType":"bytes"}],"outputs":[{"name":"data","type":"bytes","internalType":"bytes"}],"stateMutability":"pure"},{"type":"function","name":"getInstallHookData","inputs":[{"name":"","type":"tuple","internalType":"struct AccountInstance","components":[{"name":"account","type":"address","internalType":"address"},{"name":"accountType","type":"uint8","internalType":"enum AccountType"},{"name":"accountHelper","type":"address","internalType":"address"},{"name":"aux","type":"tuple","internalType":"struct Auxiliary","components":[{"name":"entrypoint","type":"address","internalType":"contract IEntryPoint"},{"name":"gasSimulation","type":"address","internalType":"contract UserOpGasLog"},{"name":"registry","type":"address","internalType":"contract IERC7484"},{"name":"mockFactory","type":"address","internalType":"contract MockFactory"},{"name":"smartSession","type":"address","internalType":"contract ISmartSession"}]},{"name":"defaultValidator","type":"address","internalType":"contract IValidator"},{"name":"salt","type":"bytes32","internalType":"bytes32"},{"name":"initCode","type":"bytes","internalType":"bytes"},{"name":"accountFactory","type":"address","internalType":"address"},{"name":"smartSession","type":"address","internalType":"contract ISmartSession"},{"name":"defaultSessionValidator","type":"address","internalType":"contract ISessionValidator"}]},{"name":"","type":"address","internalType":"address"},{"name":"initData","type":"bytes","internalType":"bytes"}],"outputs":[{"name":"data","type":"bytes","internalType":"bytes"}],"stateMutability":"view"},{"type":"function","name":"getInstallModuleCallData","inputs":[{"name":"","type":"tuple","internalType":"struct AccountInstance","components":[{"name":"account","type":"address","internalType":"address"},{"name":"accountType","type":"uint8","internalType":"enum AccountType"},{"name":"accountHelper","type":"address","internalType":"address"},{"name":"aux","type":"tuple","internalType":"struct Auxiliary","components":[{"name":"entrypoint","type":"address","internalType":"contract IEntryPoint"},{"name":"gasSimulation","type":"address","internalType":"contract UserOpGasLog"},{"name":"registry","type":"address","internalType":"contract IERC7484"},{"name":"mockFactory","type":"address","internalType":"contract MockFactory"},{"name":"smartSession","type":"address","internalType":"contract ISmartSession"}]},{"name":"defaultValidator","type":"address","internalType":"contract IValidator"},{"name":"salt","type":"bytes32","internalType":"bytes32"},{"name":"initCode","type":"bytes","internalType":"bytes"},{"name":"accountFactory","type":"address","internalType":"address"},{"name":"smartSession","type":"address","internalType":"contract ISmartSession"},{"name":"defaultSessionValidator","type":"address","internalType":"contract ISessionValidator"}]},{"name":"moduleType","type":"uint256","internalType":"uint256"},{"name":"module","type":"address","internalType":"address"},{"name":"initData","type":"bytes","internalType":"bytes"}],"outputs":[{"name":"callData","type":"bytes","internalType":"bytes"}],"stateMutability":"view"},{"type":"function","name":"getInstallModuleData","inputs":[{"name":"instance","type":"tuple","internalType":"struct AccountInstance","components":[{"name":"account","type":"address","internalType":"address"},{"name":"accountType","type":"uint8","internalType":"enum AccountType"},{"name":"accountHelper","type":"address","internalType":"address"},{"name":"aux","type":"tuple","internalType":"struct Auxiliary","components":[{"name":"entrypoint","type":"address","internalType":"contract IEntryPoint"},{"name":"gasSimulation","type":"address","internalType":"contract UserOpGasLog"},{"name":"registry","type":"address","internalType":"contract IERC7484"},{"name":"mockFactory","type":"address","internalType":"contract MockFactory"},{"name":"smartSession","type":"address","internalType":"contract ISmartSession"}]},{"name":"defaultValidator","type":"address","internalType":"contract IValidator"},{"name":"salt","type":"bytes32","internalType":"bytes32"},{"name":"initCode","type":"bytes","internalType":"bytes"},{"name":"accountFactory","type":"address","internalType":"address"},{"name":"smartSession","type":"address","internalType":"contract ISmartSession"},{"name":"defaultSessionValidator","type":"address","internalType":"contract ISessionValidator"}]},{"name":"moduleType","type":"uint256","internalType":"uint256"},{"name":"module","type":"address","internalType":"address"},{"name":"initData","type":"bytes","internalType":"bytes"}],"outputs":[{"name":"","type":"bytes","internalType":"bytes"}],"stateMutability":"view"},{"type":"function","name":"getInstallValidatorData","inputs":[{"name":"","type":"tuple","internalType":"struct AccountInstance","components":[{"name":"account","type":"address","internalType":"address"},{"name":"accountType","type":"uint8","internalType":"enum AccountType"},{"name":"accountHelper","type":"address","internalType":"address"},{"name":"aux","type":"tuple","internalType":"struct Auxiliary","components":[{"name":"entrypoint","type":"address","internalType":"contract IEntryPoint"},{"name":"gasSimulation","type":"address","internalType":"contract UserOpGasLog"},{"name":"registry","type":"address","internalType":"contract IERC7484"},{"name":"mockFactory","type":"address","internalType":"contract MockFactory"},{"name":"smartSession","type":"address","internalType":"contract ISmartSession"}]},{"name":"defaultValidator","type":"address","internalType":"contract IValidator"},{"name":"salt","type":"bytes32","internalType":"bytes32"},{"name":"initCode","type":"bytes","internalType":"bytes"},{"name":"accountFactory","type":"address","internalType":"address"},{"name":"smartSession","type":"address","internalType":"contract ISmartSession"},{"name":"defaultSessionValidator","type":"address","internalType":"contract ISessionValidator"}]},{"name":"","type":"address","internalType":"address"},{"name":"initData","type":"bytes","internalType":"bytes"}],"outputs":[{"name":"data","type":"bytes","internalType":"bytes"}],"stateMutability":"view"},{"type":"function","name":"getNonce","inputs":[{"name":"instance","type":"tuple","internalType":"struct AccountInstance","components":[{"name":"account","type":"address","internalType":"address"},{"name":"accountType","type":"uint8","internalType":"enum AccountType"},{"name":"accountHelper","type":"address","internalType":"address"},{"name":"aux","type":"tuple","internalType":"struct Auxiliary","components":[{"name":"entrypoint","type":"address","internalType":"contract IEntryPoint"},{"name":"gasSimulation","type":"address","internalType":"contract UserOpGasLog"},{"name":"registry","type":"address","internalType":"contract IERC7484"},{"name":"mockFactory","type":"address","internalType":"contract MockFactory"},{"name":"smartSession","type":"address","internalType":"contract ISmartSession"}]},{"name":"defaultValidator","type":"address","internalType":"contract IValidator"},{"name":"salt","type":"bytes32","internalType":"bytes32"},{"name":"initCode","type":"bytes","internalType":"bytes"},{"name":"accountFactory","type":"address","internalType":"address"},{"name":"smartSession","type":"address","internalType":"contract ISmartSession"},{"name":"defaultSessionValidator","type":"address","internalType":"contract ISessionValidator"}]},{"name":"","type":"bytes","internalType":"bytes"},{"name":"txValidator","type":"address","internalType":"address"}],"outputs":[{"name":"nonce","type":"uint256","internalType":"uint256"}],"stateMutability":"nonpayable"},{"type":"function","name":"getUninstallExecutorData","inputs":[{"name":"instance","type":"tuple","internalType":"struct AccountInstance","components":[{"name":"account","type":"address","internalType":"address"},{"name":"accountType","type":"uint8","internalType":"enum AccountType"},{"name":"accountHelper","type":"address","internalType":"address"},{"name":"aux","type":"tuple","internalType":"struct Auxiliary","components":[{"name":"entrypoint","type":"address","internalType":"contract IEntryPoint"},{"name":"gasSimulation","type":"address","internalType":"contract UserOpGasLog"},{"name":"registry","type":"address","internalType":"contract IERC7484"},{"name":"mockFactory","type":"address","internalType":"contract MockFactory"},{"name":"smartSession","type":"address","internalType":"contract ISmartSession"}]},{"name":"defaultValidator","type":"address","internalType":"contract IValidator"},{"name":"salt","type":"bytes32","internalType":"bytes32"},{"name":"initCode","type":"bytes","internalType":"bytes"},{"name":"accountFactory","type":"address","internalType":"address"},{"name":"smartSession","type":"address","internalType":"contract ISmartSession"},{"name":"defaultSessionValidator","type":"address","internalType":"contract ISessionValidator"}]},{"name":"module","type":"address","internalType":"address"},{"name":"initData","type":"bytes","internalType":"bytes"}],"outputs":[{"name":"data","type":"bytes","internalType":"bytes"}],"stateMutability":"view"},{"type":"function","name":"getUninstallFallbackData","inputs":[{"name":"","type":"tuple","internalType":"struct AccountInstance","components":[{"name":"account","type":"address","internalType":"address"},{"name":"accountType","type":"uint8","internalType":"enum AccountType"},{"name":"accountHelper","type":"address","internalType":"address"},{"name":"aux","type":"tuple","internalType":"struct Auxiliary","components":[{"name":"entrypoint","type":"address","internalType":"contract IEntryPoint"},{"name":"gasSimulation","type":"address","internalType":"contract UserOpGasLog"},{"name":"registry","type":"address","internalType":"contract IERC7484"},{"name":"mockFactory","type":"address","internalType":"contract MockFactory"},{"name":"smartSession","type":"address","internalType":"contract ISmartSession"}]},{"name":"defaultValidator","type":"address","internalType":"contract IValidator"},{"name":"salt","type":"bytes32","internalType":"bytes32"},{"name":"initCode","type":"bytes","internalType":"bytes"},{"name":"accountFactory","type":"address","internalType":"address"},{"name":"smartSession","type":"address","internalType":"contract ISmartSession"},{"name":"defaultSessionValidator","type":"address","internalType":"contract ISessionValidator"}]},{"name":"","type":"address","internalType":"address"},{"name":"initData","type":"bytes","internalType":"bytes"}],"outputs":[{"name":"data","type":"bytes","internalType":"bytes"}],"stateMutability":"pure"},{"type":"function","name":"getUninstallHookData","inputs":[{"name":"","type":"tuple","internalType":"struct AccountInstance","components":[{"name":"account","type":"address","internalType":"address"},{"name":"accountType","type":"uint8","internalType":"enum AccountType"},{"name":"accountHelper","type":"address","internalType":"address"},{"name":"aux","type":"tuple","internalType":"struct Auxiliary","components":[{"name":"entrypoint","type":"address","internalType":"contract IEntryPoint"},{"name":"gasSimulation","type":"address","internalType":"contract UserOpGasLog"},{"name":"registry","type":"address","internalType":"contract IERC7484"},{"name":"mockFactory","type":"address","internalType":"contract MockFactory"},{"name":"smartSession","type":"address","internalType":"contract ISmartSession"}]},{"name":"defaultValidator","type":"address","internalType":"contract IValidator"},{"name":"salt","type":"bytes32","internalType":"bytes32"},{"name":"initCode","type":"bytes","internalType":"bytes"},{"name":"accountFactory","type":"address","internalType":"address"},{"name":"smartSession","type":"address","internalType":"contract ISmartSession"},{"name":"defaultSessionValidator","type":"address","internalType":"contract ISessionValidator"}]},{"name":"","type":"address","internalType":"address"},{"name":"initData","type":"bytes","internalType":"bytes"}],"outputs":[{"name":"data","type":"bytes","internalType":"bytes"}],"stateMutability":"pure"},{"type":"function","name":"getUninstallModuleCallData","inputs":[{"name":"","type":"tuple","internalType":"struct AccountInstance","components":[{"name":"account","type":"address","internalType":"address"},{"name":"accountType","type":"uint8","internalType":"enum AccountType"},{"name":"accountHelper","type":"address","internalType":"address"},{"name":"aux","type":"tuple","internalType":"struct Auxiliary","components":[{"name":"entrypoint","type":"address","internalType":"contract IEntryPoint"},{"name":"gasSimulation","type":"address","internalType":"contract UserOpGasLog"},{"name":"registry","type":"address","internalType":"contract IERC7484"},{"name":"mockFactory","type":"address","internalType":"contract MockFactory"},{"name":"smartSession","type":"address","internalType":"contract ISmartSession"}]},{"name":"defaultValidator","type":"address","internalType":"contract IValidator"},{"name":"salt","type":"bytes32","internalType":"bytes32"},{"name":"initCode","type":"bytes","internalType":"bytes"},{"name":"accountFactory","type":"address","internalType":"address"},{"name":"smartSession","type":"address","internalType":"contract ISmartSession"},{"name":"defaultSessionValidator","type":"address","internalType":"contract ISessionValidator"}]},{"name":"moduleType","type":"uint256","internalType":"uint256"},{"name":"module","type":"address","internalType":"address"},{"name":"initData","type":"bytes","internalType":"bytes"}],"outputs":[{"name":"callData","type":"bytes","internalType":"bytes"}],"stateMutability":"view"},{"type":"function","name":"getUninstallModuleData","inputs":[{"name":"instance","type":"tuple","internalType":"struct AccountInstance","components":[{"name":"account","type":"address","internalType":"address"},{"name":"accountType","type":"uint8","internalType":"enum AccountType"},{"name":"accountHelper","type":"address","internalType":"address"},{"name":"aux","type":"tuple","internalType":"struct Auxiliary","components":[{"name":"entrypoint","type":"address","internalType":"contract IEntryPoint"},{"name":"gasSimulation","type":"address","internalType":"contract UserOpGasLog"},{"name":"registry","type":"address","internalType":"contract IERC7484"},{"name":"mockFactory","type":"address","internalType":"contract MockFactory"},{"name":"smartSession","type":"address","internalType":"contract ISmartSession"}]},{"name":"defaultValidator","type":"address","internalType":"contract IValidator"},{"name":"salt","type":"bytes32","internalType":"bytes32"},{"name":"initCode","type":"bytes","internalType":"bytes"},{"name":"accountFactory","type":"address","internalType":"address"},{"name":"smartSession","type":"address","internalType":"contract ISmartSession"},{"name":"defaultSessionValidator","type":"address","internalType":"contract ISessionValidator"}]},{"name":"moduleType","type":"uint256","internalType":"uint256"},{"name":"module","type":"address","internalType":"address"},{"name":"initData","type":"bytes","internalType":"bytes"}],"outputs":[{"name":"","type":"bytes","internalType":"bytes"}],"stateMutability":"view"},{"type":"function","name":"getUninstallValidatorData","inputs":[{"name":"instance","type":"tuple","internalType":"struct AccountInstance","components":[{"name":"account","type":"address","internalType":"address"},{"name":"accountType","type":"uint8","internalType":"enum AccountType"},{"name":"accountHelper","type":"address","internalType":"address"},{"name":"aux","type":"tuple","internalType":"struct Auxiliary","components":[{"name":"entrypoint","type":"address","internalType":"contract IEntryPoint"},{"name":"gasSimulation","type":"address","internalType":"contract UserOpGasLog"},{"name":"registry","type":"address","internalType":"contract IERC7484"},{"name":"mockFactory","type":"address","internalType":"contract MockFactory"},{"name":"smartSession","type":"address","internalType":"contract ISmartSession"}]},{"name":"defaultValidator","type":"address","internalType":"contract IValidator"},{"name":"salt","type":"bytes32","internalType":"bytes32"},{"name":"initCode","type":"bytes","internalType":"bytes"},{"name":"accountFactory","type":"address","internalType":"address"},{"name":"smartSession","type":"address","internalType":"contract ISmartSession"},{"name":"defaultSessionValidator","type":"address","internalType":"contract ISessionValidator"}]},{"name":"module","type":"address","internalType":"address"},{"name":"initData","type":"bytes","internalType":"bytes"}],"outputs":[{"name":"data","type":"bytes","internalType":"bytes"}],"stateMutability":"view"},{"type":"function","name":"isModuleInstalled","inputs":[{"name":"instance","type":"tuple","internalType":"struct AccountInstance","components":[{"name":"account","type":"address","internalType":"address"},{"name":"accountType","type":"uint8","internalType":"enum AccountType"},{"name":"accountHelper","type":"address","internalType":"address"},{"name":"aux","type":"tuple","internalType":"struct Auxiliary","components":[{"name":"entrypoint","type":"address","internalType":"contract IEntryPoint"},{"name":"gasSimulation","type":"address","internalType":"contract UserOpGasLog"},{"name":"registry","type":"address","internalType":"contract IERC7484"},{"name":"mockFactory","type":"address","internalType":"contract MockFactory"},{"name":"smartSession","type":"address","internalType":"contract ISmartSession"}]},{"name":"defaultValidator","type":"address","internalType":"contract IValidator"},{"name":"salt","type":"bytes32","internalType":"bytes32"},{"name":"initCode","type":"bytes","internalType":"bytes"},{"name":"accountFactory","type":"address","internalType":"address"},{"name":"smartSession","type":"address","internalType":"contract ISmartSession"},{"name":"defaultSessionValidator","type":"address","internalType":"contract ISessionValidator"}]},{"name":"moduleTypeId","type":"uint256","internalType":"uint256"},{"name":"module","type":"address","internalType":"address"}],"outputs":[{"name":"","type":"bool","internalType":"bool"}],"stateMutability":"nonpayable"},{"type":"function","name":"isModuleInstalled","inputs":[{"name":"instance","type":"tuple","internalType":"struct AccountInstance","components":[{"name":"account","type":"address","internalType":"address"},{"name":"accountType","type":"uint8","internalType":"enum AccountType"},{"name":"accountHelper","type":"address","internalType":"address"},{"name":"aux","type":"tuple","internalType":"struct Auxiliary","components":[{"name":"entrypoint","type":"address","internalType":"contract IEntryPoint"},{"name":"gasSimulation","type":"address","internalType":"contract UserOpGasLog"},{"name":"registry","type":"address","internalType":"contract IERC7484"},{"name":"mockFactory","type":"address","internalType":"contract MockFactory"},{"name":"smartSession","type":"address","internalType":"contract ISmartSession"}]},{"name":"defaultValidator","type":"address","internalType":"contract IValidator"},{"name":"salt","type":"bytes32","internalType":"bytes32"},{"name":"initCode","type":"bytes","internalType":"bytes"},{"name":"accountFactory","type":"address","internalType":"address"},{"name":"smartSession","type":"address","internalType":"contract ISmartSession"},{"name":"defaultSessionValidator","type":"address","internalType":"contract ISessionValidator"}]},{"name":"moduleTypeId","type":"uint256","internalType":"uint256"},{"name":"module","type":"address","internalType":"address"},{"name":"additionalContext","type":"bytes","internalType":"bytes"}],"outputs":[{"name":"","type":"bool","internalType":"bool"}],"stateMutability":"nonpayable"},{"type":"function","name":"isValidSignature","inputs":[{"name":"instance","type":"tuple","internalType":"struct AccountInstance","components":[{"name":"account","type":"address","internalType":"address"},{"name":"accountType","type":"uint8","internalType":"enum AccountType"},{"name":"accountHelper","type":"address","internalType":"address"},{"name":"aux","type":"tuple","internalType":"struct Auxiliary","components":[{"name":"entrypoint","type":"address","internalType":"contract IEntryPoint"},{"name":"gasSimulation","type":"address","internalType":"contract UserOpGasLog"},{"name":"registry","type":"address","internalType":"contract IERC7484"},{"name":"mockFactory","type":"address","internalType":"contract MockFactory"},{"name":"smartSession","type":"address","internalType":"contract ISmartSession"}]},{"name":"defaultValidator","type":"address","internalType":"contract IValidator"},{"name":"salt","type":"bytes32","internalType":"bytes32"},{"name":"initCode","type":"bytes","internalType":"bytes"},{"name":"accountFactory","type":"address","internalType":"address"},{"name":"smartSession","type":"address","internalType":"contract ISmartSession"},{"name":"defaultSessionValidator","type":"address","internalType":"contract ISessionValidator"}]},{"name":"validator","type":"address","internalType":"address"},{"name":"hash","type":"bytes32","internalType":"bytes32"},{"name":"signature","type":"bytes","internalType":"bytes"}],"outputs":[{"name":"isValid","type":"bool","internalType":"bool"}],"stateMutability":"nonpayable"},{"type":"function","name":"toExecutions","inputs":[{"name":"targets","type":"address[]","internalType":"address[]"},{"name":"values","type":"uint256[]","internalType":"uint256[]"},{"name":"callDatas","type":"bytes[]","internalType":"bytes[]"}],"outputs":[{"name":"executions","type":"tuple[]","internalType":"struct Execution[]","components":[{"name":"target","type":"address","internalType":"address"},{"name":"value","type":"uint256","internalType":"uint256"},{"name":"callData","type":"bytes","internalType":"bytes"}]}],"stateMutability":"pure"}],"bytecode":{"object":"0x6080604052348015600e575f5ffd5b506120918061001c5f395ff3fe608060405234801561000f575f5ffd5b5060043610610153575f3560e01c80637eca7228116100bf578063cda93f5a11610079578063cda93f5a146102c1578063d2c0d9fb146102d4578063d3cc71e1146102e7578063d5ff7bd4146102fa578063df50bee51461030d578063ee5747e714610320575f5ffd5b80637eca72281461027a57806387a005401461028d5780639e3d7bd3146101b3578063a4ac1916146102a0578063c338a7e9146101b3578063c3581ca8146102b3575f5ffd5b80634e68a7a7116101105780634e68a7a7146101fb578063514692c61461020e5780635d393e6e14610231578063693a019e146102525780636edb81af146101b35780637e5f37a514610265575f5ffd5b8063085819181461015757806318350407146101805780632368d27a146101a057806335ad6bf4146101b3578063416d2f1d146101c75780634ca667bb146101e8575b5f5ffd5b61016a6101653660046114f0565b610333565b604051610177919061159c565b60405180910390f35b61019361018e3660046116ba565b6103ce565b60405161017791906117a5565b61016a6101ae366004611832565b610532565b61016a6101c1366004611832565b92915050565b6101da6101d536600461189c565b610581565b604051908152602001610177565b61016a6101f63660046114f0565b610616565b61016a610209366004611832565b610660565b61022161021c366004611912565b6107c4565b6040519015158152602001610177565b61024461023f36600461189c565b6108b2565b604051610177929190611a18565b61016a610260366004611832565b610a27565b610278610273366004611a39565b610b5c565b005b61016a610288366004611a6a565b610bf7565b61016a61029b366004611832565b610c77565b6102446102ae366004611ab5565b610ca7565b6101da6101c1366004611b58565b61016a6102cf366004611832565b610e63565b6102216102e2366004611bad565b610e90565b61016a6102f5366004611bf8565b610ef1565b61016a6103083660046114f0565b610f67565b61016a61031b3660046114f0565b610fb1565b61022161032e3660046114f0565b610ff0565b60606001840361034f57610348858484610a27565b90506103c6565b6002840361036257610348858484610660565b600484036103705781610348565b6003840361038357610348858484610c77565b60405162461bcd60e51b8152602060048201526013602482015272496e76616c6964206d6f64756c65207479706560681b60448201526064015b60405180910390fd5b949350505050565b606083516001600160401b038111156103e9576103e961123e565b60405190808252806020026020018201604052801561043557816020015b60408051606080820183525f8083526020830152918101919091528152602001906001900390816104075790505b509050825184511415801561044c57508151835114155b1561048b5760405162461bcd60e51b815260206004820152600f60248201526e098cadccee8d0409ad2e6dac2e8c6d608b1b60448201526064016103bd565b5f5b845181101561052a5760405180606001604052808683815181106104b3576104b3611cfc565b60200260200101516001600160a01b031681526020018583815181106104db576104db611cfc565b602002602001015181526020018483815181106104fa576104fa611cfc565b602002602001015181525082828151811061051757610517611cfc565b602090810291909101015260010161048d565b509392505050565b60605f5f5f8480602001905181019061054b9190611d27565b92509250925082828260405160200161056693929190611de2565b60405160208183030381529060405293505050509392505050565b6060830151518351604051631aab3f0d60e11b81526001600160a01b039182166004820152602084901b640100000000600160c01b0316602482018190525f93909216906335567e1a90604401602060405180830381865afa1580156105e9573d5f5f3e3d5ffd5b505050506040513d601f19601f8201168201806040525081019061060d9190611e0d565b95945050505050565b606083838360405160240161062d93929190611e24565b60408051601f198184030181529190526020810180516001600160e01b0316639517e29f60e01b17905295945050505050565b8251604051630ea5f61d60e41b815260016004820152606460248201526060915f9182916001600160a01b03169063ea5f61d0906044015f60405180830381865afa1580156106b1573d5f5f3e3d5ffd5b505050506040513d5f823e601f3d908101601f191682016040526106d89190810190611e58565b50905080516001036106ed5760019150610797565b846001600160a01b0316815f8151811061070957610709611cfc565b60200260200101516001600160a01b0316036107285760019150610797565b60015b815181101561079557856001600160a01b031682828151811061075057610750611cfc565b60200260200101516001600160a01b03160361078d5781610772600183611f03565b8151811061078257610782611cfc565b602002602001015192505b60010161072b565b505b81846040516020016107aa929190611f22565b604051602081830303815290604052925050509392505050565b83515f9085906001600160a01b03163b151582816107ef576107e461109d565b90506107ef83610b5c565b8751604051630b135d3f60e11b916001600160a01b031690631626ba7e90899061081f908c908b90602001611f45565b6040516020818303038152906040526040518363ffffffff1660e01b815260040161084b929190611f68565b602060405180830381865afa158015610866573d5f5f3e3d5ffd5b505050506040513d601f19601f8201168201806040525081019061088a9190611f80565b6001600160e01b031916149350816108a7576108a581611118565b505b505050949350505050565b6108ba6111ee565b83515f906060906001600160a01b03163b1580156108da578660c0015191505b604051806101200160405280885f01516001600160a01b03168152602001610903898989610581565b8152602001838152602001878152602001621e84808060405160200161092a929190611f99565b60405160208183030381529060405261094290611fc4565b8152602001621e84808152602001600180604051602001610964929190611f99565b60405160208183030381529060405261097c90611fc4565b815260200160405180602001604052805f815250815260200160405180602001604052805f815250815250935086606001515f01516001600160a01b03166322cdde4c856040518263ffffffff1660e01b81526004016109dc9190611fea565b602060405180830381865afa1580156109f7573d5f5f3e3d5ffd5b505050506040513d601f19601f82011682018060405250810190610a1b9190611e0d565b92505050935093915050565b8251604051635faac46b60e01b815260016004820152606460248201526060915f9182916001600160a01b031690635faac46b906044015f60405180830381865afa158015610a78573d5f5f3e3d5ffd5b505050506040513d5f823e601f3d908101601f19168201604052610a9f9190810190611e58565b5090508051600103610ab45760019150610797565b846001600160a01b0316815f81518110610ad057610ad0611cfc565b60200260200101516001600160a01b031603610aef5760019150610797565b60015b815181101561079557856001600160a01b0316828281518110610b1757610b17611cfc565b60200260200101516001600160a01b031603610b545781610b39600183611f03565b81518110610b4957610b49611cfc565b602002602001015192505b600101610af2565b80516001600160a01b03163b5f03610bf4578060c00151515f03610bce5760405162461bcd60e51b815260206004820152602360248201527f6465706c6f794163636f756e743a206e6f20696e6974436f64652070726f766960448201526219195960ea1b60648201526084016103bd565b60c0810151601481015181515f9081906034850182855af1905080610bf1575f5ffd5b50505b50565b60605f610c068180808061118d565b90505f858585604051602001610c1e93929190611ffc565b60405160208183030381529060405290508181604051602401610c42929190611f68565b60408051601f198184030181529190526020810180516001600160e01b031663e9ae5c5360e01b179052925050509392505050565b60605f5f83806020019051810190610c8f9190611d27565b925050915081816040516020016107aa929190612025565b610caf6111ee565b5f6060885f01516001600160a01b03163b5f03610ccd575060c08801515b60608515610cf657610ce18a8a8a8a610fb1565b9650610cef8a8a8a8a610616565b9050610d13565b610d028a8a8a8a610333565b9650610d108a8a8a8a610f67565b90505b6040518061012001604052808b5f01516001600160a01b03168152602001610d3c8c8489610581565b8152602001838152602001828152602001621e848080604051602001610d63929190611f99565b604051602081830303815290604052610d7b90611fc4565b8152602001621e84808152602001600180604051602001610d9d929190611f99565b604051602081830303815290604052610db590611fc4565b815260200160405180602001604052805f815250815260200160405180602001604052805f815250815250935089606001515f01516001600160a01b03166322cdde4c856040518263ffffffff1660e01b8152600401610e159190611fea565b602060405180830381865afa158015610e30573d5f5f3e3d5ffd5b505050506040513d601f19601f82011682018060405250810190610e549190611e0d565b92505050965096945050505050565b60608282604051602001610e78929190611f45565b60405160208183030381529060405290509392505050565b82515f9084906001600160a01b03163b15158281610ebb57610eb061109d565b9050610ebb83610b5c565b610ed587878760405180602001604052805f815250610ff0565b935081610ee757610ee581611118565b505b5050509392505050565b60605f610f04600160f81b82808061118d565b90508083604051602001610f1891906117a5565b60408051601f1981840301815290829052610f369291602401611f68565b60408051601f198184030181529190526020810180516001600160e01b031663e9ae5c5360e01b1790529392505050565b6060838383604051602401610f7e93929190611e24565b60408051601f198184030181529190526020810180516001600160e01b03166314e2ec7560e31b17905295945050505050565b606060018403610fc15781610348565b60028403610fcf5781610348565b60048403610fdd5781610348565b6003840361038357610348858484610532565b83515f9085906001600160a01b03163b1515828161101b5761101061109d565b905061101b83610b5c565b875160405163112d3a7d60e01b81526001600160a01b039091169063112d3a7d9061104e908a908a908a90600401611e24565b602060405180830381865afa158015611069573d5f5f3e3d5ffd5b505050506040513d601f19601f8201168201806040525081019061108d9190612040565b9350816108a7576108a581611118565b5f737109709ecfa91a80626ff3989d68f67f5b1dd12d6001600160a01b0316639cd238356040518163ffffffff1660e01b81526004016020604051808303815f875af11580156110ef573d5f5f3e3d5ffd5b505050506040513d601f19601f820116820180604052508101906111139190611e0d565b905090565b60405163c252740560e01b8152600481018290525f90737109709ecfa91a80626ff3989d68f67f5b1dd12d9063c2527405906024016020604051808303815f875af1158015611169573d5f5f3e3d5ffd5b505050506040513d601f19601f820116820180604052508101906101c19190612040565b604080516001600160f81b03198087166020830152851660218201525f602282018190526001600160e01b03198516602683015269ffffffffffffffffffff198416602a830152910160405160208183030381529060405261060d90611fc4565b6040518061012001604052805f6001600160a01b031681526020015f815260200160608152602001606081526020015f81526020015f81526020015f815260200160608152602001606081525090565b634e487b7160e01b5f52604160045260245ffd5b60405161014081016001600160401b03811182821017156112755761127561123e565b60405290565b604051606081016001600160401b03811182821017156112755761127561123e565b604051601f8201601f191681016001600160401b03811182821017156112c5576112c561123e565b604052919050565b6001600160a01b0381168114610bf4575f5ffd5b80356112ec816112cd565b919050565b8035600581106112ec575f5ffd5b5f60a0828403121561130f575f5ffd5b60405160a081016001600160401b03811182821017156113315761133161123e565b6040529050808235611342816112cd565b81526020830135611352816112cd565b60208201526040830135611365816112cd565b60408201526060830135611378816112cd565b6060820152608083013561138b816112cd565b6080919091015292915050565b5f6001600160401b038211156113b0576113b061123e565b50601f01601f191660200190565b5f82601f8301126113cd575f5ffd5b81356113e06113db82611398565b61129d565b8181528460208386010111156113f4575f5ffd5b816020850160208301375f918101602001919091529392505050565b5f6101c08284031215611421575f5ffd5b611429611252565b9050611434826112e1565b8152611442602083016112f1565b6020820152611453604083016112e1565b604082015261146583606084016112ff565b606082015261147761010083016112e1565b608082015261012082013560a08201526101408201356001600160401b038111156114a0575f5ffd5b6114ac848285016113be565b60c0830152506114bf61016083016112e1565b60e08201526114d161018083016112e1565b6101008201526114e46101a083016112e1565b61012082015292915050565b5f5f5f5f60808587031215611503575f5ffd5b84356001600160401b03811115611518575f5ffd5b61152487828801611410565b94505060208501359250604085013561153c816112cd565b915060608501356001600160401b03811115611556575f5ffd5b611562878288016113be565b91505092959194509250565b5f81518084528060208401602086015e5f602082860101526020601f19601f83011685010191505092915050565b602081525f6115ae602083018461156e565b9392505050565b5f6001600160401b038211156115cd576115cd61123e565b5060051b60200190565b5f82601f8301126115e6575f5ffd5b81356115f46113db826115b5565b8082825260208201915060208360051b860101925085831115611615575f5ffd5b602085015b8381101561163257803583526020928301920161161a565b5095945050505050565b5f82601f83011261164b575f5ffd5b81356116596113db826115b5565b8082825260208201915060208360051b86010192508583111561167a575f5ffd5b602085015b838110156116325780356001600160401b0381111561169c575f5ffd5b6116ab886020838a01016113be565b8452506020928301920161167f565b5f5f5f606084860312156116cc575f5ffd5b83356001600160401b038111156116e1575f5ffd5b8401601f810186136116f1575f5ffd5b80356116ff6113db826115b5565b8082825260208201915060208360051b850101925088831115611720575f5ffd5b6020840193505b8284101561174b57833561173a816112cd565b825260209384019390910190611727565b955050505060208401356001600160401b03811115611768575f5ffd5b611774868287016115d7565b92505060408401356001600160401b0381111561178f575f5ffd5b61179b8682870161163c565b9150509250925092565b5f602082016020835280845180835260408501915060408160051b8601019250602086015f5b8281101561182657868503603f19018452815180516001600160a01b03168652602080820151908701526040908101516060918701829052906118109087018261156e565b95505060209384019391909101906001016117cb565b50929695505050505050565b5f5f5f60608486031215611844575f5ffd5b83356001600160401b03811115611859575f5ffd5b61186586828701611410565b9350506020840135611876816112cd565b915060408401356001600160401b03811115611890575f5ffd5b61179b868287016113be565b5f5f5f606084860312156118ae575f5ffd5b83356001600160401b038111156118c3575f5ffd5b6118cf86828701611410565b93505060208401356001600160401b038111156118ea575f5ffd5b6118f6868287016113be565b9250506040840135611907816112cd565b809150509250925092565b5f5f5f5f60808587031215611925575f5ffd5b84356001600160401b0381111561193a575f5ffd5b61194687828801611410565b9450506020850135611957816112cd565b92506040850135915060608501356001600160401b03811115611556575f5ffd5b80516001600160a01b03168252602081015160208301525f604082015161012060408501526119ab61012085018261156e565b9050606083015184820360608601526119c4828261156e565b9150506080830151608085015260a083015160a085015260c083015160c085015260e083015184820360e08601526119fc828261156e565b91505061010083015184820361010086015261060d828261156e565b604081525f611a2a6040830185611978565b90508260208301529392505050565b5f60208284031215611a49575f5ffd5b81356001600160401b03811115611a5e575f5ffd5b6103c684828501611410565b5f5f5f60608486031215611a7c575f5ffd5b8335611a87816112cd565b92506020840135915060408401356001600160401b03811115611890575f5ffd5b8015158114610bf4575f5ffd5b5f5f5f5f5f5f60c08789031215611aca575f5ffd5b86356001600160401b03811115611adf575f5ffd5b611aeb89828a01611410565b965050602087013594506040870135611b03816112cd565b935060608701356001600160401b03811115611b1d575f5ffd5b611b2989828a016113be565b9350506080870135611b3a81611aa8565b915060a0870135611b4a816112cd565b809150509295509295509295565b5f5f5f60608486031215611b6a575f5ffd5b83356001600160401b03811115611b7f575f5ffd5b611b8b86828701611410565b9350506020840135611b9c816112cd565b929592945050506040919091013590565b5f5f5f60608486031215611bbf575f5ffd5b83356001600160401b03811115611bd4575f5ffd5b611be086828701611410565b935050602084013591506040840135611907816112cd565b5f60208284031215611c08575f5ffd5b81356001600160401b03811115611c1d575f5ffd5b8201601f81018413611c2d575f5ffd5b8035611c3b6113db826115b5565b8082825260208201915060208360051b850101925086831115611c5c575f5ffd5b602084015b83811015611cf15780356001600160401b03811115611c7e575f5ffd5b85016060818a03601f19011215611c93575f5ffd5b611c9b61127b565b6020820135611ca9816112cd565b81526040820135602082015260608201356001600160401b03811115611ccd575f5ffd5b611cdc8b6020838601016113be565b60408301525084525060209283019201611c61565b509695505050505050565b634e487b7160e01b5f52603260045260245ffd5b80516001600160e01b0319811681146112ec575f5ffd5b5f5f5f60608486031215611d39575f5ffd5b611d4284611d10565b60208501519093506001600160f81b031981168114611d5f575f5ffd5b60408501519092506001600160401b03811115611d7a575f5ffd5b8401601f81018613611d8a575f5ffd5b8051611d986113db82611398565b818152876020838501011115611dac575f5ffd5b8160208401602083015e5f602083830101528093505050509250925092565b5f81518060208401855e5f93019283525090919050565b6001600160e01b0319841681526001600160f81b0319831660048201525f61060d6005830184611dcb565b5f60208284031215611e1d575f5ffd5b5051919050565b8381526001600160a01b03831660208201526060604082018190525f9061060d9083018461156e565b80516112ec816112cd565b5f5f60408385031215611e69575f5ffd5b82516001600160401b03811115611e7e575f5ffd5b8301601f81018513611e8e575f5ffd5b8051611e9c6113db826115b5565b8082825260208201915060208360051b850101925087831115611ebd575f5ffd5b6020840193505b82841015611ee8578351611ed7816112cd565b825260209384019390910190611ec4565b9450611efa9250505060208401611e4d565b90509250929050565b818103818111156101c157634e487b7160e01b5f52601160045260245ffd5b6001600160a01b03831681526040602082018190525f906103c69083018461156e565b6bffffffffffffffffffffffff198360601b1681525f6103c66014830184611dcb565b828152604060208201525f6103c6604083018461156e565b5f60208284031215611f90575f5ffd5b6115ae82611d10565b6fffffffffffffffffffffffffffffffff19608093841b811682529190921b16601082015260200190565b80516020808301519190811015611fe4575f198160200360031b1b821691505b50919050565b602081525f6115ae6020830184611978565b6bffffffffffffffffffffffff198460601b1681528260148201525f61060d6034830184611dcb565b6001600160e01b0319831681525f6103c66004830184611dcb565b5f60208284031215612050575f5ffd5b81516115ae81611aa856fea26469706673582212201012b0913da7e4c127702f44e1c3f193c149af2f6239702d7864f4f6c2be8f0064736f6c634300081c0033","linkReferences":{}},"methodIdentifiers":{"configModuleUserOp((address,uint8,address,(address,address,address,address,address),address,bytes32,bytes,address,address,address),uint256,address,bytes,bool,address)":"a4ac1916","deployAccount((address,uint8,address,(address,address,address,address,address),address,bytes32,bytes,address,address,address))":"7e5f37a5","encode((address,uint256,bytes)[])":"d3cc71e1","encode(address,uint256,bytes)":"7eca7228","execUserOp((address,uint8,address,(address,address,address,address,address),address,bytes32,bytes,address,address,address),bytes,address)":"5d393e6e","formatERC1271Hash((address,uint8,address,(address,address,address,address,address),address,bytes32,bytes,address,address,address),address,bytes32)":"c3581ca8","formatERC1271Signature((address,uint8,address,(address,address,address,address,address),address,bytes32,bytes,address,address,address),address,bytes)":"cda93f5a","getInstallExecutorData((address,uint8,address,(address,address,address,address,address),address,bytes32,bytes,address,address,address),address,bytes)":"9e3d7bd3","getInstallFallbackData((address,uint8,address,(address,address,address,address,address),address,bytes32,bytes,address,address,address),address,bytes)":"2368d27a","getInstallHookData((address,uint8,address,(address,address,address,address,address),address,bytes32,bytes,address,address,address),address,bytes)":"c338a7e9","getInstallModuleCallData((address,uint8,address,(address,address,address,address,address),address,bytes32,bytes,address,address,address),uint256,address,bytes)":"4ca667bb","getInstallModuleData((address,uint8,address,(address,address,address,address,address),address,bytes32,bytes,address,address,address),uint256,address,bytes)":"df50bee5","getInstallValidatorData((address,uint8,address,(address,address,address,address,address),address,bytes32,bytes,address,address,address),address,bytes)":"6edb81af","getNonce((address,uint8,address,(address,address,address,address,address),address,bytes32,bytes,address,address,address),bytes,address)":"416d2f1d","getUninstallExecutorData((address,uint8,address,(address,address,address,address,address),address,bytes32,bytes,address,address,address),address,bytes)":"4e68a7a7","getUninstallFallbackData((address,uint8,address,(address,address,address,address,address),address,bytes32,bytes,address,address,address),address,bytes)":"87a00540","getUninstallHookData((address,uint8,address,(address,address,address,address,address),address,bytes32,bytes,address,address,address),address,bytes)":"35ad6bf4","getUninstallModuleCallData((address,uint8,address,(address,address,address,address,address),address,bytes32,bytes,address,address,address),uint256,address,bytes)":"d5ff7bd4","getUninstallModuleData((address,uint8,address,(address,address,address,address,address),address,bytes32,bytes,address,address,address),uint256,address,bytes)":"08581918","getUninstallValidatorData((address,uint8,address,(address,address,address,address,address),address,bytes32,bytes,address,address,address),address,bytes)":"693a019e","isModuleInstalled((address,uint8,address,(address,address,address,address,address),address,bytes32,bytes,address,address,address),uint256,address)":"d2c0d9fb","isModuleInstalled((address,uint8,address,(address,address,address,address,address),address,bytes32,bytes,address,address,address),uint256,address,bytes)":"ee5747e7","isValidSignature((address,uint8,address,(address,address,address,address,address),address,bytes32,bytes,address,address,address),address,bytes32,bytes)":"514692c6","toExecutions(address[],uint256[],bytes[])":"18350407"},"id":185}