{"abi":[{"type":"function","name":"hexToBytes","inputs":[{"name":"hexStr","type":"string","internalType":"string"}],"outputs":[{"name":"","type":"bytes","internalType":"bytes"}],"stateMutability":"pure"},{"type":"function","name":"hexToBytes32","inputs":[{"name":"hexStr","type":"string","internalType":"string"}],"outputs":[{"name":"","type":"bytes32","internalType":"bytes32"}],"stateMutability":"pure"}],"bytecode":{"object":"0x610698610034600b8282823980515f1a607314602857634e487b7160e01b5f525f60045260245ffd5b305f52607381538281f3fe730000000000000000000000000000000000000000301460806040526004361061003f575f3560e01c806399bbc83f14610043578063b6e372a314610069575b5f5ffd5b6100566100513660046104a3565b610089565b6040519081526020015b60405180910390f35b61007c6100773660046104a3565b6100f9565b6040516100609190610511565b5f5f61009584846100f9565b905080516020146100e65760405162461bcd60e51b8152602060048201526016602482015275313cba32b9903632b733ba341034b9903737ba10199960511b60448201526064015b60405180910390fd5b6100ef81610546565b9150505b92915050565b6040805180820182526002815261060f60f31b6020808301918252835180850185525f808252908201528351808501909452915183529082015260609061017e9061017885858080601f0160208091040260200160405190810160405280939291908181526020018383808284375f9201919091525061037392505050565b9061039f565b6101bf5760405162461bcd60e51b81526020600482015260126024820152710d2dcecc2d8d2c840d0caf040e0e4caccd2f60731b60448201526064016100dd565b5f6101cd8360028187610569565b8080601f0160208091040260200160405190810160405280939291908181526020018383808284375f9201919091525050825192935083921580159250905061022157506002815161021f91906105a4565b155b61026d5760405162461bcd60e51b815260206004820152601960248201527f696e76616c69642068657820737472696e67206c656e6774680000000000000060448201526064016100dd565b5f6002825161027c91906105cb565b67ffffffffffffffff811115610294576102946105de565b6040519080825280601f01601f1916602001820160405280156102be576020820181803683370190505b5090505f5b600283516102d191906105cb565b81101561036957610316836102e78360026105f2565b6102f2906001610609565b815181106103025761030261061c565b01602001516001600160f81b0319166103e0565b6004610327856102f28560026105f2565b60ff16901b6103369190610630565b60f81b82828151811061034b5761034b61061c565b60200101906001600160f81b03191690815f1a9053506001016102c3565b5095945050505050565b6040805180820182525f8082526020918201528151808301909252825182529182019181019190915290565b805182515f9111156103b257505f6100f3565b81602001518360200151036103c9575060016100f3565b508051602092830151929091015181902091201490565b5f60f882901c603081108015906103fb575060398160ff1611155b156104125761040b603082610649565b9392505050565b60418160ff161015801561042a575060468160ff1611155b1561043a5761040b603782610649565b60618160ff1610158015610452575060668160ff1611155b156104625761040b605782610649565b60405162461bcd60e51b815260206004820152601060248201526f34b73b30b634b2103432bc1031b430b960811b60448201526064016100dd565b50919050565b5f5f602083850312156104b4575f5ffd5b823567ffffffffffffffff8111156104ca575f5ffd5b8301601f810185136104da575f5ffd5b803567ffffffffffffffff8111156104f0575f5ffd5b856020828401011115610501575f5ffd5b6020919091019590945092505050565b602081525f82518060208401528060208501604085015e5f604082850101526040601f19601f83011684010191505092915050565b8051602080830151919081101561049d575f1960209190910360031b1b16919050565b5f5f85851115610577575f5ffd5b83861115610583575f5ffd5b5050820193919092039150565b634e487b7160e01b5f52601260045260245ffd5b5f826105b2576105b2610590565b500690565b634e487b7160e01b5f52601160045260245ffd5b5f826105d9576105d9610590565b500490565b634e487b7160e01b5f52604160045260245ffd5b80820281158282048414176100f3576100f36105b7565b808201808211156100f3576100f36105b7565b634e487b7160e01b5f52603260045260245ffd5b60ff81811683821601908111156100f3576100f36105b7565b60ff82811682821603908111156100f3576100f36105b756fea264697066735822122077f00fab4501ef2c4426205b0dd8f89043522ac7d21d87a20099252125deafc464736f6c634300081c0033","linkReferences":{}},"methodIdentifiers":{"hexToBytes(string)":"b6e372a3","hexToBytes32(string)":"99bbc83f"},"id":226}