{"abi":[{"type":"constructor","inputs":[{"name":"verifier","type":"address","internalType":"address"},{"name":"dkimRegistry","type":"address","internalType":"address"},{"name":"emailAuthImpl","type":"address","internalType":"address"},{"name":"commandHandler","type":"address","internalType":"address"},{"name":"minimumDelay","type":"uint256","internalType":"uint256"},{"name":"killSwitchAuthorizer","type":"address","internalType":"address"},{"name":"_validator","type":"address","internalType":"address"},{"name":"_selector","type":"bytes4","internalType":"bytes4"}],"stateMutability":"nonpayable"},{"type":"function","name":"CANCEL_EXPIRED_RECOVERY_COOLDOWN","inputs":[],"outputs":[{"name":"","type":"uint256","internalType":"uint256"}],"stateMutability":"view"},{"type":"function","name":"MINIMUM_RECOVERY_WINDOW","inputs":[],"outputs":[{"name":"","type":"uint256","internalType":"uint256"}],"stateMutability":"view"},{"type":"function","name":"acceptanceCommandTemplates","inputs":[],"outputs":[{"name":"","type":"string[][]","internalType":"string[][]"}],"stateMutability":"view"},{"type":"function","name":"addGuardian","inputs":[{"name":"guardian","type":"address","internalType":"address"},{"name":"weight","type":"uint256","internalType":"uint256"}],"outputs":[],"stateMutability":"nonpayable"},{"type":"function","name":"canStartRecoveryRequest","inputs":[{"name":"account","type":"address","internalType":"address"}],"outputs":[{"name":"","type":"bool","internalType":"bool"}],"stateMutability":"view"},{"type":"function","name":"cancelExpiredRecovery","inputs":[{"name":"account","type":"address","internalType":"address"}],"outputs":[],"stateMutability":"nonpayable"},{"type":"function","name":"cancelRecovery","inputs":[],"outputs":[],"stateMutability":"nonpayable"},{"type":"function","name":"changeThreshold","inputs":[{"name":"threshold","type":"uint256","internalType":"uint256"}],"outputs":[],"stateMutability":"nonpayable"},{"type":"function","name":"commandHandler","inputs":[],"outputs":[{"name":"","type":"address","internalType":"address"}],"stateMutability":"view"},{"type":"function","name":"completeRecovery","inputs":[{"name":"account","type":"address","internalType":"address"},{"name":"recoveryData","type":"bytes","internalType":"bytes"}],"outputs":[],"stateMutability":"nonpayable"},{"type":"function","name":"computeAcceptanceTemplateId","inputs":[{"name":"templateIdx","type":"uint256","internalType":"uint256"}],"outputs":[{"name":"","type":"uint256","internalType":"uint256"}],"stateMutability":"pure"},{"type":"function","name":"computeEmailAuthAddress","inputs":[{"name":"recoveredAccount","type":"address","internalType":"address"},{"name":"accountSalt","type":"bytes32","internalType":"bytes32"}],"outputs":[{"name":"","type":"address","internalType":"address"}],"stateMutability":"view"},{"type":"function","name":"computeRecoveryTemplateId","inputs":[{"name":"templateIdx","type":"uint256","internalType":"uint256"}],"outputs":[{"name":"","type":"uint256","internalType":"uint256"}],"stateMutability":"pure"},{"type":"function","name":"dkim","inputs":[],"outputs":[{"name":"","type":"address","internalType":"address"}],"stateMutability":"view"},{"type":"function","name":"dkimAddr","inputs":[],"outputs":[{"name":"","type":"address","internalType":"address"}],"stateMutability":"view"},{"type":"function","name":"emailAuthImplementation","inputs":[],"outputs":[{"name":"","type":"address","internalType":"address"}],"stateMutability":"view"},{"type":"function","name":"emailAuthImplementationAddr","inputs":[],"outputs":[{"name":"","type":"address","internalType":"address"}],"stateMutability":"view"},{"type":"function","name":"extractRecoveredAccountFromAcceptanceCommand","inputs":[{"name":"commandParams","type":"bytes[]","internalType":"bytes[]"},{"name":"templateIdx","type":"uint256","internalType":"uint256"}],"outputs":[{"name":"","type":"address","internalType":"address"}],"stateMutability":"view"},{"type":"function","name":"extractRecoveredAccountFromRecoveryCommand","inputs":[{"name":"commandParams","type":"bytes[]","internalType":"bytes[]"},{"name":"templateIdx","type":"uint256","internalType":"uint256"}],"outputs":[{"name":"","type":"address","internalType":"address"}],"stateMutability":"view"},{"type":"function","name":"getAllGuardians","inputs":[{"name":"account","type":"address","internalType":"address"}],"outputs":[{"name":"","type":"address[]","internalType":"address[]"}],"stateMutability":"view"},{"type":"function","name":"getGuardian","inputs":[{"name":"account","type":"address","internalType":"address"},{"name":"guardian","type":"address","internalType":"address"}],"outputs":[{"name":"","type":"tuple","internalType":"struct GuardianStorage","components":[{"name":"status","type":"uint8","internalType":"enum GuardianStatus"},{"name":"weight","type":"uint256","internalType":"uint256"}]}],"stateMutability":"view"},{"type":"function","name":"getGuardianConfig","inputs":[{"name":"account","type":"address","internalType":"address"}],"outputs":[{"name":"","type":"tuple","internalType":"struct IGuardianManager.GuardianConfig","components":[{"name":"guardianCount","type":"uint256","internalType":"uint256"},{"name":"totalWeight","type":"uint256","internalType":"uint256"},{"name":"acceptedWeight","type":"uint256","internalType":"uint256"},{"name":"threshold","type":"uint256","internalType":"uint256"}]}],"stateMutability":"view"},{"type":"function","name":"getPreviousRecoveryRequest","inputs":[{"name":"account","type":"address","internalType":"address"}],"outputs":[{"name":"","type":"tuple","internalType":"struct IEmailRecoveryManager.PreviousRecoveryRequest","components":[{"name":"previousGuardianInitiated","type":"address","internalType":"address"},{"name":"cancelRecoveryCooldown","type":"uint256","internalType":"uint256"}]}],"stateMutability":"view"},{"type":"function","name":"getRecoveryConfig","inputs":[{"name":"account","type":"address","internalType":"address"}],"outputs":[{"name":"","type":"tuple","internalType":"struct IEmailRecoveryManager.RecoveryConfig","components":[{"name":"delay","type":"uint256","internalType":"uint256"},{"name":"expiry","type":"uint256","internalType":"uint256"}]}],"stateMutability":"view"},{"type":"function","name":"getRecoveryRequest","inputs":[{"name":"account","type":"address","internalType":"address"}],"outputs":[{"name":"executeAfter","type":"uint256","internalType":"uint256"},{"name":"executeBefore","type":"uint256","internalType":"uint256"},{"name":"currentWeight","type":"uint256","internalType":"uint256"},{"name":"recoveryDataHash","type":"bytes32","internalType":"bytes32"}],"stateMutability":"view"},{"type":"function","name":"handleAcceptance","inputs":[{"name":"emailAuthMsg","type":"tuple","internalType":"struct EmailAuthMsg","components":[{"name":"templateId","type":"uint256","internalType":"uint256"},{"name":"commandParams","type":"bytes[]","internalType":"bytes[]"},{"name":"skippedCommandPrefix","type":"uint256","internalType":"uint256"},{"name":"proof","type":"tuple","internalType":"struct EmailProof","components":[{"name":"domainName","type":"string","internalType":"string"},{"name":"publicKeyHash","type":"bytes32","internalType":"bytes32"},{"name":"timestamp","type":"uint256","internalType":"uint256"},{"name":"maskedCommand","type":"string","internalType":"string"},{"name":"emailNullifier","type":"bytes32","internalType":"bytes32"},{"name":"accountSalt","type":"bytes32","internalType":"bytes32"},{"name":"isCodeExist","type":"bool","internalType":"bool"},{"name":"proof","type":"bytes","internalType":"bytes"}]}]},{"name":"templateIdx","type":"uint256","internalType":"uint256"}],"outputs":[],"stateMutability":"nonpayable"},{"type":"function","name":"handleRecovery","inputs":[{"name":"emailAuthMsg","type":"tuple","internalType":"struct EmailAuthMsg","components":[{"name":"templateId","type":"uint256","internalType":"uint256"},{"name":"commandParams","type":"bytes[]","internalType":"bytes[]"},{"name":"skippedCommandPrefix","type":"uint256","internalType":"uint256"},{"name":"proof","type":"tuple","internalType":"struct EmailProof","components":[{"name":"domainName","type":"string","internalType":"string"},{"name":"publicKeyHash","type":"bytes32","internalType":"bytes32"},{"name":"timestamp","type":"uint256","internalType":"uint256"},{"name":"maskedCommand","type":"string","internalType":"string"},{"name":"emailNullifier","type":"bytes32","internalType":"bytes32"},{"name":"accountSalt","type":"bytes32","internalType":"bytes32"},{"name":"isCodeExist","type":"bool","internalType":"bool"},{"name":"proof","type":"bytes","internalType":"bytes"}]}]},{"name":"templateIdx","type":"uint256","internalType":"uint256"}],"outputs":[],"stateMutability":"nonpayable"},{"type":"function","name":"hasGuardianVoted","inputs":[{"name":"account","type":"address","internalType":"address"},{"name":"guardian","type":"address","internalType":"address"}],"outputs":[{"name":"","type":"bool","internalType":"bool"}],"stateMutability":"view"},{"type":"function","name":"isActivated","inputs":[{"name":"account","type":"address","internalType":"address"}],"outputs":[{"name":"","type":"bool","internalType":"bool"}],"stateMutability":"view"},{"type":"function","name":"isInitialized","inputs":[{"name":"account","type":"address","internalType":"address"}],"outputs":[{"name":"","type":"bool","internalType":"bool"}],"stateMutability":"view"},{"type":"function","name":"isModuleType","inputs":[{"name":"typeID","type":"uint256","internalType":"uint256"}],"outputs":[{"name":"","type":"bool","internalType":"bool"}],"stateMutability":"pure"},{"type":"function","name":"killSwitchEnabled","inputs":[],"outputs":[{"name":"","type":"bool","internalType":"bool"}],"stateMutability":"view"},{"type":"function","name":"minimumDelay","inputs":[],"outputs":[{"name":"","type":"uint256","internalType":"uint256"}],"stateMutability":"view"},{"type":"function","name":"name","inputs":[],"outputs":[{"name":"","type":"string","internalType":"string"}],"stateMutability":"pure"},{"type":"function","name":"onInstall","inputs":[{"name":"data","type":"bytes","internalType":"bytes"}],"outputs":[],"stateMutability":"nonpayable"},{"type":"function","name":"onUninstall","inputs":[{"name":"","type":"bytes","internalType":"bytes"}],"outputs":[],"stateMutability":"nonpayable"},{"type":"function","name":"owner","inputs":[],"outputs":[{"name":"","type":"address","internalType":"address"}],"stateMutability":"view"},{"type":"function","name":"recoveryCommandTemplates","inputs":[],"outputs":[{"name":"","type":"string[][]","internalType":"string[][]"}],"stateMutability":"view"},{"type":"function","name":"removeGuardian","inputs":[{"name":"guardian","type":"address","internalType":"address"}],"outputs":[],"stateMutability":"nonpayable"},{"type":"function","name":"renounceOwnership","inputs":[],"outputs":[],"stateMutability":"nonpayable"},{"type":"function","name":"selector","inputs":[],"outputs":[{"name":"","type":"bytes4","internalType":"bytes4"}],"stateMutability":"view"},{"type":"function","name":"toggleKillSwitch","inputs":[],"outputs":[],"stateMutability":"nonpayable"},{"type":"function","name":"transferOwnership","inputs":[{"name":"newOwner","type":"address","internalType":"address"}],"outputs":[],"stateMutability":"nonpayable"},{"type":"function","name":"updateRecoveryConfig","inputs":[{"name":"recoveryConfig","type":"tuple","internalType":"struct IEmailRecoveryManager.RecoveryConfig","components":[{"name":"delay","type":"uint256","internalType":"uint256"},{"name":"expiry","type":"uint256","internalType":"uint256"}]}],"outputs":[],"stateMutability":"nonpayable"},{"type":"function","name":"validator","inputs":[],"outputs":[{"name":"","type":"address","internalType":"address"}],"stateMutability":"view"},{"type":"function","name":"verifier","inputs":[],"outputs":[{"name":"","type":"address","internalType":"address"}],"stateMutability":"view"},{"type":"function","name":"verifierAddr","inputs":[],"outputs":[{"name":"","type":"address","internalType":"address"}],"stateMutability":"view"},{"type":"function","name":"version","inputs":[],"outputs":[{"name":"","type":"string","internalType":"string"}],"stateMutability":"pure"},{"type":"event","name":"AddedGuardian","inputs":[{"name":"account","type":"address","indexed":true,"internalType":"address"},{"name":"guardian","type":"address","indexed":true,"internalType":"address"},{"name":"weight","type":"uint256","indexed":false,"internalType":"uint256"}],"anonymous":false},{"type":"event","name":"ChangedThreshold","inputs":[{"name":"account","type":"address","indexed":true,"internalType":"address"},{"name":"threshold","type":"uint256","indexed":false,"internalType":"uint256"}],"anonymous":false},{"type":"event","name":"GuardianAccepted","inputs":[{"name":"account","type":"address","indexed":true,"internalType":"address"},{"name":"guardian","type":"address","indexed":true,"internalType":"address"}],"anonymous":false},{"type":"event","name":"GuardianStatusUpdated","inputs":[{"name":"account","type":"address","indexed":true,"internalType":"address"},{"name":"guardian","type":"address","indexed":true,"internalType":"address"},{"name":"newStatus","type":"uint8","indexed":false,"internalType":"enum GuardianStatus"}],"anonymous":false},{"type":"event","name":"GuardianVoted","inputs":[{"name":"account","type":"address","indexed":true,"internalType":"address"},{"name":"guardian","type":"address","indexed":true,"internalType":"address"},{"name":"currentWeight","type":"uint256","indexed":false,"internalType":"uint256"},{"name":"guardianWeight","type":"uint256","indexed":false,"internalType":"uint256"}],"anonymous":false},{"type":"event","name":"OwnershipTransferred","inputs":[{"name":"previousOwner","type":"address","indexed":true,"internalType":"address"},{"name":"newOwner","type":"address","indexed":true,"internalType":"address"}],"anonymous":false},{"type":"event","name":"RecoveryCancelled","inputs":[{"name":"account","type":"address","indexed":true,"internalType":"address"}],"anonymous":false},{"type":"event","name":"RecoveryCompleted","inputs":[{"name":"account","type":"address","indexed":true,"internalType":"address"}],"anonymous":false},{"type":"event","name":"RecoveryConfigUpdated","inputs":[{"name":"account","type":"address","indexed":true,"internalType":"address"},{"name":"delay","type":"uint256","indexed":false,"internalType":"uint256"},{"name":"expiry","type":"uint256","indexed":false,"internalType":"uint256"}],"anonymous":false},{"type":"event","name":"RecoveryConfigured","inputs":[{"name":"account","type":"address","indexed":true,"internalType":"address"},{"name":"guardianCount","type":"uint256","indexed":false,"internalType":"uint256"},{"name":"totalWeight","type":"uint256","indexed":false,"internalType":"uint256"},{"name":"threshold","type":"uint256","indexed":false,"internalType":"uint256"}],"anonymous":false},{"type":"event","name":"RecoveryDeInitialized","inputs":[{"name":"account","type":"address","indexed":true,"internalType":"address"}],"anonymous":false},{"type":"event","name":"RecoveryExecuted","inputs":[{"name":"account","type":"address","indexed":true,"internalType":"address"},{"name":"validator","type":"address","indexed":true,"internalType":"address"}],"anonymous":false},{"type":"event","name":"RecoveryRequestComplete","inputs":[{"name":"account","type":"address","indexed":true,"internalType":"address"},{"name":"guardian","type":"address","indexed":true,"internalType":"address"},{"name":"executeAfter","type":"uint256","indexed":false,"internalType":"uint256"},{"name":"executeBefore","type":"uint256","indexed":false,"internalType":"uint256"},{"name":"recoveryDataHash","type":"bytes32","indexed":false,"internalType":"bytes32"}],"anonymous":false},{"type":"event","name":"RecoveryRequestStarted","inputs":[{"name":"account","type":"address","indexed":true,"internalType":"address"},{"name":"guardian","type":"address","indexed":true,"internalType":"address"},{"name":"executeBefore","type":"uint256","indexed":false,"internalType":"uint256"},{"name":"recoveryDataHash","type":"bytes32","indexed":false,"internalType":"bytes32"}],"anonymous":false},{"type":"event","name":"RemovedGuardian","inputs":[{"name":"account","type":"address","indexed":true,"internalType":"address"},{"name":"guardian","type":"address","indexed":true,"internalType":"address"},{"name":"weight","type":"uint256","indexed":false,"internalType":"uint256"}],"anonymous":false},{"type":"error","name":"AccountNotConfigured","inputs":[]},{"type":"error","name":"AddressAlreadyGuardian","inputs":[]},{"type":"error","name":"AddressNotGuardianForAccount","inputs":[]},{"type":"error","name":"DelayLessThanMinimumDelay","inputs":[{"name":"delay","type":"uint256","internalType":"uint256"},{"name":"minimumDelay","type":"uint256","internalType":"uint256"}]},{"type":"error","name":"DelayMoreThanExpiry","inputs":[{"name":"delay","type":"uint256","internalType":"uint256"},{"name":"expiry","type":"uint256","internalType":"uint256"}]},{"type":"error","name":"DelayNotPassed","inputs":[{"name":"blockTimestamp","type":"uint256","internalType":"uint256"},{"name":"executeAfter","type":"uint256","internalType":"uint256"}]},{"type":"error","name":"GuardianAlreadyVoted","inputs":[]},{"type":"error","name":"GuardianMustWaitForCooldown","inputs":[{"name":"guardian","type":"address","internalType":"address"}]},{"type":"error","name":"IncorrectNumberOfWeights","inputs":[{"name":"guardianCount","type":"uint256","internalType":"uint256"},{"name":"weightCount","type":"uint256","internalType":"uint256"}]},{"type":"error","name":"InvalidAccountAddress","inputs":[]},{"type":"error","name":"InvalidCommandHandler","inputs":[]},{"type":"error","name":"InvalidDkimRegistry","inputs":[]},{"type":"error","name":"InvalidEmailAuthImpl","inputs":[]},{"type":"error","name":"InvalidFactory","inputs":[]},{"type":"error","name":"InvalidGuardianAddress","inputs":[{"name":"guardian","type":"address","internalType":"address"}]},{"type":"error","name":"InvalidGuardianStatus","inputs":[{"name":"guardianStatus","type":"uint8","internalType":"enum GuardianStatus"},{"name":"expectedGuardianStatus","type":"uint8","internalType":"enum GuardianStatus"}]},{"type":"error","name":"InvalidGuardianWeight","inputs":[]},{"type":"error","name":"InvalidKillSwitchAuthorizer","inputs":[]},{"type":"error","name":"InvalidOnInstallData","inputs":[]},{"type":"error","name":"InvalidProxyBytecodeHash","inputs":[]},{"type":"error","name":"InvalidRecoveryDataHash","inputs":[{"name":"recoveryDataHash","type":"bytes32","internalType":"bytes32"},{"name":"expectedRecoveryDataHash","type":"bytes32","internalType":"bytes32"}]},{"type":"error","name":"InvalidSelector","inputs":[{"name":"selector","type":"bytes4","internalType":"bytes4"}]},{"type":"error","name":"InvalidValidator","inputs":[{"name":"validator","type":"address","internalType":"address"}]},{"type":"error","name":"InvalidVerifier","inputs":[]},{"type":"error","name":"KillSwitchEnabled","inputs":[]},{"type":"error","name":"MaxNumberOfGuardiansReached","inputs":[]},{"type":"error","name":"ModuleAlreadyInitialized","inputs":[{"name":"smartAccount","type":"address","internalType":"address"}]},{"type":"error","name":"NoRecoveryConfigured","inputs":[]},{"type":"error","name":"NoRecoveryInProcess","inputs":[]},{"type":"error","name":"NotEnoughApprovals","inputs":[{"name":"currentWeight","type":"uint256","internalType":"uint256"},{"name":"threshold","type":"uint256","internalType":"uint256"}]},{"type":"error","name":"NotInitialized","inputs":[{"name":"smartAccount","type":"address","internalType":"address"}]},{"type":"error","name":"OwnableInvalidOwner","inputs":[{"name":"owner","type":"address","internalType":"address"}]},{"type":"error","name":"OwnableUnauthorizedAccount","inputs":[{"name":"account","type":"address","internalType":"address"}]},{"type":"error","name":"RecoveryHasNotExpired","inputs":[{"name":"account","type":"address","internalType":"address"},{"name":"blockTimestamp","type":"uint256","internalType":"uint256"},{"name":"executeBefore","type":"uint256","internalType":"uint256"}]},{"type":"error","name":"RecoveryInProcess","inputs":[]},{"type":"error","name":"RecoveryIsNotActivated","inputs":[]},{"type":"error","name":"RecoveryRequestExpired","inputs":[{"name":"blockTimestamp","type":"uint256","internalType":"uint256"},{"name":"executeBefore","type":"uint256","internalType":"uint256"}]},{"type":"error","name":"RecoveryWindowTooShort","inputs":[{"name":"recoveryWindow","type":"uint256","internalType":"uint256"}]},{"type":"error","name":"SetupAlreadyCalled","inputs":[]},{"type":"error","name":"SetupNotCalled","inputs":[]},{"type":"error","name":"StatusCannotBeTheSame","inputs":[{"name":"newStatus","type":"uint8","internalType":"enum GuardianStatus"}]},{"type":"error","name":"ThresholdCannotBeZero","inputs":[]},{"type":"error","name":"ThresholdExceedsAcceptedWeight","inputs":[{"name":"threshold","type":"uint256","internalType":"uint256"},{"name":"acceptedWeight","type":"uint256","internalType":"uint256"}]},{"type":"error","name":"ThresholdExceedsTotalWeight","inputs":[{"name":"threshold","type":"uint256","internalType":"uint256"},{"name":"totalWeight","type":"uint256","internalType":"uint256"}]},{"type":"error","name":"TooManyValuesToRemove","inputs":[]}],"bytecode":{"object":"0x610100604052348015610010575f5ffd5b5060405161506638038061506683398101604081905261002f9161034d565b878787878787806001600160a01b03811661006457604051631e4fbdf760e01b81525f60048201526024015b60405180910390fd5b61006d816102e1565b506001600160a01b0386166100955760405163baa3de5f60e01b815260040160405180910390fd5b6001600160a01b0385166100bc5760405163260ce05b60e01b815260040160405180910390fd5b6001600160a01b0384166100e35760405163e98100fb60e01b815260040160405180910390fd5b6001600160a01b03831661010a5760405163fce1ed6f60e01b815260040160405180910390fd5b6001600160a01b03811661013157604051630a19006f60e01b815260040160405180910390fd5b505f80546001600160a01b03199081166001600160a01b039788161790915560018054821695871695909517909455600280549094169285169290921790925590821660805260a05282166101a357604051628eae2b60e51b81526001600160a01b038316600482015260240161005b565b336001600160a01b0383160361024e576001600160e01b03198116630d582f1360e01b148015906101e557506001600160e01b0319811663f8dc5dd960e01b14155b801561020257506001600160e01b0319811663e318b52b60e01b14155b801561021f57506001600160e01b0319811663694e80c360e01b14155b15610249576040516312ba286f60e01b81526001600160e01b03198216600482015260240161005b565b6102ba565b6001600160e01b031981166306d61fe760e41b148061027d57506001600160e01b03198116638a91b0e360e01b145b8061029057506001600160e01b03198116155b156102ba576040516312ba286f60e01b81526001600160e01b03198216600482015260240161005b565b6001600160a01b0390911660c0526001600160e01b03191660e052506103e9945050505050565b600580546001600160a01b038381166001600160a01b0319831681179093556040519116919082907f8be0079c531659141344cd1fd0a4f28419497f9722a3daafe3b4186f6b6457e0905f90a35050565b80516001600160a01b0381168114610348575f5ffd5b919050565b5f5f5f5f5f5f5f5f610100898b031215610365575f5ffd5b61036e89610332565b975061037c60208a01610332565b965061038a60408a01610332565b955061039860608a01610332565b9450608089015193506103ad60a08a01610332565b92506103bb60c08a01610332565b60e08a01519092506001600160e01b0319811681146103d8575f5ffd5b809150509295985092959890939650565b60805160a05160c05160e051614be861047e5f395f81816107cd0152612fcf01525f81816104660152818161173b015281816117be01528181613033015261305c01525f81816104b9015281816110d2015261111001525f818161077301528181611218015281816112b60152818161145e01528181611b3c015281816122f001528181612aa40152612c490152614be85ff3fe608060405234801561000f575f5ffd5b5060043610610297575f3560e01c80636da9951511610161578063b6201692116100ca578063d60b347f11610084578063d60b347f14610795578063da34a850146107a8578063ea3d508a146107c8578063ecd0596114610808578063f2fde38b1461081c578063ffd55e3c1461082f575f5ffd5b8063b6201692146106e9578063b68126fa146106fa578063bbd2a05e1461070d578063c18d09cf1461072d578063c9faa7c514610740578063d15558bf1461076e575f5ffd5b80638da5cb5b1161011b5780638da5cb5b1461067257806399150680146106835780639c8f84391461068d578063a5e3ee70146106b0578063ab1b5fde146106c3578063ada4cb70146106d6575f5ffd5b80636da99515146105a457806371404156146105b7578063715018a6146105ca57806373357f85146105d257806386b97e51146105e55780638a91b0e31461065f575f5ffd5b80633a5381b5116102035780634f9a28b9116101bd5780634f9a28b9146104e357806354fd4d50146105415780635707f31814610562578063663ea2e21461056c578063694e80c31461057e5780636d61fe7014610591575f5ffd5b80633a5381b5146104615780633a8eab14146104885780633ef01b8f1461049b578063400ad5ce146104a3578063427ad624146104b45780634630f1d5146104db575f5ffd5b80631788178f116102545780631788178f14610387578063222f6cb51461039a5780632788bbda146103af5780632b7ac3f31461041d5780632c4ce1291461042d57806332ccc2f214610440575f5ffd5b80630481af671461029b57806306fdde03146102b05780630ba234d6146102fb5780630bb6094a146103035780631098e02e14610349578063111e531314610374575b5f5ffd5b6102ae6102a9366004613ad7565b610843565b005b60408051808201909152601b81527f5a4b456d61696c2e456d61696c5265636f766572794d6f64756c65000000000060208201525b6040516102f29190613c76565b60405180910390f35b6102ae610cf2565b610316610311366004613c9c565b610ddc565b6040516102f291908151815260208083015190820152604080830151908201526060918201519181019190915260800190565b60025461035c906001600160a01b031681565b6040516001600160a01b0390911681526020016102f2565b6102ae610382366004613cb7565b610e4d565b6102ae610395366004613ce1565b610f96565b6103a2611214565b6040516102f29190613d2f565b6104026103bd366004613c9c565b604080518082019091525f8082526020820152506001600160a01b03165f90815260066020908152604091829020825180840190935280548352600101549082015290565b604080518251815260209283015192810192909252016102f2565b5f546001600160a01b031661035c565b61035c61043b366004613dd8565b61129d565b61045361044e366004613e19565b611335565b6040519081526020016102f2565b61035c7f000000000000000000000000000000000000000000000000000000000000000081565b61035c610496366004613cb7565b61138c565b6103a261145a565b6001546001600160a01b031661035c565b6104537f000000000000000000000000000000000000000000000000000000000000000081565b6102ae6114b7565b6105216104f1366004613c9c565b6001600160a01b03165f908152600760205260409020805460018201546002830154600390930154919390929190565b6040805194855260208501939093529183015260608201526080016102f2565b6040805180820190915260058152640312e302e360dc1b60208201526102e5565b6104536201518081565b5f5461035c906001600160a01b031681565b6102ae61058c366004613e19565b6114e0565b6102ae61059f366004613e74565b6116db565b6104536105b2366004613e19565b611802565b6102ae6105c5366004613c9c565b611817565b6102ae611ae0565b60015461035c906001600160a01b031681565b61063b6105f3366004613c9c565b6040805180820182525f80825260209182018190526001600160a01b039384168152600882528290208251808401909352805490931682526001909201549181019190915290565b6040805182516001600160a01b0316815260209283015192810192909252016102f2565b6102ae61066d366004613e74565b611af3565b6005546001600160a01b031661035c565b6104536202a30081565b6106a061069b366004613eb2565b611aff565b60405190151581526020016102f2565b61035c6106be366004613dd8565b611b23565b6102ae6106d1366004613c9c565b611b73565b6106a06106e4366004613c9c565b611cfe565b6002546001600160a01b031661035c565b6102ae610708366004613ad7565b611d2d565b61072061071b366004613c9c565b611ee6565b6040516102f29190613ee9565b6102ae61073b366004613f34565b611f09565b6106a061074e366004613c9c565b6001600160a01b03165f9081526003602081905260409091200154151590565b61035c7f000000000000000000000000000000000000000000000000000000000000000081565b6106a06107a3366004613c9c565b612131565b6107bb6107b6366004613eb2565b612147565b6040516102f29190613fb8565b6107ef7f000000000000000000000000000000000000000000000000000000000000000081565b6040516001600160e01b031990911681526020016102f2565b6106a0610816366004613e19565b60021490565b6102ae61082a366004613c9c565b61217b565b6005546106a090600160a01b900460ff1681565b5f61085283602001518361129d565b90506001600160a01b0381166108aa5760405162461bcd60e51b81526020600482015260186024820152771a5b9d985b1a59081858d8dbdd5b9d081a5b88195b585a5b60421b60448201526064015b60405180910390fd5b5f6108bd82856060015160a0015161138c565b90505f6108c984611335565b855190915081146109125760405162461bcd60e51b81526020600482015260136024820152721a5b9d985b1a59081d195b5c1b185d19481a59606a1b60448201526064016108a1565b606085015160c0015115156001146109635760405162461bcd60e51b81526020600482015260146024820152736973436f646545786973742069732066616c736560601b60448201526064016108a1565b5f826001600160a01b03163b5f03610bc1575f61098885886060015160a001516121b8565b9050809150816001600160a01b031663557cf5ef6109ae6001546001600160a01b031690565b6040516001600160e01b031960e084901b1681526001600160a01b0390911660048201526024015f604051808303815f87803b1580156109ec575f5ffd5b505af11580156109fe573d5f5f3e3d5ffd5b50505050816001600160a01b0316634141407c610a225f546001600160a01b031690565b6040516001600160e01b031960e084901b1681526001600160a01b0390911660048201526024015f604051808303815f87803b158015610a60575f5ffd5b505af1158015610a72573d5f5f3e3d5ffd5b505f925050505b610a81611214565b51811015610b1857826001600160a01b0316638ff3730f610aa183611335565b610aa9611214565b8481518110610aba57610aba613fd8565b60200260200101516040518363ffffffff1660e01b8152600401610adf929190613fec565b5f604051808303815f87803b158015610af6575f5ffd5b505af1158015610b08573d5f5f3e3d5ffd5b505060019092019150610a799050565b505f5b610b2361145a565b51811015610bba57826001600160a01b0316638ff3730f610b4383611802565b610b4b61145a565b8481518110610b5c57610b5c613fd8565b60200260200101516040518363ffffffff1660e01b8152600401610b81929190613fec565b5f604051808303815f87803b158015610b98575f5ffd5b505af1158015610baa573d5f5f3e3d5ffd5b505060019092019150610b1b9050565b5050610c79565b829050306001600160a01b0316816001600160a01b031663f77c47916040518163ffffffff1660e01b8152600401602060405180830381865afa158015610c0a573d5f5f3e3d5ffd5b505050506040513d601f19601f82011682018060405250810190610c2e9190614056565b6001600160a01b031614610c795760405162461bcd60e51b815260206004820152601260248201527134b73b30b634b21031b7b73a3937b63632b960711b60448201526064016108a1565b60405163ad3f5f9b60e01b81526001600160a01b0382169063ad3f5f9b90610ca59089906004016140cb565b5f604051808303815f87803b158015610cbc575f5ffd5b505af1158015610cce573d5f5f3e3d5ffd5b50505050610cea83868860200151896060015160800151612254565b505050505050565b5f306001600160a01b031663ffd55e3c6040518163ffffffff1660e01b81526004016020604051808303815f875af1158015610d30573d5f5f3e3d5ffd5b505050506040513d601f19601f82011682018060405250810190610d54919061419d565b90508015610d7557604051630763fd9560e51b815260040160405180910390fd5b335f908152600760205260408120600201549003610da6576040516387434f5160e01b815260040160405180910390fd5b610daf336124ac565b60405133907f8154b6c5e1fc90d44b49808ef93f9739148d0821411890f8cd684385e24b9f1e905f90a250565b610e0360405180608001604052805f81526020015f81526020015f81526020015f81525090565b506001600160a01b03165f90815260036020818152604092839020835160808101855281548152600182015492810192909252600281015493820193909352910154606082015290565b604051634f9a28b960e01b81523360048201525f903090634f9a28b990602401608060405180830381865afa158015610e88573d5f5f3e3d5ffd5b505050506040513d601f19601f82011682018060405250810190610eac91906141b8565b5092505081159050610ed157604051633e43a9bf60e21b815260040160405180910390fd5b5f306001600160a01b031663ffd55e3c6040518163ffffffff1660e01b81526004016020604051808303815f875af1158015610f0f573d5f5f3e3d5ffd5b505050506040513d601f19601f82011682018060405250810190610f33919061419d565b90508015610f5457604051630763fd9560e51b815260040160405180910390fd5b335f908152600360208190526040822001549003610f855760405163ae69115b60e01b815260040160405180910390fd5b610f90338585612565565b50505050565b604051634f9a28b960e01b81523360048201525f903090634f9a28b990602401608060405180830381865afa158015610fd1573d5f5f3e3d5ffd5b505050506040513d601f19601f82011682018060405250810190610ff591906141b8565b509250508115905061101a57604051633e43a9bf60e21b815260040160405180910390fd5b5f306001600160a01b031663ffd55e3c6040518163ffffffff1660e01b81526004016020604051808303815f875af1158015611058573d5f5f3e3d5ffd5b505050506040513d601f19601f8201168201806040525081019061107c919061419d565b9050801561109d57604051630763fd9560e51b815260040160405180910390fd5b335f8181526003602081905260408220015490036110ce576040516366ecbd6d60e01b815260040160405180910390fd5b83517f0000000000000000000000000000000000000000000000000000000000000000111561113c578351604051632cbc002b60e11b815260048101919091527f000000000000000000000000000000000000000000000000000000000000000060248201526044016108a1565b6020840151845111156111725783516020850151604051632dd0a90f60e21b8152600481019290925260248201526044016108a1565b835160208501515f91611184916141ff565b90506202a3008110156111ad5760405163283cce6760e11b8152600481018290526024016108a1565b6001600160a01b0382165f8181526006602090815260409182902088518082558983015160019092018290558351908152918201527f1846bde2c0888937a0a3af4e9b851b2e78758487d44a7ec04ae4bb3dc356b495910160405180910390a25050505050565b60607f00000000000000000000000000000000000000000000000000000000000000006001600160a01b031663222f6cb56040518163ffffffff1660e01b81526004015f60405180830381865afa158015611271573d5f5f3e3d5ffd5b505050506040513d5f823e601f3d908101601f191682016040526112989190810190614248565b905090565b604051632c4ce12960e01b81525f906001600160a01b037f00000000000000000000000000000000000000000000000000000000000000001690632c4ce129906112ed908690869060040161438a565b602060405180830381865afa158015611308573d5f5f3e3d5ffd5b505050506040513d601f19601f8201168201806040525081019061132c9190614056565b90505b92915050565b60408051600160208201526060918101829052600a608082015269414343455054414e434560b01b60a08201529081018290525f9060c0015b60408051601f19818403018152919052805160209091012092915050565b5f61132c82604051806020016113a1906138cc565b601f1982820381018352601f909101166040526113c66002546001600160a01b031690565b6040516001600160a01b03881660248201526044810187905230606482015260840160408051601f19818403018152918152602080830180516001600160e01b03166369359f3760e11b1790529051611421939291016143ab565b60408051601f198184030181529082905261143f92916020016143ed565b604051602081830303815290604052805190602001206126eb565b60607f00000000000000000000000000000000000000000000000000000000000000006001600160a01b0316633ef01b8f6040518163ffffffff1660e01b81526004015f60405180830381865afa158015611271573d5f5f3e3d5ffd5b6114bf6126f7565b6005805460ff60a01b198116600160a01b9182900460ff1615909102179055565b604051634f9a28b960e01b81523360048201525f903090634f9a28b990602401608060405180830381865afa15801561151b573d5f5f3e3d5ffd5b505050506040513d601f19601f8201168201806040525081019061153f91906141b8565b509250508115905061156457604051633e43a9bf60e21b815260040160405180910390fd5b5f306001600160a01b031663ffd55e3c6040518163ffffffff1660e01b81526004016020604051808303815f875af11580156115a2573d5f5f3e3d5ffd5b505050506040513d601f19601f820116820180604052508101906115c6919061419d565b905080156115e757604051630763fd9560e51b815260040160405180910390fd5b335f9081526003602081905260408220015490036116185760405163ae69115b60e01b815260040160405180910390fd5b335f9081526003602052604090206001015483111561166857335f908152600360205260409081902060010154905163eb912f7160e01b81526108a1918591600401918252602082015260400190565b825f0361168857604051637a0920b360e11b815260040160405180910390fd5b335f8181526003602081905260409182902001859055517fde3e32a86d32ca955594af26f515d3dc60003ab279776b14b4012fe99d96f8f6906116ce9086815260200190565b60405180910390a2505050565b5f8190036116fc57604051632e111c4160e11b815260040160405180910390fd5b5f808080808061170e8789018961445c565b60405163112d3a7d60e01b8152959b50939950919750955093509150339063112d3a7d90611765906001907f0000000000000000000000000000000000000000000000000000000000000000908b90600401614562565b602060405180830381865afa158015611780573d5f5f3e3d5ffd5b505050506040513d601f19601f820116820180604052508101906117a4919061419d565b6117eb57604051628eae2b60e51b81526001600160a01b037f00000000000000000000000000000000000000000000000000000000000000001660048201526024016108a1565b6117f88585858585612724565b5050505050505050565b5f60018260405160200161136e92919061458b565b604051634f9a28b960e01b81523360048201525f903090634f9a28b990602401608060405180830381865afa158015611852573d5f5f3e3d5ffd5b505050506040513d601f19601f8201168201806040525081019061187691906141b8565b509250508115905061189b57604051633e43a9bf60e21b815260040160405180910390fd5b5f306001600160a01b031663ffd55e3c6040518163ffffffff1660e01b81526004016020604051808303815f875af11580156118d9573d5f5f3e3d5ffd5b505050506040513d601f19601f820116820180604052508101906118fd919061419d565b9050801561191e57604051630763fd9560e51b815260040160405180910390fd5b335f8181526003602081815260408084208151608081018352815481526001820154818501526002820154818401529301546060840152938352600490529181206119699086612860565b335f9081526004602052604081209192509061198590876128d7565b9050806119a55760405163f3f7774960e01b815260040160405180910390fd5b5f826020015184602001516119ba91906141ff565b905083606001518110156119f157606084015160405163eb912f7160e01b81526108a1918391600401918252602082015260400190565b335f908152600360205260408120805491611a0b836145be565b9091555050602080840151335f908152600390925260408220600101805491929091611a389084906141ff565b909155506002905083516002811115611a5357611a53613f84565b03611a8657602080840151335f908152600390925260408220600201805491929091611a809084906141ff565b90915550505b866001600160a01b0316336001600160a01b03167f99aeb23a57fa639a61aa8afa1b8b63e67a2e6d601c008c8a7cb4e0719992d1998560200151604051611acf91815260200190565b60405180910390a350505050505050565b611ae86126f7565b611af15f612908565b565b611afb612959565b5050565b6001600160a01b0382165f90815260076020526040812061132c90600401836129e7565b604051630a5e3ee760e41b81525f906001600160a01b037f0000000000000000000000000000000000000000000000000000000000000000169063a5e3ee70906112ed908690869060040161438a565b5f306001600160a01b031663ffd55e3c6040518163ffffffff1660e01b81526004016020604051808303815f875af1158015611bb1573d5f5f3e3d5ffd5b505050506040513d601f19601f82011682018060405250810190611bd5919061419d565b90508015611bf657604051630763fd9560e51b815260040160405180910390fd5b6001600160a01b0382165f908152600760205260408120600201549003611c30576040516387434f5160e01b815260040160405180910390fd5b6001600160a01b0382165f90815260076020526040902060010154421015611c96576001600160a01b0382165f81815260076020526040908190206001015490516349d70fe360e11b8152600481019290925242602483015260448201526064016108a1565b611ca362015180426145d3565b6001600160a01b0383165f90815260086020526040902060010155611cc7826124ac565b6040516001600160a01b038316907f8154b6c5e1fc90d44b49808ef93f9739148d0821411890f8cd684385e24b9f1e905f90a25050565b5f5f611d0983610ddc565b90505f8160600151118015611d2657508060600151816040015110155b9392505050565b5f611d3c836020015183611b23565b90506001600160a01b038116611d8f5760405162461bcd60e51b81526020600482015260186024820152771a5b9d985b1a59081858d8dbdd5b9d081a5b88195b585a5b60421b60448201526064016108a1565b5f611da282856060015160a0015161138c565b90505f816001600160a01b03163b11611dfd5760405162461bcd60e51b815260206004820152601860248201527f677561726469616e206973206e6f74206465706c6f796564000000000000000060448201526064016108a1565b5f600184604051602001611e1292919061458b565b60408051601f19818403018152919052805160209091012085519091508114611e735760405162461bcd60e51b81526020600482015260136024820152721a5b9d985b1a59081d195b5c1b185d19481a59606a1b60448201526064016108a1565b60405163ad3f5f9b60e01b815282906001600160a01b0382169063ad3f5f9b90611ea19089906004016140cb565b5f604051808303815f87803b158015611eb8575f5ffd5b505af1158015611eca573d5f5f3e3d5ffd5b50505050610cea83868860200151896060015160800151612a08565b6001600160a01b0381165f90815260046020526040902060609061132f90612faa565b5f306001600160a01b031663ffd55e3c6040518163ffffffff1660e01b81526004016020604051808303815f875af1158015611f47573d5f5f3e3d5ffd5b505050506040513d601f19601f82011682018060405250810190611f6b919061419d565b90508015611f8c57604051630763fd9560e51b815260040160405180910390fd5b6001600160a01b038416611fb35760405163200db56f60e11b815260040160405180910390fd5b6001600160a01b0384165f908152600760209081526040808320600392839052908320909101549091819003611ffc57604051635337335b60e11b815260040160405180910390fd5b808260020154101561203157600282015460405163443282f560e01b81526004810191909152602481018290526044016108a1565b815442101561205f578154604051632f37ae3960e01b815242600482015260248101919091526044016108a1565b81600101544210612092576001820154604051632b356baf60e11b815242600482015260248101919091526044016108a1565b5f85856040516120a39291906145e6565b60405180910390209050826003015481146120e1576003830154604051639e1a616f60e01b81526108a1918391600401918252602082015260400190565b6120ea876124ac565b6120f5878787612fb5565b6040516001600160a01b038816907f46f5008939fa0b4beb46ae7f0e8368318bb72b56608910ca71c23e83382f609f905f90a250505050505050565b5f61213b82610ddc565b60600151151592915050565b604080518082019091525f80825260208201526001600160a01b0383165f90815260046020526040902061132c9083612860565b6121836126f7565b6001600160a01b0381166121ac57604051631e4fbdf760e01b81525f60048201526024016108a1565b6121b581612908565b50565b5f5f826121cd6002546001600160a01b031690565b6040516001600160a01b03871660248201526044810186905230606482015260840160408051601f198184030181529181526020820180516001600160e01b03166369359f3760e11b17905251612223906138cc565b61222e9291906143ab565b8190604051809103905ff590508015801561224b573d5f5f3e3d5ffd5b50949350505050565b5f306001600160a01b031663ffd55e3c6040518163ffffffff1660e01b81526004016020604051808303815f875af1158015612292573d5f5f3e3d5ffd5b505050506040513d601f19601f820116820180604052508101906122b6919061419d565b905080156122d757604051630763fd9560e51b815260040160405180910390fd5b60405163861f45b760e01b81525f906001600160a01b037f0000000000000000000000000000000000000000000000000000000000000000169063861f45b79061232790889088906004016145f5565b602060405180830381865afa158015612342573d5f5f3e3d5ffd5b505050506040513d601f19601f820116820180604052508101906123669190614056565b6001600160a01b0381165f90815260076020526040902060020154909150156123a257604051633e43a9bf60e21b815260040160405180910390fd5b6001600160a01b0381165f90815260036020819052604090912001546123db5760405163c737140f60e01b815260040160405180910390fd5b5f6123e68288612147565b90506001815160028111156123fd576123fd613f84565b14612421578051604051632b44da8d60e11b81526108a1919060019060040161460d565b61242d828860026130c1565b806020015160035f846001600160a01b03166001600160a01b031681526020019081526020015f206002015f82825461246691906145d3565b90915550506040516001600160a01b0380891691908416907f442abc7a4ecd5a019ce3f9fa872ad2d87c094248c412954aaf8ccf7a538e938c905f90a350505050505050565b6001600160a01b0381165f908152600760205260408120906124d0600483016131bc565b80519091505f5b818110156125175761250e8382815181106124f4576124f4613fd8565b6020026020010151856004016131c890919063ffffffff16565b506001016124d7565b506001600160a01b0384165f908152600760205260408120818155600181018290556002810182905560038101829055906004820181818161255982826138d9565b50505050505050505050565b6001600160a01b038216158061258c5750826001600160a01b0316826001600160a01b0316145b156125b557604051631af7497560e01b81526001600160a01b03831660048201526024016108a1565b805f036125d45760405162a47bc760e51b815260040160405180910390fd5b5f61261f836040518060400160405280600160028111156125f7576125f7613f84565b815260209081018690526001600160a01b0388165f90815260049091526040902091906131dc565b90508061263f57604051637270b0a760e11b815260040160405180910390fd5b6001600160a01b0384165f90815260036020526040812080549161266283614628565b90915550506001600160a01b0384165f90815260036020526040812060010180548492906126919084906145d3565b92505081905550826001600160a01b0316846001600160a01b03167f6e56b96fb8216ff6218412de4842e5d754f98ee57d19d9ed40af02fac2b30d9c846040516126dd91815260200190565b60405180910390a350505050565b5f61132c83833061326d565b6005546001600160a01b03163314611af15760405163118cdaa760e01b81523360048201526024016108a1565b5f306001600160a01b031663ffd55e3c6040518163ffffffff1660e01b81526004016020604051808303815f875af1158015612762573d5f5f3e3d5ffd5b505050506040513d601f19601f82011682018060405250810190612786919061419d565b905080156127a757604051630763fd9560e51b815260040160405180910390fd5b335f8181526003602081905260409091200154156127d85760405163b3af559360e01b815260040160405180910390fd5b5f5f6127e6838a8a8a61329f565b6040805180820190915288815260208101889052919350915061280881610f96565b60408051848152602081018490529081018990526001600160a01b038516907fe8d4b5048e4b6ac385ae4b62872cffb372825354882a4823833c9720bacdfc6a9060600160405180910390a250505050505050505050565b604080518082019091525f80825260208201526001600160a01b0382165f9081526002808501602052604091829020825180840190935280549091839160ff16908111156128b0576128b0613f84565b60028111156128c1576128c1613f84565b8152602001600182015481525050905092915050565b6001600160a01b0381165f9081526002830160205260408120805460ff1916815560010181905561132c83836131c8565b600580546001600160a01b038381166001600160a01b0319831681179093556040519116919082907f8be0079c531659141344cd1fd0a4f28419497f9722a3daafe3b4186f6b6457e0905f90a35050565b604051634f9a28b960e01b81523360048201525f903090634f9a28b990602401608060405180830381865afa158015612994573d5f5f3e3d5ffd5b505050506040513d601f19601f820116820180604052508101906129b891906141b8565b50925050811590506129dd57604051633e43a9bf60e21b815260040160405180910390fd5b33611afb816133b3565b6001600160a01b0381165f908152600183016020526040812054151561132c565b5f306001600160a01b031663ffd55e3c6040518163ffffffff1660e01b81526004016020604051808303815f875af1158015612a46573d5f5f3e3d5ffd5b505050506040513d601f19601f82011682018060405250810190612a6a919061419d565b90508015612a8b57604051630763fd9560e51b815260040160405180910390fd5b60405163029b2a1760e11b81525f906001600160a01b037f00000000000000000000000000000000000000000000000000000000000000001690630536542e90612adb90889088906004016145f5565b602060405180830381865afa158015612af6573d5f5f3e3d5ffd5b505050506040513d601f19601f82011682018060405250810190612b1a9190614056565b9050612b40816001600160a01b03165f9081526003602081905260409091200154151590565b612b5d5760405163c737140f60e01b815260040160405180910390fd5b6001600160a01b0381165f908152600360208181526040928390208351608081018552815481526001820154928101929092526002810154938201849052909101546060820181905290911015612bda5760608101516040808301519051631f0fa60f60e21b8152600481019290925260248201526044016108a1565b5f612be58389612147565b9050600281516002811115612bfc57612bfc613f84565b14612c20578051604051632b44da8d60e11b81526108a1919060029060040161460d565b6001600160a01b038084165f90815260076020526040808220905163da06673960e01b815290927f0000000000000000000000000000000000000000000000000000000000000000169063da06673990612c80908c908c906004016145f5565b602060405180830381865afa158015612c9b573d5f5f3e3d5ffd5b505050506040513d601f19601f82011682018060405250810190612cbf9190614640565b9050612ccb858b611aff565b15612ce95760405163e11487a760e01b815260040160405180910390fd5b6001600160a01b038086165f90815260036020908152604080832054600890925290912060018101549054919242909111918116908d16148015612d2a5750805b8015612d365750600182115b15612d5f57604051638035b5fd60e01b81526001600160a01b038d1660048201526024016108a1565b6003840154612e50578284600301819055508b60085f896001600160a01b03166001600160a01b031681526020019081526020015f205f015f6101000a8154816001600160a01b0302191690836001600160a01b031602179055505f60065f896001600160a01b03166001600160a01b031681526020019081526020015f206001015442612ded91906145d3565b90508085600101819055508c6001600160a01b0316886001600160a01b03167f9ca1cbcd26e9b736cca48e36442bff1755b2b7bab34abc02f31799e500c0a0318387604051612e46929190918252602082015260400190565b60405180910390a3505b82846003015414612e84576003840154604051639e1a616f60e01b81526108a1918591600401918252602082015260400190565b8460200151846002015f828254612e9b91906145d3565b90915550612eae9050600485018d6134ea565b508b6001600160a01b0316876001600160a01b03167f5aa823676e4da0337bf6a25190a447b23198601a92ee2fa36de835e75624179a86600201548860200151604051612f05929190918252602082015260400190565b60405180910390a38560600151846002015410612f9c576001600160a01b0387165f90815260066020526040812054612f3e90426145d3565b808655600186015460408051838152602081019290925281018690529091506001600160a01b03808f1691908a16907fbe82017c3d0c6b6283a0d6137f7aaa225271859454c3c1ff1a5a444ee23abd239060600160405180910390a3505b505050505050505050505050565b606061132f826131bc565b5f612fc282840184614657565b9150505f602082015190507f00000000000000000000000000000000000000000000000000000000000000006001600160e01b031916816001600160e01b0319161461302d576040516312ba286f60e01b81526001600160e01b0319821660048201526024016108a1565b613059857f00000000000000000000000000000000000000000000000000000000000000005f856134fe565b507f00000000000000000000000000000000000000000000000000000000000000006001600160a01b0316856001600160a01b03167f60f9f98be64687700419cfa6fdd7877bc88c6daeb10bc664a2be9fdd6b0c792160405160405180910390a35050505050565b6001600160a01b0383165f9081526004602052604081206130e29084612860565b805190915060028111156130f8576130f8613f84565b82600281111561310a5761310a613f84565b0361312a5781604051637e12071160e01b81526004016108a191906146a3565b61317883604051806040016040528085600281111561314b5761314b613f84565b8152602085810151918101919091526001600160a01b0388165f90815260049091526040902091906131dc565b50826001600160a01b0316846001600160a01b03167f6ae2e7cc465b15375a93daf2ea1e59f4c98d82465e7f2885f0b864db38b27974846040516126dd91906146a3565b60605f611d26836135ad565b5f61132c836001600160a01b038416613606565b6001600160a01b0382165f908152600280850160205260408220835181548593839160ff191690600190849081111561321757613217613f84565b0217905550602091909101516001909101555f61323485856134ea565b90505f613240866136e9565b905081801561324f5750602081115b1561224b5760405163bb6c1e9360e01b815260040160405180910390fd5b5f604051836040820152846020820152828152600b8101905060ff8153605590206001600160a01b0316949350505050565b825182515f91829181146132d357845160405163166e79bd60e01b81526108a1918391600401918252602082015260400190565b835f036132f357604051637a0920b360e11b815260040160405180910390fd5b5f5b818110156133425761333a8888838151811061331357613313613fd8565b602002602001015188848151811061332d5761332d613fd8565b6020026020010151612565565b6001016132f5565b506001600160a01b0387165f90815260036020526040902060010154808511156133895760405163eb912f7160e01b815260048101869052602481018290526044016108a1565b6001600160a01b03979097165f908152600360208190526040909120019390935550909492505050565b604051634f9a28b960e01b81523360048201525f903090634f9a28b990602401608060405180830381865afa1580156133ee573d5f5f3e3d5ffd5b505050506040513d601f19601f8201168201806040525081019061341291906141b8565b509250508115905061343757604051633e43a9bf60e21b815260040160405180910390fd5b6001600160a01b0382165f9081526006602052604081208181556001015561345e826124ac565b6001600160a01b0382165f90815260086020526040812080546001600160a01b031916815560010155613490826136f2565b6001600160a01b0382165f8181526003602081905260408083208381556001810184905560028101849055909101829055517fe07cb859e0fb96f60563e9ac3596b37d0c617a96f9f6db589548caaa99fa9b669190a25050565b5f61132c836001600160a01b038416613733565b60605f61350d8180808061377f565b9050856001600160a01b031663d691c9648261352a8888886137e9565b6040518363ffffffff1660e01b81526004016135479291906146b1565b5f604051808303815f875af1158015613562573d5f5f3e3d5ffd5b505050506040513d5f823e601f3d908101601f1916820160405261358991908101906146c9565b5f8151811061359a5761359a613fd8565b6020026020010151915050949350505050565b6060815f018054806020026020016040519081016040528092919081815260200182805480156135fa57602002820191905f5260205f20905b8154815260200190600101908083116135e6575b50505050509050919050565b5f81815260018301602052604081205480156136e0575f6136286001836141ff565b85549091505f9061363b906001906141ff565b905080821461369a575f865f01828154811061365957613659613fd8565b905f5260205f200154905080875f01848154811061367957613679613fd8565b5f918252602080832090910192909255918252600188019052604090208390555b85548690806136ab576136ab614780565b600190038181905f5260205f20015f90559055856001015f8681526020019081526020015f205f90556001935050505061132f565b5f91505061132f565b5f61132f825490565b6001600160a01b0381165f9081526004602052604090206121b59061371690612faa565b6001600160a01b0383165f90815260046020526040902090613818565b5f81815260018301602052604081205461377857508154600181810184555f84815260208082209093018490558454848252828601909352604090209190915561132f565b505f61132f565b604080516001600160f81b03198087166020830152851660218201525f602282018190526001600160e01b03198516602683015269ffffffffffffffffffff198416602a83015291016040516020818303038152906040526137e090614794565b95945050505050565b6060838383604051602001613800939291906147ba565b60405160208183030381529060405290509392505050565b60208151111561383b5760405163e023c21160e01b815260040160405180910390fd5b5f5b81518110156138c757826002015f83838151811061385d5761385d613fd8565b6020908102919091018101516001600160a01b031682528101919091526040015f908120805460ff191681556001015581516138be908390839081106138a5576138a5613fd8565b6020026020010151845f016131c890919063ffffffff16565b5060010161383d565b505050565b6103cf806147e483390190565b5080545f8255905f5260205f20908101906121b591905b80821115613903575f81556001016138f0565b5090565b634e487b7160e01b5f52604160045260245ffd5b604051608081016001600160401b038111828210171561393d5761393d613907565b60405290565b60405161010081016001600160401b038111828210171561393d5761393d613907565b604051601f8201601f191681016001600160401b038111828210171561398e5761398e613907565b604052919050565b5f6001600160401b038211156139ae576139ae613907565b5060051b60200190565b5f6001600160401b038211156139d0576139d0613907565b50601f01601f191660200190565b5f82601f8301126139ed575f5ffd5b8135602083015f613a05613a00846139b8565b613966565b9050828152858383011115613a18575f5ffd5b828260208301375f92810160200192909252509392505050565b5f82601f830112613a41575f5ffd5b8135613a4f613a0082613996565b8082825260208201915060208360051b860101925085831115613a70575f5ffd5b602085015b83811015613ab05780356001600160401b03811115613a92575f5ffd5b613aa1886020838a01016139de565b84525060209283019201613a75565b5095945050505050565b80151581146121b5575f5ffd5b8035613ad281613aba565b919050565b5f5f60408385031215613ae8575f5ffd5b82356001600160401b03811115613afd575f5ffd5b830160808186031215613b0e575f5ffd5b613b1661391b565b8135815260208201356001600160401b03811115613b32575f5ffd5b613b3e87828501613a32565b6020830152506040828101359082015260608201356001600160401b03811115613b66575f5ffd5b91909101906101008287031215613b7b575f5ffd5b613b83613943565b82356001600160401b03811115613b98575f5ffd5b613ba4888286016139de565b825250602083810135908201526040808401359082015260608301356001600160401b03811115613bd3575f5ffd5b613bdf888286016139de565b6060830152506080838101359082015260a08084013590820152613c0560c08401613ac7565b60c082015260e08301356001600160401b03811115613c22575f5ffd5b613c2e888286016139de565b60e083015250606082015295602094909401359450505050565b5f81518084528060208401602086015e5f602082860101526020601f19601f83011685010191505092915050565b602081525f61132c6020830184613c48565b6001600160a01b03811681146121b5575f5ffd5b5f60208284031215613cac575f5ffd5b8135611d2681613c88565b5f5f60408385031215613cc8575f5ffd5b8235613cd381613c88565b946020939093013593505050565b5f6040828403128015613cf2575f5ffd5b50604080519081016001600160401b0381118282101715613d1557613d15613907565b604052823581526020928301359281019290925250919050565b5f602082016020835280845180835260408501915060408160051b8601019250602086015f5b82811015613dcc57868503603f19018452815180518087526020918201918088019190600582901b8901015f5b82811015613db357601f198a8303018452613d9e828651613c48565b60209586019594909401939150600101613d82565b5097505050602094850194929092019150600101613d55565b50929695505050505050565b5f5f60408385031215613de9575f5ffd5b82356001600160401b03811115613dfe575f5ffd5b613e0a85828601613a32565b95602094909401359450505050565b5f60208284031215613e29575f5ffd5b5035919050565b5f5f83601f840112613e40575f5ffd5b5081356001600160401b03811115613e56575f5ffd5b602083019150836020828501011115613e6d575f5ffd5b9250929050565b5f5f60208385031215613e85575f5ffd5b82356001600160401b03811115613e9a575f5ffd5b613ea685828601613e30565b90969095509350505050565b5f5f60408385031215613ec3575f5ffd5b8235613ece81613c88565b91506020830135613ede81613c88565b809150509250929050565b602080825282518282018190525f918401906040840190835b81811015613f295783516001600160a01b0316835260209384019390920191600101613f02565b509095945050505050565b5f5f5f60408486031215613f46575f5ffd5b8335613f5181613c88565b925060208401356001600160401b03811115613f6b575f5ffd5b613f7786828701613e30565b9497909650939450505050565b634e487b7160e01b5f52602160045260245ffd5b60038110613fb457634e487b7160e01b5f52602160045260245ffd5b9052565b5f604082019050613fca828451613f98565b602092830151919092015290565b634e487b7160e01b5f52603260045260245ffd5b5f604082018483526040602084015280845180835260608501915060608160051b8601019250602086015f5b8281101561404957605f19878603018452614034858351613c48565b94506020938401939190910190600101614018565b5092979650505050505050565b5f60208284031215614066575f5ffd5b8151611d2681613c88565b5f82825180855260208501945060208160051b830101602085015f5b838110156140bf57601f198584030188526140a9838351613c48565b602098890198909350919091019060010161408d565b50909695505050505050565b60208152815160208201525f6020830151608060408401526140f060a0840182614071565b9050604084015160608401526060840151601f1984830301608085015280516101008352614122610100840182613c48565b905060208201516020840152604082015160408401526060820151838203606085015261414f8282613c48565b9150506080820151608084015260a082015160a084015260c082015161417960c085018215159052565b5060e0820151915082810360e08401526141938183613c48565b9695505050505050565b5f602082840312156141ad575f5ffd5b8151611d2681613aba565b5f5f5f5f608085870312156141cb575f5ffd5b505082516020840151604085015160609095015191969095509092509050565b634e487b7160e01b5f52601160045260245ffd5b8181038181111561132f5761132f6141eb565b5f61421f613a00846139b8565b9050828152838383011115614232575f5ffd5b8282602083015e5f602084830101529392505050565b5f60208284031215614258575f5ffd5b81516001600160401b0381111561426d575f5ffd5b8201601f8101841361427d575f5ffd5b805161428b613a0082613996565b8082825260208201915060208360051b8501019250868311156142ac575f5ffd5b602084015b8381101561437f5780516001600160401b038111156142ce575f5ffd5b8501603f810189136142de575f5ffd5b60208101516142ef613a0082613996565b808282526020820191506020808460051b8601010192508b831115614312575f5ffd5b604084015b838110156143695780516001600160401b03811115614334575f5ffd5b85016020810190605f018e13614348575f5ffd5b61435a8e602083015160408401614212565b84525060209283019201614317565b50865250506020938401939190910190506142b1565b509695505050505050565b604081525f61439c6040830185614071565b90508260208301529392505050565b6001600160a01b03831681526040602082018190525f906143ce90830184613c48565b949350505050565b5f81518060208401855e5f93019283525090919050565b5f6143ce6143fb83866143d6565b846143d6565b5f82601f830112614410575f5ffd5b813561441e613a0082613996565b8082825260208201915060208360051b86010192508583111561443f575f5ffd5b602085015b83811015613ab0578035835260209283019201614444565b5f5f5f5f5f5f60c08789031215614471575f5ffd5b86356001600160401b03811115614486575f5ffd5b61449289828a016139de565b96505060208701356001600160401b038111156144ad575f5ffd5b8701601f810189136144bd575f5ffd5b80356144cb613a0082613996565b8082825260208201915060208360051b85010192508b8311156144ec575f5ffd5b6020840193505b8284101561451757833561450681613c88565b8252602093840193909101906144f3565b975050505060408701356001600160401b03811115614534575f5ffd5b61454089828a01614401565b969995985095966060810135965060808101359560a090910135945092505050565b8381526001600160a01b03831660208201526060604082018190525f906137e090830184613c48565b60ff929092168252606060208301819052600890830152675245434f5645525960c01b6080830152604082015260a00190565b5f816145cc576145cc6141eb565b505f190190565b8082018082111561132f5761132f6141eb565b818382375f9101908152919050565b828152604060208201525f6143ce6040830184614071565b6040810161461b8285613f98565b611d266020830184613f98565b5f60018201614639576146396141eb565b5060010190565b5f60208284031215614650575f5ffd5b5051919050565b5f5f60408385031215614668575f5ffd5b823561467381613c88565b915060208301356001600160401b0381111561468d575f5ffd5b614699858286016139de565b9150509250929050565b6020810161132f8284613f98565b828152604060208201525f6143ce6040830184613c48565b5f602082840312156146d9575f5ffd5b81516001600160401b038111156146ee575f5ffd5b8201601f810184136146fe575f5ffd5b805161470c613a0082613996565b8082825260208201915060208360051b85010192508683111561472d575f5ffd5b602084015b8381101561437f5780516001600160401b0381111561474f575f5ffd5b8501603f8101891361475f575f5ffd5b61477189602083015160408401614212565b84525060209283019201614732565b634e487b7160e01b5f52603160045260245ffd5b805160208083015191908110156147b4575f198160200360031b1b821691505b50919050565b6bffffffffffffffffffffffff198460601b1681528260148201525f6137e060348301846143d656fe60806040526040516103cf3803806103cf8339810160408190526100229161023b565b61002c8282610033565b5050610320565b61003c82610091565b6040516001600160a01b038316907fbc7cd75a20ee27fd9adebab32041f755214dbc6bffa90cc0225b39da2e5c2d3b905f90a280511561008557610080828261010c565b505050565b61008d61017f565b5050565b806001600160a01b03163b5f036100cb57604051634c9c8ce360e01b81526001600160a01b03821660048201526024015b60405180910390fd5b7f360894a13ba1a3210667c828492db98dca3e2076cc3735a920a3ca505d382bbc80546001600160a01b0319166001600160a01b0392909216919091179055565b60605f5f846001600160a01b031684604051610128919061030a565b5f60405180830381855af49150503d805f8114610160576040519150601f19603f3d011682016040523d82523d5f602084013e610165565b606091505b5090925090506101768583836101a0565b95945050505050565b341561019e5760405163b398979f60e01b815260040160405180910390fd5b565b6060826101b5576101b0826101ff565b6101f8565b81511580156101cc57506001600160a01b0384163b155b156101f557604051639996b31560e01b81526001600160a01b03851660048201526024016100c2565b50805b9392505050565b80511561020e57805160208201fd5b60405163d6bda27560e01b815260040160405180910390fd5b634e487b7160e01b5f52604160045260245ffd5b5f5f6040838503121561024c575f5ffd5b82516001600160a01b0381168114610262575f5ffd5b60208401519092506001600160401b0381111561027d575f5ffd5b8301601f8101851361028d575f5ffd5b80516001600160401b038111156102a6576102a6610227565b604051601f8201601f19908116603f011681016001600160401b03811182821017156102d4576102d4610227565b6040528181528282016020018710156102eb575f5ffd5b8160208401602083015e5f602083830101528093505050509250929050565b5f82518060208501845e5f920191825250919050565b60a38061032c5f395ff3fe6080604052600a600c565b005b60186014601a565b6050565b565b5f604b7f360894a13ba1a3210667c828492db98dca3e2076cc3735a920a3ca505d382bbc546001600160a01b031690565b905090565b365f5f375f5f365f845af43d5f5f3e8080156069573d5ff35b3d5ffdfea2646970667358221220d981d9ee70f01ad48e7100822b90c6eac94807a706d05eca81ffeb3e95633e9964736f6c634300081c0033a2646970667358221220e61687525d9a5a41781e376b964fcbadcff8263ea6602dcb020909adda1c61ff64736f6c634300081c0033","linkReferences":{}},"methodIdentifiers":{"CANCEL_EXPIRED_RECOVERY_COOLDOWN()":"5707f318","MINIMUM_RECOVERY_WINDOW()":"99150680","acceptanceCommandTemplates()":"222f6cb5","addGuardian(address,uint256)":"111e5313","canStartRecoveryRequest(address)":"ada4cb70","cancelExpiredRecovery(address)":"ab1b5fde","cancelRecovery()":"0ba234d6","changeThreshold(uint256)":"694e80c3","commandHandler()":"d15558bf","completeRecovery(address,bytes)":"c18d09cf","computeAcceptanceTemplateId(uint256)":"32ccc2f2","computeEmailAuthAddress(address,bytes32)":"3a8eab14","computeRecoveryTemplateId(uint256)":"6da99515","dkim()":"400ad5ce","dkimAddr()":"73357f85","emailAuthImplementation()":"b6201692","emailAuthImplementationAddr()":"1098e02e","extractRecoveredAccountFromAcceptanceCommand(bytes[],uint256)":"2c4ce129","extractRecoveredAccountFromRecoveryCommand(bytes[],uint256)":"a5e3ee70","getAllGuardians(address)":"bbd2a05e","getGuardian(address,address)":"da34a850","getGuardianConfig(address)":"0bb6094a","getPreviousRecoveryRequest(address)":"86b97e51","getRecoveryConfig(address)":"2788bbda","getRecoveryRequest(address)":"4f9a28b9","handleAcceptance((uint256,bytes[],uint256,(string,bytes32,uint256,string,bytes32,bytes32,bool,bytes)),uint256)":"0481af67","handleRecovery((uint256,bytes[],uint256,(string,bytes32,uint256,string,bytes32,bytes32,bool,bytes)),uint256)":"b68126fa","hasGuardianVoted(address,address)":"9c8f8439","isActivated(address)":"c9faa7c5","isInitialized(address)":"d60b347f","isModuleType(uint256)":"ecd05961","killSwitchEnabled()":"ffd55e3c","minimumDelay()":"427ad624","name()":"06fdde03","onInstall(bytes)":"6d61fe70","onUninstall(bytes)":"8a91b0e3","owner()":"8da5cb5b","recoveryCommandTemplates()":"3ef01b8f","removeGuardian(address)":"71404156","renounceOwnership()":"715018a6","selector()":"ea3d508a","toggleKillSwitch()":"4630f1d5","transferOwnership(address)":"f2fde38b","updateRecoveryConfig((uint256,uint256))":"1788178f","validator()":"3a5381b5","verifier()":"2b7ac3f3","verifierAddr()":"663ea2e2","version()":"54fd4d50"},"id":298}