{"abi":[{"type":"function","name":"KERNEL_BYTECODE","inputs":[],"outputs":[{"name":"","type":"bytes","internalType":"bytes"}],"stateMutability":"view"},{"type":"function","name":"KERNEL_FACTORY_BYTECODE","inputs":[],"outputs":[{"name":"","type":"bytes","internalType":"bytes"}],"stateMutability":"view"},{"type":"function","name":"KERNEL_WITH_SETSELECTOR_BYTECODE","inputs":[],"outputs":[{"name":"","type":"bytes","internalType":"bytes"}],"stateMutability":"view"},{"type":"function","name":"configModuleUserOp","inputs":[{"name":"instance","type":"tuple","internalType":"struct AccountInstance","components":[{"name":"account","type":"address","internalType":"address"},{"name":"accountType","type":"uint8","internalType":"enum AccountType"},{"name":"accountHelper","type":"address","internalType":"address"},{"name":"aux","type":"tuple","internalType":"struct Auxiliary","components":[{"name":"entrypoint","type":"address","internalType":"contract IEntryPoint"},{"name":"gasSimulation","type":"address","internalType":"contract UserOpGasLog"},{"name":"registry","type":"address","internalType":"contract IERC7484"},{"name":"mockFactory","type":"address","internalType":"contract MockFactory"},{"name":"smartSession","type":"address","internalType":"contract ISmartSession"}]},{"name":"defaultValidator","type":"address","internalType":"contract IValidator"},{"name":"salt","type":"bytes32","internalType":"bytes32"},{"name":"initCode","type":"bytes","internalType":"bytes"},{"name":"accountFactory","type":"address","internalType":"address"},{"name":"smartSession","type":"address","internalType":"contract ISmartSession"},{"name":"defaultSessionValidator","type":"address","internalType":"contract ISessionValidator"}]},{"name":"moduleType","type":"uint256","internalType":"uint256"},{"name":"module","type":"address","internalType":"address"},{"name":"initData","type":"bytes","internalType":"bytes"},{"name":"isInstall","type":"bool","internalType":"bool"},{"name":"txValidator","type":"address","internalType":"address"}],"outputs":[{"name":"userOp","type":"tuple","internalType":"struct PackedUserOperation","components":[{"name":"sender","type":"address","internalType":"address"},{"name":"nonce","type":"uint256","internalType":"uint256"},{"name":"initCode","type":"bytes","internalType":"bytes"},{"name":"callData","type":"bytes","internalType":"bytes"},{"name":"accountGasLimits","type":"bytes32","internalType":"bytes32"},{"name":"preVerificationGas","type":"uint256","internalType":"uint256"},{"name":"gasFees","type":"bytes32","internalType":"bytes32"},{"name":"paymasterAndData","type":"bytes","internalType":"bytes"},{"name":"signature","type":"bytes","internalType":"bytes"}]},{"name":"userOpHash","type":"bytes32","internalType":"bytes32"}],"stateMutability":"nonpayable"},{"type":"function","name":"deployAccount","inputs":[{"name":"instance","type":"tuple","internalType":"struct AccountInstance","components":[{"name":"account","type":"address","internalType":"address"},{"name":"accountType","type":"uint8","internalType":"enum AccountType"},{"name":"accountHelper","type":"address","internalType":"address"},{"name":"aux","type":"tuple","internalType":"struct Auxiliary","components":[{"name":"entrypoint","type":"address","internalType":"contract IEntryPoint"},{"name":"gasSimulation","type":"address","internalType":"contract UserOpGasLog"},{"name":"registry","type":"address","internalType":"contract IERC7484"},{"name":"mockFactory","type":"address","internalType":"contract MockFactory"},{"name":"smartSession","type":"address","internalType":"contract ISmartSession"}]},{"name":"defaultValidator","type":"address","internalType":"contract IValidator"},{"name":"salt","type":"bytes32","internalType":"bytes32"},{"name":"initCode","type":"bytes","internalType":"bytes"},{"name":"accountFactory","type":"address","internalType":"address"},{"name":"smartSession","type":"address","internalType":"contract ISmartSession"},{"name":"defaultSessionValidator","type":"address","internalType":"contract ISessionValidator"}]}],"outputs":[],"stateMutability":"nonpayable"},{"type":"function","name":"encode","inputs":[{"name":"target","type":"address","internalType":"address"},{"name":"value","type":"uint256","internalType":"uint256"},{"name":"callData","type":"bytes","internalType":"bytes"}],"outputs":[{"name":"erc7579Tx","type":"bytes","internalType":"bytes"}],"stateMutability":"pure"},{"type":"function","name":"encode","inputs":[{"name":"executions","type":"tuple[]","internalType":"struct Execution[]","components":[{"name":"target","type":"address","internalType":"address"},{"name":"value","type":"uint256","internalType":"uint256"},{"name":"callData","type":"bytes","internalType":"bytes"}]}],"outputs":[{"name":"erc7579Tx","type":"bytes","internalType":"bytes"}],"stateMutability":"pure"},{"type":"function","name":"encodeNonce","inputs":[{"name":"vType","type":"bytes1","internalType":"ValidationType"},{"name":"enable","type":"bool","internalType":"bool"},{"name":"account","type":"address","internalType":"address"},{"name":"validator","type":"address","internalType":"address"}],"outputs":[{"name":"nonce","type":"uint256","internalType":"uint256"}],"stateMutability":"view"},{"type":"function","name":"execUserOp","inputs":[{"name":"instance","type":"tuple","internalType":"struct AccountInstance","components":[{"name":"account","type":"address","internalType":"address"},{"name":"accountType","type":"uint8","internalType":"enum AccountType"},{"name":"accountHelper","type":"address","internalType":"address"},{"name":"aux","type":"tuple","internalType":"struct Auxiliary","components":[{"name":"entrypoint","type":"address","internalType":"contract IEntryPoint"},{"name":"gasSimulation","type":"address","internalType":"contract UserOpGasLog"},{"name":"registry","type":"address","internalType":"contract IERC7484"},{"name":"mockFactory","type":"address","internalType":"contract MockFactory"},{"name":"smartSession","type":"address","internalType":"contract ISmartSession"}]},{"name":"defaultValidator","type":"address","internalType":"contract IValidator"},{"name":"salt","type":"bytes32","internalType":"bytes32"},{"name":"initCode","type":"bytes","internalType":"bytes"},{"name":"accountFactory","type":"address","internalType":"address"},{"name":"smartSession","type":"address","internalType":"contract ISmartSession"},{"name":"defaultSessionValidator","type":"address","internalType":"contract ISessionValidator"}]},{"name":"callData","type":"bytes","internalType":"bytes"},{"name":"txValidator","type":"address","internalType":"address"}],"outputs":[{"name":"userOp","type":"tuple","internalType":"struct PackedUserOperation","components":[{"name":"sender","type":"address","internalType":"address"},{"name":"nonce","type":"uint256","internalType":"uint256"},{"name":"initCode","type":"bytes","internalType":"bytes"},{"name":"callData","type":"bytes","internalType":"bytes"},{"name":"accountGasLimits","type":"bytes32","internalType":"bytes32"},{"name":"preVerificationGas","type":"uint256","internalType":"uint256"},{"name":"gasFees","type":"bytes32","internalType":"bytes32"},{"name":"paymasterAndData","type":"bytes","internalType":"bytes"},{"name":"signature","type":"bytes","internalType":"bytes"}]},{"name":"userOpHash","type":"bytes32","internalType":"bytes32"}],"stateMutability":"nonpayable"},{"type":"function","name":"formatERC1271Hash","inputs":[{"name":"instance","type":"tuple","internalType":"struct AccountInstance","components":[{"name":"account","type":"address","internalType":"address"},{"name":"accountType","type":"uint8","internalType":"enum AccountType"},{"name":"accountHelper","type":"address","internalType":"address"},{"name":"aux","type":"tuple","internalType":"struct Auxiliary","components":[{"name":"entrypoint","type":"address","internalType":"contract IEntryPoint"},{"name":"gasSimulation","type":"address","internalType":"contract UserOpGasLog"},{"name":"registry","type":"address","internalType":"contract IERC7484"},{"name":"mockFactory","type":"address","internalType":"contract MockFactory"},{"name":"smartSession","type":"address","internalType":"contract ISmartSession"}]},{"name":"defaultValidator","type":"address","internalType":"contract IValidator"},{"name":"salt","type":"bytes32","internalType":"bytes32"},{"name":"initCode","type":"bytes","internalType":"bytes"},{"name":"accountFactory","type":"address","internalType":"address"},{"name":"smartSession","type":"address","internalType":"contract ISmartSession"},{"name":"defaultSessionValidator","type":"address","internalType":"contract ISessionValidator"}]},{"name":"","type":"address","internalType":"address"},{"name":"hash","type":"bytes32","internalType":"bytes32"}],"outputs":[{"name":"","type":"bytes32","internalType":"bytes32"}],"stateMutability":"nonpayable"},{"type":"function","name":"formatERC1271Signature","inputs":[{"name":"","type":"tuple","internalType":"struct AccountInstance","components":[{"name":"account","type":"address","internalType":"address"},{"name":"accountType","type":"uint8","internalType":"enum AccountType"},{"name":"accountHelper","type":"address","internalType":"address"},{"name":"aux","type":"tuple","internalType":"struct Auxiliary","components":[{"name":"entrypoint","type":"address","internalType":"contract IEntryPoint"},{"name":"gasSimulation","type":"address","internalType":"contract UserOpGasLog"},{"name":"registry","type":"address","internalType":"contract IERC7484"},{"name":"mockFactory","type":"address","internalType":"contract MockFactory"},{"name":"smartSession","type":"address","internalType":"contract ISmartSession"}]},{"name":"defaultValidator","type":"address","internalType":"contract IValidator"},{"name":"salt","type":"bytes32","internalType":"bytes32"},{"name":"initCode","type":"bytes","internalType":"bytes"},{"name":"accountFactory","type":"address","internalType":"address"},{"name":"smartSession","type":"address","internalType":"contract ISmartSession"},{"name":"defaultSessionValidator","type":"address","internalType":"contract ISessionValidator"}]},{"name":"validator","type":"address","internalType":"address"},{"name":"signature","type":"bytes","internalType":"bytes"}],"outputs":[{"name":"","type":"bytes","internalType":"bytes"}],"stateMutability":"nonpayable"},{"type":"function","name":"getHookMultiPlexer","inputs":[{"name":"instance","type":"tuple","internalType":"struct AccountInstance","components":[{"name":"account","type":"address","internalType":"address"},{"name":"accountType","type":"uint8","internalType":"enum AccountType"},{"name":"accountHelper","type":"address","internalType":"address"},{"name":"aux","type":"tuple","internalType":"struct Auxiliary","components":[{"name":"entrypoint","type":"address","internalType":"contract IEntryPoint"},{"name":"gasSimulation","type":"address","internalType":"contract UserOpGasLog"},{"name":"registry","type":"address","internalType":"contract IERC7484"},{"name":"mockFactory","type":"address","internalType":"contract MockFactory"},{"name":"smartSession","type":"address","internalType":"contract ISmartSession"}]},{"name":"defaultValidator","type":"address","internalType":"contract IValidator"},{"name":"salt","type":"bytes32","internalType":"bytes32"},{"name":"initCode","type":"bytes","internalType":"bytes"},{"name":"accountFactory","type":"address","internalType":"address"},{"name":"smartSession","type":"address","internalType":"contract ISmartSession"},{"name":"defaultSessionValidator","type":"address","internalType":"contract ISessionValidator"}]}],"outputs":[{"name":"","type":"address","internalType":"address"}],"stateMutability":"view"},{"type":"function","name":"getInstallExecutorData","inputs":[{"name":"instance","type":"tuple","internalType":"struct AccountInstance","components":[{"name":"account","type":"address","internalType":"address"},{"name":"accountType","type":"uint8","internalType":"enum AccountType"},{"name":"accountHelper","type":"address","internalType":"address"},{"name":"aux","type":"tuple","internalType":"struct Auxiliary","components":[{"name":"entrypoint","type":"address","internalType":"contract IEntryPoint"},{"name":"gasSimulation","type":"address","internalType":"contract UserOpGasLog"},{"name":"registry","type":"address","internalType":"contract IERC7484"},{"name":"mockFactory","type":"address","internalType":"contract MockFactory"},{"name":"smartSession","type":"address","internalType":"contract ISmartSession"}]},{"name":"defaultValidator","type":"address","internalType":"contract IValidator"},{"name":"salt","type":"bytes32","internalType":"bytes32"},{"name":"initCode","type":"bytes","internalType":"bytes"},{"name":"accountFactory","type":"address","internalType":"address"},{"name":"smartSession","type":"address","internalType":"contract ISmartSession"},{"name":"defaultSessionValidator","type":"address","internalType":"contract ISessionValidator"}]},{"name":"","type":"address","internalType":"address"},{"name":"initData","type":"bytes","internalType":"bytes"}],"outputs":[{"name":"data","type":"bytes","internalType":"bytes"}],"stateMutability":"view"},{"type":"function","name":"getInstallFallbackData","inputs":[{"name":"instance","type":"tuple","internalType":"struct AccountInstance","components":[{"name":"account","type":"address","internalType":"address"},{"name":"accountType","type":"uint8","internalType":"enum AccountType"},{"name":"accountHelper","type":"address","internalType":"address"},{"name":"aux","type":"tuple","internalType":"struct Auxiliary","components":[{"name":"entrypoint","type":"address","internalType":"contract IEntryPoint"},{"name":"gasSimulation","type":"address","internalType":"contract UserOpGasLog"},{"name":"registry","type":"address","internalType":"contract IERC7484"},{"name":"mockFactory","type":"address","internalType":"contract MockFactory"},{"name":"smartSession","type":"address","internalType":"contract ISmartSession"}]},{"name":"defaultValidator","type":"address","internalType":"contract IValidator"},{"name":"salt","type":"bytes32","internalType":"bytes32"},{"name":"initCode","type":"bytes","internalType":"bytes"},{"name":"accountFactory","type":"address","internalType":"address"},{"name":"smartSession","type":"address","internalType":"contract ISmartSession"},{"name":"defaultSessionValidator","type":"address","internalType":"contract ISessionValidator"}]},{"name":"","type":"address","internalType":"address"},{"name":"initData","type":"bytes","internalType":"bytes"}],"outputs":[{"name":"data","type":"bytes","internalType":"bytes"}],"stateMutability":"view"},{"type":"function","name":"getInstallHookData","inputs":[{"name":"","type":"tuple","internalType":"struct AccountInstance","components":[{"name":"account","type":"address","internalType":"address"},{"name":"accountType","type":"uint8","internalType":"enum AccountType"},{"name":"accountHelper","type":"address","internalType":"address"},{"name":"aux","type":"tuple","internalType":"struct Auxiliary","components":[{"name":"entrypoint","type":"address","internalType":"contract IEntryPoint"},{"name":"gasSimulation","type":"address","internalType":"contract UserOpGasLog"},{"name":"registry","type":"address","internalType":"contract IERC7484"},{"name":"mockFactory","type":"address","internalType":"contract MockFactory"},{"name":"smartSession","type":"address","internalType":"contract ISmartSession"}]},{"name":"defaultValidator","type":"address","internalType":"contract IValidator"},{"name":"salt","type":"bytes32","internalType":"bytes32"},{"name":"initCode","type":"bytes","internalType":"bytes"},{"name":"accountFactory","type":"address","internalType":"address"},{"name":"smartSession","type":"address","internalType":"contract ISmartSession"},{"name":"defaultSessionValidator","type":"address","internalType":"contract ISessionValidator"}]},{"name":"","type":"address","internalType":"address"},{"name":"initData","type":"bytes","internalType":"bytes"}],"outputs":[{"name":"data","type":"bytes","internalType":"bytes"}],"stateMutability":"view"},{"type":"function","name":"getInstallModuleCallData","inputs":[{"name":"instance","type":"tuple","internalType":"struct AccountInstance","components":[{"name":"account","type":"address","internalType":"address"},{"name":"accountType","type":"uint8","internalType":"enum AccountType"},{"name":"accountHelper","type":"address","internalType":"address"},{"name":"aux","type":"tuple","internalType":"struct Auxiliary","components":[{"name":"entrypoint","type":"address","internalType":"contract IEntryPoint"},{"name":"gasSimulation","type":"address","internalType":"contract UserOpGasLog"},{"name":"registry","type":"address","internalType":"contract IERC7484"},{"name":"mockFactory","type":"address","internalType":"contract MockFactory"},{"name":"smartSession","type":"address","internalType":"contract ISmartSession"}]},{"name":"defaultValidator","type":"address","internalType":"contract IValidator"},{"name":"salt","type":"bytes32","internalType":"bytes32"},{"name":"initCode","type":"bytes","internalType":"bytes"},{"name":"accountFactory","type":"address","internalType":"address"},{"name":"smartSession","type":"address","internalType":"contract ISmartSession"},{"name":"defaultSessionValidator","type":"address","internalType":"contract ISessionValidator"}]},{"name":"moduleType","type":"uint256","internalType":"uint256"},{"name":"module","type":"address","internalType":"address"},{"name":"initData","type":"bytes","internalType":"bytes"}],"outputs":[{"name":"callData","type":"bytes","internalType":"bytes"}],"stateMutability":"view"},{"type":"function","name":"getInstallModuleData","inputs":[{"name":"instance","type":"tuple","internalType":"struct AccountInstance","components":[{"name":"account","type":"address","internalType":"address"},{"name":"accountType","type":"uint8","internalType":"enum AccountType"},{"name":"accountHelper","type":"address","internalType":"address"},{"name":"aux","type":"tuple","internalType":"struct Auxiliary","components":[{"name":"entrypoint","type":"address","internalType":"contract IEntryPoint"},{"name":"gasSimulation","type":"address","internalType":"contract UserOpGasLog"},{"name":"registry","type":"address","internalType":"contract IERC7484"},{"name":"mockFactory","type":"address","internalType":"contract MockFactory"},{"name":"smartSession","type":"address","internalType":"contract ISmartSession"}]},{"name":"defaultValidator","type":"address","internalType":"contract IValidator"},{"name":"salt","type":"bytes32","internalType":"bytes32"},{"name":"initCode","type":"bytes","internalType":"bytes"},{"name":"accountFactory","type":"address","internalType":"address"},{"name":"smartSession","type":"address","internalType":"contract ISmartSession"},{"name":"defaultSessionValidator","type":"address","internalType":"contract ISessionValidator"}]},{"name":"moduleType","type":"uint256","internalType":"uint256"},{"name":"module","type":"address","internalType":"address"},{"name":"initData","type":"bytes","internalType":"bytes"}],"outputs":[{"name":"","type":"bytes","internalType":"bytes"}],"stateMutability":"view"},{"type":"function","name":"getInstallValidatorData","inputs":[{"name":"instance","type":"tuple","internalType":"struct AccountInstance","components":[{"name":"account","type":"address","internalType":"address"},{"name":"accountType","type":"uint8","internalType":"enum AccountType"},{"name":"accountHelper","type":"address","internalType":"address"},{"name":"aux","type":"tuple","internalType":"struct Auxiliary","components":[{"name":"entrypoint","type":"address","internalType":"contract IEntryPoint"},{"name":"gasSimulation","type":"address","internalType":"contract UserOpGasLog"},{"name":"registry","type":"address","internalType":"contract IERC7484"},{"name":"mockFactory","type":"address","internalType":"contract MockFactory"},{"name":"smartSession","type":"address","internalType":"contract ISmartSession"}]},{"name":"defaultValidator","type":"address","internalType":"contract IValidator"},{"name":"salt","type":"bytes32","internalType":"bytes32"},{"name":"initCode","type":"bytes","internalType":"bytes"},{"name":"accountFactory","type":"address","internalType":"address"},{"name":"smartSession","type":"address","internalType":"contract ISmartSession"},{"name":"defaultSessionValidator","type":"address","internalType":"contract ISessionValidator"}]},{"name":"","type":"address","internalType":"address"},{"name":"initData","type":"bytes","internalType":"bytes"}],"outputs":[{"name":"data","type":"bytes","internalType":"bytes"}],"stateMutability":"view"},{"type":"function","name":"getNonce","inputs":[{"name":"instance","type":"tuple","internalType":"struct AccountInstance","components":[{"name":"account","type":"address","internalType":"address"},{"name":"accountType","type":"uint8","internalType":"enum AccountType"},{"name":"accountHelper","type":"address","internalType":"address"},{"name":"aux","type":"tuple","internalType":"struct Auxiliary","components":[{"name":"entrypoint","type":"address","internalType":"contract IEntryPoint"},{"name":"gasSimulation","type":"address","internalType":"contract UserOpGasLog"},{"name":"registry","type":"address","internalType":"contract IERC7484"},{"name":"mockFactory","type":"address","internalType":"contract MockFactory"},{"name":"smartSession","type":"address","internalType":"contract ISmartSession"}]},{"name":"defaultValidator","type":"address","internalType":"contract IValidator"},{"name":"salt","type":"bytes32","internalType":"bytes32"},{"name":"initCode","type":"bytes","internalType":"bytes"},{"name":"accountFactory","type":"address","internalType":"address"},{"name":"smartSession","type":"address","internalType":"contract ISmartSession"},{"name":"defaultSessionValidator","type":"address","internalType":"contract ISessionValidator"}]},{"name":"callData","type":"bytes","internalType":"bytes"},{"name":"txValidator","type":"address","internalType":"address"}],"outputs":[{"name":"nonce","type":"uint256","internalType":"uint256"}],"stateMutability":"nonpayable"},{"type":"function","name":"getUninstallExecutorData","inputs":[{"name":"","type":"tuple","internalType":"struct AccountInstance","components":[{"name":"account","type":"address","internalType":"address"},{"name":"accountType","type":"uint8","internalType":"enum AccountType"},{"name":"accountHelper","type":"address","internalType":"address"},{"name":"aux","type":"tuple","internalType":"struct Auxiliary","components":[{"name":"entrypoint","type":"address","internalType":"contract IEntryPoint"},{"name":"gasSimulation","type":"address","internalType":"contract UserOpGasLog"},{"name":"registry","type":"address","internalType":"contract IERC7484"},{"name":"mockFactory","type":"address","internalType":"contract MockFactory"},{"name":"smartSession","type":"address","internalType":"contract ISmartSession"}]},{"name":"defaultValidator","type":"address","internalType":"contract IValidator"},{"name":"salt","type":"bytes32","internalType":"bytes32"},{"name":"initCode","type":"bytes","internalType":"bytes"},{"name":"accountFactory","type":"address","internalType":"address"},{"name":"smartSession","type":"address","internalType":"contract ISmartSession"},{"name":"defaultSessionValidator","type":"address","internalType":"contract ISessionValidator"}]},{"name":"","type":"address","internalType":"address"},{"name":"initData","type":"bytes","internalType":"bytes"}],"outputs":[{"name":"data","type":"bytes","internalType":"bytes"}],"stateMutability":"view"},{"type":"function","name":"getUninstallFallbackData","inputs":[{"name":"","type":"tuple","internalType":"struct AccountInstance","components":[{"name":"account","type":"address","internalType":"address"},{"name":"accountType","type":"uint8","internalType":"enum AccountType"},{"name":"accountHelper","type":"address","internalType":"address"},{"name":"aux","type":"tuple","internalType":"struct Auxiliary","components":[{"name":"entrypoint","type":"address","internalType":"contract IEntryPoint"},{"name":"gasSimulation","type":"address","internalType":"contract UserOpGasLog"},{"name":"registry","type":"address","internalType":"contract IERC7484"},{"name":"mockFactory","type":"address","internalType":"contract MockFactory"},{"name":"smartSession","type":"address","internalType":"contract ISmartSession"}]},{"name":"defaultValidator","type":"address","internalType":"contract IValidator"},{"name":"salt","type":"bytes32","internalType":"bytes32"},{"name":"initCode","type":"bytes","internalType":"bytes"},{"name":"accountFactory","type":"address","internalType":"address"},{"name":"smartSession","type":"address","internalType":"contract ISmartSession"},{"name":"defaultSessionValidator","type":"address","internalType":"contract ISessionValidator"}]},{"name":"","type":"address","internalType":"address"},{"name":"initData","type":"bytes","internalType":"bytes"}],"outputs":[{"name":"data","type":"bytes","internalType":"bytes"}],"stateMutability":"pure"},{"type":"function","name":"getUninstallHookData","inputs":[{"name":"","type":"tuple","internalType":"struct AccountInstance","components":[{"name":"account","type":"address","internalType":"address"},{"name":"accountType","type":"uint8","internalType":"enum AccountType"},{"name":"accountHelper","type":"address","internalType":"address"},{"name":"aux","type":"tuple","internalType":"struct Auxiliary","components":[{"name":"entrypoint","type":"address","internalType":"contract IEntryPoint"},{"name":"gasSimulation","type":"address","internalType":"contract UserOpGasLog"},{"name":"registry","type":"address","internalType":"contract IERC7484"},{"name":"mockFactory","type":"address","internalType":"contract MockFactory"},{"name":"smartSession","type":"address","internalType":"contract ISmartSession"}]},{"name":"defaultValidator","type":"address","internalType":"contract IValidator"},{"name":"salt","type":"bytes32","internalType":"bytes32"},{"name":"initCode","type":"bytes","internalType":"bytes"},{"name":"accountFactory","type":"address","internalType":"address"},{"name":"smartSession","type":"address","internalType":"contract ISmartSession"},{"name":"defaultSessionValidator","type":"address","internalType":"contract ISessionValidator"}]},{"name":"","type":"address","internalType":"address"},{"name":"initData","type":"bytes","internalType":"bytes"}],"outputs":[{"name":"data","type":"bytes","internalType":"bytes"}],"stateMutability":"pure"},{"type":"function","name":"getUninstallModuleCallData","inputs":[{"name":"instance","type":"tuple","internalType":"struct AccountInstance","components":[{"name":"account","type":"address","internalType":"address"},{"name":"accountType","type":"uint8","internalType":"enum AccountType"},{"name":"accountHelper","type":"address","internalType":"address"},{"name":"aux","type":"tuple","internalType":"struct Auxiliary","components":[{"name":"entrypoint","type":"address","internalType":"contract IEntryPoint"},{"name":"gasSimulation","type":"address","internalType":"contract UserOpGasLog"},{"name":"registry","type":"address","internalType":"contract IERC7484"},{"name":"mockFactory","type":"address","internalType":"contract MockFactory"},{"name":"smartSession","type":"address","internalType":"contract ISmartSession"}]},{"name":"defaultValidator","type":"address","internalType":"contract IValidator"},{"name":"salt","type":"bytes32","internalType":"bytes32"},{"name":"initCode","type":"bytes","internalType":"bytes"},{"name":"accountFactory","type":"address","internalType":"address"},{"name":"smartSession","type":"address","internalType":"contract ISmartSession"},{"name":"defaultSessionValidator","type":"address","internalType":"contract ISessionValidator"}]},{"name":"moduleType","type":"uint256","internalType":"uint256"},{"name":"module","type":"address","internalType":"address"},{"name":"initData","type":"bytes","internalType":"bytes"}],"outputs":[{"name":"callData","type":"bytes","internalType":"bytes"}],"stateMutability":"view"},{"type":"function","name":"getUninstallModuleData","inputs":[{"name":"instance","type":"tuple","internalType":"struct AccountInstance","components":[{"name":"account","type":"address","internalType":"address"},{"name":"accountType","type":"uint8","internalType":"enum AccountType"},{"name":"accountHelper","type":"address","internalType":"address"},{"name":"aux","type":"tuple","internalType":"struct Auxiliary","components":[{"name":"entrypoint","type":"address","internalType":"contract IEntryPoint"},{"name":"gasSimulation","type":"address","internalType":"contract UserOpGasLog"},{"name":"registry","type":"address","internalType":"contract IERC7484"},{"name":"mockFactory","type":"address","internalType":"contract MockFactory"},{"name":"smartSession","type":"address","internalType":"contract ISmartSession"}]},{"name":"defaultValidator","type":"address","internalType":"contract IValidator"},{"name":"salt","type":"bytes32","internalType":"bytes32"},{"name":"initCode","type":"bytes","internalType":"bytes"},{"name":"accountFactory","type":"address","internalType":"address"},{"name":"smartSession","type":"address","internalType":"contract ISmartSession"},{"name":"defaultSessionValidator","type":"address","internalType":"contract ISessionValidator"}]},{"name":"moduleType","type":"uint256","internalType":"uint256"},{"name":"module","type":"address","internalType":"address"},{"name":"initData","type":"bytes","internalType":"bytes"}],"outputs":[{"name":"","type":"bytes","internalType":"bytes"}],"stateMutability":"view"},{"type":"function","name":"getUninstallValidatorData","inputs":[{"name":"","type":"tuple","internalType":"struct AccountInstance","components":[{"name":"account","type":"address","internalType":"address"},{"name":"accountType","type":"uint8","internalType":"enum AccountType"},{"name":"accountHelper","type":"address","internalType":"address"},{"name":"aux","type":"tuple","internalType":"struct Auxiliary","components":[{"name":"entrypoint","type":"address","internalType":"contract IEntryPoint"},{"name":"gasSimulation","type":"address","internalType":"contract UserOpGasLog"},{"name":"registry","type":"address","internalType":"contract IERC7484"},{"name":"mockFactory","type":"address","internalType":"contract MockFactory"},{"name":"smartSession","type":"address","internalType":"contract ISmartSession"}]},{"name":"defaultValidator","type":"address","internalType":"contract IValidator"},{"name":"salt","type":"bytes32","internalType":"bytes32"},{"name":"initCode","type":"bytes","internalType":"bytes"},{"name":"accountFactory","type":"address","internalType":"address"},{"name":"smartSession","type":"address","internalType":"contract ISmartSession"},{"name":"defaultSessionValidator","type":"address","internalType":"contract ISessionValidator"}]},{"name":"","type":"address","internalType":"address"},{"name":"initData","type":"bytes","internalType":"bytes"}],"outputs":[{"name":"data","type":"bytes","internalType":"bytes"}],"stateMutability":"view"},{"type":"function","name":"isModuleInstalled","inputs":[{"name":"instance","type":"tuple","internalType":"struct AccountInstance","components":[{"name":"account","type":"address","internalType":"address"},{"name":"accountType","type":"uint8","internalType":"enum AccountType"},{"name":"accountHelper","type":"address","internalType":"address"},{"name":"aux","type":"tuple","internalType":"struct Auxiliary","components":[{"name":"entrypoint","type":"address","internalType":"contract IEntryPoint"},{"name":"gasSimulation","type":"address","internalType":"contract UserOpGasLog"},{"name":"registry","type":"address","internalType":"contract IERC7484"},{"name":"mockFactory","type":"address","internalType":"contract MockFactory"},{"name":"smartSession","type":"address","internalType":"contract ISmartSession"}]},{"name":"defaultValidator","type":"address","internalType":"contract IValidator"},{"name":"salt","type":"bytes32","internalType":"bytes32"},{"name":"initCode","type":"bytes","internalType":"bytes"},{"name":"accountFactory","type":"address","internalType":"address"},{"name":"smartSession","type":"address","internalType":"contract ISmartSession"},{"name":"defaultSessionValidator","type":"address","internalType":"contract ISessionValidator"}]},{"name":"moduleTypeId","type":"uint256","internalType":"uint256"},{"name":"module","type":"address","internalType":"address"}],"outputs":[{"name":"","type":"bool","internalType":"bool"}],"stateMutability":"nonpayable"},{"type":"function","name":"isModuleInstalled","inputs":[{"name":"instance","type":"tuple","internalType":"struct AccountInstance","components":[{"name":"account","type":"address","internalType":"address"},{"name":"accountType","type":"uint8","internalType":"enum AccountType"},{"name":"accountHelper","type":"address","internalType":"address"},{"name":"aux","type":"tuple","internalType":"struct Auxiliary","components":[{"name":"entrypoint","type":"address","internalType":"contract IEntryPoint"},{"name":"gasSimulation","type":"address","internalType":"contract UserOpGasLog"},{"name":"registry","type":"address","internalType":"contract IERC7484"},{"name":"mockFactory","type":"address","internalType":"contract MockFactory"},{"name":"smartSession","type":"address","internalType":"contract ISmartSession"}]},{"name":"defaultValidator","type":"address","internalType":"contract IValidator"},{"name":"salt","type":"bytes32","internalType":"bytes32"},{"name":"initCode","type":"bytes","internalType":"bytes"},{"name":"accountFactory","type":"address","internalType":"address"},{"name":"smartSession","type":"address","internalType":"contract ISmartSession"},{"name":"defaultSessionValidator","type":"address","internalType":"contract ISessionValidator"}]},{"name":"moduleTypeId","type":"uint256","internalType":"uint256"},{"name":"module","type":"address","internalType":"address"},{"name":"data","type":"bytes","internalType":"bytes"}],"outputs":[{"name":"","type":"bool","internalType":"bool"}],"stateMutability":"nonpayable"},{"type":"function","name":"isValidSignature","inputs":[{"name":"instance","type":"tuple","internalType":"struct AccountInstance","components":[{"name":"account","type":"address","internalType":"address"},{"name":"accountType","type":"uint8","internalType":"enum AccountType"},{"name":"accountHelper","type":"address","internalType":"address"},{"name":"aux","type":"tuple","internalType":"struct Auxiliary","components":[{"name":"entrypoint","type":"address","internalType":"contract IEntryPoint"},{"name":"gasSimulation","type":"address","internalType":"contract UserOpGasLog"},{"name":"registry","type":"address","internalType":"contract IERC7484"},{"name":"mockFactory","type":"address","internalType":"contract MockFactory"},{"name":"smartSession","type":"address","internalType":"contract ISmartSession"}]},{"name":"defaultValidator","type":"address","internalType":"contract IValidator"},{"name":"salt","type":"bytes32","internalType":"bytes32"},{"name":"initCode","type":"bytes","internalType":"bytes"},{"name":"accountFactory","type":"address","internalType":"address"},{"name":"smartSession","type":"address","internalType":"contract ISmartSession"},{"name":"defaultSessionValidator","type":"address","internalType":"contract ISessionValidator"}]},{"name":"validator","type":"address","internalType":"address"},{"name":"hash","type":"bytes32","internalType":"bytes32"},{"name":"signature","type":"bytes","internalType":"bytes"}],"outputs":[{"name":"isValid","type":"bool","internalType":"bool"}],"stateMutability":"nonpayable"},{"type":"function","name":"setHookMultiPlexer","inputs":[{"name":"instance","type":"tuple","internalType":"struct AccountInstance","components":[{"name":"account","type":"address","internalType":"address"},{"name":"accountType","type":"uint8","internalType":"enum AccountType"},{"name":"accountHelper","type":"address","internalType":"address"},{"name":"aux","type":"tuple","internalType":"struct Auxiliary","components":[{"name":"entrypoint","type":"address","internalType":"contract IEntryPoint"},{"name":"gasSimulation","type":"address","internalType":"contract UserOpGasLog"},{"name":"registry","type":"address","internalType":"contract IERC7484"},{"name":"mockFactory","type":"address","internalType":"contract MockFactory"},{"name":"smartSession","type":"address","internalType":"contract ISmartSession"}]},{"name":"defaultValidator","type":"address","internalType":"contract IValidator"},{"name":"salt","type":"bytes32","internalType":"bytes32"},{"name":"initCode","type":"bytes","internalType":"bytes"},{"name":"accountFactory","type":"address","internalType":"address"},{"name":"smartSession","type":"address","internalType":"contract ISmartSession"},{"name":"defaultSessionValidator","type":"address","internalType":"contract ISessionValidator"}]},{"name":"hookMultiPlexer","type":"address","internalType":"address"}],"outputs":[],"stateMutability":"nonpayable"},{"type":"function","name":"toExecutions","inputs":[{"name":"targets","type":"address[]","internalType":"address[]"},{"name":"values","type":"uint256[]","internalType":"uint256[]"},{"name":"callDatas","type":"bytes[]","internalType":"bytes[]"}],"outputs":[{"name":"executions","type":"tuple[]","internalType":"struct Execution[]","components":[{"name":"target","type":"address","internalType":"address"},{"name":"value","type":"uint256","internalType":"uint256"},{"name":"callData","type":"bytes","internalType":"bytes"}]}],"stateMutability":"pure"}],"bytecode":{"object":"0x6080604052348015600e575f5ffd5b5062011974806200001e5f395ff3fe608060405234801562000010575f5ffd5b5060043610620001f8575f3560e01c806387a005401162000113578063cda93f5a11620000ab578063df50bee51162000077578063df50bee51462000472578063ee5747e71462000489578063f429874114620004a0578063fbcb3c1714620004aa575f5ffd5b8063cda93f5a1462000416578063d2c0d9fb146200042d578063d3cc71e11462000444578063d5ff7bd4146200045b575f5ffd5b8063a4ac191611620000eb578063a4ac191614620003d1578063b287be4414620003e8578063c338a7e91462000268578063c3581ca814620003ff575f5ffd5b806387a005401462000373578063888d2df9146200038a5780639e3d7bd314620003ba575f5ffd5b80634e68a7a71162000193578063693a019e116200015f578063693a019e14620002685780636edb81af146200032c5780637e5f37a514620003435780637eca7228146200035c575f5ffd5b80634e68a7a714620002685780634fe1e84514620002c6578063514692c614620002dd5780635d393e6e1462000305575f5ffd5b806335ad6bf411620001d357806335ad6bf4146200026857806335b5fa21146200027f578063416d2f1d14620002895780634ca667bb14620002af575f5ffd5b80630858191814620001fc57806318350407146200022b5780632368d27a1462000251575b5f5ffd5b620002136200020d36600462002287565b620004b4565b6040516200022291906200233c565b60405180910390f35b620002426200023c36600462002470565b6200054a565b6040516200022291906200256c565b6200021362000262366004620025fd565b620006b3565b6200021362000279366004620025fd565b92915050565b6200021362000769565b620002a06200029a36600462002670565b62000789565b60405190815260200162000222565b62000213620002c036600462002287565b620007df565b620002a0620002d736600462002713565b62000a1a565b620002f4620002ee36600462002775565b62000b56565b604051901515815260200162000222565b6200031c6200031636600462002670565b62000c60565b604051620002229291906200288a565b620002136200033d366004620025fd565b62000e53565b6200035a62000354366004620028ad565b62000ec6565b005b620002136200036d366004620028e2565b62000f65565b6200021362000384366004620025fd565b62000feb565b620003a16200039b366004620028ad565b62001039565b6040516001600160a01b03909116815260200162000222565b62000213620003cb366004620025fd565b620010a1565b6200031c620003e236600462002924565b620010d9565b6200035a620003f9366004620029d4565b62001318565b620002a06200041036600462002a28565b620013be565b6200021362000427366004620025fd565b6200147a565b620002f46200043e36600462002a83565b620014a1565b620002136200045536600462002ad4565b620014ed565b620002136200046c36600462002287565b62001569565b620002136200048336600462002287565b62001763565b620002f46200049a36600462002287565b620017b7565b6200021362001903565b6200021362001923565b606060018403620004c957815b905062000542565b60028403620004d95781620004c1565b60048403620004e95781620004c1565b60038403620004ff57620004c185848462000feb565b60405162461bcd60e51b8152602060048201526013602482015272496e76616c6964206d6f64756c65207479706560681b60448201526064015b60405180910390fd5b949350505050565b606083516001600160401b0381111562000568576200056862001fa0565b604051908082528060200260200182016040528015620005a557816020015b6200059162001f28565b815260200190600190039081620005875790505b5090508251845114158015620005bd57508151835114155b15620005fe5760405162461bcd60e51b815260206004820152600f60248201526e098cadccee8d0409ad2e6dac2e8c6d608b1b604482015260640162000539565b5f5b8451811015620006ab5760405180606001604052808683815181106200062a576200062a62002bea565b60200260200101516001600160a01b0316815260200185838151811062000655576200065562002bea565b6020026020010151815260200184838151811062000677576200067762002bea565b602002602001015181525082828151811062000697576200069762002bea565b602090810291909101015260010162000600565b509392505050565b60605f5f5f84806020019051810190620006ce919062002c16565b92509250925082620006e08862001039565b8383604051602001620006f592919062002ccf565b60408051601f198184030181528282525f602084015281516001818503018152602184019092526200072d9290919060410162002cec565b60408051601f19818403018152908290526200074e93929160200162002d14565b60405160208183030381529060405293505050509392505050565b604051806172c0016040528061729181526020016200a6ae617291913981565b5f5f84608001516001600160a01b0316836001600160a01b031603620007b157505f620007c5565b620007be85858562001943565b50600160f81b5b620007d6815f875f01518662000a1a565b95945050505050565b606060048403620009cf57604080516003808252608082019092525f91816020015b6200080b62001f28565b815260200190600190039081620008015790505090506040518060600160405280620008378862001039565b6001600160a01b0390811682525f60208301526040805191881660248301529091019060440160408051601f198184030181529190526020810180516001600160e01b0316630f69c09d60e31b1790529052815182905f906200089e576200089e62002bea565b60200260200101819052506040518060600160405280856001600160a01b031681526020015f815260200184604051602401620008dc91906200233c565b60408051601f198184030181529190526020810180516001600160e01b03166306d61fe760e41b179052905281518290600190811062000920576200092062002bea565b60200260200101819052506040518060600160405280856001600160a01b031681526020015f8152602001620009568862001039565b6040516001600160a01b03909116602482015260440160408051601f198184030181529190526020810180516001600160e01b0316631b4e844560e31b1790529052815182906002908110620009b057620009b062002bea565b6020026020010181905250620009c681620014ed565b91505062000542565b838383604051602401620009e69392919062002d4a565b60408051601f198184030181529190526020810180516001600160e01b0316639517e29f60e01b1790529050949350505050565b5f806001600160f81b0319861662000a3457505f62000ac4565b6001600160f81b03198616600160f81b0362000a7b575f851562000a595750600160f81b5b60401c604887901c601085901b62010000600160b01b03161717905062000ac4565b60405162461bcd60e51b815260206004820152601760248201527f496e76616c69642076616c69646174696f6e2074797065000000000000000000604482015260640162000539565b604051631aab3f0d60e11b81526001600160a01b03851660048201526001600160c01b03821660248201526f71727de22e5e9d8baf0edac6f37da032906335567e1a90604401602060405180830381865afa15801562000b26573d5f5f3e3d5ffd5b505050506040513d601f19601f8201168201806040525081019062000b4c919062002d75565b9695505050505050565b83515f9085906001600160a01b03163b1515828162000b865762000b7962001b40565b905062000b868362000ec6565b8751630b135d3f60e11b906001600160a01b0316631626ba7e8862000bb18b60581b600160f81b1790565b8960405160200162000bc592919062002d8d565b6040516020818303038152906040526040518363ffffffff1660e01b815260040162000bf392919062002daa565b602060405180830381865afa15801562000c0f573d5f5f3e3d5ffd5b505050506040513d601f19601f8201168201806040525081019062000c35919062002dc4565b6001600160e01b0319161493508162000c555762000c538162001bbe565b505b505050949350505050565b62000c6a62001f50565b83515f906060906001600160a01b03163b15801562000c8b578660c0015191505b5f62000c9988888862000789565b90505f62000ca8898862001c36565b90506001600160a01b0381161580159062000ccd57506001600160a01b038116600114155b1562000d015760405162000cef90638dd7712f60e01b908a9060200162002de0565b60405160208183030381529060405297505b6040518061012001604052808a5f01516001600160a01b03168152602001838152602001858152602001898152602001621e84808060405160200162000d4992919062002dfd565b60405160208183030381529060405262000d639062002e28565b8152602001621e8480815260200160018060405160200162000d8792919062002dfd565b60405160208183030381529060405262000da19062002e28565b815260200160405180602001604052805f815250815260200160405180602001604052805f815250815250955088606001515f01516001600160a01b03166322cdde4c876040518263ffffffff1660e01b815260040162000e03919062002e4c565b602060405180830381865afa15801562000e1f573d5f5f3e3d5ffd5b505050506040513d601f19601f8201168201806040525081019062000e45919062002d75565b945050505050935093915050565b606062000e608462001039565b82604051806040016040528060048152602001600160e01b81525060405160200162000e8e92919062002e60565b60408051601f198184030181529082905262000eae929160200162002ea0565b60405160208183030381529060405290509392505050565b80516001600160a01b03163b5f0362000f62578060c00151515f0362000f3b5760405162461bcd60e51b815260206004820152602360248201527f6465706c6f794163636f756e743a206e6f20696e6974436f64652070726f766960448201526219195960ea1b606482015260840162000539565b60c0810151601481015181515f9081906034850182855af190508062000f5f575f5ffd5b50505b50565b60605f62000f768180808062001d16565b90505f85858560405160200162000f909392919062002ec5565b6040516020818303038152906040529050818160405160240162000fb692919062002daa565b60408051601f198184030181529190526020810180516001600160e01b031663e9ae5c5360e01b179052925050509392505050565b60605f5f8380602001905181019062001005919062002c16565b925050915081816040516020016200101f92919062002de0565b604051602081830303815290604052925050509392505050565b5f8160e001516001600160a01b0316639b6e35a06040518163ffffffff1660e01b8152600401602060405180830381865afa1580156200107b573d5f5f3e3d5ffd5b505050506040513d601f19601f8201168201806040525081019062000279919062002ef0565b6060620010ae8462001039565b604080515f6020820152815160018183030181526021820190925262000e8e91859160410162002cec565b620010e362001f50565b5f6060885f01516001600160a01b03163b5f0362001102575060c08801515b606085156200113157620011198a8a8a8a62001763565b9650620011298a8a8a8a620007df565b905062001152565b6200113f8a8a8a8a620004b4565b96506200114f8a8a8a8a62001569565b90505b5f6200115f8b8762001c36565b90506001600160a01b038116158015906200118457506001600160a01b038116600114155b15620011b857604051620011a690638dd7712f60e01b90849060200162002de0565b60405160208183030381529060405291505b6040518061012001604052808c5f01516001600160a01b03168152602001620011e38d858a62000789565b8152602001848152602001838152602001621e8480806040516020016200120c92919062002dfd565b604051602081830303815290604052620012269062002e28565b8152602001621e848081526020016001806040516020016200124a92919062002dfd565b604051602081830303815290604052620012649062002e28565b815260200160405180602001604052805f815250815260200160405180602001604052805f81525081525094508a606001515f01516001600160a01b03166322cdde4c866040518263ffffffff1660e01b8152600401620012c6919062002e4c565b602060405180830381865afa158015620012e2573d5f5f3e3d5ffd5b505050506040513d601f19601f8201168201806040525081019062001308919062002d75565b9350505050965096945050505050565b815182906001600160a01b03163b15155f8162001346576200133962001b40565b9050620013468362000ec6565b60e085015160405163a3d5246160e01b81526001600160a01b0386811660048301529091169063a3d52461906024015f604051808303815f87803b1580156200138d575f5ffd5b505af1158015620013a0573d5f5f3e3d5ffd5b5050505081620013b757620013b58162001bbe565b505b5050505050565b82515f9084906001600160a01b03163b15158281620013ee57620013e162001b40565b9050620013ee8362000ec6565b8651604051630c0f671d60e21b8152600481018790526001600160a01b039091169063303d9c7490602401602060405180830381865afa15801562001435573d5f5f3e3d5ffd5b505050506040513d601f19601f820116820180604052508101906200145b919062002d75565b93508162001470576200146e8162001bbe565b505b5050509392505050565b60606200148d8360581b600160f81b1790565b8260405160200162000eae92919062002d8d565b82515f9084906001600160a01b03163b15158281620014d157620014c462001b40565b9050620014d18362000ec6565b6200145b87878760405180602001604052805f815250620017b7565b60605f62001502600160f81b82808062001d16565b905080836040516020016200151891906200256c565b60408051601f198184030181529082905262001538929160240162002daa565b60408051601f198184030181529190526020810180516001600160e01b031663e9ae5c5360e01b1790529392505050565b6060600484036200171857604080516003808252608082019092525f91816020015b6200159562001f28565b8152602001906001900390816200158b5790505090506040518060600160405280620015c18862001039565b6001600160a01b0390811682525f60208301526040805191881660248301529091019060440160408051601f198184030181529190526020810180516001600160e01b031663e5adf3ab60e01b1790529052815182905f9062001628576200162862002bea565b60200260200101819052506040518060600160405280856001600160a01b031681526020015f8152602001846040516024016200166691906200233c565b60408051601f198184030181529190526020810180516001600160e01b0316638a91b0e360e01b1790529052815182906001908110620016aa57620016aa62002bea565b602090810291909101810191909152604080516060810182526001600160a01b03871681525f8184015281516004815260248101835292830180516001600160e01b03166342a7559760e01b17905290810191909152815182906002908110620009b057620009b062002bea565b8383836040516024016200172f9392919062002d4a565b60408051601f198184030181529190526020810180516001600160e01b03166314e2ec7560e31b1790529050949350505050565b6060600184036200177b57620004c185848462000e53565b600284036200179157620004c1858484620010a1565b60048403620017a15781620004c1565b60038403620004ff57620004c1858484620006b3565b83515f9085906001600160a01b03163b15158281620017e757620017da62001b40565b9050620017e78362000ec6565b600487036200187857620017fb8862001039565b8851604051632739099b60e11b81526001600160a01b0391821660048201528882166024820152911690634e72133690604401602060405180830381865afa1580156200184a573d5f5f3e3d5ffd5b505050506040513d601f19601f8201168201806040525081019062001870919062002f0e565b9350620018f2565b875160405163112d3a7d60e01b81526001600160a01b039091169063112d3a7d90620018ad908a908a908a9060040162002d4a565b602060405180830381865afa158015620018c9573d5f5f3e3d5ffd5b505050506040513d601f19601f82011682018060405250810190620018ef919062002f0e565b93505b8162000c555762000c538162001bbe565b604051806172400160405280617209815260200162002fd7617209913981565b6040518061050001604052806104ce81526020016200a1e06104ce913981565b825183906001600160a01b03163b15155f8162001971576200196462001b40565b9050620019718362000ec6565b5f620019838560581b600160f81b1790565b60208701518851604051633737d06360e11b81526001600160581b0319841660048201526001600160e01b03198316602482015292935090915f916001600160a01b031690636e6fa0c690604401602060405180830381865afa158015620019ed573d5f5f3e3d5ffd5b505050506040513d601f19601f8201168201806040525081019062001a13919062002f0e565b90508062001b23575f895f01516001600160a01b0316803b806020016040519081016040528181525f908060200190933c90505f62001a626f71727de22e5e9d8baf0edac6f37da03262001d79565b905062001a978b5f0151826001600160a01b0316803b806020016040519081016040528181525f908060200190933c62001e1f565b8a51604051631bddb77960e11b81526001600160581b0319871660048201526001600160e01b031986166024820152600160448201526001600160a01b03909116906337bb6ef2906064015f604051808303815f87803b15801562001afa575f5ffd5b505af115801562001b0d573d5f5f3e3d5ffd5b5050505062001b208b5f01518362001e1f565b50505b50505081620013b55762001b378162001bbe565b50505050505050565b5f737109709ecfa91a80626ff3989d68f67f5b1dd12d6001600160a01b0316639cd238356040518163ffffffff1660e01b81526004016020604051808303815f875af115801562001b93573d5f5f3e3d5ffd5b505050506040513d601f19601f8201168201806040525081019062001bb9919062002d75565b905090565b60405163c252740560e01b8152600481018290525f90737109709ecfa91a80626ff3989d68f67f5b1dd12d9063c2527405906024016020604051808303815f875af115801562001c10573d5f5f3e3d5ffd5b505050506040513d601f19601f8201168201806040525081019062000279919062002f0e565b81515f9083906001600160a01b03163b1515828162001c665762001c5962001b40565b905062001c668362000ec6565b5f62001c788660581b600160f81b1790565b875160405163b8afe17d60e01b81526001600160581b0319831660048201529192505f916001600160a01b039091169063b8afe17d906024016040805180830381865afa15801562001ccc573d5f5f3e3d5ffd5b505050506040513d601f19601f8201168201806040525081019062001cf2919062002f2c565b60200151955050508162001d0d5762001d0b8162001bbe565b505b50505092915050565b604080516001600160f81b03198087166020830152851660218201525f602282018190526001600160e01b03198516602683015269ffffffffffffffffffff198416602a8301529101604051602081830303815290604052620007d69062002e28565b5f5f604051806172c0016040528061729181526020016200a6ae6172919139604080516001600160a01b03861660208201520160408051601f198184030181529082905262001dcc929160200162002f99565b604051602081830303815290604052905062001de88162001e85565b915062001e19826040518060400160405280600b81526020016a29b2ba29b2b632b1ba37b960a91b81525062001eed565b50919050565b604051635a6b63c160e11b8152737109709ecfa91a80626ff3989d68f67f5b1dd12d9063b4d6c7829062001e5a908590859060040162002fb1565b5f604051808303815f87803b15801562001e72575f5ffd5b505af1158015620013b5573d5f5f3e3d5ffd5b5f8151602083015ff090506001600160a01b03811662001ee85760405162461bcd60e51b815260206004820152601b60248201527f4465706c6f7965723a206465706c6f796d656e74206661696c65640000000000604482015260640162000539565b919050565b6040516318caf8e360e31b8152737109709ecfa91a80626ff3989d68f67f5b1dd12d9063c657c7189062001e5a908590859060040162002fb1565b60405180606001604052805f6001600160a01b031681526020015f8152602001606081525090565b6040518061012001604052805f6001600160a01b031681526020015f815260200160608152602001606081526020015f81526020015f81526020015f815260200160608152602001606081525090565b634e487b7160e01b5f52604160045260245ffd5b60405161014081016001600160401b038111828210171562001fda5762001fda62001fa0565b60405290565b604051606081016001600160401b038111828210171562001fda5762001fda62001fa0565b604051601f8201601f191681016001600160401b038111828210171562002030576200203062001fa0565b604052919050565b6001600160a01b038116811462000f62575f5ffd5b803562001ee88162002038565b80356005811062001ee8575f5ffd5b5f60a082840312156200207a575f5ffd5b60405160a081016001600160401b03811182821017156200209f576200209f62001fa0565b6040529050808235620020b28162002038565b81526020830135620020c48162002038565b60208201526040830135620020d98162002038565b60408201526060830135620020ee8162002038565b60608201526080830135620021038162002038565b6080919091015292915050565b5f6001600160401b038211156200212b576200212b62001fa0565b50601f01601f191660200190565b5f82601f83011262002149575f5ffd5b8135620021606200215a8262002110565b62002005565b81815284602083860101111562002175575f5ffd5b816020850160208301375f918101602001919091529392505050565b5f6101c08284031215620021a3575f5ffd5b620021ad62001fb4565b9050620021ba826200204d565b8152620021ca602083016200205a565b6020820152620021dd604083016200204d565b6040820152620021f1836060840162002069565b60608201526200220561010083016200204d565b608082015261012082013560a08201526101408201356001600160401b038111156200222f575f5ffd5b6200223d8482850162002139565b60c0830152506200225261016083016200204d565b60e08201526200226661018083016200204d565b6101008201526200227b6101a083016200204d565b61012082015292915050565b5f5f5f5f608085870312156200229b575f5ffd5b84356001600160401b03811115620022b1575f5ffd5b620022bf8782880162002191565b945050602085013592506040850135620022d98162002038565b915060608501356001600160401b03811115620022f4575f5ffd5b620023028782880162002139565b91505092959194509250565b5f81518084528060208401602086015e5f602082860101526020601f19601f83011685010191505092915050565b602081525f6200235060208301846200230e565b9392505050565b5f6001600160401b0382111562002372576200237262001fa0565b5060051b60200190565b5f82601f8301126200238c575f5ffd5b81356200239d6200215a8262002357565b8082825260208201915060208360051b860101925085831115620023bf575f5ffd5b602085015b83811015620023de578035835260209283019201620023c4565b5095945050505050565b5f82601f830112620023f8575f5ffd5b8135620024096200215a8262002357565b8082825260208201915060208360051b8601019250858311156200242b575f5ffd5b602085015b83811015620023de5780356001600160401b038111156200244f575f5ffd5b62002460886020838a010162002139565b8452506020928301920162002430565b5f5f5f6060848603121562002483575f5ffd5b83356001600160401b0381111562002499575f5ffd5b8401601f81018613620024aa575f5ffd5b8035620024bb6200215a8262002357565b8082825260208201915060208360051b850101925088831115620024dd575f5ffd5b6020840193505b828410156200250c578335620024fa8162002038565b825260209384019390910190620024e4565b955050505060208401356001600160401b038111156200252a575f5ffd5b62002538868287016200237c565b92505060408401356001600160401b0381111562002554575f5ffd5b6200256286828701620023e8565b9150509250925092565b5f602082016020835280845180835260408501915060408160051b8601019250602086015f5b82811015620025f157868503603f19018452815180516001600160a01b0316865260208082015190870152604090810151606091870182905290620025da908701826200230e565b955050602093840193919091019060010162002592565b50929695505050505050565b5f5f5f6060848603121562002610575f5ffd5b83356001600160401b0381111562002626575f5ffd5b620026348682870162002191565b9350506020840135620026478162002038565b915060408401356001600160401b0381111562002662575f5ffd5b620025628682870162002139565b5f5f5f6060848603121562002683575f5ffd5b83356001600160401b0381111562002699575f5ffd5b620026a78682870162002191565b93505060208401356001600160401b03811115620026c3575f5ffd5b620026d18682870162002139565b9250506040840135620026e48162002038565b809150509250925092565b6001600160f81b03198116811462000f62575f5ffd5b801515811462000f62575f5ffd5b5f5f5f5f6080858703121562002727575f5ffd5b84356200273481620026ef565b93506020850135620027468162002705565b92506040850135620027588162002038565b915060608501356200276a8162002038565b939692955090935050565b5f5f5f5f6080858703121562002789575f5ffd5b84356001600160401b038111156200279f575f5ffd5b620027ad8782880162002191565b9450506020850135620027c08162002038565b92506040850135915060608501356001600160401b03811115620022f4575f5ffd5b80516001600160a01b03168252602081015160208301525f60408201516101206040850152620028176101208501826200230e565b9050606083015184820360608601526200283282826200230e565b9150506080830151608085015260a083015160a085015260c083015160c085015260e083015184820360e08601526200286c82826200230e565b915050610100830151848203610100860152620007d682826200230e565b604081525f6200289e6040830185620027e2565b90508260208301529392505050565b5f60208284031215620028be575f5ffd5b81356001600160401b03811115620028d4575f5ffd5b620005428482850162002191565b5f5f5f60608486031215620028f5575f5ffd5b8335620029028162002038565b92506020840135915060408401356001600160401b0381111562002662575f5ffd5b5f5f5f5f5f5f60c087890312156200293a575f5ffd5b86356001600160401b0381111562002950575f5ffd5b6200295e89828a0162002191565b965050602087013594506040870135620029788162002038565b935060608701356001600160401b0381111562002993575f5ffd5b620029a189828a0162002139565b9350506080870135620029b48162002705565b915060a0870135620029c68162002038565b809150509295509295509295565b5f5f60408385031215620029e6575f5ffd5b82356001600160401b03811115620029fc575f5ffd5b62002a0a8582860162002191565b925050602083013562002a1d8162002038565b809150509250929050565b5f5f5f6060848603121562002a3b575f5ffd5b83356001600160401b0381111562002a51575f5ffd5b62002a5f8682870162002191565b935050602084013562002a728162002038565b929592945050506040919091013590565b5f5f5f6060848603121562002a96575f5ffd5b83356001600160401b0381111562002aac575f5ffd5b62002aba8682870162002191565b935050602084013591506040840135620026e48162002038565b5f6020828403121562002ae5575f5ffd5b81356001600160401b0381111562002afb575f5ffd5b8201601f8101841362002b0c575f5ffd5b803562002b1d6200215a8262002357565b8082825260208201915060208360051b85010192508683111562002b3f575f5ffd5b602084015b8381101562002bdf5780356001600160401b0381111562002b63575f5ffd5b85016060818a03601f1901121562002b79575f5ffd5b62002b8362001fe0565b602082013562002b938162002038565b81526040820135602082015260608201356001600160401b0381111562002bb8575f5ffd5b62002bc98b60208386010162002139565b6040830152508452506020928301920162002b44565b509695505050505050565b634e487b7160e01b5f52603260045260245ffd5b80516001600160e01b03198116811462001ee8575f5ffd5b5f5f5f6060848603121562002c29575f5ffd5b62002c348462002bfe565b9250602084015162002c4681620026ef565b60408501519092506001600160401b0381111562002c62575f5ffd5b8401601f8101861362002c73575f5ffd5b805162002c846200215a8262002110565b81815287602083850101111562002c99575f5ffd5b8160208401602083015e5f602083830101528093505050509250925092565b5f81518060208401855e5f93019283525090919050565b6001600160f81b0319831681525f62000542600183018462002cb8565b604081525f62002d0060408301856200230e565b8281036020840152620007d681856200230e565b6001600160e01b031984168152606083901b6bffffffffffffffffffffffff191660048201525f620007d6601883018462002cb8565b8381526001600160a01b03831660208201526060604082018190525f90620007d6908301846200230e565b5f6020828403121562002d86575f5ffd5b5051919050565b6001600160581b0319831681525f62000542601583018462002cb8565b828152604060208201525f6200054260408301846200230e565b5f6020828403121562002dd5575f5ffd5b620023508262002bfe565b6001600160e01b0319831681525f62000542600483018462002cb8565b6fffffffffffffffffffffffffffffffff19608093841b811682529190921b16601082015260200190565b8051602080830151919081101562001e19575f1960209190910360031b1b16919050565b602081525f620023506020830184620027e2565b606081525f62002e7460608301856200230e565b828103806020850152600182525f602083015260408101604085015250620007d660408201856200230e565b6bffffffffffffffffffffffff198360601b1681525f62000542601483018462002cb8565b6bffffffffffffffffffffffff198460601b1681528260148201525f620007d6603483018462002cb8565b5f6020828403121562002f01575f5ffd5b8151620023508162002038565b5f6020828403121562002f1f575f5ffd5b8151620023508162002705565b5f604082840312801562002f3e575f5ffd5b50604080519081016001600160401b038111828210171562002f645762002f6462001fa0565b604052825163ffffffff8116811462002f7b575f5ffd5b8152602083015162002f8d8162002038565b60208201529392505050565b5f6200054262002faa838662002cb8565b8462002cb8565b6001600160a01b03831681526040602082018190525f9062000542908301846200230e56fe61014060405234801561001157600080fd5b506040516172093803806172098339810160408190526100309161015a565b306080524660a05260608061007a604080518082018252600681526512d95c9b995b60d21b60208083019190915282518084019093526005835264302e332e3160d81b9083015291565b815160209283012081519183019190912060c082905260e0819052604080517f8b73c3c69bb8fe3d512ecc4cf759cc79239f7b179b0ffacaa9a75d522b39400f8152808501939093528281019190915246606083015230608083015260a0909120610100526001600160a01b03851661012052805163deadbeef60e01b92810192909252805160048184030181526024909201905261011b9250905061018a565b7f7bcaa2ced2a71450ed5a9a1b4848e8e5206dbc3f06011e595f7f55428cc6f84f80546001600160a81b03191660589290921c919091179055506101c8565b60006020828403121561016c57600080fd5b81516001600160a01b038116811461018357600080fd5b9392505050565b805160208201516001600160581b03198116919060158210156101c1576001600160581b0319601583900360031b81901b82161692505b5050919050565b60805160a05160c05160e0516101005161012051616fa5610264600039600081816102ef0152818161069401528181610cb701528181610fec015281816111b6015281816115a301528181611a7101528181611b9501528181611d590152818161253901528181612e6b015261303c0152600061465b01526000614715015260006146ef0152600061469f0152600061467c0152616fa56000f3fe6080604052600436106101d15760003560e01c80639517e29f116100f7578063c3e5897811610095578063e9ae5c5311610064578063e9ae5c53146107ef578063f1f7f0f914610802578063f23a6e6114610830578063f2dc691d1461085d57610210565b8063c3e589781461076f578063d03c79141461079c578063d691c964146107bc578063e6f3d50a146107dc57610210565b8063a71763a8116100d1578063a71763a8146106ce578063adb610a3146106e1578063b8afe17d146106f6578063bc197c811461074057610210565b80639517e29f1461062a5780639cfd7cff1461063d578063a65d69d41461068257610210565b806352141cd91161016f57806384b0196e1161013e57806384b0196e146105b25780638dd7712f146105da57806390ef8862146105ed5780639198bdf51461061757610210565b806352141cd9146104ed57806357b3a5f4146105005780636e6fa0c61461055a578063721e67f41461057a57610210565b806319822f7c116101ab57806319822f7c146104845780631f1b92e3146104a55780633659cfe6146104ba5780633c3b752b146104cd57610210565b8063112d3a7d146103ea578063150b7a021461041f5780631626ba7e1461046457610210565b3661021057604080513381523460208201527f88a5966d370b9919b20f3e2c13ff65706f196a4e32cc2c12bf57088f88525874910160405180910390a1005b60006102276000356001600160e01b03191661087d565b604080516060808201835283546001600160a01b039081168084526001909501549081166020840152600160a01b900460f81b6001600160f81b03191692820192909252925060009161028d57604051631cd4b64760e21b815260040160405180910390fd5b82516060906001600160a01b03166001148015906102b6575083516001600160a01b0390811614155b156102d15783516102ca90346000366108b7565b905061032d565b83516001600160a01b03908116900361032d57336001600160a01b037f0000000000000000000000000000000000000000000000000000000000000000161461032d576040516348f5c3ed60e01b815260040160405180910390fd5b604084015161033d90600061093c565b156103595761034f8460200151610953565b909350915061039e565b6040840151610370906001600160f81b031961093c565b156103855761034f84602001516000366109a3565b604051632d6a6bb760e01b815260040160405180910390fd5b826103ab57815160208301fd5b83516001600160a01b03166001148015906103d1575083516001600160a01b0390811614155b156103e25783516103e290826109d2565b815160208301f35b3480156103f657600080fd5b5061040a610405366004615f19565b610a34565b60405190151581526020015b60405180910390f35b34801561042b57600080fd5b5061044b61043a366004615f74565b630a85bd0160e11b95945050505050565b6040516001600160e01b03199091168152602001610416565b34801561047057600080fd5b5061044b61047f366004615fe6565b610b09565b61049761049236600461604a565b610caa565b604051908152602001610416565b6104b86104b33660046160ab565b610fc5565b005b6104b86104c83660046160c6565b61119c565b3480156104d957600080fd5b506104b86104e836600461613f565b6113b5565b6104b86104fb366004616205565b611589565b34801561050c57600080fd5b5061052061051b3660046162b1565b61191e565b6040805182516001600160a01b03908116825260208085015190911690820152918101516001600160f81b03191690820152606001610416565b34801561056657600080fd5b5061040a6105753660046162ce565b61198a565b34801561058657600080fd5b5061059a6105953660046160c6565b6119d2565b60405190516001600160a01b03168152602001610416565b3480156105be57600080fd5b506105c7611a08565b6040516104169796959493929190616355565b6104b86105e83660046163ed565b611a66565b3480156105f957600080fd5b50610602611b5e565b60405163ffffffff9091168152602001610416565b6104b86106253660046164c2565b611b7b565b6104b8610638366004615f19565b611d3f565b34801561064957600080fd5b5060408051808201825260168152756b65726e656c2e616476616e6365642e76302e332e3160501b60208201529051610416919061663d565b34801561068e57600080fd5b506106b67f000000000000000000000000000000000000000000000000000000000000000081565b6040516001600160a01b039091168152602001610416565b6104b86106dc366004615f19565b61251f565b3480156106ed57600080fd5b50610602612b78565b34801561070257600080fd5b50610716610711366004616650565b612b95565b60408051825163ffffffff1681526020928301516001600160a01b03169281019290925201610416565b34801561074c57600080fd5b5061044b61075b36600461666b565b63bc197c8160e01b98975050505050505050565b34801561077b57600080fd5b5061078f61078a3660046162b1565b612bfd565b604051610416919061671f565b3480156107a857600080fd5b5061040a6107b73660046167a2565b612cd9565b6107cf6107ca366004615fe6565b612dc6565b60405161041691906167bb565b6104b86107ea366004616820565b612e51565b6104b86107fd366004615fe6565b613022565b34801561080e57600080fd5b506108176131db565b6040516001600160581b03199091168152602001610416565b34801561083c57600080fd5b5061044b61084b366004616887565b63f23a6e6160e01b9695505050505050565b34801561086957600080fd5b5061040a6108783660046167a2565b6131ee565b6001600160e01b03191660009081527f7c341349a4360fdd5d5bc07e69f325dc6aaea3eb018b3e0ea7e53cc0bb0d6f3b6020526040902090565b60405163d68f602560e01b81526060906001600160a01b0386169063d68f6025906108ec90339088908890889060040161690d565b6000604051808303816000875af115801561090b573d6000803e3d6000fd5b505050506040513d6000823e601f3d908101601f191682016040526109339190810190616966565b95945050505050565b6001600160f81b0319828116908216145b92915050565b6000606060408051368101909152366000823760408051601481019091523360601b9052600080366014018382885af192505060405190503d8152602081013d6000823e3d810160405250915091565b604051600090828482376000388483885af491503d8152602081013d6000823e3d810160405250935093915050565b604051630b9dfbed60e11b81526001600160a01b0383169063173bf7da906109fe90849060040161663d565b600060405180830381600087803b158015610a1857600080fd5b505af1158015610a2c573d6000803e3d6000fd5b505050505050565b600060018503610a91576000610a4861320e565b6001016000610a5d8760581b600160f81b1790565b6001600160581b0319168152602081019190915260400160002054600160201b90046001600160a01b031614159050610b01565b60028503610ab7576000610aa485613232565b546001600160a01b031614159050610b01565b60038503610afd576001600160a01b038416610ae8610ada6004600086886169d8565b610ae391616a02565b61087d565b600101546001600160a01b0316149050610b01565b5060005b949350505050565b600080610b1461320e565b90506000366000610b25878761326b565b925092509250610b3c610b358490565b600061093c565b15610b4957835460581b92505b6001600160581b031983166000908152600185016020526040902054600160201b90046001600160a01b0316610b9257604051631a0a9b9f60e21b815260040160405180910390fd5b610ba083600160f81b61093c565b15610c3a576000610bb18460581c90565b9050806001600160a01b031663f551e2ee33610bcc8c6132d8565b86866040518563ffffffff1660e01b8152600401610bed949392919061690d565b602060405180830381865afa158015610c0a573d6000803e3d6000fd5b505050506040513d601f19601f82011682018060405250810190610c2e9190616a3a565b95505050505050610ca3565b6000610c468460081b90565b6001600160e01b03198116600090815260038701602052604090205490915060f01b600160f11b811615610c8d57604051635b71057960e01b815260040160405180910390fd5b610c9a82338c878761332e565b96505050505050505b9392505050565b6000336001600160a01b037f00000000000000000000000000000000000000000000000000000000000000001614610cf5576040516348f5c3ed60e01b815260040160405180910390fd5b6000610cff61320e565b90506000806000610d13886020013561342c565b91945092509050610d2582600061093c565b15610d315750825460581b5b610d3d83828a8a61345a565b6001600160581b031982166000908152600186016020908152604080832081518083019092525463ffffffff81168252600160201b90046001600160a01b031691810191909152919650610d92908490613656565b8015610db057508454815163ffffffff600160c81b90920482169116105b15610dce57604051633ab3447f60e11b815260040160405180910390fd5b60208101516001600160a01b038116610dfa57604051631a0a9b9f60e21b815260040160405180910390fd5b600089815260208190526040902080546001600160a01b0319166001600160a01b03831690811790915560001901610ec257610e37846000613656565b8015610e9f57506001600160581b031983166000908152600287016020526040812090610e6760608d018d616a57565b610e76916004916000916169d8565b610e7f91616a02565b6001600160e01b031916815260208101919091526040016000205460ff16155b15610ebd57604051631a0a9b9f60e21b815260040160405180910390fd5b610fa8565b610ecd846000613656565b8015610f3557506001600160581b031983166000908152600287016020526040812090610efd60608d018d616a57565b610f0c916008916004916169d8565b610f1591616a02565b6001600160e01b031916815260208101919091526040016000205460ff16155b15610f5357604051631a0a9b9f60e21b815260040160405180910390fd5b638dd7712f60e01b610f6860608c018c616a57565b610f77916004916000916169d8565b610f8091616a02565b6001600160e01b03191614610fa85760405163dbbb044b60e01b815260040160405180910390fd5b8715610fb857343434348b335af1505b5050505050509392505050565b6000610fdf610fd261320e565b546001600160a81b031690565b9050336001600160a01b037f0000000000000000000000000000000000000000000000000000000000000000161480159061101a5750333014155b1561118f5760405163ecd0596160e01b81526004808201526001600160a01b0382169063ecd0596190602401602060405180830381865afa158015611063573d6000803e3d6000fd5b505050506040513d601f19601f820116820180604052508101906110879190616a9d565b156111765760405163d68f602560e01b81526000906001600160a01b0383169063d68f6025906110c190339034908690369060040161690d565b6000604051808303816000875af11580156110e0573d6000803e3d6000fd5b505050506040513d6000823e601f3d908101601f191682016040526111089190810190616966565b905061111383613669565b604051630b9dfbed60e11b81526001600160a01b0383169063173bf7da9061113f90849060040161663d565b600060405180830381600087803b15801561115957600080fd5b505af115801561116d573d6000803e3d6000fd5b50505050505050565b6040516348f5c3ed60e01b815260040160405180910390fd5b61119882613669565b5050565b60006111a9610fd261320e565b9050336001600160a01b037f000000000000000000000000000000000000000000000000000000000000000016148015906111e45750333014155b156113595760405163ecd0596160e01b81526004808201526001600160a01b0382169063ecd0596190602401602060405180830381865afa15801561122d573d6000803e3d6000fd5b505050506040513d601f19601f820116820180604052508101906112519190616a9d565b156111765760405163d68f602560e01b81526000906001600160a01b0383169063d68f60259061128b90339034908690369060040161690d565b6000604051808303816000875af11580156112aa573d6000803e3d6000fd5b505050506040513d6000823e601f3d908101601f191682016040526112d29190810190616966565b9050827f360894a13ba1a3210667c828492db98dca3e2076cc3735a920a3ca505d382bbc55826001600160a01b03167fbc7cd75a20ee27fd9adebab32041f755214dbc6bffa90cc0225b39da2e5c2d3b60405160405180910390a2604051630b9dfbed60e11b81526001600160a01b0383169063173bf7da9061113f90849060040161663d565b7f360894a13ba1a3210667c828492db98dca3e2076cc3735a920a3ca505d382bbc8290556040516001600160a01b038316907fbc7cd75a20ee27fd9adebab32041f755214dbc6bffa90cc0225b39da2e5c2d3b90600090a25050565b60006113bf61320e565b805490915060581b6001600160581b031916156114195760405162461bcd60e51b8152602060048201526013602482015272185b1c9958591e481a5b9a5d1a585b1a5e9959606a1b60448201526064015b60405180910390fd5b6001600160581b0319891661144157604051631a0a9b9f60e21b815260040160405180910390fd5b8861145081600160f81b613656565b8015611465575061146581600160f91b613656565b15611483576040516361c4e91b60e11b815260040160405180910390fd5b61148c8a61374b565b60408051808201909152600181526001600160a01b038a166020820152825463ffffffff60a81b1916600160a81b1783556114cb8b828b8b8b8b6137ad565b60005b8481101561157b576000308787848181106114eb576114eb616abf565b90506020028101906114fd9190616a57565b60405161150b929190616ad5565b6000604051808303816000865af19150503d8060008114611548576040519150601f19603f3d011682016040523d82523d6000602084013e61154d565b606091505b505090508061157257604051636534eae560e11b815260048101839052602401611410565b506001016114ce565b505050505050505050505050565b6000611596610fd261320e565b9050336001600160a01b037f000000000000000000000000000000000000000000000000000000000000000016148015906115d15750333014155b1561181d5760405163ecd0596160e01b81526004808201526001600160a01b0382169063ecd0596190602401602060405180830381865afa15801561161a573d6000803e3d6000fd5b505050506040513d601f19601f8201168201806040525081019061163e9190616a9d565b156111765760405163d68f602560e01b81526000906001600160a01b0383169063d68f60259061167890339034908690369060040161690d565b6000604051808303816000875af1158015611697573d6000803e3d6000fd5b505050506040513d6000823e601f3d908101601f191682016040526116bf9190810190616966565b905060006116cb61320e565b90506001600160581b031989166116f557604051631a0a9b9f60e21b815260040160405180910390fd5b8861170481600160f81b613656565b8015611719575061171981600160f91b613656565b15611737576040516361c4e91b60e11b815260040160405180910390fd5b6117408a61374b565b600061174a61320e565b6001600160581b03198c1660009081526001919091016020526040902054600160201b90046001600160a01b0316036117b757604080518082019091528254600160a81b900463ffffffff1681526001600160a01b038a1660208201526117b58b828b8b8b8b6137ad565b505b5050604051630b9dfbed60e11b81526001600160a01b0383169063173bf7da906117e590849060040161663d565b600060405180830381600087803b1580156117ff57600080fd5b505af1158015611813573d6000803e3d6000fd5b505050505061116d565b600061182761320e565b90506001600160581b0319881661185157604051631a0a9b9f60e21b815260040160405180910390fd5b8761186081600160f81b613656565b8015611875575061187581600160f91b613656565b15611893576040516361c4e91b60e11b815260040160405180910390fd5b61189c8961374b565b60006118a661320e565b6001600160581b03198b1660009081526001919091016020526040902054600160201b90046001600160a01b03160361191357604080518082019091528254600160a81b900463ffffffff1681526001600160a01b03891660208201526119118a828a8a8a8a6137ad565b505b505050505050505050565b60408051606081018252600080825260208201819052918101919091526119448261087d565b6040805160608101825282546001600160a01b0390811682526001909301549283166020820152600160a01b90920460f81b6001600160f81b0319169082015292915050565b600061199461320e565b6001600160581b031984166000908152600291909101602090815260408083206001600160e01b03198616845290915290205460ff16905092915050565b6040805160208101909152600081526119ea82613232565b604080516020810190915290546001600160a01b0316815292915050565b600f60f81b6060806000808083611a54604080518082018252600681526512d95c9b995b60d21b60208083019190915282518084019093526005835264302e332e3160d81b9083015291565b97989097965046955030945091925090565b336001600160a01b037f00000000000000000000000000000000000000000000000000000000000000001614611aaf576040516348f5c3ed60e01b815260040160405180910390fd5b6000818152602081905260409020546060906001600160a01b031660018114611afa57611af78134611ae46060880188616a57565b611af29160049082906169d8565b6108b7565b91505b600080611b2130611b0e6060890189616a57565b611b1c9160049082906169d8565b6109a3565b9150915081611b435760405163f21e646b60e01b815260040160405180910390fd5b6001600160a01b038316600114610a2c57610a2c83856109d2565b6000611b6861320e565b54600160c81b900463ffffffff16919050565b6000611b88610fd261320e565b9050336001600160a01b037f00000000000000000000000000000000000000000000000000000000000000001614801590611bc35750333014155b15611d265760405163ecd0596160e01b81526004808201526001600160a01b0382169063ecd0596190602401602060405180830381865afa158015611c0c573d6000803e3d6000fd5b505050506040513d601f19601f82011682018060405250810190611c309190616a9d565b156111765760405163d68f602560e01b81526000906001600160a01b0383169063d68f602590611c6a90339034908690369060040161690d565b6000604051808303816000875af1158015611c89573d6000803e3d6000fd5b505050506040513d6000823e601f3d908101601f19168201604052611cb19190810190616966565b9050611cc2898989898989896139fc565b604051630b9dfbed60e11b81526001600160a01b0383169063173bf7da90611cee90849060040161663d565b600060405180830381600087803b158015611d0857600080fd5b505af1158015611d1c573d6000803e3d6000fd5b5050505050611d35565b611d35888888888888886139fc565b5050505050505050565b6000611d4c610fd261320e565b9050336001600160a01b037f00000000000000000000000000000000000000000000000000000000000000001614801590611d875750333014155b156122265760405163ecd0596160e01b81526004808201526001600160a01b0382169063ecd0596190602401602060405180830381865afa158015611dd0573d6000803e3d6000fd5b505050506040513d601f19601f82011682018060405250810190611df49190616a9d565b156111765760405163d68f602560e01b81526000906001600160a01b0383169063d68f602590611e2e90339034908690369060040161690d565b6000604051808303816000875af1158015611e4d573d6000803e3d6000fd5b505050506040513d6000823e601f3d908101601f19168201604052611e759190810190616966565b905060018603611fb2576000611e8961320e565b90506000611e9d8760581b600160f81b1790565b82546001600160581b03198216600090815260018501602052604090205491925063ffffffff600160a81b9091048116911603611efd578154600163ffffffff600160a81b808404821692909201160263ffffffff60a81b199091161782555b604080518082019091528254600160a81b900463ffffffff16815260009060208101611f2c6014848a8c6169d8565b611f3591616ae5565b60601c9052905060148781013588016034818101929182013591818b01358b0180830192908201359160548d01358d01918201910135611f798888888888886137ad565b6004819003611fa457611fa488611f946004600085876169d8565b611f9d91616a02565b6001613aa0565b5050505050505050506121c2565b6002860361201957601484810135850160348181019291820135918188013588019182019181013590600090611fea90828a8c6169d8565b611ff391616ae5565b60601c90506120048a868684613b33565b61200f818484613b99565b50505050506121c2565b600386036120a9576018848101358501603881810192918201359181880135880191820191013561207c612051600460008a8c6169d8565b61205a91616a02565b8a612069601860048c8e6169d8565b61207291616ae5565b60601c8787613d6a565b6120a061208d601860048a8c6169d8565b61209691616ae5565b60601c8383613b99565b505050506121c2565b6004860361213d576040516306d61fe760e41b81526001600160a01b03861690636d61fe70906120df9087908790600401616b25565b600060405180830381600087803b1580156120f957600080fd5b505af115801561210d573d6000803e3d6000fd5b50505050600080516020616f658339815191528686604051612130929190616b39565b60405180910390a16121c2565b60058603612173576040516306d61fe760e41b81526001600160a01b03861690636d61fe70906120df9087908790600401616b25565b600686036121a9576040516306d61fe760e41b81526001600160a01b03861690636d61fe70906120df9087908790600401616b25565b604051631092ef5760e11b815260040160405180910390fd5b604051630b9dfbed60e11b81526001600160a01b0383169063173bf7da906121ee90849060040161663d565b600060405180830381600087803b15801561220857600080fd5b505af115801561221c573d6000803e3d6000fd5b5050505050612518565b6001850361235157600061223861320e565b9050600061224c8660581b600160f81b1790565b82546001600160581b03198216600090815260018501602052604090205491925063ffffffff600160a81b90910481169116036122ac578154600163ffffffff600160a81b808404821692909201160263ffffffff60a81b199091161782555b604080518082019091528254600160a81b900463ffffffff168152600090602081016122db601484898b6169d8565b6122e491616ae5565b60601c9052905060148681013587016034818101929182013591818a01358a0180830192908201359160548c01358c019182019101356123288888888888886137ad565b60048190036123435761234388611f946004600085876169d8565b505050505050505050612518565b600285036123ae576014838101358401603481810192918201359181870135870191820191810135906000906123899082898b6169d8565b61239291616ae5565b60601c90506123a389868684613b33565b61221c818484613b99565b6003850361241857601883810135840160388181019291820135918187013587019182019101356123fe6123e660046000898b6169d8565b6123ef91616a02565b89612069601860048b8d6169d8565b61240f61208d60186004898b6169d8565b50505050612518565b600485036124ac576040516306d61fe760e41b81526001600160a01b03851690636d61fe709061244e9086908690600401616b25565b600060405180830381600087803b15801561246857600080fd5b505af115801561247c573d6000803e3d6000fd5b50505050600080516020616f65833981519152858560405161249f929190616b39565b60405180910390a1612518565b600585036124e2576040516306d61fe760e41b81526001600160a01b03851690636d61fe709061244e9086908690600401616b25565b600685036121a9576040516306d61fe760e41b81526001600160a01b03851690636d61fe709061244e9086908690600401616b25565b5050505050565b600061252c610fd261320e565b9050336001600160a01b037f000000000000000000000000000000000000000000000000000000000000000016148015906125675750333014155b156128ed5760405163ecd0596160e01b81526004808201526001600160a01b0382169063ecd0596190602401602060405180830381865afa1580156125b0573d6000803e3d6000fd5b505050506040513d601f19601f820116820180604052508101906125d49190616a9d565b156111765760405163d68f602560e01b81526000906001600160a01b0383169063d68f60259061260e90339034908690369060040161690d565b6000604051808303816000875af115801561262d573d6000803e3d6000fd5b505050506040513d6000823e601f3d908101601f191682016040526126559190810190616966565b9050856001036126855760006126718660581b600160f81b1790565b905061267e818686613edb565b50506121c2565b8560020361269e5761269885858561401f565b506121c2565b856003036126d65760006126b560048286886169d8565b6126be91616a02565b905061267e816126d1866004818a6169d8565b6140bb565b856004036127f35760006126e861320e565b5460581b90506001600160a01b03861661270061320e565b6001600160581b0319831660009081526001919091016020526040902054600160201b90046001600160a01b03160361278557600161273d61320e565b6001600160581b0319831660009081526001919091016020526040902080546001600160a01b0392909216600160201b02640100000000600160c01b03199092169190911790555b6127c58686868080601f0160208091040260200160405190810160405280939291908181526020018383808284376000920191909152506141a192505050565b50600080516020616f8583398151915287876040516127e5929190616b39565b60405180910390a1506121c2565b856005036128db57600061280561320e565b5460581b9050600061281a60208287896169d8565b61282391616b50565b9050612834825b600160f91b61093c565b1561286c576128438260081b90565b6001600160e01b031916810361286c576040516313002bdd60e31b815260040160405180910390fd5b6128ac8787878080601f0160208091040260200160405190810160405280939291908181526020018383808284376000920191909152506141a192505050565b50600080516020616f8583398151915288886040516128cc929190616b39565b60405180910390a150506121c2565b856006036121a957600061280561320e565b8460010361291b5760006129078560581b600160f81b1790565b9050612914818585613edb565b5050612518565b846002036129345761292e84848461401f565b50612518565b8460030361296757600061294b60048285876169d8565b61295491616a02565b9050612914816126d185600481896169d8565b84600403612a8457600061297961320e565b5460581b90506001600160a01b03851661299161320e565b6001600160581b0319831660009081526001919091016020526040902054600160201b90046001600160a01b031603612a165760016129ce61320e565b6001600160581b0319831660009081526001919091016020526040902080546001600160a01b0392909216600160201b02640100000000600160c01b03199092169190911790555b612a568585858080601f0160208091040260200160405190810160405280939291908181526020018383808284376000920191909152506141a192505050565b50600080516020616f858339815191528686604051612a76929190616b39565b60405180910390a150612518565b84600503612b66576000612a9661320e565b5460581b90506000612aab60208286886169d8565b612ab491616b50565b9050612abf8261282a565b15612af757612ace8260081b90565b6001600160e01b0319168103612af7576040516313002bdd60e31b815260040160405180910390fd5b612b378686868080601f0160208091040260200160405190810160405280939291908181526020018383808284376000920191909152506141a192505050565b50600080516020616f858339815191528787604051612b57929190616b39565b60405180910390a15050612518565b846006036121a9576000612a9661320e565b6000612b8261320e565b54600160a81b900463ffffffff16919050565b6040805180820190915260008082526020820152612bb161320e565b6001600160581b03199290921660009081526001909201602090815260409283902083518085019094525463ffffffff81168452600160201b90046001600160a01b0316908301525090565b60408051606080820183526000808352602083015291810191909152612c2161320e565b6001600160e01b03198316600090815260039190910160209081526040918290208251606081018452815460f081901b6001600160f01b03191682526201000090046001600160a01b03168184015260018201805485518186028101860187528181529295939493860193830182828015612cc957602002820191906000526020600020905b815460501b6001600160501b0319168152600190910190602001808311612ca7575b5050505050815250509050919050565b600081600881901b603082901b605083901b612cf984600160f81b613656565b8015612d0b5750612d0b846000613656565b8015612d245750612d24846001600160f81b0319613656565b8015612d395750612d3984607f60f91b613656565b15612d4a5750600095945050505050565b6001600160f81b03198316600160f81b14801590612d7157506001600160f81b0319831615155b15612d825750600095945050505050565b6001600160e01b0319821615612d9e5750600095945050505050565b6001600160501b0319811615612dba5750600095945050505050565b50600195945050505050565b60606000612dd333613232565b546001600160a01b0316905080612dfd5760405163710c949760e01b815260040160405180910390fd5b60606001600160a01b038216600114612e2057612e1d82346000366108b7565b90505b612e2b868686614248565b92506001600160a01b038216600114612e4857612e4882826109d2565b50509392505050565b6000612e5e610fd261320e565b9050336001600160a01b037f00000000000000000000000000000000000000000000000000000000000000001614801590612e995750333014155b156130085760405163ecd0596160e01b81526004808201526001600160a01b0382169063ecd0596190602401602060405180830381865afa158015612ee2573d6000803e3d6000fd5b505050506040513d601f19601f82011682018060405250810190612f069190616a9d565b156111765760405163d68f602560e01b81526000906001600160a01b0383169063d68f602590612f4090339034908690369060040161690d565b6000604051808303816000875af1158015612f5f573d6000803e3d6000fd5b505050506040513d6000823e601f3d908101601f19168201604052612f879190810190616966565b90506000612f96888888613edb565b9050612fa3818686614590565b50604051630b9dfbed60e11b81526001600160a01b0383169063173bf7da90612fd090849060040161663d565b600060405180830381600087803b158015612fea57600080fd5b505af1158015612ffe573d6000803e3d6000fd5b5050505050610a2c565b6000613015878787613edb565b905061116d818585614590565b600061302f610fd261320e565b9050336001600160a01b037f0000000000000000000000000000000000000000000000000000000000000000161480159061306a5750333014155b156131ca5760405163ecd0596160e01b81526004808201526001600160a01b0382169063ecd0596190602401602060405180830381865afa1580156130b3573d6000803e3d6000fd5b505050506040513d601f19601f820116820180604052508101906130d79190616a9d565b156111765760405163d68f602560e01b81526000906001600160a01b0383169063d68f60259061311190339034908690369060040161690d565b6000604051808303816000875af1158015613130573d6000803e3d6000fd5b505050506040513d6000823e601f3d908101601f191682016040526131589190810190616966565b9050613165858585614248565b50604051630b9dfbed60e11b81526001600160a01b0383169063173bf7da9061319290849060040161663d565b600060405180830381600087803b1580156131ac57600080fd5b505af11580156131c0573d6000803e3d6000fd5b50505050506131d5565b612518848484614248565b50505050565b60006131e561320e565b5460581b919050565b6000600782101561320157506001919050565b506000919050565b919050565b7f7bcaa2ced2a71450ed5a9a1b4848e8e5206dbc3f06011e595f7f55428cc6f84f90565b6001600160a01b031660009081527f1bbee3173dbdc223633258c9f337a0fff8115f206d302bea0ed3eac003b68b866020526040902090565b813536600060f883901c801561329057600181146132a557600281146132b657600080fd5b600093506001860192506001850391506132d0565b6015860192506015850391506132d0565b6001600160d81b0319841693506005860192506005850391505b509250925092565b604080517f1547321c374afde8a591d972a084b071c594c275e36724931ff96c25f2999c83602082015290810182905260009061094d906060015b60405160208183030381529060405280519060200120614659565b60008060003660006133438a8a8a8a8a614771565b93509350935093506000806133578561487d565b50915091508165ffffffffffff1642108061337957508065ffffffffffff1642115b1561339557506001600160e01b03199550610933945050505050565b6001600160a01b03861663392dffaf6001600160e01b03198e168d6133b98e6132d8565b88886040518663ffffffff1660e01b81526004016133db959493929190616b6e565b602060405180830381865afa1580156133f8573d6000803e3d6000fd5b505050506040513d601f19601f8201168201806040525081019061341c9190616a3a565b9c9b505050505050505050505050565b80600881901b8060ff60f084901c166001198101613452576001600160d81b0319821691505b509193909250565b60008061346561320e565b9050600061347285616bf8565b9050366000613485610100880188616a57565b909250905061349889600160f81b61093c565b156134f6576134b4886134af6101008a018a616a57565b6148b0565b604080516020601f8401819004810282018101909252828152939850919450925083908390819084018382808284376000920191909152505050506101008401525b8761350581600160f81b61093c565b156135945761358d866135188b60581c90565b6001600160a01b03166397003203878b6040518363ffffffff1660e01b8152600401613545929190616d9b565b6020604051808303816000875af1158015613564573d6000803e3d6000fd5b505050506040513d601f19601f820116820180604052508101906135889190616dbd565b6148dd565b9550613649565b60006135a08a60081b90565b6001600160e01b03198116600090815260038801602052604090205490915060f01b600160f01b16156135e6576040516314b9743f60e01b815260040160405180910390fd5b6000806135f58388888861499b565b9150915061360389836148dd565b985061364389826001600160a01b0316630ccab7a1866001600160e01b0319168b8f6040518463ffffffff1660e01b815260040161354593929190616dd6565b98505050505b5050505050949350505050565b6001600160f81b03199081169116141590565b600061367361320e565b805490915063ffffffff8084169161369591600a91600160a81b900416616dff565b63ffffffff1610156136ba5760405163e60fd64760e01b815260040160405180910390fd5b805463ffffffff600160c81b9091048116908316116136ec57604051633ab3447f60e11b815260040160405180910390fd5b805463ffffffff60c81b1916600160c81b63ffffffff8481168202929092178084559081048216600160a81b909104909116101561119857805463ffffffff60a81b198116600160c81b90910463ffffffff16600160a81b0217905550565b600061375561320e565b80546001600160a81b031916605884901c1781556040516001600160581b0319841681529091507f6789ec0c85d6458d897a36a70129b101f8b4d84c6e218046c3107373dbcbae889060200160405180910390a15050565b60006137b761320e565b80546001600160581b03198916600090815260018301602052604090205491925063ffffffff600160a81b9091048116911603613817578054600163ffffffff600160a81b808404821692909201160263ffffffff60a81b199091161781555b60208601516001600160a01b031661383157600160208701525b85518154600160a81b900463ffffffff9081169116141580613879575085516001600160581b03198816600090815260018301602052604090205463ffffffff918216911610155b1561389757604051633ab3447f60e11b815260040160405180910390fd5b6001600160581b03198716600090815260018083016020908152604090922088518154938a01516001600160a01b0316600160201b81026001600160c01b031990951663ffffffff90921691909117939093179055146139005761390086602001518484613b99565b8661390f81600160f81b61093c565b156139b15760006139208960581c90565b6040516306d61fe760e41b81529091506001600160a01b03821690636d61fe7090613951908a908a90600401616b25565b600060405180830381600087803b15801561396b57600080fd5b505af115801561397f573d6000803e3d6000fd5b50505050600080516020616f658339815191526001826040516139a3929190616b39565b60405180910390a150611d35565b6139bf81600160f91b61093c565b156139e35760006139d08960081b90565b90506139dd818888614c7b565b50611d35565b6040516361c4e91b60e11b815260040160405180910390fd5b60005b86811015611d3557613a98888883818110613a1c57613a1c616abf565b9050602002016020810190613a319190616650565b878381518110613a4357613a43616abf565b6020026020010151878785818110613a5d57613a5d616abf565b9050602002810190613a6f9190616a57565b878787818110613a8157613a81616abf565b9050602002810190613a939190616a57565b6137ad565b6001016139ff565b6000613aaa61320e565b6001600160581b03198516600081815260028301602090815260408083206001600160e01b0319891680855290835292819020805488151560ff1990911681179091558151938452918301939093528183015290519192507f9d17cd6d095ac90a655405ab29f30a7ee7e88ef3974c1bf7544bf591043bb71a919081900360600190a150505050565b613b3d84826150d4565b6040516306d61fe760e41b81526001600160a01b03851690636d61fe7090613b6b9086908690600401616b25565b600060405180830381600087803b158015613b8557600080fd5b505af1158015611d35573d6000803e3d6000fd5b6001600160a01b0383161580613bb857506001600160a01b0383166001145b15613bc257505050565b60405163d60b347f60e01b81523060048201526001600160a01b0384169063d60b347f90602401602060405180830381865afa158015613c06573d6000803e3d6000fd5b505050506040513d601f19601f82011682018060405250810190613c2a9190616a9d565b613c9e576001600160a01b038316636d61fe70613c4a83600181876169d8565b6040518363ffffffff1660e01b8152600401613c67929190616b25565b600060405180830381600087803b158015613c8157600080fd5b505af1158015613c95573d6000803e3d6000fd5b50505050613d3d565b6001600160f81b03198282600081613cb857613cb8616abf565b9050013560f81c60f81b6001600160f81b03191603613d3d576001600160a01b038316636d61fe70613ced83600181876169d8565b6040518363ffffffff1660e01b8152600401613d0a929190616b25565b600060405180830381600087803b158015613d2457600080fd5b505af1158015613d38573d6000803e3d6000fd5b505050505b600080516020616f65833981519152600484604051613d5d929190616b39565b60405180910390a1505050565b6001600160a01b038316613d83576001600160a01b0392505b6000613d8e8661087d565b9050600083836000818110613da557613da5616abf565b9050013560f81c60f81b9050613dbf81600060f81b61093c565b15613e5c576001600160a01b038616636d61fe70613de085600181896169d8565b6040518363ffffffff1660e01b8152600401613dfd929190616b25565b600060405180830381600087803b158015613e1757600080fd5b505af1158015613e2b573d6000803e3d6000fd5b50505050600080516020616f65833981519152600387604051613e4f929190616b39565b60405180910390a1613e8c565b613e6e816001600160f81b0319613656565b15613e8c57604051632d6a6bb760e01b815260040160405180910390fd5b81546001600160a01b039586166001600160a01b03199091161782556001909101805460f89290921c600160a01b026001600160a81b0319909216959094169490941793909317909155505050565b600080613ee661320e565b805490915060581b6001600160581b031990811690861603613f1b576040516313002bdd60e31b815260040160405180910390fd5b6001600160581b03198516600090815260018201602052604090208054640100000000600160c01b03198116909155600160201b90046001600160a01b0316915084613f6b81600160f81b61093c565b15613fed576000613f7c8760581c90565b9050613fbe8187878080601f0160208091040260200160405190810160405280939291908181526020018383808284376000920191909152506141a192505050565b50600080516020616f85833981519152600182604051613fdf929190616b39565b60405180910390a150612e48565b613ffb81600160f91b61093c565b156139e357600061400c8760081b90565b905061401981878761512e565b50612e48565b60008061402b85613232565b80546001600160a01b031981168255604080516020601f88018190048102820181019092528681526001600160a01b03909216945091925061408a9187919087908790819084018382808284376000920191909152506141a192505050565b50600080516020616f858339815191526002866040516140ab929190616b39565b60405180910390a1509392505050565b6000806140c78561087d565b80546001600160a01b03198116825560018201546001600160a01b03909116935090915061410090600160a01b900460f81b600061093c565b15614189576001810154604080516020601f8701819004810282018101909252858152614151926001600160a01b03169187908790819084018382808284376000920191909152506141a192505050565b506001810154604051600080516020616f8583398151915291614180916003916001600160a01b031690616b39565b60405180910390a15b60010180546001600160a81b03191690559392505050565b60006141fb835a600080638a91b0e360e01b876040516024016141c4919061663d565b60408051601f198184030181529190526020810180516001600160e01b03166001600160e01b0319909316929092179091526152f8565b50604080516001600160a01b038616815282151560208201529192507f2b82f87bf66300af618a9621d3f221edfab735f5bacb4e004cce1b62375396c3910160405180910390a192915050565b606083600881901b61425e82600160f81b61093c565b156142e8578435850160208101903561427883600061093c565b1561428e576142878282615382565b94506142e1565b61429c83600160f81b61093c565b156142ab576142878282615452565b60405162461bcd60e51b815260206004820152600b60248201526a155b9cdd5c1c1bdc9d195960aa1b6044820152606401611410565b5050612e48565b6142f382600061093c565b1561442157600080366000614308898961557f565b6040805160018082528183019092529498509296509094509250816020015b6060815260200190600190039081614327579050509650600061434a868261093c565b1561437e5761435b858585856155d0565b8860008151811061436e5761436e616abf565b6020026020010181905250614417565b61438c86600160f81b61093c565b156142ab5761439d85858585615606565b896000815181106143b0576143b0616abf565b6020908102919091010152905080614417577fe723f28f104e46b47fd3531f3608374ac226bcf3ddda334a23a266453e0efdb76000896000815181106143f8576143f8616abf565b602002602001015160405161440e929190616e29565b60405180910390a15b5050505050612e48565b614433826001600160f81b031961093c565b156142ab5760408051600180825281830190925290816020015b606081526020019060019003908161444d579050509250600061447360148287896169d8565b61447c91616ae5565b60601c9050366000614491876014818b6169d8565b9150915060006144a28484846109a3565b886000815181106144b5576144b5616abf565b602090810291909101015290506144d085600160f81b61093c565b15614534578061452f577fe723f28f104e46b47fd3531f3608374ac226bcf3ddda334a23a266453e0efdb760008860008151811061451057614510616abf565b6020026020010151604051614526929190616e29565b60405180910390a15b614587565b61453f85600061093c565b156142ab578061452f5760405162461bcd60e51b815260206004820152601360248201527211195b1959d85d1958d85b1b0819985a5b1959606a1b6044820152606401611410565b50505050612e48565b6001600160a01b03831615806145af57506001600160a01b0383166001145b156145b957505050565b6001600160f81b031982826000816145d3576145d3616abf565b9050013560f81c60f81b6001600160f81b0319160361463957614637836145fd83600181876169d8565b8080601f0160208091040260200160405190810160405280939291908181526020018383808284376000920191909152506141a192505050565b505b600080516020616f85833981519152600484604051613d5d929190616b39565b7f00000000000000000000000000000000000000000000000000000000000000007f000000000000000000000000000000000000000000000000000000000000000030147f000000000000000000000000000000000000000000000000000000000000000046141661474c5750604080517f8b73c3c69bb8fe3d512ecc4cf759cc79239f7b179b0ffacaa9a75d522b39400f81527f000000000000000000000000000000000000000000000000000000000000000060208201527f00000000000000000000000000000000000000000000000000000000000000009181019190915246606082015230608082015260a090205b67190100000000000060005280601a5281603a52604260182090506000603a52919050565b6000803660008061478061320e565b60408051610120810182526000808252602082018190529181018290526080810182905260a0810191909152606060c082018190526001600160e01b03198d16908201526001600160a01b038b1660e082015261010081018a90529091506147ea81838a8a615637565b878760008181106147fd576147fd616abf565b9091013560f81c60ff1490506148265760405163b32eeb6960e01b815260040160405180910390fd5b614833876001818b6169d8565b60608301516001600160e01b0319166000908152600394909401602052604093849020549390920151620100009093046001600160a01b03169c929b509950975095505050505050565b600060a082901c65ffffffffffff1682811560001981016148a25765ffffffffffff92505b508360d01c92509193909250565b60003660006148c08686866158a4565b925050506094830135830160348101906014013593509350939050565b600081830160601b8260601b81148460601b8214176001600160a01b03848618161517600181146149115760019250614993565b6001600160d01b031980851690861681811881831102188686176001600160a01b031617935065ffffffffffff60a01b861690816149565765ffffffffffff60a01b91505b5065ffffffffffff60a01b851680614974575065ffffffffffff60a01b5b80821890821102188061498d575065ffffffffffff60a01b5b92909217915b505092915050565b60008060006149a861320e565b6001600160e01b03198816600090815260038201602052604081209192506001909101905b8154811015614bbf57600080614a068484815481106149ee576149ee616abf565b60009182526020909120015460501b90605082901c90565b91509150600089896000818110614a1f57614a1f616abf565b919091013560f81c915050838103614ab2576000614a41600960018c8e6169d8565b614a4a91616e42565b60c01c9050614a5f6009808301908c8e6169d8565b8080601f0160208091040260200160405190810160405280939291908181526020018383808284376000920191909152505050506101008d0152614aa88a60098301818e6169d8565b9a509a5050614aec565b838160ff161015614ad657604051630760bdcf60e11b815260040160405180910390fd5b6040805160208101909152600081526101008c01525b600160f01b8316600003614bb4576000826001600160a01b0316637129edce8e6001600160e01b0319168e6040518363ffffffff1660e01b8152600401614b34929190616e78565b6020604051808303816000875af1158015614b53573d6000803e3d6000fd5b505050506040513d601f19601f82011682018060405250810190614b779190616dbd565b9050806001600160a01b03811615614ba557604051631f24c1fb60e11b815260048101879052602401611410565b614baf8a836148dd565b995050505b5050506001016149cd565b5085856000818110614bd357614bd3616abf565b9091013560f81c60ff149050614bfc5760405163b32eeb6960e01b815260040160405180910390fd5b614c0985600181896169d8565b8080601f01602080910402602001604051908101604052809392919081815260200183838082843760009201829052506101008c01949094525050506001600160e01b03198916815260039092016020525060409020546001600160a01b036201000090910416905094509492505050565b6000614c8561320e565b90508235830160208101903560fe811180614c9e575080155b15614cbc5760405163b62d956d60e01b815260040160405180910390fd5b6001600160e01b03198616600090815260038401602052604090206001015415614d0a576001600160e01b0319861660009081526003840160205260408120614d0a91600190910190615e77565b60005b6000198201811015614efe576001600160e01b0319871660009081526003850160205260409020600101838383818110614d4957614d49616abf565b9050602002810190614d5b9190616a57565b614d6a916016916000916169d8565b614d7391616e91565b81546001810183556000928352602090922090910180546001600160b01b03191660509290921c919091179055828282818110614db257614db2616abf565b9050602002810190614dc49190616a57565b614dd3916016916002916169d8565b614ddc91616ae5565b60601c636d61fe706001600160e01b03198916858585818110614e0157614e01616abf565b9050602002810190614e139190616a57565b614e219160169082906169d8565b604051602001614e3393929190616ec7565b6040516020818303038152906040526040518263ffffffff1660e01b8152600401614e5e919061663d565b600060405180830381600087803b158015614e7857600080fd5b505af1158015614e8c573d6000803e3d6000fd5b50505050600080516020616f658339815191526005848484818110614eb357614eb3616abf565b9050602002810190614ec59190616a57565b614ed4916016916002916169d8565b614edd91616ae5565b60601c604051614eee929190616b39565b60405180910390a1600101614d0d565b50600082826000198101818110614f1757614f17616abf565b9050602002810190614f299190616a57565b614f38916016916002916169d8565b614f4191616ae5565b6001600160e01b031988166000908152600386016020526040902080546201000060609390931c92830262010000600160b01b0319909116179055905082826000198101818110614f9457614f94616abf565b9050602002810190614fa69190616a57565b614fb5916002916000916169d8565b614fbe91616ee1565b6001600160e01b0319881660008181526003870160205260409020805461ffff191660f09390931c929092179091556001600160a01b03821690636d61fe70908585600019810181811061501457615014616abf565b90506020028101906150269190616a57565b6150349160169082906169d8565b60405160200161504693929190616ec7565b6040516020818303038152906040526040518263ffffffff1660e01b8152600401615071919061663d565b600060405180830381600087803b15801561508b57600080fd5b505af115801561509f573d6000803e3d6000fd5b50505050600080516020616f658339815191526006826040516150c3929190616b39565b60405180910390a150505050505050565b6001600160a01b0381166150e6575060015b60006150f183613232565b80546001600160a01b0319166001600160a01b038416178155604051909150600080516020616f6583398151915290613d5d906002908690616b39565b81358201602081019035600061514261320e565b6001600160e01b031987166000908152600391909101602052604090206001808201549192500182146151885760405163013dcc8d60e31b815260040160405180910390fd5b6001810160005b815481101561523d5760006151af8383815481106149ee576149ee616abf565b91505061520b818a6001600160e01b0319168888868181106151d3576151d3616abf565b90506020028101906151e59190616a57565b6040516020016151f793929190616ec7565b6040516020818303038152906040526141a1565b50600080516020616f8583398151915260058260405161522c929190616b39565b60405180910390a15060010161518f565b5061524661320e565b6001600160e01b0319881660009081526003919091016020526040812061527291600190910190615e77565b81546152a8906201000090046001600160a01b03166001600160e01b03198916868660001981018181106151d3576151d3616abf565b508154604051600080516020616f85833981519152916152da916006916201000090046001600160a01b031690616b39565b60405180910390a15080546001600160b01b03191690555050505050565b6000606060008060008661ffff166001600160401b0381111561531d5761531d616431565b6040519080825280601f01601f191660200182016040528015615347576020820181803683370190505b5090506000808751602089018b8e8ef191503d925086831115615368578692505b828152826000602083013e90999098509650505050505050565b606081806001600160401b0381111561539d5761539d616431565b6040519080825280602002602001820160405280156153d057816020015b60608152602001906001900390816153bb5790505b50915060005b8181101561499357368585838181106153f1576153f1616abf565b90506020028101906154039190616f17565b905061542c61541560208301836160c6565b60208301356154276040850185616a57565b6155d0565b84838151811061543e5761543e616abf565b6020908102919091010152506001016153d6565b606081806001600160401b0381111561546d5761546d616431565b6040519080825280602002602001820160405280156154a057816020015b606081526020019060019003908161548b5790505b50915060005b8181101561499357368585838181106154c1576154c1616abf565b90506020028101906154d39190616f17565b905060006154fe6154e760208401846160c6565b60208401356154f96040860186616a57565b615606565b86858151811061551057615510616abf565b6020908102919091010152905080615575577fe723f28f104e46b47fd3531f3608374ac226bcf3ddda334a23a266453e0efdb78386858151811061555657615556616abf565b602002602001015160405161556c929190616e29565b60405180910390a15b50506001016154a6565b600080368161559160148287896169d8565b61559a91616ae5565b60601c93506155ad6034601487896169d8565b6155b691616b50565b92506155c585603481896169d8565b949793965094505050565b60405181838237600038838387895af16155ed573d6000823e3d81fd5b3d8152602081013d6000823e3d01604052949350505050565b604051600090828482376000388483888a5af191503d8152602081013d6000823e3d81016040525094509492505050565b60608401516001600160e01b03191660009081526003840160205260408120600101905b8154811015610a2c576156798282815481106149ee576149ee616abf565b6001600160a01b031660a08801526001600160f01b031916608087015283836000816156a7576156a7616abf565b919091013560f81c8088528290039050615744576156c96009600185876169d8565b6156d291616e42565b60c01c602087018190526156ed9060099081019085876169d8565b8080601f01602080910402602001604051908101604052809392919081815260200183838082843760009201919091525050505060c0870152602086015161573b90849060090181876169d8565b935093506157b0565b855160ff1681111561576957604051630760bdcf60e11b815260040160405180910390fd5b61577660008085876169d8565b8080601f01602080910402602001604051908101604052809392919081815260200183838082843760009201919091525050505060c08701525b6080860151600160f11b1660000361589c5760a0860151606087015160e088015161010089015160c08a015160405163184dfdbb60e11b81526000956001600160a01b03169463309bfb7694615817946001600160e01b0319909216939092600401616f37565b602060405180830381865afa158015615834573d6000803e3d6000fd5b505050506040513d601f19601f820116820180604052508101906158589190616dbd565b9050806001600160a01b0381161561588657604051631f24c1fb60e11b815260048101849052602401611410565b6158948860400151836148dd565b604089015250505b60010161565b565b600036600080366000366000366000806158bf8e8e8e61592a565b9750975097509750975097509750975060748d013560348e0101995060208a033598506158ed818b8b615adf565b9a506158fd8e89898989896137ad565b6159078383615c7f565b6159198e611f946004600086886169d8565b505050505050505050509392505050565b604080518082019091526000808252602082015236600036600036600080600061595261320e565b9050615962601460008c8e6169d8565b61596b91616ae5565b60601c89602001906001600160a01b031690816001600160a01b0316815250508060000160159054906101000a900463ffffffff16896000019063ffffffff16908163ffffffff168152505060148b013560348c010197506020880335965060348b013560348c010195506020860335945060548b013560348c0101935060208403359250615acf7fb17ab1224aca0d4255ef8161acaf2ac121b8faa32a4b2258c912cc5f8308c50560001b8d8360000160159054906101000a900463ffffffff168c602001518c8c604051615a42929190616ad5565b60405180910390208b8b604051615a5a929190616ad5565b60405180910390208a8a604051615a72929190616ad5565b6040805191829003822060208301989098526001600160581b03199096169581019590955263ffffffff90931660608501526001600160a01b03909116608084015260a083015260c082015260e081019190915261010001613313565b9150509397509397509397509397565b600080615aea61320e565b805490915060581b6000615b0282600160f81b61093c565b15615b8e578254604051637aa8f17760e11b81526001600160a81b038216916001600160a01b03169063f551e2ee90615b459030908c908c908c9060040161690d565b602060405180830381865afa158015615b62573d6000803e3d6000fd5b505050506040513d601f19601f82011682018060405250810190615b869190616a3a565b915050615c44565b615b9c82600160f91b61093c565b156139e357825460601b6000615bb582308b8b8b614771565b60405163392dffaf60e01b8152919b5099509097509091506001600160a01b0382169063392dffaf90615bfe906001600160e01b031986169030908e908e908e90600401616b6e565b602060405180830381865afa158015615c1b573d6000803e3d6000fd5b505050506040513d601f19601f82011682018060405250810190615c3f9190616a3a565b925050505b630b135d3f60e11b6001600160e01b0319821614615c75576040516362467c7760e11b815260040160405180910390fd5b5050509392505050565b6000615c8e60048284866169d8565b615c9791616a02565b905060048210615e7257602c8210615e2b57366000818180615cbd60186004898b6169d8565b615cc691616ae5565b60601c9050602c880135604c890101945060208503359350604c880135604c890101925060208303359150615d1b85856000818110615d0757615d07616abf565b9050013560f81c60f81b600060f81b61093c565b8015615d8b575060405163ecd0596160e01b8152600260048201526001600160a01b0382169063ecd0596190602401602060405180830381865afa158015615d67573d6000803e3d6000fd5b505050506040513d601f19601f82011682018060405250810190615d8b9190616a9d565b15615de157606c8801358801604c810190602c01356000615daf60148284866169d8565b615db891616ae5565b60601c9050615dc784826150d4565b615ddd81615dd884601481886169d8565b613b99565b5050505b615e078682615df4602c60188c8e6169d8565b615dfd91616ae5565b60601c8888613d6a565b611d35615e18602c60188a8c6169d8565b615e2191616ae5565b60601c8484613b99565b60048214615e725760405162461bcd60e51b8152602060048201526014602482015273496e76616c69642073656c6563746f724461746160601b6044820152606401611410565b505050565b5080546000825590600052602060002090810190615e959190615e98565b50565b5b80821115615ead5760008155600101615e99565b5090565b6001600160a01b0381168114615e9557600080fd5b803561320981615eb1565b60008083601f840112615ee357600080fd5b5081356001600160401b03811115615efa57600080fd5b602083019150836020828501011115615f1257600080fd5b9250929050565b60008060008060608587031215615f2f57600080fd5b843593506020850135615f4181615eb1565b925060408501356001600160401b03811115615f5c57600080fd5b615f6887828801615ed1565b95989497509550505050565b600080600080600060808688031215615f8c57600080fd5b8535615f9781615eb1565b94506020860135615fa781615eb1565b93506040860135925060608601356001600160401b03811115615fc957600080fd5b615fd588828901615ed1565b969995985093965092949392505050565b600080600060408486031215615ffb57600080fd5b8335925060208401356001600160401b0381111561601857600080fd5b61602486828701615ed1565b9497909650939450505050565b6000610120828403121561604457600080fd5b50919050565b60008060006060848603121561605f57600080fd5b83356001600160401b0381111561607557600080fd5b61608186828701616031565b9660208601359650604090950135949350505050565b803563ffffffff8116811461320957600080fd5b6000602082840312156160bd57600080fd5b610ca382616097565b6000602082840312156160d857600080fd5b8135610ca381615eb1565b80356001600160581b03198116811461320957600080fd5b60008083601f84011261610d57600080fd5b5081356001600160401b0381111561612457600080fd5b6020830191508360208260051b8501011115615f1257600080fd5b60008060008060008060008060a0898b03121561615b57600080fd5b616164896160e3565b9750602089013561617481615eb1565b965060408901356001600160401b0381111561618f57600080fd5b61619b8b828c01615ed1565b90975095505060608901356001600160401b038111156161ba57600080fd5b6161c68b828c01615ed1565b90955093505060808901356001600160401b038111156161e557600080fd5b6161f18b828c016160fb565b999c989b5096995094979396929594505050565b6000806000806000806080878903121561621e57600080fd5b616227876160e3565b9550602087013561623781615eb1565b945060408701356001600160401b0381111561625257600080fd5b61625e89828a01615ed1565b90955093505060608701356001600160401b0381111561627d57600080fd5b61628989828a01615ed1565b979a9699509497509295939492505050565b6001600160e01b031981168114615e9557600080fd5b6000602082840312156162c357600080fd5b8135610ca38161629b565b600080604083850312156162e157600080fd5b6162ea836160e3565b915060208301356162fa8161629b565b809150509250929050565b60005b83811015616320578181015183820152602001616308565b50506000910152565b60008151808452616341816020860160208601616305565b601f01601f19169290920160200192915050565b60ff60f81b8816815260e06020820152600061637460e0830189616329565b82810360408401526163868189616329565b606084018890526001600160a01b038716608085015260a0840186905283810360c08501528451808252602080870193509091019060005b818110156163dc5783518352602093840193909201916001016163be565b50909b9a5050505050505050505050565b6000806040838503121561640057600080fd5b82356001600160401b0381111561641657600080fd5b61642285828601616031565b95602094909401359450505050565b634e487b7160e01b600052604160045260246000fd5b604080519081016001600160401b038111828210171561646957616469616431565b60405290565b60405161012081016001600160401b038111828210171561646957616469616431565b604051601f8201601f191681016001600160401b03811182821017156164ba576164ba616431565b604052919050565b60008060008060008060006080888a0312156164dd57600080fd5b87356001600160401b038111156164f357600080fd5b6164ff8a828b016160fb565b90985096505060208801356001600160401b0381111561651e57600080fd5b8801601f81018a1361652f57600080fd5b80356001600160401b0381111561654857616548616431565b61655760208260051b01616492565b8082825260208201915060208360061b85010192508c83111561657957600080fd5b6020840193505b828410156165d5576040848e03121561659857600080fd5b6165a0616447565b6165a985616097565b815260208501356165b981615eb1565b8060208301525080835250602082019150604084019350616580565b975050505060408801356001600160401b038111156165f357600080fd5b6165ff8a828b016160fb565b90955093505060608801356001600160401b0381111561661e57600080fd5b61662a8a828b016160fb565b989b979a50959850939692959293505050565b602081526000610ca36020830184616329565b60006020828403121561666257600080fd5b610ca3826160e3565b60008060008060008060008060a0898b03121561668757600080fd5b883561669281615eb1565b975060208901356166a281615eb1565b965060408901356001600160401b038111156166bd57600080fd5b6166c98b828c016160fb565b90975095505060608901356001600160401b038111156166e857600080fd5b6166f48b828c016160fb565b90955093505060808901356001600160401b0381111561671357600080fd5b6161f18b828c01615ed1565b602080825282516001600160f01b03191682820152828101516001600160a01b03166040808401919091528301516060808401528051608084018190526000929190910190829060a08501905b808310156167985783516001600160501b0319168252602093840193600193909301929091019061676c565b5095945050505050565b6000602082840312156167b457600080fd5b5035919050565b6000602082016020835280845180835260408501915060408160051b86010192506020860160005b8281101561681457603f198786030184526167ff858351616329565b945060209384019391909101906001016167e3565b50929695505050505050565b60008060008060006060868803121561683857600080fd5b616841866160e3565b945060208601356001600160401b0381111561685c57600080fd5b61686888828901615ed1565b90955093505060408601356001600160401b03811115615fc957600080fd5b60008060008060008060a087890312156168a057600080fd5b86356168ab81615eb1565b955060208701356168bb81615eb1565b9450604087013593506060870135925060808701356001600160401b0381111561627d57600080fd5b81835281816020850137506000828201602090810191909152601f909101601f19169091010190565b60018060a01b03851681528360208201526060604082015260006169356060830184866168e4565b9695505050505050565b60006001600160401b0382111561695857616958616431565b50601f01601f191660200190565b60006020828403121561697857600080fd5b81516001600160401b0381111561698e57600080fd5b8201601f8101841361699f57600080fd5b80516169b26169ad8261693f565b616492565b8181528560208385010111156169c757600080fd5b610933826020830160208601616305565b600080858511156169e857600080fd5b838611156169f557600080fd5b5050820193919092039150565b80356001600160e01b03198116906004841015616a33576001600160e01b0319600485900360031b81901b82161691505b5092915050565b600060208284031215616a4c57600080fd5b8151610ca38161629b565b6000808335601e19843603018112616a6e57600080fd5b8301803591506001600160401b03821115616a8857600080fd5b602001915036819003821315615f1257600080fd5b600060208284031215616aaf57600080fd5b81518015158114610ca357600080fd5b634e487b7160e01b600052603260045260246000fd5b8183823760009101908152919050565b80356bffffffffffffffffffffffff198116906014841015616a33576bffffffffffffffffffffffff1960149490940360031b84901b1690921692915050565b602081526000610b016020830184866168e4565b9182526001600160a01b0316602082015260400190565b8035602083101561094d57600019602084900360031b1b1692915050565b85815260018060a01b0385166020820152836040820152608060608201526000616b9c6080830184866168e4565b979650505050505050565b600082601f830112616bb857600080fd5b8135616bc66169ad8261693f565b818152846020838601011115616bdb57600080fd5b816020850160208301376000918101602001919091529392505050565b60006101208236031215616c0b57600080fd5b616c1361646f565b616c1c83615ec6565b81526020838101359082015260408301356001600160401b03811115616c4157600080fd5b616c4d36828601616ba7565b60408301525060608301356001600160401b03811115616c6c57600080fd5b616c7836828601616ba7565b6060830152506080838101359082015260a0808401359082015260c0808401359082015260e08301356001600160401b03811115616cb557600080fd5b616cc136828601616ba7565b60e0830152506101008301356001600160401b03811115616ce157600080fd5b616ced36828601616ba7565b6101008301525092915050565b80516001600160a01b0316825260208101516020830152600060408201516101206040850152616d2e610120850182616329565b905060608301518482036060860152616d478282616329565b9150506080830151608085015260a083015160a085015260c083015160c085015260e083015184820360e0860152616d7f8282616329565b9150506101008301518482036101008601526109338282616329565b604081526000616dae6040830185616cfa565b90508260208301529392505050565b600060208284031215616dcf57600080fd5b5051919050565b838152606060208201526000616def6060830185616cfa565b9050826040830152949350505050565b63ffffffff818116838216019081111561094d57634e487b7160e01b600052601160045260246000fd5b828152604060208201526000610b016040830184616329565b80356001600160c01b03198116906008841015616a33576001600160c01b031960089490940360031b84901b1690921692915050565b828152604060208201526000610b016040830184616cfa565b80356001600160501b03198116906016841015616a33576001600160501b031960169490940360031b84901b1690921692915050565b838152818360208301376000910160200190815292915050565b80356001600160f01b03198116906002841015616a33576001600160f01b031960029490940360031b84901b1690921692915050565b60008235605e19833603018112616f2d57600080fd5b9190910192915050565b84815260018060a01b0384166020820152826040820152608060608201526000616935608083018461632956fed21d0b289f126c4b473ea641963e766833c2f13866e4ff480abd787c100ef123341347516a9de374859dfda710fa4828b2d48cb57d4fbe4c1149612b8e02276e60a0604052348015600f57600080fd5b506040516104ce3803806104ce833981016040819052602c91603c565b6001600160a01b0316608052606a565b600060208284031215604d57600080fd5b81516001600160a01b0381168114606357600080fd5b9392505050565b60805161043d6100916000396000818160870152818160f10152610159015261043d6000f3fe6080604052600436106100345760003560e01c806348aac392146100395780635c60da1b14610075578063ea6d13ac146100a9575b600080fd5b34801561004557600080fd5b506100596100543660046103a2565b6100bc565b6040516001600160a01b03909116815260200160405180910390f35b34801561008157600080fd5b506100597f000000000000000000000000000000000000000000000000000000000000000081565b6100596100b73660046103a2565b610120565b6000808484846040516020016100d49392919061041b565b6040516020818303038152906040528051906020012090506101177f00000000000000000000000000000000000000000000000000000000000000008230610213565b95945050505050565b6000808484846040516020016101389392919061041b565b60405160208183030381529060405280519060200120905060008061017e347f00000000000000000000000000000000000000000000000000000000000000008561029c565b9150915081610209576000816001600160a01b031688886040516101a392919061042d565b6000604051808303816000865af19150503d80600081146101e0576040519150601f19603f3d011682016040523d82523d6000602084013e6101e5565b606091505b50509050806102075760405163487e630960e11b815260040160405180910390fd5b505b9695505050505050565b60008061028f85604080517fcc3735a920a3ca505d382bbc545af43d6000803e6038573d6000fd5b3d6000f360609081527f5155f3363d3d373d3d363d7f360894a13ba1a3210667c828492db98dca3e20768352616009602052601e9390935268603d3d8160223d3973600a52605f6021209152600090915290565b9050610117818585610380565b6000806040517fcc3735a920a3ca505d382bbc545af43d6000803e6038573d6000fd5b3d6000f36060527f5155f3363d3d373d3d363d7f360894a13ba1a3210667c828492db98dca3e207660405261600960205284601e5268603d3d8160223d3973600a52605f60212060358201523060581b815260ff8153836015820152605581209150813b6103485783605f602188f59150816103435763301164256000526004601cfd5b61036e565b60019250851561036e5760003860003889865af161036e5763b12d13eb6000526004601cfd5b80604052506000606052935093915050565b600060ff60005350603592835260601b60015260155260556000908120915290565b6000806000604084860312156103b757600080fd5b833567ffffffffffffffff8111156103ce57600080fd5b8401601f810186136103df57600080fd5b803567ffffffffffffffff8111156103f657600080fd5b86602082840101111561040857600080fd5b6020918201979096509401359392505050565b82848237909101908152602001919050565b81838237600091019081529190505661014060405234801561001157600080fd5b506040516172913803806172918339810160408190526100309161015a565b306080524660a05260608061007a604080518082018252600681526512d95c9b995b60d21b60208083019190915282518084019093526005835264302e332e3160d81b9083015291565b815160209283012081519183019190912060c082905260e0819052604080517f8b73c3c69bb8fe3d512ecc4cf759cc79239f7b179b0ffacaa9a75d522b39400f8152808501939093528281019190915246606083015230608083015260a0909120610100526001600160a01b03851661012052805163deadbeef60e01b92810192909252805160048184030181526024909201905261011b9250905061018a565b7f7bcaa2ced2a71450ed5a9a1b4848e8e5206dbc3f06011e595f7f55428cc6f84f80546001600160a81b03191660589290921c919091179055506101c8565b60006020828403121561016c57600080fd5b81516001600160a01b038116811461018357600080fd5b9392505050565b805160208201516001600160581b03198116919060158210156101c1576001600160581b0319601583900360031b81901b82161692505b5050919050565b60805160a05160c05160e051610100516101205161702d610264600039600081816102fa015281816106bf01528181610ce201528181611017015281816111e1015281816115de01528181611aac01528181611bd001528181611d940152818161257401528181612ea6015261307701526000614696015260006147500152600061472a015260006146da015260006146b7015261702d6000f3fe6080604052600436106101dc5760003560e01c80639198bdf511610102578063c3e5897811610095578063e9ae5c5311610064578063e9ae5c531461081a578063f1f7f0f91461082d578063f23a6e611461085b578063f2dc691d146108885761021b565b8063c3e589781461079a578063d03c7914146107c7578063d691c964146107e7578063e6f3d50a146108075761021b565b8063a71763a8116100d1578063a71763a8146106f9578063adb610a31461070c578063b8afe17d14610721578063bc197c811461076b5761021b565b80639198bdf5146106425780639517e29f146106555780639cfd7cff14610668578063a65d69d4146106ad5761021b565b80633c3b752b1161017a578063721e67f411610149578063721e67f4146105a557806384b0196e146105dd5780638dd7712f1461060557806390ef8862146106185761021b565b80633c3b752b146104f857806352141cd91461051857806357b3a5f41461052b5780636e6fa0c6146105855761021b565b806319822f7c116101b657806319822f7c1461048f5780631f1b92e3146104b05780633659cfe6146104c557806337bb6ef2146104d85761021b565b8063112d3a7d146103f5578063150b7a021461042a5780631626ba7e1461046f5761021b565b3661021b57604080513381523460208201527f88a5966d370b9919b20f3e2c13ff65706f196a4e32cc2c12bf57088f88525874910160405180910390a1005b60006102326000356001600160e01b0319166108a8565b604080516060808201835283546001600160a01b039081168084526001909501549081166020840152600160a01b900460f81b6001600160f81b03191692820192909252925060009161029857604051631cd4b64760e21b815260040160405180910390fd5b82516060906001600160a01b03166001148015906102c1575083516001600160a01b0390811614155b156102dc5783516102d590346000366108e2565b9050610338565b83516001600160a01b03908116900361033857336001600160a01b037f00000000000000000000000000000000000000000000000000000000000000001614610338576040516348f5c3ed60e01b815260040160405180910390fd5b6040840151610348906000610967565b156103645761035a846020015161097e565b90935091506103a9565b604084015161037b906001600160f81b0319610967565b156103905761035a84602001516000366109ce565b604051632d6a6bb760e01b815260040160405180910390fd5b826103b657815160208301fd5b83516001600160a01b03166001148015906103dc575083516001600160a01b0390811614155b156103ed5783516103ed90826109fd565b815160208301f35b34801561040157600080fd5b50610415610410366004615f4f565b610a5f565b60405190151581526020015b60405180910390f35b34801561043657600080fd5b50610456610445366004615faa565b630a85bd0160e11b95945050505050565b6040516001600160e01b03199091168152602001610421565b34801561047b57600080fd5b5061045661048a36600461601c565b610b34565b6104a261049d366004616080565b610cd5565b604051908152602001610421565b6104c36104be3660046160e1565b610ff0565b005b6104c36104d33660046160fc565b6111c7565b3480156104e457600080fd5b506104c36104f3366004616155565b6113e0565b34801561050457600080fd5b506104c36105133660046161e2565b6113f0565b6104c36105263660046162a8565b6115c4565b34801561053757600080fd5b5061054b61054636600461633e565b611959565b6040805182516001600160a01b03908116825260208085015190911690820152918101516001600160f81b03191690820152606001610421565b34801561059157600080fd5b506104156105a036600461635b565b6119c5565b3480156105b157600080fd5b506105c56105c03660046160fc565b611a0d565b60405190516001600160a01b03168152602001610421565b3480156105e957600080fd5b506105f2611a43565b60405161042197969594939291906163e2565b6104c361061336600461647a565b611aa1565b34801561062457600080fd5b5061062d611b99565b60405163ffffffff9091168152602001610421565b6104c361065036600461654f565b611bb6565b6104c3610663366004615f4f565b611d7a565b34801561067457600080fd5b5060408051808201825260168152756b65726e656c2e616476616e6365642e76302e332e3160501b6020820152905161042191906166ca565b3480156106b957600080fd5b506106e17f000000000000000000000000000000000000000000000000000000000000000081565b6040516001600160a01b039091168152602001610421565b6104c3610707366004615f4f565b61255a565b34801561071857600080fd5b5061062d612bb3565b34801561072d57600080fd5b5061074161073c3660046166dd565b612bd0565b60408051825163ffffffff1681526020928301516001600160a01b03169281019290925201610421565b34801561077757600080fd5b506104566107863660046166f8565b63bc197c8160e01b98975050505050505050565b3480156107a657600080fd5b506107ba6107b536600461633e565b612c38565b60405161042191906167ac565b3480156107d357600080fd5b506104156107e236600461682f565b612d14565b6107fa6107f536600461601c565b612e01565b6040516104219190616848565b6104c36108153660046168ad565b612e8c565b6104c361082836600461601c565b61305d565b34801561083957600080fd5b50610842613216565b6040516001600160581b03199091168152602001610421565b34801561086757600080fd5b50610456610876366004616914565b63f23a6e6160e01b9695505050505050565b34801561089457600080fd5b506104156108a336600461682f565b613229565b6001600160e01b03191660009081527f7c341349a4360fdd5d5bc07e69f325dc6aaea3eb018b3e0ea7e53cc0bb0d6f3b6020526040902090565b60405163d68f602560e01b81526060906001600160a01b0386169063d68f60259061091790339088908890889060040161699a565b6000604051808303816000875af1158015610936573d6000803e3d6000fd5b505050506040513d6000823e601f3d908101601f1916820160405261095e91908101906169f3565b95945050505050565b6001600160f81b0319828116908216145b92915050565b6000606060408051368101909152366000823760408051601481019091523360601b9052600080366014018382885af192505060405190503d8152602081013d6000823e3d810160405250915091565b604051600090828482376000388483885af491503d8152602081013d6000823e3d810160405250935093915050565b604051630b9dfbed60e11b81526001600160a01b0383169063173bf7da90610a299084906004016166ca565b600060405180830381600087803b158015610a4357600080fd5b505af1158015610a57573d6000803e3d6000fd5b505050505050565b600060018503610abc576000610a73613249565b6001016000610a888760581b600160f81b1790565b6001600160581b0319168152602081019190915260400160002054600160201b90046001600160a01b031614159050610b2c565b60028503610ae2576000610acf8561326d565b546001600160a01b031614159050610b2c565b60038503610b28576001600160a01b038416610b13610b05600460008688616a65565b610b0e91616a8f565b6108a8565b600101546001600160a01b0316149050610b2c565b5060005b949350505050565b600080610b3f613249565b90506000366000610b5087876132a6565b925092509250610b67610b608490565b6000610967565b15610b7457835460581b92505b6001600160581b031983166000908152600185016020526040902054600160201b90046001600160a01b0316610bbd57604051631a0a9b9f60e21b815260040160405180910390fd5b610bcb83600160f81b610967565b15610c65576000610bdc8460581c90565b9050806001600160a01b031663f551e2ee33610bf78c613313565b86866040518563ffffffff1660e01b8152600401610c18949392919061699a565b602060405180830381865afa158015610c35573d6000803e3d6000fd5b505050506040513d601f19601f82011682018060405250810190610c599190616ac7565b95505050505050610cce565b6000610c718460081b90565b6001600160e01b03198116600090815260038701602052604090205490915060f01b600160f11b811615610cb857604051635b71057960e01b815260040160405180910390fd5b610cc582338c8787613369565b96505050505050505b9392505050565b6000336001600160a01b037f00000000000000000000000000000000000000000000000000000000000000001614610d20576040516348f5c3ed60e01b815260040160405180910390fd5b6000610d2a613249565b90506000806000610d3e8860200135613467565b91945092509050610d50826000610967565b15610d5c5750825460581b5b610d6883828a8a613495565b6001600160581b031982166000908152600186016020908152604080832081518083019092525463ffffffff81168252600160201b90046001600160a01b031691810191909152919650610dbd908490613691565b8015610ddb57508454815163ffffffff600160c81b90920482169116105b15610df957604051633ab3447f60e11b815260040160405180910390fd5b60208101516001600160a01b038116610e2557604051631a0a9b9f60e21b815260040160405180910390fd5b600089815260208190526040902080546001600160a01b0319166001600160a01b03831690811790915560001901610eed57610e62846000613691565b8015610eca57506001600160581b031983166000908152600287016020526040812090610e9260608d018d616ae4565b610ea191600491600091616a65565b610eaa91616a8f565b6001600160e01b031916815260208101919091526040016000205460ff16155b15610ee857604051631a0a9b9f60e21b815260040160405180910390fd5b610fd3565b610ef8846000613691565b8015610f6057506001600160581b031983166000908152600287016020526040812090610f2860608d018d616ae4565b610f3791600891600491616a65565b610f4091616a8f565b6001600160e01b031916815260208101919091526040016000205460ff16155b15610f7e57604051631a0a9b9f60e21b815260040160405180910390fd5b638dd7712f60e01b610f9360608c018c616ae4565b610fa291600491600091616a65565b610fab91616a8f565b6001600160e01b03191614610fd35760405163dbbb044b60e01b815260040160405180910390fd5b8715610fe357343434348b335af1505b5050505050509392505050565b600061100a610ffd613249565b546001600160a81b031690565b9050336001600160a01b037f000000000000000000000000000000000000000000000000000000000000000016148015906110455750333014155b156111ba5760405163ecd0596160e01b81526004808201526001600160a01b0382169063ecd0596190602401602060405180830381865afa15801561108e573d6000803e3d6000fd5b505050506040513d601f19601f820116820180604052508101906110b29190616b2a565b156111a15760405163d68f602560e01b81526000906001600160a01b0383169063d68f6025906110ec90339034908690369060040161699a565b6000604051808303816000875af115801561110b573d6000803e3d6000fd5b505050506040513d6000823e601f3d908101601f1916820160405261113391908101906169f3565b905061113e836136a4565b604051630b9dfbed60e11b81526001600160a01b0383169063173bf7da9061116a9084906004016166ca565b600060405180830381600087803b15801561118457600080fd5b505af1158015611198573d6000803e3d6000fd5b50505050505050565b6040516348f5c3ed60e01b815260040160405180910390fd5b6111c3826136a4565b5050565b60006111d4610ffd613249565b9050336001600160a01b037f0000000000000000000000000000000000000000000000000000000000000000161480159061120f5750333014155b156113845760405163ecd0596160e01b81526004808201526001600160a01b0382169063ecd0596190602401602060405180830381865afa158015611258573d6000803e3d6000fd5b505050506040513d601f19601f8201168201806040525081019061127c9190616b2a565b156111a15760405163d68f602560e01b81526000906001600160a01b0383169063d68f6025906112b690339034908690369060040161699a565b6000604051808303816000875af11580156112d5573d6000803e3d6000fd5b505050506040513d6000823e601f3d908101601f191682016040526112fd91908101906169f3565b9050827f360894a13ba1a3210667c828492db98dca3e2076cc3735a920a3ca505d382bbc55826001600160a01b03167fbc7cd75a20ee27fd9adebab32041f755214dbc6bffa90cc0225b39da2e5c2d3b60405160405180910390a2604051630b9dfbed60e11b81526001600160a01b0383169063173bf7da9061116a9084906004016166ca565b7f360894a13ba1a3210667c828492db98dca3e2076cc3735a920a3ca505d382bbc8290556040516001600160a01b038316907fbc7cd75a20ee27fd9adebab32041f755214dbc6bffa90cc0225b39da2e5c2d3b90600090a25050565b6113eb838383613786565b505050565b60006113fa613249565b805490915060581b6001600160581b031916156114545760405162461bcd60e51b8152602060048201526013602482015272185b1c9958591e481a5b9a5d1a585b1a5e9959606a1b60448201526064015b60405180910390fd5b6001600160581b0319891661147c57604051631a0a9b9f60e21b815260040160405180910390fd5b8861148b81600160f81b613691565b80156114a057506114a081600160f91b613691565b156114be576040516361c4e91b60e11b815260040160405180910390fd5b6114c78a613819565b60408051808201909152600181526001600160a01b038a166020820152825463ffffffff60a81b1916600160a81b1783556115068b828b8b8b8b61387b565b60005b848110156115b65760003087878481811061152657611526616b47565b90506020028101906115389190616ae4565b604051611546929190616b5d565b6000604051808303816000865af19150503d8060008114611583576040519150601f19603f3d011682016040523d82523d6000602084013e611588565b606091505b50509050806115ad57604051636534eae560e11b81526004810183905260240161144b565b50600101611509565b505050505050505050505050565b60006115d1610ffd613249565b9050336001600160a01b037f0000000000000000000000000000000000000000000000000000000000000000161480159061160c5750333014155b156118585760405163ecd0596160e01b81526004808201526001600160a01b0382169063ecd0596190602401602060405180830381865afa158015611655573d6000803e3d6000fd5b505050506040513d601f19601f820116820180604052508101906116799190616b2a565b156111a15760405163d68f602560e01b81526000906001600160a01b0383169063d68f6025906116b390339034908690369060040161699a565b6000604051808303816000875af11580156116d2573d6000803e3d6000fd5b505050506040513d6000823e601f3d908101601f191682016040526116fa91908101906169f3565b90506000611706613249565b90506001600160581b0319891661173057604051631a0a9b9f60e21b815260040160405180910390fd5b8861173f81600160f81b613691565b8015611754575061175481600160f91b613691565b15611772576040516361c4e91b60e11b815260040160405180910390fd5b61177b8a613819565b6000611785613249565b6001600160581b03198c1660009081526001919091016020526040902054600160201b90046001600160a01b0316036117f257604080518082019091528254600160a81b900463ffffffff1681526001600160a01b038a1660208201526117f08b828b8b8b8b61387b565b505b5050604051630b9dfbed60e11b81526001600160a01b0383169063173bf7da906118209084906004016166ca565b600060405180830381600087803b15801561183a57600080fd5b505af115801561184e573d6000803e3d6000fd5b5050505050611198565b6000611862613249565b90506001600160581b0319881661188c57604051631a0a9b9f60e21b815260040160405180910390fd5b8761189b81600160f81b613691565b80156118b057506118b081600160f91b613691565b156118ce576040516361c4e91b60e11b815260040160405180910390fd5b6118d789613819565b60006118e1613249565b6001600160581b03198b1660009081526001919091016020526040902054600160201b90046001600160a01b03160361194e57604080518082019091528254600160a81b900463ffffffff1681526001600160a01b038916602082015261194c8a828a8a8a8a61387b565b505b505050505050505050565b604080516060810182526000808252602082018190529181019190915261197f826108a8565b6040805160608101825282546001600160a01b0390811682526001909301549283166020820152600160a01b90920460f81b6001600160f81b0319169082015292915050565b60006119cf613249565b6001600160581b031984166000908152600291909101602090815260408083206001600160e01b03198616845290915290205460ff16905092915050565b604080516020810190915260008152611a258261326d565b604080516020810190915290546001600160a01b0316815292915050565b600f60f81b6060806000808083611a8f604080518082018252600681526512d95c9b995b60d21b60208083019190915282518084019093526005835264302e332e3160d81b9083015291565b97989097965046955030945091925090565b336001600160a01b037f00000000000000000000000000000000000000000000000000000000000000001614611aea576040516348f5c3ed60e01b815260040160405180910390fd5b6000818152602081905260409020546060906001600160a01b031660018114611b3557611b328134611b1f6060880188616ae4565b611b2d916004908290616a65565b6108e2565b91505b600080611b5c30611b496060890189616ae4565b611b57916004908290616a65565b6109ce565b9150915081611b7e5760405163f21e646b60e01b815260040160405180910390fd5b6001600160a01b038316600114610a5757610a5783856109fd565b6000611ba3613249565b54600160c81b900463ffffffff16919050565b6000611bc3610ffd613249565b9050336001600160a01b037f00000000000000000000000000000000000000000000000000000000000000001614801590611bfe5750333014155b15611d615760405163ecd0596160e01b81526004808201526001600160a01b0382169063ecd0596190602401602060405180830381865afa158015611c47573d6000803e3d6000fd5b505050506040513d601f19601f82011682018060405250810190611c6b9190616b2a565b156111a15760405163d68f602560e01b81526000906001600160a01b0383169063d68f602590611ca590339034908690369060040161699a565b6000604051808303816000875af1158015611cc4573d6000803e3d6000fd5b505050506040513d6000823e601f3d908101601f19168201604052611cec91908101906169f3565b9050611cfd89898989898989613aca565b604051630b9dfbed60e11b81526001600160a01b0383169063173bf7da90611d299084906004016166ca565b600060405180830381600087803b158015611d4357600080fd5b505af1158015611d57573d6000803e3d6000fd5b5050505050611d70565b611d7088888888888888613aca565b5050505050505050565b6000611d87610ffd613249565b9050336001600160a01b037f00000000000000000000000000000000000000000000000000000000000000001614801590611dc25750333014155b156122615760405163ecd0596160e01b81526004808201526001600160a01b0382169063ecd0596190602401602060405180830381865afa158015611e0b573d6000803e3d6000fd5b505050506040513d601f19601f82011682018060405250810190611e2f9190616b2a565b156111a15760405163d68f602560e01b81526000906001600160a01b0383169063d68f602590611e6990339034908690369060040161699a565b6000604051808303816000875af1158015611e88573d6000803e3d6000fd5b505050506040513d6000823e601f3d908101601f19168201604052611eb091908101906169f3565b905060018603611fed576000611ec4613249565b90506000611ed88760581b600160f81b1790565b82546001600160581b03198216600090815260018501602052604090205491925063ffffffff600160a81b9091048116911603611f38578154600163ffffffff600160a81b808404821692909201160263ffffffff60a81b199091161782555b604080518082019091528254600160a81b900463ffffffff16815260009060208101611f676014848a8c616a65565b611f7091616b6d565b60601c9052905060148781013588016034818101929182013591818b01358b0180830192908201359160548d01358d01918201910135611fb488888888888861387b565b6004819003611fdf57611fdf88611fcf600460008587616a65565b611fd891616a8f565b6001613786565b5050505050505050506121fd565b600286036120545760148481013585016034818101929182013591818801358801918201918101359060009061202590828a8c616a65565b61202e91616b6d565b60601c905061203f8a868684613b6e565b61204a818484613bd4565b50505050506121fd565b600386036120e457601884810135850160388181019291820135918188013588019182019101356120b761208c600460008a8c616a65565b61209591616a8f565b8a6120a4601860048c8e616a65565b6120ad91616b6d565b60601c8787613da5565b6120db6120c8601860048a8c616a65565b6120d191616b6d565b60601c8383613bd4565b505050506121fd565b60048603612178576040516306d61fe760e41b81526001600160a01b03861690636d61fe709061211a9087908790600401616bad565b600060405180830381600087803b15801561213457600080fd5b505af1158015612148573d6000803e3d6000fd5b50505050600080516020616fed833981519152868660405161216b929190616bc1565b60405180910390a16121fd565b600586036121ae576040516306d61fe760e41b81526001600160a01b03861690636d61fe709061211a9087908790600401616bad565b600686036121e4576040516306d61fe760e41b81526001600160a01b03861690636d61fe709061211a9087908790600401616bad565b604051631092ef5760e11b815260040160405180910390fd5b604051630b9dfbed60e11b81526001600160a01b0383169063173bf7da906122299084906004016166ca565b600060405180830381600087803b15801561224357600080fd5b505af1158015612257573d6000803e3d6000fd5b5050505050612553565b6001850361238c576000612273613249565b905060006122878660581b600160f81b1790565b82546001600160581b03198216600090815260018501602052604090205491925063ffffffff600160a81b90910481169116036122e7578154600163ffffffff600160a81b808404821692909201160263ffffffff60a81b199091161782555b604080518082019091528254600160a81b900463ffffffff16815260009060208101612316601484898b616a65565b61231f91616b6d565b60601c9052905060148681013587016034818101929182013591818a01358a0180830192908201359160548c01358c0191820191013561236388888888888861387b565b600481900361237e5761237e88611fcf600460008587616a65565b505050505050505050612553565b600285036123e9576014838101358401603481810192918201359181870135870191820191810135906000906123c49082898b616a65565b6123cd91616b6d565b60601c90506123de89868684613b6e565b612257818484613bd4565b60038503612453576018838101358401603881810192918201359181870135870191820191013561243961242160046000898b616a65565b61242a91616a8f565b896120a4601860048b8d616a65565b61244a6120c860186004898b616a65565b50505050612553565b600485036124e7576040516306d61fe760e41b81526001600160a01b03851690636d61fe70906124899086908690600401616bad565b600060405180830381600087803b1580156124a357600080fd5b505af11580156124b7573d6000803e3d6000fd5b50505050600080516020616fed83398151915285856040516124da929190616bc1565b60405180910390a1612553565b6005850361251d576040516306d61fe760e41b81526001600160a01b03851690636d61fe70906124899086908690600401616bad565b600685036121e4576040516306d61fe760e41b81526001600160a01b03851690636d61fe70906124899086908690600401616bad565b5050505050565b6000612567610ffd613249565b9050336001600160a01b037f000000000000000000000000000000000000000000000000000000000000000016148015906125a25750333014155b156129285760405163ecd0596160e01b81526004808201526001600160a01b0382169063ecd0596190602401602060405180830381865afa1580156125eb573d6000803e3d6000fd5b505050506040513d601f19601f8201168201806040525081019061260f9190616b2a565b156111a15760405163d68f602560e01b81526000906001600160a01b0383169063d68f60259061264990339034908690369060040161699a565b6000604051808303816000875af1158015612668573d6000803e3d6000fd5b505050506040513d6000823e601f3d908101601f1916820160405261269091908101906169f3565b9050856001036126c05760006126ac8660581b600160f81b1790565b90506126b9818686613f16565b50506121fd565b856002036126d9576126d385858561405a565b506121fd565b856003036127115760006126f06004828688616a65565b6126f991616a8f565b90506126b98161270c866004818a616a65565b6140f6565b8560040361282e576000612723613249565b5460581b90506001600160a01b03861661273b613249565b6001600160581b0319831660009081526001919091016020526040902054600160201b90046001600160a01b0316036127c0576001612778613249565b6001600160581b0319831660009081526001919091016020526040902080546001600160a01b0392909216600160201b02640100000000600160c01b03199092169190911790555b6128008686868080601f0160208091040260200160405190810160405280939291908181526020018383808284376000920191909152506141dc92505050565b5060008051602061700d8339815191528787604051612820929190616bc1565b60405180910390a1506121fd565b85600503612916576000612840613249565b5460581b905060006128556020828789616a65565b61285e91616bd8565b905061286f825b600160f91b610967565b156128a75761287e8260081b90565b6001600160e01b03191681036128a7576040516313002bdd60e31b815260040160405180910390fd5b6128e78787878080601f0160208091040260200160405190810160405280939291908181526020018383808284376000920191909152506141dc92505050565b5060008051602061700d8339815191528888604051612907929190616bc1565b60405180910390a150506121fd565b856006036121e4576000612840613249565b846001036129565760006129428560581b600160f81b1790565b905061294f818585613f16565b5050612553565b8460020361296f5761296984848461405a565b50612553565b846003036129a25760006129866004828587616a65565b61298f91616a8f565b905061294f8161270c8560048189616a65565b84600403612abf5760006129b4613249565b5460581b90506001600160a01b0385166129cc613249565b6001600160581b0319831660009081526001919091016020526040902054600160201b90046001600160a01b031603612a51576001612a09613249565b6001600160581b0319831660009081526001919091016020526040902080546001600160a01b0392909216600160201b02640100000000600160c01b03199092169190911790555b612a918585858080601f0160208091040260200160405190810160405280939291908181526020018383808284376000920191909152506141dc92505050565b5060008051602061700d8339815191528686604051612ab1929190616bc1565b60405180910390a150612553565b84600503612ba1576000612ad1613249565b5460581b90506000612ae66020828688616a65565b612aef91616bd8565b9050612afa82612865565b15612b3257612b098260081b90565b6001600160e01b0319168103612b32576040516313002bdd60e31b815260040160405180910390fd5b612b728686868080601f0160208091040260200160405190810160405280939291908181526020018383808284376000920191909152506141dc92505050565b5060008051602061700d8339815191528787604051612b92929190616bc1565b60405180910390a15050612553565b846006036121e4576000612ad1613249565b6000612bbd613249565b54600160a81b900463ffffffff16919050565b6040805180820190915260008082526020820152612bec613249565b6001600160581b03199290921660009081526001909201602090815260409283902083518085019094525463ffffffff81168452600160201b90046001600160a01b0316908301525090565b60408051606080820183526000808352602083015291810191909152612c5c613249565b6001600160e01b03198316600090815260039190910160209081526040918290208251606081018452815460f081901b6001600160f01b03191682526201000090046001600160a01b03168184015260018201805485518186028101860187528181529295939493860193830182828015612d0457602002820191906000526020600020905b815460501b6001600160501b0319168152600190910190602001808311612ce2575b5050505050815250509050919050565b600081600881901b603082901b605083901b612d3484600160f81b613691565b8015612d465750612d46846000613691565b8015612d5f5750612d5f846001600160f81b0319613691565b8015612d745750612d7484607f60f91b613691565b15612d855750600095945050505050565b6001600160f81b03198316600160f81b14801590612dac57506001600160f81b0319831615155b15612dbd5750600095945050505050565b6001600160e01b0319821615612dd95750600095945050505050565b6001600160501b0319811615612df55750600095945050505050565b50600195945050505050565b60606000612e0e3361326d565b546001600160a01b0316905080612e385760405163710c949760e01b815260040160405180910390fd5b60606001600160a01b038216600114612e5b57612e5882346000366108e2565b90505b612e66868686614283565b92506001600160a01b038216600114612e8357612e8382826109fd565b50509392505050565b6000612e99610ffd613249565b9050336001600160a01b037f00000000000000000000000000000000000000000000000000000000000000001614801590612ed45750333014155b156130435760405163ecd0596160e01b81526004808201526001600160a01b0382169063ecd0596190602401602060405180830381865afa158015612f1d573d6000803e3d6000fd5b505050506040513d601f19601f82011682018060405250810190612f419190616b2a565b156111a15760405163d68f602560e01b81526000906001600160a01b0383169063d68f602590612f7b90339034908690369060040161699a565b6000604051808303816000875af1158015612f9a573d6000803e3d6000fd5b505050506040513d6000823e601f3d908101601f19168201604052612fc291908101906169f3565b90506000612fd1888888613f16565b9050612fde8186866145cb565b50604051630b9dfbed60e11b81526001600160a01b0383169063173bf7da9061300b9084906004016166ca565b600060405180830381600087803b15801561302557600080fd5b505af1158015613039573d6000803e3d6000fd5b5050505050610a57565b6000613050878787613f16565b90506111988185856145cb565b600061306a610ffd613249565b9050336001600160a01b037f000000000000000000000000000000000000000000000000000000000000000016148015906130a55750333014155b156132055760405163ecd0596160e01b81526004808201526001600160a01b0382169063ecd0596190602401602060405180830381865afa1580156130ee573d6000803e3d6000fd5b505050506040513d601f19601f820116820180604052508101906131129190616b2a565b156111a15760405163d68f602560e01b81526000906001600160a01b0383169063d68f60259061314c90339034908690369060040161699a565b6000604051808303816000875af115801561316b573d6000803e3d6000fd5b505050506040513d6000823e601f3d908101601f1916820160405261319391908101906169f3565b90506131a0858585614283565b50604051630b9dfbed60e11b81526001600160a01b0383169063173bf7da906131cd9084906004016166ca565b600060405180830381600087803b1580156131e757600080fd5b505af11580156131fb573d6000803e3d6000fd5b5050505050613210565b612553848484614283565b50505050565b6000613220613249565b5460581b919050565b6000600782101561323c57506001919050565b506000919050565b919050565b7f7bcaa2ced2a71450ed5a9a1b4848e8e5206dbc3f06011e595f7f55428cc6f84f90565b6001600160a01b031660009081527f1bbee3173dbdc223633258c9f337a0fff8115f206d302bea0ed3eac003b68b866020526040902090565b813536600060f883901c80156132cb57600181146132e057600281146132f157600080fd5b6000935060018601925060018503915061330b565b60158601925060158503915061330b565b6001600160d81b0319841693506005860192506005850391505b509250925092565b604080517f1547321c374afde8a591d972a084b071c594c275e36724931ff96c25f2999c836020820152908101829052600090610978906060015b60405160208183030381529060405280519060200120614694565b600080600036600061337e8a8a8a8a8a6147ac565b9350935093509350600080613392856148b8565b50915091508165ffffffffffff164210806133b457508065ffffffffffff1642115b156133d057506001600160e01b0319955061095e945050505050565b6001600160a01b03861663392dffaf6001600160e01b03198e168d6133f48e613313565b88886040518663ffffffff1660e01b8152600401613416959493929190616bf6565b602060405180830381865afa158015613433573d6000803e3d6000fd5b505050506040513d601f19601f820116820180604052508101906134579190616ac7565b9c9b505050505050505050505050565b80600881901b8060ff60f084901c16600119810161348d576001600160d81b0319821691505b509193909250565b6000806134a0613249565b905060006134ad85616c80565b90503660006134c0610100880188616ae4565b90925090506134d389600160f81b610967565b15613531576134ef886134ea6101008a018a616ae4565b6148eb565b604080516020601f8401819004810282018101909252828152939850919450925083908390819084018382808284376000920191909152505050506101008401525b8761354081600160f81b610967565b156135cf576135c8866135538b60581c90565b6001600160a01b03166397003203878b6040518363ffffffff1660e01b8152600401613580929190616e23565b6020604051808303816000875af115801561359f573d6000803e3d6000fd5b505050506040513d601f19601f820116820180604052508101906135c39190616e45565b614918565b9550613684565b60006135db8a60081b90565b6001600160e01b03198116600090815260038801602052604090205490915060f01b600160f01b1615613621576040516314b9743f60e01b815260040160405180910390fd5b600080613630838888886149d6565b9150915061363e8983614918565b985061367e89826001600160a01b0316630ccab7a1866001600160e01b0319168b8f6040518463ffffffff1660e01b815260040161358093929190616e5e565b98505050505b5050505050949350505050565b6001600160f81b03199081169116141590565b60006136ae613249565b805490915063ffffffff808416916136d091600a91600160a81b900416616e87565b63ffffffff1610156136f55760405163e60fd64760e01b815260040160405180910390fd5b805463ffffffff600160c81b90910481169083161161372757604051633ab3447f60e11b815260040160405180910390fd5b805463ffffffff60c81b1916600160c81b63ffffffff8481168202929092178084559081048216600160a81b90910490911610156111c357805463ffffffff60a81b198116600160c81b90910463ffffffff16600160a81b0217905550565b6000613790613249565b6001600160581b03198516600081815260028301602090815260408083206001600160e01b0319891680855290835292819020805488151560ff1990911681179091558151938452918301939093528183015290519192507f9d17cd6d095ac90a655405ab29f30a7ee7e88ef3974c1bf7544bf591043bb71a919081900360600190a150505050565b6000613823613249565b80546001600160a81b031916605884901c1781556040516001600160581b0319841681529091507f6789ec0c85d6458d897a36a70129b101f8b4d84c6e218046c3107373dbcbae889060200160405180910390a15050565b6000613885613249565b80546001600160581b03198916600090815260018301602052604090205491925063ffffffff600160a81b90910481169116036138e5578054600163ffffffff600160a81b808404821692909201160263ffffffff60a81b199091161781555b60208601516001600160a01b03166138ff57600160208701525b85518154600160a81b900463ffffffff9081169116141580613947575085516001600160581b03198816600090815260018301602052604090205463ffffffff918216911610155b1561396557604051633ab3447f60e11b815260040160405180910390fd5b6001600160581b03198716600090815260018083016020908152604090922088518154938a01516001600160a01b0316600160201b81026001600160c01b031990951663ffffffff90921691909117939093179055146139ce576139ce86602001518484613bd4565b866139dd81600160f81b610967565b15613a7f5760006139ee8960581c90565b6040516306d61fe760e41b81529091506001600160a01b03821690636d61fe7090613a1f908a908a90600401616bad565b600060405180830381600087803b158015613a3957600080fd5b505af1158015613a4d573d6000803e3d6000fd5b50505050600080516020616fed833981519152600182604051613a71929190616bc1565b60405180910390a150611d70565b613a8d81600160f91b610967565b15613ab1576000613a9e8960081b90565b9050613aab818888614cb6565b50611d70565b6040516361c4e91b60e11b815260040160405180910390fd5b60005b86811015611d7057613b66888883818110613aea57613aea616b47565b9050602002016020810190613aff91906166dd565b878381518110613b1157613b11616b47565b6020026020010151878785818110613b2b57613b2b616b47565b9050602002810190613b3d9190616ae4565b878787818110613b4f57613b4f616b47565b9050602002810190613b619190616ae4565b61387b565b600101613acd565b613b78848261510f565b6040516306d61fe760e41b81526001600160a01b03851690636d61fe7090613ba69086908690600401616bad565b600060405180830381600087803b158015613bc057600080fd5b505af1158015611d70573d6000803e3d6000fd5b6001600160a01b0383161580613bf357506001600160a01b0383166001145b15613bfd57505050565b60405163d60b347f60e01b81523060048201526001600160a01b0384169063d60b347f90602401602060405180830381865afa158015613c41573d6000803e3d6000fd5b505050506040513d601f19601f82011682018060405250810190613c659190616b2a565b613cd9576001600160a01b038316636d61fe70613c858360018187616a65565b6040518363ffffffff1660e01b8152600401613ca2929190616bad565b600060405180830381600087803b158015613cbc57600080fd5b505af1158015613cd0573d6000803e3d6000fd5b50505050613d78565b6001600160f81b03198282600081613cf357613cf3616b47565b9050013560f81c60f81b6001600160f81b03191603613d78576001600160a01b038316636d61fe70613d288360018187616a65565b6040518363ffffffff1660e01b8152600401613d45929190616bad565b600060405180830381600087803b158015613d5f57600080fd5b505af1158015613d73573d6000803e3d6000fd5b505050505b600080516020616fed833981519152600484604051613d98929190616bc1565b60405180910390a1505050565b6001600160a01b038316613dbe576001600160a01b0392505b6000613dc9866108a8565b9050600083836000818110613de057613de0616b47565b9050013560f81c60f81b9050613dfa81600060f81b610967565b15613e97576001600160a01b038616636d61fe70613e1b8560018189616a65565b6040518363ffffffff1660e01b8152600401613e38929190616bad565b600060405180830381600087803b158015613e5257600080fd5b505af1158015613e66573d6000803e3d6000fd5b50505050600080516020616fed833981519152600387604051613e8a929190616bc1565b60405180910390a1613ec7565b613ea9816001600160f81b0319613691565b15613ec757604051632d6a6bb760e01b815260040160405180910390fd5b81546001600160a01b039586166001600160a01b03199091161782556001909101805460f89290921c600160a01b026001600160a81b0319909216959094169490941793909317909155505050565b600080613f21613249565b805490915060581b6001600160581b031990811690861603613f56576040516313002bdd60e31b815260040160405180910390fd5b6001600160581b03198516600090815260018201602052604090208054640100000000600160c01b03198116909155600160201b90046001600160a01b0316915084613fa681600160f81b610967565b15614028576000613fb78760581c90565b9050613ff98187878080601f0160208091040260200160405190810160405280939291908181526020018383808284376000920191909152506141dc92505050565b5060008051602061700d83398151915260018260405161401a929190616bc1565b60405180910390a150612e83565b61403681600160f91b610967565b15613ab15760006140478760081b90565b9050614054818787615169565b50612e83565b6000806140668561326d565b80546001600160a01b031981168255604080516020601f88018190048102820181019092528681526001600160a01b0390921694509192506140c59187919087908790819084018382808284376000920191909152506141dc92505050565b5060008051602061700d8339815191526002866040516140e6929190616bc1565b60405180910390a1509392505050565b600080614102856108a8565b80546001600160a01b03198116825560018201546001600160a01b03909116935090915061413b90600160a01b900460f81b6000610967565b156141c4576001810154604080516020601f870181900481028201810190925285815261418c926001600160a01b03169187908790819084018382808284376000920191909152506141dc92505050565b50600181015460405160008051602061700d833981519152916141bb916003916001600160a01b031690616bc1565b60405180910390a15b60010180546001600160a81b03191690559392505050565b6000614236835a600080638a91b0e360e01b876040516024016141ff91906166ca565b60408051601f198184030181529190526020810180516001600160e01b03166001600160e01b031990931692909217909152615333565b50604080516001600160a01b038616815282151560208201529192507f2b82f87bf66300af618a9621d3f221edfab735f5bacb4e004cce1b62375396c3910160405180910390a192915050565b606083600881901b61429982600160f81b610967565b1561432357843585016020810190356142b3836000610967565b156142c9576142c282826153bd565b945061431c565b6142d783600160f81b610967565b156142e6576142c2828261548d565b60405162461bcd60e51b815260206004820152600b60248201526a155b9cdd5c1c1bdc9d195960aa1b604482015260640161144b565b5050612e83565b61432e826000610967565b1561445c5760008036600061434389896155ba565b6040805160018082528183019092529498509296509094509250816020015b606081526020019060019003908161436257905050965060006143858682610967565b156143b9576143968585858561560b565b886000815181106143a9576143a9616b47565b6020026020010181905250614452565b6143c786600160f81b610967565b156142e6576143d885858585615641565b896000815181106143eb576143eb616b47565b6020908102919091010152905080614452577fe723f28f104e46b47fd3531f3608374ac226bcf3ddda334a23a266453e0efdb760008960008151811061443357614433616b47565b6020026020010151604051614449929190616eb1565b60405180910390a15b5050505050612e83565b61446e826001600160f81b0319610967565b156142e65760408051600180825281830190925290816020015b606081526020019060019003908161448857905050925060006144ae6014828789616a65565b6144b791616b6d565b60601c90503660006144cc876014818b616a65565b9150915060006144dd8484846109ce565b886000815181106144f0576144f0616b47565b6020908102919091010152905061450b85600160f81b610967565b1561456f578061456a577fe723f28f104e46b47fd3531f3608374ac226bcf3ddda334a23a266453e0efdb760008860008151811061454b5761454b616b47565b6020026020010151604051614561929190616eb1565b60405180910390a15b6145c2565b61457a856000610967565b156142e6578061456a5760405162461bcd60e51b815260206004820152601360248201527211195b1959d85d1958d85b1b0819985a5b1959606a1b604482015260640161144b565b50505050612e83565b6001600160a01b03831615806145ea57506001600160a01b0383166001145b156145f457505050565b6001600160f81b0319828260008161460e5761460e616b47565b9050013560f81c60f81b6001600160f81b0319160361467457614672836146388360018187616a65565b8080601f0160208091040260200160405190810160405280939291908181526020018383808284376000920191909152506141dc92505050565b505b60008051602061700d833981519152600484604051613d98929190616bc1565b7f00000000000000000000000000000000000000000000000000000000000000007f000000000000000000000000000000000000000000000000000000000000000030147f00000000000000000000000000000000000000000000000000000000000000004614166147875750604080517f8b73c3c69bb8fe3d512ecc4cf759cc79239f7b179b0ffacaa9a75d522b39400f81527f000000000000000000000000000000000000000000000000000000000000000060208201527f00000000000000000000000000000000000000000000000000000000000000009181019190915246606082015230608082015260a090205b67190100000000000060005280601a5281603a52604260182090506000603a52919050565b600080366000806147bb613249565b60408051610120810182526000808252602082018190529181018290526080810182905260a0810191909152606060c082018190526001600160e01b03198d16908201526001600160a01b038b1660e082015261010081018a905290915061482581838a8a615672565b8787600081811061483857614838616b47565b9091013560f81c60ff1490506148615760405163b32eeb6960e01b815260040160405180910390fd5b61486e876001818b616a65565b60608301516001600160e01b0319166000908152600394909401602052604093849020549390920151620100009093046001600160a01b03169c929b509950975095505050505050565b600060a082901c65ffffffffffff1682811560001981016148dd5765ffffffffffff92505b508360d01c92509193909250565b60003660006148fb8686866158df565b925050506094830135830160348101906014013593509350939050565b600081830160601b8260601b81148460601b8214176001600160a01b038486181615176001811461494c57600192506149ce565b6001600160d01b031980851690861681811881831102188686176001600160a01b031617935065ffffffffffff60a01b861690816149915765ffffffffffff60a01b91505b5065ffffffffffff60a01b8516806149af575065ffffffffffff60a01b5b8082189082110218806149c8575065ffffffffffff60a01b5b92909217915b505092915050565b60008060006149e3613249565b6001600160e01b03198816600090815260038201602052604081209192506001909101905b8154811015614bfa57600080614a41848481548110614a2957614a29616b47565b60009182526020909120015460501b90605082901c90565b91509150600089896000818110614a5a57614a5a616b47565b919091013560f81c915050838103614aed576000614a7c600960018c8e616a65565b614a8591616eca565b60c01c9050614a9a6009808301908c8e616a65565b8080601f0160208091040260200160405190810160405280939291908181526020018383808284376000920191909152505050506101008d0152614ae38a60098301818e616a65565b9a509a5050614b27565b838160ff161015614b1157604051630760bdcf60e11b815260040160405180910390fd5b6040805160208101909152600081526101008c01525b600160f01b8316600003614bef576000826001600160a01b0316637129edce8e6001600160e01b0319168e6040518363ffffffff1660e01b8152600401614b6f929190616f00565b6020604051808303816000875af1158015614b8e573d6000803e3d6000fd5b505050506040513d601f19601f82011682018060405250810190614bb29190616e45565b9050806001600160a01b03811615614be057604051631f24c1fb60e11b81526004810187905260240161144b565b614bea8a83614918565b995050505b505050600101614a08565b5085856000818110614c0e57614c0e616b47565b9091013560f81c60ff149050614c375760405163b32eeb6960e01b815260040160405180910390fd5b614c448560018189616a65565b8080601f01602080910402602001604051908101604052809392919081815260200183838082843760009201829052506101008c01949094525050506001600160e01b03198916815260039092016020525060409020546001600160a01b036201000090910416905094509492505050565b6000614cc0613249565b90508235830160208101903560fe811180614cd9575080155b15614cf75760405163b62d956d60e01b815260040160405180910390fd5b6001600160e01b03198616600090815260038401602052604090206001015415614d45576001600160e01b0319861660009081526003840160205260408120614d4591600190910190615ead565b60005b6000198201811015614f39576001600160e01b0319871660009081526003850160205260409020600101838383818110614d8457614d84616b47565b9050602002810190614d969190616ae4565b614da591601691600091616a65565b614dae91616f19565b81546001810183556000928352602090922090910180546001600160b01b03191660509290921c919091179055828282818110614ded57614ded616b47565b9050602002810190614dff9190616ae4565b614e0e91601691600291616a65565b614e1791616b6d565b60601c636d61fe706001600160e01b03198916858585818110614e3c57614e3c616b47565b9050602002810190614e4e9190616ae4565b614e5c916016908290616a65565b604051602001614e6e93929190616f4f565b6040516020818303038152906040526040518263ffffffff1660e01b8152600401614e9991906166ca565b600060405180830381600087803b158015614eb357600080fd5b505af1158015614ec7573d6000803e3d6000fd5b50505050600080516020616fed8339815191526005848484818110614eee57614eee616b47565b9050602002810190614f009190616ae4565b614f0f91601691600291616a65565b614f1891616b6d565b60601c604051614f29929190616bc1565b60405180910390a1600101614d48565b50600082826000198101818110614f5257614f52616b47565b9050602002810190614f649190616ae4565b614f7391601691600291616a65565b614f7c91616b6d565b6001600160e01b031988166000908152600386016020526040902080546201000060609390931c92830262010000600160b01b0319909116179055905082826000198101818110614fcf57614fcf616b47565b9050602002810190614fe19190616ae4565b614ff091600291600091616a65565b614ff991616f69565b6001600160e01b0319881660008181526003870160205260409020805461ffff191660f09390931c929092179091556001600160a01b03821690636d61fe70908585600019810181811061504f5761504f616b47565b90506020028101906150619190616ae4565b61506f916016908290616a65565b60405160200161508193929190616f4f565b6040516020818303038152906040526040518263ffffffff1660e01b81526004016150ac91906166ca565b600060405180830381600087803b1580156150c657600080fd5b505af11580156150da573d6000803e3d6000fd5b50505050600080516020616fed8339815191526006826040516150fe929190616bc1565b60405180910390a150505050505050565b6001600160a01b038116615121575060015b600061512c8361326d565b80546001600160a01b0319166001600160a01b038416178155604051909150600080516020616fed83398151915290613d98906002908690616bc1565b81358201602081019035600061517d613249565b6001600160e01b031987166000908152600391909101602052604090206001808201549192500182146151c35760405163013dcc8d60e31b815260040160405180910390fd5b6001810160005b81548110156152785760006151ea838381548110614a2957614a29616b47565b915050615246818a6001600160e01b03191688888681811061520e5761520e616b47565b90506020028101906152209190616ae4565b60405160200161523293929190616f4f565b6040516020818303038152906040526141dc565b5060008051602061700d833981519152600582604051615267929190616bc1565b60405180910390a1506001016151ca565b50615281613249565b6001600160e01b031988166000908152600391909101602052604081206152ad91600190910190615ead565b81546152e3906201000090046001600160a01b03166001600160e01b031989168686600019810181811061520e5761520e616b47565b50815460405160008051602061700d83398151915291615315916006916201000090046001600160a01b031690616bc1565b60405180910390a15080546001600160b01b03191690555050505050565b6000606060008060008661ffff166001600160401b03811115615358576153586164be565b6040519080825280601f01601f191660200182016040528015615382576020820181803683370190505b5090506000808751602089018b8e8ef191503d9250868311156153a3578692505b828152826000602083013e90999098509650505050505050565b606081806001600160401b038111156153d8576153d86164be565b60405190808252806020026020018201604052801561540b57816020015b60608152602001906001900390816153f65790505b50915060005b818110156149ce573685858381811061542c5761542c616b47565b905060200281019061543e9190616f9f565b905061546761545060208301836160fc565b60208301356154626040850185616ae4565b61560b565b84838151811061547957615479616b47565b602090810291909101015250600101615411565b606081806001600160401b038111156154a8576154a86164be565b6040519080825280602002602001820160405280156154db57816020015b60608152602001906001900390816154c65790505b50915060005b818110156149ce57368585838181106154fc576154fc616b47565b905060200281019061550e9190616f9f565b9050600061553961552260208401846160fc565b60208401356155346040860186616ae4565b615641565b86858151811061554b5761554b616b47565b60209081029190910101529050806155b0577fe723f28f104e46b47fd3531f3608374ac226bcf3ddda334a23a266453e0efdb78386858151811061559157615591616b47565b60200260200101516040516155a7929190616eb1565b60405180910390a15b50506001016154e1565b60008036816155cc6014828789616a65565b6155d591616b6d565b60601c93506155e8603460148789616a65565b6155f191616bd8565b92506156008560348189616a65565b949793965094505050565b60405181838237600038838387895af1615628573d6000823e3d81fd5b3d8152602081013d6000823e3d01604052949350505050565b604051600090828482376000388483888a5af191503d8152602081013d6000823e3d81016040525094509492505050565b60608401516001600160e01b03191660009081526003840160205260408120600101905b8154811015610a57576156b4828281548110614a2957614a29616b47565b6001600160a01b031660a08801526001600160f01b031916608087015283836000816156e2576156e2616b47565b919091013560f81c808852829003905061577f57615704600960018587616a65565b61570d91616eca565b60c01c60208701819052615728906009908101908587616a65565b8080601f01602080910402602001604051908101604052809392919081815260200183838082843760009201919091525050505060c087015260208601516157769084906009018187616a65565b935093506157eb565b855160ff168111156157a457604051630760bdcf60e11b815260040160405180910390fd5b6157b16000808587616a65565b8080601f01602080910402602001604051908101604052809392919081815260200183838082843760009201919091525050505060c08701525b6080860151600160f11b166000036158d75760a0860151606087015160e088015161010089015160c08a015160405163184dfdbb60e11b81526000956001600160a01b03169463309bfb7694615852946001600160e01b0319909216939092600401616fbf565b602060405180830381865afa15801561586f573d6000803e3d6000fd5b505050506040513d601f19601f820116820180604052508101906158939190616e45565b9050806001600160a01b038116156158c157604051631f24c1fb60e11b81526004810184905260240161144b565b6158cf886040015183614918565b604089015250505b600101615696565b600036600080366000366000366000806158fa8e8e8e615965565b9750975097509750975097509750975060748d013560348e0101995060208a03359850615928818b8b615b1a565b9a506159388e898989898961387b565b6159428383615cba565b6159548e611fcf600460008688616a65565b505050505050505050509392505050565b604080518082019091526000808252602082015236600036600036600080600061598d613249565b905061599d601460008c8e616a65565b6159a691616b6d565b60601c89602001906001600160a01b031690816001600160a01b0316815250508060000160159054906101000a900463ffffffff16896000019063ffffffff16908163ffffffff168152505060148b013560348c010197506020880335965060348b013560348c010195506020860335945060548b013560348c0101935060208403359250615b0a7fb17ab1224aca0d4255ef8161acaf2ac121b8faa32a4b2258c912cc5f8308c50560001b8d8360000160159054906101000a900463ffffffff168c602001518c8c604051615a7d929190616b5d565b60405180910390208b8b604051615a95929190616b5d565b60405180910390208a8a604051615aad929190616b5d565b6040805191829003822060208301989098526001600160581b03199096169581019590955263ffffffff90931660608501526001600160a01b03909116608084015260a083015260c082015260e08101919091526101000161334e565b9150509397509397509397509397565b600080615b25613249565b805490915060581b6000615b3d82600160f81b610967565b15615bc9578254604051637aa8f17760e11b81526001600160a81b038216916001600160a01b03169063f551e2ee90615b809030908c908c908c9060040161699a565b602060405180830381865afa158015615b9d573d6000803e3d6000fd5b505050506040513d601f19601f82011682018060405250810190615bc19190616ac7565b915050615c7f565b615bd782600160f91b610967565b15613ab157825460601b6000615bf082308b8b8b6147ac565b60405163392dffaf60e01b8152919b5099509097509091506001600160a01b0382169063392dffaf90615c39906001600160e01b031986169030908e908e908e90600401616bf6565b602060405180830381865afa158015615c56573d6000803e3d6000fd5b505050506040513d601f19601f82011682018060405250810190615c7a9190616ac7565b925050505b630b135d3f60e11b6001600160e01b0319821614615cb0576040516362467c7760e11b815260040160405180910390fd5b5050509392505050565b6000615cc96004828486616a65565b615cd291616a8f565b9050600482106113eb57602c8210615e6657366000818180615cf860186004898b616a65565b615d0191616b6d565b60601c9050602c880135604c890101945060208503359350604c880135604c890101925060208303359150615d5685856000818110615d4257615d42616b47565b9050013560f81c60f81b600060f81b610967565b8015615dc6575060405163ecd0596160e01b8152600260048201526001600160a01b0382169063ecd0596190602401602060405180830381865afa158015615da2573d6000803e3d6000fd5b505050506040513d601f19601f82011682018060405250810190615dc69190616b2a565b15615e1c57606c8801358801604c810190602c01356000615dea6014828486616a65565b615df391616b6d565b60601c9050615e02848261510f565b615e1881615e138460148188616a65565b613bd4565b5050505b615e428682615e2f602c60188c8e616a65565b615e3891616b6d565b60601c8888613da5565b611d70615e53602c60188a8c616a65565b615e5c91616b6d565b60601c8484613bd4565b600482146113eb5760405162461bcd60e51b8152602060048201526014602482015273496e76616c69642073656c6563746f724461746160601b604482015260640161144b565b5080546000825590600052602060002090810190615ecb9190615ece565b50565b5b80821115615ee35760008155600101615ecf565b5090565b6001600160a01b0381168114615ecb57600080fd5b803561324481615ee7565b60008083601f840112615f1957600080fd5b5081356001600160401b03811115615f3057600080fd5b602083019150836020828501011115615f4857600080fd5b9250929050565b60008060008060608587031215615f6557600080fd5b843593506020850135615f7781615ee7565b925060408501356001600160401b03811115615f9257600080fd5b615f9e87828801615f07565b95989497509550505050565b600080600080600060808688031215615fc257600080fd5b8535615fcd81615ee7565b94506020860135615fdd81615ee7565b93506040860135925060608601356001600160401b03811115615fff57600080fd5b61600b88828901615f07565b969995985093965092949392505050565b60008060006040848603121561603157600080fd5b8335925060208401356001600160401b0381111561604e57600080fd5b61605a86828701615f07565b9497909650939450505050565b6000610120828403121561607a57600080fd5b50919050565b60008060006060848603121561609557600080fd5b83356001600160401b038111156160ab57600080fd5b6160b786828701616067565b9660208601359650604090950135949350505050565b803563ffffffff8116811461324457600080fd5b6000602082840312156160f357600080fd5b610cce826160cd565b60006020828403121561610e57600080fd5b8135610cce81615ee7565b80356001600160581b03198116811461324457600080fd5b6001600160e01b031981168114615ecb57600080fd5b8015158114615ecb57600080fd5b60008060006060848603121561616a57600080fd5b61617384616119565b9250602084013561618381616131565b9150604084013561619381616147565b809150509250925092565b60008083601f8401126161b057600080fd5b5081356001600160401b038111156161c757600080fd5b6020830191508360208260051b8501011115615f4857600080fd5b60008060008060008060008060a0898b0312156161fe57600080fd5b61620789616119565b9750602089013561621781615ee7565b965060408901356001600160401b0381111561623257600080fd5b61623e8b828c01615f07565b90975095505060608901356001600160401b0381111561625d57600080fd5b6162698b828c01615f07565b90955093505060808901356001600160401b0381111561628857600080fd5b6162948b828c0161619e565b999c989b5096995094979396929594505050565b600080600080600080608087890312156162c157600080fd5b6162ca87616119565b955060208701356162da81615ee7565b945060408701356001600160401b038111156162f557600080fd5b61630189828a01615f07565b90955093505060608701356001600160401b0381111561632057600080fd5b61632c89828a01615f07565b979a9699509497509295939492505050565b60006020828403121561635057600080fd5b8135610cce81616131565b6000806040838503121561636e57600080fd5b61637783616119565b9150602083013561638781616131565b809150509250929050565b60005b838110156163ad578181015183820152602001616395565b50506000910152565b600081518084526163ce816020860160208601616392565b601f01601f19169290920160200192915050565b60ff60f81b8816815260e06020820152600061640160e08301896163b6565b828103604084015261641381896163b6565b606084018890526001600160a01b038716608085015260a0840186905283810360c08501528451808252602080870193509091019060005b8181101561646957835183526020938401939092019160010161644b565b50909b9a5050505050505050505050565b6000806040838503121561648d57600080fd5b82356001600160401b038111156164a357600080fd5b6164af85828601616067565b95602094909401359450505050565b634e487b7160e01b600052604160045260246000fd5b604080519081016001600160401b03811182821017156164f6576164f66164be565b60405290565b60405161012081016001600160401b03811182821017156164f6576164f66164be565b604051601f8201601f191681016001600160401b0381118282101715616547576165476164be565b604052919050565b60008060008060008060006080888a03121561656a57600080fd5b87356001600160401b0381111561658057600080fd5b61658c8a828b0161619e565b90985096505060208801356001600160401b038111156165ab57600080fd5b8801601f81018a136165bc57600080fd5b80356001600160401b038111156165d5576165d56164be565b6165e460208260051b0161651f565b8082825260208201915060208360061b85010192508c83111561660657600080fd5b6020840193505b82841015616662576040848e03121561662557600080fd5b61662d6164d4565b616636856160cd565b8152602085013561664681615ee7565b806020830152508083525060208201915060408401935061660d565b975050505060408801356001600160401b0381111561668057600080fd5b61668c8a828b0161619e565b90955093505060608801356001600160401b038111156166ab57600080fd5b6166b78a828b0161619e565b989b979a50959850939692959293505050565b602081526000610cce60208301846163b6565b6000602082840312156166ef57600080fd5b610cce82616119565b60008060008060008060008060a0898b03121561671457600080fd5b883561671f81615ee7565b9750602089013561672f81615ee7565b965060408901356001600160401b0381111561674a57600080fd5b6167568b828c0161619e565b90975095505060608901356001600160401b0381111561677557600080fd5b6167818b828c0161619e565b90955093505060808901356001600160401b038111156167a057600080fd5b6162948b828c01615f07565b602080825282516001600160f01b03191682820152828101516001600160a01b03166040808401919091528301516060808401528051608084018190526000929190910190829060a08501905b808310156168255783516001600160501b031916825260209384019360019390930192909101906167f9565b5095945050505050565b60006020828403121561684157600080fd5b5035919050565b6000602082016020835280845180835260408501915060408160051b86010192506020860160005b828110156168a157603f1987860301845261688c8583516163b6565b94506020938401939190910190600101616870565b50929695505050505050565b6000806000806000606086880312156168c557600080fd5b6168ce86616119565b945060208601356001600160401b038111156168e957600080fd5b6168f588828901615f07565b90955093505060408601356001600160401b03811115615fff57600080fd5b60008060008060008060a0878903121561692d57600080fd5b863561693881615ee7565b9550602087013561694881615ee7565b9450604087013593506060870135925060808701356001600160401b0381111561632057600080fd5b81835281816020850137506000828201602090810191909152601f909101601f19169091010190565b60018060a01b03851681528360208201526060604082015260006169c2606083018486616971565b9695505050505050565b60006001600160401b038211156169e5576169e56164be565b50601f01601f191660200190565b600060208284031215616a0557600080fd5b81516001600160401b03811115616a1b57600080fd5b8201601f81018413616a2c57600080fd5b8051616a3f616a3a826169cc565b61651f565b818152856020838501011115616a5457600080fd5b61095e826020830160208601616392565b60008085851115616a7557600080fd5b83861115616a8257600080fd5b5050820193919092039150565b80356001600160e01b03198116906004841015616ac0576001600160e01b0319600485900360031b81901b82161691505b5092915050565b600060208284031215616ad957600080fd5b8151610cce81616131565b6000808335601e19843603018112616afb57600080fd5b8301803591506001600160401b03821115616b1557600080fd5b602001915036819003821315615f4857600080fd5b600060208284031215616b3c57600080fd5b8151610cce81616147565b634e487b7160e01b600052603260045260246000fd5b8183823760009101908152919050565b80356bffffffffffffffffffffffff198116906014841015616ac0576bffffffffffffffffffffffff1960149490940360031b84901b1690921692915050565b602081526000610b2c602083018486616971565b9182526001600160a01b0316602082015260400190565b8035602083101561097857600019602084900360031b1b1692915050565b85815260018060a01b0385166020820152836040820152608060608201526000616c24608083018486616971565b979650505050505050565b600082601f830112616c4057600080fd5b8135616c4e616a3a826169cc565b818152846020838601011115616c6357600080fd5b816020850160208301376000918101602001919091529392505050565b60006101208236031215616c9357600080fd5b616c9b6164fc565b616ca483615efc565b81526020838101359082015260408301356001600160401b03811115616cc957600080fd5b616cd536828601616c2f565b60408301525060608301356001600160401b03811115616cf457600080fd5b616d0036828601616c2f565b6060830152506080838101359082015260a0808401359082015260c0808401359082015260e08301356001600160401b03811115616d3d57600080fd5b616d4936828601616c2f565b60e0830152506101008301356001600160401b03811115616d6957600080fd5b616d7536828601616c2f565b6101008301525092915050565b80516001600160a01b0316825260208101516020830152600060408201516101206040850152616db66101208501826163b6565b905060608301518482036060860152616dcf82826163b6565b9150506080830151608085015260a083015160a085015260c083015160c085015260e083015184820360e0860152616e0782826163b6565b91505061010083015184820361010086015261095e82826163b6565b604081526000616e366040830185616d82565b90508260208301529392505050565b600060208284031215616e5757600080fd5b5051919050565b838152606060208201526000616e776060830185616d82565b9050826040830152949350505050565b63ffffffff818116838216019081111561097857634e487b7160e01b600052601160045260246000fd5b828152604060208201526000610b2c60408301846163b6565b80356001600160c01b03198116906008841015616ac0576001600160c01b031960089490940360031b84901b1690921692915050565b828152604060208201526000610b2c6040830184616d82565b80356001600160501b03198116906016841015616ac0576001600160501b031960169490940360031b84901b1690921692915050565b838152818360208301376000910160200190815292915050565b80356001600160f01b03198116906002841015616ac0576001600160f01b031960029490940360031b84901b1690921692915050565b60008235605e19833603018112616fb557600080fd5b9190910192915050565b84815260018060a01b03841660208201528260408201526080606082015260006169c260808301846163b656fed21d0b289f126c4b473ea641963e766833c2f13866e4ff480abd787c100ef123341347516a9de374859dfda710fa4828b2d48cb57d4fbe4c1149612b8e02276ea2646970667358221220881e433b5399986dcc92e812b0650962671b58bd16c59d74b25bdb0061bffec764736f6c634300081c0033","linkReferences":{}},"methodIdentifiers":{"KERNEL_BYTECODE()":"f4298741","KERNEL_FACTORY_BYTECODE()":"fbcb3c17","KERNEL_WITH_SETSELECTOR_BYTECODE()":"35b5fa21","configModuleUserOp((address,uint8,address,(address,address,address,address,address),address,bytes32,bytes,address,address,address),uint256,address,bytes,bool,address)":"a4ac1916","deployAccount((address,uint8,address,(address,address,address,address,address),address,bytes32,bytes,address,address,address))":"7e5f37a5","encode((address,uint256,bytes)[])":"d3cc71e1","encode(address,uint256,bytes)":"7eca7228","encodeNonce(bytes1,bool,address,address)":"4fe1e845","execUserOp((address,uint8,address,(address,address,address,address,address),address,bytes32,bytes,address,address,address),bytes,address)":"5d393e6e","formatERC1271Hash((address,uint8,address,(address,address,address,address,address),address,bytes32,bytes,address,address,address),address,bytes32)":"c3581ca8","formatERC1271Signature((address,uint8,address,(address,address,address,address,address),address,bytes32,bytes,address,address,address),address,bytes)":"cda93f5a","getHookMultiPlexer((address,uint8,address,(address,address,address,address,address),address,bytes32,bytes,address,address,address))":"888d2df9","getInstallExecutorData((address,uint8,address,(address,address,address,address,address),address,bytes32,bytes,address,address,address),address,bytes)":"9e3d7bd3","getInstallFallbackData((address,uint8,address,(address,address,address,address,address),address,bytes32,bytes,address,address,address),address,bytes)":"2368d27a","getInstallHookData((address,uint8,address,(address,address,address,address,address),address,bytes32,bytes,address,address,address),address,bytes)":"c338a7e9","getInstallModuleCallData((address,uint8,address,(address,address,address,address,address),address,bytes32,bytes,address,address,address),uint256,address,bytes)":"4ca667bb","getInstallModuleData((address,uint8,address,(address,address,address,address,address),address,bytes32,bytes,address,address,address),uint256,address,bytes)":"df50bee5","getInstallValidatorData((address,uint8,address,(address,address,address,address,address),address,bytes32,bytes,address,address,address),address,bytes)":"6edb81af","getNonce((address,uint8,address,(address,address,address,address,address),address,bytes32,bytes,address,address,address),bytes,address)":"416d2f1d","getUninstallExecutorData((address,uint8,address,(address,address,address,address,address),address,bytes32,bytes,address,address,address),address,bytes)":"4e68a7a7","getUninstallFallbackData((address,uint8,address,(address,address,address,address,address),address,bytes32,bytes,address,address,address),address,bytes)":"87a00540","getUninstallHookData((address,uint8,address,(address,address,address,address,address),address,bytes32,bytes,address,address,address),address,bytes)":"35ad6bf4","getUninstallModuleCallData((address,uint8,address,(address,address,address,address,address),address,bytes32,bytes,address,address,address),uint256,address,bytes)":"d5ff7bd4","getUninstallModuleData((address,uint8,address,(address,address,address,address,address),address,bytes32,bytes,address,address,address),uint256,address,bytes)":"08581918","getUninstallValidatorData((address,uint8,address,(address,address,address,address,address),address,bytes32,bytes,address,address,address),address,bytes)":"693a019e","isModuleInstalled((address,uint8,address,(address,address,address,address,address),address,bytes32,bytes,address,address,address),uint256,address)":"d2c0d9fb","isModuleInstalled((address,uint8,address,(address,address,address,address,address),address,bytes32,bytes,address,address,address),uint256,address,bytes)":"ee5747e7","isValidSignature((address,uint8,address,(address,address,address,address,address),address,bytes32,bytes,address,address,address),address,bytes32,bytes)":"514692c6","setHookMultiPlexer((address,uint8,address,(address,address,address,address,address),address,bytes32,bytes,address,address,address),address)":"b287be44","toExecutions(address[],uint256[],bytes[])":"18350407"},"id":187}