{"abi":[{"type":"constructor","inputs":[{"name":"_signer","type":"address","internalType":"address"}],"stateMutability":"nonpayable"},{"type":"function","name":"dkimPublicKeyHashes","inputs":[{"name":"","type":"string","internalType":"string"},{"name":"","type":"bytes32","internalType":"bytes32"}],"outputs":[{"name":"","type":"bool","internalType":"bool"}],"stateMutability":"view"},{"type":"function","name":"isDKIMPublicKeyHashValid","inputs":[{"name":"domainName","type":"string","internalType":"string"},{"name":"publicKeyHash","type":"bytes32","internalType":"bytes32"}],"outputs":[{"name":"","type":"bool","internalType":"bool"}],"stateMutability":"view"},{"type":"function","name":"owner","inputs":[],"outputs":[{"name":"","type":"address","internalType":"address"}],"stateMutability":"view"},{"type":"function","name":"renounceOwnership","inputs":[],"outputs":[],"stateMutability":"nonpayable"},{"type":"function","name":"revokeDKIMPublicKeyHash","inputs":[{"name":"publicKeyHash","type":"bytes32","internalType":"bytes32"}],"outputs":[],"stateMutability":"nonpayable"},{"type":"function","name":"revokedDKIMPublicKeyHashes","inputs":[{"name":"","type":"bytes32","internalType":"bytes32"}],"outputs":[{"name":"","type":"bool","internalType":"bool"}],"stateMutability":"view"},{"type":"function","name":"setDKIMPublicKeyHash","inputs":[{"name":"domainName","type":"string","internalType":"string"},{"name":"publicKeyHash","type":"bytes32","internalType":"bytes32"}],"outputs":[],"stateMutability":"nonpayable"},{"type":"function","name":"setDKIMPublicKeyHashes","inputs":[{"name":"domainName","type":"string","internalType":"string"},{"name":"publicKeyHashes","type":"bytes32[]","internalType":"bytes32[]"}],"outputs":[],"stateMutability":"nonpayable"},{"type":"function","name":"transferOwnership","inputs":[{"name":"newOwner","type":"address","internalType":"address"}],"outputs":[],"stateMutability":"nonpayable"},{"type":"event","name":"DKIMPublicKeyHashRegistered","inputs":[{"name":"domainName","type":"string","indexed":false,"internalType":"string"},{"name":"publicKeyHash","type":"bytes32","indexed":false,"internalType":"bytes32"}],"anonymous":false},{"type":"event","name":"DKIMPublicKeyHashRevoked","inputs":[{"name":"publicKeyHash","type":"bytes32","indexed":false,"internalType":"bytes32"}],"anonymous":false},{"type":"event","name":"OwnershipTransferred","inputs":[{"name":"previousOwner","type":"address","indexed":true,"internalType":"address"},{"name":"newOwner","type":"address","indexed":true,"internalType":"address"}],"anonymous":false},{"type":"error","name":"OwnableInvalidOwner","inputs":[{"name":"owner","type":"address","internalType":"address"}]},{"type":"error","name":"OwnableUnauthorizedAccount","inputs":[{"name":"account","type":"address","internalType":"address"}]}],"bytecode":{"object":"0x6080604052348015600e575f5ffd5b506040516107ce3803806107ce833981016040819052602b9160b4565b806001600160a01b038116605857604051631e4fbdf760e01b81525f600482015260240160405180910390fd5b605f816065565b505060df565b5f80546001600160a01b038381166001600160a01b0319831681178455604051919092169283917f8be0079c531659141344cd1fd0a4f28419497f9722a3daafe3b4186f6b6457e09190a35050565b5f6020828403121560c3575f5ffd5b81516001600160a01b038116811460d8575f5ffd5b9392505050565b6106e2806100ec5f395ff3fe608060405234801561000f575f5ffd5b5060043610610090575f3560e01c80638da5cb5b116100635780638da5cb5b14610125578063c15cffab1461013f578063e7a7977a14610152578063f2fde38b14610165578063f49eb16414610178575f5ffd5b80630690bd381461009457806315d2512e146100e657806342d7cb98146100fb578063715018a61461011d575b5f5ffd5b6100d16100a23660046104e7565b81516020818401810180516001825292820194820194909420919093529091525f908152604090205460ff1681565b60405190151581526020015b60405180910390f35b6100f96100f4366004610529565b61018b565b005b6100d1610109366004610529565b60026020525f908152604090205460ff1681565b6100f96101e8565b5f546040516001600160a01b0390911681526020016100dd565b6100f961014d3660046104e7565b6101fb565b6100d16101603660046104e7565b6102db565b6100f9610173366004610540565b61033b565b6100f961018636600461056d565b610378565b6101936103bb565b5f8181526002602052604090819020805460ff19166001179055517fb80fff2b4c6f3ddf804877927c77b2fe1871cecaa5ad43d2c7c42f417331f865906101dd9083815260200190565b60405180910390a150565b6101f06103bb565b6101f95f6103e7565b565b6102036103bb565b5f8181526002602052604090205460ff16156102665760405162461bcd60e51b815260206004820152601960248201527f63616e6e6f7420736574207265766f6b6564207075626b65790000000000000060448201526064015b60405180910390fd5b600180836040516102779190610646565b90815260408051602092819003830181205f86815293529120805460ff1916921515929092179091557f510dac88eaf2dfbd53904241fc199ad46b2063e6bf6c3fb291f8ce8643663419906102cf908490849061065c565b60405180910390a15050565b5f8181526002602052604081205460ff16156102f857505f610335565b6001836040516103089190610646565b90815260408051602092819003830190205f858152925290205460ff161561033257506001610335565b505f5b92915050565b6103436103bb565b6001600160a01b03811661036c57604051631e4fbdf760e01b81525f600482015260240161025d565b610375816103e7565b50565b6103806103bb565b5f5b81518110156103b6576103ae838383815181106103a1576103a1610698565b60200260200101516101fb565b600101610382565b505050565b5f546001600160a01b031633146101f95760405163118cdaa760e01b815233600482015260240161025d565b5f80546001600160a01b038381166001600160a01b0319831681178455604051919092169283917f8be0079c531659141344cd1fd0a4f28419497f9722a3daafe3b4186f6b6457e09190a35050565b634e487b7160e01b5f52604160045260245ffd5b604051601f8201601f1916810167ffffffffffffffff8111828210171561047357610473610436565b604052919050565b5f82601f83011261048a575f5ffd5b813567ffffffffffffffff8111156104a4576104a4610436565b6104b7601f8201601f191660200161044a565b8181528460208386010111156104cb575f5ffd5b816020850160208301375f918101602001919091529392505050565b5f5f604083850312156104f8575f5ffd5b823567ffffffffffffffff81111561050e575f5ffd5b61051a8582860161047b565b95602094909401359450505050565b5f60208284031215610539575f5ffd5b5035919050565b5f60208284031215610550575f5ffd5b81356001600160a01b0381168114610566575f5ffd5b9392505050565b5f5f6040838503121561057e575f5ffd5b823567ffffffffffffffff811115610594575f5ffd5b6105a08582860161047b565b925050602083013567ffffffffffffffff8111156105bc575f5ffd5b8301601f810185136105cc575f5ffd5b803567ffffffffffffffff8111156105e6576105e6610436565b8060051b6105f66020820161044a565b91825260208184018101929081019088841115610611575f5ffd5b6020850194505b8385101561063757843580835260209586019590935090910190610618565b80955050505050509250929050565b5f82518060208501845e5f920191825250919050565b604081525f83518060408401528060208601606085015e5f606082850101526060601f19601f8301168401019150508260208301529392505050565b634e487b7160e01b5f52603260045260245ffdfea2646970667358221220f3c4f7f9d3857a54f8731850705293a093f2c4290e4f53099864e07557caeffd64736f6c634300081c0033","linkReferences":{}},"methodIdentifiers":{"dkimPublicKeyHashes(string,bytes32)":"0690bd38","isDKIMPublicKeyHashValid(string,bytes32)":"e7a7977a","owner()":"8da5cb5b","renounceOwnership()":"715018a6","revokeDKIMPublicKeyHash(bytes32)":"15d2512e","revokedDKIMPublicKeyHashes(bytes32)":"42d7cb98","setDKIMPublicKeyHash(string,bytes32)":"c15cffab","setDKIMPublicKeyHashes(string,bytes32[])":"f49eb164","transferOwnership(address)":"f2fde38b"},"id":218}