{"abi":[{"type":"function","name":"uintToDecimalString","inputs":[{"name":"value","type":"uint256","internalType":"uint256"}],"outputs":[{"name":"","type":"string","internalType":"string"}],"stateMutability":"pure"},{"type":"function","name":"uintToDecimalString","inputs":[{"name":"value","type":"uint256","internalType":"uint256"},{"name":"decimal","type":"uint256","internalType":"uint256"}],"outputs":[{"name":"","type":"string","internalType":"string"}],"stateMutability":"pure"}],"bytecode":{"object":"0x6106b7610034600b8282823980515f1a607314602857634e487b7160e01b5f525f60045260245ffd5b305f52607381538281f3fe730000000000000000000000000000000000000000301460806040526004361061003f575f3560e01c80636f186a7914610043578063f41ce7db1461006c575b5f5ffd5b610056610051366004610548565b61007f565b604051610063919061055f565b60405180910390f35b61005661007a366004610594565b610092565b606061008c826012610092565b92915050565b60605f61009e846103e1565b80519091505f60ff821685106100be576100b98560026105c8565b6100cd565b6100c98260016105db565b60ff165b67ffffffffffffffff8111156100e5576100e56105f4565b6040519080825280601f01601f19166020018201604052801561010f576020820181803683370190505b5080519091505f60ff8416871061012f5761012a8483610608565b610132565b60015b60ff1690505f8080610145600186610608565b90505b60016101578b60ff8816610621565b6101619190610621565b8160ff16036101b65782156101ae57601760f91b868260ff168151811061018a5761018a610634565b60200101906001600160f81b03191690815f1a905350816101aa81610648565b9250505b5f9350610309565b898760ff16111580156101d757506101ce8786610608565b60ff168160ff16105b1561021e57600360fc1b868260ff16815181106101f6576101f6610634565b60200101906001600160f81b03191690815f1a9053508161021681610648565b925050610309565b8280610228575083155b1561026b578761023b8560ff8416610621565b8151811061024b5761024b610634565b602001015160f81c60f81b868260ff16815181106101f6576101f6610634565b876102798560ff8416610621565b8151811061028957610289610634565b6020910101516001600160f81b031916600360fc1b1461030957876102b18560ff8416610621565b815181106102c1576102c1610634565b602001015160f81c60f81b868260ff16815181106102e1576102e1610634565b60200101906001600160f81b03191690815f1a9053508161030181610648565b925050600192505b60ff811615610324578061031c81610666565b915050610148565b505f8160ff1667ffffffffffffffff811115610342576103426105f4565b6040519080825280601f01601f19166020018201604052801561036c576020820181803683370190505b5090505f5b8260ff168160ff1610156103d257868160ff168151811061039457610394610634565b602001015160f81c60f81b828260ff16815181106103b4576103b4610634565b60200101906001600160f81b03191690815f1a905350600101610371565b509a9950505050505050505050565b60605f6103ed83610471565b60010190505f8167ffffffffffffffff81111561040c5761040c6105f4565b6040519080825280601f01601f191660200182016040528015610436576020820181803683370190505b5090508181016020015b5f19016f181899199a1a9b1b9c1cb0b131b232b360811b600a86061a8153600a850494508461044057509392505050565b5f8072184f03e93ff9f4daa797ed6e38ed64bf6a1f0160401b83106104af5772184f03e93ff9f4daa797ed6e38ed64bf6a1f0160401b830492506040015b6d04ee2d6d415b85acef810000000083106104db576d04ee2d6d415b85acef8100000000830492506020015b662386f26fc1000083106104f957662386f26fc10000830492506010015b6305f5e1008310610511576305f5e100830492506008015b612710831061052557612710830492506004015b60648310610537576064830492506002015b600a831061008c5760010192915050565b5f60208284031215610558575f5ffd5b5035919050565b602081525f82518060208401528060208501604085015e5f604082850101526040601f19601f83011684010191505092915050565b5f5f604083850312156105a5575f5ffd5b50508035926020909101359150565b634e487b7160e01b5f52601160045260245ffd5b8082018082111561008c5761008c6105b4565b60ff818116838216019081111561008c5761008c6105b4565b634e487b7160e01b5f52604160045260245ffd5b60ff828116828216039081111561008c5761008c6105b4565b8181038181111561008c5761008c6105b4565b634e487b7160e01b5f52603260045260245ffd5b5f60ff821660ff810361065d5761065d6105b4565b60010192915050565b5f60ff821680610678576106786105b4565b5f19019291505056fea26469706673582212209ac8fd8afbc2aea88d2a3f65ec9aff9892ab55ca0ef7d5c3eb6b83d8ebcbdd3464736f6c634300081c0033","linkReferences":{}},"methodIdentifiers":{"uintToDecimalString(uint256)":"6f186a79","uintToDecimalString(uint256,uint256)":"f41ce7db"},"id":225}