{"abi":[{"type":"function","name":"changeOwner","inputs":[{"name":"newOwner","type":"address","internalType":"address"}],"outputs":[],"stateMutability":"nonpayable"},{"type":"function","name":"isInitialized","inputs":[{"name":"smartAccount","type":"address","internalType":"address"}],"outputs":[{"name":"","type":"bool","internalType":"bool"}],"stateMutability":"view"},{"type":"function","name":"isModuleType","inputs":[{"name":"typeID","type":"uint256","internalType":"uint256"}],"outputs":[{"name":"","type":"bool","internalType":"bool"}],"stateMutability":"pure"},{"type":"function","name":"isValidSignatureWithSender","inputs":[{"name":"","type":"address","internalType":"address"},{"name":"hash","type":"bytes32","internalType":"bytes32"},{"name":"data","type":"bytes","internalType":"bytes"}],"outputs":[{"name":"","type":"bytes4","internalType":"bytes4"}],"stateMutability":"view"},{"type":"function","name":"name","inputs":[],"outputs":[{"name":"","type":"string","internalType":"string"}],"stateMutability":"pure"},{"type":"function","name":"onInstall","inputs":[{"name":"data","type":"bytes","internalType":"bytes"}],"outputs":[],"stateMutability":"nonpayable"},{"type":"function","name":"onUninstall","inputs":[{"name":"","type":"bytes","internalType":"bytes"}],"outputs":[],"stateMutability":"nonpayable"},{"type":"function","name":"owners","inputs":[{"name":"subAccout","type":"address","internalType":"address"}],"outputs":[{"name":"owner","type":"address","internalType":"address"}],"stateMutability":"view"},{"type":"function","name":"validateUserOp","inputs":[{"name":"userOp","type":"tuple","internalType":"struct PackedUserOperation","components":[{"name":"sender","type":"address","internalType":"address"},{"name":"nonce","type":"uint256","internalType":"uint256"},{"name":"initCode","type":"bytes","internalType":"bytes"},{"name":"callData","type":"bytes","internalType":"bytes"},{"name":"accountGasLimits","type":"bytes32","internalType":"bytes32"},{"name":"preVerificationGas","type":"uint256","internalType":"uint256"},{"name":"gasFees","type":"bytes32","internalType":"bytes32"},{"name":"paymasterAndData","type":"bytes","internalType":"bytes"},{"name":"signature","type":"bytes","internalType":"bytes"}]},{"name":"userOpHash","type":"bytes32","internalType":"bytes32"}],"outputs":[{"name":"","type":"uint256","internalType":"ERC7579ValidatorBase.ValidationData"}],"stateMutability":"view"},{"type":"function","name":"version","inputs":[],"outputs":[{"name":"","type":"string","internalType":"string"}],"stateMutability":"pure"},{"type":"error","name":"ModuleAlreadyInitialized","inputs":[{"name":"smartAccount","type":"address","internalType":"address"}]},{"type":"error","name":"NotInitialized","inputs":[{"name":"smartAccount","type":"address","internalType":"address"}]}],"bytecode":{"object":"0x6080604052348015600e575f5ffd5b506107ba8061001c5f395ff3fe608060405234801561000f575f5ffd5b506004361061009b575f3560e01c80639700320311610063578063970032031461017d578063a6f9dae11461019e578063d60b347f146101da578063ecd0596114610217578063f551e2ee1461022b575f5ffd5b8063022914a71461009f57806306fdde03146100e457806354fd4d50146101195780636d61fe701461013a5780638a91b0e31461014f575b5f5ffd5b6100c76100ad3660046105b7565b5f602081905290815260409020546001600160a01b031681565b6040516001600160a01b0390911681526020015b60405180910390f35b60408051808201909152601081526f27bbb730b13632ab30b634b230ba37b960811b60208201525b6040516100db91906105d2565b604080518082019091526005815264302e302e3160d81b602082015261010c565b61014d61014836600461064c565b610257565b005b61014d61015d36600461064c565b5050335f90815260208190526040902080546001600160a01b0319169055565b61019061018b36600461068b565b6102a1565b6040519081526020016100db565b61014d6101ac3660046105b7565b335f90815260208190526040902080546001600160a01b0319166001600160a01b0392909216919091179055565b6102076101e83660046105b7565b6001600160a01b039081165f9081526020819052604090205416151590565b60405190151581526020016100db565b6102076102253660046106d2565b60011490565b61023e6102393660046106e9565b610364565b6040516001600160e01b031990911681526020016100db565b5f819003610263575050565b5f610270828401846105b7565b335f90815260208190526040902080546001600160a01b0319166001600160a01b0392909216919091179055505050565b5f5f6103486102d4846020527b19457468657265756d205369676e6564204d6573736167653a0a33325f52603c60042090565b6102e2610100870187610741565b8080601f0160208091040260200160405190810160405280939291908181526020018383808284375f9201829052509250829150610325905060208a018a6105b7565b6001600160a01b03908116825260208201929092526040015f20541691906103ad565b905061035c811565ffffffffffff5f61048b565b949350505050565b335f908152602081905260408120546001600160a01b031661038881868686610497565b61039a576001600160e01b03196103a3565b630b135d3f60e11b5b9695505050505050565b5f6001600160a01b0384161561048457604051843b610442578251604081146103de57604181146103ff5750610482565b604084015160ff81901c601b016020526001600160ff1b0316606052610412565b60608401515f1a60205260408401516060525b50835f5260208301516040526020600160805f60015afa5180861860601b3d119250505f60605280604052610482565b631626ba7e60e01b808252846004830152602482016040815284516020018060448501828860045afa905060208260443d01868b5afa9151911691141691505b505b9392505050565b5f61035c84848461056a565b5f6001600160a01b0385161561035c57604051853b6105275782604081146104c757604181146104ee5750610561565b60208581013560ff81901c601b0190915285356040526001600160ff1b03166060526104ff565b60408501355f1a6020526040856040375b50845f526020600160805f60015afa5180871860601b3d119250505f60605280604052610561565b631626ba7e60e01b80825285600483015260248201604081528460448401528486606485013760208160648701858b5afa90519091141691505b50949350505050565b5f60d08265ffffffffffff16901b60a08465ffffffffffff16901b85610590575f610593565b60015b60ff161717949350505050565b6001600160a01b03811681146105b4575f5ffd5b50565b5f602082840312156105c7575f5ffd5b8135610484816105a0565b602081525f82518060208401528060208501604085015e5f604082850101526040601f19601f83011684010191505092915050565b5f5f83601f840112610617575f5ffd5b50813567ffffffffffffffff81111561062e575f5ffd5b602083019150836020828501011115610645575f5ffd5b9250929050565b5f5f6020838503121561065d575f5ffd5b823567ffffffffffffffff811115610673575f5ffd5b61067f85828601610607565b90969095509350505050565b5f5f6040838503121561069c575f5ffd5b823567ffffffffffffffff8111156106b2575f5ffd5b830161012081860312156106c4575f5ffd5b946020939093013593505050565b5f602082840312156106e2575f5ffd5b5035919050565b5f5f5f5f606085870312156106fc575f5ffd5b8435610707816105a0565b935060208501359250604085013567ffffffffffffffff811115610729575f5ffd5b61073587828801610607565b95989497509550505050565b5f5f8335601e19843603018112610756575f5ffd5b83018035915067ffffffffffffffff821115610770575f5ffd5b602001915036819003821315610645575f5ffdfea264697066735822122099bd83276f1f4c593f7b2596d7d7e72a8111dc649a73efcdc18f0563d8c912fb64736f6c634300081c0033","linkReferences":{}},"methodIdentifiers":{"changeOwner(address)":"a6f9dae1","isInitialized(address)":"d60b347f","isModuleType(uint256)":"ecd05961","isValidSignatureWithSender(address,bytes32,bytes)":"f551e2ee","name()":"06fdde03","onInstall(bytes)":"6d61fe70","onUninstall(bytes)":"8a91b0e3","owners(address)":"022914a7","validateUserOp((address,uint256,bytes,bytes,bytes32,uint256,bytes32,bytes,bytes),bytes32)":"97003203","version()":"54fd4d50"},"id":302}