{"abi":[{"type":"constructor","inputs":[{"name":"verifier","type":"address","internalType":"address"},{"name":"dkimRegistry","type":"address","internalType":"address"},{"name":"emailAuthImpl","type":"address","internalType":"address"},{"name":"commandHandler","type":"address","internalType":"address"},{"name":"minimumDelay","type":"uint256","internalType":"uint256"},{"name":"killSwitchAuthorizer","type":"address","internalType":"address"}],"stateMutability":"nonpayable"},{"type":"function","name":"CANCEL_EXPIRED_RECOVERY_COOLDOWN","inputs":[],"outputs":[{"name":"","type":"uint256","internalType":"uint256"}],"stateMutability":"view"},{"type":"function","name":"MINIMUM_RECOVERY_WINDOW","inputs":[],"outputs":[{"name":"","type":"uint256","internalType":"uint256"}],"stateMutability":"view"},{"type":"function","name":"acceptanceCommandTemplates","inputs":[],"outputs":[{"name":"","type":"string[][]","internalType":"string[][]"}],"stateMutability":"view"},{"type":"function","name":"addGuardian","inputs":[{"name":"guardian","type":"address","internalType":"address"},{"name":"weight","type":"uint256","internalType":"uint256"}],"outputs":[],"stateMutability":"nonpayable"},{"type":"function","name":"canStartRecoveryRequest","inputs":[{"name":"account","type":"address","internalType":"address"}],"outputs":[{"name":"","type":"bool","internalType":"bool"}],"stateMutability":"view"},{"type":"function","name":"cancelExpiredRecovery","inputs":[{"name":"account","type":"address","internalType":"address"}],"outputs":[],"stateMutability":"nonpayable"},{"type":"function","name":"cancelRecovery","inputs":[],"outputs":[],"stateMutability":"nonpayable"},{"type":"function","name":"changeThreshold","inputs":[{"name":"threshold","type":"uint256","internalType":"uint256"}],"outputs":[],"stateMutability":"nonpayable"},{"type":"function","name":"commandHandler","inputs":[],"outputs":[{"name":"","type":"address","internalType":"address"}],"stateMutability":"view"},{"type":"function","name":"completeRecovery","inputs":[{"name":"account","type":"address","internalType":"address"},{"name":"recoveryData","type":"bytes","internalType":"bytes"}],"outputs":[],"stateMutability":"nonpayable"},{"type":"function","name":"computeAcceptanceTemplateId","inputs":[{"name":"templateIdx","type":"uint256","internalType":"uint256"}],"outputs":[{"name":"","type":"uint256","internalType":"uint256"}],"stateMutability":"pure"},{"type":"function","name":"computeEmailAuthAddress","inputs":[{"name":"recoveredAccount","type":"address","internalType":"address"},{"name":"accountSalt","type":"bytes32","internalType":"bytes32"}],"outputs":[{"name":"","type":"address","internalType":"address"}],"stateMutability":"view"},{"type":"function","name":"computeRecoveryTemplateId","inputs":[{"name":"templateIdx","type":"uint256","internalType":"uint256"}],"outputs":[{"name":"","type":"uint256","internalType":"uint256"}],"stateMutability":"pure"},{"type":"function","name":"configureSafeRecovery","inputs":[{"name":"guardians","type":"address[]","internalType":"address[]"},{"name":"weights","type":"uint256[]","internalType":"uint256[]"},{"name":"threshold","type":"uint256","internalType":"uint256"},{"name":"delay","type":"uint256","internalType":"uint256"},{"name":"expiry","type":"uint256","internalType":"uint256"}],"outputs":[],"stateMutability":"nonpayable"},{"type":"function","name":"dkim","inputs":[],"outputs":[{"name":"","type":"address","internalType":"address"}],"stateMutability":"view"},{"type":"function","name":"dkimAddr","inputs":[],"outputs":[{"name":"","type":"address","internalType":"address"}],"stateMutability":"view"},{"type":"function","name":"emailAuthImplementation","inputs":[],"outputs":[{"name":"","type":"address","internalType":"address"}],"stateMutability":"view"},{"type":"function","name":"emailAuthImplementationAddr","inputs":[],"outputs":[{"name":"","type":"address","internalType":"address"}],"stateMutability":"view"},{"type":"function","name":"extractRecoveredAccountFromAcceptanceCommand","inputs":[{"name":"commandParams","type":"bytes[]","internalType":"bytes[]"},{"name":"templateIdx","type":"uint256","internalType":"uint256"}],"outputs":[{"name":"","type":"address","internalType":"address"}],"stateMutability":"view"},{"type":"function","name":"extractRecoveredAccountFromRecoveryCommand","inputs":[{"name":"commandParams","type":"bytes[]","internalType":"bytes[]"},{"name":"templateIdx","type":"uint256","internalType":"uint256"}],"outputs":[{"name":"","type":"address","internalType":"address"}],"stateMutability":"view"},{"type":"function","name":"getAllGuardians","inputs":[{"name":"account","type":"address","internalType":"address"}],"outputs":[{"name":"","type":"address[]","internalType":"address[]"}],"stateMutability":"view"},{"type":"function","name":"getGuardian","inputs":[{"name":"account","type":"address","internalType":"address"},{"name":"guardian","type":"address","internalType":"address"}],"outputs":[{"name":"","type":"tuple","internalType":"struct GuardianStorage","components":[{"name":"status","type":"uint8","internalType":"enum GuardianStatus"},{"name":"weight","type":"uint256","internalType":"uint256"}]}],"stateMutability":"view"},{"type":"function","name":"getGuardianConfig","inputs":[{"name":"account","type":"address","internalType":"address"}],"outputs":[{"name":"","type":"tuple","internalType":"struct IGuardianManager.GuardianConfig","components":[{"name":"guardianCount","type":"uint256","internalType":"uint256"},{"name":"totalWeight","type":"uint256","internalType":"uint256"},{"name":"acceptedWeight","type":"uint256","internalType":"uint256"},{"name":"threshold","type":"uint256","internalType":"uint256"}]}],"stateMutability":"view"},{"type":"function","name":"getPreviousRecoveryRequest","inputs":[{"name":"account","type":"address","internalType":"address"}],"outputs":[{"name":"","type":"tuple","internalType":"struct IEmailRecoveryManager.PreviousRecoveryRequest","components":[{"name":"previousGuardianInitiated","type":"address","internalType":"address"},{"name":"cancelRecoveryCooldown","type":"uint256","internalType":"uint256"}]}],"stateMutability":"view"},{"type":"function","name":"getRecoveryConfig","inputs":[{"name":"account","type":"address","internalType":"address"}],"outputs":[{"name":"","type":"tuple","internalType":"struct IEmailRecoveryManager.RecoveryConfig","components":[{"name":"delay","type":"uint256","internalType":"uint256"},{"name":"expiry","type":"uint256","internalType":"uint256"}]}],"stateMutability":"view"},{"type":"function","name":"getRecoveryRequest","inputs":[{"name":"account","type":"address","internalType":"address"}],"outputs":[{"name":"executeAfter","type":"uint256","internalType":"uint256"},{"name":"executeBefore","type":"uint256","internalType":"uint256"},{"name":"currentWeight","type":"uint256","internalType":"uint256"},{"name":"recoveryDataHash","type":"bytes32","internalType":"bytes32"}],"stateMutability":"view"},{"type":"function","name":"handleAcceptance","inputs":[{"name":"emailAuthMsg","type":"tuple","internalType":"struct EmailAuthMsg","components":[{"name":"templateId","type":"uint256","internalType":"uint256"},{"name":"commandParams","type":"bytes[]","internalType":"bytes[]"},{"name":"skippedCommandPrefix","type":"uint256","internalType":"uint256"},{"name":"proof","type":"tuple","internalType":"struct EmailProof","components":[{"name":"domainName","type":"string","internalType":"string"},{"name":"publicKeyHash","type":"bytes32","internalType":"bytes32"},{"name":"timestamp","type":"uint256","internalType":"uint256"},{"name":"maskedCommand","type":"string","internalType":"string"},{"name":"emailNullifier","type":"bytes32","internalType":"bytes32"},{"name":"accountSalt","type":"bytes32","internalType":"bytes32"},{"name":"isCodeExist","type":"bool","internalType":"bool"},{"name":"proof","type":"bytes","internalType":"bytes"}]}]},{"name":"templateIdx","type":"uint256","internalType":"uint256"}],"outputs":[],"stateMutability":"nonpayable"},{"type":"function","name":"handleRecovery","inputs":[{"name":"emailAuthMsg","type":"tuple","internalType":"struct EmailAuthMsg","components":[{"name":"templateId","type":"uint256","internalType":"uint256"},{"name":"commandParams","type":"bytes[]","internalType":"bytes[]"},{"name":"skippedCommandPrefix","type":"uint256","internalType":"uint256"},{"name":"proof","type":"tuple","internalType":"struct EmailProof","components":[{"name":"domainName","type":"string","internalType":"string"},{"name":"publicKeyHash","type":"bytes32","internalType":"bytes32"},{"name":"timestamp","type":"uint256","internalType":"uint256"},{"name":"maskedCommand","type":"string","internalType":"string"},{"name":"emailNullifier","type":"bytes32","internalType":"bytes32"},{"name":"accountSalt","type":"bytes32","internalType":"bytes32"},{"name":"isCodeExist","type":"bool","internalType":"bool"},{"name":"proof","type":"bytes","internalType":"bytes"}]}]},{"name":"templateIdx","type":"uint256","internalType":"uint256"}],"outputs":[],"stateMutability":"nonpayable"},{"type":"function","name":"hasGuardianVoted","inputs":[{"name":"account","type":"address","internalType":"address"},{"name":"guardian","type":"address","internalType":"address"}],"outputs":[{"name":"","type":"bool","internalType":"bool"}],"stateMutability":"view"},{"type":"function","name":"isActivated","inputs":[{"name":"account","type":"address","internalType":"address"}],"outputs":[{"name":"","type":"bool","internalType":"bool"}],"stateMutability":"view"},{"type":"function","name":"killSwitchEnabled","inputs":[],"outputs":[{"name":"","type":"bool","internalType":"bool"}],"stateMutability":"view"},{"type":"function","name":"minimumDelay","inputs":[],"outputs":[{"name":"","type":"uint256","internalType":"uint256"}],"stateMutability":"view"},{"type":"function","name":"owner","inputs":[],"outputs":[{"name":"","type":"address","internalType":"address"}],"stateMutability":"view"},{"type":"function","name":"recoveryCommandTemplates","inputs":[],"outputs":[{"name":"","type":"string[][]","internalType":"string[][]"}],"stateMutability":"view"},{"type":"function","name":"removeGuardian","inputs":[{"name":"guardian","type":"address","internalType":"address"}],"outputs":[],"stateMutability":"nonpayable"},{"type":"function","name":"renounceOwnership","inputs":[],"outputs":[],"stateMutability":"nonpayable"},{"type":"function","name":"resetWhenDisabled","inputs":[{"name":"account","type":"address","internalType":"address"}],"outputs":[],"stateMutability":"nonpayable"},{"type":"function","name":"selector","inputs":[],"outputs":[{"name":"","type":"bytes4","internalType":"bytes4"}],"stateMutability":"view"},{"type":"function","name":"toggleKillSwitch","inputs":[],"outputs":[],"stateMutability":"nonpayable"},{"type":"function","name":"transferOwnership","inputs":[{"name":"newOwner","type":"address","internalType":"address"}],"outputs":[],"stateMutability":"nonpayable"},{"type":"function","name":"updateRecoveryConfig","inputs":[{"name":"recoveryConfig","type":"tuple","internalType":"struct IEmailRecoveryManager.RecoveryConfig","components":[{"name":"delay","type":"uint256","internalType":"uint256"},{"name":"expiry","type":"uint256","internalType":"uint256"}]}],"outputs":[],"stateMutability":"nonpayable"},{"type":"function","name":"verifier","inputs":[],"outputs":[{"name":"","type":"address","internalType":"address"}],"stateMutability":"view"},{"type":"function","name":"verifierAddr","inputs":[],"outputs":[{"name":"","type":"address","internalType":"address"}],"stateMutability":"view"},{"type":"event","name":"AddedGuardian","inputs":[{"name":"account","type":"address","indexed":true,"internalType":"address"},{"name":"guardian","type":"address","indexed":true,"internalType":"address"},{"name":"weight","type":"uint256","indexed":false,"internalType":"uint256"}],"anonymous":false},{"type":"event","name":"ChangedThreshold","inputs":[{"name":"account","type":"address","indexed":true,"internalType":"address"},{"name":"threshold","type":"uint256","indexed":false,"internalType":"uint256"}],"anonymous":false},{"type":"event","name":"GuardianAccepted","inputs":[{"name":"account","type":"address","indexed":true,"internalType":"address"},{"name":"guardian","type":"address","indexed":true,"internalType":"address"}],"anonymous":false},{"type":"event","name":"GuardianStatusUpdated","inputs":[{"name":"account","type":"address","indexed":true,"internalType":"address"},{"name":"guardian","type":"address","indexed":true,"internalType":"address"},{"name":"newStatus","type":"uint8","indexed":false,"internalType":"enum GuardianStatus"}],"anonymous":false},{"type":"event","name":"GuardianVoted","inputs":[{"name":"account","type":"address","indexed":true,"internalType":"address"},{"name":"guardian","type":"address","indexed":true,"internalType":"address"},{"name":"currentWeight","type":"uint256","indexed":false,"internalType":"uint256"},{"name":"guardianWeight","type":"uint256","indexed":false,"internalType":"uint256"}],"anonymous":false},{"type":"event","name":"OwnershipTransferred","inputs":[{"name":"previousOwner","type":"address","indexed":true,"internalType":"address"},{"name":"newOwner","type":"address","indexed":true,"internalType":"address"}],"anonymous":false},{"type":"event","name":"RecoveryCancelled","inputs":[{"name":"account","type":"address","indexed":true,"internalType":"address"}],"anonymous":false},{"type":"event","name":"RecoveryCompleted","inputs":[{"name":"account","type":"address","indexed":true,"internalType":"address"}],"anonymous":false},{"type":"event","name":"RecoveryConfigUpdated","inputs":[{"name":"account","type":"address","indexed":true,"internalType":"address"},{"name":"delay","type":"uint256","indexed":false,"internalType":"uint256"},{"name":"expiry","type":"uint256","indexed":false,"internalType":"uint256"}],"anonymous":false},{"type":"event","name":"RecoveryConfigured","inputs":[{"name":"account","type":"address","indexed":true,"internalType":"address"},{"name":"guardianCount","type":"uint256","indexed":false,"internalType":"uint256"},{"name":"totalWeight","type":"uint256","indexed":false,"internalType":"uint256"},{"name":"threshold","type":"uint256","indexed":false,"internalType":"uint256"}],"anonymous":false},{"type":"event","name":"RecoveryDeInitialized","inputs":[{"name":"account","type":"address","indexed":true,"internalType":"address"}],"anonymous":false},{"type":"event","name":"RecoveryExecuted","inputs":[{"name":"account","type":"address","indexed":true,"internalType":"address"}],"anonymous":false},{"type":"event","name":"RecoveryRequestComplete","inputs":[{"name":"account","type":"address","indexed":true,"internalType":"address"},{"name":"guardian","type":"address","indexed":true,"internalType":"address"},{"name":"executeAfter","type":"uint256","indexed":false,"internalType":"uint256"},{"name":"executeBefore","type":"uint256","indexed":false,"internalType":"uint256"},{"name":"recoveryDataHash","type":"bytes32","indexed":false,"internalType":"bytes32"}],"anonymous":false},{"type":"event","name":"RecoveryRequestStarted","inputs":[{"name":"account","type":"address","indexed":true,"internalType":"address"},{"name":"guardian","type":"address","indexed":true,"internalType":"address"},{"name":"executeBefore","type":"uint256","indexed":false,"internalType":"uint256"},{"name":"recoveryDataHash","type":"bytes32","indexed":false,"internalType":"bytes32"}],"anonymous":false},{"type":"event","name":"RemovedGuardian","inputs":[{"name":"account","type":"address","indexed":true,"internalType":"address"},{"name":"guardian","type":"address","indexed":true,"internalType":"address"},{"name":"weight","type":"uint256","indexed":false,"internalType":"uint256"}],"anonymous":false},{"type":"error","name":"AccountNotConfigured","inputs":[]},{"type":"error","name":"AddressAlreadyGuardian","inputs":[]},{"type":"error","name":"AddressNotGuardianForAccount","inputs":[]},{"type":"error","name":"DelayLessThanMinimumDelay","inputs":[{"name":"delay","type":"uint256","internalType":"uint256"},{"name":"minimumDelay","type":"uint256","internalType":"uint256"}]},{"type":"error","name":"DelayMoreThanExpiry","inputs":[{"name":"delay","type":"uint256","internalType":"uint256"},{"name":"expiry","type":"uint256","internalType":"uint256"}]},{"type":"error","name":"DelayNotPassed","inputs":[{"name":"blockTimestamp","type":"uint256","internalType":"uint256"},{"name":"executeAfter","type":"uint256","internalType":"uint256"}]},{"type":"error","name":"GuardianAlreadyVoted","inputs":[]},{"type":"error","name":"GuardianMustWaitForCooldown","inputs":[{"name":"guardian","type":"address","internalType":"address"}]},{"type":"error","name":"IncorrectNumberOfWeights","inputs":[{"name":"guardianCount","type":"uint256","internalType":"uint256"},{"name":"weightCount","type":"uint256","internalType":"uint256"}]},{"type":"error","name":"InvalidAccount","inputs":[{"name":"account","type":"address","internalType":"address"}]},{"type":"error","name":"InvalidAccountAddress","inputs":[]},{"type":"error","name":"InvalidCommandHandler","inputs":[]},{"type":"error","name":"InvalidDkimRegistry","inputs":[]},{"type":"error","name":"InvalidEmailAuthImpl","inputs":[]},{"type":"error","name":"InvalidFactory","inputs":[]},{"type":"error","name":"InvalidGuardianAddress","inputs":[{"name":"guardian","type":"address","internalType":"address"}]},{"type":"error","name":"InvalidGuardianStatus","inputs":[{"name":"guardianStatus","type":"uint8","internalType":"enum GuardianStatus"},{"name":"expectedGuardianStatus","type":"uint8","internalType":"enum GuardianStatus"}]},{"type":"error","name":"InvalidGuardianWeight","inputs":[]},{"type":"error","name":"InvalidKillSwitchAuthorizer","inputs":[]},{"type":"error","name":"InvalidProxyBytecodeHash","inputs":[]},{"type":"error","name":"InvalidRecoveryDataHash","inputs":[{"name":"recoveryDataHash","type":"bytes32","internalType":"bytes32"},{"name":"expectedRecoveryDataHash","type":"bytes32","internalType":"bytes32"}]},{"type":"error","name":"InvalidSelector","inputs":[{"name":"selector","type":"bytes4","internalType":"bytes4"}]},{"type":"error","name":"InvalidVerifier","inputs":[]},{"type":"error","name":"KillSwitchEnabled","inputs":[]},{"type":"error","name":"MaxNumberOfGuardiansReached","inputs":[]},{"type":"error","name":"ModuleNotInstalled","inputs":[{"name":"account","type":"address","internalType":"address"}]},{"type":"error","name":"NoRecoveryConfigured","inputs":[]},{"type":"error","name":"NoRecoveryInProcess","inputs":[]},{"type":"error","name":"NotEnoughApprovals","inputs":[{"name":"currentWeight","type":"uint256","internalType":"uint256"},{"name":"threshold","type":"uint256","internalType":"uint256"}]},{"type":"error","name":"OwnableInvalidOwner","inputs":[{"name":"owner","type":"address","internalType":"address"}]},{"type":"error","name":"OwnableUnauthorizedAccount","inputs":[{"name":"account","type":"address","internalType":"address"}]},{"type":"error","name":"RecoveryFailed","inputs":[{"name":"account","type":"address","internalType":"address"},{"name":"returnData","type":"bytes","internalType":"bytes"}]},{"type":"error","name":"RecoveryHasNotExpired","inputs":[{"name":"account","type":"address","internalType":"address"},{"name":"blockTimestamp","type":"uint256","internalType":"uint256"},{"name":"executeBefore","type":"uint256","internalType":"uint256"}]},{"type":"error","name":"RecoveryInProcess","inputs":[]},{"type":"error","name":"RecoveryIsNotActivated","inputs":[]},{"type":"error","name":"RecoveryRequestExpired","inputs":[{"name":"blockTimestamp","type":"uint256","internalType":"uint256"},{"name":"executeBefore","type":"uint256","internalType":"uint256"}]},{"type":"error","name":"RecoveryWindowTooShort","inputs":[{"name":"recoveryWindow","type":"uint256","internalType":"uint256"}]},{"type":"error","name":"ResetFailed","inputs":[{"name":"account","type":"address","internalType":"address"}]},{"type":"error","name":"SetupAlreadyCalled","inputs":[]},{"type":"error","name":"SetupNotCalled","inputs":[]},{"type":"error","name":"StatusCannotBeTheSame","inputs":[{"name":"newStatus","type":"uint8","internalType":"enum GuardianStatus"}]},{"type":"error","name":"ThresholdCannotBeZero","inputs":[]},{"type":"error","name":"ThresholdExceedsAcceptedWeight","inputs":[{"name":"threshold","type":"uint256","internalType":"uint256"},{"name":"acceptedWeight","type":"uint256","internalType":"uint256"}]},{"type":"error","name":"ThresholdExceedsTotalWeight","inputs":[{"name":"threshold","type":"uint256","internalType":"uint256"},{"name":"totalWeight","type":"uint256","internalType":"uint256"}]},{"type":"error","name":"TooManyValuesToRemove","inputs":[]}],"bytecode":{"object":"0x60c060405234801561000f575f5ffd5b50604051614b15380380614b1583398101604081905261002e916101ef565b858585858585806001600160a01b03811661006257604051631e4fbdf760e01b81525f600482015260240160405180910390fd5b61006b81610183565b506001600160a01b0386166100935760405163baa3de5f60e01b815260040160405180910390fd5b6001600160a01b0385166100ba5760405163260ce05b60e01b815260040160405180910390fd5b6001600160a01b0384166100e15760405163e98100fb60e01b815260040160405180910390fd5b6001600160a01b0383166101085760405163fce1ed6f60e01b815260040160405180910390fd5b6001600160a01b03811661012f57604051630a19006f60e01b815260040160405180910390fd5b505f80546001600160a01b03199081166001600160a01b0397881617909155600180548216958716959095179094556002805490941692851692909217909255911660805260a05250610258945050505050565b600580546001600160a01b038381166001600160a01b0319831681179093556040519116919082907f8be0079c531659141344cd1fd0a4f28419497f9722a3daafe3b4186f6b6457e0905f90a35050565b80516001600160a01b03811681146101ea575f5ffd5b919050565b5f5f5f5f5f5f60c08789031215610204575f5ffd5b61020d876101d4565b955061021b602088016101d4565b9450610229604088016101d4565b9350610237606088016101d4565b92506080870151915061024c60a088016101d4565b90509295509295509295565b60805160a05161485d6102b85f395f818161042c01528181610fcb015261100901525f818161069f015281816111110152818161123f015281816113e7015281816119920152818161221d015281816129430152612ae8015261485d5ff3fe608060405234801561000f575f5ffd5b5060043610610260575f3560e01c80636da995151161014b578063b6201692116100bf578063d15558bf11610084578063d15558bf1461069a578063da34a850146106c1578063e45db12b146106e1578063ea3d508a146106f4578063f2fde38b14610715578063ffd55e3c14610728575f5ffd5b8063b620169214610615578063b68126fa14610626578063bbd2a05e14610639578063c18d09cf14610659578063c9faa7c51461066c575f5ffd5b80638da5cb5b116101105780638da5cb5b1461059e57806399150680146105af5780639c8f8439146105b9578063a5e3ee70146105dc578063ab1b5fde146105ef578063ada4cb7014610602575f5ffd5b80636da99515146104e357806371404156146104f6578063715018a61461050957806373357f851461051157806386b97e5114610524575f5ffd5b80632c4ce129116101e2578063427ad624116101a7578063427ad624146104275780634630f1d51461044e5780634f9a28b9146104565780635707f318146104b4578063663ea2e2146104be578063694e80c3146104d0575f5ffd5b80632c4ce129146103c757806332ccc2f2146103da5780633a8eab14146103fb5780633ef01b8f1461040e578063400ad5ce14610416575f5ffd5b80631788178f116102285780631788178f1461030e578063222f6cb5146103215780632788bbda146103365780632afb13be146103a45780632b7ac3f3146103b7575f5ffd5b80630481af67146102645780630ba234d6146102795780630bb6094a146102815780631098e02e146102d0578063111e5313146102fb575b5f5ffd5b610277610272366004613871565b61073c565b005b610277610beb565b61029461028f3660046139f6565b610cd5565b6040516102c791908151815260208083015190820152604080830151908201526060918201519181019190915260800190565b60405180910390f35b6002546102e3906001600160a01b031681565b6040516001600160a01b0390911681526020016102c7565b610277610309366004613a11565b610d46565b61027761031c366004613a3b565b610e8f565b61032961110d565b6040516102c79190613ab7565b6103896103443660046139f6565b604080518082019091525f8082526020820152506001600160a01b03165f90815260066020908152604091829020825180840190935280548352600101549082015290565b604080518251815260209283015192810192909252016102c7565b6102776103b2366004613bbb565b611196565b5f546001600160a01b03166102e3565b6102e36103d5366004613c97565b611226565b6103ed6103e8366004613cd8565b6112be565b6040519081526020016102c7565b6102e3610409366004613a11565b611315565b6103296113e3565b6001546001600160a01b03166102e3565b6103ed7f000000000000000000000000000000000000000000000000000000000000000081565b610277611440565b6104946104643660046139f6565b6001600160a01b03165f908152600760205260409020805460018201546002830154600390930154919390929190565b6040805194855260208501939093529183015260608201526080016102c7565b6103ed6201518081565b5f546102e3906001600160a01b031681565b6102776104de366004613cd8565b611469565b6103ed6104f1366004613cd8565b611664565b6102776105043660046139f6565b611679565b610277611942565b6001546102e3906001600160a01b031681565b61057a6105323660046139f6565b6040805180820182525f80825260209182018190526001600160a01b039384168152600882528290208251808401909352805490931682526001909201549181019190915290565b6040805182516001600160a01b0316815260209283015192810192909252016102c7565b6005546001600160a01b03166102e3565b6103ed6202a30081565b6105cc6105c7366004613cef565b611955565b60405190151581526020016102c7565b6102e36105ea366004613c97565b611979565b6102776105fd3660046139f6565b6119c9565b6105cc6106103660046139f6565b611b54565b6002546001600160a01b03166102e3565b610277610634366004613871565b611b83565b61064c6106473660046139f6565b611d3c565b6040516102c79190613d26565b610277610667366004613d71565b611d5f565b6105cc61067a3660046139f6565b6001600160a01b03165f9081526003602081905260409091200154151590565b6102e37f000000000000000000000000000000000000000000000000000000000000000081565b6106d46106cf366004613cef565b611f87565b6040516102c79190613e23565b6102776106ef3660046139f6565b611fbb565b6106fc612088565b6040516001600160e01b031990911681526020016102c7565b6102776107233660046139f6565b6120ab565b6005546105cc90600160a01b900460ff1681565b5f61074b836020015183611226565b90506001600160a01b0381166107a35760405162461bcd60e51b81526020600482015260186024820152771a5b9d985b1a59081858d8dbdd5b9d081a5b88195b585a5b60421b60448201526064015b60405180910390fd5b5f6107b682856060015160a00151611315565b90505f6107c2846112be565b8551909150811461080b5760405162461bcd60e51b81526020600482015260136024820152721a5b9d985b1a59081d195b5c1b185d19481a59606a1b604482015260640161079a565b606085015160c00151151560011461085c5760405162461bcd60e51b81526020600482015260146024820152736973436f646545786973742069732066616c736560601b604482015260640161079a565b5f826001600160a01b03163b5f03610aba575f61088185886060015160a001516120e5565b9050809150816001600160a01b031663557cf5ef6108a76001546001600160a01b031690565b6040516001600160e01b031960e084901b1681526001600160a01b0390911660048201526024015f604051808303815f87803b1580156108e5575f5ffd5b505af11580156108f7573d5f5f3e3d5ffd5b50505050816001600160a01b0316634141407c61091b5f546001600160a01b031690565b6040516001600160e01b031960e084901b1681526001600160a01b0390911660048201526024015f604051808303815f87803b158015610959575f5ffd5b505af115801561096b573d5f5f3e3d5ffd5b505f925050505b61097a61110d565b51811015610a1157826001600160a01b0316638ff3730f61099a836112be565b6109a261110d565b84815181106109b3576109b3613e43565b60200260200101516040518363ffffffff1660e01b81526004016109d8929190613e57565b5f604051808303815f87803b1580156109ef575f5ffd5b505af1158015610a01573d5f5f3e3d5ffd5b5050600190920191506109729050565b505f5b610a1c6113e3565b51811015610ab357826001600160a01b0316638ff3730f610a3c83611664565b610a446113e3565b8481518110610a5557610a55613e43565b60200260200101516040518363ffffffff1660e01b8152600401610a7a929190613e57565b5f604051808303815f87803b158015610a91575f5ffd5b505af1158015610aa3573d5f5f3e3d5ffd5b505060019092019150610a149050565b5050610b72565b829050306001600160a01b0316816001600160a01b031663f77c47916040518163ffffffff1660e01b8152600401602060405180830381865afa158015610b03573d5f5f3e3d5ffd5b505050506040513d601f19601f82011682018060405250810190610b279190613ec1565b6001600160a01b031614610b725760405162461bcd60e51b815260206004820152601260248201527134b73b30b634b21031b7b73a3937b63632b960711b604482015260640161079a565b60405163ad3f5f9b60e01b81526001600160a01b0382169063ad3f5f9b90610b9e908990600401613f36565b5f604051808303815f87803b158015610bb5575f5ffd5b505af1158015610bc7573d5f5f3e3d5ffd5b50505050610be383868860200151896060015160800151612181565b505050505050565b5f306001600160a01b031663ffd55e3c6040518163ffffffff1660e01b81526004016020604051808303815f875af1158015610c29573d5f5f3e3d5ffd5b505050506040513d601f19601f82011682018060405250810190610c4d9190614008565b90508015610c6e57604051630763fd9560e51b815260040160405180910390fd5b335f908152600760205260408120600201549003610c9f576040516387434f5160e01b815260040160405180910390fd5b610ca8336123d9565b60405133907f8154b6c5e1fc90d44b49808ef93f9739148d0821411890f8cd684385e24b9f1e905f90a250565b610cfc60405180608001604052805f81526020015f81526020015f81526020015f81525090565b506001600160a01b03165f90815260036020818152604092839020835160808101855281548152600182015492810192909252600281015493820193909352910154606082015290565b604051634f9a28b960e01b81523360048201525f903090634f9a28b990602401608060405180830381865afa158015610d81573d5f5f3e3d5ffd5b505050506040513d601f19601f82011682018060405250810190610da59190614023565b5092505081159050610dca57604051633e43a9bf60e21b815260040160405180910390fd5b5f306001600160a01b031663ffd55e3c6040518163ffffffff1660e01b81526004016020604051808303815f875af1158015610e08573d5f5f3e3d5ffd5b505050506040513d601f19601f82011682018060405250810190610e2c9190614008565b90508015610e4d57604051630763fd9560e51b815260040160405180910390fd5b335f908152600360208190526040822001549003610e7e5760405163ae69115b60e01b815260040160405180910390fd5b610e89338585612492565b50505050565b604051634f9a28b960e01b81523360048201525f903090634f9a28b990602401608060405180830381865afa158015610eca573d5f5f3e3d5ffd5b505050506040513d601f19601f82011682018060405250810190610eee9190614023565b5092505081159050610f1357604051633e43a9bf60e21b815260040160405180910390fd5b5f306001600160a01b031663ffd55e3c6040518163ffffffff1660e01b81526004016020604051808303815f875af1158015610f51573d5f5f3e3d5ffd5b505050506040513d601f19601f82011682018060405250810190610f759190614008565b90508015610f9657604051630763fd9560e51b815260040160405180910390fd5b335f818152600360208190526040822001549003610fc7576040516366ecbd6d60e01b815260040160405180910390fd5b83517f00000000000000000000000000000000000000000000000000000000000000001115611035578351604051632cbc002b60e11b815260048101919091527f0000000000000000000000000000000000000000000000000000000000000000602482015260440161079a565b60208401518451111561106b5783516020850151604051632dd0a90f60e21b81526004810192909252602482015260440161079a565b835160208501515f9161107d9161406a565b90506202a3008110156110a65760405163283cce6760e11b81526004810182905260240161079a565b6001600160a01b0382165f8181526006602090815260409182902088518082558983015160019092018290558351908152918201527f1846bde2c0888937a0a3af4e9b851b2e78758487d44a7ec04ae4bb3dc356b495910160405180910390a25050505050565b60607f00000000000000000000000000000000000000000000000000000000000000006001600160a01b031663222f6cb56040518163ffffffff1660e01b81526004015f60405180830381865afa15801561116a573d5f5f3e3d5ffd5b505050506040513d5f823e601f3d908101601f1916820160405261119191908101906140b3565b905090565b604051632d9ad53d60e01b81523060048201523390632d9ad53d90602401602060405180830381865afa1580156111cf573d5f5f3e3d5ffd5b505050506040513d601f19601f820116820180604052508101906111f39190614008565b6112125760405163026d963960e01b815233600482015260240161079a565b61121f8585858585612618565b5050505050565b604051632c4ce12960e01b81525f906001600160a01b037f00000000000000000000000000000000000000000000000000000000000000001690632c4ce1299061127690869086906004016141f5565b602060405180830381865afa158015611291573d5f5f3e3d5ffd5b505050506040513d601f19601f820116820180604052508101906112b59190613ec1565b90505b92915050565b60408051600160208201526060918101829052600a608082015269414343455054414e434560b01b60a08201529081018290525f9060c0015b60408051601f19818403018152919052805160209091012092915050565b5f6112b5826040518060200161132a90613666565b601f1982820381018352601f9091011660405261134f6002546001600160a01b031690565b6040516001600160a01b03881660248201526044810187905230606482015260840160408051601f19818403018152918152602080830180516001600160e01b03166369359f3760e11b17905290516113aa93929101614216565b60408051601f19818403018152908290526113c89291602001614258565b60405160208183030381529060405280519060200120612754565b60607f00000000000000000000000000000000000000000000000000000000000000006001600160a01b0316633ef01b8f6040518163ffffffff1660e01b81526004015f60405180830381865afa15801561116a573d5f5f3e3d5ffd5b611448612760565b6005805460ff60a01b198116600160a01b9182900460ff1615909102179055565b604051634f9a28b960e01b81523360048201525f903090634f9a28b990602401608060405180830381865afa1580156114a4573d5f5f3e3d5ffd5b505050506040513d601f19601f820116820180604052508101906114c89190614023565b50925050811590506114ed57604051633e43a9bf60e21b815260040160405180910390fd5b5f306001600160a01b031663ffd55e3c6040518163ffffffff1660e01b81526004016020604051808303815f875af115801561152b573d5f5f3e3d5ffd5b505050506040513d601f19601f8201168201806040525081019061154f9190614008565b9050801561157057604051630763fd9560e51b815260040160405180910390fd5b335f9081526003602081905260408220015490036115a15760405163ae69115b60e01b815260040160405180910390fd5b335f908152600360205260409020600101548311156115f157335f908152600360205260409081902060010154905163eb912f7160e01b815261079a918591600401918252602082015260400190565b825f0361161157604051637a0920b360e11b815260040160405180910390fd5b335f8181526003602081905260409182902001859055517fde3e32a86d32ca955594af26f515d3dc60003ab279776b14b4012fe99d96f8f6906116579086815260200190565b60405180910390a2505050565b5f6001826040516020016112f792919061426c565b604051634f9a28b960e01b81523360048201525f903090634f9a28b990602401608060405180830381865afa1580156116b4573d5f5f3e3d5ffd5b505050506040513d601f19601f820116820180604052508101906116d89190614023565b50925050811590506116fd57604051633e43a9bf60e21b815260040160405180910390fd5b5f306001600160a01b031663ffd55e3c6040518163ffffffff1660e01b81526004016020604051808303815f875af115801561173b573d5f5f3e3d5ffd5b505050506040513d601f19601f8201168201806040525081019061175f9190614008565b9050801561178057604051630763fd9560e51b815260040160405180910390fd5b335f8181526003602081815260408084208151608081018352815481526001820154818501526002820154818401529301546060840152938352600490529181206117cb908661278d565b335f908152600460205260408120919250906117e79087612804565b9050806118075760405163f3f7774960e01b815260040160405180910390fd5b5f8260200151846020015161181c919061406a565b9050836060015181101561185357606084015160405163eb912f7160e01b815261079a918391600401918252602082015260400190565b335f90815260036020526040812080549161186d8361429f565b9091555050602080840151335f90815260039092526040822060010180549192909161189a90849061406a565b9091555060029050835160028111156118b5576118b5613def565b036118e857602080840151335f9081526003909252604082206002018054919290916118e290849061406a565b90915550505b866001600160a01b0316336001600160a01b03167f99aeb23a57fa639a61aa8afa1b8b63e67a2e6d601c008c8a7cb4e0719992d199856020015160405161193191815260200190565b60405180910390a350505050505050565b61194a612760565b6119535f612835565b565b6001600160a01b0382165f9081526007602052604081206112b59060040183612886565b604051630a5e3ee760e41b81525f906001600160a01b037f0000000000000000000000000000000000000000000000000000000000000000169063a5e3ee709061127690869086906004016141f5565b5f306001600160a01b031663ffd55e3c6040518163ffffffff1660e01b81526004016020604051808303815f875af1158015611a07573d5f5f3e3d5ffd5b505050506040513d601f19601f82011682018060405250810190611a2b9190614008565b90508015611a4c57604051630763fd9560e51b815260040160405180910390fd5b6001600160a01b0382165f908152600760205260408120600201549003611a86576040516387434f5160e01b815260040160405180910390fd5b6001600160a01b0382165f90815260076020526040902060010154421015611aec576001600160a01b0382165f81815260076020526040908190206001015490516349d70fe360e11b81526004810192909252426024830152604482015260640161079a565b611af962015180426142b4565b6001600160a01b0383165f90815260086020526040902060010155611b1d826123d9565b6040516001600160a01b038316907f8154b6c5e1fc90d44b49808ef93f9739148d0821411890f8cd684385e24b9f1e905f90a25050565b5f5f611b5f83610cd5565b90505f8160600151118015611b7c57508060600151816040015110155b9392505050565b5f611b92836020015183611979565b90506001600160a01b038116611be55760405162461bcd60e51b81526020600482015260186024820152771a5b9d985b1a59081858d8dbdd5b9d081a5b88195b585a5b60421b604482015260640161079a565b5f611bf882856060015160a00151611315565b90505f816001600160a01b03163b11611c535760405162461bcd60e51b815260206004820152601860248201527f677561726469616e206973206e6f74206465706c6f7965640000000000000000604482015260640161079a565b5f600184604051602001611c6892919061426c565b60408051601f19818403018152919052805160209091012085519091508114611cc95760405162461bcd60e51b81526020600482015260136024820152721a5b9d985b1a59081d195b5c1b185d19481a59606a1b604482015260640161079a565b60405163ad3f5f9b60e01b815282906001600160a01b0382169063ad3f5f9b90611cf7908990600401613f36565b5f604051808303815f87803b158015611d0e575f5ffd5b505af1158015611d20573d5f5f3e3d5ffd5b50505050610be3838688602001518960600151608001516128a7565b6001600160a01b0381165f9081526004602052604090206060906112b890612e49565b5f306001600160a01b031663ffd55e3c6040518163ffffffff1660e01b81526004016020604051808303815f875af1158015611d9d573d5f5f3e3d5ffd5b505050506040513d601f19601f82011682018060405250810190611dc19190614008565b90508015611de257604051630763fd9560e51b815260040160405180910390fd5b6001600160a01b038416611e095760405163200db56f60e11b815260040160405180910390fd5b6001600160a01b0384165f908152600760209081526040808320600392839052908320909101549091819003611e5257604051635337335b60e11b815260040160405180910390fd5b8082600201541015611e8757600282015460405163443282f560e01b815260048101919091526024810182905260440161079a565b8154421015611eb5578154604051632f37ae3960e01b8152426004820152602481019190915260440161079a565b81600101544210611ee8576001820154604051632b356baf60e11b8152426004820152602481019190915260440161079a565b5f8585604051611ef99291906142c7565b6040518091039020905082600301548114611f37576003830154604051639e1a616f60e01b815261079a918391600401918252602082015260400190565b611f40876123d9565b611f4b878787612e54565b6040516001600160a01b038816907f46f5008939fa0b4beb46ae7f0e8368318bb72b56608910ca71c23e83382f609f905f90a250505050505050565b604080518082019091525f80825260208201526001600160a01b0383165f9081526004602052604090206112b5908361278d565b6001600160a01b038116611fed576040516325abcd9160e11b81526001600160a01b038216600482015260240161079a565b604051632d9ad53d60e01b81523060048201526001600160a01b03821690632d9ad53d90602401602060405180830381865afa15801561202f573d5f5f3e3d5ffd5b505050506040513d601f19601f820116820180604052508101906120539190614008565b1561207c57604051638078983d60e01b81526001600160a01b038216600482015260240161079a565b61208581612fa3565b50565b604051806060016040528060228152602001614806602291398051906020012081565b6120b3612760565b6001600160a01b0381166120dc57604051631e4fbdf760e01b81525f600482015260240161079a565b61208581612835565b5f5f826120fa6002546001600160a01b031690565b6040516001600160a01b03871660248201526044810186905230606482015260840160408051601f198184030181529181526020820180516001600160e01b03166369359f3760e11b1790525161215090613666565b61215b929190614216565b8190604051809103905ff5905080158015612178573d5f5f3e3d5ffd5b50949350505050565b5f306001600160a01b031663ffd55e3c6040518163ffffffff1660e01b81526004016020604051808303815f875af11580156121bf573d5f5f3e3d5ffd5b505050506040513d601f19601f820116820180604052508101906121e39190614008565b9050801561220457604051630763fd9560e51b815260040160405180910390fd5b60405163861f45b760e01b81525f906001600160a01b037f0000000000000000000000000000000000000000000000000000000000000000169063861f45b79061225490889088906004016142d6565b602060405180830381865afa15801561226f573d5f5f3e3d5ffd5b505050506040513d601f19601f820116820180604052508101906122939190613ec1565b6001600160a01b0381165f90815260076020526040902060020154909150156122cf57604051633e43a9bf60e21b815260040160405180910390fd5b6001600160a01b0381165f90815260036020819052604090912001546123085760405163c737140f60e01b815260040160405180910390fd5b5f6123138288611f87565b905060018151600281111561232a5761232a613def565b1461234e578051604051632b44da8d60e11b815261079a91906001906004016142ee565b61235a828860026130da565b806020015160035f846001600160a01b03166001600160a01b031681526020019081526020015f206002015f82825461239391906142b4565b90915550506040516001600160a01b0380891691908416907f442abc7a4ecd5a019ce3f9fa872ad2d87c094248c412954aaf8ccf7a538e938c905f90a350505050505050565b6001600160a01b0381165f908152600760205260408120906123fd600483016131d5565b80519091505f5b818110156124445761243b83828151811061242157612421613e43565b6020026020010151856004016131e190919063ffffffff16565b50600101612404565b506001600160a01b0384165f90815260076020526040812081815560018101829055600281018290556003810182905590600482018181816124868282613673565b50505050505050505050565b6001600160a01b03821615806124b95750826001600160a01b0316826001600160a01b0316145b156124e257604051631af7497560e01b81526001600160a01b038316600482015260240161079a565b805f036125015760405162a47bc760e51b815260040160405180910390fd5b5f61254c8360405180604001604052806001600281111561252457612524613def565b815260209081018690526001600160a01b0388165f90815260049091526040902091906131f5565b90508061256c57604051637270b0a760e11b815260040160405180910390fd5b6001600160a01b0384165f90815260036020526040812080549161258f83614309565b90915550506001600160a01b0384165f90815260036020526040812060010180548492906125be9084906142b4565b92505081905550826001600160a01b0316846001600160a01b03167f6e56b96fb8216ff6218412de4842e5d754f98ee57d19d9ed40af02fac2b30d9c8460405161260a91815260200190565b60405180910390a350505050565b5f306001600160a01b031663ffd55e3c6040518163ffffffff1660e01b81526004016020604051808303815f875af1158015612656573d5f5f3e3d5ffd5b505050506040513d601f19601f8201168201806040525081019061267a9190614008565b9050801561269b57604051630763fd9560e51b815260040160405180910390fd5b335f8181526003602081905260409091200154156126cc5760405163b3af559360e01b815260040160405180910390fd5b5f5f6126da838a8a8a613286565b604080518082019091528881526020810188905291935091506126fc81610e8f565b60408051848152602081018490529081018990526001600160a01b038516907fe8d4b5048e4b6ac385ae4b62872cffb372825354882a4823833c9720bacdfc6a9060600160405180910390a250505050505050505050565b5f6112b583833061339a565b6005546001600160a01b031633146119535760405163118cdaa760e01b815233600482015260240161079a565b604080518082019091525f80825260208201526001600160a01b0382165f9081526002808501602052604091829020825180840190935280549091839160ff16908111156127dd576127dd613def565b60028111156127ee576127ee613def565b8152602001600182015481525050905092915050565b6001600160a01b0381165f9081526002830160205260408120805460ff191681556001018190556112b583836131e1565b600580546001600160a01b038381166001600160a01b0319831681179093556040519116919082907f8be0079c531659141344cd1fd0a4f28419497f9722a3daafe3b4186f6b6457e0905f90a35050565b6001600160a01b0381165f90815260018301602052604081205415156112b5565b5f306001600160a01b031663ffd55e3c6040518163ffffffff1660e01b81526004016020604051808303815f875af11580156128e5573d5f5f3e3d5ffd5b505050506040513d601f19601f820116820180604052508101906129099190614008565b9050801561292a57604051630763fd9560e51b815260040160405180910390fd5b60405163029b2a1760e11b81525f906001600160a01b037f00000000000000000000000000000000000000000000000000000000000000001690630536542e9061297a90889088906004016142d6565b602060405180830381865afa158015612995573d5f5f3e3d5ffd5b505050506040513d601f19601f820116820180604052508101906129b99190613ec1565b90506129df816001600160a01b03165f9081526003602081905260409091200154151590565b6129fc5760405163c737140f60e01b815260040160405180910390fd5b6001600160a01b0381165f908152600360208181526040928390208351608081018552815481526001820154928101929092526002810154938201849052909101546060820181905290911015612a795760608101516040808301519051631f0fa60f60e21b81526004810192909252602482015260440161079a565b5f612a848389611f87565b9050600281516002811115612a9b57612a9b613def565b14612abf578051604051632b44da8d60e11b815261079a91906002906004016142ee565b6001600160a01b038084165f90815260076020526040808220905163da06673960e01b815290927f0000000000000000000000000000000000000000000000000000000000000000169063da06673990612b1f908c908c906004016142d6565b602060405180830381865afa158015612b3a573d5f5f3e3d5ffd5b505050506040513d601f19601f82011682018060405250810190612b5e9190614321565b9050612b6a858b611955565b15612b885760405163e11487a760e01b815260040160405180910390fd5b6001600160a01b038086165f90815260036020908152604080832054600890925290912060018101549054919242909111918116908d16148015612bc95750805b8015612bd55750600182115b15612bfe57604051638035b5fd60e01b81526001600160a01b038d16600482015260240161079a565b6003840154612cef578284600301819055508b60085f896001600160a01b03166001600160a01b031681526020019081526020015f205f015f6101000a8154816001600160a01b0302191690836001600160a01b031602179055505f60065f896001600160a01b03166001600160a01b031681526020019081526020015f206001015442612c8c91906142b4565b90508085600101819055508c6001600160a01b0316886001600160a01b03167f9ca1cbcd26e9b736cca48e36442bff1755b2b7bab34abc02f31799e500c0a0318387604051612ce5929190918252602082015260400190565b60405180910390a3505b82846003015414612d23576003840154604051639e1a616f60e01b815261079a918591600401918252602082015260400190565b8460200151846002015f828254612d3a91906142b4565b90915550612d4d9050600485018d6133cc565b508b6001600160a01b0316876001600160a01b03167f5aa823676e4da0337bf6a25190a447b23198601a92ee2fa36de835e75624179a86600201548860200151604051612da4929190918252602082015260400190565b60405180910390a38560600151846002015410612e3b576001600160a01b0387165f90815260066020526040812054612ddd90426142b4565b808655600186015460408051838152602081019290925281018690529091506001600160a01b03808f1691908a16907fbe82017c3d0c6b6283a0d6137f7aaa225271859454c3c1ff1a5a444ee23abd239060600160405180910390a3505b505050505050505050505050565b60606112b8826131d5565b5f612e6182840184614338565b9150505f6020820151905060405180606001604052806022815260200161480660229139805190602001206001600160e01b031916816001600160e01b03191614612ecb576040516312ba286f60e01b81526001600160e01b03198216600482015260240161079a565b5f806001600160a01b038716635229073f888387816040518563ffffffff1660e01b8152600401612eff9493929190614384565b5f604051808303815f875af1158015612f1a573d5f5f3e3d5ffd5b505050506040513d5f823e601f3d908101601f19168201604052612f4191908101906143be565b9150915081612f6757868160405163064ee61560e51b815260040161079a929190614216565b6040516001600160a01b038816907ffcd2de31341801b7fd80895c780aae50c1505fd674ff1b9b9764c56c633434d6905f90a250505050505050565b604051634f9a28b960e01b81523360048201525f903090634f9a28b990602401608060405180830381865afa158015612fde573d5f5f3e3d5ffd5b505050506040513d601f19601f820116820180604052508101906130029190614023565b509250508115905061302757604051633e43a9bf60e21b815260040160405180910390fd5b6001600160a01b0382165f9081526006602052604081208181556001015561304e826123d9565b6001600160a01b0382165f90815260086020526040812080546001600160a01b031916815560010155613080826133e0565b6001600160a01b0382165f8181526003602081905260408083208381556001810184905560028101849055909101829055517fe07cb859e0fb96f60563e9ac3596b37d0c617a96f9f6db589548caaa99fa9b669190a25050565b6001600160a01b0383165f9081526004602052604081206130fb908461278d565b8051909150600281111561311157613111613def565b82600281111561312357613123613def565b036131435781604051637e12071160e01b815260040161079a9190614414565b61319183604051806040016040528085600281111561316457613164613def565b8152602085810151918101919091526001600160a01b0388165f90815260049091526040902091906131f5565b50826001600160a01b0316846001600160a01b03167f6ae2e7cc465b15375a93daf2ea1e59f4c98d82465e7f2885f0b864db38b279748460405161260a9190614414565b60605f611b7c83613421565b5f6112b5836001600160a01b03841661347a565b6001600160a01b0382165f908152600280850160205260408220835181548593839160ff191690600190849081111561323057613230613def565b0217905550602091909101516001909101555f61324d85856133cc565b90505f6132598661355d565b90508180156132685750602081115b156121785760405163bb6c1e9360e01b815260040160405180910390fd5b825182515f91829181146132ba57845160405163166e79bd60e01b815261079a918391600401918252602082015260400190565b835f036132da57604051637a0920b360e11b815260040160405180910390fd5b5f5b8181101561332957613321888883815181106132fa576132fa613e43565b602002602001015188848151811061331457613314613e43565b6020026020010151612492565b6001016132dc565b506001600160a01b0387165f90815260036020526040902060010154808511156133705760405163eb912f7160e01b8152600481018690526024810182905260440161079a565b6001600160a01b03979097165f908152600360208190526040909120019390935550909492505050565b5f604051836040820152846020820152828152600b8101905060ff8153605590206001600160a01b0316949350505050565b5f6112b5836001600160a01b038416613566565b6001600160a01b0381165f9081526004602052604090206120859061340490612e49565b6001600160a01b0383165f908152600460205260409020906135b2565b6060815f0180548060200260200160405190810160405280929190818152602001828054801561346e57602002820191905f5260205f20905b81548152602001906001019080831161345a575b50505050509050919050565b5f8181526001830160205260408120548015613554575f61349c60018361406a565b85549091505f906134af9060019061406a565b905080821461350e575f865f0182815481106134cd576134cd613e43565b905f5260205f200154905080875f0184815481106134ed576134ed613e43565b5f918252602080832090910192909255918252600188019052604090208390555b855486908061351f5761351f614422565b600190038181905f5260205f20015f90559055856001015f8681526020019081526020015f205f9055600193505050506112b8565b5f9150506112b8565b5f6112b8825490565b5f8181526001830160205260408120546135ab57508154600181810184555f8481526020808220909301849055845484825282860190935260409020919091556112b8565b505f6112b8565b6020815111156135d55760405163e023c21160e01b815260040160405180910390fd5b5f5b815181101561366157826002015f8383815181106135f7576135f7613e43565b6020908102919091018101516001600160a01b031682528101919091526040015f908120805460ff191681556001015581516136589083908390811061363f5761363f613e43565b6020026020010151845f016131e190919063ffffffff16565b506001016135d7565b505050565b6103cf8061443783390190565b5080545f8255905f5260205f209081019061208591905b8082111561369d575f815560010161368a565b5090565b634e487b7160e01b5f52604160045260245ffd5b604051608081016001600160401b03811182821017156136d7576136d76136a1565b60405290565b60405161010081016001600160401b03811182821017156136d7576136d76136a1565b604051601f8201601f191681016001600160401b0381118282101715613728576137286136a1565b604052919050565b5f6001600160401b03821115613748576137486136a1565b5060051b60200190565b5f6001600160401b0382111561376a5761376a6136a1565b50601f01601f191660200190565b5f82601f830112613787575f5ffd5b8135602083015f61379f61379a84613752565b613700565b90508281528583830111156137b2575f5ffd5b828260208301375f92810160200192909252509392505050565b5f82601f8301126137db575f5ffd5b81356137e961379a82613730565b8082825260208201915060208360051b86010192508583111561380a575f5ffd5b602085015b8381101561384a5780356001600160401b0381111561382c575f5ffd5b61383b886020838a0101613778565b8452506020928301920161380f565b5095945050505050565b8015158114612085575f5ffd5b803561386c81613854565b919050565b5f5f60408385031215613882575f5ffd5b82356001600160401b03811115613897575f5ffd5b8301608081860312156138a8575f5ffd5b6138b06136b5565b8135815260208201356001600160401b038111156138cc575f5ffd5b6138d8878285016137cc565b6020830152506040828101359082015260608201356001600160401b03811115613900575f5ffd5b91909101906101008287031215613915575f5ffd5b61391d6136dd565b82356001600160401b03811115613932575f5ffd5b61393e88828601613778565b825250602083810135908201526040808401359082015260608301356001600160401b0381111561396d575f5ffd5b61397988828601613778565b6060830152506080838101359082015260a0808401359082015261399f60c08401613861565b60c082015260e08301356001600160401b038111156139bc575f5ffd5b6139c888828601613778565b60e083015250606082015295602094909401359450505050565b6001600160a01b0381168114612085575f5ffd5b5f60208284031215613a06575f5ffd5b8135611b7c816139e2565b5f5f60408385031215613a22575f5ffd5b8235613a2d816139e2565b946020939093013593505050565b5f6040828403128015613a4c575f5ffd5b50604080519081016001600160401b0381118282101715613a6f57613a6f6136a1565b604052823581526020928301359281019290925250919050565b5f81518084528060208401602086015e5f602082860101526020601f19601f83011685010191505092915050565b5f602082016020835280845180835260408501915060408160051b8601019250602086015f5b82811015613b5457868503603f19018452815180518087526020918201918088019190600582901b8901015f5b82811015613b3b57601f198a8303018452613b26828651613a89565b60209586019594909401939150600101613b0a565b5097505050602094850194929092019150600101613add565b50929695505050505050565b5f82601f830112613b6f575f5ffd5b8135613b7d61379a82613730565b8082825260208201915060208360051b860101925085831115613b9e575f5ffd5b602085015b8381101561384a578035835260209283019201613ba3565b5f5f5f5f5f60a08688031215613bcf575f5ffd5b85356001600160401b03811115613be4575f5ffd5b8601601f81018813613bf4575f5ffd5b8035613c0261379a82613730565b8082825260208201915060208360051b85010192508a831115613c23575f5ffd5b6020840193505b82841015613c4e578335613c3d816139e2565b825260209384019390910190613c2a565b975050505060208601356001600160401b03811115613c6b575f5ffd5b613c7788828901613b60565b959895975050505060408401359360608101359360809091013592509050565b5f5f60408385031215613ca8575f5ffd5b82356001600160401b03811115613cbd575f5ffd5b613cc9858286016137cc565b95602094909401359450505050565b5f60208284031215613ce8575f5ffd5b5035919050565b5f5f60408385031215613d00575f5ffd5b8235613d0b816139e2565b91506020830135613d1b816139e2565b809150509250929050565b602080825282518282018190525f918401906040840190835b81811015613d665783516001600160a01b0316835260209384019390920191600101613d3f565b509095945050505050565b5f5f5f60408486031215613d83575f5ffd5b8335613d8e816139e2565b925060208401356001600160401b03811115613da8575f5ffd5b8401601f81018613613db8575f5ffd5b80356001600160401b03811115613dcd575f5ffd5b866020828401011115613dde575f5ffd5b939660209190910195509293505050565b634e487b7160e01b5f52602160045260245ffd5b60038110613e1f57634e487b7160e01b5f52602160045260245ffd5b9052565b5f604082019050613e35828451613e03565b602092830151919092015290565b634e487b7160e01b5f52603260045260245ffd5b5f604082018483526040602084015280845180835260608501915060608160051b8601019250602086015f5b82811015613eb457605f19878603018452613e9f858351613a89565b94506020938401939190910190600101613e83565b5092979650505050505050565b5f60208284031215613ed1575f5ffd5b8151611b7c816139e2565b5f82825180855260208501945060208160051b830101602085015f5b83811015613f2a57601f19858403018852613f14838351613a89565b6020988901989093509190910190600101613ef8565b50909695505050505050565b60208152815160208201525f602083015160806040840152613f5b60a0840182613edc565b9050604084015160608401526060840151601f1984830301608085015280516101008352613f8d610100840182613a89565b9050602082015160208401526040820151604084015260608201518382036060850152613fba8282613a89565b9150506080820151608084015260a082015160a084015260c0820151613fe460c085018215159052565b5060e0820151915082810360e0840152613ffe8183613a89565b9695505050505050565b5f60208284031215614018575f5ffd5b8151611b7c81613854565b5f5f5f5f60808587031215614036575f5ffd5b505082516020840151604085015160609095015191969095509092509050565b634e487b7160e01b5f52601160045260245ffd5b818103818111156112b8576112b8614056565b5f61408a61379a84613752565b905082815283838301111561409d575f5ffd5b8282602083015e5f602084830101529392505050565b5f602082840312156140c3575f5ffd5b81516001600160401b038111156140d8575f5ffd5b8201601f810184136140e8575f5ffd5b80516140f661379a82613730565b8082825260208201915060208360051b850101925086831115614117575f5ffd5b602084015b838110156141ea5780516001600160401b03811115614139575f5ffd5b8501603f81018913614149575f5ffd5b602081015161415a61379a82613730565b808282526020820191506020808460051b8601010192508b83111561417d575f5ffd5b604084015b838110156141d45780516001600160401b0381111561419f575f5ffd5b85016020810190605f018e136141b3575f5ffd5b6141c58e60208301516040840161407d565b84525060209283019201614182565b508652505060209384019391909101905061411c565b509695505050505050565b604081525f6142076040830185613edc565b90508260208301529392505050565b6001600160a01b03831681526040602082018190525f9061423990830184613a89565b949350505050565b5f81518060208401855e5f93019283525090919050565b5f6142396142668386614241565b84614241565b60ff929092168252606060208301819052600890830152675245434f5645525960c01b6080830152604082015260a00190565b5f816142ad576142ad614056565b505f190190565b808201808211156112b8576112b8614056565b818382375f9101908152919050565b828152604060208201525f6142396040830184613edc565b604081016142fc8285613e03565b611b7c6020830184613e03565b5f6001820161431a5761431a614056565b5060010190565b5f60208284031215614331575f5ffd5b5051919050565b5f5f60408385031215614349575f5ffd5b8235614354816139e2565b915060208301356001600160401b0381111561436e575f5ffd5b61437a85828601613778565b9150509250929050565b60018060a01b0385168152836020820152608060408201525f6143aa6080830185613a89565b905060ff8316606083015295945050505050565b5f5f604083850312156143cf575f5ffd5b82516143da81613854565b60208401519092506001600160401b038111156143f5575f5ffd5b8301601f81018513614405575f5ffd5b61437a8582516020840161407d565b602081016112b88284613e03565b634e487b7160e01b5f52603160045260245ffdfe60806040526040516103cf3803806103cf8339810160408190526100229161023b565b61002c8282610033565b5050610320565b61003c82610091565b6040516001600160a01b038316907fbc7cd75a20ee27fd9adebab32041f755214dbc6bffa90cc0225b39da2e5c2d3b905f90a280511561008557610080828261010c565b505050565b61008d61017f565b5050565b806001600160a01b03163b5f036100cb57604051634c9c8ce360e01b81526001600160a01b03821660048201526024015b60405180910390fd5b7f360894a13ba1a3210667c828492db98dca3e2076cc3735a920a3ca505d382bbc80546001600160a01b0319166001600160a01b0392909216919091179055565b60605f5f846001600160a01b031684604051610128919061030a565b5f60405180830381855af49150503d805f8114610160576040519150601f19603f3d011682016040523d82523d5f602084013e610165565b606091505b5090925090506101768583836101a0565b95945050505050565b341561019e5760405163b398979f60e01b815260040160405180910390fd5b565b6060826101b5576101b0826101ff565b6101f8565b81511580156101cc57506001600160a01b0384163b155b156101f557604051639996b31560e01b81526001600160a01b03851660048201526024016100c2565b50805b9392505050565b80511561020e57805160208201fd5b60405163d6bda27560e01b815260040160405180910390fd5b634e487b7160e01b5f52604160045260245ffd5b5f5f6040838503121561024c575f5ffd5b82516001600160a01b0381168114610262575f5ffd5b60208401519092506001600160401b0381111561027d575f5ffd5b8301601f8101851361028d575f5ffd5b80516001600160401b038111156102a6576102a6610227565b604051601f8201601f19908116603f011681016001600160401b03811182821017156102d4576102d4610227565b6040528181528282016020018710156102eb575f5ffd5b8160208401602083015e5f602083830101528093505050509250929050565b5f82518060208501845e5f920191825250919050565b60a38061032c5f395ff3fe6080604052600a600c565b005b60186014601a565b6050565b565b5f604b7f360894a13ba1a3210667c828492db98dca3e2076cc3735a920a3ca505d382bbc546001600160a01b031690565b905090565b365f5f375f5f365f845af43d5f5f3e8080156069573d5ff35b3d5ffdfea2646970667358221220d981d9ee70f01ad48e7100822b90c6eac94807a706d05eca81ffeb3e95633e9964736f6c634300081c0033737761704f776e657228616464726573732c616464726573732c6164647265737329a264697066735822122032bd34ed6724bb1cec59925060f7ba4223a916031fd88fed5204192a8412e52064736f6c634300081c0033","linkReferences":{}},"methodIdentifiers":{"CANCEL_EXPIRED_RECOVERY_COOLDOWN()":"5707f318","MINIMUM_RECOVERY_WINDOW()":"99150680","acceptanceCommandTemplates()":"222f6cb5","addGuardian(address,uint256)":"111e5313","canStartRecoveryRequest(address)":"ada4cb70","cancelExpiredRecovery(address)":"ab1b5fde","cancelRecovery()":"0ba234d6","changeThreshold(uint256)":"694e80c3","commandHandler()":"d15558bf","completeRecovery(address,bytes)":"c18d09cf","computeAcceptanceTemplateId(uint256)":"32ccc2f2","computeEmailAuthAddress(address,bytes32)":"3a8eab14","computeRecoveryTemplateId(uint256)":"6da99515","configureSafeRecovery(address[],uint256[],uint256,uint256,uint256)":"2afb13be","dkim()":"400ad5ce","dkimAddr()":"73357f85","emailAuthImplementation()":"b6201692","emailAuthImplementationAddr()":"1098e02e","extractRecoveredAccountFromAcceptanceCommand(bytes[],uint256)":"2c4ce129","extractRecoveredAccountFromRecoveryCommand(bytes[],uint256)":"a5e3ee70","getAllGuardians(address)":"bbd2a05e","getGuardian(address,address)":"da34a850","getGuardianConfig(address)":"0bb6094a","getPreviousRecoveryRequest(address)":"86b97e51","getRecoveryConfig(address)":"2788bbda","getRecoveryRequest(address)":"4f9a28b9","handleAcceptance((uint256,bytes[],uint256,(string,bytes32,uint256,string,bytes32,bytes32,bool,bytes)),uint256)":"0481af67","handleRecovery((uint256,bytes[],uint256,(string,bytes32,uint256,string,bytes32,bytes32,bool,bytes)),uint256)":"b68126fa","hasGuardianVoted(address,address)":"9c8f8439","isActivated(address)":"c9faa7c5","killSwitchEnabled()":"ffd55e3c","minimumDelay()":"427ad624","owner()":"8da5cb5b","recoveryCommandTemplates()":"3ef01b8f","removeGuardian(address)":"71404156","renounceOwnership()":"715018a6","resetWhenDisabled(address)":"e45db12b","selector()":"ea3d508a","toggleKillSwitch()":"4630f1d5","transferOwnership(address)":"f2fde38b","updateRecoveryConfig((uint256,uint256))":"1788178f","verifier()":"2b7ac3f3","verifierAddr()":"663ea2e2"},"id":299}