{"abi":[{"type":"constructor","inputs":[{"name":"_verifier","type":"address","internalType":"address"},{"name":"_emailAuthImpl","type":"address","internalType":"address"}],"stateMutability":"nonpayable"},{"type":"function","name":"deployUniversalEmailRecoveryModule","inputs":[{"name":"commandHandlerSalt","type":"bytes32","internalType":"bytes32"},{"name":"recoveryModuleSalt","type":"bytes32","internalType":"bytes32"},{"name":"commandHandlerBytecode","type":"bytes","internalType":"bytes"},{"name":"minimumDelay","type":"uint256","internalType":"uint256"},{"name":"killSwitchAuthorizer","type":"address","internalType":"address"},{"name":"dkimRegistry","type":"address","internalType":"address"}],"outputs":[{"name":"","type":"address","internalType":"address"},{"name":"","type":"address","internalType":"address"}],"stateMutability":"nonpayable"},{"type":"function","name":"emailAuthImpl","inputs":[],"outputs":[{"name":"","type":"address","internalType":"address"}],"stateMutability":"view"},{"type":"function","name":"verifier","inputs":[],"outputs":[{"name":"","type":"address","internalType":"address"}],"stateMutability":"view"},{"type":"event","name":"UniversalEmailRecoveryModuleDeployed","inputs":[{"name":"emailRecoveryModule","type":"address","indexed":false,"internalType":"address"},{"name":"commandHandler","type":"address","indexed":false,"internalType":"address"}],"anonymous":false},{"type":"error","name":"Create2EmptyBytecode","inputs":[]},{"type":"error","name":"FailedDeployment","inputs":[]},{"type":"error","name":"InsufficientBalance","inputs":[{"name":"balance","type":"uint256","internalType":"uint256"},{"name":"needed","type":"uint256","internalType":"uint256"}]},{"type":"error","name":"InvalidEmailAuthImpl","inputs":[]},{"type":"error","name":"InvalidVerifier","inputs":[]}],"bytecode":{"object":"0x60c060405234801561000f575f5ffd5b50604051615e53380380615e5383398101604081905261002e916100ae565b6001600160a01b0382166100555760405163baa3de5f60e01b815260040160405180910390fd5b6001600160a01b03811661007c5760405163e98100fb60e01b815260040160405180910390fd5b6001600160a01b039182166080521660a0526100df565b80516001600160a01b03811681146100a9575f5ffd5b919050565b5f5f604083850312156100bf575f5ffd5b6100c883610093565b91506100d660208401610093565b90509250929050565b60805160a051615d4761010c5f395f818160bf015261014c01525f81816080015261012a0152615d475ff3fe608060405234801561000f575f5ffd5b506004361061003f575f3560e01c806326c28475146100435780632b7ac3f31461007b5780632d11d36e146100ba575b5f5ffd5b6100566100513660046102e9565b6100e1565b604080516001600160a01b039384168152929091166020830152015b60405180910390f35b6100a27f000000000000000000000000000000000000000000000000000000000000000081565b6040516001600160a01b039091168152602001610072565b6100a27f000000000000000000000000000000000000000000000000000000000000000081565b5f5f5f6101245f8b8a8a8080601f0160208091040260200160405190810160405280939291908181526020018383808284375f9201919091525061022292505050565b90505f897f0000000000000000000000000000000000000000000000000000000000000000867f0000000000000000000000000000000000000000000000000000000000000000858b8b60405161017a906102c1565b6001600160a01b039687168152948616602086015292851660408501529084166060840152608083015290911660a082015260c0018190604051809103905ff59050801580156101cc573d5f5f3e3d5ffd5b50604080516001600160a01b038084168252851660208201529192507f6602f3bf0eb74c3ca4ad2bf6bfe58ec73b28e0ee8bff6fe9ee3dccf4b3408d93910160405180910390a19a909950975050505050505050565b5f834710156102515760405163cf47918160e01b81524760048201526024810185905260440160405180910390fd5b81515f0361027257604051631328927760e21b815260040160405180910390fd5b8282516020840186f590503d151981151615610293576040513d5f823e3d81fd5b6001600160a01b0381166102ba5760405163b06ebf3d60e01b815260040160405180910390fd5b9392505050565b61597e8061039483390190565b80356001600160a01b03811681146102e4575f5ffd5b919050565b5f5f5f5f5f5f5f60c0888a0312156102ff575f5ffd5b8735965060208801359550604088013567ffffffffffffffff811115610323575f5ffd5b8801601f81018a13610333575f5ffd5b803567ffffffffffffffff811115610349575f5ffd5b8a602082840101111561035a575f5ffd5b6020919091019550935060608801359250610377608089016102ce565b915061038560a089016102ce565b90509295989194975092955056fe60c060405234801561000f575f5ffd5b5060405161597e38038061597e83398101604081905261002e916101ef565b858585858585806001600160a01b03811661006257604051631e4fbdf760e01b81525f600482015260240160405180910390fd5b61006b81610183565b506001600160a01b0386166100935760405163baa3de5f60e01b815260040160405180910390fd5b6001600160a01b0385166100ba5760405163260ce05b60e01b815260040160405180910390fd5b6001600160a01b0384166100e15760405163e98100fb60e01b815260040160405180910390fd5b6001600160a01b0383166101085760405163fce1ed6f60e01b815260040160405180910390fd5b6001600160a01b03811661012f57604051630a19006f60e01b815260040160405180910390fd5b505f80546001600160a01b03199081166001600160a01b0397881617909155600180548216958716959095179094556002805490941692851692909217909255911660805260a05250610258945050505050565b600580546001600160a01b038381166001600160a01b0319831681179093556040519116919082907f8be0079c531659141344cd1fd0a4f28419497f9722a3daafe3b4186f6b6457e0905f90a35050565b80516001600160a01b03811681146101ea575f5ffd5b919050565b5f5f5f5f5f5f60c08789031215610204575f5ffd5b61020d876101d4565b955061021b602088016101d4565b9450610229604088016101d4565b9350610237606088016101d4565b92506080870151915061024c60a088016101d4565b90509295509295509295565b60805160a0516156c66102b85f395f81816105000152818161128301526112c101525f81816107f4015281816114cf0152818161156d0152818161171501528181611e3e0152818161296d0152818161320301526133a801526156c65ff3fe608060405234801561000f575f5ffd5b50600436106102ff575f3560e01c80636da9951511610195578063b6201692116100e4578063d15558bf1161009e578063da34a85011610079578063da34a8501461083c578063ecd059611461085c578063f2fde38b14610870578063ffd55e3c14610883575f5ffd5b8063d15558bf146107ef578063d60b347f14610816578063d779a85014610829575f5ffd5b8063b620169214610757578063b68126fa14610768578063bbd2a05e1461077b578063c18d09cf1461079b578063c7f53022146107ae578063c9faa7c5146107c1575f5ffd5b80638a91b0e31161014f5780639c8f84391161012a5780639c8f8439146106ff578063a5e3ee7014610712578063ab1b5fde14610725578063b264314f14610738575f5ffd5b80638a91b0e3146106d15780638da5cb5b146106e457806399150680146106f5575f5ffd5b80636da995151461060e5780637140415614610621578063714897df14610634578063715018a61461063c57806373357f851461064457806386b97e5114610657575f5ffd5b806332ccc2f2116102515780634f9a28b91161020b578063647e2853116101e6578063647e2853146105b3578063663ea2e2146105d6578063694e80c3146105e85780636d61fe70146105fb575f5ffd5b80634f9a28b91461052a57806354fd4d50146105885780635707f318146105a9575f5ffd5b806332ccc2f2146104ae5780633a8eab14146104cf5780633ef01b8f146104e2578063400ad5ce146104ea578063427ad624146104fb5780634630f1d514610522575f5ffd5b8063111e5313116102bc578063222f6cb511610297578063222f6cb5146104085780632788bbda1461041d5780632b7ac3f31461048b5780632c4ce1291461049b575f5ffd5b8063111e5313146103c25780631788178f146103d557806318baa84b146103e8575f5ffd5b806301eedf2c146103035780630481af671461031857806306fdde031461032b5780630ba234d6146103495780630bb6094a146103515780631098e02e14610397575b5f5ffd5b61031661031136600461431a565b610897565b005b610316610326366004614529565b6109d9565b610333610e83565b60405161034091906146c8565b60405180910390f35b610316610ea3565b61036461035f3660046146da565b610f8d565b60405161034091908151815260208083015190820152604080830151908201526060918201519181019190915260800190565b6002546103aa906001600160a01b031681565b6040516001600160a01b039091168152602001610340565b6103166103d03660046146f5565b610ffe565b6103166103e336600461471f565b611147565b6103fb6103f63660046146da565b6113c5565b604051610340919061476d565b6104106114cb565b6040516103409190614813565b61047061042b3660046146da565b604080518082019091525f8082526020820152506001600160a01b03165f90815260066020908152604091829020825180840190935280548352600101549082015290565b60408051825181526020928301519281019290925201610340565b5f546001600160a01b03166103aa565b6103aa6104a9366004614876565b611554565b6104c16104bc3660046148b7565b6115ec565b604051908152602001610340565b6103aa6104dd3660046146f5565b611643565b610410611711565b6001546001600160a01b03166103aa565b6104c17f000000000000000000000000000000000000000000000000000000000000000081565b61031661176e565b6105686105383660046146da565b6001600160a01b03165f908152600760205260409020805460018201546002830154600390930154919390929190565b604080519485526020850193909352918301526060820152608001610340565b6040805180820190915260058152640312e302e360dc1b6020820152610333565b6104c16201518081565b6105c66105c13660046148ce565b611797565b6040519015158152602001610340565b5f546103aa906001600160a01b031681565b6103166105f63660046148b7565b6117ef565b610316610609366004614949565b6119ea565b6104c161061c3660046148b7565b611a6e565b61031661062f3660046146da565b611a83565b6104c1602081565b610316611d4c565b6001546103aa906001600160a01b031681565b6106ad6106653660046146da565b6040805180820182525f80825260209182018190526001600160a01b039384168152600882528290208251808401909352805490931682526001909201549181019190915290565b6040805182516001600160a01b031681526020928301519281019290925201610340565b6103166106df366004614949565b611d5f565b6005546001600160a01b03166103aa565b6104c16202a30081565b6105c661070d3660046148ce565b611e01565b6103aa610720366004614876565b611e25565b6103166107333660046146da565b611e75565b6104c16107463660046146da565b600a6020525f908152604090205481565b6002546001600160a01b03166103aa565b610316610776366004614529565b612000565b61078e6107893660046146da565b6121b9565b6040516103409190614987565b6103166107a93660046149c7565b6121dc565b61078e6107bc3660046146da565b612404565b6105c66107cf3660046146da565b6001600160a01b03165f9081526003602081905260409091200154151590565b6103aa7f000000000000000000000000000000000000000000000000000000000000000081565b6105c66108243660046146da565b612436565b610316610837366004614a17565b61244c565b61084f61084a3660046148ce565b6126fa565b6040516103409190614a9d565b6105c661086a3660046148b7565b60021490565b61031661087e3660046146da565b61272e565b6005546105c690600160a01b900460ff1681565b335f908152600960209081526040808320600184529091529020546001600160a01b03166108d857604051630b088c2360e01b815260040160405180910390fd5b335f9081526009602052604090206108f190838561276b565b335f908152600a6020526040812080549161090b83614ad1565b90915550506001600160a01b0383165f908152600b6020908152604080832033845290915290205460e01b6001600160e01b03199081169082161461096e57806040516312ba286f60e01b81526004016109659190614ae6565b60405180910390fd5b6001600160a01b0383165f818152600b6020908152604080832033808552925291829020805463ffffffff1916905590517ff0197ce362f35457b805abe6aecdbf4435a7d26f4e4a8721f3ccf16e40a9fa89906109cc908590614ae6565b60405180910390a3505050565b5f6109e8836020015183611554565b90506001600160a01b038116610a3b5760405162461bcd60e51b81526020600482015260186024820152771a5b9d985b1a59081858d8dbdd5b9d081a5b88195b585a5b60421b6044820152606401610965565b5f610a4e82856060015160a00151611643565b90505f610a5a846115ec565b85519091508114610aa35760405162461bcd60e51b81526020600482015260136024820152721a5b9d985b1a59081d195b5c1b185d19481a59606a1b6044820152606401610965565b606085015160c001511515600114610af45760405162461bcd60e51b81526020600482015260146024820152736973436f646545786973742069732066616c736560601b6044820152606401610965565b5f826001600160a01b03163b5f03610d52575f610b1985886060015160a0015161283e565b9050809150816001600160a01b031663557cf5ef610b3f6001546001600160a01b031690565b6040516001600160e01b031960e084901b1681526001600160a01b0390911660048201526024015f604051808303815f87803b158015610b7d575f5ffd5b505af1158015610b8f573d5f5f3e3d5ffd5b50505050816001600160a01b0316634141407c610bb35f546001600160a01b031690565b6040516001600160e01b031960e084901b1681526001600160a01b0390911660048201526024015f604051808303815f87803b158015610bf1575f5ffd5b505af1158015610c03573d5f5f3e3d5ffd5b505f925050505b610c126114cb565b51811015610ca957826001600160a01b0316638ff3730f610c32836115ec565b610c3a6114cb565b8481518110610c4b57610c4b614afb565b60200260200101516040518363ffffffff1660e01b8152600401610c70929190614b0f565b5f604051808303815f87803b158015610c87575f5ffd5b505af1158015610c99573d5f5f3e3d5ffd5b505060019092019150610c0a9050565b505f5b610cb4611711565b51811015610d4b57826001600160a01b0316638ff3730f610cd483611a6e565b610cdc611711565b8481518110610ced57610ced614afb565b60200260200101516040518363ffffffff1660e01b8152600401610d12929190614b0f565b5f604051808303815f87803b158015610d29575f5ffd5b505af1158015610d3b573d5f5f3e3d5ffd5b505060019092019150610cac9050565b5050610e0a565b829050306001600160a01b0316816001600160a01b031663f77c47916040518163ffffffff1660e01b8152600401602060405180830381865afa158015610d9b573d5f5f3e3d5ffd5b505050506040513d601f19601f82011682018060405250810190610dbf9190614b27565b6001600160a01b031614610e0a5760405162461bcd60e51b815260206004820152601260248201527134b73b30b634b21031b7b73a3937b63632b960711b6044820152606401610965565b60405163ad3f5f9b60e01b81526001600160a01b0382169063ad3f5f9b90610e36908990600401614b42565b5f604051808303815f87803b158015610e4d575f5ffd5b505af1158015610e5f573d5f5f3e3d5ffd5b50505050610e7b838688602001518960600151608001516128d1565b505050505050565b606060405180606001604052806024815260200161566d60249139905090565b5f306001600160a01b031663ffd55e3c6040518163ffffffff1660e01b81526004016020604051808303815f875af1158015610ee1573d5f5f3e3d5ffd5b505050506040513d601f19601f82011682018060405250810190610f059190614c14565b90508015610f2657604051630763fd9560e51b815260040160405180910390fd5b335f908152600760205260408120600201549003610f57576040516387434f5160e01b815260040160405180910390fd5b610f6033612b29565b60405133907f8154b6c5e1fc90d44b49808ef93f9739148d0821411890f8cd684385e24b9f1e905f90a250565b610fb460405180608001604052805f81526020015f81526020015f81526020015f81525090565b506001600160a01b03165f90815260036020818152604092839020835160808101855281548152600182015492810192909252600281015493820193909352910154606082015290565b604051634f9a28b960e01b81523360048201525f903090634f9a28b990602401608060405180830381865afa158015611039573d5f5f3e3d5ffd5b505050506040513d601f19601f8201168201806040525081019061105d9190614c2f565b509250508115905061108257604051633e43a9bf60e21b815260040160405180910390fd5b5f306001600160a01b031663ffd55e3c6040518163ffffffff1660e01b81526004016020604051808303815f875af11580156110c0573d5f5f3e3d5ffd5b505050506040513d601f19601f820116820180604052508101906110e49190614c14565b9050801561110557604051630763fd9560e51b815260040160405180910390fd5b335f9081526003602081905260408220015490036111365760405163ae69115b60e01b815260040160405180910390fd5b611141338585612bd6565b50505050565b604051634f9a28b960e01b81523360048201525f903090634f9a28b990602401608060405180830381865afa158015611182573d5f5f3e3d5ffd5b505050506040513d601f19601f820116820180604052508101906111a69190614c2f565b50925050811590506111cb57604051633e43a9bf60e21b815260040160405180910390fd5b5f306001600160a01b031663ffd55e3c6040518163ffffffff1660e01b81526004016020604051808303815f875af1158015611209573d5f5f3e3d5ffd5b505050506040513d601f19601f8201168201806040525081019061122d9190614c14565b9050801561124e57604051630763fd9560e51b815260040160405180910390fd5b335f81815260036020819052604082200154900361127f576040516366ecbd6d60e01b815260040160405180910390fd5b83517f000000000000000000000000000000000000000000000000000000000000000011156112ed578351604051632cbc002b60e11b815260048101919091527f00000000000000000000000000000000000000000000000000000000000000006024820152604401610965565b6020840151845111156113235783516020850151604051632dd0a90f60e21b815260048101929092526024820152604401610965565b835160208501515f9161133591614c62565b90506202a30081101561135e5760405163283cce6760e11b815260048101829052602401610965565b6001600160a01b0382165f8181526006602090815260409182902088518082558983015160019092018290558351908152918201527f1846bde2c0888937a0a3af4e9b851b2e78758487d44a7ec04ae4bb3dc356b495910160405180910390a25050505050565b60605f6113d183612404565b80519091505f816001600160401b038111156113ef576113ef61435e565b604051908082528060200260200182016040528015611418578160200160208202803683370190505b5090505f5b828110156114c257600b5f85838151811061143a5761143a614afb565b60200260200101516001600160a01b03166001600160a01b031681526020019081526020015f205f876001600160a01b03166001600160a01b031681526020019081526020015f205f9054906101000a900460e01b8282815181106114a1576114a1614afb565b6001600160e01b03199092166020928302919091019091015260010161141d565b50949350505050565b60607f00000000000000000000000000000000000000000000000000000000000000006001600160a01b031663222f6cb56040518163ffffffff1660e01b81526004015f60405180830381865afa158015611528573d5f5f3e3d5ffd5b505050506040513d5f823e601f3d908101601f1916820160405261154f9190810190614cab565b905090565b604051632c4ce12960e01b81525f906001600160a01b037f00000000000000000000000000000000000000000000000000000000000000001690632c4ce129906115a49086908690600401614ded565b602060405180830381865afa1580156115bf573d5f5f3e3d5ffd5b505050506040513d601f19601f820116820180604052508101906115e39190614b27565b90505b92915050565b60408051600160208201526060918101829052600a608082015269414343455054414e434560b01b60a08201529081018290525f9060c0015b60408051601f19818403018152919052805160209091012092915050565b5f6115e38260405180602001611658906142af565b601f1982820381018352601f9091011660405261167d6002546001600160a01b031690565b6040516001600160a01b03881660248201526044810187905230606482015260840160408051601f19818403018152918152602080830180516001600160e01b03166369359f3760e11b17905290516116d893929101614e0e565b60408051601f19818403018152908290526116f69291602001614e48565b60405160208183030381529060405280519060200120612d5c565b60607f00000000000000000000000000000000000000000000000000000000000000006001600160a01b0316633ef01b8f6040518163ffffffff1660e01b81526004015f60405180830381865afa158015611528573d5f5f3e3d5ffd5b611776612d68565b6005805460ff60a01b198116600160a01b9182900460ff1615909102179055565b5f5f6117a284610f8d565b90505f81606001511180156117bf57508060600151816040015110155b80156117e757506001600160a01b0384165f9081526009602052604090206117e79084612d95565b949350505050565b604051634f9a28b960e01b81523360048201525f903090634f9a28b990602401608060405180830381865afa15801561182a573d5f5f3e3d5ffd5b505050506040513d601f19601f8201168201806040525081019061184e9190614c2f565b509250508115905061187357604051633e43a9bf60e21b815260040160405180910390fd5b5f306001600160a01b031663ffd55e3c6040518163ffffffff1660e01b81526004016020604051808303815f875af11580156118b1573d5f5f3e3d5ffd5b505050506040513d601f19601f820116820180604052508101906118d59190614c14565b905080156118f657604051630763fd9560e51b815260040160405180910390fd5b335f9081526003602081905260408220015490036119275760405163ae69115b60e01b815260040160405180910390fd5b335f9081526003602052604090206001015483111561197757335f908152600360205260409081902060010154905163eb912f7160e01b8152610965918591600401918252602082015260400190565b825f0361199757604051637a0920b360e11b815260040160405180910390fd5b335f8181526003602081905260409182902001859055517fde3e32a86d32ca955594af26f515d3dc60003ab279776b14b4012fe99d96f8f6906119dd9086815260200190565b60405180910390a2505050565b5f819003611a0b57604051632e111c4160e11b815260040160405180910390fd5b5f80808080808080611a1f898b018b614f26565b335f908152600960205260409020979f50959d50939b509199509750955093509150611a4a90612dcd565b611a5588888861244c565b611a628585858585612e28565b50505050505050505050565b5f600182604051602001611625929190614fec565b604051634f9a28b960e01b81523360048201525f903090634f9a28b990602401608060405180830381865afa158015611abe573d5f5f3e3d5ffd5b505050506040513d601f19601f82011682018060405250810190611ae29190614c2f565b5092505081159050611b0757604051633e43a9bf60e21b815260040160405180910390fd5b5f306001600160a01b031663ffd55e3c6040518163ffffffff1660e01b81526004016020604051808303815f875af1158015611b45573d5f5f3e3d5ffd5b505050506040513d601f19601f82011682018060405250810190611b699190614c14565b90508015611b8a57604051630763fd9560e51b815260040160405180910390fd5b335f818152600360208181526040808420815160808101835281548152600182015481850152600282015481840152930154606084015293835260049052918120611bd59086612f64565b335f90815260046020526040812091925090611bf19087612fdb565b905080611c115760405163f3f7774960e01b815260040160405180910390fd5b5f82602001518460200151611c269190614c62565b90508360600151811015611c5d57606084015160405163eb912f7160e01b8152610965918391600401918252602082015260400190565b335f908152600360205260408120805491611c7783614ad1565b9091555050602080840151335f908152600390925260408220600101805491929091611ca4908490614c62565b909155506002905083516002811115611cbf57611cbf614a69565b03611cf257602080840151335f908152600390925260408220600201805491929091611cec908490614c62565b90915550505b866001600160a01b0316336001600160a01b03167f99aeb23a57fa639a61aa8afa1b8b63e67a2e6d601c008c8a7cb4e0719992d1998560200151604051611d3b91815260200190565b60405180910390a350505050505050565b611d54612d68565b611d5d5f61300c565b565b5f611d6933612404565b90505f5b8151811015611dcd57600b5f838381518110611d8b57611d8b614afb565b6020908102919091018101516001600160a01b031682528181019290925260409081015f9081203382529092529020805463ffffffff19169055600101611d6d565b50335f908152600960205260409020611de59061305d565b335f908152600a6020526040812055611dfc6130b8565b505050565b6001600160a01b0382165f9081526007602052604081206115e39060040183613146565b604051630a5e3ee760e41b81525f906001600160a01b037f0000000000000000000000000000000000000000000000000000000000000000169063a5e3ee70906115a49086908690600401614ded565b5f306001600160a01b031663ffd55e3c6040518163ffffffff1660e01b81526004016020604051808303815f875af1158015611eb3573d5f5f3e3d5ffd5b505050506040513d601f19601f82011682018060405250810190611ed79190614c14565b90508015611ef857604051630763fd9560e51b815260040160405180910390fd5b6001600160a01b0382165f908152600760205260408120600201549003611f32576040516387434f5160e01b815260040160405180910390fd5b6001600160a01b0382165f90815260076020526040902060010154421015611f98576001600160a01b0382165f81815260076020526040908190206001015490516349d70fe360e11b815260048101929092524260248301526044820152606401610965565b611fa5620151804261501f565b6001600160a01b0383165f90815260086020526040902060010155611fc982612b29565b6040516001600160a01b038316907f8154b6c5e1fc90d44b49808ef93f9739148d0821411890f8cd684385e24b9f1e905f90a25050565b5f61200f836020015183611e25565b90506001600160a01b0381166120625760405162461bcd60e51b81526020600482015260186024820152771a5b9d985b1a59081858d8dbdd5b9d081a5b88195b585a5b60421b6044820152606401610965565b5f61207582856060015160a00151611643565b90505f816001600160a01b03163b116120d05760405162461bcd60e51b815260206004820152601860248201527f677561726469616e206973206e6f74206465706c6f79656400000000000000006044820152606401610965565b5f6001846040516020016120e5929190614fec565b60408051601f198184030181529190528051602090910120855190915081146121465760405162461bcd60e51b81526020600482015260136024820152721a5b9d985b1a59081d195b5c1b185d19481a59606a1b6044820152606401610965565b60405163ad3f5f9b60e01b815282906001600160a01b0382169063ad3f5f9b90612174908990600401614b42565b5f604051808303815f87803b15801561218b575f5ffd5b505af115801561219d573d5f5f3e3d5ffd5b50505050610e7b83868860200151896060015160800151613167565b6001600160a01b0381165f9081526004602052604090206060906115e690613709565b5f306001600160a01b031663ffd55e3c6040518163ffffffff1660e01b81526004016020604051808303815f875af115801561221a573d5f5f3e3d5ffd5b505050506040513d601f19601f8201168201806040525081019061223e9190614c14565b9050801561225f57604051630763fd9560e51b815260040160405180910390fd5b6001600160a01b0384166122865760405163200db56f60e11b815260040160405180910390fd5b6001600160a01b0384165f9081526007602090815260408083206003928390529083209091015490918190036122cf57604051635337335b60e11b815260040160405180910390fd5b808260020154101561230457600282015460405163443282f560e01b8152600481019190915260248101829052604401610965565b8154421015612332578154604051632f37ae3960e01b81524260048201526024810191909152604401610965565b81600101544210612365576001820154604051632b356baf60e11b81524260048201526024810191909152604401610965565b5f8585604051612376929190615032565b60405180910390209050826003015481146123b4576003830154604051639e1a616f60e01b8152610965918391600401918252602082015260400190565b6123bd87612b29565b6123c8878787613714565b6040516001600160a01b038816907f46f5008939fa0b4beb46ae7f0e8368318bb72b56608910ca71c23e83382f609f905f90a250505050505050565b6001600160a01b0381165f90815260096020908152604082206060929161242e9190600190613820565b509392505050565b5f61244082610f8d565b60600151151592915050565b335f908152600960209081526040808320600184529091529020546001600160a01b031661248d57604051630b088c2360e01b815260040160405180910390fd5b8281336001600160a01b03831603612530576001600160e01b03198116630d582f1360e01b148015906124d157506001600160e01b0319811663f8dc5dd960e01b14155b80156124ee57506001600160e01b0319811663e318b52b60e01b14155b801561250b57506001600160e01b0319811663694e80c360e01b14155b1561252b57806040516312ba286f60e01b81526004016109659190614ae6565b612592565b6001600160e01b031981166306d61fe760e41b148061255f57506001600160e01b03198116638a91b0e360e01b145b8061257257506001600160e01b03198116155b1561259257806040516312ba286f60e01b81526004016109659190614ae6565b60405163112d3a7d60e01b8152339063112d3a7d906125ba9060019089908990600401615041565b602060405180830381865afa1580156125d5573d5f5f3e3d5ffd5b505050506040513d601f19601f820116820180604052508101906125f99190614c14565b61262057604051628eae2b60e51b81526001600160a01b0386166004820152602401610965565b335f908152600a602090815260409091205410612650576040516376bca46b60e11b815260040160405180910390fd5b335f90815260096020526040902061266890866139c7565b335f908152600a602052604081208054916126828361506a565b90915550506001600160a01b0385165f818152600b6020908152604080832033808552925291829020805463ffffffff191660e088901c17905590517f83ccdcb4121fbd52f43483b0109351c571e564b33420da9b26a05346a739f66b906126eb908790614ae6565b60405180910390a35050505050565b604080518082019091525f80825260208201526001600160a01b0383165f9081526004602052604090206115e39083612f64565b612736612d68565b6001600160a01b03811661275f57604051631e4fbdf760e01b81525f6004820152602401610965565b6127688161300c565b50565b6001600160a01b038116158061278a57506001600160a01b0381166001145b156127b357604051637c84ecfb60e01b81526001600160a01b0383166004820152602401610965565b6001600160a01b038281165f908152602085905260409020548116908216146127fa57604051637c84ecfb60e01b81526001600160a01b0382166004820152602401610965565b6001600160a01b039081165f8181526020949094526040808520805494841686529085208054949093166001600160a01b0319948516179092559092528154169055565b5f5f826128536002546001600160a01b031690565b6040516001600160a01b03871660248201526044810186905230606482015260840160408051601f198184030181529181526020820180516001600160e01b03166369359f3760e11b179052516128a9906142af565b6128b4929190614e0e565b8190604051809103905ff59050801580156114c2573d5f5f3e3d5ffd5b5f306001600160a01b031663ffd55e3c6040518163ffffffff1660e01b81526004016020604051808303815f875af115801561290f573d5f5f3e3d5ffd5b505050506040513d601f19601f820116820180604052508101906129339190614c14565b9050801561295457604051630763fd9560e51b815260040160405180910390fd5b60405163861f45b760e01b81525f906001600160a01b037f0000000000000000000000000000000000000000000000000000000000000000169063861f45b7906129a49088908890600401614b0f565b602060405180830381865afa1580156129bf573d5f5f3e3d5ffd5b505050506040513d601f19601f820116820180604052508101906129e39190614b27565b6001600160a01b0381165f9081526007602052604090206002015490915015612a1f57604051633e43a9bf60e21b815260040160405180910390fd5b6001600160a01b0381165f9081526003602081905260409091200154612a585760405163c737140f60e01b815260040160405180910390fd5b5f612a6382886126fa565b9050600181516002811115612a7a57612a7a614a69565b14612a9e578051604051632b44da8d60e11b81526109659190600190600401615082565b612aaa82886002613a9b565b806020015160035f846001600160a01b03166001600160a01b031681526020019081526020015f206002015f828254612ae3919061501f565b90915550506040516001600160a01b0380891691908416907f442abc7a4ecd5a019ce3f9fa872ad2d87c094248c412954aaf8ccf7a538e938c905f90a350505050505050565b6001600160a01b0381165f90815260076020526040812090612b4d60048301613b96565b80519091505f5b81811015612b9457612b8b838281518110612b7157612b71614afb565b602002602001015185600401613ba990919063ffffffff16565b50600101612b54565b506001600160a01b0384165f9081526007602052604081208181556001810182905560028101829055600381018290559060048201818181611a6282826142bc565b6001600160a01b0382161580612bfd5750826001600160a01b0316826001600160a01b0316145b15612c2657604051631af7497560e01b81526001600160a01b0383166004820152602401610965565b805f03612c455760405162a47bc760e51b815260040160405180910390fd5b5f612c9083604051806040016040528060016002811115612c6857612c68614a69565b815260209081018690526001600160a01b0388165f9081526004909152604090209190613bbd565b905080612cb057604051637270b0a760e11b815260040160405180910390fd5b6001600160a01b0384165f908152600360205260408120805491612cd38361506a565b90915550506001600160a01b0384165f9081526003602052604081206001018054849290612d0290849061501f565b92505081905550826001600160a01b0316846001600160a01b03167f6e56b96fb8216ff6218412de4842e5d754f98ee57d19d9ed40af02fac2b30d9c84604051612d4e91815260200190565b60405180910390a350505050565b5f6115e3838330613c4e565b6005546001600160a01b03163314611d5d5760405163118cdaa760e01b8152336004820152602401610965565b5f60016001600160a01b038316148015906115e35750506001600160a01b039081165f90815260209290925260409091205416151590565b60015f908152602082905260409020546001600160a01b031615612e04576040516329e42f3360e11b815260040160405180910390fd5b60015f818152602092909252604090912080546001600160a01b0319169091179055565b5f306001600160a01b031663ffd55e3c6040518163ffffffff1660e01b81526004016020604051808303815f875af1158015612e66573d5f5f3e3d5ffd5b505050506040513d601f19601f82011682018060405250810190612e8a9190614c14565b90508015612eab57604051630763fd9560e51b815260040160405180910390fd5b335f818152600360208190526040909120015415612edc5760405163b3af559360e01b815260040160405180910390fd5b5f5f612eea838a8a8a613c80565b60408051808201909152888152602081018890529193509150612f0c81611147565b60408051848152602081018490529081018990526001600160a01b038516907fe8d4b5048e4b6ac385ae4b62872cffb372825354882a4823833c9720bacdfc6a9060600160405180910390a250505050505050505050565b604080518082019091525f80825260208201526001600160a01b0382165f9081526002808501602052604091829020825180840190935280549091839160ff1690811115612fb457612fb4614a69565b6002811115612fc557612fc5614a69565b8152602001600182015481525050905092915050565b6001600160a01b0381165f9081526002830160205260408120805460ff191681556001018190556115e38383613ba9565b600580546001600160a01b038381166001600160a01b0319831681179093556040519116919082907f8be0079c531659141344cd1fd0a4f28419497f9722a3daafe3b4186f6b6457e0905f90a35050565b60015f908152602082905260409020546001600160a01b03165b6001600160a01b038116156130b4576001600160a01b039081165f90815260208390526040902080546001600160a01b0319811690915516613077565b5050565b604051634f9a28b960e01b81523360048201525f903090634f9a28b990602401608060405180830381865afa1580156130f3573d5f5f3e3d5ffd5b505050506040513d601f19601f820116820180604052508101906131179190614c2f565b509250508115905061313c57604051633e43a9bf60e21b815260040160405180910390fd5b336130b481613d94565b6001600160a01b0381165f90815260018301602052604081205415156115e3565b5f306001600160a01b031663ffd55e3c6040518163ffffffff1660e01b81526004016020604051808303815f875af11580156131a5573d5f5f3e3d5ffd5b505050506040513d601f19601f820116820180604052508101906131c99190614c14565b905080156131ea57604051630763fd9560e51b815260040160405180910390fd5b60405163029b2a1760e11b81525f906001600160a01b037f00000000000000000000000000000000000000000000000000000000000000001690630536542e9061323a9088908890600401614b0f565b602060405180830381865afa158015613255573d5f5f3e3d5ffd5b505050506040513d601f19601f820116820180604052508101906132799190614b27565b905061329f816001600160a01b03165f9081526003602081905260409091200154151590565b6132bc5760405163c737140f60e01b815260040160405180910390fd5b6001600160a01b0381165f9081526003602081815260409283902083516080810185528154815260018201549281019290925260028101549382018490529091015460608201819052909110156133395760608101516040808301519051631f0fa60f60e21b815260048101929092526024820152604401610965565b5f61334483896126fa565b905060028151600281111561335b5761335b614a69565b1461337f578051604051632b44da8d60e11b81526109659190600290600401615082565b6001600160a01b038084165f90815260076020526040808220905163da06673960e01b815290927f0000000000000000000000000000000000000000000000000000000000000000169063da066739906133df908c908c90600401614b0f565b602060405180830381865afa1580156133fa573d5f5f3e3d5ffd5b505050506040513d601f19601f8201168201806040525081019061341e919061509d565b905061342a858b611e01565b156134485760405163e11487a760e01b815260040160405180910390fd5b6001600160a01b038086165f90815260036020908152604080832054600890925290912060018101549054919242909111918116908d161480156134895750805b80156134955750600182115b156134be57604051638035b5fd60e01b81526001600160a01b038d166004820152602401610965565b60038401546135af578284600301819055508b60085f896001600160a01b03166001600160a01b031681526020019081526020015f205f015f6101000a8154816001600160a01b0302191690836001600160a01b031602179055505f60065f896001600160a01b03166001600160a01b031681526020019081526020015f20600101544261354c919061501f565b90508085600101819055508c6001600160a01b0316886001600160a01b03167f9ca1cbcd26e9b736cca48e36442bff1755b2b7bab34abc02f31799e500c0a03183876040516135a5929190918252602082015260400190565b60405180910390a3505b828460030154146135e3576003840154604051639e1a616f60e01b8152610965918591600401918252602082015260400190565b8460200151846002015f8282546135fa919061501f565b9091555061360d9050600485018d613ecb565b508b6001600160a01b0316876001600160a01b03167f5aa823676e4da0337bf6a25190a447b23198601a92ee2fa36de835e75624179a86600201548860200151604051613664929190918252602082015260400190565b60405180910390a385606001518460020154106136fb576001600160a01b0387165f9081526006602052604081205461369d904261501f565b808655600186015460408051838152602081019290925281018690529091506001600160a01b03808f1691908a16907fbe82017c3d0c6b6283a0d6137f7aaa225271859454c3c1ff1a5a444ee23abd239060600160405180910390a3505b505050505050505050505050565b60606115e682613b96565b5f80613722838501856150b4565b90925090506001600160a01b03821661375857604051628eae2b60e51b81526001600160a01b0383166004820152602401610965565b5f613767606460608688615100565b61377091615127565b6001600160a01b038085165f908152600b60209081526040808320938b168352929052205490915060e01b6001600160e01b0319808216908316146137ca57816040516312ba286f60e01b81526004016109659190614ae6565b6137d687855f86613edf565b50836001600160a01b0316876001600160a01b03167f60f9f98be64687700419cfa6fdd7877bc88c6daeb10bc664a2be9fdd6b0c792160405160405180910390a350505050505050565b60605f6001600160a01b03841660011480159061384457506138428585612d95565b155b1561386d57604051637c84ecfb60e01b81526001600160a01b0385166004820152602401610965565b825f0361388d5760405163f725081760e01b815260040160405180910390fd5b826001600160401b038111156138a5576138a561435e565b6040519080825280602002602001820160405280156138ce578160200160208202803683370190505b506001600160a01b038086165f90815260208890526040812054929450911691505b6001600160a01b0382161580159061391257506001600160a01b038216600114155b801561391d57508381105b15613976578183828151811061393557613935614afb565b6001600160a01b039283166020918202929092018101919091529281165f90815292879052604090922054909116908061396e8161506a565b9150506138f0565b6001600160a01b03821660011480159061398f57505f81115b156139bb57826139a0600183614c62565b815181106139b0576139b0614afb565b602002602001015191505b80835250935093915050565b6001600160a01b03811615806139e657506001600160a01b0381166001145b15613a0f57604051637c84ecfb60e01b81526001600160a01b0382166004820152602401610965565b6001600160a01b038181165f908152602084905260409020541615613a5257604051631034f46960e21b81526001600160a01b0382166004820152602401610965565b60015f818152602093909352604080842080546001600160a01b039485168087529286208054959091166001600160a01b03199586161790559190935280549091169091179055565b6001600160a01b0383165f908152600460205260408120613abc9084612f64565b80519091506002811115613ad257613ad2614a69565b826002811115613ae457613ae4614a69565b03613b045781604051637e12071160e01b8152600401610965919061515d565b613b52836040518060400160405280856002811115613b2557613b25614a69565b8152602085810151918101919091526001600160a01b0388165f9081526004909152604090209190613bbd565b50826001600160a01b0316846001600160a01b03167f6ae2e7cc465b15375a93daf2ea1e59f4c98d82465e7f2885f0b864db38b2797484604051612d4e919061515d565b60605f613ba283613f8e565b9392505050565b5f6115e3836001600160a01b038416613fe7565b6001600160a01b0382165f908152600280850160205260408220835181548593839160ff1916906001908490811115613bf857613bf8614a69565b0217905550602091909101516001909101555f613c158585613ecb565b90505f613c21866140d1565b9050818015613c305750602081115b156114c25760405163bb6c1e9360e01b815260040160405180910390fd5b5f604051836040820152846020820152828152600b8101905060ff8153605590206001600160a01b0316949350505050565b825182515f9182918114613cb457845160405163166e79bd60e01b8152610965918391600401918252602082015260400190565b835f03613cd457604051637a0920b360e11b815260040160405180910390fd5b5f5b81811015613d2357613d1b88888381518110613cf457613cf4614afb565b6020026020010151888481518110613d0e57613d0e614afb565b6020026020010151612bd6565b600101613cd6565b506001600160a01b0387165f9081526003602052604090206001015480851115613d6a5760405163eb912f7160e01b81526004810186905260248101829052604401610965565b6001600160a01b03979097165f908152600360208190526040909120019390935550909492505050565b604051634f9a28b960e01b81523360048201525f903090634f9a28b990602401608060405180830381865afa158015613dcf573d5f5f3e3d5ffd5b505050506040513d601f19601f82011682018060405250810190613df39190614c2f565b5092505081159050613e1857604051633e43a9bf60e21b815260040160405180910390fd5b6001600160a01b0382165f90815260066020526040812081815560010155613e3f82612b29565b6001600160a01b0382165f90815260086020526040812080546001600160a01b031916815560010155613e71826140da565b6001600160a01b0382165f8181526003602081905260408083208381556001810184905560028101849055909101829055517fe07cb859e0fb96f60563e9ac3596b37d0c617a96f9f6db589548caaa99fa9b669190a25050565b5f6115e3836001600160a01b03841661411b565b60605f613eee81808080614167565b9050856001600160a01b031663d691c96482613f0b8888886141d1565b6040518363ffffffff1660e01b8152600401613f2892919061516b565b5f604051808303815f875af1158015613f43573d5f5f3e3d5ffd5b505050506040513d5f823e601f3d908101601f19168201604052613f6a9190810190615183565b5f81518110613f7b57613f7b614afb565b6020026020010151915050949350505050565b6060815f01805480602002602001604051908101604052809291908181526020018280548015613fdb57602002820191905f5260205f20905b815481526020019060010190808311613fc7575b50505050509050919050565b5f81815260018301602052604081205480156140c1575f614009600183614c62565b85549091505f9061401c90600190614c62565b905080821461407b575f865f01828154811061403a5761403a614afb565b905f5260205f200154905080875f01848154811061405a5761405a614afb565b5f918252602080832090910192909255918252600188019052604090208390555b855486908061408c5761408c61523a565b600190038181905f5260205f20015f90559055856001015f8681526020019081526020015f205f9055600193505050506115e6565b5f9150506115e6565b5092915050565b5f6115e6825490565b6001600160a01b0381165f908152600460205260409020612768906140fe90613709565b6001600160a01b0383165f90815260046020526040902090614200565b5f81815260018301602052604081205461416057508154600181810184555f8481526020808220909301849055845484825282860190935260409020919091556115e6565b505f6115e6565b604080516001600160f81b03198087166020830152851660218201525f602282018190526001600160e01b03198516602683015269ffffffffffffffffffff198416602a83015291016040516020818303038152906040526141c89061524e565b95945050505050565b60608383836040516020016141e893929190615274565b60405160208183030381529060405290509392505050565b6020815111156142235760405163e023c21160e01b815260040160405180910390fd5b5f5b8151811015611dfc57826002015f83838151811061424557614245614afb565b6020908102919091018101516001600160a01b031682528101919091526040015f908120805460ff191681556001015581516142a69083908390811061428d5761428d614afb565b6020026020010151845f01613ba990919063ffffffff16565b50600101614225565b6103cf8061529e83390190565b5080545f8255905f5260205f209081019061276891905b808211156142e6575f81556001016142d3565b5090565b6001600160a01b0381168114612768575f5ffd5b80356001600160e01b031981168114614315575f5ffd5b919050565b5f5f5f6060848603121561432c575f5ffd5b8335614337816142ea565b92506020840135614347816142ea565b9150614355604085016142fe565b90509250925092565b634e487b7160e01b5f52604160045260245ffd5b604051608081016001600160401b03811182821017156143945761439461435e565b60405290565b60405161010081016001600160401b03811182821017156143945761439461435e565b604051601f8201601f191681016001600160401b03811182821017156143e5576143e561435e565b604052919050565b5f6001600160401b038211156144055761440561435e565b5060051b60200190565b5f6001600160401b038211156144275761442761435e565b50601f01601f191660200190565b5f82601f830112614444575f5ffd5b8135602083015f61445c6144578461440f565b6143bd565b905082815285838301111561446f575f5ffd5b828260208301375f92810160200192909252509392505050565b5f82601f830112614498575f5ffd5b81356144a6614457826143ed565b8082825260208201915060208360051b8601019250858311156144c7575f5ffd5b602085015b838110156145075780356001600160401b038111156144e9575f5ffd5b6144f8886020838a0101614435565b845250602092830192016144cc565b5095945050505050565b8015158114612768575f5ffd5b803561431581614511565b5f5f6040838503121561453a575f5ffd5b82356001600160401b0381111561454f575f5ffd5b830160808186031215614560575f5ffd5b614568614372565b8135815260208201356001600160401b03811115614584575f5ffd5b61459087828501614489565b6020830152506040828101359082015260608201356001600160401b038111156145b8575f5ffd5b919091019061010082870312156145cd575f5ffd5b6145d561439a565b82356001600160401b038111156145ea575f5ffd5b6145f688828601614435565b825250602083810135908201526040808401359082015260608301356001600160401b03811115614625575f5ffd5b61463188828601614435565b6060830152506080838101359082015260a0808401359082015261465760c0840161451e565b60c082015260e08301356001600160401b03811115614674575f5ffd5b61468088828601614435565b60e083015250606082015295602094909401359450505050565b5f81518084528060208401602086015e5f602082860101526020601f19601f83011685010191505092915050565b602081525f6115e3602083018461469a565b5f602082840312156146ea575f5ffd5b8135613ba2816142ea565b5f5f60408385031215614706575f5ffd5b8235614711816142ea565b946020939093013593505050565b5f6040828403128015614730575f5ffd5b50604080519081016001600160401b03811182821017156147535761475361435e565b604052823581526020928301359281019290925250919050565b602080825282518282018190525f918401906040840190835b818110156147ae5783516001600160e01b031916835260209384019390920191600101614786565b509095945050505050565b5f82825180855260208501945060208160051b830101602085015f5b8381101561480757601f198584030188526147f183835161469a565b60209889019890935091909101906001016147d5565b50909695505050505050565b5f602082016020835280845180835260408501915060408160051b8601019250602086015f5b8281101561486a57603f198786030184526148558583516147b9565b94506020938401939190910190600101614839565b50929695505050505050565b5f5f60408385031215614887575f5ffd5b82356001600160401b0381111561489c575f5ffd5b6148a885828601614489565b95602094909401359450505050565b5f602082840312156148c7575f5ffd5b5035919050565b5f5f604083850312156148df575f5ffd5b82356148ea816142ea565b915060208301356148fa816142ea565b809150509250929050565b5f5f83601f840112614915575f5ffd5b5081356001600160401b0381111561492b575f5ffd5b602083019150836020828501011115614942575f5ffd5b9250929050565b5f5f6020838503121561495a575f5ffd5b82356001600160401b0381111561496f575f5ffd5b61497b85828601614905565b90969095509350505050565b602080825282518282018190525f918401906040840190835b818110156147ae5783516001600160a01b03168352602093840193909201916001016149a0565b5f5f5f604084860312156149d9575f5ffd5b83356149e4816142ea565b925060208401356001600160401b038111156149fe575f5ffd5b614a0a86828701614905565b9497909650939450505050565b5f5f5f60608486031215614a29575f5ffd5b8335614a34816142ea565b925060208401356001600160401b03811115614a4e575f5ffd5b614a5a86828701614435565b925050614355604085016142fe565b634e487b7160e01b5f52602160045260245ffd5b60038110614a9957634e487b7160e01b5f52602160045260245ffd5b9052565b5f604082019050614aaf828451614a7d565b602092830151919092015290565b634e487b7160e01b5f52601160045260245ffd5b5f81614adf57614adf614abd565b505f190190565b6001600160e01b031991909116815260200190565b634e487b7160e01b5f52603260045260245ffd5b828152604060208201525f6117e760408301846147b9565b5f60208284031215614b37575f5ffd5b8151613ba2816142ea565b60208152815160208201525f602083015160806040840152614b6760a08401826147b9565b9050604084015160608401526060840151601f1984830301608085015280516101008352614b9961010084018261469a565b9050602082015160208401526040820151604084015260608201518382036060850152614bc6828261469a565b9150506080820151608084015260a082015160a084015260c0820151614bf060c085018215159052565b5060e0820151915082810360e0840152614c0a818361469a565b9695505050505050565b5f60208284031215614c24575f5ffd5b8151613ba281614511565b5f5f5f5f60808587031215614c42575f5ffd5b505082516020840151604085015160609095015191969095509092509050565b818103818111156115e6576115e6614abd565b5f614c826144578461440f565b9050828152838383011115614c95575f5ffd5b8282602083015e5f602084830101529392505050565b5f60208284031215614cbb575f5ffd5b81516001600160401b03811115614cd0575f5ffd5b8201601f81018413614ce0575f5ffd5b8051614cee614457826143ed565b8082825260208201915060208360051b850101925086831115614d0f575f5ffd5b602084015b83811015614de25780516001600160401b03811115614d31575f5ffd5b8501603f81018913614d41575f5ffd5b6020810151614d52614457826143ed565b808282526020820191506020808460051b8601010192508b831115614d75575f5ffd5b604084015b83811015614dcc5780516001600160401b03811115614d97575f5ffd5b85016020810190605f018e13614dab575f5ffd5b614dbd8e602083015160408401614c75565b84525060209283019201614d7a565b5086525050602093840193919091019050614d14565b509695505050505050565b604081525f614dff60408301856147b9565b90508260208301529392505050565b6001600160a01b03831681526040602082018190525f906117e79083018461469a565b5f81518060208401855e5f93019283525090919050565b5f6117e7614e568386614e31565b84614e31565b8035614315816142ea565b5f82601f830112614e76575f5ffd5b8135614e84614457826143ed565b8082825260208201915060208360051b860101925085831115614ea5575f5ffd5b602085015b83811015614507578035614ebd816142ea565b835260209283019201614eaa565b5f82601f830112614eda575f5ffd5b8135614ee8614457826143ed565b8082825260208201915060208360051b860101925085831115614f09575f5ffd5b602085015b83811015614507578035835260209283019201614f0e565b5f5f5f5f5f5f5f5f610100898b031215614f3e575f5ffd5b614f4789614e5c565b975060208901356001600160401b03811115614f61575f5ffd5b614f6d8b828c01614435565b975050614f7c60408a016142fe565b955060608901356001600160401b03811115614f96575f5ffd5b614fa28b828c01614e67565b95505060808901356001600160401b03811115614fbd575f5ffd5b614fc98b828c01614ecb565b989b979a50959894979660a0860135965060c08601359560e00135945092505050565b60ff929092168252606060208301819052600890830152675245434f5645525960c01b6080830152604082015260a00190565b808201808211156115e6576115e6614abd565b818382375f9101908152919050565b8381526001600160a01b03831660208201526060604082018190525f906141c89083018461469a565b5f6001820161507b5761507b614abd565b5060010190565b604081016150908285614a7d565b613ba26020830184614a7d565b5f602082840312156150ad575f5ffd5b5051919050565b5f5f604083850312156150c5575f5ffd5b82356150d0816142ea565b915060208301356001600160401b038111156150ea575f5ffd5b6150f685828601614435565b9150509250929050565b5f5f8585111561510e575f5ffd5b8386111561511a575f5ffd5b5050820193919092039150565b80356001600160e01b031981169060048410156140ca576001600160e01b031960049490940360031b84901b1690921692915050565b602081016115e68284614a7d565b828152604060208201525f6117e7604083018461469a565b5f60208284031215615193575f5ffd5b81516001600160401b038111156151a8575f5ffd5b8201601f810184136151b8575f5ffd5b80516151c6614457826143ed565b8082825260208201915060208360051b8501019250868311156151e7575f5ffd5b602084015b83811015614de25780516001600160401b03811115615209575f5ffd5b8501603f81018913615219575f5ffd5b61522b89602083015160408401614c75565b845250602092830192016151ec565b634e487b7160e01b5f52603160045260245ffd5b8051602080830151919081101561526e575f198160200360031b1b821691505b50919050565b6bffffffffffffffffffffffff198460601b1681528260148201525f6141c86034830184614e3156fe60806040526040516103cf3803806103cf8339810160408190526100229161023b565b61002c8282610033565b5050610320565b61003c82610091565b6040516001600160a01b038316907fbc7cd75a20ee27fd9adebab32041f755214dbc6bffa90cc0225b39da2e5c2d3b905f90a280511561008557610080828261010c565b505050565b61008d61017f565b5050565b806001600160a01b03163b5f036100cb57604051634c9c8ce360e01b81526001600160a01b03821660048201526024015b60405180910390fd5b7f360894a13ba1a3210667c828492db98dca3e2076cc3735a920a3ca505d382bbc80546001600160a01b0319166001600160a01b0392909216919091179055565b60605f5f846001600160a01b031684604051610128919061030a565b5f60405180830381855af49150503d805f8114610160576040519150601f19603f3d011682016040523d82523d5f602084013e610165565b606091505b5090925090506101768583836101a0565b95945050505050565b341561019e5760405163b398979f60e01b815260040160405180910390fd5b565b6060826101b5576101b0826101ff565b6101f8565b81511580156101cc57506001600160a01b0384163b155b156101f557604051639996b31560e01b81526001600160a01b03851660048201526024016100c2565b50805b9392505050565b80511561020e57805160208201fd5b60405163d6bda27560e01b815260040160405180910390fd5b634e487b7160e01b5f52604160045260245ffd5b5f5f6040838503121561024c575f5ffd5b82516001600160a01b0381168114610262575f5ffd5b60208401519092506001600160401b0381111561027d575f5ffd5b8301601f8101851361028d575f5ffd5b80516001600160401b038111156102a6576102a6610227565b604051601f8201601f19908116603f011681016001600160401b03811182821017156102d4576102d4610227565b6040528181528282016020018710156102eb575f5ffd5b8160208401602083015e5f602083830101528093505050509250929050565b5f82518060208501845e5f920191825250919050565b60a38061032c5f395ff3fe6080604052600a600c565b005b60186014601a565b6050565b565b5f604b7f360894a13ba1a3210667c828492db98dca3e2076cc3735a920a3ca505d382bbc546001600160a01b031690565b905090565b365f5f375f5f365f845af43d5f5f3e8080156069573d5ff35b3d5ffdfea2646970667358221220d981d9ee70f01ad48e7100822b90c6eac94807a706d05eca81ffeb3e95633e9964736f6c634300081c00335a4b456d61696c2e556e6976657273616c456d61696c5265636f766572794d6f64756c65a2646970667358221220c4064f2b22db3f6a38aa9a75c4762d53ca1c88e04e385a726cf94691b20045c264736f6c634300081c0033a2646970667358221220308cd032fc85bff8ae9917fc670de6defc3ddd9b8bda9e99f9c9d0d9be0804b364736f6c634300081c0033","linkReferences":{}},"methodIdentifiers":{"deployUniversalEmailRecoveryModule(bytes32,bytes32,bytes,uint256,address,address)":"26c28475","emailAuthImpl()":"2d11d36e","verifier()":"2b7ac3f3"},"id":286}