{"abi":[{"type":"constructor","inputs":[{"name":"verifier","type":"address","internalType":"address"},{"name":"dkimRegistry","type":"address","internalType":"address"},{"name":"emailAuthImpl","type":"address","internalType":"address"},{"name":"commandHandler","type":"address","internalType":"address"},{"name":"minimumDelay","type":"uint256","internalType":"uint256"},{"name":"killSwitchAuthorizer","type":"address","internalType":"address"},{"name":"validator","type":"address","internalType":"address"},{"name":"selector","type":"bytes4","internalType":"bytes4"}],"stateMutability":"nonpayable"},{"type":"function","name":"CANCEL_EXPIRED_RECOVERY_COOLDOWN","inputs":[],"outputs":[{"name":"","type":"uint256","internalType":"uint256"}],"stateMutability":"view"},{"type":"function","name":"MINIMUM_RECOVERY_WINDOW","inputs":[],"outputs":[{"name":"","type":"uint256","internalType":"uint256"}],"stateMutability":"view"},{"type":"function","name":"acceptanceCommandTemplates","inputs":[],"outputs":[{"name":"","type":"string[][]","internalType":"string[][]"}],"stateMutability":"view"},{"type":"function","name":"addGuardian","inputs":[{"name":"guardian","type":"address","internalType":"address"},{"name":"weight","type":"uint256","internalType":"uint256"}],"outputs":[],"stateMutability":"nonpayable"},{"type":"function","name":"canStartRecoveryRequest","inputs":[{"name":"account","type":"address","internalType":"address"}],"outputs":[{"name":"","type":"bool","internalType":"bool"}],"stateMutability":"view"},{"type":"function","name":"cancelExpiredRecovery","inputs":[{"name":"account","type":"address","internalType":"address"}],"outputs":[],"stateMutability":"nonpayable"},{"type":"function","name":"cancelRecovery","inputs":[],"outputs":[],"stateMutability":"nonpayable"},{"type":"function","name":"changeThreshold","inputs":[{"name":"threshold","type":"uint256","internalType":"uint256"}],"outputs":[],"stateMutability":"nonpayable"},{"type":"function","name":"commandHandler","inputs":[],"outputs":[{"name":"","type":"address","internalType":"address"}],"stateMutability":"view"},{"type":"function","name":"completeRecovery","inputs":[{"name":"account","type":"address","internalType":"address"},{"name":"recoveryData","type":"bytes","internalType":"bytes"}],"outputs":[],"stateMutability":"nonpayable"},{"type":"function","name":"computeAcceptanceTemplateId","inputs":[{"name":"templateIdx","type":"uint256","internalType":"uint256"}],"outputs":[{"name":"","type":"uint256","internalType":"uint256"}],"stateMutability":"pure"},{"type":"function","name":"computeEmailAuthAddress","inputs":[{"name":"recoveredAccount","type":"address","internalType":"address"},{"name":"accountSalt","type":"bytes32","internalType":"bytes32"}],"outputs":[{"name":"","type":"address","internalType":"address"}],"stateMutability":"view"},{"type":"function","name":"computeRecoveryTemplateId","inputs":[{"name":"templateIdx","type":"uint256","internalType":"uint256"}],"outputs":[{"name":"","type":"uint256","internalType":"uint256"}],"stateMutability":"pure"},{"type":"function","name":"dkim","inputs":[],"outputs":[{"name":"","type":"address","internalType":"address"}],"stateMutability":"view"},{"type":"function","name":"dkimAddr","inputs":[],"outputs":[{"name":"","type":"address","internalType":"address"}],"stateMutability":"view"},{"type":"function","name":"emailAuthImplementation","inputs":[],"outputs":[{"name":"","type":"address","internalType":"address"}],"stateMutability":"view"},{"type":"function","name":"emailAuthImplementationAddr","inputs":[],"outputs":[{"name":"","type":"address","internalType":"address"}],"stateMutability":"view"},{"type":"function","name":"exposed_recover","inputs":[{"name":"account","type":"address","internalType":"address"},{"name":"recoveryData","type":"bytes","internalType":"bytes"}],"outputs":[],"stateMutability":"nonpayable"},{"type":"function","name":"extractRecoveredAccountFromAcceptanceCommand","inputs":[{"name":"commandParams","type":"bytes[]","internalType":"bytes[]"},{"name":"templateIdx","type":"uint256","internalType":"uint256"}],"outputs":[{"name":"","type":"address","internalType":"address"}],"stateMutability":"view"},{"type":"function","name":"extractRecoveredAccountFromRecoveryCommand","inputs":[{"name":"commandParams","type":"bytes[]","internalType":"bytes[]"},{"name":"templateIdx","type":"uint256","internalType":"uint256"}],"outputs":[{"name":"","type":"address","internalType":"address"}],"stateMutability":"view"},{"type":"function","name":"getAllGuardians","inputs":[{"name":"account","type":"address","internalType":"address"}],"outputs":[{"name":"","type":"address[]","internalType":"address[]"}],"stateMutability":"view"},{"type":"function","name":"getGuardian","inputs":[{"name":"account","type":"address","internalType":"address"},{"name":"guardian","type":"address","internalType":"address"}],"outputs":[{"name":"","type":"tuple","internalType":"struct GuardianStorage","components":[{"name":"status","type":"uint8","internalType":"enum GuardianStatus"},{"name":"weight","type":"uint256","internalType":"uint256"}]}],"stateMutability":"view"},{"type":"function","name":"getGuardianConfig","inputs":[{"name":"account","type":"address","internalType":"address"}],"outputs":[{"name":"","type":"tuple","internalType":"struct IGuardianManager.GuardianConfig","components":[{"name":"guardianCount","type":"uint256","internalType":"uint256"},{"name":"totalWeight","type":"uint256","internalType":"uint256"},{"name":"acceptedWeight","type":"uint256","internalType":"uint256"},{"name":"threshold","type":"uint256","internalType":"uint256"}]}],"stateMutability":"view"},{"type":"function","name":"getPreviousRecoveryRequest","inputs":[{"name":"account","type":"address","internalType":"address"}],"outputs":[{"name":"","type":"tuple","internalType":"struct IEmailRecoveryManager.PreviousRecoveryRequest","components":[{"name":"previousGuardianInitiated","type":"address","internalType":"address"},{"name":"cancelRecoveryCooldown","type":"uint256","internalType":"uint256"}]}],"stateMutability":"view"},{"type":"function","name":"getRecoveryConfig","inputs":[{"name":"account","type":"address","internalType":"address"}],"outputs":[{"name":"","type":"tuple","internalType":"struct IEmailRecoveryManager.RecoveryConfig","components":[{"name":"delay","type":"uint256","internalType":"uint256"},{"name":"expiry","type":"uint256","internalType":"uint256"}]}],"stateMutability":"view"},{"type":"function","name":"getRecoveryRequest","inputs":[{"name":"account","type":"address","internalType":"address"}],"outputs":[{"name":"executeAfter","type":"uint256","internalType":"uint256"},{"name":"executeBefore","type":"uint256","internalType":"uint256"},{"name":"currentWeight","type":"uint256","internalType":"uint256"},{"name":"recoveryDataHash","type":"bytes32","internalType":"bytes32"}],"stateMutability":"view"},{"type":"function","name":"handleAcceptance","inputs":[{"name":"emailAuthMsg","type":"tuple","internalType":"struct EmailAuthMsg","components":[{"name":"templateId","type":"uint256","internalType":"uint256"},{"name":"commandParams","type":"bytes[]","internalType":"bytes[]"},{"name":"skippedCommandPrefix","type":"uint256","internalType":"uint256"},{"name":"proof","type":"tuple","internalType":"struct EmailProof","components":[{"name":"domainName","type":"string","internalType":"string"},{"name":"publicKeyHash","type":"bytes32","internalType":"bytes32"},{"name":"timestamp","type":"uint256","internalType":"uint256"},{"name":"maskedCommand","type":"string","internalType":"string"},{"name":"emailNullifier","type":"bytes32","internalType":"bytes32"},{"name":"accountSalt","type":"bytes32","internalType":"bytes32"},{"name":"isCodeExist","type":"bool","internalType":"bool"},{"name":"proof","type":"bytes","internalType":"bytes"}]}]},{"name":"templateIdx","type":"uint256","internalType":"uint256"}],"outputs":[],"stateMutability":"nonpayable"},{"type":"function","name":"handleRecovery","inputs":[{"name":"emailAuthMsg","type":"tuple","internalType":"struct EmailAuthMsg","components":[{"name":"templateId","type":"uint256","internalType":"uint256"},{"name":"commandParams","type":"bytes[]","internalType":"bytes[]"},{"name":"skippedCommandPrefix","type":"uint256","internalType":"uint256"},{"name":"proof","type":"tuple","internalType":"struct EmailProof","components":[{"name":"domainName","type":"string","internalType":"string"},{"name":"publicKeyHash","type":"bytes32","internalType":"bytes32"},{"name":"timestamp","type":"uint256","internalType":"uint256"},{"name":"maskedCommand","type":"string","internalType":"string"},{"name":"emailNullifier","type":"bytes32","internalType":"bytes32"},{"name":"accountSalt","type":"bytes32","internalType":"bytes32"},{"name":"isCodeExist","type":"bool","internalType":"bool"},{"name":"proof","type":"bytes","internalType":"bytes"}]}]},{"name":"templateIdx","type":"uint256","internalType":"uint256"}],"outputs":[],"stateMutability":"nonpayable"},{"type":"function","name":"hasGuardianVoted","inputs":[{"name":"account","type":"address","internalType":"address"},{"name":"guardian","type":"address","internalType":"address"}],"outputs":[{"name":"","type":"bool","internalType":"bool"}],"stateMutability":"view"},{"type":"function","name":"isActivated","inputs":[{"name":"account","type":"address","internalType":"address"}],"outputs":[{"name":"","type":"bool","internalType":"bool"}],"stateMutability":"view"},{"type":"function","name":"isInitialized","inputs":[{"name":"account","type":"address","internalType":"address"}],"outputs":[{"name":"","type":"bool","internalType":"bool"}],"stateMutability":"view"},{"type":"function","name":"isModuleType","inputs":[{"name":"typeID","type":"uint256","internalType":"uint256"}],"outputs":[{"name":"","type":"bool","internalType":"bool"}],"stateMutability":"pure"},{"type":"function","name":"killSwitchEnabled","inputs":[],"outputs":[{"name":"","type":"bool","internalType":"bool"}],"stateMutability":"view"},{"type":"function","name":"minimumDelay","inputs":[],"outputs":[{"name":"","type":"uint256","internalType":"uint256"}],"stateMutability":"view"},{"type":"function","name":"name","inputs":[],"outputs":[{"name":"","type":"string","internalType":"string"}],"stateMutability":"pure"},{"type":"function","name":"onInstall","inputs":[{"name":"data","type":"bytes","internalType":"bytes"}],"outputs":[],"stateMutability":"nonpayable"},{"type":"function","name":"onUninstall","inputs":[{"name":"","type":"bytes","internalType":"bytes"}],"outputs":[],"stateMutability":"nonpayable"},{"type":"function","name":"owner","inputs":[],"outputs":[{"name":"","type":"address","internalType":"address"}],"stateMutability":"view"},{"type":"function","name":"recoveryCommandTemplates","inputs":[],"outputs":[{"name":"","type":"string[][]","internalType":"string[][]"}],"stateMutability":"view"},{"type":"function","name":"removeGuardian","inputs":[{"name":"guardian","type":"address","internalType":"address"}],"outputs":[],"stateMutability":"nonpayable"},{"type":"function","name":"renounceOwnership","inputs":[],"outputs":[],"stateMutability":"nonpayable"},{"type":"function","name":"selector","inputs":[],"outputs":[{"name":"","type":"bytes4","internalType":"bytes4"}],"stateMutability":"view"},{"type":"function","name":"toggleKillSwitch","inputs":[],"outputs":[],"stateMutability":"nonpayable"},{"type":"function","name":"transferOwnership","inputs":[{"name":"newOwner","type":"address","internalType":"address"}],"outputs":[],"stateMutability":"nonpayable"},{"type":"function","name":"updateRecoveryConfig","inputs":[{"name":"recoveryConfig","type":"tuple","internalType":"struct IEmailRecoveryManager.RecoveryConfig","components":[{"name":"delay","type":"uint256","internalType":"uint256"},{"name":"expiry","type":"uint256","internalType":"uint256"}]}],"outputs":[],"stateMutability":"nonpayable"},{"type":"function","name":"validator","inputs":[],"outputs":[{"name":"","type":"address","internalType":"address"}],"stateMutability":"view"},{"type":"function","name":"verifier","inputs":[],"outputs":[{"name":"","type":"address","internalType":"address"}],"stateMutability":"view"},{"type":"function","name":"verifierAddr","inputs":[],"outputs":[{"name":"","type":"address","internalType":"address"}],"stateMutability":"view"},{"type":"function","name":"version","inputs":[],"outputs":[{"name":"","type":"string","internalType":"string"}],"stateMutability":"pure"},{"type":"event","name":"AddedGuardian","inputs":[{"name":"account","type":"address","indexed":true,"internalType":"address"},{"name":"guardian","type":"address","indexed":true,"internalType":"address"},{"name":"weight","type":"uint256","indexed":false,"internalType":"uint256"}],"anonymous":false},{"type":"event","name":"ChangedThreshold","inputs":[{"name":"account","type":"address","indexed":true,"internalType":"address"},{"name":"threshold","type":"uint256","indexed":false,"internalType":"uint256"}],"anonymous":false},{"type":"event","name":"GuardianAccepted","inputs":[{"name":"account","type":"address","indexed":true,"internalType":"address"},{"name":"guardian","type":"address","indexed":true,"internalType":"address"}],"anonymous":false},{"type":"event","name":"GuardianStatusUpdated","inputs":[{"name":"account","type":"address","indexed":true,"internalType":"address"},{"name":"guardian","type":"address","indexed":true,"internalType":"address"},{"name":"newStatus","type":"uint8","indexed":false,"internalType":"enum GuardianStatus"}],"anonymous":false},{"type":"event","name":"GuardianVoted","inputs":[{"name":"account","type":"address","indexed":true,"internalType":"address"},{"name":"guardian","type":"address","indexed":true,"internalType":"address"},{"name":"currentWeight","type":"uint256","indexed":false,"internalType":"uint256"},{"name":"guardianWeight","type":"uint256","indexed":false,"internalType":"uint256"}],"anonymous":false},{"type":"event","name":"OwnershipTransferred","inputs":[{"name":"previousOwner","type":"address","indexed":true,"internalType":"address"},{"name":"newOwner","type":"address","indexed":true,"internalType":"address"}],"anonymous":false},{"type":"event","name":"RecoveryCancelled","inputs":[{"name":"account","type":"address","indexed":true,"internalType":"address"}],"anonymous":false},{"type":"event","name":"RecoveryCompleted","inputs":[{"name":"account","type":"address","indexed":true,"internalType":"address"}],"anonymous":false},{"type":"event","name":"RecoveryConfigUpdated","inputs":[{"name":"account","type":"address","indexed":true,"internalType":"address"},{"name":"delay","type":"uint256","indexed":false,"internalType":"uint256"},{"name":"expiry","type":"uint256","indexed":false,"internalType":"uint256"}],"anonymous":false},{"type":"event","name":"RecoveryConfigured","inputs":[{"name":"account","type":"address","indexed":true,"internalType":"address"},{"name":"guardianCount","type":"uint256","indexed":false,"internalType":"uint256"},{"name":"totalWeight","type":"uint256","indexed":false,"internalType":"uint256"},{"name":"threshold","type":"uint256","indexed":false,"internalType":"uint256"}],"anonymous":false},{"type":"event","name":"RecoveryDeInitialized","inputs":[{"name":"account","type":"address","indexed":true,"internalType":"address"}],"anonymous":false},{"type":"event","name":"RecoveryExecuted","inputs":[{"name":"account","type":"address","indexed":true,"internalType":"address"},{"name":"validator","type":"address","indexed":true,"internalType":"address"}],"anonymous":false},{"type":"event","name":"RecoveryRequestComplete","inputs":[{"name":"account","type":"address","indexed":true,"internalType":"address"},{"name":"guardian","type":"address","indexed":true,"internalType":"address"},{"name":"executeAfter","type":"uint256","indexed":false,"internalType":"uint256"},{"name":"executeBefore","type":"uint256","indexed":false,"internalType":"uint256"},{"name":"recoveryDataHash","type":"bytes32","indexed":false,"internalType":"bytes32"}],"anonymous":false},{"type":"event","name":"RecoveryRequestStarted","inputs":[{"name":"account","type":"address","indexed":true,"internalType":"address"},{"name":"guardian","type":"address","indexed":true,"internalType":"address"},{"name":"executeBefore","type":"uint256","indexed":false,"internalType":"uint256"},{"name":"recoveryDataHash","type":"bytes32","indexed":false,"internalType":"bytes32"}],"anonymous":false},{"type":"event","name":"RemovedGuardian","inputs":[{"name":"account","type":"address","indexed":true,"internalType":"address"},{"name":"guardian","type":"address","indexed":true,"internalType":"address"},{"name":"weight","type":"uint256","indexed":false,"internalType":"uint256"}],"anonymous":false},{"type":"error","name":"AccountNotConfigured","inputs":[]},{"type":"error","name":"AddressAlreadyGuardian","inputs":[]},{"type":"error","name":"AddressNotGuardianForAccount","inputs":[]},{"type":"error","name":"DelayLessThanMinimumDelay","inputs":[{"name":"delay","type":"uint256","internalType":"uint256"},{"name":"minimumDelay","type":"uint256","internalType":"uint256"}]},{"type":"error","name":"DelayMoreThanExpiry","inputs":[{"name":"delay","type":"uint256","internalType":"uint256"},{"name":"expiry","type":"uint256","internalType":"uint256"}]},{"type":"error","name":"DelayNotPassed","inputs":[{"name":"blockTimestamp","type":"uint256","internalType":"uint256"},{"name":"executeAfter","type":"uint256","internalType":"uint256"}]},{"type":"error","name":"GuardianAlreadyVoted","inputs":[]},{"type":"error","name":"GuardianMustWaitForCooldown","inputs":[{"name":"guardian","type":"address","internalType":"address"}]},{"type":"error","name":"IncorrectNumberOfWeights","inputs":[{"name":"guardianCount","type":"uint256","internalType":"uint256"},{"name":"weightCount","type":"uint256","internalType":"uint256"}]},{"type":"error","name":"InvalidAccountAddress","inputs":[]},{"type":"error","name":"InvalidCommandHandler","inputs":[]},{"type":"error","name":"InvalidDkimRegistry","inputs":[]},{"type":"error","name":"InvalidEmailAuthImpl","inputs":[]},{"type":"error","name":"InvalidFactory","inputs":[]},{"type":"error","name":"InvalidGuardianAddress","inputs":[{"name":"guardian","type":"address","internalType":"address"}]},{"type":"error","name":"InvalidGuardianStatus","inputs":[{"name":"guardianStatus","type":"uint8","internalType":"enum GuardianStatus"},{"name":"expectedGuardianStatus","type":"uint8","internalType":"enum GuardianStatus"}]},{"type":"error","name":"InvalidGuardianWeight","inputs":[]},{"type":"error","name":"InvalidKillSwitchAuthorizer","inputs":[]},{"type":"error","name":"InvalidOnInstallData","inputs":[]},{"type":"error","name":"InvalidProxyBytecodeHash","inputs":[]},{"type":"error","name":"InvalidRecoveryDataHash","inputs":[{"name":"recoveryDataHash","type":"bytes32","internalType":"bytes32"},{"name":"expectedRecoveryDataHash","type":"bytes32","internalType":"bytes32"}]},{"type":"error","name":"InvalidSelector","inputs":[{"name":"selector","type":"bytes4","internalType":"bytes4"}]},{"type":"error","name":"InvalidValidator","inputs":[{"name":"validator","type":"address","internalType":"address"}]},{"type":"error","name":"InvalidVerifier","inputs":[]},{"type":"error","name":"KillSwitchEnabled","inputs":[]},{"type":"error","name":"MaxNumberOfGuardiansReached","inputs":[]},{"type":"error","name":"ModuleAlreadyInitialized","inputs":[{"name":"smartAccount","type":"address","internalType":"address"}]},{"type":"error","name":"NoRecoveryConfigured","inputs":[]},{"type":"error","name":"NoRecoveryInProcess","inputs":[]},{"type":"error","name":"NotEnoughApprovals","inputs":[{"name":"currentWeight","type":"uint256","internalType":"uint256"},{"name":"threshold","type":"uint256","internalType":"uint256"}]},{"type":"error","name":"NotInitialized","inputs":[{"name":"smartAccount","type":"address","internalType":"address"}]},{"type":"error","name":"OwnableInvalidOwner","inputs":[{"name":"owner","type":"address","internalType":"address"}]},{"type":"error","name":"OwnableUnauthorizedAccount","inputs":[{"name":"account","type":"address","internalType":"address"}]},{"type":"error","name":"RecoveryHasNotExpired","inputs":[{"name":"account","type":"address","internalType":"address"},{"name":"blockTimestamp","type":"uint256","internalType":"uint256"},{"name":"executeBefore","type":"uint256","internalType":"uint256"}]},{"type":"error","name":"RecoveryInProcess","inputs":[]},{"type":"error","name":"RecoveryIsNotActivated","inputs":[]},{"type":"error","name":"RecoveryRequestExpired","inputs":[{"name":"blockTimestamp","type":"uint256","internalType":"uint256"},{"name":"executeBefore","type":"uint256","internalType":"uint256"}]},{"type":"error","name":"RecoveryWindowTooShort","inputs":[{"name":"recoveryWindow","type":"uint256","internalType":"uint256"}]},{"type":"error","name":"SetupAlreadyCalled","inputs":[]},{"type":"error","name":"SetupNotCalled","inputs":[]},{"type":"error","name":"StatusCannotBeTheSame","inputs":[{"name":"newStatus","type":"uint8","internalType":"enum GuardianStatus"}]},{"type":"error","name":"ThresholdCannotBeZero","inputs":[]},{"type":"error","name":"ThresholdExceedsAcceptedWeight","inputs":[{"name":"threshold","type":"uint256","internalType":"uint256"},{"name":"acceptedWeight","type":"uint256","internalType":"uint256"}]},{"type":"error","name":"ThresholdExceedsTotalWeight","inputs":[{"name":"threshold","type":"uint256","internalType":"uint256"},{"name":"totalWeight","type":"uint256","internalType":"uint256"}]},{"type":"error","name":"TooManyValuesToRemove","inputs":[]}],"bytecode":{"object":"0x610100604052348015610010575f5ffd5b506040516150ae3803806150ae83398101604081905261002f9161035d565b8787878787878787878787878787806001600160a01b03811661006c57604051631e4fbdf760e01b81525f60048201526024015b60405180910390fd5b610075816102f1565b506001600160a01b03861661009d5760405163baa3de5f60e01b815260040160405180910390fd5b6001600160a01b0385166100c45760405163260ce05b60e01b815260040160405180910390fd5b6001600160a01b0384166100eb5760405163e98100fb60e01b815260040160405180910390fd5b6001600160a01b0383166101125760405163fce1ed6f60e01b815260040160405180910390fd5b6001600160a01b03811661013957604051630a19006f60e01b815260040160405180910390fd5b505f80546001600160a01b03199081166001600160a01b039788161790915560018054821695871695909517909455600280549094169285169290921790925590821660805260a05282166101ab57604051628eae2b60e51b81526001600160a01b0383166004820152602401610063565b336001600160a01b03831603610256576001600160e01b03198116630d582f1360e01b148015906101ed57506001600160e01b0319811663f8dc5dd960e01b14155b801561020a57506001600160e01b0319811663e318b52b60e01b14155b801561022757506001600160e01b0319811663694e80c360e01b14155b15610251576040516312ba286f60e01b81526001600160e01b031982166004820152602401610063565b6102c2565b6001600160e01b031981166306d61fe760e41b148061028557506001600160e01b03198116638a91b0e360e01b145b8061029857506001600160e01b03198116155b156102c2576040516312ba286f60e01b81526001600160e01b031982166004820152602401610063565b6001600160a01b0390911660c0526001600160e01b03191660e052506103f99c50505050505050505050505050565b600580546001600160a01b038381166001600160a01b0319831681179093556040519116919082907f8be0079c531659141344cd1fd0a4f28419497f9722a3daafe3b4186f6b6457e0905f90a35050565b80516001600160a01b0381168114610358575f5ffd5b919050565b5f5f5f5f5f5f5f5f610100898b031215610375575f5ffd5b61037e89610342565b975061038c60208a01610342565b965061039a60408a01610342565b95506103a860608a01610342565b9450608089015193506103bd60a08a01610342565b92506103cb60c08a01610342565b60e08a01519092506001600160e01b0319811681146103e8575f5ffd5b809150509295985092959890939650565b60805160a05160c05160e051614c2061048e5f395f81816107fa015261300c01525f818161048001528181611768015281816117eb01528181613070015261309901525f81816104d3015281816110ff015261113d01525f818161078d01528181611245015281816112e30152818161148b01528181611b690152818161232d01528181612ae10152612c860152614c205ff3fe608060405234801561000f575f5ffd5b50600436106102b1575f3560e01c80636da995151161017b578063b6201692116100e4578063d60b347f1161009e578063ea3d508a11610079578063ea3d508a146107f5578063ecd0596114610835578063f2fde38b14610849578063ffd55e3c1461085c575f5ffd5b8063d60b347f146107af578063d7d5d3d1146107c2578063da34a850146107d5575f5ffd5b8063b620169214610703578063b68126fa14610714578063bbd2a05e14610727578063c18d09cf14610747578063c9faa7c51461075a578063d15558bf14610788575f5ffd5b80638da5cb5b116101355780638da5cb5b1461068c578063991506801461069d5780639c8f8439146106a7578063a5e3ee70146106ca578063ab1b5fde146106dd578063ada4cb70146106f0575f5ffd5b80636da99515146105be57806371404156146105d1578063715018a6146105e457806373357f85146105ec57806386b97e51146105ff5780638a91b0e314610679575f5ffd5b80633a5381b51161021d5780634f9a28b9116101d75780634f9a28b9146104fd57806354fd4d501461055b5780635707f3181461057c578063663ea2e214610586578063694e80c3146105985780636d61fe70146105ab575f5ffd5b80633a5381b51461047b5780633a8eab14146104a25780633ef01b8f146104b5578063400ad5ce146104bd578063427ad624146104ce5780634630f1d5146104f5575f5ffd5b80631788178f1161026e5780631788178f146103a1578063222f6cb5146103b45780632788bbda146103c95780632b7ac3f3146104375780632c4ce1291461044757806332ccc2f21461045a575f5ffd5b80630481af67146102b557806306fdde03146102ca5780630ba234d6146103155780630bb6094a1461031d5780631098e02e14610363578063111e53131461038e575b5f5ffd5b6102c86102c3366004613b0f565b610870565b005b60408051808201909152601b81527f5a4b456d61696c2e456d61696c5265636f766572794d6f64756c65000000000060208201525b60405161030c9190613cae565b60405180910390f35b6102c8610d1f565b61033061032b366004613cd4565b610e09565b60405161030c91908151815260208083015190820152604080830151908201526060918201519181019190915260800190565b600254610376906001600160a01b031681565b6040516001600160a01b03909116815260200161030c565b6102c861039c366004613cef565b610e7a565b6102c86103af366004613d19565b610fc3565b6103bc611241565b60405161030c9190613d67565b61041c6103d7366004613cd4565b604080518082019091525f8082526020820152506001600160a01b03165f90815260066020908152604091829020825180840190935280548352600101549082015290565b6040805182518152602092830151928101929092520161030c565b5f546001600160a01b0316610376565b610376610455366004613e10565b6112ca565b61046d610468366004613e51565b611362565b60405190815260200161030c565b6103767f000000000000000000000000000000000000000000000000000000000000000081565b6103766104b0366004613cef565b6113b9565b6103bc611487565b6001546001600160a01b0316610376565b61046d7f000000000000000000000000000000000000000000000000000000000000000081565b6102c86114e4565b61053b61050b366004613cd4565b6001600160a01b03165f908152600760205260409020805460018201546002830154600390930154919390929190565b60408051948552602085019390935291830152606082015260800161030c565b6040805180820190915260058152640312e302e360dc1b60208201526102ff565b61046d6201518081565b5f54610376906001600160a01b031681565b6102c86105a6366004613e51565b61150d565b6102c86105b9366004613eac565b611708565b61046d6105cc366004613e51565b61182f565b6102c86105df366004613cd4565b611844565b6102c8611b0d565b600154610376906001600160a01b031681565b61065561060d366004613cd4565b6040805180820182525f80825260209182018190526001600160a01b039384168152600882528290208251808401909352805490931682526001909201549181019190915290565b6040805182516001600160a01b03168152602092830151928101929092520161030c565b6102c8610687366004613eac565b611b20565b6005546001600160a01b0316610376565b61046d6202a30081565b6106ba6106b5366004613eea565b611b2c565b604051901515815260200161030c565b6103766106d8366004613e10565b611b50565b6102c86106eb366004613cd4565b611ba0565b6106ba6106fe366004613cd4565b611d2b565b6002546001600160a01b0316610376565b6102c8610722366004613b0f565b611d5a565b61073a610735366004613cd4565b611f13565b60405161030c9190613f21565b6102c8610755366004613f6c565b611f36565b6106ba610768366004613cd4565b6001600160a01b03165f9081526003602081905260409091200154151590565b6103767f000000000000000000000000000000000000000000000000000000000000000081565b6106ba6107bd366004613cd4565b61215e565b6102c86107d0366004613f6c565b612174565b6107e86107e3366004613eea565b612184565b60405161030c9190613ff0565b61081c7f000000000000000000000000000000000000000000000000000000000000000081565b6040516001600160e01b0319909116815260200161030c565b6106ba610843366004613e51565b60021490565b6102c8610857366004613cd4565b6121b8565b6005546106ba90600160a01b900460ff1681565b5f61087f8360200151836112ca565b90506001600160a01b0381166108d75760405162461bcd60e51b81526020600482015260186024820152771a5b9d985b1a59081858d8dbdd5b9d081a5b88195b585a5b60421b60448201526064015b60405180910390fd5b5f6108ea82856060015160a001516113b9565b90505f6108f684611362565b8551909150811461093f5760405162461bcd60e51b81526020600482015260136024820152721a5b9d985b1a59081d195b5c1b185d19481a59606a1b60448201526064016108ce565b606085015160c0015115156001146109905760405162461bcd60e51b81526020600482015260146024820152736973436f646545786973742069732066616c736560601b60448201526064016108ce565b5f826001600160a01b03163b5f03610bee575f6109b585886060015160a001516121f5565b9050809150816001600160a01b031663557cf5ef6109db6001546001600160a01b031690565b6040516001600160e01b031960e084901b1681526001600160a01b0390911660048201526024015f604051808303815f87803b158015610a19575f5ffd5b505af1158015610a2b573d5f5f3e3d5ffd5b50505050816001600160a01b0316634141407c610a4f5f546001600160a01b031690565b6040516001600160e01b031960e084901b1681526001600160a01b0390911660048201526024015f604051808303815f87803b158015610a8d575f5ffd5b505af1158015610a9f573d5f5f3e3d5ffd5b505f925050505b610aae611241565b51811015610b4557826001600160a01b0316638ff3730f610ace83611362565b610ad6611241565b8481518110610ae757610ae7614010565b60200260200101516040518363ffffffff1660e01b8152600401610b0c929190614024565b5f604051808303815f87803b158015610b23575f5ffd5b505af1158015610b35573d5f5f3e3d5ffd5b505060019092019150610aa69050565b505f5b610b50611487565b51811015610be757826001600160a01b0316638ff3730f610b708361182f565b610b78611487565b8481518110610b8957610b89614010565b60200260200101516040518363ffffffff1660e01b8152600401610bae929190614024565b5f604051808303815f87803b158015610bc5575f5ffd5b505af1158015610bd7573d5f5f3e3d5ffd5b505060019092019150610b489050565b5050610ca6565b829050306001600160a01b0316816001600160a01b031663f77c47916040518163ffffffff1660e01b8152600401602060405180830381865afa158015610c37573d5f5f3e3d5ffd5b505050506040513d601f19601f82011682018060405250810190610c5b919061408e565b6001600160a01b031614610ca65760405162461bcd60e51b815260206004820152601260248201527134b73b30b634b21031b7b73a3937b63632b960711b60448201526064016108ce565b60405163ad3f5f9b60e01b81526001600160a01b0382169063ad3f5f9b90610cd2908990600401614103565b5f604051808303815f87803b158015610ce9575f5ffd5b505af1158015610cfb573d5f5f3e3d5ffd5b50505050610d1783868860200151896060015160800151612291565b505050505050565b5f306001600160a01b031663ffd55e3c6040518163ffffffff1660e01b81526004016020604051808303815f875af1158015610d5d573d5f5f3e3d5ffd5b505050506040513d601f19601f82011682018060405250810190610d8191906141d5565b90508015610da257604051630763fd9560e51b815260040160405180910390fd5b335f908152600760205260408120600201549003610dd3576040516387434f5160e01b815260040160405180910390fd5b610ddc336124e9565b60405133907f8154b6c5e1fc90d44b49808ef93f9739148d0821411890f8cd684385e24b9f1e905f90a250565b610e3060405180608001604052805f81526020015f81526020015f81526020015f81525090565b506001600160a01b03165f90815260036020818152604092839020835160808101855281548152600182015492810192909252600281015493820193909352910154606082015290565b604051634f9a28b960e01b81523360048201525f903090634f9a28b990602401608060405180830381865afa158015610eb5573d5f5f3e3d5ffd5b505050506040513d601f19601f82011682018060405250810190610ed991906141f0565b5092505081159050610efe57604051633e43a9bf60e21b815260040160405180910390fd5b5f306001600160a01b031663ffd55e3c6040518163ffffffff1660e01b81526004016020604051808303815f875af1158015610f3c573d5f5f3e3d5ffd5b505050506040513d601f19601f82011682018060405250810190610f6091906141d5565b90508015610f8157604051630763fd9560e51b815260040160405180910390fd5b335f908152600360208190526040822001549003610fb25760405163ae69115b60e01b815260040160405180910390fd5b610fbd3385856125a2565b50505050565b604051634f9a28b960e01b81523360048201525f903090634f9a28b990602401608060405180830381865afa158015610ffe573d5f5f3e3d5ffd5b505050506040513d601f19601f8201168201806040525081019061102291906141f0565b509250508115905061104757604051633e43a9bf60e21b815260040160405180910390fd5b5f306001600160a01b031663ffd55e3c6040518163ffffffff1660e01b81526004016020604051808303815f875af1158015611085573d5f5f3e3d5ffd5b505050506040513d601f19601f820116820180604052508101906110a991906141d5565b905080156110ca57604051630763fd9560e51b815260040160405180910390fd5b335f8181526003602081905260408220015490036110fb576040516366ecbd6d60e01b815260040160405180910390fd5b83517f00000000000000000000000000000000000000000000000000000000000000001115611169578351604051632cbc002b60e11b815260048101919091527f000000000000000000000000000000000000000000000000000000000000000060248201526044016108ce565b60208401518451111561119f5783516020850151604051632dd0a90f60e21b8152600481019290925260248201526044016108ce565b835160208501515f916111b191614237565b90506202a3008110156111da5760405163283cce6760e11b8152600481018290526024016108ce565b6001600160a01b0382165f8181526006602090815260409182902088518082558983015160019092018290558351908152918201527f1846bde2c0888937a0a3af4e9b851b2e78758487d44a7ec04ae4bb3dc356b495910160405180910390a25050505050565b60607f00000000000000000000000000000000000000000000000000000000000000006001600160a01b031663222f6cb56040518163ffffffff1660e01b81526004015f60405180830381865afa15801561129e573d5f5f3e3d5ffd5b505050506040513d5f823e601f3d908101601f191682016040526112c59190810190614280565b905090565b604051632c4ce12960e01b81525f906001600160a01b037f00000000000000000000000000000000000000000000000000000000000000001690632c4ce1299061131a90869086906004016143c2565b602060405180830381865afa158015611335573d5f5f3e3d5ffd5b505050506040513d601f19601f82011682018060405250810190611359919061408e565b90505b92915050565b60408051600160208201526060918101829052600a608082015269414343455054414e434560b01b60a08201529081018290525f9060c0015b60408051601f19818403018152919052805160209091012092915050565b5f61135982604051806020016113ce90613904565b601f1982820381018352601f909101166040526113f36002546001600160a01b031690565b6040516001600160a01b03881660248201526044810187905230606482015260840160408051601f19818403018152918152602080830180516001600160e01b03166369359f3760e11b179052905161144e939291016143e3565b60408051601f198184030181529082905261146c9291602001614425565b60405160208183030381529060405280519060200120612728565b60607f00000000000000000000000000000000000000000000000000000000000000006001600160a01b0316633ef01b8f6040518163ffffffff1660e01b81526004015f60405180830381865afa15801561129e573d5f5f3e3d5ffd5b6114ec612734565b6005805460ff60a01b198116600160a01b9182900460ff1615909102179055565b604051634f9a28b960e01b81523360048201525f903090634f9a28b990602401608060405180830381865afa158015611548573d5f5f3e3d5ffd5b505050506040513d601f19601f8201168201806040525081019061156c91906141f0565b509250508115905061159157604051633e43a9bf60e21b815260040160405180910390fd5b5f306001600160a01b031663ffd55e3c6040518163ffffffff1660e01b81526004016020604051808303815f875af11580156115cf573d5f5f3e3d5ffd5b505050506040513d601f19601f820116820180604052508101906115f391906141d5565b9050801561161457604051630763fd9560e51b815260040160405180910390fd5b335f9081526003602081905260408220015490036116455760405163ae69115b60e01b815260040160405180910390fd5b335f9081526003602052604090206001015483111561169557335f908152600360205260409081902060010154905163eb912f7160e01b81526108ce918591600401918252602082015260400190565b825f036116b557604051637a0920b360e11b815260040160405180910390fd5b335f8181526003602081905260409182902001859055517fde3e32a86d32ca955594af26f515d3dc60003ab279776b14b4012fe99d96f8f6906116fb9086815260200190565b60405180910390a2505050565b5f81900361172957604051632e111c4160e11b815260040160405180910390fd5b5f808080808061173b87890189614494565b60405163112d3a7d60e01b8152959b50939950919750955093509150339063112d3a7d90611792906001907f0000000000000000000000000000000000000000000000000000000000000000908b9060040161459a565b602060405180830381865afa1580156117ad573d5f5f3e3d5ffd5b505050506040513d601f19601f820116820180604052508101906117d191906141d5565b61181857604051628eae2b60e51b81526001600160a01b037f00000000000000000000000000000000000000000000000000000000000000001660048201526024016108ce565b6118258585858585612761565b5050505050505050565b5f60018260405160200161139b9291906145c3565b604051634f9a28b960e01b81523360048201525f903090634f9a28b990602401608060405180830381865afa15801561187f573d5f5f3e3d5ffd5b505050506040513d601f19601f820116820180604052508101906118a391906141f0565b50925050811590506118c857604051633e43a9bf60e21b815260040160405180910390fd5b5f306001600160a01b031663ffd55e3c6040518163ffffffff1660e01b81526004016020604051808303815f875af1158015611906573d5f5f3e3d5ffd5b505050506040513d601f19601f8201168201806040525081019061192a91906141d5565b9050801561194b57604051630763fd9560e51b815260040160405180910390fd5b335f818152600360208181526040808420815160808101835281548152600182015481850152600282015481840152930154606084015293835260049052918120611996908661289d565b335f908152600460205260408120919250906119b29087612914565b9050806119d25760405163f3f7774960e01b815260040160405180910390fd5b5f826020015184602001516119e79190614237565b90508360600151811015611a1e57606084015160405163eb912f7160e01b81526108ce918391600401918252602082015260400190565b335f908152600360205260408120805491611a38836145f6565b9091555050602080840151335f908152600390925260408220600101805491929091611a65908490614237565b909155506002905083516002811115611a8057611a80613fbc565b03611ab357602080840151335f908152600390925260408220600201805491929091611aad908490614237565b90915550505b866001600160a01b0316336001600160a01b03167f99aeb23a57fa639a61aa8afa1b8b63e67a2e6d601c008c8a7cb4e0719992d1998560200151604051611afc91815260200190565b60405180910390a350505050505050565b611b15612734565b611b1e5f612945565b565b611b28612996565b5050565b6001600160a01b0382165f9081526007602052604081206113599060040183612a24565b604051630a5e3ee760e41b81525f906001600160a01b037f0000000000000000000000000000000000000000000000000000000000000000169063a5e3ee709061131a90869086906004016143c2565b5f306001600160a01b031663ffd55e3c6040518163ffffffff1660e01b81526004016020604051808303815f875af1158015611bde573d5f5f3e3d5ffd5b505050506040513d601f19601f82011682018060405250810190611c0291906141d5565b90508015611c2357604051630763fd9560e51b815260040160405180910390fd5b6001600160a01b0382165f908152600760205260408120600201549003611c5d576040516387434f5160e01b815260040160405180910390fd5b6001600160a01b0382165f90815260076020526040902060010154421015611cc3576001600160a01b0382165f81815260076020526040908190206001015490516349d70fe360e11b8152600481019290925242602483015260448201526064016108ce565b611cd0620151804261460b565b6001600160a01b0383165f90815260086020526040902060010155611cf4826124e9565b6040516001600160a01b038316907f8154b6c5e1fc90d44b49808ef93f9739148d0821411890f8cd684385e24b9f1e905f90a25050565b5f5f611d3683610e09565b90505f8160600151118015611d5357508060600151816040015110155b9392505050565b5f611d69836020015183611b50565b90506001600160a01b038116611dbc5760405162461bcd60e51b81526020600482015260186024820152771a5b9d985b1a59081858d8dbdd5b9d081a5b88195b585a5b60421b60448201526064016108ce565b5f611dcf82856060015160a001516113b9565b90505f816001600160a01b03163b11611e2a5760405162461bcd60e51b815260206004820152601860248201527f677561726469616e206973206e6f74206465706c6f796564000000000000000060448201526064016108ce565b5f600184604051602001611e3f9291906145c3565b60408051601f19818403018152919052805160209091012085519091508114611ea05760405162461bcd60e51b81526020600482015260136024820152721a5b9d985b1a59081d195b5c1b185d19481a59606a1b60448201526064016108ce565b60405163ad3f5f9b60e01b815282906001600160a01b0382169063ad3f5f9b90611ece908990600401614103565b5f604051808303815f87803b158015611ee5575f5ffd5b505af1158015611ef7573d5f5f3e3d5ffd5b50505050610d1783868860200151896060015160800151612a45565b6001600160a01b0381165f90815260046020526040902060609061135c90612fe7565b5f306001600160a01b031663ffd55e3c6040518163ffffffff1660e01b81526004016020604051808303815f875af1158015611f74573d5f5f3e3d5ffd5b505050506040513d601f19601f82011682018060405250810190611f9891906141d5565b90508015611fb957604051630763fd9560e51b815260040160405180910390fd5b6001600160a01b038416611fe05760405163200db56f60e11b815260040160405180910390fd5b6001600160a01b0384165f90815260076020908152604080832060039283905290832090910154909181900361202957604051635337335b60e11b815260040160405180910390fd5b808260020154101561205e57600282015460405163443282f560e01b81526004810191909152602481018290526044016108ce565b815442101561208c578154604051632f37ae3960e01b815242600482015260248101919091526044016108ce565b816001015442106120bf576001820154604051632b356baf60e11b815242600482015260248101919091526044016108ce565b5f85856040516120d092919061461e565b604051809103902090508260030154811461210e576003830154604051639e1a616f60e01b81526108ce918391600401918252602082015260400190565b612117876124e9565b612122878787612ff2565b6040516001600160a01b038816907f46f5008939fa0b4beb46ae7f0e8368318bb72b56608910ca71c23e83382f609f905f90a250505050505050565b5f61216882610e09565b60600151151592915050565b61217f838383612ff2565b505050565b604080518082019091525f80825260208201526001600160a01b0383165f908152600460205260409020611359908361289d565b6121c0612734565b6001600160a01b0381166121e957604051631e4fbdf760e01b81525f60048201526024016108ce565b6121f281612945565b50565b5f5f8261220a6002546001600160a01b031690565b6040516001600160a01b03871660248201526044810186905230606482015260840160408051601f198184030181529181526020820180516001600160e01b03166369359f3760e11b1790525161226090613904565b61226b9291906143e3565b8190604051809103905ff5905080158015612288573d5f5f3e3d5ffd5b50949350505050565b5f306001600160a01b031663ffd55e3c6040518163ffffffff1660e01b81526004016020604051808303815f875af11580156122cf573d5f5f3e3d5ffd5b505050506040513d601f19601f820116820180604052508101906122f391906141d5565b9050801561231457604051630763fd9560e51b815260040160405180910390fd5b60405163861f45b760e01b81525f906001600160a01b037f0000000000000000000000000000000000000000000000000000000000000000169063861f45b790612364908890889060040161462d565b602060405180830381865afa15801561237f573d5f5f3e3d5ffd5b505050506040513d601f19601f820116820180604052508101906123a3919061408e565b6001600160a01b0381165f90815260076020526040902060020154909150156123df57604051633e43a9bf60e21b815260040160405180910390fd5b6001600160a01b0381165f90815260036020819052604090912001546124185760405163c737140f60e01b815260040160405180910390fd5b5f6124238288612184565b905060018151600281111561243a5761243a613fbc565b1461245e578051604051632b44da8d60e11b81526108ce9190600190600401614645565b61246a828860026130fe565b806020015160035f846001600160a01b03166001600160a01b031681526020019081526020015f206002015f8282546124a3919061460b565b90915550506040516001600160a01b0380891691908416907f442abc7a4ecd5a019ce3f9fa872ad2d87c094248c412954aaf8ccf7a538e938c905f90a350505050505050565b6001600160a01b0381165f9081526007602052604081209061250d600483016131f9565b80519091505f5b818110156125545761254b83828151811061253157612531614010565b60200260200101518560040161320590919063ffffffff16565b50600101612514565b506001600160a01b0384165f90815260076020526040812081815560018101829055600281018290556003810182905590600482018181816125968282613911565b50505050505050505050565b6001600160a01b03821615806125c95750826001600160a01b0316826001600160a01b0316145b156125f257604051631af7497560e01b81526001600160a01b03831660048201526024016108ce565b805f036126115760405162a47bc760e51b815260040160405180910390fd5b5f61265c8360405180604001604052806001600281111561263457612634613fbc565b815260209081018690526001600160a01b0388165f9081526004909152604090209190613219565b90508061267c57604051637270b0a760e11b815260040160405180910390fd5b6001600160a01b0384165f90815260036020526040812080549161269f83614660565b90915550506001600160a01b0384165f90815260036020526040812060010180548492906126ce90849061460b565b92505081905550826001600160a01b0316846001600160a01b03167f6e56b96fb8216ff6218412de4842e5d754f98ee57d19d9ed40af02fac2b30d9c8460405161271a91815260200190565b60405180910390a350505050565b5f6113598383306132aa565b6005546001600160a01b03163314611b1e5760405163118cdaa760e01b81523360048201526024016108ce565b5f306001600160a01b031663ffd55e3c6040518163ffffffff1660e01b81526004016020604051808303815f875af115801561279f573d5f5f3e3d5ffd5b505050506040513d601f19601f820116820180604052508101906127c391906141d5565b905080156127e457604051630763fd9560e51b815260040160405180910390fd5b335f8181526003602081905260409091200154156128155760405163b3af559360e01b815260040160405180910390fd5b5f5f612823838a8a8a6132dc565b6040805180820190915288815260208101889052919350915061284581610fc3565b60408051848152602081018490529081018990526001600160a01b038516907fe8d4b5048e4b6ac385ae4b62872cffb372825354882a4823833c9720bacdfc6a9060600160405180910390a250505050505050505050565b604080518082019091525f80825260208201526001600160a01b0382165f9081526002808501602052604091829020825180840190935280549091839160ff16908111156128ed576128ed613fbc565b60028111156128fe576128fe613fbc565b8152602001600182015481525050905092915050565b6001600160a01b0381165f9081526002830160205260408120805460ff191681556001018190556113598383613205565b600580546001600160a01b038381166001600160a01b0319831681179093556040519116919082907f8be0079c531659141344cd1fd0a4f28419497f9722a3daafe3b4186f6b6457e0905f90a35050565b604051634f9a28b960e01b81523360048201525f903090634f9a28b990602401608060405180830381865afa1580156129d1573d5f5f3e3d5ffd5b505050506040513d601f19601f820116820180604052508101906129f591906141f0565b5092505081159050612a1a57604051633e43a9bf60e21b815260040160405180910390fd5b33611b28816133f0565b6001600160a01b0381165f9081526001830160205260408120541515611359565b5f306001600160a01b031663ffd55e3c6040518163ffffffff1660e01b81526004016020604051808303815f875af1158015612a83573d5f5f3e3d5ffd5b505050506040513d601f19601f82011682018060405250810190612aa791906141d5565b90508015612ac857604051630763fd9560e51b815260040160405180910390fd5b60405163029b2a1760e11b81525f906001600160a01b037f00000000000000000000000000000000000000000000000000000000000000001690630536542e90612b18908890889060040161462d565b602060405180830381865afa158015612b33573d5f5f3e3d5ffd5b505050506040513d601f19601f82011682018060405250810190612b57919061408e565b9050612b7d816001600160a01b03165f9081526003602081905260409091200154151590565b612b9a5760405163c737140f60e01b815260040160405180910390fd5b6001600160a01b0381165f908152600360208181526040928390208351608081018552815481526001820154928101929092526002810154938201849052909101546060820181905290911015612c175760608101516040808301519051631f0fa60f60e21b8152600481019290925260248201526044016108ce565b5f612c228389612184565b9050600281516002811115612c3957612c39613fbc565b14612c5d578051604051632b44da8d60e11b81526108ce9190600290600401614645565b6001600160a01b038084165f90815260076020526040808220905163da06673960e01b815290927f0000000000000000000000000000000000000000000000000000000000000000169063da06673990612cbd908c908c9060040161462d565b602060405180830381865afa158015612cd8573d5f5f3e3d5ffd5b505050506040513d601f19601f82011682018060405250810190612cfc9190614678565b9050612d08858b611b2c565b15612d265760405163e11487a760e01b815260040160405180910390fd5b6001600160a01b038086165f90815260036020908152604080832054600890925290912060018101549054919242909111918116908d16148015612d675750805b8015612d735750600182115b15612d9c57604051638035b5fd60e01b81526001600160a01b038d1660048201526024016108ce565b6003840154612e8d578284600301819055508b60085f896001600160a01b03166001600160a01b031681526020019081526020015f205f015f6101000a8154816001600160a01b0302191690836001600160a01b031602179055505f60065f896001600160a01b03166001600160a01b031681526020019081526020015f206001015442612e2a919061460b565b90508085600101819055508c6001600160a01b0316886001600160a01b03167f9ca1cbcd26e9b736cca48e36442bff1755b2b7bab34abc02f31799e500c0a0318387604051612e83929190918252602082015260400190565b60405180910390a3505b82846003015414612ec1576003840154604051639e1a616f60e01b81526108ce918591600401918252602082015260400190565b8460200151846002015f828254612ed8919061460b565b90915550612eeb9050600485018d613527565b508b6001600160a01b0316876001600160a01b03167f5aa823676e4da0337bf6a25190a447b23198601a92ee2fa36de835e75624179a86600201548860200151604051612f42929190918252602082015260400190565b60405180910390a38560600151846002015410612fd9576001600160a01b0387165f90815260066020526040812054612f7b904261460b565b808655600186015460408051838152602081019290925281018690529091506001600160a01b03808f1691908a16907fbe82017c3d0c6b6283a0d6137f7aaa225271859454c3c1ff1a5a444ee23abd239060600160405180910390a3505b505050505050505050505050565b606061135c826131f9565b5f612fff8284018461468f565b9150505f602082015190507f00000000000000000000000000000000000000000000000000000000000000006001600160e01b031916816001600160e01b0319161461306a576040516312ba286f60e01b81526001600160e01b0319821660048201526024016108ce565b613096857f00000000000000000000000000000000000000000000000000000000000000005f8561353b565b507f00000000000000000000000000000000000000000000000000000000000000006001600160a01b0316856001600160a01b03167f60f9f98be64687700419cfa6fdd7877bc88c6daeb10bc664a2be9fdd6b0c792160405160405180910390a35050505050565b6001600160a01b0383165f90815260046020526040812061311f908461289d565b8051909150600281111561313557613135613fbc565b82600281111561314757613147613fbc565b036131675781604051637e12071160e01b81526004016108ce91906146db565b6131b583604051806040016040528085600281111561318857613188613fbc565b8152602085810151918101919091526001600160a01b0388165f9081526004909152604090209190613219565b50826001600160a01b0316846001600160a01b03167f6ae2e7cc465b15375a93daf2ea1e59f4c98d82465e7f2885f0b864db38b279748460405161271a91906146db565b60605f611d53836135ea565b5f611359836001600160a01b038416613643565b6001600160a01b0382165f908152600280850160205260408220835181548593839160ff191690600190849081111561325457613254613fbc565b0217905550602091909101516001909101555f6132718585613527565b90505f61327d86613726565b905081801561328c5750602081115b156122885760405163bb6c1e9360e01b815260040160405180910390fd5b5f604051836040820152846020820152828152600b8101905060ff8153605590206001600160a01b0316949350505050565b825182515f918291811461331057845160405163166e79bd60e01b81526108ce918391600401918252602082015260400190565b835f0361333057604051637a0920b360e11b815260040160405180910390fd5b5f5b8181101561337f576133778888838151811061335057613350614010565b602002602001015188848151811061336a5761336a614010565b60200260200101516125a2565b600101613332565b506001600160a01b0387165f90815260036020526040902060010154808511156133c65760405163eb912f7160e01b815260048101869052602481018290526044016108ce565b6001600160a01b03979097165f908152600360208190526040909120019390935550909492505050565b604051634f9a28b960e01b81523360048201525f903090634f9a28b990602401608060405180830381865afa15801561342b573d5f5f3e3d5ffd5b505050506040513d601f19601f8201168201806040525081019061344f91906141f0565b509250508115905061347457604051633e43a9bf60e21b815260040160405180910390fd5b6001600160a01b0382165f9081526006602052604081208181556001015561349b826124e9565b6001600160a01b0382165f90815260086020526040812080546001600160a01b0319168155600101556134cd8261372f565b6001600160a01b0382165f8181526003602081905260408083208381556001810184905560028101849055909101829055517fe07cb859e0fb96f60563e9ac3596b37d0c617a96f9f6db589548caaa99fa9b669190a25050565b5f611359836001600160a01b038416613770565b60605f61354a818080806137bc565b9050856001600160a01b031663d691c96482613567888888613826565b6040518363ffffffff1660e01b81526004016135849291906146e9565b5f604051808303815f875af115801561359f573d5f5f3e3d5ffd5b505050506040513d5f823e601f3d908101601f191682016040526135c69190810190614701565b5f815181106135d7576135d7614010565b6020026020010151915050949350505050565b6060815f0180548060200260200160405190810160405280929190818152602001828054801561363757602002820191905f5260205f20905b815481526020019060010190808311613623575b50505050509050919050565b5f818152600183016020526040812054801561371d575f613665600183614237565b85549091505f9061367890600190614237565b90508082146136d7575f865f01828154811061369657613696614010565b905f5260205f200154905080875f0184815481106136b6576136b6614010565b5f918252602080832090910192909255918252600188019052604090208390555b85548690806136e8576136e86147b8565b600190038181905f5260205f20015f90559055856001015f8681526020019081526020015f205f90556001935050505061135c565b5f91505061135c565b5f61135c825490565b6001600160a01b0381165f9081526004602052604090206121f29061375390612fe7565b6001600160a01b0383165f90815260046020526040902090613855565b5f8181526001830160205260408120546137b557508154600181810184555f84815260208082209093018490558454848252828601909352604090209190915561135c565b505f61135c565b604080516001600160f81b03198087166020830152851660218201525f602282018190526001600160e01b03198516602683015269ffffffffffffffffffff198416602a830152910160405160208183030381529060405261381d906147cc565b95945050505050565b606083838360405160200161383d939291906147f2565b60405160208183030381529060405290509392505050565b6020815111156138785760405163e023c21160e01b815260040160405180910390fd5b5f5b815181101561217f57826002015f83838151811061389a5761389a614010565b6020908102919091018101516001600160a01b031682528101919091526040015f908120805460ff191681556001015581516138fb908390839081106138e2576138e2614010565b6020026020010151845f0161320590919063ffffffff16565b5060010161387a565b6103cf8061481c83390190565b5080545f8255905f5260205f20908101906121f291905b8082111561393b575f8155600101613928565b5090565b634e487b7160e01b5f52604160045260245ffd5b604051608081016001600160401b03811182821017156139755761397561393f565b60405290565b60405161010081016001600160401b03811182821017156139755761397561393f565b604051601f8201601f191681016001600160401b03811182821017156139c6576139c661393f565b604052919050565b5f6001600160401b038211156139e6576139e661393f565b5060051b60200190565b5f6001600160401b03821115613a0857613a0861393f565b50601f01601f191660200190565b5f82601f830112613a25575f5ffd5b8135602083015f613a3d613a38846139f0565b61399e565b9050828152858383011115613a50575f5ffd5b828260208301375f92810160200192909252509392505050565b5f82601f830112613a79575f5ffd5b8135613a87613a38826139ce565b8082825260208201915060208360051b860101925085831115613aa8575f5ffd5b602085015b83811015613ae85780356001600160401b03811115613aca575f5ffd5b613ad9886020838a0101613a16565b84525060209283019201613aad565b5095945050505050565b80151581146121f2575f5ffd5b8035613b0a81613af2565b919050565b5f5f60408385031215613b20575f5ffd5b82356001600160401b03811115613b35575f5ffd5b830160808186031215613b46575f5ffd5b613b4e613953565b8135815260208201356001600160401b03811115613b6a575f5ffd5b613b7687828501613a6a565b6020830152506040828101359082015260608201356001600160401b03811115613b9e575f5ffd5b91909101906101008287031215613bb3575f5ffd5b613bbb61397b565b82356001600160401b03811115613bd0575f5ffd5b613bdc88828601613a16565b825250602083810135908201526040808401359082015260608301356001600160401b03811115613c0b575f5ffd5b613c1788828601613a16565b6060830152506080838101359082015260a08084013590820152613c3d60c08401613aff565b60c082015260e08301356001600160401b03811115613c5a575f5ffd5b613c6688828601613a16565b60e083015250606082015295602094909401359450505050565b5f81518084528060208401602086015e5f602082860101526020601f19601f83011685010191505092915050565b602081525f6113596020830184613c80565b6001600160a01b03811681146121f2575f5ffd5b5f60208284031215613ce4575f5ffd5b8135611d5381613cc0565b5f5f60408385031215613d00575f5ffd5b8235613d0b81613cc0565b946020939093013593505050565b5f6040828403128015613d2a575f5ffd5b50604080519081016001600160401b0381118282101715613d4d57613d4d61393f565b604052823581526020928301359281019290925250919050565b5f602082016020835280845180835260408501915060408160051b8601019250602086015f5b82811015613e0457868503603f19018452815180518087526020918201918088019190600582901b8901015f5b82811015613deb57601f198a8303018452613dd6828651613c80565b60209586019594909401939150600101613dba565b5097505050602094850194929092019150600101613d8d565b50929695505050505050565b5f5f60408385031215613e21575f5ffd5b82356001600160401b03811115613e36575f5ffd5b613e4285828601613a6a565b95602094909401359450505050565b5f60208284031215613e61575f5ffd5b5035919050565b5f5f83601f840112613e78575f5ffd5b5081356001600160401b03811115613e8e575f5ffd5b602083019150836020828501011115613ea5575f5ffd5b9250929050565b5f5f60208385031215613ebd575f5ffd5b82356001600160401b03811115613ed2575f5ffd5b613ede85828601613e68565b90969095509350505050565b5f5f60408385031215613efb575f5ffd5b8235613f0681613cc0565b91506020830135613f1681613cc0565b809150509250929050565b602080825282518282018190525f918401906040840190835b81811015613f615783516001600160a01b0316835260209384019390920191600101613f3a565b509095945050505050565b5f5f5f60408486031215613f7e575f5ffd5b8335613f8981613cc0565b925060208401356001600160401b03811115613fa3575f5ffd5b613faf86828701613e68565b9497909650939450505050565b634e487b7160e01b5f52602160045260245ffd5b60038110613fec57634e487b7160e01b5f52602160045260245ffd5b9052565b5f604082019050614002828451613fd0565b602092830151919092015290565b634e487b7160e01b5f52603260045260245ffd5b5f604082018483526040602084015280845180835260608501915060608160051b8601019250602086015f5b8281101561408157605f1987860301845261406c858351613c80565b94506020938401939190910190600101614050565b5092979650505050505050565b5f6020828403121561409e575f5ffd5b8151611d5381613cc0565b5f82825180855260208501945060208160051b830101602085015f5b838110156140f757601f198584030188526140e1838351613c80565b60209889019890935091909101906001016140c5565b50909695505050505050565b60208152815160208201525f60208301516080604084015261412860a08401826140a9565b9050604084015160608401526060840151601f198483030160808501528051610100835261415a610100840182613c80565b90506020820151602084015260408201516040840152606082015183820360608501526141878282613c80565b9150506080820151608084015260a082015160a084015260c08201516141b160c085018215159052565b5060e0820151915082810360e08401526141cb8183613c80565b9695505050505050565b5f602082840312156141e5575f5ffd5b8151611d5381613af2565b5f5f5f5f60808587031215614203575f5ffd5b505082516020840151604085015160609095015191969095509092509050565b634e487b7160e01b5f52601160045260245ffd5b8181038181111561135c5761135c614223565b5f614257613a38846139f0565b905082815283838301111561426a575f5ffd5b8282602083015e5f602084830101529392505050565b5f60208284031215614290575f5ffd5b81516001600160401b038111156142a5575f5ffd5b8201601f810184136142b5575f5ffd5b80516142c3613a38826139ce565b8082825260208201915060208360051b8501019250868311156142e4575f5ffd5b602084015b838110156143b75780516001600160401b03811115614306575f5ffd5b8501603f81018913614316575f5ffd5b6020810151614327613a38826139ce565b808282526020820191506020808460051b8601010192508b83111561434a575f5ffd5b604084015b838110156143a15780516001600160401b0381111561436c575f5ffd5b85016020810190605f018e13614380575f5ffd5b6143928e60208301516040840161424a565b8452506020928301920161434f565b50865250506020938401939190910190506142e9565b509695505050505050565b604081525f6143d460408301856140a9565b90508260208301529392505050565b6001600160a01b03831681526040602082018190525f9061440690830184613c80565b949350505050565b5f81518060208401855e5f93019283525090919050565b5f614406614433838661440e565b8461440e565b5f82601f830112614448575f5ffd5b8135614456613a38826139ce565b8082825260208201915060208360051b860101925085831115614477575f5ffd5b602085015b83811015613ae857803583526020928301920161447c565b5f5f5f5f5f5f60c087890312156144a9575f5ffd5b86356001600160401b038111156144be575f5ffd5b6144ca89828a01613a16565b96505060208701356001600160401b038111156144e5575f5ffd5b8701601f810189136144f5575f5ffd5b8035614503613a38826139ce565b8082825260208201915060208360051b85010192508b831115614524575f5ffd5b6020840193505b8284101561454f57833561453e81613cc0565b82526020938401939091019061452b565b975050505060408701356001600160401b0381111561456c575f5ffd5b61457889828a01614439565b969995985095966060810135965060808101359560a090910135945092505050565b8381526001600160a01b03831660208201526060604082018190525f9061381d90830184613c80565b60ff929092168252606060208301819052600890830152675245434f5645525960c01b6080830152604082015260a00190565b5f8161460457614604614223565b505f190190565b8082018082111561135c5761135c614223565b818382375f9101908152919050565b828152604060208201525f61440660408301846140a9565b604081016146538285613fd0565b611d536020830184613fd0565b5f6001820161467157614671614223565b5060010190565b5f60208284031215614688575f5ffd5b5051919050565b5f5f604083850312156146a0575f5ffd5b82356146ab81613cc0565b915060208301356001600160401b038111156146c5575f5ffd5b6146d185828601613a16565b9150509250929050565b6020810161135c8284613fd0565b828152604060208201525f6144066040830184613c80565b5f60208284031215614711575f5ffd5b81516001600160401b03811115614726575f5ffd5b8201601f81018413614736575f5ffd5b8051614744613a38826139ce565b8082825260208201915060208360051b850101925086831115614765575f5ffd5b602084015b838110156143b75780516001600160401b03811115614787575f5ffd5b8501603f81018913614797575f5ffd5b6147a98960208301516040840161424a565b8452506020928301920161476a565b634e487b7160e01b5f52603160045260245ffd5b805160208083015191908110156147ec575f198160200360031b1b821691505b50919050565b6bffffffffffffffffffffffff198460601b1681528260148201525f61381d603483018461440e56fe60806040526040516103cf3803806103cf8339810160408190526100229161023b565b61002c8282610033565b5050610320565b61003c82610091565b6040516001600160a01b038316907fbc7cd75a20ee27fd9adebab32041f755214dbc6bffa90cc0225b39da2e5c2d3b905f90a280511561008557610080828261010c565b505050565b61008d61017f565b5050565b806001600160a01b03163b5f036100cb57604051634c9c8ce360e01b81526001600160a01b03821660048201526024015b60405180910390fd5b7f360894a13ba1a3210667c828492db98dca3e2076cc3735a920a3ca505d382bbc80546001600160a01b0319166001600160a01b0392909216919091179055565b60605f5f846001600160a01b031684604051610128919061030a565b5f60405180830381855af49150503d805f8114610160576040519150601f19603f3d011682016040523d82523d5f602084013e610165565b606091505b5090925090506101768583836101a0565b95945050505050565b341561019e5760405163b398979f60e01b815260040160405180910390fd5b565b6060826101b5576101b0826101ff565b6101f8565b81511580156101cc57506001600160a01b0384163b155b156101f557604051639996b31560e01b81526001600160a01b03851660048201526024016100c2565b50805b9392505050565b80511561020e57805160208201fd5b60405163d6bda27560e01b815260040160405180910390fd5b634e487b7160e01b5f52604160045260245ffd5b5f5f6040838503121561024c575f5ffd5b82516001600160a01b0381168114610262575f5ffd5b60208401519092506001600160401b0381111561027d575f5ffd5b8301601f8101851361028d575f5ffd5b80516001600160401b038111156102a6576102a6610227565b604051601f8201601f19908116603f011681016001600160401b03811182821017156102d4576102d4610227565b6040528181528282016020018710156102eb575f5ffd5b8160208401602083015e5f602083830101528093505050509250929050565b5f82518060208501845e5f920191825250919050565b60a38061032c5f395ff3fe6080604052600a600c565b005b60186014601a565b6050565b565b5f604b7f360894a13ba1a3210667c828492db98dca3e2076cc3735a920a3ca505d382bbc546001600160a01b031690565b905090565b365f5f375f5f365f845af43d5f5f3e8080156069573d5ff35b3d5ffdfea2646970667358221220d981d9ee70f01ad48e7100822b90c6eac94807a706d05eca81ffeb3e95633e9964736f6c634300081c0033a26469706673582212202c8809fb81b3137ed8530dfb7d2691dce51193b7347002b9c704d561d52fd84764736f6c634300081c0033","linkReferences":{}},"methodIdentifiers":{"CANCEL_EXPIRED_RECOVERY_COOLDOWN()":"5707f318","MINIMUM_RECOVERY_WINDOW()":"99150680","acceptanceCommandTemplates()":"222f6cb5","addGuardian(address,uint256)":"111e5313","canStartRecoveryRequest(address)":"ada4cb70","cancelExpiredRecovery(address)":"ab1b5fde","cancelRecovery()":"0ba234d6","changeThreshold(uint256)":"694e80c3","commandHandler()":"d15558bf","completeRecovery(address,bytes)":"c18d09cf","computeAcceptanceTemplateId(uint256)":"32ccc2f2","computeEmailAuthAddress(address,bytes32)":"3a8eab14","computeRecoveryTemplateId(uint256)":"6da99515","dkim()":"400ad5ce","dkimAddr()":"73357f85","emailAuthImplementation()":"b6201692","emailAuthImplementationAddr()":"1098e02e","exposed_recover(address,bytes)":"d7d5d3d1","extractRecoveredAccountFromAcceptanceCommand(bytes[],uint256)":"2c4ce129","extractRecoveredAccountFromRecoveryCommand(bytes[],uint256)":"a5e3ee70","getAllGuardians(address)":"bbd2a05e","getGuardian(address,address)":"da34a850","getGuardianConfig(address)":"0bb6094a","getPreviousRecoveryRequest(address)":"86b97e51","getRecoveryConfig(address)":"2788bbda","getRecoveryRequest(address)":"4f9a28b9","handleAcceptance((uint256,bytes[],uint256,(string,bytes32,uint256,string,bytes32,bytes32,bool,bytes)),uint256)":"0481af67","handleRecovery((uint256,bytes[],uint256,(string,bytes32,uint256,string,bytes32,bytes32,bool,bytes)),uint256)":"b68126fa","hasGuardianVoted(address,address)":"9c8f8439","isActivated(address)":"c9faa7c5","isInitialized(address)":"d60b347f","isModuleType(uint256)":"ecd05961","killSwitchEnabled()":"ffd55e3c","minimumDelay()":"427ad624","name()":"06fdde03","onInstall(bytes)":"6d61fe70","onUninstall(bytes)":"8a91b0e3","owner()":"8da5cb5b","recoveryCommandTemplates()":"3ef01b8f","removeGuardian(address)":"71404156","renounceOwnership()":"715018a6","selector()":"ea3d508a","toggleKillSwitch()":"4630f1d5","transferOwnership(address)":"f2fde38b","updateRecoveryConfig((uint256,uint256))":"1788178f","validator()":"3a5381b5","verifier()":"2b7ac3f3","verifierAddr()":"663ea2e2","version()":"54fd4d50"},"id":348}