{"abi":[{"type":"function","name":"DEPOSITOR_ACCOUNT","inputs":[],"outputs":[{"name":"addr_","type":"address","internalType":"address"}],"stateMutability":"pure"},{"type":"function","name":"baseFeeScalar","inputs":[],"outputs":[{"name":"","type":"uint32","internalType":"uint32"}],"stateMutability":"view"},{"type":"function","name":"basefee","inputs":[],"outputs":[{"name":"","type":"uint256","internalType":"uint256"}],"stateMutability":"view"},{"type":"function","name":"batcherHash","inputs":[],"outputs":[{"name":"","type":"bytes32","internalType":"bytes32"}],"stateMutability":"view"},{"type":"function","name":"blobBaseFee","inputs":[],"outputs":[{"name":"","type":"uint256","internalType":"uint256"}],"stateMutability":"view"},{"type":"function","name":"blobBaseFeeScalar","inputs":[],"outputs":[{"name":"","type":"uint32","internalType":"uint32"}],"stateMutability":"view"},{"type":"function","name":"daFootprintGasScalar","inputs":[],"outputs":[{"name":"","type":"uint16","internalType":"uint16"}],"stateMutability":"view"},{"type":"function","name":"gasPayingToken","inputs":[],"outputs":[{"name":"addr_","type":"address","internalType":"address"},{"name":"decimals_","type":"uint8","internalType":"uint8"}],"stateMutability":"pure"},{"type":"function","name":"gasPayingTokenName","inputs":[],"outputs":[{"name":"name_","type":"string","internalType":"string"}],"stateMutability":"view"},{"type":"function","name":"gasPayingTokenSymbol","inputs":[],"outputs":[{"name":"symbol_","type":"string","internalType":"string"}],"stateMutability":"view"},{"type":"function","name":"hash","inputs":[],"outputs":[{"name":"","type":"bytes32","internalType":"bytes32"}],"stateMutability":"view"},{"type":"function","name":"isCustomGasToken","inputs":[],"outputs":[{"name":"is_","type":"bool","internalType":"bool"}],"stateMutability":"view"},{"type":"function","name":"l1FeeOverhead","inputs":[],"outputs":[{"name":"","type":"uint256","internalType":"uint256"}],"stateMutability":"view"},{"type":"function","name":"l1FeeScalar","inputs":[],"outputs":[{"name":"","type":"uint256","internalType":"uint256"}],"stateMutability":"view"},{"type":"function","name":"number","inputs":[],"outputs":[{"name":"","type":"uint64","internalType":"uint64"}],"stateMutability":"view"},{"type":"function","name":"operatorFeeConstant","inputs":[],"outputs":[{"name":"","type":"uint64","internalType":"uint64"}],"stateMutability":"view"},{"type":"function","name":"operatorFeeScalar","inputs":[],"outputs":[{"name":"","type":"uint32","internalType":"uint32"}],"stateMutability":"view"},{"type":"function","name":"sequenceNumber","inputs":[],"outputs":[{"name":"","type":"uint64","internalType":"uint64"}],"stateMutability":"view"},{"type":"function","name":"setL1BlockValues","inputs":[{"name":"_number","type":"uint64","internalType":"uint64"},{"name":"_timestamp","type":"uint64","internalType":"uint64"},{"name":"_basefee","type":"uint256","internalType":"uint256"},{"name":"_hash","type":"bytes32","internalType":"bytes32"},{"name":"_sequenceNumber","type":"uint64","internalType":"uint64"},{"name":"_batcherHash","type":"bytes32","internalType":"bytes32"},{"name":"_l1FeeOverhead","type":"uint256","internalType":"uint256"},{"name":"_l1FeeScalar","type":"uint256","internalType":"uint256"}],"outputs":[],"stateMutability":"nonpayable"},{"type":"function","name":"setL1BlockValuesEcotone","inputs":[],"outputs":[],"stateMutability":"nonpayable"},{"type":"function","name":"setL1BlockValuesIsthmus","inputs":[],"outputs":[],"stateMutability":"nonpayable"},{"type":"function","name":"setL1BlockValuesJovian","inputs":[],"outputs":[],"stateMutability":"nonpayable"},{"type":"function","name":"timestamp","inputs":[],"outputs":[{"name":"","type":"uint64","internalType":"uint64"}],"stateMutability":"view"},{"type":"function","name":"version","inputs":[],"outputs":[{"name":"","type":"string","internalType":"string"}],"stateMutability":"pure"}],"bytecode":{"object":"0x608060405234801561001057600080fd5b50610715806100206000396000f3fe608060405234801561001057600080fd5b50600436106101985760003560e01c806364ca23ef116100e3578063c59859181161008c578063e81b2c6d11610066578063e81b2c6d146103f0578063f8206140146103f9578063fe3d57101461040257600080fd5b8063c598591814610375578063d844471514610395578063e591b282146103ce57600080fd5b80638b239f73116100bd5780638b239f73146103435780639e8c49661461034c578063b80777ea1461035557600080fd5b806364ca23ef146102ff57806368d5dca6146103135780638381f58a1461032f57600080fd5b80634397dfef1161014557806354fd4d501161011f57806354fd4d501461027b578063550fcdc9146102bd5780635cf24969146102f657600080fd5b80634397dfef1461021a578063440a5e20146102425780634d5d9a2a1461024a57600080fd5b806316d3bc7f1161017657806316d3bc7f146101d657806321326849146102035780633db6be2b1461021257600080fd5b8063015d8eb91461019d578063098999be146101b257806309bd5a60146101ba575b600080fd5b6101b06101ab366004610623565b610433565b005b6101b0610572565b6101c360025481565b6040519081526020015b60405180910390f35b6008546101ea9067ffffffffffffffff1681565b60405167ffffffffffffffff90911681526020016101cd565b604051600081526020016101cd565b6101b0610585565b6040805173eeeeeeeeeeeeeeeeeeeeeeeeeeeeeeeeeeeeeeee815260126020820152016101cd565b6101b06105af565b6008546102669068010000000000000000900463ffffffff1681565b60405163ffffffff90911681526020016101cd565b60408051808201909152600581527f312e382e3000000000000000000000000000000000000000000000000000000060208201525b6040516101cd9190610695565b60408051808201909152600381527f455448000000000000000000000000000000000000000000000000000000000060208201526102b0565b6101c360015481565b6003546101ea9067ffffffffffffffff1681565b6003546102669068010000000000000000900463ffffffff1681565b6000546101ea9067ffffffffffffffff1681565b6101c360055481565b6101c360065481565b6000546101ea9068010000000000000000900467ffffffffffffffff1681565b600354610266906c01000000000000000000000000900463ffffffff1681565b60408051808201909152600581527f457468657200000000000000000000000000000000000000000000000000000060208201526102b0565b60405173deaddeaddeaddeaddeaddeaddeaddeaddead000181526020016101cd565b6101c360045481565b6101c360075481565b600854610420906c01000000000000000000000000900461ffff1681565b60405161ffff90911681526020016101cd565b3373deaddeaddeaddeaddeaddeaddeaddeaddead0001146104da576040517f08c379a000000000000000000000000000000000000000000000000000000000815260206004820152603b60248201527f4c31426c6f636b3a206f6e6c7920746865206465706f7369746f72206163636f60448201527f756e742063616e20736574204c3120626c6f636b2076616c7565730000000000606482015260840160405180910390fd5b6000805467ffffffffffffffff98891668010000000000000000027fffffffffffffffffffffffffffffffff00000000000000000000000000000000909116998916999099179890981790975560019490945560029290925560038054919094167fffffffffffffffffffffffffffffffffffffffffffffffff00000000000000009190911617909255600491909155600555600655565b61057a6105af565b60a43560a01c600855565b61058d6105af565b6dffff00000000000000000000000060b03560901c1660a43560a01c17600855565b73deaddeaddeaddeaddeaddeaddeaddeaddead00013381146105d957633cc50b456000526004601cfd5b60043560801c60035560143560801c60005560243560015560443560075560643560025560843560045550565b803567ffffffffffffffff8116811461061e57600080fd5b919050565b600080600080600080600080610100898b03121561064057600080fd5b61064989610606565b975061065760208a01610606565b9650604089013595506060890135945061067360808a01610606565b979a969950949793969560a0850135955060c08501359460e001359350915050565b600060208083528351808285015260005b818110156106c2578581018301518582016040015282016106a6565b818111156106d4576000604083870101525b50601f017fffffffffffffffffffffffffffffffffffffffffffffffffffffffffffffffe01692909201604001939250505056fea164736f6c634300080f000a","linkReferences":{}},"methodIdentifiers":{"DEPOSITOR_ACCOUNT()":"e591b282","baseFeeScalar()":"c5985918","basefee()":"5cf24969","batcherHash()":"e81b2c6d","blobBaseFee()":"f8206140","blobBaseFeeScalar()":"68d5dca6","daFootprintGasScalar()":"fe3d5710","gasPayingToken()":"4397dfef","gasPayingTokenName()":"d8444715","gasPayingTokenSymbol()":"550fcdc9","hash()":"09bd5a60","isCustomGasToken()":"21326849","l1FeeOverhead()":"8b239f73","l1FeeScalar()":"9e8c4966","number()":"8381f58a","operatorFeeConstant()":"16d3bc7f","operatorFeeScalar()":"4d5d9a2a","sequenceNumber()":"64ca23ef","setL1BlockValues(uint64,uint64,uint256,bytes32,uint64,bytes32,uint256,uint256)":"015d8eb9","setL1BlockValuesEcotone()":"440a5e20","setL1BlockValuesIsthmus()":"098999be","setL1BlockValuesJovian()":"3db6be2b","timestamp()":"b80777ea","version()":"54fd4d50"},"storageLayout":{"storage":[{"astId":94026,"contract":"src/L2/L1Block.sol:L1Block","label":"number","offset":0,"slot":"0","type":"t_uint64"},{"astId":94029,"contract":"src/L2/L1Block.sol:L1Block","label":"timestamp","offset":8,"slot":"0","type":"t_uint64"},{"astId":94032,"contract":"src/L2/L1Block.sol:L1Block","label":"basefee","offset":0,"slot":"1","type":"t_uint256"},{"astId":94035,"contract":"src/L2/L1Block.sol:L1Block","label":"hash","offset":0,"slot":"2","type":"t_bytes32"},{"astId":94038,"contract":"src/L2/L1Block.sol:L1Block","label":"sequenceNumber","offset":0,"slot":"3","type":"t_uint64"},{"astId":94041,"contract":"src/L2/L1Block.sol:L1Block","label":"blobBaseFeeScalar","offset":8,"slot":"3","type":"t_uint32"},{"astId":94044,"contract":"src/L2/L1Block.sol:L1Block","label":"baseFeeScalar","offset":12,"slot":"3","type":"t_uint32"},{"astId":94047,"contract":"src/L2/L1Block.sol:L1Block","label":"batcherHash","offset":0,"slot":"4","type":"t_bytes32"},{"astId":94050,"contract":"src/L2/L1Block.sol:L1Block","label":"l1FeeOverhead","offset":0,"slot":"5","type":"t_uint256"},{"astId":94053,"contract":"src/L2/L1Block.sol:L1Block","label":"l1FeeScalar","offset":0,"slot":"6","type":"t_uint256"},{"astId":94056,"contract":"src/L2/L1Block.sol:L1Block","label":"blobBaseFee","offset":0,"slot":"7","type":"t_uint256"},{"astId":94059,"contract":"src/L2/L1Block.sol:L1Block","label":"operatorFeeConstant","offset":0,"slot":"8","type":"t_uint64"},{"astId":94062,"contract":"src/L2/L1Block.sol:L1Block","label":"operatorFeeScalar","offset":8,"slot":"8","type":"t_uint32"},{"astId":94065,"contract":"src/L2/L1Block.sol:L1Block","label":"daFootprintGasScalar","offset":12,"slot":"8","type":"t_uint16"}],"types":{"t_bytes32":{"encoding":"inplace","label":"bytes32","numberOfBytes":"32"},"t_uint16":{"encoding":"inplace","label":"uint16","numberOfBytes":"2"},"t_uint256":{"encoding":"inplace","label":"uint256","numberOfBytes":"32"},"t_uint32":{"encoding":"inplace","label":"uint32","numberOfBytes":"4"},"t_uint64":{"encoding":"inplace","label":"uint64","numberOfBytes":"8"}}},"userdoc":{"version":1,"kind":"user","methods":{"DEPOSITOR_ACCOUNT()":{"notice":"Address of the special depositor account."},"baseFeeScalar()":{"notice":"The scalar value applied to the L1 base fee portion of the blob-capable L1 cost func."},"basefee()":{"notice":"The latest L1 base fee."},"batcherHash()":{"notice":"The versioned hash to authenticate the batcher by."},"blobBaseFee()":{"notice":"The latest L1 blob base fee."},"blobBaseFeeScalar()":{"notice":"The scalar value applied to the L1 blob base fee portion of the blob-capable L1 cost func."},"daFootprintGasScalar()":{"notice":"The DA footprint gas scalar."},"gasPayingToken()":{"notice":"Returns the gas paying token, its decimals, name and symbol."},"gasPayingTokenName()":{"notice":"Returns the gas paying token name.         If nothing is set in state, then it means ether is used.         This function cannot be removed because WETH depends on it."},"gasPayingTokenSymbol()":{"notice":"Returns the gas paying token symbol.         If nothing is set in state, then it means ether is used.         This function cannot be removed because WETH depends on it."},"hash()":{"notice":"The latest L1 blockhash."},"isCustomGasToken()":{"notice":"Getter for custom gas token paying networks. Returns true if the         network uses a custom gas token."},"l1FeeOverhead()":{"notice":"The overhead value applied to the L1 portion of the transaction fee."},"l1FeeScalar()":{"notice":"The scalar value applied to the L1 portion of the transaction fee."},"number()":{"notice":"The latest L1 block number known by the L2 system."},"operatorFeeConstant()":{"notice":"The constant value applied to the operator fee."},"operatorFeeScalar()":{"notice":"The scalar value applied to the operator fee."},"sequenceNumber()":{"notice":"The number of L2 blocks in the same epoch."},"setL1BlockValuesEcotone()":{"notice":"Updates the L1 block values for an Ecotone upgraded chain. Params are packed and passed in as raw msg.data instead of ABI to reduce calldata size. Params are expected to be in the following order:   1. _baseFeeScalar      L1 base fee scalar   2. _blobBaseFeeScalar  L1 blob base fee scalar   3. _sequenceNumber     Number of L2 blocks since epoch start.   4. _timestamp          L1 timestamp.   5. _number             L1 blocknumber.   6. _basefee            L1 base fee.   7. _blobBaseFee        L1 blob base fee.   8. _hash               L1 blockhash.   9. _batcherHash        Versioned hash to authenticate batcher by."},"setL1BlockValuesIsthmus()":{"notice":"Updates the L1 block values for an Isthmus upgraded chain. Params are packed and passed in as raw msg.data instead of ABI to reduce calldata size. Params are expected to be in the following order:   1. _baseFeeScalar        L1 base fee scalar   2. _blobBaseFeeScalar    L1 blob base fee scalar   3. _sequenceNumber       Number of L2 blocks since epoch start.   4. _timestamp            L1 timestamp.   5. _number               L1 blocknumber.   6. _basefee              L1 base fee.   7. _blobBaseFee          L1 blob base fee.   8. _hash                 L1 blockhash.   9. _batcherHash          Versioned hash to authenticate batcher by.   10. _operatorFeeScalar   Operator fee scalar.   11. _operatorFeeConstant Operator fee constant."},"setL1BlockValuesJovian()":{"notice":"Updates the L1 block values for a Jovian upgraded chain. Params are packed and passed in as raw msg.data instead of ABI to reduce calldata size. Params are expected to be in the following order:   1. _baseFeeScalar         L1 base fee scalar   2. _blobBaseFeeScalar     L1 blob base fee scalar   3. _sequenceNumber        Number of L2 blocks since epoch start.   4. _timestamp             L1 timestamp.   5. _number                L1 blocknumber.   6. _basefee               L1 base fee.   7. _blobBaseFee           L1 blob base fee.   8. _hash                  L1 blockhash.   9. _batcherHash           Versioned hash to authenticate batcher by.   10. _operatorFeeScalar    Operator fee scalar.   11. _operatorFeeConstant  Operator fee constant.   12. _daFootprintGasScalar DA footprint gas scalar."},"timestamp()":{"notice":"The latest L1 timestamp known by the L2 system."}},"notice":"The L1Block predeploy gives users access to information about the last known L1 block.         Values within this contract are updated once per epoch (every L1 block) and can only be         set by the \"depositor\" account, a special system address. Depositor account transactions         are created by the protocol whenever we move to a new epoch."},"devdoc":{"version":1,"kind":"dev","methods":{"setL1BlockValues(uint64,uint64,uint256,bytes32,uint64,bytes32,uint256,uint256)":{"params":{"_basefee":"L1 basefee.","_batcherHash":"Versioned hash to authenticate batcher by.","_hash":"L1 blockhash.","_l1FeeOverhead":"L1 fee overhead.","_l1FeeScalar":"L1 fee scalar.","_number":"L1 blocknumber.","_sequenceNumber":"Number of L2 blocks since epoch start.","_timestamp":"L1 timestamp."}},"version()":{}},"title":"L1Block"},"id":199}