{"abi":[{"type":"function","name":"acceptanceCommandTemplates","inputs":[],"outputs":[{"name":"","type":"string[][]","internalType":"string[][]"}],"stateMutability":"pure"},{"type":"function","name":"extractRecoveredAccountFromAcceptanceCommand","inputs":[{"name":"commandParams","type":"bytes[]","internalType":"bytes[]"},{"name":"","type":"uint256","internalType":"uint256"}],"outputs":[{"name":"","type":"address","internalType":"address"}],"stateMutability":"pure"},{"type":"function","name":"extractRecoveredAccountFromRecoveryCommand","inputs":[{"name":"commandParams","type":"bytes[]","internalType":"bytes[]"},{"name":"","type":"uint256","internalType":"uint256"}],"outputs":[{"name":"","type":"address","internalType":"address"}],"stateMutability":"pure"},{"type":"function","name":"parseRecoveryDataHash","inputs":[{"name":"templateIdx","type":"uint256","internalType":"uint256"},{"name":"commandParams","type":"bytes[]","internalType":"bytes[]"}],"outputs":[{"name":"","type":"bytes32","internalType":"bytes32"}],"stateMutability":"pure"},{"type":"function","name":"recoveryCommandTemplates","inputs":[],"outputs":[{"name":"","type":"string[][]","internalType":"string[][]"}],"stateMutability":"pure"},{"type":"function","name":"validateAcceptanceCommand","inputs":[{"name":"templateIdx","type":"uint256","internalType":"uint256"},{"name":"commandParams","type":"bytes[]","internalType":"bytes[]"}],"outputs":[{"name":"","type":"address","internalType":"address"}],"stateMutability":"pure"},{"type":"function","name":"validateRecoveryCommand","inputs":[{"name":"templateIdx","type":"uint256","internalType":"uint256"},{"name":"commandParams","type":"bytes[]","internalType":"bytes[]"}],"outputs":[{"name":"","type":"address","internalType":"address"}],"stateMutability":"pure"},{"type":"error","name":"InvalidAccount","inputs":[]},{"type":"error","name":"InvalidCommandParams","inputs":[{"name":"paramsLength","type":"uint256","internalType":"uint256"},{"name":"expectedParamsLength","type":"uint256","internalType":"uint256"}]},{"type":"error","name":"InvalidTemplateIndex","inputs":[{"name":"templateIdx","type":"uint256","internalType":"uint256"},{"name":"expectedTemplateIdx","type":"uint256","internalType":"uint256"}]}],"bytecode":{"object":"0x6080604052348015600e575f5ffd5b50610c688061001c5f395ff3fe608060405234801561000f575f5ffd5b506004361061007a575f3560e01c80633ef01b8f116100585780633ef01b8f146100d6578063861f45b7146100de578063a5e3ee70146100c3578063da066739146100f1575f5ffd5b80630536542e1461007e578063222f6cb5146100ae5780632c4ce129146100c3575b5f5ffd5b61009161008c366004610957565b610112565b6040516001600160a01b0390911681526020015b60405180910390f35b6100b661027c565b6040516100a591906109cd565b6100916100d1366004610a76565b6104a9565b6100b66104e3565b6100916100ec366004610957565b6107b0565b6101046100ff366004610957565b61083f565b6040519081526020016100a5565b5f831561014057604051635be7785560e01b8152600481018590525f60248201526044015b60405180910390fd5b6002821461016b576040516325922ecf60e21b81526004810183905260026024820152604401610137565b5f83835f81811061017e5761017e610abe565b90506020028101906101909190610ad2565b81019061019d9190610b15565b90505f848460018181106101b3576101b3610abe565b90506020028101906101c59190610ad2565b8101906101d29190610b56565b90506001600160a01b0382166101fb57604051630da30f6560e31b815260040160405180910390fd5b6040516399bbc83f60e01b815273__$423da46a850dad686d91731f1a664ae5e6$__906399bbc83f90610232908490600401610c09565b602060405180830381865af415801561024d573d5f5f3e3d5ffd5b505050506040513d601f19601f820116820180604052508101906102719190610c1b565b509095945050505050565b6040805160018082528183019092526060915f9190816020015b606081526020019060019003908161029657505060408051600580825260c08201909252919250602082015b60608152602001906001900390816102c257905050815f815181106102e9576102e9610abe565b6020026020010181905250604051806040016040528060068152602001651058d8d95c1d60d21b815250815f8151811061032557610325610abe565b60200260200101515f8151811061033e5761033e610abe565b60200260200101819052506040518060400160405280600881526020016733bab0b93234b0b760c11b815250815f8151811061037c5761037c610abe565b602002602001015160018151811061039657610396610abe565b6020026020010181905250604051806040016040528060078152602001661c995c5d595cdd60ca1b815250815f815181106103d3576103d3610abe565b60200260200101516002815181106103ed576103ed610abe565b6020026020010181905250604051806040016040528060038152602001623337b960e91b815250815f8151811061042657610426610abe565b602002602001015160038151811061044057610440610abe565b6020026020010181905250604051806040016040528060098152602001687b657468416464727d60b81b815250815f8151811061047f5761047f610abe565b602002602001015160048151811061049957610499610abe565b6020908102919091010152919050565b5f83835f8181106104bc576104bc610abe565b90506020028101906104ce9190610ad2565b8101906104db9190610b15565b949350505050565b6040805160018082528183019092526060915f9190816020015b60608152602001906001900390816104fd5750506040805160078082526101008201909252919250602082015b606081526020019060019003908161052a57905050815f8151811061055157610551610abe565b6020026020010181905250604051806040016040528060078152602001662932b1b7bb32b960c91b815250815f8151811061058e5761058e610abe565b60200260200101515f815181106105a7576105a7610abe565b6020026020010181905250604051806040016040528060078152602001661858d8dbdd5b9d60ca1b815250815f815181106105e4576105e4610abe565b60200260200101516001815181106105fe576105fe610abe565b6020026020010181905250604051806040016040528060098152602001687b657468416464727d60b81b815250815f8151811061063d5761063d610abe565b602002602001015160028151811061065757610657610abe565b6020026020010181905250604051806040016040528060058152602001647573696e6760d81b815250815f8151811061069257610692610abe565b60200260200101516003815181106106ac576106ac610abe565b6020026020010181905250604051806040016040528060088152602001677265636f7665727960c01b815250815f815181106106ea576106ea610abe565b602002602001015160048151811061070457610704610abe565b6020026020010181905250604051806040016040528060048152602001630d0c2e6d60e31b815250815f8151811061073e5761073e610abe565b602002602001015160058151811061075857610758610abe565b6020026020010181905250604051806040016040528060088152602001677b737472696e677d60c01b815250815f8151811061079657610796610abe565b602002602001015160068151811061049957610499610abe565b5f83156107d957604051635be7785560e01b8152600481018590525f6024820152604401610137565b60018214610804576040516325922ecf60e21b81526004810183905260016024820152604401610137565b5f83835f81811061081757610817610abe565b90506020028101906108299190610ad2565b8101906108369190610b15565b95945050505050565b5f831561086857604051635be7785560e01b8152600481018590525f6024820152604401610137565b73__$423da46a850dad686d91731f1a664ae5e6$__6399bbc83f8484600181811061089557610895610abe565b90506020028101906108a79190610ad2565b8101906108b49190610b56565b6040518263ffffffff1660e01b81526004016108d09190610c09565b602060405180830381865af41580156108eb573d5f5f3e3d5ffd5b505050506040513d601f19601f820116820180604052508101906104db9190610c1b565b5f5f83601f84011261091f575f5ffd5b50813567ffffffffffffffff811115610936575f5ffd5b6020830191508360208260051b8501011115610950575f5ffd5b9250929050565b5f5f5f60408486031215610969575f5ffd5b83359250602084013567ffffffffffffffff811115610986575f5ffd5b6109928682870161090f565b9497909650939450505050565b5f81518084528060208401602086015e5f602082860101526020601f19601f83011685010191505092915050565b5f602082016020835280845180835260408501915060408160051b8601019250602086015f5b82811015610a6a57868503603f19018452815180518087526020918201918088019190600582901b8901015f5b82811015610a5157601f198a8303018452610a3c82865161099f565b60209586019594909401939150600101610a20565b50975050506020948501949290920191506001016109f3565b50929695505050505050565b5f5f5f60408486031215610a88575f5ffd5b833567ffffffffffffffff811115610a9e575f5ffd5b610aaa8682870161090f565b909790965060209590950135949350505050565b634e487b7160e01b5f52603260045260245ffd5b5f5f8335601e19843603018112610ae7575f5ffd5b83018035915067ffffffffffffffff821115610b01575f5ffd5b602001915036819003821315610950575f5ffd5b5f60208284031215610b25575f5ffd5b81356001600160a01b0381168114610b3b575f5ffd5b9392505050565b634e487b7160e01b5f52604160045260245ffd5b5f60208284031215610b66575f5ffd5b813567ffffffffffffffff811115610b7c575f5ffd5b8201601f81018413610b8c575f5ffd5b803567ffffffffffffffff811115610ba657610ba6610b42565b604051601f8201601f19908116603f0116810167ffffffffffffffff81118282101715610bd557610bd5610b42565b604052818152828201602001861015610bec575f5ffd5b816020840160208301375f91810160200191909152949350505050565b602081525f610b3b602083018461099f565b5f60208284031215610c2b575f5ffd5b505191905056fea264697066735822122064c7f60b6855d356e5ff5496e9f45132cbacfa7d6bfd6cfab014acd376288c4b64736f6c634300081c0033","linkReferences":{"node_modules/@zk-email/ether-email-auth-contracts/src/libraries/StringUtils.sol":{"StringUtils":[{"start":550,"length":20},{"start":2182,"length":20}]}}},"methodIdentifiers":{"acceptanceCommandTemplates()":"222f6cb5","extractRecoveredAccountFromAcceptanceCommand(bytes[],uint256)":"2c4ce129","extractRecoveredAccountFromRecoveryCommand(bytes[],uint256)":"a5e3ee70","parseRecoveryDataHash(uint256,bytes[])":"da066739","recoveryCommandTemplates()":"3ef01b8f","validateAcceptanceCommand(uint256,bytes[])":"861f45b7","validateRecoveryCommand(uint256,bytes[])":"0536542e"},"id":288}