{"abi":[{"type":"function","name":"MAX_NUMBER_OF_GUARDIANS","inputs":[],"outputs":[{"name":"","type":"uint256","internalType":"uint256"}],"stateMutability":"view"},{"type":"error","name":"MaxNumberOfGuardiansReached","inputs":[]},{"type":"error","name":"TooManyValuesToRemove","inputs":[]}],"bytecode":{"object":"0x60856032600b8282823980515f1a607314602657634e487b7160e01b5f525f60045260245ffd5b305f52607381538281f3fe73000000000000000000000000000000000000000030146080604052600436106032575f3560e01c8063e9e3c855146036575b5f5ffd5b603d602081565b60405190815260200160405180910390f3fea26469706673582212205c67162a624682dc6f1820f35f6de121c793f16ade58d062220a338095144a2464736f6c634300081c0033","linkReferences":{}},"methodIdentifiers":{"MAX_NUMBER_OF_GUARDIANS()":"e9e3c855"},"id":296}