{"abi":[{"type":"constructor","inputs":[],"stateMutability":"nonpayable"},{"type":"function","name":"acceptanceCommandTemplates","inputs":[],"outputs":[{"name":"","type":"string[][]","internalType":"string[][]"}],"stateMutability":"pure"},{"type":"function","name":"exposed_getPreviousOwnerInLinkedList","inputs":[{"name":"safe","type":"address","internalType":"address"},{"name":"oldOwner","type":"address","internalType":"address"}],"outputs":[{"name":"","type":"address","internalType":"address"}],"stateMutability":"view"},{"type":"function","name":"extractRecoveredAccountFromAcceptanceCommand","inputs":[{"name":"commandParams","type":"bytes[]","internalType":"bytes[]"},{"name":"","type":"uint256","internalType":"uint256"}],"outputs":[{"name":"","type":"address","internalType":"address"}],"stateMutability":"pure"},{"type":"function","name":"extractRecoveredAccountFromRecoveryCommand","inputs":[{"name":"commandParams","type":"bytes[]","internalType":"bytes[]"},{"name":"","type":"uint256","internalType":"uint256"}],"outputs":[{"name":"","type":"address","internalType":"address"}],"stateMutability":"pure"},{"type":"function","name":"parseRecoveryDataHash","inputs":[{"name":"templateIdx","type":"uint256","internalType":"uint256"},{"name":"commandParams","type":"bytes[]","internalType":"bytes[]"}],"outputs":[{"name":"","type":"bytes32","internalType":"bytes32"}],"stateMutability":"view"},{"type":"function","name":"recoveryCommandTemplates","inputs":[],"outputs":[{"name":"","type":"string[][]","internalType":"string[][]"}],"stateMutability":"pure"},{"type":"function","name":"selector","inputs":[],"outputs":[{"name":"","type":"bytes4","internalType":"bytes4"}],"stateMutability":"view"},{"type":"function","name":"validateAcceptanceCommand","inputs":[{"name":"templateIdx","type":"uint256","internalType":"uint256"},{"name":"commandParams","type":"bytes[]","internalType":"bytes[]"}],"outputs":[{"name":"","type":"address","internalType":"address"}],"stateMutability":"pure"},{"type":"function","name":"validateRecoveryCommand","inputs":[{"name":"templateIdx","type":"uint256","internalType":"uint256"},{"name":"commandParams","type":"bytes[]","internalType":"bytes[]"}],"outputs":[{"name":"","type":"address","internalType":"address"}],"stateMutability":"view"},{"type":"error","name":"InvalidCommandParams","inputs":[{"name":"paramsLength","type":"uint256","internalType":"uint256"},{"name":"expectedParamsLength","type":"uint256","internalType":"uint256"}]},{"type":"error","name":"InvalidNewOwner","inputs":[{"name":"newOwner","type":"address","internalType":"address"}]},{"type":"error","name":"InvalidOldOwner","inputs":[{"name":"oldOwner","type":"address","internalType":"address"}]},{"type":"error","name":"InvalidTemplateIndex","inputs":[{"name":"templateIdx","type":"uint256","internalType":"uint256"},{"name":"expectedTemplateIdx","type":"uint256","internalType":"uint256"}]}],"bytecode":{"object":"0x6080604052348015600e575f5ffd5b5061117f8061001c5f395ff3fe608060405234801561000f575f5ffd5b5060043610610090575f3560e01c80633ef01b8f116100635780633ef01b8f146100ff578063861f45b714610107578063a5e3ee70146100d9578063da0667391461011a578063ea3d508a1461013b575f5ffd5b80630536542e14610094578063222f6cb5146100c45780632c4ce129146100d95780633e59ae16146100ec575b5f5ffd5b6100a76100a2366004610da9565b61015c565b6040516001600160a01b0390911681526020015b60405180910390f35b6100cc61039f565b6040516100bb9190610e1f565b6100a76100e7366004610ec8565b6105cc565b6100a76100fa366004610f27565b610606565b6100cc61061a565b6100a7610115366004610da9565b610a36565b61012d610128366004610da9565b610ac5565b6040519081526020016100bb565b610143610c49565b6040516001600160e01b031990911681526020016100bb565b5f831561018a57604051635be7785560e01b8152600481018590525f60248201526044015b60405180910390fd5b600382146101b5576040516325922ecf60e21b81526004810183905260036024820152604401610181565b5f83835f8181106101c8576101c8610f5e565b90506020028101906101da9190610f72565b8101906101e79190610fb5565b90505f848460018181106101fd576101fd610f5e565b905060200281019061020f9190610f72565b81019061021c9190610fb5565b90505f8585600281811061023257610232610f5e565b90506020028101906102449190610f72565b8101906102519190610fb5565b6040516317aa5fb760e11b81526001600160a01b0384811660048301529192505f91851690632f54bf6e90602401602060405180830381865afa15801561029a573d5f5f3e3d5ffd5b505050506040513d601f19601f820116820180604052508101906102be9190610fd7565b9050806102e95760405163377abe5160e01b81526001600160a01b0384166004820152602401610181565b6040516317aa5fb760e11b81526001600160a01b0383811660048301525f9190861690632f54bf6e90602401602060405180830381865afa158015610330573d5f5f3e3d5ffd5b505050506040513d601f19601f820116820180604052508101906103549190610fd7565b90506001600160a01b03831615806103695750805b1561039257604051630896d9ad60e41b81526001600160a01b0384166004820152602401610181565b5092979650505050505050565b6040805160018082528183019092526060915f9190816020015b60608152602001906001900390816103b957505060408051600580825260c08201909252919250602082015b60608152602001906001900390816103e557905050815f8151811061040c5761040c610f5e565b6020026020010181905250604051806040016040528060068152602001651058d8d95c1d60d21b815250815f8151811061044857610448610f5e565b60200260200101515f8151811061046157610461610f5e565b60200260200101819052506040518060400160405280600881526020016733bab0b93234b0b760c11b815250815f8151811061049f5761049f610f5e565b60200260200101516001815181106104b9576104b9610f5e565b6020026020010181905250604051806040016040528060078152602001661c995c5d595cdd60ca1b815250815f815181106104f6576104f6610f5e565b602002602001015160028151811061051057610510610f5e565b6020026020010181905250604051806040016040528060038152602001623337b960e91b815250815f8151811061054957610549610f5e565b602002602001015160038151811061056357610563610f5e565b6020026020010181905250604051806040016040528060098152602001687b657468416464727d60b81b815250815f815181106105a2576105a2610f5e565b60200260200101516004815181106105bc576105bc610f5e565b6020908102919091010152919050565b5f83835f8181106105df576105df610f5e565b90506020028101906105f19190610f72565b8101906105fe9190610fb5565b949350505050565b5f6106118383610c6c565b90505b92915050565b6040805160018082528183019092526060915f9190816020015b606081526020019060019003908161063457505060408051600b8082526101808201909252919250602082015b606081526020019060019003908161066157905050815f8151811061068857610688610f5e565b6020026020010181905250604051806040016040528060078152602001662932b1b7bb32b960c91b815250815f815181106106c5576106c5610f5e565b60200260200101515f815181106106de576106de610f5e565b6020026020010181905250604051806040016040528060078152602001661858d8dbdd5b9d60ca1b815250815f8151811061071b5761071b610f5e565b602002602001015160018151811061073557610735610f5e565b6020026020010181905250604051806040016040528060098152602001687b657468416464727d60b81b815250815f8151811061077457610774610f5e565b602002602001015160028151811061078e5761078e610f5e565b60200260200101819052506040518060400160405280600481526020016366726f6d60e01b815250815f815181106107c8576107c8610f5e565b60200260200101516003815181106107e2576107e2610f5e565b6020026020010181905250604051806040016040528060038152602001621bdb1960ea1b815250815f8151811061081b5761081b610f5e565b602002602001015160048151811061083557610835610f5e565b60200260200101819052506040518060400160405280600581526020016437bbb732b960d91b815250815f8151811061087057610870610f5e565b602002602001015160058151811061088a5761088a610f5e565b6020026020010181905250604051806040016040528060098152602001687b657468416464727d60b81b815250815f815181106108c9576108c9610f5e565b60200260200101516006815181106108e3576108e3610f5e565b602002602001018190525060405180604001604052806002815260200161746f60f01b815250815f8151811061091b5761091b610f5e565b602002602001015160078151811061093557610935610f5e565b6020026020010181905250604051806040016040528060038152602001626e657760e81b815250815f8151811061096e5761096e610f5e565b602002602001015160088151811061098857610988610f5e565b60200260200101819052506040518060400160405280600581526020016437bbb732b960d91b815250815f815181106109c3576109c3610f5e565b60200260200101516009815181106109dd576109dd610f5e565b6020026020010181905250604051806040016040528060098152602001687b657468416464727d60b81b815250815f81518110610a1c57610a1c610f5e565b6020026020010151600a815181106105bc576105bc610f5e565b5f8315610a5f57604051635be7785560e01b8152600481018590525f6024820152604401610181565b60018214610a8a576040516325922ecf60e21b81526004810183905260016024820152604401610181565b5f83835f818110610a9d57610a9d610f5e565b9050602002810190610aaf9190610f72565b810190610abc9190610fb5565b95945050505050565b5f8315610aee57604051635be7785560e01b8152600481018590525f6024820152604401610181565b5f83835f818110610b0157610b01610f5e565b9050602002810190610b139190610f72565b810190610b209190610fb5565b90505f84846001818110610b3657610b36610f5e565b9050602002810190610b489190610f72565b810190610b559190610fb5565b90505f85856002818110610b6b57610b6b610f5e565b9050602002810190610b7d9190610f72565b810190610b8a9190610fb5565b90505f610b978484610c6c565b90505f6040518060600160405280602281526020016111286022913980516020909101206040516001600160a01b03808516602483015280871660448301528516606482015260840160408051601f19818403018152918152602080830180516001600160e01b03166001600160e01b03199095169490941790935251909250610c2591879184910161100a565b60405160208183030381529060405280519060200120955050505050509392505050565b604051806060016040528060228152602001611128602291398051906020012081565b5f5f836001600160a01b031663a0e67e2b6040518163ffffffff1660e01b81526004015f60405180830381865afa158015610ca9573d5f5f3e3d5ffd5b505050506040513d5f823e601f3d908101601f19168201604052610cd0919081019061103d565b80519091505f805b82811015610d2257856001600160a01b0316848281518110610cfc57610cfc610f5e565b60200260200101516001600160a01b031603610d1a57809150610d22565b600101610cd8565b5060018115610d545783610d37600184611108565b81518110610d4757610d47610f5e565b6020026020010151610d56565b805b979650505050505050565b5f5f83601f840112610d71575f5ffd5b50813567ffffffffffffffff811115610d88575f5ffd5b6020830191508360208260051b8501011115610da2575f5ffd5b9250929050565b5f5f5f60408486031215610dbb575f5ffd5b83359250602084013567ffffffffffffffff811115610dd8575f5ffd5b610de486828701610d61565b9497909650939450505050565b5f81518084528060208401602086015e5f602082860101526020601f19601f83011685010191505092915050565b5f602082016020835280845180835260408501915060408160051b8601019250602086015f5b82811015610ebc57868503603f19018452815180518087526020918201918088019190600582901b8901015f5b82811015610ea357601f198a8303018452610e8e828651610df1565b60209586019594909401939150600101610e72565b5097505050602094850194929092019150600101610e45565b50929695505050505050565b5f5f5f60408486031215610eda575f5ffd5b833567ffffffffffffffff811115610ef0575f5ffd5b610efc86828701610d61565b909790965060209590950135949350505050565b6001600160a01b0381168114610f24575f5ffd5b50565b5f5f60408385031215610f38575f5ffd5b8235610f4381610f10565b91506020830135610f5381610f10565b809150509250929050565b634e487b7160e01b5f52603260045260245ffd5b5f5f8335601e19843603018112610f87575f5ffd5b83018035915067ffffffffffffffff821115610fa1575f5ffd5b602001915036819003821315610da2575f5ffd5b5f60208284031215610fc5575f5ffd5b8135610fd081610f10565b9392505050565b5f60208284031215610fe7575f5ffd5b81518015158114610fd0575f5ffd5b634e487b7160e01b5f52604160045260245ffd5b6001600160a01b03831681526040602082018190525f906105fe90830184610df1565b805161103881610f10565b919050565b5f6020828403121561104d575f5ffd5b815167ffffffffffffffff811115611063575f5ffd5b8201601f81018413611073575f5ffd5b805167ffffffffffffffff81111561108d5761108d610ff6565b8060051b604051601f19603f830116810181811067ffffffffffffffff821117156110ba576110ba610ff6565b6040529182526020818401810192908101878411156110d7575f5ffd5b6020850194505b838510156110fd576110ef8561102d565b8152602094850194016110de565b509695505050505050565b8181038181111561061457634e487b7160e01b5f52601160045260245ffdfe737761704f776e657228616464726573732c616464726573732c6164647265737329a2646970667358221220a22d4a4db3ed0b7dcda0352faf6a528cb5e7aaa8d194705610e643e2fff3d4fc64736f6c634300081c0033","linkReferences":{}},"methodIdentifiers":{"acceptanceCommandTemplates()":"222f6cb5","exposed_getPreviousOwnerInLinkedList(address,address)":"3e59ae16","extractRecoveredAccountFromAcceptanceCommand(bytes[],uint256)":"2c4ce129","extractRecoveredAccountFromRecoveryCommand(bytes[],uint256)":"a5e3ee70","parseRecoveryDataHash(uint256,bytes[])":"da066739","recoveryCommandTemplates()":"3ef01b8f","selector()":"ea3d508a","validateAcceptanceCommand(uint256,bytes[])":"861f45b7","validateRecoveryCommand(uint256,bytes[])":"0536542e"},"id":359}