{"abi":[{"type":"constructor","inputs":[],"stateMutability":"nonpayable"},{"type":"function","name":"REVOKE_PREFIX","inputs":[],"outputs":[{"name":"","type":"string","internalType":"string"}],"stateMutability":"view"},{"type":"function","name":"SET_PREFIX","inputs":[],"outputs":[{"name":"","type":"string","internalType":"string"}],"stateMutability":"view"},{"type":"function","name":"UPGRADE_INTERFACE_VERSION","inputs":[],"outputs":[{"name":"","type":"string","internalType":"string"}],"stateMutability":"view"},{"type":"function","name":"changeSigner","inputs":[{"name":"_newSigner","type":"address","internalType":"address"}],"outputs":[],"stateMutability":"nonpayable"},{"type":"function","name":"computeSignedMsg","inputs":[{"name":"prefix","type":"string","internalType":"string"},{"name":"domainName","type":"string","internalType":"string"},{"name":"publicKeyHash","type":"bytes32","internalType":"bytes32"}],"outputs":[{"name":"","type":"string","internalType":"string"}],"stateMutability":"pure"},{"type":"function","name":"dkimRegistry","inputs":[],"outputs":[{"name":"","type":"address","internalType":"contract DKIMRegistry"}],"stateMutability":"view"},{"type":"function","name":"initialize","inputs":[{"name":"_initialOwner","type":"address","internalType":"address"},{"name":"_signer","type":"address","internalType":"address"}],"outputs":[],"stateMutability":"nonpayable"},{"type":"function","name":"isDKIMPublicKeyHashValid","inputs":[{"name":"domainName","type":"string","internalType":"string"},{"name":"publicKeyHash","type":"bytes32","internalType":"bytes32"}],"outputs":[{"name":"","type":"bool","internalType":"bool"}],"stateMutability":"view"},{"type":"function","name":"owner","inputs":[],"outputs":[{"name":"","type":"address","internalType":"address"}],"stateMutability":"view"},{"type":"function","name":"proxiableUUID","inputs":[],"outputs":[{"name":"","type":"bytes32","internalType":"bytes32"}],"stateMutability":"view"},{"type":"function","name":"renounceOwnership","inputs":[],"outputs":[],"stateMutability":"nonpayable"},{"type":"function","name":"revokeDKIMPublicKeyHash","inputs":[{"name":"selector","type":"string","internalType":"string"},{"name":"domainName","type":"string","internalType":"string"},{"name":"publicKeyHash","type":"bytes32","internalType":"bytes32"},{"name":"signature","type":"bytes","internalType":"bytes"}],"outputs":[],"stateMutability":"nonpayable"},{"type":"function","name":"setDKIMPublicKeyHash","inputs":[{"name":"selector","type":"string","internalType":"string"},{"name":"domainName","type":"string","internalType":"string"},{"name":"publicKeyHash","type":"bytes32","internalType":"bytes32"},{"name":"signature","type":"bytes","internalType":"bytes"}],"outputs":[],"stateMutability":"nonpayable"},{"type":"function","name":"signer","inputs":[],"outputs":[{"name":"","type":"address","internalType":"address"}],"stateMutability":"view"},{"type":"function","name":"transferOwnership","inputs":[{"name":"newOwner","type":"address","internalType":"address"}],"outputs":[],"stateMutability":"nonpayable"},{"type":"function","name":"upgradeToAndCall","inputs":[{"name":"newImplementation","type":"address","internalType":"address"},{"name":"data","type":"bytes","internalType":"bytes"}],"outputs":[],"stateMutability":"payable"},{"type":"event","name":"Initialized","inputs":[{"name":"version","type":"uint64","indexed":false,"internalType":"uint64"}],"anonymous":false},{"type":"event","name":"OwnershipTransferred","inputs":[{"name":"previousOwner","type":"address","indexed":true,"internalType":"address"},{"name":"newOwner","type":"address","indexed":true,"internalType":"address"}],"anonymous":false},{"type":"event","name":"SignerChanged","inputs":[{"name":"oldSigner","type":"address","indexed":true,"internalType":"address"},{"name":"newOwner","type":"address","indexed":true,"internalType":"address"}],"anonymous":false},{"type":"event","name":"Upgraded","inputs":[{"name":"implementation","type":"address","indexed":true,"internalType":"address"}],"anonymous":false},{"type":"error","name":"AddressEmptyCode","inputs":[{"name":"target","type":"address","internalType":"address"}]},{"type":"error","name":"ECDSAInvalidSignature","inputs":[]},{"type":"error","name":"ECDSAInvalidSignatureLength","inputs":[{"name":"length","type":"uint256","internalType":"uint256"}]},{"type":"error","name":"ECDSAInvalidSignatureS","inputs":[{"name":"s","type":"bytes32","internalType":"bytes32"}]},{"type":"error","name":"ERC1967InvalidImplementation","inputs":[{"name":"implementation","type":"address","internalType":"address"}]},{"type":"error","name":"ERC1967NonPayable","inputs":[]},{"type":"error","name":"FailedCall","inputs":[]},{"type":"error","name":"InvalidInitialization","inputs":[]},{"type":"error","name":"NotInitializing","inputs":[]},{"type":"error","name":"OwnableInvalidOwner","inputs":[{"name":"owner","type":"address","internalType":"address"}]},{"type":"error","name":"OwnableUnauthorizedAccount","inputs":[{"name":"account","type":"address","internalType":"address"}]},{"type":"error","name":"StringsInsufficientHexLength","inputs":[{"name":"value","type":"uint256","internalType":"uint256"},{"name":"length","type":"uint256","internalType":"uint256"}]},{"type":"error","name":"UUPSUnauthorizedCallContext","inputs":[]},{"type":"error","name":"UUPSUnsupportedProxiableUUID","inputs":[{"name":"slot","type":"bytes32","internalType":"bytes32"}]}],"bytecode":{"object":"0x60a0604052306080523480156012575f5ffd5b506080516123376100395f395f8181610d0701528181610d300152610e7401526123375ff3fe6080604052600436106100ef575f3560e01c80638da5cb5b11610087578063d507c32011610057578063d507c320146102c0578063e7a7977a146102f2578063f2fde38b14610321578063f6b4934414610340575f5ffd5b80638da5cb5b1461021657806397170f2b14610252578063aad2b72314610271578063ad3cb1cc14610290575f5ffd5b80634f1ef286116100c25780634f1ef286146101af57806352d1902d146101c25780636423f1e2146101e4578063715018a614610202575f5ffd5b806307f1eaf5146100f3578063238ac93314610138578063485cc9551461016f5780634bcbbe9614610190575b5f5ffd5b3480156100fe575f5ffd5b506101226040518060400160405280600481526020016329a2aa1d60e11b81525081565b60405161012f91906116e0565b60405180910390f35b348015610143575f5ffd5b50600154610157906001600160a01b031681565b6040516001600160a01b03909116815260200161012f565b34801561017a575f5ffd5b5061018e61018936600461170d565b61035f565b005b34801561019b575f5ffd5b506101226101aa3660046117e1565b6104d1565b61018e6101bd36600461184d565b610509565b3480156101cd575f5ffd5b506101d6610528565b60405190815260200161012f565b3480156101ef575f5ffd5b505f54610157906001600160a01b031681565b34801561020d575f5ffd5b5061018e610543565b348015610221575f5ffd5b507f9016d09d72d40fdae2fd8ceac6b6234c7706214fd39c1cd1e609a0528c199300546001600160a01b0316610157565b34801561025d575f5ffd5b5061018e61026c366004611897565b610556565b34801561027c575f5ffd5b5061018e61028b36600461192c565b610835565b34801561029b575f5ffd5b50610122604051806040016040528060058152602001640352e302e360dc1b81525081565b3480156102cb575f5ffd5b50610122604051806040016040528060078152602001662922ab27a5a29d60c91b81525081565b3480156102fd575f5ffd5b5061031161030c366004611945565b610921565b604051901515815260200161012f565b34801561032c575f5ffd5b5061018e61033b36600461192c565b61099b565b34801561034b575f5ffd5b5061018e61035a366004611897565b6109d8565b7ff0c57e16840df040f15088dc2f81fe391c3923bec73e23a9662efc9c229c6a008054600160401b810460ff1615906001600160401b03165f811580156103a35750825b90505f826001600160401b031660011480156103be5750303b155b9050811580156103cc575080155b156103ea5760405163f92ee8a960e01b815260040160405180910390fd5b845467ffffffffffffffff19166001178555831561041457845460ff60401b1916600160401b1785555b61041d87610c82565b3060405161042a906116a5565b6001600160a01b039091168152602001604051809103905ff080158015610453573d5f5f3e3d5ffd5b505f80546001600160a01b03199081166001600160a01b03938416179091556001805490911691881691909117905583156104c857845460ff60401b19168555604051600181527fc7f505b2f371ae2175ee4913f4499e1f2633a7b5936321eed1cdaeb6115181d29060200160405180910390a15b50505050505050565b606083836104de84610c93565b6040516020016104f09392919061199d565b60405160208183030381529060405290505b9392505050565b610511610cfc565b61051a82610da0565b6105248282610da8565b5050565b5f610531610e69565b505f5160206122e25f395f51905f5290565b61054b610eb2565b6105545f610f0d565b565b83515f0361059e5760405162461bcd60e51b815260206004820152601060248201526f24b73b30b634b21039b2b632b1ba37b960811b60448201526064015b60405180910390fd5b82515f036105e45760405162461bcd60e51b8152602060048201526013602482015272496e76616c696420646f6d61696e206e616d6560681b6044820152606401610595565b8161062b5760405162461bcd60e51b8152602060048201526017602482015276092dcecc2d8d2c840e0eac4d8d2c640d6caf240d0c2e6d604b1b6044820152606401610595565b6106358383610921565b156106825760405162461bcd60e51b815260206004820152601c60248201527f7075626c69634b65794861736820697320616c726561647920736574000000006044820152606401610595565b5f5460405163085af97360e31b8152600481018490526001600160a01b03909116906342d7cb9890602401602060405180830381865afa1580156106c8573d5f5f3e3d5ffd5b505050506040513d601f19601f820116820180604052508101906106ec91906119fc565b156107395760405162461bcd60e51b815260206004820152601860248201527f7075626c69634b657948617368206973207265766f6b656400000000000000006044820152606401610595565b5f6107616040518060400160405280600481526020016329a2aa1d60e11b81525085856104d1565b90505f61076d82610f7d565b90505f61077a8285610fb7565b6001549091506001600160a01b038083169116146107ce5760405162461bcd60e51b8152602060048201526011602482015270496e76616c6964207369676e617475726560781b6044820152606401610595565b5f5460405163c15cffab60e01b81526001600160a01b039091169063c15cffab906107ff9089908990600401611a1b565b5f604051808303815f87803b158015610816575f5ffd5b505af1158015610828573d5f5f3e3d5ffd5b5050505050505050505050565b61083d610eb2565b6001600160a01b0381166108845760405162461bcd60e51b815260206004820152600e60248201526d24b73b30b634b21039b4b3b732b960911b6044820152606401610595565b6001546001600160a01b03908116908216036108d05760405162461bcd60e51b815260206004820152600b60248201526a29b0b6b29039b4b3b732b960a91b6044820152606401610595565b600180546001600160a01b038381166001600160a01b0319831681179093556040519116919082907feeb293e1f8f3a9db91ade748726387ed1352ca78f5430c5f06fe3d1e1ad50579905f90a35050565b5f80546040516373d3cbbd60e11b81526001600160a01b039091169063e7a7977a906109539086908690600401611a1b565b602060405180830381865afa15801561096e573d5f5f3e3d5ffd5b505050506040513d601f19601f8201168201806040525081019061099291906119fc565b90505b92915050565b6109a3610eb2565b6001600160a01b0381166109cc57604051631e4fbdf760e01b81525f6004820152602401610595565b6109d581610f0d565b50565b83515f03610a1b5760405162461bcd60e51b815260206004820152601060248201526f24b73b30b634b21039b2b632b1ba37b960811b6044820152606401610595565b82515f03610a615760405162461bcd60e51b8152602060048201526013602482015272496e76616c696420646f6d61696e206e616d6560681b6044820152606401610595565b81610aa85760405162461bcd60e51b8152602060048201526017602482015276092dcecc2d8d2c840e0eac4d8d2c640d6caf240d0c2e6d604b1b6044820152606401610595565b610ab28383610921565b1515600114610b035760405162461bcd60e51b815260206004820152601860248201527f7075626c69634b657948617368206973206e6f742073657400000000000000006044820152606401610595565b5f5460405163085af97360e31b8152600481018490526001600160a01b03909116906342d7cb9890602401602060405180830381865afa158015610b49573d5f5f3e3d5ffd5b505050506040513d601f19601f82011682018060405250810190610b6d91906119fc565b15610bba5760405162461bcd60e51b815260206004820181905260248201527f7075626c69634b65794861736820697320616c7265616479207265766f6b65646044820152606401610595565b5f610be5604051806040016040528060078152602001662922ab27a5a29d60c91b81525085856104d1565b90505f610bf182610f7d565b90505f610bfe8285610fb7565b6001549091506001600160a01b03808316911614610c525760405162461bcd60e51b8152602060048201526011602482015270496e76616c6964207369676e617475726560781b6044820152606401610595565b5f54604051630ae9289760e11b8152600481018790526001600160a01b03909116906315d2512e906024016107ff565b610c8a610fdf565b6109d581611028565b606061099582610cf4845f60076fffffffffffffffffffffffffffffffff8311901b905060066001600160401b0383831c11901b17600563ffffffff83831c11901b17600461ffff83831c11901b1760ff82821c1160039190911c17919050565b600101611030565b306001600160a01b037f0000000000000000000000000000000000000000000000000000000000000000161480610d8257507f00000000000000000000000000000000000000000000000000000000000000006001600160a01b0316610d765f5160206122e25f395f51905f52546001600160a01b031690565b6001600160a01b031614155b156105545760405163703e46dd60e11b815260040160405180910390fd5b6109d5610eb2565b816001600160a01b03166352d1902d6040518163ffffffff1660e01b8152600401602060405180830381865afa925050508015610e02575060408051601f3d908101601f19168201909252610dff91810190611a3c565b60015b610e2a57604051634c9c8ce360e01b81526001600160a01b0383166004820152602401610595565b5f5160206122e25f395f51905f528114610e5a57604051632a87526960e21b815260048101829052602401610595565b610e6483836111a9565b505050565b306001600160a01b037f000000000000000000000000000000000000000000000000000000000000000016146105545760405163703e46dd60e11b815260040160405180910390fd5b33610ee47f9016d09d72d40fdae2fd8ceac6b6234c7706214fd39c1cd1e609a0528c199300546001600160a01b031690565b6001600160a01b0316146105545760405163118cdaa760e01b8152336004820152602401610595565b7f9016d09d72d40fdae2fd8ceac6b6234c7706214fd39c1cd1e609a0528c19930080546001600160a01b031981166001600160a01b03848116918217845560405192169182907f8be0079c531659141344cd1fd0a4f28419497f9722a3daafe3b4186f6b6457e0905f90a3505050565b5f610f8882516111fe565b82604051602001610f9a929190611a53565b604051602081830303815290604052805190602001209050919050565b5f5f5f5f610fc5868661128d565b925092509250610fd582826112d6565b5090949350505050565b7ff0c57e16840df040f15088dc2f81fe391c3923bec73e23a9662efc9c229c6a0054600160401b900460ff1661055457604051631afcd79f60e31b815260040160405180910390fd5b6109a3610fdf565b6060825f61103f846002611aa1565b61104a906002611ab8565b6001600160401b038111156110615761106161173e565b6040519080825280601f01601f19166020018201604052801561108b576020820181803683370190505b509050600360fc1b815f815181106110a5576110a5611acb565b60200101906001600160f81b03191690815f1a905350600f60fb1b816001815181106110d3576110d3611acb565b60200101906001600160f81b03191690815f1a9053505f6110f5856002611aa1565b611100906001611ab8565b90505b6001811115611177576f181899199a1a9b1b9c1cb0b131b232b360811b83600f166010811061113457611134611acb565b1a60f81b82828151811061114a5761114a611acb565b60200101906001600160f81b03191690815f1a90535060049290921c9161117081611adf565b9050611103565b5081156111a15760405163e22e27eb60e01b81526004810186905260248101859052604401610595565b949350505050565b6111b28261138e565b6040516001600160a01b038316907fbc7cd75a20ee27fd9adebab32041f755214dbc6bffa90cc0225b39da2e5c2d3b905f90a28051156111f657610e6482826113f1565b610524611463565b60605f61120a83611482565b60010190505f816001600160401b038111156112285761122861173e565b6040519080825280601f01601f191660200182016040528015611252576020820181803683370190505b5090508181016020015b5f19016f181899199a1a9b1b9c1cb0b131b232b360811b600a86061a8153600a850494508461125c57509392505050565b5f5f5f83516041036112c4576020840151604085015160608601515f1a6112b688828585611559565b9550955095505050506112cf565b505081515f91506002905b9250925092565b5f8260038111156112e9576112e9611af4565b036112f2575050565b600182600381111561130657611306611af4565b036113245760405163f645eedf60e01b815260040160405180910390fd5b600282600381111561133857611338611af4565b036113595760405163fce698f760e01b815260048101829052602401610595565b600382600381111561136d5761136d611af4565b03610524576040516335e2f38360e21b815260048101829052602401610595565b806001600160a01b03163b5f036113c357604051634c9c8ce360e01b81526001600160a01b0382166004820152602401610595565b5f5160206122e25f395f51905f5280546001600160a01b0319166001600160a01b0392909216919091179055565b60605f5f846001600160a01b03168460405161140d9190611b08565b5f60405180830381855af49150503d805f8114611445576040519150601f19603f3d011682016040523d82523d5f602084013e61144a565b606091505b509150915061145a858383611621565b95945050505050565b34156105545760405163b398979f60e01b815260040160405180910390fd5b5f8072184f03e93ff9f4daa797ed6e38ed64bf6a1f0160401b83106114c05772184f03e93ff9f4daa797ed6e38ed64bf6a1f0160401b830492506040015b6d04ee2d6d415b85acef810000000083106114ec576d04ee2d6d415b85acef8100000000830492506020015b662386f26fc10000831061150a57662386f26fc10000830492506010015b6305f5e1008310611522576305f5e100830492506008015b612710831061153657612710830492506004015b60648310611548576064830492506002015b600a83106109955760010192915050565b5f80807f7fffffffffffffffffffffffffffffff5d576e7357a4501ddfe92f46681b20a084111561159257505f91506003905082611617565b604080515f808252602082018084528a905260ff891692820192909252606081018790526080810186905260019060a0016020604051602081039080840390855afa1580156115e3573d5f5f3e3d5ffd5b5050604051601f1901519150506001600160a01b03811661160e57505f925060019150829050611617565b92505f91508190505b9450945094915050565b606082611636576116318261167d565b610502565b815115801561164d57506001600160a01b0384163b155b1561167657604051639996b31560e01b81526001600160a01b0385166004820152602401610595565b5080610502565b80511561168c57805160208201fd5b60405163d6bda27560e01b815260040160405180910390fd5b6107ce80611b1483390190565b5f81518084528060208401602086015e5f602082860101526020601f19601f83011685010191505092915050565b602081525f61099260208301846116b2565b80356001600160a01b0381168114611708575f5ffd5b919050565b5f5f6040838503121561171e575f5ffd5b611727836116f2565b9150611735602084016116f2565b90509250929050565b634e487b7160e01b5f52604160045260245ffd5b5f82601f830112611761575f5ffd5b8135602083015f5f6001600160401b038411156117805761178061173e565b50604051601f19601f85018116603f011681018181106001600160401b03821117156117ae576117ae61173e565b6040528381529050808284018710156117c5575f5ffd5b838360208301375f602085830101528094505050505092915050565b5f5f5f606084860312156117f3575f5ffd5b83356001600160401b03811115611808575f5ffd5b61181486828701611752565b93505060208401356001600160401b0381111561182f575f5ffd5b61183b86828701611752565b93969395505050506040919091013590565b5f5f6040838503121561185e575f5ffd5b611867836116f2565b915060208301356001600160401b03811115611881575f5ffd5b61188d85828601611752565b9150509250929050565b5f5f5f5f608085870312156118aa575f5ffd5b84356001600160401b038111156118bf575f5ffd5b6118cb87828801611752565b94505060208501356001600160401b038111156118e6575f5ffd5b6118f287828801611752565b9350506040850135915060608501356001600160401b03811115611914575f5ffd5b61192087828801611752565b91505092959194509250565b5f6020828403121561193c575f5ffd5b610992826116f2565b5f5f60408385031215611956575f5ffd5b82356001600160401b0381111561196b575f5ffd5b61197785828601611752565b95602094909401359450505050565b5f81518060208401855e5f93019283525090919050565b5f6119a88286611986565b66646f6d61696e3d60c81b81526119c26007820186611986565b9050703b7075626c69635f6b65795f686173683d60781b81526119e86011820185611986565b603b60f81b81526001019695505050505050565b5f60208284031215611a0c575f5ffd5b81518015158114610502575f5ffd5b604081525f611a2d60408301856116b2565b90508260208301529392505050565b5f60208284031215611a4c575f5ffd5b5051919050565b7f19457468657265756d205369676e6564204d6573736167653a0a00000000000081525f6111a1611a87601a840186611986565b84611986565b634e487b7160e01b5f52601160045260245ffd5b808202811582820484141761099557610995611a8d565b8082018082111561099557610995611a8d565b634e487b7160e01b5f52603260045260245ffd5b5f81611aed57611aed611a8d565b505f190190565b634e487b7160e01b5f52602160045260245ffd5b5f610992828461198656fe6080604052348015600e575f5ffd5b506040516107ce3803806107ce833981016040819052602b9160b4565b806001600160a01b038116605857604051631e4fbdf760e01b81525f600482015260240160405180910390fd5b605f816065565b505060df565b5f80546001600160a01b038381166001600160a01b0319831681178455604051919092169283917f8be0079c531659141344cd1fd0a4f28419497f9722a3daafe3b4186f6b6457e09190a35050565b5f6020828403121560c3575f5ffd5b81516001600160a01b038116811460d8575f5ffd5b9392505050565b6106e2806100ec5f395ff3fe608060405234801561000f575f5ffd5b5060043610610090575f3560e01c80638da5cb5b116100635780638da5cb5b14610125578063c15cffab1461013f578063e7a7977a14610152578063f2fde38b14610165578063f49eb16414610178575f5ffd5b80630690bd381461009457806315d2512e146100e657806342d7cb98146100fb578063715018a61461011d575b5f5ffd5b6100d16100a23660046104e7565b81516020818401810180516001825292820194820194909420919093529091525f908152604090205460ff1681565b60405190151581526020015b60405180910390f35b6100f96100f4366004610529565b61018b565b005b6100d1610109366004610529565b60026020525f908152604090205460ff1681565b6100f96101e8565b5f546040516001600160a01b0390911681526020016100dd565b6100f961014d3660046104e7565b6101fb565b6100d16101603660046104e7565b6102db565b6100f9610173366004610540565b61033b565b6100f961018636600461056d565b610378565b6101936103bb565b5f8181526002602052604090819020805460ff19166001179055517fb80fff2b4c6f3ddf804877927c77b2fe1871cecaa5ad43d2c7c42f417331f865906101dd9083815260200190565b60405180910390a150565b6101f06103bb565b6101f95f6103e7565b565b6102036103bb565b5f8181526002602052604090205460ff16156102665760405162461bcd60e51b815260206004820152601960248201527f63616e6e6f7420736574207265766f6b6564207075626b65790000000000000060448201526064015b60405180910390fd5b600180836040516102779190610646565b90815260408051602092819003830181205f86815293529120805460ff1916921515929092179091557f510dac88eaf2dfbd53904241fc199ad46b2063e6bf6c3fb291f8ce8643663419906102cf908490849061065c565b60405180910390a15050565b5f8181526002602052604081205460ff16156102f857505f610335565b6001836040516103089190610646565b90815260408051602092819003830190205f858152925290205460ff161561033257506001610335565b505f5b92915050565b6103436103bb565b6001600160a01b03811661036c57604051631e4fbdf760e01b81525f600482015260240161025d565b610375816103e7565b50565b6103806103bb565b5f5b81518110156103b6576103ae838383815181106103a1576103a1610698565b60200260200101516101fb565b600101610382565b505050565b5f546001600160a01b031633146101f95760405163118cdaa760e01b815233600482015260240161025d565b5f80546001600160a01b038381166001600160a01b0319831681178455604051919092169283917f8be0079c531659141344cd1fd0a4f28419497f9722a3daafe3b4186f6b6457e09190a35050565b634e487b7160e01b5f52604160045260245ffd5b604051601f8201601f1916810167ffffffffffffffff8111828210171561047357610473610436565b604052919050565b5f82601f83011261048a575f5ffd5b813567ffffffffffffffff8111156104a4576104a4610436565b6104b7601f8201601f191660200161044a565b8181528460208386010111156104cb575f5ffd5b816020850160208301375f918101602001919091529392505050565b5f5f604083850312156104f8575f5ffd5b823567ffffffffffffffff81111561050e575f5ffd5b61051a8582860161047b565b95602094909401359450505050565b5f60208284031215610539575f5ffd5b5035919050565b5f60208284031215610550575f5ffd5b81356001600160a01b0381168114610566575f5ffd5b9392505050565b5f5f6040838503121561057e575f5ffd5b823567ffffffffffffffff811115610594575f5ffd5b6105a08582860161047b565b925050602083013567ffffffffffffffff8111156105bc575f5ffd5b8301601f810185136105cc575f5ffd5b803567ffffffffffffffff8111156105e6576105e6610436565b8060051b6105f66020820161044a565b91825260208184018101929081019088841115610611575f5ffd5b6020850194505b8385101561063757843580835260209586019590935090910190610618565b80955050505050509250929050565b5f82518060208501845e5f920191825250919050565b604081525f83518060408401528060208601606085015e5f606082850101526060601f19601f8301168401019150508260208301529392505050565b634e487b7160e01b5f52603260045260245ffdfea2646970667358221220f3c4f7f9d3857a54f8731850705293a093f2c4290e4f53099864e07557caeffd64736f6c634300081c0033360894a13ba1a3210667c828492db98dca3e2076cc3735a920a3ca505d382bbca2646970667358221220928eb4defdbd7fe604b7b66c7427373ef086fda58e942bb688e25921af5af39964736f6c634300081c0033","linkReferences":{}},"methodIdentifiers":{"REVOKE_PREFIX()":"d507c320","SET_PREFIX()":"07f1eaf5","UPGRADE_INTERFACE_VERSION()":"ad3cb1cc","changeSigner(address)":"aad2b723","computeSignedMsg(string,string,bytes32)":"4bcbbe96","dkimRegistry()":"6423f1e2","initialize(address,address)":"485cc955","isDKIMPublicKeyHashValid(string,bytes32)":"e7a7977a","owner()":"8da5cb5b","proxiableUUID()":"52d1902d","renounceOwnership()":"715018a6","revokeDKIMPublicKeyHash(string,string,bytes32,bytes)":"f6b49344","setDKIMPublicKeyHash(string,string,bytes32,bytes)":"97170f2b","signer()":"238ac933","transferOwnership(address)":"f2fde38b","upgradeToAndCall(address,bytes)":"4f1ef286"},"id":227}