{"abi":[{"type":"constructor","inputs":[],"stateMutability":"nonpayable"},{"type":"receive","stateMutability":"payable"},{"type":"function","name":"_validateSenderAndPaymaster","inputs":[{"name":"initCode","type":"bytes","internalType":"bytes"},{"name":"sender","type":"address","internalType":"address"},{"name":"paymasterAndData","type":"bytes","internalType":"bytes"}],"outputs":[],"stateMutability":"view"},{"type":"function","name":"addStake","inputs":[{"name":"unstakeDelaySec","type":"uint32","internalType":"uint32"}],"outputs":[],"stateMutability":"payable"},{"type":"function","name":"balanceOf","inputs":[{"name":"account","type":"address","internalType":"address"}],"outputs":[{"name":"","type":"uint256","internalType":"uint256"}],"stateMutability":"view"},{"type":"function","name":"delegateAndRevert","inputs":[{"name":"target","type":"address","internalType":"address"},{"name":"data","type":"bytes","internalType":"bytes"}],"outputs":[],"stateMutability":"nonpayable"},{"type":"function","name":"depositTo","inputs":[{"name":"account","type":"address","internalType":"address"}],"outputs":[],"stateMutability":"payable"},{"type":"function","name":"deposits","inputs":[{"name":"","type":"address","internalType":"address"}],"outputs":[{"name":"deposit","type":"uint256","internalType":"uint256"},{"name":"staked","type":"bool","internalType":"bool"},{"name":"stake","type":"uint112","internalType":"uint112"},{"name":"unstakeDelaySec","type":"uint32","internalType":"uint32"},{"name":"withdrawTime","type":"uint48","internalType":"uint48"}],"stateMutability":"view"},{"type":"function","name":"getDepositInfo","inputs":[{"name":"account","type":"address","internalType":"address"}],"outputs":[{"name":"info","type":"tuple","internalType":"struct IStakeManager.DepositInfo","components":[{"name":"deposit","type":"uint256","internalType":"uint256"},{"name":"staked","type":"bool","internalType":"bool"},{"name":"stake","type":"uint112","internalType":"uint112"},{"name":"unstakeDelaySec","type":"uint32","internalType":"uint32"},{"name":"withdrawTime","type":"uint48","internalType":"uint48"}]}],"stateMutability":"view"},{"type":"function","name":"getGasConsumed","inputs":[{"name":"account","type":"address","internalType":"address"},{"name":"phase","type":"uint256","internalType":"uint256"}],"outputs":[{"name":"","type":"uint256","internalType":"uint256"}],"stateMutability":"view"},{"type":"function","name":"getNonce","inputs":[{"name":"sender","type":"address","internalType":"address"},{"name":"key","type":"uint192","internalType":"uint192"}],"outputs":[{"name":"nonce","type":"uint256","internalType":"uint256"}],"stateMutability":"view"},{"type":"function","name":"getSenderAddress","inputs":[{"name":"initCode","type":"bytes","internalType":"bytes"}],"outputs":[],"stateMutability":"nonpayable"},{"type":"function","name":"getUserOpHash","inputs":[{"name":"userOp","type":"tuple","internalType":"struct PackedUserOperation","components":[{"name":"sender","type":"address","internalType":"address"},{"name":"nonce","type":"uint256","internalType":"uint256"},{"name":"initCode","type":"bytes","internalType":"bytes"},{"name":"callData","type":"bytes","internalType":"bytes"},{"name":"accountGasLimits","type":"bytes32","internalType":"bytes32"},{"name":"preVerificationGas","type":"uint256","internalType":"uint256"},{"name":"gasFees","type":"bytes32","internalType":"bytes32"},{"name":"paymasterAndData","type":"bytes","internalType":"bytes"},{"name":"signature","type":"bytes","internalType":"bytes"}]}],"outputs":[{"name":"","type":"bytes32","internalType":"bytes32"}],"stateMutability":"view"},{"type":"function","name":"handleAggregatedOps","inputs":[{"name":"opsPerAggregator","type":"tuple[]","internalType":"struct IEntryPoint.UserOpsPerAggregator[]","components":[{"name":"userOps","type":"tuple[]","internalType":"struct PackedUserOperation[]","components":[{"name":"sender","type":"address","internalType":"address"},{"name":"nonce","type":"uint256","internalType":"uint256"},{"name":"initCode","type":"bytes","internalType":"bytes"},{"name":"callData","type":"bytes","internalType":"bytes"},{"name":"accountGasLimits","type":"bytes32","internalType":"bytes32"},{"name":"preVerificationGas","type":"uint256","internalType":"uint256"},{"name":"gasFees","type":"bytes32","internalType":"bytes32"},{"name":"paymasterAndData","type":"bytes","internalType":"bytes"},{"name":"signature","type":"bytes","internalType":"bytes"}]},{"name":"aggregator","type":"address","internalType":"contract IAggregator"},{"name":"signature","type":"bytes","internalType":"bytes"}]},{"name":"beneficiary","type":"address","internalType":"address payable"}],"outputs":[],"stateMutability":"nonpayable"},{"type":"function","name":"handleOps","inputs":[{"name":"ops","type":"tuple[]","internalType":"struct PackedUserOperation[]","components":[{"name":"sender","type":"address","internalType":"address"},{"name":"nonce","type":"uint256","internalType":"uint256"},{"name":"initCode","type":"bytes","internalType":"bytes"},{"name":"callData","type":"bytes","internalType":"bytes"},{"name":"accountGasLimits","type":"bytes32","internalType":"bytes32"},{"name":"preVerificationGas","type":"uint256","internalType":"uint256"},{"name":"gasFees","type":"bytes32","internalType":"bytes32"},{"name":"paymasterAndData","type":"bytes","internalType":"bytes"},{"name":"signature","type":"bytes","internalType":"bytes"}]},{"name":"beneficiary","type":"address","internalType":"address payable"}],"outputs":[],"stateMutability":"nonpayable"},{"type":"function","name":"incrementNonce","inputs":[{"name":"key","type":"uint192","internalType":"uint192"}],"outputs":[],"stateMutability":"nonpayable"},{"type":"function","name":"innerHandleOp","inputs":[{"name":"callData","type":"bytes","internalType":"bytes"},{"name":"opInfo","type":"tuple","internalType":"struct EntryPoint.UserOpInfo","components":[{"name":"mUserOp","type":"tuple","internalType":"struct EntryPoint.MemoryUserOp","components":[{"name":"sender","type":"address","internalType":"address"},{"name":"nonce","type":"uint256","internalType":"uint256"},{"name":"verificationGasLimit","type":"uint256","internalType":"uint256"},{"name":"callGasLimit","type":"uint256","internalType":"uint256"},{"name":"paymasterVerificationGasLimit","type":"uint256","internalType":"uint256"},{"name":"paymasterPostOpGasLimit","type":"uint256","internalType":"uint256"},{"name":"preVerificationGas","type":"uint256","internalType":"uint256"},{"name":"paymaster","type":"address","internalType":"address"},{"name":"maxFeePerGas","type":"uint256","internalType":"uint256"},{"name":"maxPriorityFeePerGas","type":"uint256","internalType":"uint256"}]},{"name":"userOpHash","type":"bytes32","internalType":"bytes32"},{"name":"prefund","type":"uint256","internalType":"uint256"},{"name":"contextOffset","type":"uint256","internalType":"uint256"},{"name":"preOpGas","type":"uint256","internalType":"uint256"}]},{"name":"context","type":"bytes","internalType":"bytes"}],"outputs":[{"name":"actualGasCost","type":"uint256","internalType":"uint256"}],"stateMutability":"nonpayable"},{"type":"function","name":"nonceSequenceNumber","inputs":[{"name":"","type":"address","internalType":"address"},{"name":"","type":"uint192","internalType":"uint192"}],"outputs":[{"name":"","type":"uint256","internalType":"uint256"}],"stateMutability":"view"},{"type":"function","name":"simulateHandleOp","inputs":[{"name":"op","type":"tuple","internalType":"struct PackedUserOperation","components":[{"name":"sender","type":"address","internalType":"address"},{"name":"nonce","type":"uint256","internalType":"uint256"},{"name":"initCode","type":"bytes","internalType":"bytes"},{"name":"callData","type":"bytes","internalType":"bytes"},{"name":"accountGasLimits","type":"bytes32","internalType":"bytes32"},{"name":"preVerificationGas","type":"uint256","internalType":"uint256"},{"name":"gasFees","type":"bytes32","internalType":"bytes32"},{"name":"paymasterAndData","type":"bytes","internalType":"bytes"},{"name":"signature","type":"bytes","internalType":"bytes"}]},{"name":"target","type":"address","internalType":"address"},{"name":"targetCallData","type":"bytes","internalType":"bytes"}],"outputs":[{"name":"","type":"tuple","internalType":"struct IEntryPointSimulations.ExecutionResult","components":[{"name":"preOpGas","type":"uint256","internalType":"uint256"},{"name":"paid","type":"uint256","internalType":"uint256"},{"name":"accountValidationData","type":"uint256","internalType":"uint256"},{"name":"paymasterValidationData","type":"uint256","internalType":"uint256"},{"name":"targetSuccess","type":"bool","internalType":"bool"},{"name":"targetResult","type":"bytes","internalType":"bytes"}]}],"stateMutability":"nonpayable"},{"type":"function","name":"simulateValidation","inputs":[{"name":"userOp","type":"tuple","internalType":"struct PackedUserOperation","components":[{"name":"sender","type":"address","internalType":"address"},{"name":"nonce","type":"uint256","internalType":"uint256"},{"name":"initCode","type":"bytes","internalType":"bytes"},{"name":"callData","type":"bytes","internalType":"bytes"},{"name":"accountGasLimits","type":"bytes32","internalType":"bytes32"},{"name":"preVerificationGas","type":"uint256","internalType":"uint256"},{"name":"gasFees","type":"bytes32","internalType":"bytes32"},{"name":"paymasterAndData","type":"bytes","internalType":"bytes"},{"name":"signature","type":"bytes","internalType":"bytes"}]}],"outputs":[{"name":"","type":"tuple","internalType":"struct IEntryPointSimulations.ValidationResult","components":[{"name":"returnInfo","type":"tuple","internalType":"struct IEntryPoint.ReturnInfo","components":[{"name":"preOpGas","type":"uint256","internalType":"uint256"},{"name":"prefund","type":"uint256","internalType":"uint256"},{"name":"accountValidationData","type":"uint256","internalType":"uint256"},{"name":"paymasterValidationData","type":"uint256","internalType":"uint256"},{"name":"paymasterContext","type":"bytes","internalType":"bytes"}]},{"name":"senderInfo","type":"tuple","internalType":"struct IStakeManager.StakeInfo","components":[{"name":"stake","type":"uint256","internalType":"uint256"},{"name":"unstakeDelaySec","type":"uint256","internalType":"uint256"}]},{"name":"factoryInfo","type":"tuple","internalType":"struct IStakeManager.StakeInfo","components":[{"name":"stake","type":"uint256","internalType":"uint256"},{"name":"unstakeDelaySec","type":"uint256","internalType":"uint256"}]},{"name":"paymasterInfo","type":"tuple","internalType":"struct IStakeManager.StakeInfo","components":[{"name":"stake","type":"uint256","internalType":"uint256"},{"name":"unstakeDelaySec","type":"uint256","internalType":"uint256"}]},{"name":"aggregatorInfo","type":"tuple","internalType":"struct IEntryPoint.AggregatorStakeInfo","components":[{"name":"aggregator","type":"address","internalType":"address"},{"name":"stakeInfo","type":"tuple","internalType":"struct IStakeManager.StakeInfo","components":[{"name":"stake","type":"uint256","internalType":"uint256"},{"name":"unstakeDelaySec","type":"uint256","internalType":"uint256"}]}]}]}],"stateMutability":"nonpayable"},{"type":"function","name":"supportsInterface","inputs":[{"name":"interfaceId","type":"bytes4","internalType":"bytes4"}],"outputs":[{"name":"","type":"bool","internalType":"bool"}],"stateMutability":"view"},{"type":"function","name":"unlockStake","inputs":[],"outputs":[],"stateMutability":"nonpayable"},{"type":"function","name":"withdrawStake","inputs":[{"name":"withdrawAddress","type":"address","internalType":"address payable"}],"outputs":[],"stateMutability":"nonpayable"},{"type":"function","name":"withdrawTo","inputs":[{"name":"withdrawAddress","type":"address","internalType":"address payable"},{"name":"withdrawAmount","type":"uint256","internalType":"uint256"}],"outputs":[],"stateMutability":"nonpayable"},{"type":"event","name":"AccountDeployed","inputs":[{"name":"userOpHash","type":"bytes32","indexed":true,"internalType":"bytes32"},{"name":"sender","type":"address","indexed":true,"internalType":"address"},{"name":"factory","type":"address","indexed":false,"internalType":"address"},{"name":"paymaster","type":"address","indexed":false,"internalType":"address"}],"anonymous":false},{"type":"event","name":"BeforeExecution","inputs":[],"anonymous":false},{"type":"event","name":"Deposited","inputs":[{"name":"account","type":"address","indexed":true,"internalType":"address"},{"name":"totalDeposit","type":"uint256","indexed":false,"internalType":"uint256"}],"anonymous":false},{"type":"event","name":"PostOpRevertReason","inputs":[{"name":"userOpHash","type":"bytes32","indexed":true,"internalType":"bytes32"},{"name":"sender","type":"address","indexed":true,"internalType":"address"},{"name":"nonce","type":"uint256","indexed":false,"internalType":"uint256"},{"name":"revertReason","type":"bytes","indexed":false,"internalType":"bytes"}],"anonymous":false},{"type":"event","name":"SignatureAggregatorChanged","inputs":[{"name":"aggregator","type":"address","indexed":true,"internalType":"address"}],"anonymous":false},{"type":"event","name":"StakeLocked","inputs":[{"name":"account","type":"address","indexed":true,"internalType":"address"},{"name":"totalStaked","type":"uint256","indexed":false,"internalType":"uint256"},{"name":"unstakeDelaySec","type":"uint256","indexed":false,"internalType":"uint256"}],"anonymous":false},{"type":"event","name":"StakeUnlocked","inputs":[{"name":"account","type":"address","indexed":true,"internalType":"address"},{"name":"withdrawTime","type":"uint256","indexed":false,"internalType":"uint256"}],"anonymous":false},{"type":"event","name":"StakeWithdrawn","inputs":[{"name":"account","type":"address","indexed":true,"internalType":"address"},{"name":"withdrawAddress","type":"address","indexed":false,"internalType":"address"},{"name":"amount","type":"uint256","indexed":false,"internalType":"uint256"}],"anonymous":false},{"type":"event","name":"UserOperationEvent","inputs":[{"name":"userOpHash","type":"bytes32","indexed":true,"internalType":"bytes32"},{"name":"sender","type":"address","indexed":true,"internalType":"address"},{"name":"paymaster","type":"address","indexed":true,"internalType":"address"},{"name":"nonce","type":"uint256","indexed":false,"internalType":"uint256"},{"name":"success","type":"bool","indexed":false,"internalType":"bool"},{"name":"actualGasCost","type":"uint256","indexed":false,"internalType":"uint256"},{"name":"actualGasUsed","type":"uint256","indexed":false,"internalType":"uint256"}],"anonymous":false},{"type":"event","name":"UserOperationPrefundTooLow","inputs":[{"name":"userOpHash","type":"bytes32","indexed":true,"internalType":"bytes32"},{"name":"sender","type":"address","indexed":true,"internalType":"address"},{"name":"nonce","type":"uint256","indexed":false,"internalType":"uint256"}],"anonymous":false},{"type":"event","name":"UserOperationRevertReason","inputs":[{"name":"userOpHash","type":"bytes32","indexed":true,"internalType":"bytes32"},{"name":"sender","type":"address","indexed":true,"internalType":"address"},{"name":"nonce","type":"uint256","indexed":false,"internalType":"uint256"},{"name":"revertReason","type":"bytes","indexed":false,"internalType":"bytes"}],"anonymous":false},{"type":"event","name":"Withdrawn","inputs":[{"name":"account","type":"address","indexed":true,"internalType":"address"},{"name":"withdrawAddress","type":"address","indexed":false,"internalType":"address"},{"name":"amount","type":"uint256","indexed":false,"internalType":"uint256"}],"anonymous":false},{"type":"error","name":"DelegateAndRevert","inputs":[{"name":"success","type":"bool","internalType":"bool"},{"name":"ret","type":"bytes","internalType":"bytes"}]},{"type":"error","name":"FailedOp","inputs":[{"name":"opIndex","type":"uint256","internalType":"uint256"},{"name":"reason","type":"string","internalType":"string"}]},{"type":"error","name":"FailedOpWithRevert","inputs":[{"name":"opIndex","type":"uint256","internalType":"uint256"},{"name":"reason","type":"string","internalType":"string"},{"name":"inner","type":"bytes","internalType":"bytes"}]},{"type":"error","name":"PostOpReverted","inputs":[{"name":"returnData","type":"bytes","internalType":"bytes"}]},{"type":"error","name":"ReentrancyGuardReentrantCall","inputs":[]},{"type":"error","name":"SenderAddressResult","inputs":[{"name":"sender","type":"address","internalType":"address"}]},{"type":"error","name":"SignatureValidationFailed","inputs":[{"name":"aggregator","type":"address","internalType":"address"}]}],"bytecode":{"object":"0x60a0604052604051600e90608e565b604051809103905ff0801580156026573d5f5f3e3d5ffd5b506001600160a01b039081166080526040805180820182525f8082528251808401909352808352602080840191825282018390529051600480546001600160a01b031916919094161790925551600555516006553480156084575f5ffd5b506001600255609b565b610218806141ef83390190565b60805161413f6100b05f395f505061413f5ff3fe608060405260043610610133575f3560e01c8063850aaf62116100a8578063bb9fe6bf1161006d578063bb9fe6bf146104af578063c23a5cea146104c3578063c3bce009146104e2578063dbed18e01461050e578063ee5a97c81461052d578063fc7e286d1461056e575f5ffd5b8063850aaf6214610413578063957122ab1461043257806397b2dcb9146104515780639b249f691461047d578063b760faf91461049c575f5ffd5b8063205c2878116100f9578063205c28781461021057806322cdde4c1461022f57806335567e1a1461024e5780635287ce12146102ac57806370a08231146103c0578063765e827f146103f4575f5ffd5b806242dc531461014757806301ffc9a7146101795780630396cb60146101a85780630bd28e3b146101bb5780631b2e01b8146101da575f5ffd5b366101435761014133610614565b005b5f5ffd5b348015610152575f5ffd5b506101666101613660046133da565b610635565b6040519081526020015b60405180910390f35b348015610184575f5ffd5b50610198610193366004613498565b6107f3565b6040519015158152602001610170565b6101416101b63660046134bf565b61087a565b3480156101c6575f5ffd5b506101416101d53660046134f8565b610b05565b3480156101e5575f5ffd5b506101666101f4366004613511565b600160209081525f928352604080842090915290825290205481565b34801561021b575f5ffd5b5061014161022a366004613544565b610b3b565b34801561023a575f5ffd5b50610166610249366004613585565b610c87565b348015610259575f5ffd5b50610166610268366004613511565b6001600160a01b0382165f9081526001602090815260408083206001600160c01b038516845290915290819020549082901b67ffffffffffffffff19161792915050565b3480156102b7575f5ffd5b506103666102c63660046135b6565b6040805160a0810182525f80825260208201819052918101829052606081018290526080810191909152506001600160a01b03165f9081526020818152604091829020825160a0810184528154815260019091015460ff811615159282019290925261010082046001600160701b031692810192909252600160781b810463ffffffff166060830152600160981b900465ffffffffffff16608082015290565b60405161017091905f60a082019050825182526020830151151560208301526001600160701b03604084015116604083015263ffffffff606084015116606083015265ffffffffffff608084015116608083015292915050565b3480156103cb575f5ffd5b506101666103da3660046135b6565b6001600160a01b03165f9081526020819052604090205490565b3480156103ff575f5ffd5b5061014161040e366004613611565b610cc8565b34801561041e575f5ffd5b5061014161042d366004613663565b610e3d565b34801561043d575f5ffd5b5061014161044c3660046136b3565b610eb8565b34801561045c575f5ffd5b5061047061046b366004613733565b610fb2565b60405161017091906137c0565b348015610488575f5ffd5b5061014161049736600461380e565b6110d6565b6101416104aa3660046135b6565b610614565b3480156104ba575f5ffd5b5061014161117d565b3480156104ce575f5ffd5b506101416104dd3660046135b6565b6112af565b3480156104ed575f5ffd5b506105016104fc366004613585565b6114ce565b604051610170919061384c565b348015610519575f5ffd5b50610141610528366004613611565b611677565b348015610538575f5ffd5b50610166610547366004613544565b6001600160a01b03919091165f908152600360209081526040808320938352929052205490565b348015610579575f5ffd5b506105d16105883660046135b6565b5f602081905290815260409020805460019091015460ff81169061010081046001600160701b031690600160781b810463ffffffff1690600160981b900465ffffffffffff1685565b6040805195865293151560208601526001600160701b039092169284019290925263ffffffff909116606083015265ffffffffffff16608082015260a001610170565b60015b600581101561062857600101610617565b61063182611a7e565b5050565b5f5f5a905033301461068e5760405162461bcd60e51b815260206004820152601760248201527f4141393220696e7465726e616c2063616c6c206f6e6c7900000000000000000060448201526064015b60405180910390fd5b8451606081015160a082015181016127100160405a603f02816106b3576106b361391f565b0410156106c95763deaddead60e01b5f5260205ffd5b87515f9015610795575f5a90505f6106e6855f01515f8d87611ac6565b9050610721855f015160025a6106fc9086613947565b6001600160a01b039092165f9081526003602090815260408083209383529290522055565b80610792575f610732610800611adc565b80519091501561078c57855f01516001600160a01b03168b602001517f1c4fada7374c0a9ee8841fc38afe82932dc0f8e69012e927f061a8bae611a20188602001518460405161078392919061395a565b60405180910390a35b60019350505b50505b5f88608001515a86030190506107e3828a8a8a8080601f0160208091040260200160405190810160405280939291908181526020018383808284375f92019190915250879250611b07915050565b955050505050505b949350505050565b5f6001600160e01b0319821663307e35b760e11b148061082357506001600160e01b0319821663122a0e9b60e31b145b8061083e57506001600160e01b0319821663cf28ef9760e01b145b8061085957506001600160e01b03198216633e84f02160e01b145b8061087457506301ffc9a760e01b6001600160e01b03198316145b92915050565b335f90815260208190526040902063ffffffff82166108db5760405162461bcd60e51b815260206004820152601a60248201527f6d757374207370656369667920756e7374616b652064656c61790000000000006044820152606401610685565b600181015463ffffffff600160781b909104811690831610156109405760405162461bcd60e51b815260206004820152601c60248201527f63616e6e6f7420646563726561736520756e7374616b652074696d65000000006044820152606401610685565b60018101545f9061096090349061010090046001600160701b0316613972565b90505f81116109a65760405162461bcd60e51b81526020600482015260126024820152711b9bc81cdd185ad9481cdc1958da599a595960721b6044820152606401610685565b6001600160701b038111156109ee5760405162461bcd60e51b815260206004820152600e60248201526d7374616b65206f766572666c6f7760901b6044820152606401610685565b6040805160a08101825283548152600160208083018281526001600160701b0386811685870190815263ffffffff8a8116606088018181525f60808a0181815233808352828a52918c90209a518b55965199909801805494519151965165ffffffffffff16600160981b0265ffffffffffff60981b1997909416600160781b029690961669ffffffffffffffffffff60781b1991909516610100026effffffffffffffffffffffffffff0019991515999099166effffffffffffffffffffffffffffff1990941693909317979097179190911691909117179055835185815290810192909252917fa5ae833d0bb1dcd632d98a8b70973e8516812898e19bf27b70071ebc8dc52c01910160405180910390a2505050565b335f9081526001602090815260408083206001600160c01b03851684529091528120805491610b3383613985565b919050555050565b335f9081526020819052604090208054821115610b9a5760405162461bcd60e51b815260206004820152601960248201527f576974686472617720616d6f756e7420746f6f206c61726765000000000000006044820152606401610685565b8054610ba7908390613947565b8155604080516001600160a01b03851681526020810184905233917fd1c19fbcd4551a5edfb66d43d2e337c04837afda3482b42bdf569a8fccdae5fb910160405180910390a25f836001600160a01b0316836040515f6040518083038185875af1925050503d805f8114610c36576040519150601f19603f3d011682016040523d82523d5f602084013e610c3b565b606091505b5050905080610c815760405162461bcd60e51b81526020600482015260126024820152716661696c656420746f20776974686472617760701b6044820152606401610685565b50505050565b5f610c9182611cbf565b6040805160208101929092523090820152466060820152608001604051602081830303815290604052805190602001209050919050565b610cd0611cd7565b815f816001600160401b03811115610cea57610cea6131f5565b604051908082528060200260200182016040528015610d2357816020015b610d1061308e565b815260200190600190039081610d085790505b5090505f5b82811015610d98575f828281518110610d4357610d4361399d565b602002602001015190505f5f610d7d848a8a87818110610d6557610d6561399d565b9050602002810190610d7791906139b1565b85611cff565b91509150610d8d8483835f611f01565b505050600101610d28565b506040515f907fbb47ee3e183a558b1a2ff0874b079f3fc5478b7454eacf2bfc5af2ff5878f972908290a15f5b83811015610e2057610e1481888884818110610de357610de361399d565b9050602002810190610df591906139b1565b858481518110610e0757610e0761399d565b602002602001015161209b565b90910190600101610dc5565b50610e2b8482612349565b505050610e386001600255565b505050565b5f5f846001600160a01b03168484604051610e599291906139d0565b5f60405180830381855af49150503d805f8114610e91576040519150601f19603f3d011682016040523d82523d5f602084013e610e96565b606091505b50915091508181604051632650415560e21b81526004016106859291906139df565b83158015610ece57506001600160a01b0383163b155b15610f1b5760405162461bcd60e51b815260206004820152601960248201527f41413230206163636f756e74206e6f74206465706c6f796564000000000000006044820152606401610685565b60148110610f91575f610f3160148284866139f9565b610f3a91613a20565b60601c9050803b5f03610f8f5760405162461bcd60e51b815260206004820152601b60248201527f41413330207061796d6173746572206e6f74206465706c6f79656400000000006044820152606401610685565b505b60405162461bcd60e51b8152602060048201525f6024820152604401610685565b610fe86040518060c001604052805f81526020015f81526020015f81526020015f81526020015f15158152602001606081525090565b610ff0611cd7565b610ff861308e565b6110018661243e565b5f5f61100e5f8985611cff565b915091505f61101e5f8a8661209b565b90505f60606001600160a01b038a161561109157896001600160a01b0316898960405161104c9291906139d0565b5f604051808303815f865af19150503d805f8114611085576040519150601f19603f3d011682016040523d82523d5f602084013e61108a565b606091505b5090925090505b6040518060c001604052808760800151815260200184815260200186815260200185815260200183151581526020018281525096505050505050506107eb6001600255565b5f6110e96007546001600160a01b031690565b6001600160a01b031663570e1a3684846040518363ffffffff1660e01b8152600401611116929190613a95565b6020604051808303815f875af1158015611132573d5f5f3e3d5ffd5b505050506040513d601f19601f820116820180604052508101906111569190613aa8565b604051633653dc0360e11b81526001600160a01b0382166004820152909150602401610685565b335f90815260208190526040812060018101549091600160781b90910463ffffffff1690036111db5760405162461bcd60e51b815260206004820152600a6024820152691b9bdd081cdd185ad95960b21b6044820152606401610685565b600181015460ff166112235760405162461bcd60e51b8152602060048201526011602482015270616c726561647920756e7374616b696e6760781b6044820152606401610685565b60018101545f9061124190600160781b900463ffffffff1642613ac3565b60018301805460ff65ffffffffffff60981b011916600160981b65ffffffffffff841690810260ff19169190911790915560405190815290915033907ffa9b3c14cc825c412c9ed81b3ba365a5b459439403f18829e572ed53a4180f0a906020015b60405180910390a25050565b335f908152602081905260409020600181015461010090046001600160701b0316806113145760405162461bcd60e51b81526020600482015260146024820152734e6f207374616b6520746f20776974686472617760601b6044820152606401610685565b6001820154600160981b900465ffffffffffff166113745760405162461bcd60e51b815260206004820152601d60248201527f6d7573742063616c6c20756e6c6f636b5374616b6528292066697273740000006044820152606401610685565b600182015442600160981b90910465ffffffffffff1611156113d85760405162461bcd60e51b815260206004820152601b60248201527f5374616b65207769746864726177616c206973206e6f742064756500000000006044820152606401610685565b600182018054610100600160c81b0319169055604080516001600160a01b03851681526020810183905233917fb7c918e0e249f999e965cafeb6c664271b3f4317d296461500e71da39f0cbda3910160405180910390a25f836001600160a01b0316826040515f6040518083038185875af1925050503d805f8114611478576040519150601f19603f3d011682016040523d82523d5f602084013e61147d565b606091505b5050905080610c815760405162461bcd60e51b815260206004820152601860248201527f6661696c656420746f207769746864726177207374616b6500000000000000006044820152606401610685565b6114d6613115565b6114de61308e565b6114e78361243e565b5f5f6114f45f8685611cff565b915091505f611509845f015160e00151612580565b8451519091505f9061151a90612580565b905061153760405180604001604052805f81526020015f81525090565b365f61154660408b018b613ae1565b90925090505f601482101561155b575f611575565b61156860145f84866139f9565b61157191613a20565b60601c5b905061158081612580565b93505050505f8590505f6040518060a0016040528089608001518152602001896040015181526020018881526020018781526020016115c08a6060015190565b90526040805180820182526004546001600160a01b0390811682528251808401909352600554835260065460208481019190915282019290925291925083161580159061161757506001836001600160a01b031614155b15611644576040518060400160405280846001600160a01b0316815260200161163f85612580565b905290505b6040805160a081018252928352602083019590955293810192909252506060810192909252608082015295945050505050565b61167f611cd7565b815f805b828110156117e6573686868381811061169e5761169e61399d565b90506020028101906116b09190613b23565b9050365f6116be8380613b37565b90925090505f6116d460408501602086016135b6565b90505f196001600160a01b0382160161172f5760405162461bcd60e51b815260206004820152601760248201527f4141393620696e76616c69642061676772656761746f720000000000000000006044820152606401610685565b6001600160a01b038116156117ca576001600160a01b038116632dd81133848461175c6040890189613ae1565b6040518563ffffffff1660e01b815260040161177b9493929190613c9c565b5f6040518083038186803b158015611791575f5ffd5b505afa9250505080156117a2575060015b6117ca5760405163086a9f7560e41b81526001600160a01b0382166004820152602401610685565b6117d48287613972565b95505060019093019250611683915050565b505f816001600160401b03811115611800576118006131f5565b60405190808252806020026020018201604052801561183957816020015b61182661308e565b81526020019060019003908161181e5790505b5090505f805b84811015611910573688888381811061185a5761185a61399d565b905060200281019061186c9190613b23565b9050365f61187a8380613b37565b90925090505f61189060408501602086016135b6565b9050815f5b818110156118fe575f8989815181106118b0576118b061399d565b602002602001015190505f5f6118d28b898987818110610d6557610d6561399d565b915091506118e284838389611f01565b8a6118ec81613985565b9b505060019093019250611895915050565b50506001909401935061183f92505050565b506040517fbb47ee3e183a558b1a2ff0874b079f3fc5478b7454eacf2bfc5af2ff5878f972905f90a1505f80805b85811015611a3a57368989838181106119595761195961399d565b905060200281019061196b9190613b23565b905061197d60408201602083016135b6565b6001600160a01b03167f575ff3acadd5ab348fe1855e217e0f3678f8d767d7494c9f9fefbee2e17cca4d60405160405180910390a2365f6119be8380613b37565b9092509050805f5b81811015611a2957611a08888585848181106119e4576119e461399d565b90506020028101906119f691906139b1565b8b8b81518110610e0757610e0761399d565b611a129088613972565b965087611a1e81613985565b9850506001016119c6565b50506001909301925061193e915050565b506040515f907f575ff3acadd5ab348fe1855e217e0f3678f8d767d7494c9f9fefbee2e17cca4d908290a2611a6f8682612349565b5050505050610e386001600255565b5f611a8982346125d1565b9050816001600160a01b03167f2da466a7b24304f47e87fa2e1e5a81b9831ce54fec19055ce277ca2f39ba42c4826040516112a391815260200190565b5f5f5f845160208601878987f195945050505050565b60603d82811115611aea5750815b604051602082018101604052818152815f602083013e9392505050565b5f5f5a85519091505f9081611b1b82612603565b60e08301519091506001600160a01b038116611b3a5782519350611bf1565b8093505f88511115611bf157868202955060028a6002811115611b5f57611b5f613d27565b14611bf15760a0830151604051637c627b2160e01b81526001600160a01b03831691637c627b2191611b9b908e908d908c908990600401613d3b565b5f604051808303815f88803b158015611bb2575f5ffd5b5087f193505050508015611bc4575060015b611bf1575f611bd4610800611adc565b905080604051632b5e552f60e21b81526004016106859190613d82565b5a60a0840151606085015160808c015192880399909901980190880380821115611c24576064600a828403020498909801975b50506040890151878302965086811015611c7d5760028b6002811115611c4c57611c4c613d27565b03611c6e57809650611c5d8a61262c565b611c698a5f898b61267b565b611cb1565b63deadaa5160e01b5f5260205ffd5b868103611c8a86826125d1565b505f808d6002811115611c9f57611c9f613d27565b149050611cae8c828b8d61267b565b50505b505050505050949350505050565b5f611cc9826126f6565b805190602001209050919050565b6002805403611cf957604051633ee5aeb560e01b815260040160405180910390fd5b60028055565b5f5f5f5a8451909150611d1286826127ab565b611d1b86610c87565b6020860152604081015161012082015161010083015160a08401516080850151606086015160c0870151861717171717176effffffffffffffffffffffffffffff811115611dab5760405162461bcd60e51b815260206004820152601860248201527f41413934206761732076616c756573206f766572666c6f7700000000000000006044820152606401610685565b5f611dd98460c081015160a08201516080830151606084015160408501516101009095015194010101010290565b9050611de88a8a8a84876128b7565b9650611dfb845f01518560200151612a7d565b611e515789604051631101335b60e11b8152600401610685918152604060208201819052601a908201527f4141323520696e76616c6964206163636f756e74206e6f6e6365000000000000606082015260800190565b825a86031115611ead5789604051631101335b60e11b8152600401610685918152604060208201819052601e908201527f41413236206f76657220766572696669636174696f6e4761734c696d69740000606082015260800190565b60e08401516060906001600160a01b031615611ed457611ecf8b8b8b85612ac9565b975090505b604089018290528060608a015260a08a01355a870301896080018181525050505050505050935093915050565b5f5f611f0c85612c80565b91509150816001600160a01b0316836001600160a01b031614611f725785604051631101335b60e11b81526004016106859181526040602082018190526014908201527320a0991a1039b4b3b730ba3ab9329032b93937b960611b606082015260800190565b8015611fca5785604051631101335b60e11b81526004016106859181526040602082018190526017908201527f414132322065787069726564206f72206e6f7420647565000000000000000000606082015260800190565b5f611fd485612c80565b925090506001600160a01b038116156120305786604051631101335b60e11b81526004016106859181526040602082018190526014908201527320a0999a1039b4b3b730ba3ab9329032b93937b960611b606082015260800190565b81156120925786604051631101335b60e11b81526004016106859181526040602082018190526021908201527f41413332207061796d61737465722065787069726564206f72206e6f742064756060820152606560f81b608082015260a00190565b50505050505050565b5f5f5a90505f6120ac846060015190565b6040519091505f9036826120c360608a018a613ae1565b9150915060605f8260038111156120d957843591505b506372288ed160e01b6001600160e01b0319821601612186575f8b8b6020015160405160240161210a929190613d94565b60408051601f198184030181529181526020820180516001600160e01b0316638dd7712f60e01b1790525190915030906242dc53906121519084908f908d90602401613e5f565b604051602081830303815290604052915060e01b6020820180516001600160e01b0383818316178352505050509250506121db565b306001600160a01b03166242dc5385858d8b6040516024016121ab9493929190613e93565b604051602081830303815290604052915060e01b6020820180516001600160e01b03838183161783525050505091505b60205f8351602085015f305af195505f5198508460405250505050508061233f575f3d806020036122105760205f5f3e5f5191505b5063deaddead60e01b81036122635787604051631101335b60e11b8152600401610685918152604060208201819052600f908201526e41413935206f7574206f662067617360881b606082015260800190565b63deadaa5160e01b81036122b2575f86608001515a6122829087613947565b61228c9190613972565b604088015190915061229d8861262c565b6122a9885f838561267b565b955061233d9050565b855180516020808901519201516001600160a01b0390911691907ff62676f440ff169a3a9afdbf812e89e7f95975ee8e5c31214ffdef631c5f4792906122f9610800611adc565b60405161230792919061395a565b60405180910390a35f86608001515a6123209087613947565b61232a9190613972565b90506123396002888684611b07565b9550505b505b5050509392505050565b6001600160a01b03821661239f5760405162461bcd60e51b815260206004820152601860248201527f4141393020696e76616c69642062656e656669636961727900000000000000006044820152606401610685565b5f826001600160a01b0316826040515f6040518083038185875af1925050503d805f81146123e8576040519150601f19603f3d011682016040523d82523d5f602084013e6123ed565b606091505b5050905080610e385760405162461bcd60e51b815260206004820152601f60248201527f41413931206661696c65642073656e6420746f2062656e6566696369617279006044820152606401610685565b6124b06040516135a560f21b60208201526bffffffffffffffffffffffff193060601b166022820152600160f81b60368201525f9060370160408051808303601f190181529190528051602090910120600780546001600160a01b0319166001600160a01b0390921691909117905550565b3063957122ab6124c36040840184613ae1565b6124d060208601866135b6565b6124dd60e0870187613ae1565b6040518663ffffffff1660e01b81526004016124fd959493929190613ec8565b5f6040518083038186803b158015612513575f5ffd5b505afa925050508015612524575060015b61257d57612530613f09565b806308c379a0036125735750612544613f21565b8061254f5750612575565b805115610631575f81604051631101335b60e11b815260040161068592919061395a565b505b3d5f5f3e3d5ffd5b50565b6040805180820182525f80825260208083018281526001600160a01b03959095168252819052919091206001015461010081046001600160701b03168252600160781b900463ffffffff1690915290565b6001600160a01b0382165f908152602081905260408120805482906125f7908590613972565b91829055509392505050565b6101008101516101208201515f9190808203612620575092915050565b6107eb82488301612ccf565b80518051602080840151928101516040519081526001600160a01b0390921692917f67b4fa9642f42120bf031f3051d1824b0fe25627945b27b8a6a65d5761d5482e910160405180910390a350565b835160e081015181516020808801519301516040516001600160a01b039384169492909316927f49628fd1471006c1482da88028e9ce4dbb080b815c9b0344d39e5a8e6ec1419f916126e89189908990899093845291151560208401526040830152606082015260800190565b60405180910390a450505050565b6060813560208301355f6127156127106040870187613ae1565b612ce6565b90505f6127286127106060880188613ae1565b9050608086013560a087013560c08801355f61274a61271060e08c018c613ae1565b604080516001600160a01b039a909a1660208b015289810198909852606089019690965250608087019390935260a086019190915260c085015260e08401526101008084019190915281518084039091018152610120909201905292915050565b6127b860208301836135b6565b6001600160a01b03168152602082810135908201526001600160801b036080808401358281166060850152811c604084015260a084013560c0808501919091528401359182166101008401521c610120820152365f61281a60e0850185613ae1565b9092509050801561289d5760348110156128765760405162461bcd60e51b815260206004820152601d60248201527f4141393320696e76616c6964207061796d6173746572416e64446174610000006044820152606401610685565b6128808282612cf8565b60a086015260808501526001600160a01b031660e0840152610c81565b5f60e084018190526080840181905260a084015250505050565b825180515f91906128d588876128d060408b018b613ae1565b612d5f565b60e08201515f6001600160a01b038216612916576001600160a01b0383165f9081526020819052604090205487811161291057808803612912565b5f5b9150505b5f5a60208a01516040516306608bdf60e21b81529192506001600160a01b038616916319822f7c918a91612950918f918890600401613f9b565b6020604051808303815f8887f19350505050801561298b575060408051601f3d908101601f1916820190925261298891810190613fbf565b60015b6129b6578a61299b610800611adc565b6040516365c8fd4d60e01b8152600401610685929190613fd6565b8096506129e78560015a85036001600160a01b039092165f9081526003602090815260408083209383529290522055565b506001600160a01b038316612a6f576001600160a01b0384165f9081526020819052604090208054808a1115612a69578c604051631101335b60e11b81526004016106859181526040602082018190526017908201527f41413231206469646e2774207061792070726566756e64000000000000000000606082015260800190565b89900390555b505050505095945050505050565b6001600160a01b0382165f90815260016020908152604080832084821c80855292528220805484916001600160401b038316919085612abb83613985565b909155501495945050505050565b60605f5f5a855160e08101516001600160a01b0381165f9081526020819052604090208054939450919290919087811015612b50578a604051631101335b60e11b8152600401610685918152604060208201819052601e908201527f41413331207061796d6173746572206465706f73697420746f6f206c6f770000606082015260800190565b878103825f01819055505f84608001519050836001600160a01b03166352b7512c828d8d602001518d6040518563ffffffff1660e01b8152600401612b9793929190613f9b565b5f604051808303815f8887f193505050508015612bd557506040513d5f823e601f3d908101601f19168201604052612bd29190810190614012565b60015b612c00578b612be5610800611adc565b6040516365c8fd4d60e01b8152600401610685929190614097565b9098509650805a87031115612c71578b604051631101335b60e11b81526004016106859181526040602082018190526027908201527f41413336206f766572207061796d6173746572566572696669636174696f6e47606082015266185cd31a5b5a5d60ca1b608082015260a00190565b50505050505094509492505050565b5f5f825f03612c9357505f928392509050565b5f612c9d8461301f565b9050806040015165ffffffffffff16421180612cc45750806020015165ffffffffffff1642105b905194909350915050565b5f818310612cdd5781612cdf565b825b9392505050565b5f604051828085833790209392505050565b5f8080612d0860148286886139f9565b612d1191613a20565b60601c612d226024601487896139f9565b612d2b916140d3565b60801c612d3c60346024888a6139f9565b612d45916140d3565b9194506001600160801b0316925060801c90509250925092565b8015610c81578251516001600160a01b0381163b15612dca5784604051631101335b60e11b8152600401610685918152604060208201819052601f908201527f414131302073656e64657220616c726561647920636f6e737472756374656400606082015260800190565b5f5a90505f612de16007546001600160a01b031690565b6001600160a01b031663570e1a36875f01516040015187876040518463ffffffff1660e01b8152600401612e16929190613a95565b6020604051808303815f8887f1158015612e32573d5f5f3e3d5ffd5b50505050506040513d601f19601f82011682018060405250810190612e579190613aa8565b9050612e69835f5a6106fc9086613947565b6001600160a01b038116612ec95786604051631101335b60e11b8152600401610685918152604060208201819052601b908201527f4141313320696e6974436f6465206661696c6564206f72204f4f470000000000606082015260800190565b826001600160a01b0316816001600160a01b031614612f335786604051631101335b60e11b815260040161068591815260406020808301829052908201527f4141313420696e6974436f6465206d7573742072657475726e2073656e646572606082015260800190565b806001600160a01b03163b5f03612f955786604051631101335b60e11b815260040161068591815260406020808301829052908201527f4141313520696e6974436f6465206d757374206372656174652073656e646572606082015260800190565b5f612fa360148287896139f9565b612fac91613a20565b60601c9050836001600160a01b031687602001517fd51a9c61267aa6196961883ecf5ff2da6619c37dac0fa92122513fb32c032d2d838a5f015160e0015160405161300d9291906001600160a01b0392831681529116602082015260400190565b60405180910390a35050505050505050565b604080516060810182525f80825260208201819052918101919091528160a081901c65ffffffffffff81165f03613059575065ffffffffffff5b604080516060810182526001600160a01b03909316835260d09490941c602083015265ffffffffffff16928101929092525090565b6040518060a001604052806130f76040518061014001604052805f6001600160a01b031681526020015f81526020015f81526020015f81526020015f81526020015f81526020015f81526020015f6001600160a01b031681526020015f81526020015f81525090565b81526020015f81526020015f81526020015f81526020015f81525090565b6040518060a0016040528061314e6040518060a001604052805f81526020015f81526020015f81526020015f8152602001606081525090565b815260200161316e60405180604001604052805f81526020015f81525090565b815260200161318e60405180604001604052805f81526020015f81525090565b81526020016131ae60405180604001604052805f81526020015f81525090565b81526020016131bb6131c0565b905290565b60405180604001604052805f6001600160a01b031681526020016131bb60405180604001604052805f81526020015f81525090565b634e487b7160e01b5f52604160045260245ffd5b60a081018181106001600160401b0382111715613228576132286131f5565b60405250565b601f8201601f191681016001600160401b0381118282101715613253576132536131f5565b6040525050565b6040516132696101408261322e565b90565b5f6001600160401b03821115613284576132846131f5565b50601f01601f191660200190565b6001600160a01b038116811461257d575f5ffd5b80356132b181613292565b919050565b5f8183036101c08112156132c8575f5ffd5b6040516132d481613209565b8092506101408212156132e5575f5ffd5b6132ed61325a565b91506132f8846132a6565b82526020848101359083015260408085013590830152606080850135908301526080808501359083015260a0808501359083015260c0808501359083015261334260e085016132a6565b60e0830152610100848101359083015261012080850135908301529081526101408301356020820152610160830135604082015261018083013560608201526101a090920135608090920191909152919050565b5f5f83601f8401126133a6575f5ffd5b5081356001600160401b038111156133bc575f5ffd5b6020830191508360208285010111156133d3575f5ffd5b9250929050565b5f5f5f5f61020085870312156133ee575f5ffd5b84356001600160401b03811115613403575f5ffd5b8501601f81018713613413575f5ffd5b803561341e8161326c565b60405161342b828261322e565b82815289602084860101111561343f575f5ffd5b826020850160208301375f602084830101528097505050505061346586602087016132b6565b92506101e08501356001600160401b03811115613480575f5ffd5b61348c87828801613396565b95989497509550505050565b5f602082840312156134a8575f5ffd5b81356001600160e01b031981168114612cdf575f5ffd5b5f602082840312156134cf575f5ffd5b813563ffffffff81168114612cdf575f5ffd5b80356001600160c01b03811681146132b1575f5ffd5b5f60208284031215613508575f5ffd5b612cdf826134e2565b5f5f60408385031215613522575f5ffd5b823561352d81613292565b915061353b602084016134e2565b90509250929050565b5f5f60408385031215613555575f5ffd5b823561356081613292565b946020939093013593505050565b5f610120828403121561357f575f5ffd5b50919050565b5f60208284031215613595575f5ffd5b81356001600160401b038111156135aa575f5ffd5b6107eb8482850161356e565b5f602082840312156135c6575f5ffd5b8135612cdf81613292565b5f5f83601f8401126135e1575f5ffd5b5081356001600160401b038111156135f7575f5ffd5b6020830191508360208260051b85010111156133d3575f5ffd5b5f5f5f60408486031215613623575f5ffd5b83356001600160401b03811115613638575f5ffd5b613644868287016135d1565b909450925050602084013561365881613292565b809150509250925092565b5f5f5f60408486031215613675575f5ffd5b833561368081613292565b925060208401356001600160401b0381111561369a575f5ffd5b6136a686828701613396565b9497909650939450505050565b5f5f5f5f5f606086880312156136c7575f5ffd5b85356001600160401b038111156136dc575f5ffd5b6136e888828901613396565b90965094505060208601356136fc81613292565b925060408601356001600160401b03811115613716575f5ffd5b61372288828901613396565b969995985093965092949392505050565b5f5f5f5f60608587031215613746575f5ffd5b84356001600160401b0381111561375b575f5ffd5b6137678782880161356e565b945050602085013561377881613292565b925060408501356001600160401b03811115613480575f5ffd5b5f81518084528060208401602086015e5f602082860101526020601f19601f83011685010191505092915050565b60208152815160208201526020820151604082015260408201516060820152606082015160808201526080820151151560a08201525f60a083015160c0808401526107eb60e0840182613792565b5f5f6020838503121561381f575f5ffd5b82356001600160401b03811115613834575f5ffd5b61384085828601613396565b90969095509350505050565b602080825282516101408383015280516101608401529081015161018083015260408101516101a083015260608101516101c08301526080015160a06101e08301525f9061389e610200840182613792565b905060208401516138bc604085018280518252602090810151910152565b506040840151805160808581019190915260209182015160a08601526060860151805160c087015282015160e086015285015180516001600160a01b0316610100860152808201518051610120870152909101516101408501525b509392505050565b634e487b7160e01b5f52601260045260245ffd5b634e487b7160e01b5f52601160045260245ffd5b8181038181111561087457610874613933565b828152604060208201525f6107eb6040830184613792565b8082018082111561087457610874613933565b5f6001820161399657613996613933565b5060010190565b634e487b7160e01b5f52603260045260245ffd5b5f823561011e198336030181126139c6575f5ffd5b9190910192915050565b818382375f9101908152919050565b8215158152604060208201525f6107eb6040830184613792565b5f5f85851115613a07575f5ffd5b83861115613a13575f5ffd5b5050820193919092039150565b80356bffffffffffffffffffffffff198116906014841015613a66576bffffffffffffffffffffffff196bffffffffffffffffffffffff198560140360031b1b82161691505b5092915050565b81835281816020850137505f828201602090810191909152601f909101601f19169091010190565b602081525f6107eb602083018486613a6d565b5f60208284031215613ab8575f5ffd5b8151612cdf81613292565b65ffffffffffff818116838216019081111561087457610874613933565b5f5f8335601e19843603018112613af6575f5ffd5b8301803591506001600160401b03821115613b0f575f5ffd5b6020019150368190038213156133d3575f5ffd5b5f8235605e198336030181126139c6575f5ffd5b5f5f8335601e19843603018112613b4c575f5ffd5b8301803591506001600160401b03821115613b65575f5ffd5b6020019150600581901b36038213156133d3575f5ffd5b5f5f8335601e19843603018112613b91575f5ffd5b83016020810192503590506001600160401b03811115613baf575f5ffd5b8036038213156133d3575f5ffd5b613bd782613bca836132a6565b6001600160a01b03169052565b602081810135908301525f613bef6040830183613b7c565b6101206040860152613c0661012086018284613a6d565b915050613c166060840184613b7c565b8583036060870152613c29838284613a6d565b6080868101359088015260a0808701359088015260c080870135908801529250613c5991505060e0840184613b7c565b85830360e0870152613c6c838284613a6d565b92505050613c7e610100840184613b7c565b858303610100870152613c92838284613a6d565b9695505050505050565b604080825281018490525f6060600586901b83018101908301878361011e1936839003015b89821015613d0557868503605f190184528235818112613cdf575f5ffd5b613ceb868d8301613bbd565b955050602083019250602084019350600182019150613cc1565b505050508281036020840152613d1c818587613a6d565b979650505050505050565b634e487b7160e01b5f52602160045260245ffd5b5f60038610613d5857634e487b7160e01b5f52602160045260245ffd5b85825260806020830152613d6f6080830186613792565b6040830194909452506060015292915050565b602081525f612cdf6020830184613792565b604081525f613da66040830185613bbd565b90508260208301529392505050565b805180516001600160a01b031683526020810151602084015260408101516040840152606081015160608401526080810151608084015260a081015160a084015260c081015160c084015260e0810151613e1a60e08501826001600160a01b03169052565b5061010081810151908401526101209081015190830152602081015161014083015260408101516101608301526060810151610180830152608001516101a090910152565b61020081525f613e73610200830186613792565b613e806020840186613db5565b8281036101e0840152613c928185613792565b61020081525f613ea861020083018688613a6d565b613eb56020840186613db5565b8281036101e0840152613d1c8185613792565b606081525f613edb606083018789613a6d565b6001600160a01b03861660208401528281036040840152613efd818587613a6d565b98975050505050505050565b5f60033d11156132695760045f5f3e505f5160e01c90565b5f60443d1015613f2e5790565b6040513d600319016004823e80513d60248201116001600160401b0382111715613f5757505090565b80820180516001600160401b03811115613f72575050505090565b3d8401600319018282016020011115613f8c575050505090565b6139176020828501018561322e565b606081525f613fad6060830186613bbd565b60208301949094525060400152919050565b5f60208284031215613fcf575f5ffd5b5051919050565b82815260606020820152600d60608201526c10504c8cc81c995d995c9d1959609a1b608082015260a060408201525f6107eb60a0830184613792565b5f5f60408385031215614023575f5ffd5b82516001600160401b03811115614038575f5ffd5b8301601f81018513614048575f5ffd5b80516140538161326c565b604051614060828261322e565b828152876020848601011115614074575f5ffd5b8260208501602083015e5f60209382018401529590910151949694955050505050565b82815260606020820152600d60608201526c10504cccc81c995d995c9d1959609a1b608082015260a060408201525f6107eb60a0830184613792565b80356001600160801b03198116906010841015613a66576001600160801b031960109490940360031b84901b169092169291505056fea264697066735822122042e2e807a3165387ef2d2717733eb799d7a2c317e67d0e6f54c654c3ca1545ec64736f6c634300081c00336080604052348015600e575f5ffd5b506101fc8061001c5f395ff3fe608060405234801561000f575f5ffd5b5060043610610029575f3560e01c8063570e1a361461002d575b5f5ffd5b61004061003b3660046100e4565b61005c565b6040516001600160a01b03909116815260200160405180910390f35b5f8061006b6014828587610152565b61007491610179565b60601c90505f6100878460148188610152565b8080601f0160208091040260200160405190810160405280939291908181526020018383808284375f92018290525084519495509360209350849250905082850182875af190505f519350806100db575f93505b50505092915050565b5f5f602083850312156100f5575f5ffd5b823567ffffffffffffffff81111561010b575f5ffd5b8301601f8101851361011b575f5ffd5b803567ffffffffffffffff811115610131575f5ffd5b856020828401011115610142575f5ffd5b6020919091019590945092505050565b5f5f85851115610160575f5ffd5b8386111561016c575f5ffd5b5050820193919092039150565b80356bffffffffffffffffffffffff1981169060148410156101bf576bffffffffffffffffffffffff196bffffffffffffffffffffffff198560140360031b1b82161691505b509291505056fea2646970667358221220282ab1a2d1904fe650fcff42cbd3a0e8e13f26632253742aa654e34d502b0d7b64736f6c634300081c0033","linkReferences":{}},"methodIdentifiers":{"_validateSenderAndPaymaster(bytes,address,bytes)":"957122ab","addStake(uint32)":"0396cb60","balanceOf(address)":"70a08231","delegateAndRevert(address,bytes)":"850aaf62","depositTo(address)":"b760faf9","deposits(address)":"fc7e286d","getDepositInfo(address)":"5287ce12","getGasConsumed(address,uint256)":"ee5a97c8","getNonce(address,uint192)":"35567e1a","getSenderAddress(bytes)":"9b249f69","getUserOpHash((address,uint256,bytes,bytes,bytes32,uint256,bytes32,bytes,bytes))":"22cdde4c","handleAggregatedOps(((address,uint256,bytes,bytes,bytes32,uint256,bytes32,bytes,bytes)[],address,bytes)[],address)":"dbed18e0","handleOps((address,uint256,bytes,bytes,bytes32,uint256,bytes32,bytes,bytes)[],address)":"765e827f","incrementNonce(uint192)":"0bd28e3b","innerHandleOp(bytes,((address,uint256,uint256,uint256,uint256,uint256,uint256,address,uint256,uint256),bytes32,uint256,uint256,uint256),bytes)":"0042dc53","nonceSequenceNumber(address,uint192)":"1b2e01b8","simulateHandleOp((address,uint256,bytes,bytes,bytes32,uint256,bytes32,bytes,bytes),address,bytes)":"97b2dcb9","simulateValidation((address,uint256,bytes,bytes,bytes32,uint256,bytes32,bytes,bytes))":"c3bce009","supportsInterface(bytes4)":"01ffc9a7","unlockStake()":"bb9fe6bf","withdrawStake(address)":"c23a5cea","withdrawTo(address,uint256)":"205c2878"},"id":7}