{"abi":[{"type":"function","name":"acceptanceCommandTemplates","inputs":[],"outputs":[{"name":"","type":"string[][]","internalType":"string[][]"}],"stateMutability":"pure"},{"type":"function","name":"accountHashes","inputs":[{"name":"accountHash","type":"bytes32","internalType":"bytes32"}],"outputs":[{"name":"account","type":"address","internalType":"address"}],"stateMutability":"view"},{"type":"function","name":"extractRecoveredAccountFromAcceptanceCommand","inputs":[{"name":"commandParams","type":"bytes[]","internalType":"bytes[]"},{"name":"","type":"uint256","internalType":"uint256"}],"outputs":[{"name":"","type":"address","internalType":"address"}],"stateMutability":"view"},{"type":"function","name":"extractRecoveredAccountFromRecoveryCommand","inputs":[{"name":"commandParams","type":"bytes[]","internalType":"bytes[]"},{"name":"","type":"uint256","internalType":"uint256"}],"outputs":[{"name":"","type":"address","internalType":"address"}],"stateMutability":"view"},{"type":"function","name":"parseRecoveryDataHash","inputs":[{"name":"templateIdx","type":"uint256","internalType":"uint256"},{"name":"commandParams","type":"bytes[]","internalType":"bytes[]"}],"outputs":[{"name":"","type":"bytes32","internalType":"bytes32"}],"stateMutability":"pure"},{"type":"function","name":"recoveryCommandTemplates","inputs":[],"outputs":[{"name":"","type":"string[][]","internalType":"string[][]"}],"stateMutability":"pure"},{"type":"function","name":"storeAccountHash","inputs":[{"name":"account","type":"address","internalType":"address"}],"outputs":[],"stateMutability":"nonpayable"},{"type":"function","name":"validateAcceptanceCommand","inputs":[{"name":"templateIdx","type":"uint256","internalType":"uint256"},{"name":"commandParams","type":"bytes[]","internalType":"bytes[]"}],"outputs":[{"name":"","type":"address","internalType":"address"}],"stateMutability":"view"},{"type":"function","name":"validateRecoveryCommand","inputs":[{"name":"templateIdx","type":"uint256","internalType":"uint256"},{"name":"commandParams","type":"bytes[]","internalType":"bytes[]"}],"outputs":[{"name":"","type":"address","internalType":"address"}],"stateMutability":"view"},{"type":"error","name":"ExistingStoredAccountHash","inputs":[{"name":"account","type":"address","internalType":"address"}]},{"type":"error","name":"InvalidAccount","inputs":[]},{"type":"error","name":"InvalidCommandParams","inputs":[{"name":"paramsLength","type":"uint256","internalType":"uint256"},{"name":"expectedParamsLength","type":"uint256","internalType":"uint256"}]},{"type":"error","name":"InvalidTemplateIndex","inputs":[{"name":"templateIdx","type":"uint256","internalType":"uint256"},{"name":"expectedTemplateIdx","type":"uint256","internalType":"uint256"}]}],"bytecode":{"object":"0x6080604052348015600e575f5ffd5b50610dc08061001c5f395ff3fe608060405234801561000f575f5ffd5b5060043610610090575f3560e01c8063861f45b711610063578063861f45b7146100f4578063a5e3ee70146100d9578063ad775fdc14610107578063d19721651461012f578063da06673914610144575f5ffd5b80630536542e14610094578063222f6cb5146100c45780632c4ce129146100d95780633ef01b8f146100ec575b5f5ffd5b6100a76100a2366004610a98565b610165565b6040516001600160a01b0390911681526020015b60405180910390f35b6100cc6102a9565b6040516100bb9190610b0e565b6100a76100e7366004610bb7565b6104d5565b6100cc61059d565b6100a7610102366004610a98565b610869565b6100a7610115366004610bff565b5f602081905290815260409020546001600160a01b031681565b61014261013d366004610c16565b6108d2565b005b610157610152366004610a98565b610978565b6040519081526020016100bb565b5f831561019357604051635be7785560e01b8152600481018590525f60248201526044015b60405180910390fd5b600282146101be576040516325922ecf60e21b8152600481018390526002602482015260440161018a565b5f6101ca8484876104d5565b90505f848460018181106101e0576101e0610c43565b90506020028101906101f29190610c57565b8101906101ff9190610cae565b90506001600160a01b03821661022857604051630da30f6560e31b815260040160405180910390fd5b6040516399bbc83f60e01b815273__$423da46a850dad686d91731f1a664ae5e6$__906399bbc83f9061025f908490600401610d61565b602060405180830381865af415801561027a573d5f5f3e3d5ffd5b505050506040513d601f19601f8201168201806040525081019061029e9190610d73565b509095945050505050565b6040805160018082528183019092526060915f9190816020015b60608152602001906001900390816102c357505060408051600580825260c08201909252919250602082015b60608152602001906001900390816102ef57905050815f8151811061031657610316610c43565b6020026020010181905250604051806040016040528060068152602001651058d8d95c1d60d21b815250815f8151811061035257610352610c43565b60200260200101515f8151811061036b5761036b610c43565b60200260200101819052506040518060400160405280600881526020016733bab0b93234b0b760c11b815250815f815181106103a9576103a9610c43565b60200260200101516001815181106103c3576103c3610c43565b6020026020010181905250604051806040016040528060078152602001661c995c5d595cdd60ca1b815250815f8151811061040057610400610c43565b602002602001015160028151811061041a5761041a610c43565b6020026020010181905250604051806040016040528060038152602001623337b960e91b815250815f8151811061045357610453610c43565b602002602001015160038151811061046d5761046d610c43565b6020026020010181905250604051806040016040528060088152602001677b737472696e677d60c01b815250815f815181106104ab576104ab610c43565b60200260200101516004815181106104c5576104c5610c43565b6020908102919091010152919050565b5f5f73__$423da46a850dad686d91731f1a664ae5e6$__6399bbc83f86865f81811061050357610503610c43565b90506020028101906105159190610c57565b8101906105229190610cae565b6040518263ffffffff1660e01b815260040161053e9190610d61565b602060405180830381865af4158015610559573d5f5f3e3d5ffd5b505050506040513d601f19601f8201168201806040525081019061057d9190610d73565b5f908152602081905260409020546001600160a01b031695945050505050565b6040805160018082528183019092526060915f9190816020015b60608152602001906001900390816105b75750506040805160078082526101008201909252919250602082015b60608152602001906001900390816105e457905050815f8151811061060b5761060b610c43565b6020026020010181905250604051806040016040528060078152602001662932b1b7bb32b960c91b815250815f8151811061064857610648610c43565b60200260200101515f8151811061066157610661610c43565b6020026020010181905250604051806040016040528060078152602001661858d8dbdd5b9d60ca1b815250815f8151811061069e5761069e610c43565b60200260200101516001815181106106b8576106b8610c43565b6020026020010181905250604051806040016040528060088152602001677b737472696e677d60c01b815250815f815181106106f6576106f6610c43565b602002602001015160028151811061071057610710610c43565b6020026020010181905250604051806040016040528060058152602001647573696e6760d81b815250815f8151811061074b5761074b610c43565b602002602001015160038151811061076557610765610c43565b6020026020010181905250604051806040016040528060088152602001677265636f7665727960c01b815250815f815181106107a3576107a3610c43565b60200260200101516004815181106107bd576107bd610c43565b6020026020010181905250604051806040016040528060048152602001630d0c2e6d60e31b815250815f815181106107f7576107f7610c43565b602002602001015160058151811061081157610811610c43565b6020026020010181905250604051806040016040528060088152602001677b737472696e677d60c01b815250815f8151811061084f5761084f610c43565b60200260200101516006815181106104c5576104c5610c43565b5f831561089257604051635be7785560e01b8152600481018590525f602482015260440161018a565b600182146108bd576040516325922ecf60e21b8152600481018390526001602482015260440161018a565b5f6108c98484876104d5565b95945050505050565b6040516bffffffffffffffffffffffff19606083901b1660208201525f9060340160408051601f1981840301815291815281516020928301205f818152928390529120549091506001600160a01b03161561094b5760405163d0c8a06b60e01b81526001600160a01b038316600482015260240161018a565b5f90815260208190526040902080546001600160a01b0319166001600160a01b0392909216919091179055565b5f83156109a157604051635be7785560e01b8152600481018590525f602482015260440161018a565b73__$423da46a850dad686d91731f1a664ae5e6$__6399bbc83f848460018181106109ce576109ce610c43565b90506020028101906109e09190610c57565b8101906109ed9190610cae565b6040518263ffffffff1660e01b8152600401610a099190610d61565b602060405180830381865af4158015610a24573d5f5f3e3d5ffd5b505050506040513d601f19601f82011682018060405250810190610a489190610d73565b949350505050565b5f5f83601f840112610a60575f5ffd5b50813567ffffffffffffffff811115610a77575f5ffd5b6020830191508360208260051b8501011115610a91575f5ffd5b9250929050565b5f5f5f60408486031215610aaa575f5ffd5b83359250602084013567ffffffffffffffff811115610ac7575f5ffd5b610ad386828701610a50565b9497909650939450505050565b5f81518084528060208401602086015e5f602082860101526020601f19601f83011685010191505092915050565b5f602082016020835280845180835260408501915060408160051b8601019250602086015f5b82811015610bab57868503603f19018452815180518087526020918201918088019190600582901b8901015f5b82811015610b9257601f198a8303018452610b7d828651610ae0565b60209586019594909401939150600101610b61565b5097505050602094850194929092019150600101610b34565b50929695505050505050565b5f5f5f60408486031215610bc9575f5ffd5b833567ffffffffffffffff811115610bdf575f5ffd5b610beb86828701610a50565b909790965060209590950135949350505050565b5f60208284031215610c0f575f5ffd5b5035919050565b5f60208284031215610c26575f5ffd5b81356001600160a01b0381168114610c3c575f5ffd5b9392505050565b634e487b7160e01b5f52603260045260245ffd5b5f5f8335601e19843603018112610c6c575f5ffd5b83018035915067ffffffffffffffff821115610c86575f5ffd5b602001915036819003821315610a91575f5ffd5b634e487b7160e01b5f52604160045260245ffd5b5f60208284031215610cbe575f5ffd5b813567ffffffffffffffff811115610cd4575f5ffd5b8201601f81018413610ce4575f5ffd5b803567ffffffffffffffff811115610cfe57610cfe610c9a565b604051601f8201601f19908116603f0116810167ffffffffffffffff81118282101715610d2d57610d2d610c9a565b604052818152828201602001861015610d44575f5ffd5b816020840160208301375f91810160200191909152949350505050565b602081525f610c3c6020830184610ae0565b5f60208284031215610d83575f5ffd5b505191905056fea2646970667358221220990a62c8d26ff31629a9d022e932beb183f5fc875e833b1bf5c997fe6a9503f064736f6c634300081c0033","linkReferences":{"node_modules/@zk-email/ether-email-auth-contracts/src/libraries/StringUtils.sol":{"StringUtils":[{"start":595,"length":20},{"start":1269,"length":20},{"start":2495,"length":20}]}}},"methodIdentifiers":{"acceptanceCommandTemplates()":"222f6cb5","accountHashes(bytes32)":"ad775fdc","extractRecoveredAccountFromAcceptanceCommand(bytes[],uint256)":"2c4ce129","extractRecoveredAccountFromRecoveryCommand(bytes[],uint256)":"a5e3ee70","parseRecoveryDataHash(uint256,bytes[])":"da066739","recoveryCommandTemplates()":"3ef01b8f","storeAccountHash(address)":"d1972165","validateAcceptanceCommand(uint256,bytes[])":"861f45b7","validateRecoveryCommand(uint256,bytes[])":"0536542e"},"id":287}