{"abi":[{"type":"function","name":"NEXUS_ACCOUNT_FACTORY_BYTECODE","inputs":[],"outputs":[{"name":"","type":"bytes","internalType":"bytes"}],"stateMutability":"view"},{"type":"function","name":"NEXUS_BOOTSTRAP_BYTECODE","inputs":[],"outputs":[{"name":"","type":"bytes","internalType":"bytes"}],"stateMutability":"view"},{"type":"function","name":"NEXUS_BYTECODE","inputs":[],"outputs":[{"name":"","type":"bytes","internalType":"bytes"}],"stateMutability":"view"},{"type":"function","name":"NEXUS_PROXY_BYTECODE","inputs":[],"outputs":[{"name":"","type":"bytes","internalType":"bytes"}],"stateMutability":"view"},{"type":"function","name":"createAccount","inputs":[{"name":"salt","type":"bytes32","internalType":"bytes32"},{"name":"initCode","type":"bytes","internalType":"bytes"}],"outputs":[{"name":"account","type":"address","internalType":"address"}],"stateMutability":"nonpayable"},{"type":"function","name":"deployNexus","inputs":[{"name":"anEntryPoint","type":"address","internalType":"address"}],"outputs":[{"name":"nexus","type":"address","internalType":"address"}],"stateMutability":"nonpayable"},{"type":"function","name":"deployNexusAccountFactory","inputs":[{"name":"implementation","type":"address","internalType":"address"},{"name":"owner","type":"address","internalType":"address"}],"outputs":[{"name":"factory","type":"address","internalType":"contract INexusAccountFactory"}],"stateMutability":"nonpayable"},{"type":"function","name":"deployNexusBootstrap","inputs":[],"outputs":[{"name":"bootstrap","type":"address","internalType":"contract INexusBootstrap"}],"stateMutability":"nonpayable"},{"type":"function","name":"getAddress","inputs":[{"name":"salt","type":"bytes32","internalType":"bytes32"},{"name":"initCode","type":"bytes","internalType":"bytes"}],"outputs":[{"name":"","type":"address","internalType":"address"}],"stateMutability":"view"},{"type":"function","name":"getInitData","inputs":[{"name":"validator","type":"address","internalType":"address"},{"name":"initData","type":"bytes","internalType":"bytes"}],"outputs":[{"name":"_init","type":"bytes","internalType":"bytes"}],"stateMutability":"view"},{"type":"function","name":"init","inputs":[],"outputs":[],"stateMutability":"nonpayable"}],"bytecode":{"object":"0x6080604052348015600e575f5ffd5b50619c2d8061001c5f395ff3fe608060405234801561000f575f5ffd5b50600436106100a6575f3560e01c80638202ad8f1161006e5780638202ad8f146101165780639d2296031461011e578063d959fd0e14610126578063e1c7392a14610139578063f8a5937014610143578063fcc359ef14610156575f5ffd5b806318f1c514146100aa5780633692b75f146100d35780634117c951146100fe5780635afb8157146101065780637179d2da1461010e575b5f5ffd5b6100bd6100b8366004610909565b610169565b6040516100ca9190610982565b60405180910390f35b6100e66100e1366004610994565b610268565b6040516001600160a01b0390911681526020016100ca565b6100bd610301565b6100bd610320565b6100bd61033f565b6100bd61035e565b6100e661037d565b6100e66101343660046109ad565b6103d7565b6101416104f0565b005b6100e66101513660046109ad565b61057b565b6100e66101643660046109db565b61059c565b6040805180820182526001600160a01b03841681526020808201849052825160018082528185019094526060935f92828101908036833701905050905070333034e9f539ce08819e12c1b8cb29084d815f815181106101ca576101ca610a0c565b6001600160a01b039283166020918202929092010152600180546040516341bdc49760e11b815292169163837b892e9161021c9186916e69e2a187aeffb852bf3ccdc95151b291879190600401610a20565b5f60405180830381865afa158015610236573d5f5f3e3d5ffd5b505050506040513d5f823e601f3d908101601f1916820160405261025d9190810190610abd565b925050505b92915050565b5f5f6040518061594001604052806159048152602001610b816159049139604080516001600160a01b03861660208201520160408051601f19818403018152908290526102b89291602001610b49565b60405160208183030381529060405290506102d28161064a565b91506102fb82604051806040016040528060058152602001644e6578757360d81b8152506106b5565b50919050565b604051806110200160405280610fe58152602001616485610fe5913981565b6040518061594001604052806159048152602001610b81615904913981565b6040518061042001604052806103e481526020016198146103e4913981565b604051806123e001604052806123aa815260200161746a6123aa913981565b5f6103a2604051806123e001604052806123aa815260200161746a6123aa913961064a565b90506103d4816040518060400160405280600e81526020016d04e65787573426f6f7473747261760941b8152506106b5565b90565b5f5f60ff60f81b30856040518061042001604052806103e481526020016198146103e491396002546040516001600160a01b039091169061041c908990602401610982565b60408051601f19818403018152918152602080830180516001600160e01b0316634b6a141960e01b179052905161045593929101610b5d565b60408051601f19818403018152908290526104739291602001610b49565b604051602081830303815290604052805190602001206040516020016104d094939291906001600160f81b031994909416845260609290921b6bffffffffffffffffffffffff191660018401526015830152603582015260550190565b60408051808303601f190181529190528051602090910120949350505050565b6105096f71727de22e5e9d8baf0edac6f37da032610268565b600280546001600160a01b0319166001600160a01b03929092169182179055610532903061059c565b5f80546001600160a01b0319166001600160a01b039290921691909117905561055961037d565b600180546001600160a01b0319166001600160a01b0392909216919091179055565b6002545f906105959084906001600160a01b03168461071f565b9392505050565b5f5f604051806110200160405280610fe58152602001616485610fe59139604080516001600160a01b038781166020830152861681830152815180820383018152606082019092526105f2929190608001610b49565b604051602081830303815290604052905061060c8161064a565b915061064382604051806040016040528060138152602001724e657875734163636f756e74466163746f727960681b8152506106b5565b5092915050565b5f8151602083015ff090506001600160a01b0381166106b05760405162461bcd60e51b815260206004820152601b60248201527f4465706c6f7965723a206465706c6f796d656e74206661696c6564000000000060448201526064015b60405180910390fd5b919050565b6040516318caf8e360e31b8152737109709ecfa91a80626ff3989d68f67f5b1dd12d9063c657c718906106ee9085908590600401610b5d565b5f604051808303815f87803b158015610705575f5ffd5b505af1158015610717573d5f5f3e3d5ffd5b505050505050565b5f6107cb6040518061042001604052806103e481526020016198146103e4913984634b6a141960e01b856040516024016107599190610982565b60408051601f19818403018152918152602080830180516001600160e01b03166001600160e01b03199095169490941790935251610798939201610b5d565b60408051601f19818403018152908290526107b69291602001610b49565b604051602081830303815290604052856107d3565b949350505050565b5f818351602085015ff590506001600160a01b0381166102625760405162461bcd60e51b815260206004820152601b60248201527f4465706c6f7965723a206465706c6f796d656e74206661696c6564000000000060448201526064016106a7565b80356001600160a01b03811681146106b0575f5ffd5b634e487b7160e01b5f52604160045260245ffd5b604051601f8201601f1916810167ffffffffffffffff811182821017156108885761088861084b565b604052919050565b5f67ffffffffffffffff8211156108a9576108a961084b565b50601f01601f191660200190565b5f82601f8301126108c6575f5ffd5b81356108d96108d482610890565b61085f565b8181528460208386010111156108ed575f5ffd5b816020850160208301375f918101602001919091529392505050565b5f5f6040838503121561091a575f5ffd5b61092383610835565b9150602083013567ffffffffffffffff81111561093e575f5ffd5b61094a858286016108b7565b9150509250929050565b5f81518084528060208401602086015e5f602082860101526020601f19601f83011685010191505092915050565b602081525f6105956020830184610954565b5f602082840312156109a4575f5ffd5b61059582610835565b5f5f604083850312156109be575f5ffd5b82359150602083013567ffffffffffffffff81111561093e575f5ffd5b5f5f604083850312156109ec575f5ffd5b6109f583610835565b9150610a0360208401610835565b90509250929050565b634e487b7160e01b5f52603260045260245ffd5b608080825285516001600160a01b0316908201526020850151604060a08301525f90610a4f60c0840182610954565b6001600160a01b0387166020858101919091528482036040860152865180835287820193509101905f5b81811015610aa05783516001600160a01b0316835260209384019390920191600101610a79565b505060ff851660608501529150610ab49050565b95945050505050565b5f60208284031215610acd575f5ffd5b815167ffffffffffffffff811115610ae3575f5ffd5b8201601f81018413610af3575f5ffd5b8051610b016108d482610890565b818152856020838501011115610b15575f5ffd5b8160208401602083015e5f91810160200191909152949350505050565b5f81518060208401855e5f93019283525090919050565b5f6107cb610b578386610b32565b84610b32565b6001600160a01b03831681526040602082018190525f906107cb9083018461095456fe6101606040523061014052348015610015575f5ffd5b50604051615904380380615904833981016040819052610034916101d4565b306080524660a05260608061007d6040805180820182526005808252644e6578757360d81b602080840191909152835180850190945290835264312e302e3160d81b9083015291565b815160209283012081519183019190912060c082905260e0819052604080517f8b73c3c69bb8fe3d512ecc4cf759cc79239f7b179b0ffacaa9a75d522b39400f8152938401929092529082015246606082015230608082015260a090206101005250506001600160a01b038116610107576040516307e355bf60e31b815260040160405180910390fd5b6001600160a01b0381166101205261011d610123565b50610201565b7f0bb70095b32b9671358306b0339b4c06e7cbd8cb82505941fba30d1eb5b82f0061016d7f0bb70095b32b9671358306b0339b4c06e7cbd8cb82505941fba30d1eb5b82f01610179565b61017681610179565b50565b60015f908152602082905260409020546001600160a01b0316156101b0576040516329e42f3360e11b815260040160405180910390fd5b60015f818152602092909252604090912080546001600160a01b0319169091179055565b5f602082840312156101e4575f5ffd5b81516001600160a01b03811681146101fa575f5ffd5b9392505050565b60805160a05160c05160e05161010051610120516101405161562d6102d75f395f818161111801526127d101525f818161062a01528181610adf01528181610d7201528181610eae01528181610ef90152818161125b0152818161156b0152818161161101528181611ae201528181611b320152818161209e0152818161211a0152818161232f01526138b101525f818161260c01526128c301525f81816126c6015261297d01525f81816126a0015261295701525f8181612650015261290701525f818161262d01526128e4015261562d5ff3fe6080604052600436106101db575f3560e01c80638dd7712f11610101578063cd64f80a11610094578063e9ae5c5311610063578063e9ae5c53146106f2578063ea5f61d014610705578063eab77e1714610724578063f2dc691d14610737576101e2565b8063cd64f80a14610681578063d03c791414610694578063d691c964146106b3578063d86f2b3c146106d3576101e2565b8063aaf10f42116100d0578063aaf10f4214610608578063b0d691fe1461061c578063b46b61a91461064e578063c399ec881461066d576101e2565b80638dd7712f146105845780639517e29f146105975780639cfd7cff146105aa578063a71763a8146105f5576101e2565b80634b6a1419116101795780635faac46b116101485780635faac46b146104f35780636575f6aa146105205780637b1039991461053f57806384b0196e1461055d576101e2565b80634b6a1419146104a65780634d44560d146104b95780634f1ef286146104cc57806352d1902d146104df576101e2565b806319822f7c116101b557806319822f7c146103a95780633644e515146103d6578063481ddd23146103ea5780634a58db191461049c576101e2565b80630a664dba14610311578063112d3a7d146103425780631626ba7e14610371576101e2565b366101e257005b5f3660605f6102055f5160206155a65f395f51905f52546001600160a01b031690565b90506001600160a01b0381166102265761021f8484610756565b9150610305565b60405163d68f602560e01b81525f906001600160a01b0383169063d68f60259061025a9033903490869036906004016148ba565b5f604051808303815f875af1158015610275573d5f5f3e3d5ffd5b505050506040513d5f823e601f3d908101601f1916820160405261029c9190810190614982565b90506102a88585610756565b9250604051630b9dfbed60e11b81526001600160a01b0383169063173bf7da906102d6908490600401614a2a565b5f604051808303815f87803b1580156102ed575f5ffd5b505af11580156102ff573d5f5f3e3d5ffd5b50505050505b50915050805190602001f35b34801561031c575f5ffd5b5061032561096f565b6040516001600160a01b0390911681526020015b60405180910390f35b34801561034d575f5ffd5b5061036161035c366004614aa0565b610993565b6040519015158152602001610339565b34801561037c575f5ffd5b5061039061038b366004614af8565b6109ab565b6040516001600160e01b03199091168152602001610339565b3480156103b4575f5ffd5b506103c86103c3366004614b57565b610ad2565b604051908152602001610339565b3480156103e1575f5ffd5b506103c8610d67565b3480156103f5575f5ffd5b50610474610404366004614bb6565b6001600160e01b0319165f9081527f0bb70095b32b9671358306b0339b4c06e7cbd8cb82505941fba30d1eb5b82f0260209081526040918290208251808401909352546001600160a01b038116808452600160a01b90910460f81b6001600160f81b031916929091018290529091565b604080516001600160f81b031990931683526001600160a01b03909116602083015201610339565b6104a4610d70565b005b6104a46104b4366004614bd1565b610da4565b6104a46104c7366004614c04565b610ea3565b6104a46104da366004614c2e565b610f58565b3480156104ea575f5ffd5b506103c8611115565b3480156104fe575f5ffd5b5061051261050d366004614c04565b611172565b604051610339929190614c66565b34801561052b575f5ffd5b506103c861053a366004614cc5565b611198565b34801561054a575f5ffd5b505f54610325906001600160a01b031681565b348015610568575f5ffd5b506105716111a8565b6040516103399796959493929190614cdc565b6104a4610592366004614d76565b611250565b6104a46105a5366004614aa0565b611560565b3480156105b5575f5ffd5b50604080518082018252601481527f6269636f6e6f6d792e6e657875732e312e302e30000000000000000000000000602082015290516103399190614a2a565b6104a4610603366004614aa0565b611606565b348015610613575f5ffd5b50610325611907565b348015610627575f5ffd5b507f0000000000000000000000000000000000000000000000000000000000000000610325565b348015610659575f5ffd5b50610390610668366004614af8565b61193e565b348015610678575f5ffd5b506103c8611ade565b6104a461068f366004614c2e565b611b27565b34801561069f575f5ffd5b506103616106ae366004614cc5565b611d62565b6106c66106c1366004614af8565b611dd0565b6040516103399190614db8565b3480156106de575f5ffd5b506103c86106ed366004614e1b565b61204e565b6104a4610700366004614af8565b61210f565b348015610710575f5ffd5b5061051261071f366004614c04565b6122f6565b6104a4610732366004614e52565b612324565b348015610742575f5ffd5b50610361610751366004614cc5565b612383565b5f80356001600160e01b03191681527f0bb70095b32b9671358306b0339b4c06e7cbd8cb82505941fba30d1eb5b82f0260205260408120805460609291906001600160a01b03811690600160a01b900460f81b81156108d3576001600160f81b03198116607f60f91b0361082c57816001600160a01b03166107d888886123dd565b6040516107e59190614eed565b5f60405180830381855afa9150503d805f811461081d576040519150601f19603f3d011682016040523d82523d5f602084013e610822565b606091505b50955093506108c1565b6001600160f81b0319811661089757816001600160a01b03163461085089896123dd565b60405161085d9190614eed565b5f6040518083038185875af1925050503d805f811461081d576040519150601f19603f3d011682016040523d82523d5f602084013e610822565b604051632e5bf3f960e21b81526001600160f81b0319821660048201526024015b60405180910390fd5b836108ce57845160208601fd5b610965565b5f3560e01c63150b7a02811463f23a6e61821463bc197c81831417171561091257600194506040519550600486528060e01b6020870152602486016040525b6001600160e01b03195f351685610962576040517f08c63e270000000000000000000000000000000000000000000000000000000081526001600160e01b031990911660048201526024016108b8565b50505b5050505092915050565b5f61098e5f5160206155a65f395f51905f52546001600160a01b031690565b905090565b5f6109a085858585612412565b90505b949350505050565b5f8181036109e4576109c061ffff8319614f17565b6109cc90617739614f36565b84036109e4576109dd84848461193e565b9050610acb565b5f6109f26014828587614f4d565b6109fb91614f74565b60601c9050610a09816124d1565b8190610a345760405163342cf00f60e11b81526001600160a01b0390911660048201526024016108b8565b506001600160a01b03811663f551e2ee3387610a53876014818b614f4d565b6040518563ffffffff1660e01b8152600401610a7294939291906148ba565b602060405180830381865afa925050508015610aab575060408051601f3d908101601f19168201909252610aa891810190614fb4565b60015b610ac057506001600160e01b03199050610acb565b9150610acb9050565b505b9392505050565b5f81336001600160a01b037f00000000000000000000000000000000000000000000000000000000000000001614610b1d57604051635629665f60e11b815260040160405180910390fd5b5f602086013560401c6001600160a01b03169050600160f81b602087013560031a60f81b03610c4d575f610b508761501c565b9050610b6986610b646101008a018a61511c565b6124e9565b8080601f0160208091040260200160405190810160405280939291908181526020018383808284375f92019190915250505050610100820152610bab826124d1565b8290610bd65760405163342cf00f60e11b81526001600160a01b0390911660048201526024016108b8565b50604051639700320360e01b81526001600160a01b03831690639700320390610c059084908a9060040161515f565b6020604051808303815f875af1158015610c21573d5f5f3e3d5ffd5b505050506040513d601f19601f82011682018060405250810190610c45919061522b565b935050610d4f565b610c56816124d1565b15610cd057604051639700320360e01b81526001600160a01b03821690639700320390610c899089908990600401615359565b6020604051808303815f875af1158015610ca5573d5f5f3e3d5ffd5b505050506040513d601f19601f82011682018060405250810190610cc9919061522b565b9250610d4f565b60015f525f5160206155865f395f51905f526020527ffe44ceacbf4f03c6ac19f86826dd265fa9ec25125e8b1766c207f24cd3bc73c7546001600160a01b0316610d2b57610cc9610d2561010088018861511c565b87612576565b60405163342cf00f60e11b81526001600160a01b03821660048201526024016108b8565b508015610ac9575f385f3884335af150509392505050565b5f61098e61260a565b7f00000000000000000000000000000000000000000000000000000000000000005f38818134855af1610da1575f38fd5b50565b333014610db357610db36126ff565b610dbb612738565b5f80610dc98385018561537a565b915091505f826001600160a01b031682604051610de69190614eed565b5f60405180830381855af49150503d805f8114610e1e576040519150601f19603f3d011682016040523d82523d5f602084013e610e23565b606091505b5050905080610e5e576040517f315927c500000000000000000000000000000000000000000000000000000000815260040160405180910390fd5b610e66612778565b610e9c576040517fc4d0a0b100000000000000000000000000000000000000000000000000000000815260040160405180910390fd5b5050505050565b336001600160a01b037f0000000000000000000000000000000000000000000000000000000000000000161480610ed957503330145b610ef657604051635629665f60e11b815260040160405180910390fd5b5f7f0000000000000000000000000000000000000000000000000000000000000000905060405183601452826034526f205c28780000000000000000000000005f525f38604460105f865af1610f4e573d5f823e3d81fd5b505f603452505050565b5f610f775f5160206155a65f395f51905f52546001600160a01b031690565b90506001600160a01b038116610fe4576001600160a01b038416610fae5760405163325c055b60e21b815260040160405180910390fd5b833b151580610fd05760405163325c055b60e21b815260040160405180910390fd5b843055610fde8585856127cf565b5061110f565b60405163d68f602560e01b81525f906001600160a01b0383169063d68f6025906110189033903490869036906004016148ba565b5f604051808303815f875af1158015611033573d5f5f3e3d5ffd5b505050506040513d5f823e601f3d908101601f1916820160405261105a9190810190614982565b90506001600160a01b0385166110835760405163325c055b60e21b815260040160405180910390fd5b843b1515806110a55760405163325c055b60e21b815260040160405180910390fd5b8530556110b38686866127cf565b50604051630b9dfbed60e11b81526001600160a01b0383169063173bf7da906110e0908490600401614a2a565b5f604051808303815f87803b1580156110f7575f5ffd5b505af1158015611109573d5f5f3e3d5ffd5b50505050505b50505050565b5f7f000000000000000000000000000000000000000000000000000000000000000030811461114b57639f03a0265f526004601cfd5b7f360894a13ba1a3210667c828492db98dca3e2076cc3735a920a3ca505d382bbc91505090565b60605f61118d5f5160206155865f395f51905f5285856128a7565b909590945092505050565b5f6111a2826128c1565b92915050565b7f0f000000000000000000000000000000000000000000000000000000000000006060805f80808361123e60408051808201825260058082527f4e6578757300000000000000000000000000000000000000000000000000000060208084019190915283518085019094529083527f312e302e310000000000000000000000000000000000000000000000000000009083015291565b97989097965046955030945091925090565b336001600160a01b037f0000000000000000000000000000000000000000000000000000000000000000161461129957604051635629665f60e11b815260040160405180910390fd5b5f6112b85f5160206155a65f395f51905f52546001600160a01b031690565b90506001600160a01b0381166113c657365f6112d7606086018661511c565b6112e5916004908290614f4d565b915091505f5f306001600160a01b031684846040516113059291906153c7565b5f60405180830381855af49150503d805f811461133d576040519150601f19603f3d011682016040523d82523d5f602084013e611342565b606091505b5091509150811561138b577fd3fddfd1276d1cc278f10907710a44474a32f917b2fcfa198f46ca7689215e2f878260405161137e9291906153d6565b60405180910390a16113bd565b6040517facfdb44400000000000000000000000000000000000000000000000000000000815260040160405180910390fd5b50505050505050565b60405163d68f602560e01b81525f906001600160a01b0383169063d68f6025906113fa9033903490869036906004016148ba565b5f604051808303815f875af1158015611415573d5f5f3e3d5ffd5b505050506040513d5f823e601f3d908101601f1916820160405261143c9190810190614982565b9050365f61144d606087018761511c565b61145b916004908290614f4d565b915091505f5f306001600160a01b0316848460405161147b9291906153c7565b5f60405180830381855af49150503d805f81146114b3576040519150601f19603f3d011682016040523d82523d5f602084013e6114b8565b606091505b5091509150811561138b577fd3fddfd1276d1cc278f10907710a44474a32f917b2fcfa198f46ca7689215e2f88826040516114f49291906153d6565b60405180910390a15050604051630b9dfbed60e11b81526001600160a01b038516925063173bf7da915061152c908490600401614a2a565b5f604051808303815f87803b158015611543575f5ffd5b505af1158015611555573d5f5f3e3d5ffd5b50505050505b505050565b336001600160a01b037f000000000000000000000000000000000000000000000000000000000000000016148061159657503330145b6115b357604051635629665f60e11b815260040160405180910390fd5b6115bf848484846129d7565b604080518581526001600160a01b03851660208201527fd21d0b289f126c4b473ea641963e766833c2f13866e4ff480abd787c100ef123910160405180910390a150505050565b336001600160a01b037f000000000000000000000000000000000000000000000000000000000000000016148061163c57503330145b61165957604051635629665f60e11b815260040160405180910390fd5b5f6116785f5160206155a65f395f51905f52546001600160a01b031690565b90506001600160a01b03811661175b5761169485858585612412565b858590916116c757604051635f300b3960e11b815260048101929092526001600160a01b031660248201526044016108b8565b5050604080518681526001600160a01b03861660208201527f341347516a9de374859dfda710fa4828b2d48cb57d4fbe4c1149612b8e02276e910160405180910390a1600185036117225761171d848484612bbc565b610e9c565b600285036117355761171d848484612c8a565b600385036117485761171d848484612d23565b6004850361171d5761171d848484612e2a565b60405163d68f602560e01b81525f906001600160a01b0383169063d68f60259061178f9033903490869036906004016148ba565b5f604051808303815f875af11580156117aa573d5f5f3e3d5ffd5b505050506040513d5f823e601f3d908101601f191682016040526117d19190810190614982565b90506117df86868686612412565b8686909161181257604051635f300b3960e11b815260048101929092526001600160a01b031660248201526044016108b8565b5050604080518781526001600160a01b03871660208201527f341347516a9de374859dfda710fa4828b2d48cb57d4fbe4c1149612b8e02276e910160405180910390a16001860361186d57611868858585612bbc565b6118a6565b6002860361188057611868858585612c8a565b6003860361189357611868858585612d23565b600486036118a6576118a6858585612e2a565b604051630b9dfbed60e11b81526001600160a01b0383169063173bf7da906118d2908490600401614a2a565b5f604051808303815f87803b1580156118e9575f5ffd5b505af11580156118fb573d5f5f3e3d5ffd5b50505050505050505050565b7f360894a13ba1a3210667c828492db98dca3e2076cc3735a920a3ca505d382bbc546001600160a01b03811661193b575030545b90565b60015f9081525f5160206155865f395f51905f5260208190527ffe44ceacbf4f03c6ac19f86826dd265fa9ec25125e8b1766c207f24cd3bc73c7548291906001600160a01b03165b6001600160a01b038116158015906119a857506001600160a01b038116600114155b15611ab3576040517ff551e2ee0000000000000000000000000000000000000000000000000000000081525f906001600160a01b0383169063f551e2ee906119fa9033908c908c908c906004016148ba565b602060405180830381865afa158015611a15573d5f5f3e3d5ffd5b505050506040513d601f19601f82011682018060405250810190611a399190614fb4565b90507fffff00000000000000000000000000000000000000000000000000000000000081167f7739000000000000000000000000000000000000000000000000000000000000148015611a9857506001600160e01b0319808516908216115b15611aa1578093505b611aab8383612e67565b915050611986565b50506001600160e01b0319811615611acb5780611ad5565b6001600160e01b03195b95945050505050565b5f5f7f00000000000000000000000000000000000000000000000000000000000000009050306020526370a082315f526020806024601c845afa601f3d11166020510291505090565b336001600160a01b037f00000000000000000000000000000000000000000000000000000000000000001614611b7057604051635629665f60e11b815260040160405180910390fd5b611b7d6004848484612412565b6004849091611bb157604051635f300b3960e11b815260048101929092526001600160a01b031660248201526044016108b8565b50505f611bc85f5160206155865f395f51905f5290565b6001600160a01b0385165f908152600482016020526040812054919250819003611c48576001600160a01b0385165f81815260048401602090815260409182902042908190558251938452908301527f2841d18703faaff388732165e48fe431468531b1b1e626b1b7cbcbfc0d79c74091015b60405180910390a1610e9c565b611c56620151806003614f36565b611c6090826153fa565b4210611cb9576001600160a01b0385165f81815260048401602090815260409182902042908190558251938452908301527fcbd44a75f6935b5837022648b6c8487db984701200c5381c7c0f8c2b1d69b9da9101611c3b565b611cc662015180826153fa565b4210611d30576001600160a01b0385165f908152600483016020526040812055611cf1858585612e2a565b60408051600481526001600160a01b03871660208201527f341347516a9de374859dfda710fa4828b2d48cb57d4fbe4c1149612b8e02276e9101611c3b565b6040517f07f2f2d200000000000000000000000000000000000000000000000000000000815260040160405180910390fd5b5f81600881901b6001600160f81b031982161580611d8d57506001600160f81b03198216600160f81b145b80611da157506001600160f81b0319808316145b80156109a357506001600160f81b0319811615806109a357506001600160f81b03198116600160f81b146109a3565b6060611dee335f5160206155865f395f51905f525b60010190612eba565b3390611e32576040517fb927fe5e0000000000000000000000000000000000000000000000000000000081526001600160a01b0390911660048201526024016108b8565b505f611e525f5160206155a65f395f51905f52546001600160a01b031690565b90506001600160a01b038116611f0057336002611e6f8282612ef2565b86600881901b6001600160f81b03198216611e9657611e8f888883612f74565b9550611ef7565b6001600160f81b03198216600160f81b03611eb657611e8f8888836130c9565b6001600160f81b031980831603611ed257611e8f888883613142565b604051632e5bf3f960e21b81526001600160f81b0319831660048201526024016108b8565b50505050610ac9565b60405163d68f602560e01b81525f906001600160a01b0383169063d68f602590611f349033903490869036906004016148ba565b5f604051808303815f875af1158015611f4f573d5f5f3e3d5ffd5b505050506040513d5f823e601f3d908101601f19168201604052611f769190810190614982565b9050336002611f858282612ef2565b87600881901b6001600160f81b03198216611fac57611fa5898983612f74565b9650611fe8565b6001600160f81b03198216600160f81b03611fcc57611fa58989836130c9565b6001600160f81b031980831603611ed257611fa5898983613142565b5050604051630b9dfbed60e11b81526001600160a01b038516925063173bf7da9150612018908490600401614a2a565b5f604051808303815f87803b15801561202f575f5ffd5b505af1158015612041573d5f5f3e3d5ffd5b5050505050509392505050565b6040517f35567e1a00000000000000000000000000000000000000000000000000000000815230600482015277ffffffffffffffffffffffffffffffffffffffffffffffff821660248201525f907f00000000000000000000000000000000000000000000000000000000000000006001600160a01b0316906335567e1a90604401602060405180830381865afa1580156120eb573d5f5f3e3d5ffd5b505050506040513d601f19601f820116820180604052508101906111a2919061522b565b336001600160a01b037f0000000000000000000000000000000000000000000000000000000000000000161461215857604051635629665f60e11b815260040160405180910390fd5b5f6121775f5160206155a65f395f51905f52546001600160a01b031690565b90506001600160a01b0381166121ef5783600881901b6001600160f81b031982166121ac576121a7858583613290565b6121e8565b6001600160f81b03198216600160f81b036121cc576121a785858361335c565b6001600160f81b031980831603611ed2576121a78585836133c9565b505061110f565b60405163d68f602560e01b81525f906001600160a01b0383169063d68f6025906122239033903490869036906004016148ba565b5f604051808303815f875af115801561223e573d5f5f3e3d5ffd5b505050506040513d5f823e601f3d908101601f191682016040526122659190810190614982565b905084600881901b6001600160f81b0319821661228c57612287868683613290565b6122c8565b6001600160f81b03198216600160f81b036122ac5761228786868361335c565b6001600160f81b031980831603611ed2576122878686836133c9565b5050604051630b9dfbed60e11b81526001600160a01b0383169063173bf7da906110e0908490600401614a2a565b60605f61118d7f0bb70095b32b9671358306b0339b4c06e7cbd8cb82505941fba30d1eb5b82f0185856128a7565b336001600160a01b037f000000000000000000000000000000000000000000000000000000000000000016148061235a57503330145b61237757604051635629665f60e11b815260040160405180910390fd5b61110f8484848461346d565b5f6001820361239457506001919050565b600282036123a457506001919050565b600382036123b457506001919050565b600482036123c457506001919050565b816123d157506001919050565b505f919050565b919050565b6060604080513681016020019091529050601436018152365f602083013760408051601481019091523360601b905292915050565b5f6001850361242b57612424846124d1565b90506109a3565b6002850361243c576124248461353f565b600385036124b9575f6004831061246a5761245a60045f8587614f4d565b6124639161540d565b905061246d565b505f5b6001600160e01b0319165f9081527f0bb70095b32b9671358306b0339b4c06e7cbd8cb82505941fba30d1eb5b82f0260205260409020546001600160a01b0385811691161490506109a3565b600485036124ca5761242484613557565b505f6109a3565b5f6111a25f5160206155865f395f51905f5283612eba565b365f5f5f365f365f6124fb8a8a613590565b909e509c50949a5092985090965094509250905061252661251f87878e88886135e4565b8383613679565b61255c576040517f46fdc33300000000000000000000000000000000000000000000000000000000815260040160405180910390fd5b612568858786866129d7565b505050505050935093915050565b5f5f6125e46125a9846020527b19457468657265756d205369676e6564204d6573736167653a0a33325f52603c60042090565b86868080601f0160208091040260200160405190810160405280939291908181526020018383808284375f9201919091525061378d92505050565b9050306001600160a01b038216036125ff575f915050610acb565b506001949350505050565b7f00000000000000000000000000000000000000000000000000000000000000007f000000000000000000000000000000000000000000000000000000000000000030147f000000000000000000000000000000000000000000000000000000000000000046141661193b5750604080517f8b73c3c69bb8fe3d512ecc4cf759cc79239f7b179b0ffacaa9a75d522b39400f81527f000000000000000000000000000000000000000000000000000000000000000060208201527f00000000000000000000000000000000000000000000000000000000000000009181019190915246606082015230608082015260a0902090565b7f90b772c2cb8a51aa7a8a65fc23543c6d022d5b3f8e2b92eed79fba7eef829300805c806127345763aed595955f526004601cfd5b5050565b5f5160206155865f395f51905f5261276f7f0bb70095b32b9671358306b0339b4c06e7cbd8cb82505941fba30d1eb5b82f01613832565b610da181613832565b5f6001612794815f5160206155865f395f51905f525b90612e67565b6001600160a01b03161415801561098e57505f6127bf60015f5160206155865f395f51905f5261278e565b6001600160a01b03161415905090565b7f000000000000000000000000000000000000000000000000000000000000000030810361280457639f03a0265f526004601cfd5b61280d846138a6565b8360601b60601c93506352d1902d6001527f360894a13ba1a3210667c828492db98dca3e2076cc3735a920a3ca505d382bbc80602060016004601d895afa511461285f576355299b496001526004601dfd5b847fbc7cd75a20ee27fd9adebab32041f755214dbc6bffa90cc0225b39da2e5c2d3b5f38a2849055811561110f57604051828482375f388483885af4610e9c573d5f823e3d81fd5b60605f6128b58585856138f9565b90969095509350505050565b7f00000000000000000000000000000000000000000000000000000000000000007f000000000000000000000000000000000000000000000000000000000000000030147f00000000000000000000000000000000000000000000000000000000000000004614166129b45750604080517f8b73c3c69bb8fe3d512ecc4cf759cc79239f7b179b0ffacaa9a75d522b39400f81527f000000000000000000000000000000000000000000000000000000000000000060208201527f00000000000000000000000000000000000000000000000000000000000000009181019190915246606082015230608082015260a090205b6719010000000000005f5280601a5281603a52604260182090505f603a52919050565b5f6129f65f5160206155a65f395f51905f52546001600160a01b031690565b90506001600160a01b038116612aa5576001600160a01b038416612a2d57604051635316c18d60e01b815260040160405180910390fd5b60018503612a405761171d848484613aba565b60028503612a535761171d848484613b93565b60038503612a665761171d848484613c51565b60048503612a795761171d848484613fa5565b84612a895761171d8484846140fc565b6040516304c1896960e11b8152600481018690526024016108b8565b60405163d68f602560e01b81525f906001600160a01b0383169063d68f602590612ad99033903490869036906004016148ba565b5f604051808303815f875af1158015612af4573d5f5f3e3d5ffd5b505050506040513d5f823e601f3d908101601f19168201604052612b1b9190810190614982565b90506001600160a01b038516612b4457604051635316c18d60e01b815260040160405180910390fd5b60018603612b5757611868858585613aba565b60028603612b6a57611868858585613b93565b60038603612b7d57611868858585613c51565b60048603612b9057611868858585613fa5565b85612ba0576118688585856140fc565b6040516304c1896960e11b8152600481018790526024016108b8565b5f5160206155865f395f51905f525f80612bd88585018661537a565b9092509050612be8838388614255565b612bf0612778565b612c26576040517fcc319d8400000000000000000000000000000000000000000000000000000000815260040160405180910390fd5b6115555a5f5f638a91b0e360e01b85604051602401612c459190614a2a565b60408051601f198184030181529190526020810180516001600160e01b03166001600160e01b0319909316929092179091526001600160a01b038b1693929190614328565b5f80612c988385018561537a565b91509150612cbf8286612cb55f5160206155865f395f51905f5290565b6001019190614255565b6113bd5a5f5f638a91b0e360e01b85604051602401612cde9190614a2a565b60408051601f198184030181529190526020810180516001600160e01b03166001600160e01b0319909316929092179091526001600160a01b038a1693929190614328565b604080518082019091525f80825260208201525f5160206155865f395f51905f526002015f612d556004828688614f4d565b612d5e9161540d565b6001600160e01b03191681526020808201929092526040015f2082518154939092015160f81c600160a01b0274ffffffffffffffffffffffffffffffffffffffffff199093166001600160a01b0390921691909117919091179055610e9c5a5f80638a91b0e360e01b612dd4866004818a614f4d565b604051602401612de5929190615442565b60408051601f198184030181529190526020810180516001600160e01b03166001600160e01b0319909316929092179091526001600160a01b03881693929190614328565b5f5160206155a65f395f51905f5280546001600160a01b0319169055610e9c5a5f5f638a91b0e360e01b8686604051602401612de5929190615442565b5f6001600160a01b038216612e9a57604051637c84ecfb60e01b81526001600160a01b03831660048201526024016108b8565b506001600160a01b039081165f9081526020929092526040909120541690565b5f60016001600160a01b03831614801590610acb5750506001600160a01b039081165f90815260209290925260409091205416151590565b5f546001600160a01b0316801561155b576040517f96fb72170000000000000000000000000000000000000000000000000000000081526001600160a01b038481166004830152602482018490528216906396fb7217906044015f6040518083038186803b158015612f62575f5ffd5b505afa1580156113bd573d5f5f3e3d5ffd5b60605f5f365f612f8488886143ae565b6040805160018082528183019092529498509296509094509250816020015b6060815260200190600190039081612fa357509095505f90506001600160f81b03198716612ff957612fd7858585856143fe565b865f81518110612fe957612fe9615455565b60200260200101819052506130bd565b6001600160f81b03198716600160f81b036130985761301a85858585614431565b875f8151811061302c5761302c615455565b6020908102919091010152905080613093577fb5282692b8c578af7fb880895d599035496b5e64d1f14bf428a1ed3bc406f6628383885f8151811061307357613073615455565b602002602001015160405161308a93929190615469565b60405180910390a15b6130bd565b6040516308c3ee0360e11b81526001600160f81b0319881660048201526024016108b8565b50505050509392505050565b6060833584016020810190356001600160f81b031984166130f5576130ee828261445f565b9250613139565b6001600160f81b03198416600160f81b03613114576130ee8282614535565b6040516308c3ee0360e11b81526001600160f81b0319851660048201526024016108b8565b50509392505050565b60605f365f613151878761466c565b6040805160018082528183019092529396509194509250816020015b606081526020019060019003908161316d57509094505f90506001600160f81b031986166131c2576131a08484846146a2565b855f815181106131b2576131b2615455565b6020026020010181905250613285565b6001600160f81b03198616600160f81b03613260576131e28484846146d3565b865f815181106131f4576131f4615455565b602090810291909101015290508061325b577f5bd4c60b4b38b664d8fb5944eb974e3d85083d79afe5ce934ccabcc913707c108383875f8151811061323b5761323b615455565b602002602001015160405161325293929190615469565b60405180910390a15b613285565b6040516308c3ee0360e11b81526001600160f81b0319871660048201526024016108b8565b505050509392505050565b5f5f365f61329e87876143ae565b929650909450925090506001600160f81b031985166132c8576132c3848484846146ff565b6113bd565b6001600160f81b03198516600160f81b03613337575f5f6132eb86868686614431565b9150915081613330577fb5282692b8c578af7fb880895d599035496b5e64d1f14bf428a1ed3bc406f66284848360405161332793929190615469565b60405180910390a15b50506113bd565b6040516308c3ee0360e11b81526001600160f81b0319861660048201526024016108b8565b823583016020810190356001600160f81b0319831661337f5761171d8282614723565b6001600160f81b03198316600160f81b036133a45761339e8282614535565b50610e9c565b6040516308c3ee0360e11b81526001600160f81b0319841660048201526024016108b8565b5f365f6133d6868661466c565b919450925090506001600160f81b031984166133fc576133f7838383614783565b613465565b6001600160f81b03198416600160f81b03613114575f5f61341e8585856146d3565b9150915081611555577f5bd4c60b4b38b664d8fb5944eb974e3d85083d79afe5ce934ccabcc913707c1084848360405161345a93929190615469565b60405180910390a150505b505050505050565b5f80546001600160a01b0319166001600160a01b03861690811790915515613506576040517ff05c04e10000000000000000000000000000000000000000000000000000000081526001600160a01b0385169063f05c04e1906134d89084908790879060040161548e565b5f604051808303815f87803b1580156134ef575f5ffd5b505af1158015613501573d5f5f3e3d5ffd5b505050505b6040516001600160a01b038516907ff98c8404c5b1bfef2e6ba9233c6e88845aedfd36eea8b192725d8c199571cf32905f90a250505050565b5f6111a2825f5160206155865f395f51905f52611de5565b5f816001600160a01b03166135805f5160206155a65f395f51905f52546001600160a01b031690565b6001600160a01b03161492915050565b813560601c6014830135603880850190603486013560e090811c91603c838901818101939281013590921c9136915f9184018b9003016135d28a82818e614f4d565b92509250509295985092959890939650565b5f6040518060800160405280605b81526020016155c6605b91398051906020012086868686866040516136189291906153c7565b60405190819003812061365895949392916020019485526001600160a01b0393909316602085015260408401919091526060830152608082015260a00190565b60405160208183030381529060405280519060200120905095945050505050565b5f806136886014828587614f4d565b61369191614f74565b60601c905061369f816124d1565b6136c75760405163342cf00f60e11b81526001600160a01b03821660048201526024016108b8565b5f6136d1866128c1565b90506001600160a01b03821663f551e2ee30836136f1886014818c614f4d565b6040518563ffffffff1660e01b815260040161371094939291906148ba565b602060405180830381865afa925050508015613749575060408051601f3d908101601f1916820190925261374691810190614fb4565b60015b613757575f92505050610acb565b6001600160e01b0319167f1626ba7e00000000000000000000000000000000000000000000000000000000149250610acb915050565b5f6040518251604081146137a957604181146137e3575061381e565b604084015160ff81901c601b016020527f7fffffffffffffffffffffffffffffffffffffffffffffffffffffffffffffff166060526137f6565b60608401515f1a60205260408401516060525b50835f5260208301516040526020600160805f60015afa5191505f606052806040523d61382b575b638baa579f5f526004601cfd5b5092915050565b60015f908152602082905260409020546001600160a01b031615613882576040517f53c85e6600000000000000000000000000000000000000000000000000000000815260040160405180910390fd5b60015f818152602092909252604090912080546001600160a01b0319169091179055565b336001600160a01b037f00000000000000000000000000000000000000000000000000000000000000001614806138dc57503330145b610da157604051635629665f60e11b815260040160405180910390fd5b60605f6001600160a01b03841660011480159061391d575061391b8585612eba565b155b1561394657604051637c84ecfb60e01b81526001600160a01b03851660048201526024016108b8565b825f0361397f576040517ff725081700000000000000000000000000000000000000000000000000000000815260040160405180910390fd5b8267ffffffffffffffff811115613998576139986148ec565b6040519080825280602002602001820160405280156139c1578160200160208202803683370190505b506001600160a01b038086165f90815260208890526040812054929450911691505b6001600160a01b03821615801590613a0557506001600160a01b038216600114155b8015613a1057508381105b15613a695781838281518110613a2857613a28615455565b6001600160a01b039283166020918202929092018101919091529281165f908152928790526040909220549091169080613a61816154e5565b9150506139e3565b6001600160a01b038216600114801590613a8257505f81115b15613aae5782613a936001836154fd565b81518110613aa357613aa3615455565b602002602001015191505b80835250935093915050565b826001613ac78282612ef2565b60405163ecd0596160e01b8152600160048201526001600160a01b0386169063ecd0596190602401602060405180830381865afa158015613b0a573d5f5f3e3d5ffd5b505050506040513d601f19601f82011682018060405250810190613b2e9190615510565b613b4e576040516369c9a24560e11b8152600160048201526024016108b8565b613b655f5160206155865f395f51905f52866147a5565b6040516306d61fe760e41b81526001600160a01b03861690636d61fe70906110e09087908790600401615442565b826002613ba08282612ef2565b60405163ecd0596160e01b8152600260048201526001600160a01b0386169063ecd0596190602401602060405180830381865afa158015613be3573d5f5f3e3d5ffd5b505050506040513d601f19601f82011682018060405250810190613c079190615510565b613c27576040516369c9a24560e11b8152600260048201526024016108b8565b613b657f0bb70095b32b9671358306b0339b4c06e7cbd8cb82505941fba30d1eb5b82f01866147a5565b826003613c5e8282612ef2565b60405163ecd0596160e01b8152600360048201526001600160a01b0386169063ecd0596190602401602060405180830381865afa158015613ca1573d5f5f3e3d5ffd5b505050506040513d601f19601f82011682018060405250810190613cc59190615510565b613ce5576040516369c9a24560e11b8152600360048201526024016108b8565b5f613cf36004828688614f4d565b613cfc9161540d565b90505f85856004818110613d1257613d12615455565b909101356001600160f81b031916915050801580613d3d57506001600160f81b03198116607f60f91b145b613d73576040517f867a1dcf00000000000000000000000000000000000000000000000000000000815260040160405180910390fd5b5f613d81866005818a614f4d565b8080601f0160208091040260200160405190810160405280939291908181526020018383808284375f920191909152509293505050506001600160e01b031983166306d61fe760e41b1480613de657506001600160e01b03198316638a91b0e360e01b145b80613df957506001600160e01b03198316155b15613e30576040517fc001660b00000000000000000000000000000000000000000000000000000000815260040160405180910390fd5b6001600160e01b031983165f9081527f0bb70095b32b9671358306b0339b4c06e7cbd8cb82505941fba30d1eb5b82f02602052604090205483906001600160a01b031615613eb7576040517fa56a04dd0000000000000000000000000000000000000000000000000000000081526001600160e01b031990911660048201526024016108b8565b506040805180820182526001600160a01b038a81168083526001600160f81b0319861660208085019182526001600160e01b031989165f9081527f0bb70095b32b9671358306b0339b4c06e7cbd8cb82505941fba30d1eb5b82f0290915285902093518454915160f81c600160a01b0274ffffffffffffffffffffffffffffffffffffffffff199092169316929092179190911790915590516306d61fe760e41b8152636d61fe7090613f6e908490600401614a2a565b5f604051808303815f87803b158015613f85575f5ffd5b505af1158015613f97573d5f5f3e3d5ffd5b505050505050505050505050565b826004613fb28282612ef2565b60405163ecd0596160e01b81526004808201526001600160a01b0386169063ecd0596190602401602060405180830381865afa158015613ff4573d5f5f3e3d5ffd5b505050506040513d601f19601f820116820180604052508101906140189190615510565b614037576040516369c9a24560e11b81526004818101526024016108b8565b5f6140565f5160206155a65f395f51905f52546001600160a01b031690565b9050806001600160a01b038116156140a6576040517f741cbe030000000000000000000000000000000000000000000000000000000081526001600160a01b0390911660048201526024016108b8565b505f5160206155a65f395f51905f5280546001600160a01b0319166001600160a01b0388161790556040516306d61fe760e41b81526001600160a01b03871690636d61fe70906118d29088908890600401615442565b81358201602081810191359084810135850190810190358281811461414d576040517fb4fa3fb300000000000000000000000000000000000000000000000000000000815260040160405180910390fd5b5f5b81811015611109575f86868381811061416a5761416a615455565b905060200201359050600181036141ad576141a88a86868581811061419157614191615455565b90506020028101906141a3919061511c565b613aba565b61424c565b600281036141e2576141a88a8686858181106141cb576141cb615455565b90506020028101906141dd919061511c565b613b93565b60038103614217576141a88a86868581811061420057614200615455565b9050602002810190614212919061511c565b613c51565b6004810361424c5761424c8a86868581811061423557614235615455565b9050602002810190614247919061511c565b613fa5565b5060010161414f565b6001600160a01b038116158061427457506001600160a01b0381166001145b1561429d57604051637c84ecfb60e01b81526001600160a01b03831660048201526024016108b8565b6001600160a01b038281165f908152602085905260409020548116908216146142e457604051637c84ecfb60e01b81526001600160a01b03821660048201526024016108b8565b6001600160a01b039081165f8181526020949094526040808520805494841686529085208054949093166001600160a01b0319948516179092559092528154169055565b5f60605f5f5f8661ffff1667ffffffffffffffff81111561434b5761434b6148ec565b6040519080825280601f01601f191660200182016040528015614375576020820181803683370190505b5090505f5f8751602089018b8e8ef191503d925086831115614395578692505b828152825f602083013e90999098509650505050505050565b5f8036816143bf6014828789614f4d565b6143c891614f74565b60601c93506143db603460148789614f4d565b6143e49161552f565b92506143f38560348189614f4d565b949793965094505050565b604051818382375f38838387895af1614419573d5f823e3d81fd5b3d8152602081013d5f823e3d01604052949350505050565b6040515f90828482375f388483888a5af191503d8152602081013d5f823e3d81016040525094509492505050565b60608167ffffffffffffffff81111561447a5761447a6148ec565b6040519080825280602002602001820160405280156144ad57816020015b60608152602001906001900390816144985790505b509050365f5b8381101561452d578484828181106144cd576144cd615455565b90506020028101906144df919061554c565b91506145086144f1602084018461556a565b6020840135614503604086018661511c565b6143fe565b83828151811061451a5761451a615455565b60209081029190910101526001016144b3565b505092915050565b60608167ffffffffffffffff811115614550576145506148ec565b60405190808252806020026020018201604052801561458357816020015b606081526020019060019003908161456e5790505b509050365f5b8381101561452d578484828181106145a3576145a3615455565b90506020028101906145b5919061554c565b91505f6145df6145c8602085018561556a565b60208501356145da604087018761511c565b614431565b8584815181106145f1576145f1615455565b6020908102919091010152905080614663577fb5282692b8c578af7fb880895d599035496b5e64d1f14bf428a1ed3bc406f662614631604085018561511c565b86858151811061464357614643615455565b602002602001015160405161465a93929190615469565b60405180910390a15b50600101614589565b5f368161467c6014828688614f4d565b61468591614f74565b60601c92506146978460148188614f4d565b915091509250925092565b604051818382375f388383875af46146bc573d5f823e3d81fd5b3d8152602081013d5f823e3d016040529392505050565b6040515f90828482375f388483885af491503d8152602081013d5f823e3d810160405250935093915050565b604051818382375f38838387895af161471a573d5f823e3d81fd5b01604052505050565b365f5b8281101561110f5783838281811061474057614740615455565b9050602002810190614752919061554c565b915061477b614764602084018461556a565b6020840135614776604086018661511c565b6146ff565b600101614726565b604051818382375f388383875af461479d573d5f823e3d81fd5b016040525050565b6001600160a01b03811615806147c457506001600160a01b0381166001145b156147ed57604051637c84ecfb60e01b81526001600160a01b03821660048201526024016108b8565b6001600160a01b038181165f908152602084905260409020541615614849576040517f40d3d1a40000000000000000000000000000000000000000000000000000000081526001600160a01b03821660048201526024016108b8565b60015f818152602093909352604080842080546001600160a01b039485168087529286208054959091166001600160a01b03199586161790559190935280549091169091179055565b81835281816020850137505f828201602090810191909152601f909101601f19169091010190565b6001600160a01b0385168152836020820152606060408201525f6148e2606083018486614892565b9695505050505050565b634e487b7160e01b5f52604160045260245ffd5b604051610120810167ffffffffffffffff81118282101715614924576149246148ec565b60405290565b604051601f8201601f1916810167ffffffffffffffff81118282101715614953576149536148ec565b604052919050565b5f67ffffffffffffffff821115614974576149746148ec565b50601f01601f191660200190565b5f60208284031215614992575f5ffd5b815167ffffffffffffffff8111156149a8575f5ffd5b8201601f810184136149b8575f5ffd5b80516149cb6149c68261495b565b61492a565b8181528560208385010111156149df575f5ffd5b8160208401602083015e5f91810160200191909152949350505050565b5f81518084528060208401602086015e5f602082860101526020601f19601f83011685010191505092915050565b602081525f610acb60208301846149fc565b6001600160a01b0381168114610da1575f5ffd5b80356123d881614a3c565b5f5f83601f840112614a6b575f5ffd5b50813567ffffffffffffffff811115614a82575f5ffd5b602083019150836020828501011115614a99575f5ffd5b9250929050565b5f5f5f5f60608587031215614ab3575f5ffd5b843593506020850135614ac581614a3c565b9250604085013567ffffffffffffffff811115614ae0575f5ffd5b614aec87828801614a5b565b95989497509550505050565b5f5f5f60408486031215614b0a575f5ffd5b83359250602084013567ffffffffffffffff811115614b27575f5ffd5b614b3386828701614a5b565b9497909650939450505050565b5f6101208284031215614b51575f5ffd5b50919050565b5f5f5f60608486031215614b69575f5ffd5b833567ffffffffffffffff811115614b7f575f5ffd5b614b8b86828701614b40565b9660208601359650604090950135949350505050565b6001600160e01b031981168114610da1575f5ffd5b5f60208284031215614bc6575f5ffd5b8135610acb81614ba1565b5f5f60208385031215614be2575f5ffd5b823567ffffffffffffffff811115614bf8575f5ffd5b6128b585828601614a5b565b5f5f60408385031215614c15575f5ffd5b8235614c2081614a3c565b946020939093013593505050565b5f5f5f60408486031215614c40575f5ffd5b8335614c4b81614a3c565b9250602084013567ffffffffffffffff811115614b27575f5ffd5b604080825283519082018190525f9060208501906060840190835b81811015614ca85783516001600160a01b0316835260209384019390920191600101614c81565b505080925050506001600160a01b03831660208301529392505050565b5f60208284031215614cd5575f5ffd5b5035919050565b6001600160f81b03198816815260e060208201525f614cfe60e08301896149fc565b8281036040840152614d1081896149fc565b606084018890526001600160a01b038716608085015260a0840186905283810360c0850152845180825260208087019350909101905f5b81811015614d65578351835260209384019390920191600101614d47565b50909b9a5050505050505050505050565b5f5f60408385031215614d87575f5ffd5b823567ffffffffffffffff811115614d9d575f5ffd5b614da985828601614b40565b95602094909401359450505050565b5f602082016020835280845180835260408501915060408160051b8601019250602086015f5b82811015614e0f57603f19878603018452614dfa8583516149fc565b94506020938401939190910190600101614dde565b50929695505050505050565b5f60208284031215614e2b575f5ffd5b813577ffffffffffffffffffffffffffffffffffffffffffffffff81168114610acb575f5ffd5b5f5f5f5f60608587031215614e65575f5ffd5b8435614e7081614a3c565b9350602085013567ffffffffffffffff811115614e8b575f5ffd5b8501601f81018713614e9b575f5ffd5b803567ffffffffffffffff811115614eb1575f5ffd5b8760208260051b8401011115614ec5575f5ffd5b60209190910193509150604085013560ff81168114614ee2575f5ffd5b939692955090935050565b5f82518060208501845e5f920191825250919050565b634e487b7160e01b5f52601160045260245ffd5b5f82614f3157634e487b7160e01b5f52601260045260245ffd5b500490565b80820281158282048414176111a2576111a2614f03565b5f5f85851115614f5b575f5ffd5b83861115614f67575f5ffd5b5050820193919092039150565b80356bffffffffffffffffffffffff19811690601484101561382b576bffffffffffffffffffffffff1960149490940360031b84901b1690921692915050565b5f60208284031215614fc4575f5ffd5b8151610acb81614ba1565b5f82601f830112614fde575f5ffd5b8135614fec6149c68261495b565b818152846020838601011115615000575f5ffd5b816020850160208301375f918101602001919091529392505050565b5f610120823603121561502d575f5ffd5b615035614900565b61503e83614a50565b815260208381013590820152604083013567ffffffffffffffff811115615063575f5ffd5b61506f36828601614fcf565b604083015250606083013567ffffffffffffffff81111561508e575f5ffd5b61509a36828601614fcf565b6060830152506080838101359082015260a0808401359082015260c0808401359082015260e083013567ffffffffffffffff8111156150d7575f5ffd5b6150e336828601614fcf565b60e08301525061010083013567ffffffffffffffff811115615103575f5ffd5b61510f36828601614fcf565b6101008301525092915050565b5f5f8335601e19843603018112615131575f5ffd5b83018035915067ffffffffffffffff82111561514b575f5ffd5b602001915036819003821315614a99575f5ffd5b604081526151796040820184516001600160a01b03169052565b602083015160608201525f6040840151610120608084015261519f6101608401826149fc565b90506060850151603f198483030160a08501526151bc82826149fc565b915050608085015160c084015260a085015160e084015260c085015161010084015260e0850151603f19848303016101208501526151fa82826149fc565b915050610100850151603f198483030161014085015261521a82826149fc565b925050508260208301529392505050565b5f6020828403121561523b575f5ffd5b5051919050565b5f5f8335601e19843603018112615257575f5ffd5b830160208101925035905067ffffffffffffffff811115615276575f5ffd5b803603821315614a99575f5ffd5b61529e8261529183614a50565b6001600160a01b03169052565b602081810135908301525f6152b66040830183615242565b61012060408601526152cd61012086018284614892565b9150506152dd6060840184615242565b85830360608701526152f0838284614892565b6080868101359088015260a0808701359088015260c08087013590880152925061532091505060e0840184615242565b85830360e0870152615333838284614892565b92505050615345610100840184615242565b8583036101008701526148e2838284614892565b604081525f61536b6040830185615284565b90508260208301529392505050565b5f5f6040838503121561538b575f5ffd5b823561539681614a3c565b9150602083013567ffffffffffffffff8111156153b1575f5ffd5b6153bd85828601614fcf565b9150509250929050565b818382375f9101908152919050565b604081525f6153e86040830185615284565b8281036020840152611ad581856149fc565b808201808211156111a2576111a2614f03565b80356001600160e01b0319811690600484101561382b576001600160e01b0319808560040360031b1b82161691505092915050565b602081525f6109a3602083018486614892565b634e487b7160e01b5f52603260045260245ffd5b604081525f61547c604083018587614892565b82810360208401526148e281856149fc565b60ff8416815260406020820181905281018290525f8360608301825b858110156154da5782356154bd81614a3c565b6001600160a01b03168252602092830192909101906001016154aa565b509695505050505050565b5f600182016154f6576154f6614f03565b5060010190565b818103818111156111a2576111a2614f03565b5f60208284031215615520575f5ffd5b81518015158114610acb575f5ffd5b803560208310156111a2575f19602084900360031b1b1692915050565b5f8235605e19833603018112615560575f5ffd5b9190910192915050565b5f6020828403121561557a575f5ffd5b8135610acb81614a3c56fe0bb70095b32b9671358306b0339b4c06e7cbd8cb82505941fba30d1eb5b82f000bb70095b32b9671358306b0339b4c06e7cbd8cb82505941fba30d1eb5b82f034d6f64756c65456e61626c654d6f64652861646472657373206d6f64756c652c75696e74323536206d6f64756c65547970652c6279746573333220757365724f70486173682c6279746573333220696e6974446174614861736829a164736f6c634300081b000a60a060405234801561000f575f5ffd5b50604051610fe5380380610fe583398101604081905261002e916100f1565b8061003881610099565b506001600160a01b03821661006057604051630abd577760e01b815260040160405180910390fd5b6001600160a01b038116610087576040516342bcdf7f60e11b815260040160405180910390fd5b506001600160a01b0316608052610122565b638b78c6d81980546001600160a01b039092169182907f8be0079c531659141344cd1fd0a4f28419497f9722a3daafe3b4186f6b6457e05f80a355565b80516001600160a01b03811681146100ec575f5ffd5b919050565b5f5f60408385031215610102575f5ffd5b61010b836100d6565b9150610119602084016100d6565b90509250929050565b608051610e9e6101475f395f818160ed015281816104a801526105ca0152610e9e5ff3fe6080604052600436106100ce575f3560e01c80638da5cb5b1161007c578063f04e283e11610057578063f04e283e146101b8578063f2fde38b146101cb578063fafa2b42146101de578063fee81cf4146101fd575f5ffd5b80638da5cb5b1461016e578063b36f970514610186578063ea6d13ac146101a5575f5ffd5b80634a1ce599116100ac5780634a1ce5991461013f57806354d1f13d1461015e578063715018a614610166575f5ffd5b806325692962146100d2578063290ab984146100dc578063451711591461012c575b5f5ffd5b6100da61023c565b005b3480156100e7575f5ffd5b5061010f7f000000000000000000000000000000000000000000000000000000000000000081565b6040516001600160a01b0390911681526020015b60405180910390f35b6100da61013a366004610913565b610289565b34801561014a575f5ffd5b506100da610159366004610952565b610332565b6100da6103b2565b6100da6103eb565b348015610179575f5ffd5b50638b78c6d8195461010f565b348015610191575f5ffd5b506100da6101a0366004610974565b6103fe565b61010f6101b33660046109a0565b6104a0565b6100da6101c6366004610952565b610561565b6100da6101d9366004610952565b61059e565b3480156101e9575f5ffd5b5061010f6101f83660046109a0565b6105c4565b348015610208575f5ffd5b5061022e610217366004610952565b63389a75e1600c9081525f91909152602090205490565b604051908152602001610123565b5f6202a30067ffffffffffffffff164201905063389a75e1600c52335f52806020600c2055337fdbf36a107da19e49527a7176a1babf963b4b0ff8cde35ee35d6cd8f1f9ac7e1d5f5fa250565b61029161062d565b6001600160a01b0382166102b8576040516391fdf19160e01b815260040160405180910390fd5b6040517f0396cb6000000000000000000000000000000000000000000000000000000000815263ffffffff821660048201526001600160a01b03831690630396cb609034906024015f604051808303818588803b158015610317575f5ffd5b505af1158015610329573d5f5f3e3d5ffd5b50505050505050565b61033a61062d565b6001600160a01b038116610361576040516391fdf19160e01b815260040160405180910390fd5b806001600160a01b031663bb9fe6bf6040518163ffffffff1660e01b81526004015f604051808303815f87803b158015610399575f5ffd5b505af11580156103ab573d5f5f3e3d5ffd5b5050505050565b63389a75e1600c52335f525f6020600c2055337ffa7b8eab7da67f412cc9575ed43464468f9bfbae89d1675917346ca6d8fe3c925f5fa2565b6103f361062d565b6103fc5f610647565b565b61040661062d565b6001600160a01b03821661042d576040516391fdf19160e01b815260040160405180910390fd5b6040517fc23a5cea0000000000000000000000000000000000000000000000000000000081526001600160a01b03828116600483015283169063c23a5cea906024015f604051808303815f87803b158015610486575f5ffd5b505af1158015610498573d5f5f3e3d5ffd5b505050505050565b5f5f5f6105037f00000000000000000000000000000000000000000000000000000000000000008588888080601f0160208091040260200160405190810160405280939291908181526020018383808284375f9201919091525061068492505050565b91509150816105585783868660405161051d929190610a12565b604051908190038120906001600160a01b038416907f47e5b5fc3bda028416e26dcf66ca5186488c0717e8ab55bb01806113f1839d58905f90a45b95945050505050565b61056961062d565b63389a75e1600c52805f526020600c20805442111561058f57636f5e88185f526004601cfd5b5f905561059b81610647565b50565b6105a661062d565b8060601b6105bb57637448fbae5f526004601cfd5b61059b81610647565b5f6106257f00000000000000000000000000000000000000000000000000000000000000008386868080601f0160208091040260200160405190810160405280939291908181526020018383808284375f920191909152506107c792505050565b949350505050565b638b78c6d8195433146103fc576382b429005f526004601cfd5b638b78c6d81980546001600160a01b039092169182907f8be0079c531659141344cd1fd0a4f28419497f9722a3daafe3b4186f6b6457e05f80a355565b5f5f6106918585856107c7565b90505f816001600160a01b03163b1191508161073457833486856040516024016106bb9190610a4f565b60408051601f198184030181529181526020820180517bffffffffffffffffffffffffffffffffffffffffffffffffffffffff16634b6a141960e01b17905251610704906108f2565b61070f929190610a61565b82906040518091039083f59150508015801561072d573d5f5f3e3d5ffd5b50506107bf565b5f816001600160a01b0316346040515f6040518083038185875af1925050503d805f811461077d576040519150601f19603f3d011682016040523d82523d5f602084013e610782565b606091505b50509050806107bd576040517f6d963f8800000000000000000000000000000000000000000000000000000000815260040160405180910390fd5b505b935093915050565b5f5f604051806020016107d9906108f2565b6020820181038252601f19601f8201166040525085846040516024016107ff9190610a4f565b60408051601f19818403018152918152602080830180517bffffffffffffffffffffffffffffffffffffffffffffffffffffffff16634b6a141960e01b179052905161084d93929101610a61565b60408051601f198184030181529082905261086b9291602001610a99565b60408051601f1981840301815282825280516020918201207fff00000000000000000000000000000000000000000000000000000000000000828501523060601b6bffffffffffffffffffffffff19166021850152603584019790975260558084019790975281518084039097018752607590920190528451940193909320949350505050565b6103e480610aae83390190565b6001600160a01b038116811461059b575f5ffd5b5f5f60408385031215610924575f5ffd5b823561092f816108ff565b9150602083013563ffffffff81168114610947575f5ffd5b809150509250929050565b5f60208284031215610962575f5ffd5b813561096d816108ff565b9392505050565b5f5f60408385031215610985575f5ffd5b8235610990816108ff565b91506020830135610947816108ff565b5f5f5f604084860312156109b2575f5ffd5b833567ffffffffffffffff8111156109c8575f5ffd5b8401601f810186136109d8575f5ffd5b803567ffffffffffffffff8111156109ee575f5ffd5b8660208284010111156109ff575f5ffd5b6020918201979096509401359392505050565b818382375f9101908152919050565b5f81518084528060208401602086015e5f602082860101526020601f19601f83011685010191505092915050565b602081525f61096d6020830184610a21565b6001600160a01b0383168152604060208201525f6106256040830184610a21565b5f81518060208401855e5f93019283525090919050565b5f610625610aa78386610a82565b84610a8256fe60806040526040516103e43803806103e48339810160408190526100229161026c565b61002a61003b565b6100348282610063565b5050610351565b7f90b772c2cb8a51aa7a8a65fc23543c6d022d5b3f8e2b92eed79fba7eef8293006001815d50565b61006c826100c1565b6040516001600160a01b038316907fbc7cd75a20ee27fd9adebab32041f755214dbc6bffa90cc0225b39da2e5c2d3b905f90a28051156100b5576100b0828261013c565b505050565b6100bd6101af565b5050565b806001600160a01b03163b5f036100fb57604051634c9c8ce360e01b81526001600160a01b03821660048201526024015b60405180910390fd5b7f360894a13ba1a3210667c828492db98dca3e2076cc3735a920a3ca505d382bbc80546001600160a01b0319166001600160a01b0392909216919091179055565b60605f5f846001600160a01b031684604051610158919061033b565b5f60405180830381855af49150503d805f8114610190576040519150601f19603f3d011682016040523d82523d5f602084013e610195565b606091505b5090925090506101a68583836101d0565b95945050505050565b34156101ce5760405163b398979f60e01b815260040160405180910390fd5b565b6060826101e5576101e08261022f565b610228565b81511580156101fc57506001600160a01b0384163b155b1561022557604051639996b31560e01b81526001600160a01b03851660048201526024016100f2565b50805b9392505050565b80511561023f5780518082602001fd5b60405163d6bda27560e01b815260040160405180910390fd5b634e487b7160e01b5f52604160045260245ffd5b5f5f6040838503121561027d575f5ffd5b82516001600160a01b0381168114610293575f5ffd5b60208401519092506001600160401b038111156102ae575f5ffd5b8301601f810185136102be575f5ffd5b80516001600160401b038111156102d7576102d7610258565b604051601f8201601f19908116603f011681016001600160401b038111828210171561030557610305610258565b60405281815282820160200187101561031c575f5ffd5b8160208401602083015e5f602083830101528093505050509250929050565b5f82518060208501845e5f920191825250919050565b60878061035d5f395ff3fe6080604052600a600c565b005b60186014601a565b605d565b565b5f60587f360894a13ba1a3210667c828492db98dca3e2076cc3735a920a3ca505d382bbc5473ffffffffffffffffffffffffffffffffffffffff1690565b905090565b365f5f375f5f365f845af43d5f5f3e8080156076573d5ff35b3d5ffdfea164736f6c634300081b000aa164736f6c634300081b000a610120604052348015600f575f5ffd5b50306080524660a0526060806061604080518082018252600e81526d04e65787573426f6f7473747261760941b602080830191909152825180840190935260058352640312e302e360dc1b9083015291565b815160209283012081519183019190912060c082905260e0819052604080517f8b73c3c69bb8fe3d512ecc4cf759cc79239f7b179b0ffacaa9a75d522b39400f8152938401929092529082015246606082015230608082015260a09020610100525060c99050565b60805160a05160c05160e051610100516122b36100f75f395f50505f50505f50505f50505f50506122b35ff3fe6080604052600436106100ca575f3560e01c8063837b892e116100735780639e2533ed1161004d5780639e2533ed1461040d578063d6fe71f11461042c578063ea5f61d01461043f576100d1565b8063837b892e1461039b57806384b0196e146103c757806385a924cc146103ee576100d1565b806355470cf1116100a457806355470cf11461033d5780635faac46b146103505780637b1039991461037d576100d1565b806301fe9ff2146102455780630a664dba1461025a578063481ddd231461028b576100d1565b366100d157005b5f3660605f6101077f0bb70095b32b9671358306b0339b4c06e7cbd8cb82505941fba30d1eb5b82f03546001600160a01b031690565b90506001600160a01b03811661012857610121848461045e565b9150610239565b6040517fd68f60250000000000000000000000000000000000000000000000000000000081525f906001600160a01b0383169063d68f60259061017590339034908690369060040161188d565b5f604051808303815f875af1158015610190573d5f5f3e3d5ffd5b505050506040513d5f823e601f3d908101601f191682016040526101b791908101906118d3565b90506101c3858561045e565b92506040517f173bf7da0000000000000000000000000000000000000000000000000000000081526001600160a01b0383169063173bf7da9061020a9084906004016119b4565b5f604051808303815f87803b158015610221575f5ffd5b505af1158015610233573d5f5f3e3d5ffd5b50505050505b50915050805190602001f35b610258610253366004611a45565b61068e565b005b348015610265575f5ffd5b5061026e6106ae565b6040516001600160a01b0390911681526020015b60405180910390f35b348015610296575f5ffd5b506103156102a5366004611b16565b6001600160e01b0319165f9081527f0bb70095b32b9671358306b0339b4c06e7cbd8cb82505941fba30d1eb5b82f0260209081526040918290208251808401909352546001600160a01b038116808452600160a01b90910460f81b6001600160f81b031916929091018290529091565b604080516001600160f81b031990931683526001600160a01b03909116602083015201610282565b61025861034b366004611b53565b6106e5565b34801561035b575f5ffd5b5061036f61036a366004611bc7565b6107ae565b604051610282929190611bf1565b348015610388575f5ffd5b505f5461026e906001600160a01b031681565b3480156103a6575f5ffd5b506103ba6103b5366004611c50565b6107e7565b60405161028291906119b4565b3480156103d2575f5ffd5b506103db61087c565b6040516102829796959493929190611cdd565b3480156103f9575f5ffd5b506103ba610408366004611b53565b610924565b348015610418575f5ffd5b506103ba610427366004611d77565b6109ad565b61025861043a366004611d77565b610a42565b34801561044a575f5ffd5b5061036f610459366004611bc7565b610c6e565b5f80356001600160e01b03191681527f0bb70095b32b9671358306b0339b4c06e7cbd8cb82505941fba30d1eb5b82f0260205260408120805460609291906001600160a01b03811690600160a01b900460f81b81156105f2576104c581607f60f91b610c9c565b1561053257816001600160a01b03166104de8888610cb3565b6040516104eb9190611e90565b5f60405180830381855afa9150503d805f8114610523576040519150601f19603f3d011682016040523d82523d5f602084013e610528565b606091505b50955093506105e0565b61053c815f610c9c565b1561059d57816001600160a01b0316346105568989610cb3565b6040516105639190611e90565b5f6040518083038185875af1925050503d805f8114610523576040519150601f19603f3d011682016040523d82523d5f602084013e610528565b6040517fb96fcfe40000000000000000000000000000000000000000000000000000000081526001600160f81b0319821660048201526024015b60405180910390fd5b836105ed57845160208601fd5b610684565b5f3560e01c63150b7a02811463f23a6e61821463bc197c81831417171561063157600194506040519550600486528060e01b6020870152602486016040525b6001600160e01b03195f351685610681576040517f08c63e270000000000000000000000000000000000000000000000000000000081526001600160e01b031990911660048201526024016105d7565b50505b5050505092915050565b61069a84848484610ce8565b6106a5878787610dc7565b50505050505050565b5f6106e07f0bb70095b32b9671358306b0339b4c06e7cbd8cb82505941fba30d1eb5b82f03546001600160a01b031690565b905090565b6106f184848484610ce8565b5f5b8681101561076f5761076788888381811061071057610710611ea6565b90506020028101906107229190611eba565b610730906020810190611ed8565b89898481811061074257610742611ea6565b90506020028101906107549190611eba565b610762906020810190611ef3565b610dc7565b6001016106f3565b505f61077e6020870187611ed8565b6001600160a01b0316146106a5576106a561079c6020870187611ed8565b6107a96020880188611ef3565b610ee7565b60605f6107dc7f0bb70095b32b9671358306b0339b4c06e7cbd8cb82505941fba30d1eb5b82f0085856110a6565b909590945092505050565b606030806301fe9ff26107fd60208a018a611ed8565b61080a60208b018b611ef3565b8a8a8a8a6040516024016108249796959493929190611f7e565b604051602081830303815290604052915060e01b6020820180516001600160e01b038381831617835250505050604051602001610862929190611fda565b604051602081830303815290604052905095945050505050565b7f0f000000000000000000000000000000000000000000000000000000000000006060805f808083610912604080518082018252600e81527f4e65787573426f6f7473747261700000000000000000000000000000000000006020808301919091528251808401909352600583527f312e302e300000000000000000000000000000000000000000000000000000009083015291565b97989097965046955030945091925090565b606030306001600160a01b03166355470cf18a8a8a8a8a8a8a60405160240161095397969594939291906120e4565b604051602081830303815290604052915060e01b6020820180516001600160e01b038381831617835250505050604051602001610991929190611fda565b6040516020818303038152906040529050979650505050505050565b606030306001600160a01b031663d6fe71f18e8e8e8e8e8e8e8e8e8e8e6040516024016109e49b9a9998979695949392919061212d565b604051602081830303815290604052915060e01b6020820180516001600160e01b038381831617835250505050604051602001610a22929190611fda565b60405160208183030381529060405290509b9a5050505050505050505050565b610a4e84848484610ce8565b5f5b8a811015610aa757610a9f8c8c83818110610a6d57610a6d611ea6565b9050602002810190610a7f9190611eba565b610a8d906020810190611ed8565b8d8d8481811061074257610742611ea6565b600101610a50565b505f5b88811015610b67575f8a8a83818110610ac557610ac5611ea6565b9050602002810190610ad79190611eba565b610ae5906020810190611ed8565b6001600160a01b031614610b5f57610b5f8a8a83818110610b0857610b08611ea6565b9050602002810190610b1a9190611eba565b610b28906020810190611ed8565b8b8b84818110610b3a57610b3a611ea6565b9050602002810190610b4c9190611eba565b610b5a906020810190611ef3565b6110c0565b600101610aaa565b505f610b766020890189611ed8565b6001600160a01b031614610ba157610ba1610b946020890189611ed8565b6107a960208a018a611ef3565b5f5b85811015610c60575f878783818110610bbe57610bbe611ea6565b9050602002810190610bd09190611eba565b610bde906020810190611ed8565b6001600160a01b031614610c5857610c58878783818110610c0157610c01611ea6565b9050602002810190610c139190611eba565b610c21906020810190611ed8565b888884818110610c3357610c33611ea6565b9050602002810190610c459190611eba565b610c53906020810190611ef3565b61117e565b600101610ba3565b505050505050505050505050565b60605f6107dc7f0bb70095b32b9671358306b0339b4c06e7cbd8cb82505941fba30d1eb5b82f0185856110a6565b6001600160f81b0319828116908216145b92915050565b6060604080513681016020019091529050601436018152365f602083013760408051601481019091523360601b905292915050565b5f805473ffffffffffffffffffffffffffffffffffffffff19166001600160a01b03861690811790915515610d8e576040517ff05c04e10000000000000000000000000000000000000000000000000000000081526001600160a01b0385169063f05c04e190610d60908490879087906004016121bc565b5f604051808303815f87803b158015610d77575f5ffd5b505af1158015610d89573d5f5f3e3d5ffd5b505050505b6040516001600160a01b038516907ff98c8404c5b1bfef2e6ba9233c6e88845aedfd36eea8b192725d8c199571cf32905f90a250505050565b826001610dd482826114e9565b60405163ecd0596160e01b8152600160048201526001600160a01b0386169063ecd0596190602401602060405180830381865afa158015610e17573d5f5f3e3d5ffd5b505050506040513d601f19601f82011682018060405250810190610e3b91906121d8565b610e5b576040516369c9a24560e11b8152600160048201526024016105d7565b610e857f0bb70095b32b9671358306b0339b4c06e7cbd8cb82505941fba30d1eb5b82f0086611570565b6040516306d61fe760e41b81526001600160a01b03861690636d61fe7090610eb390879087906004016121f7565b5f604051808303815f87803b158015610eca575f5ffd5b505af1158015610edc573d5f5f3e3d5ffd5b505050505050505050565b826004610ef482826114e9565b60405163ecd0596160e01b81526004808201526001600160a01b0386169063ecd0596190602401602060405180830381865afa158015610f36573d5f5f3e3d5ffd5b505050506040513d601f19601f82011682018060405250810190610f5a91906121d8565b610f79576040516369c9a24560e11b81526004818101526024016105d7565b5f610fab7f0bb70095b32b9671358306b0339b4c06e7cbd8cb82505941fba30d1eb5b82f03546001600160a01b031690565b9050806001600160a01b03811615610ffb576040517f741cbe030000000000000000000000000000000000000000000000000000000081526001600160a01b0390911660048201526024016105d7565b507f0bb70095b32b9671358306b0339b4c06e7cbd8cb82505941fba30d1eb5b82f03805473ffffffffffffffffffffffffffffffffffffffff19166001600160a01b0388161790556040516306d61fe760e41b81526001600160a01b03871690636d61fe709061107190889088906004016121f7565b5f604051808303815f87803b158015611088575f5ffd5b505af115801561109a573d5f5f3e3d5ffd5b50505050505050505050565b60605f6110b485858561166a565b90969095509350505050565b8260026110cd82826114e9565b60405163ecd0596160e01b8152600260048201526001600160a01b0386169063ecd0596190602401602060405180830381865afa158015611110573d5f5f3e3d5ffd5b505050506040513d601f19601f8201168201806040525081019061113491906121d8565b611154576040516369c9a24560e11b8152600260048201526024016105d7565b610e857f0bb70095b32b9671358306b0339b4c06e7cbd8cb82505941fba30d1eb5b82f0186611570565b82600361118b82826114e9565b60405163ecd0596160e01b8152600360048201526001600160a01b0386169063ecd0596190602401602060405180830381865afa1580156111ce573d5f5f3e3d5ffd5b505050506040513d601f19601f820116820180604052508101906111f291906121d8565b611212576040516369c9a24560e11b8152600360048201526024016105d7565b5f611220600482868861220a565b61122991612231565b90505f8585600481811061123f5761123f611ea6565b9050013560f81c60f81b9050611258815f60f81b610c9c565b8061126c575061126c81607f60f91b610c9c565b6112a2576040517f867a1dcf00000000000000000000000000000000000000000000000000000000815260040160405180910390fd5b5f6112b0866005818a61220a565b8080601f0160208091040260200160405190810160405280939291908181526020018383808284375f920191909152509293505050506001600160e01b031983166306d61fe760e41b148061132e57506001600160e01b031983167f8a91b0e300000000000000000000000000000000000000000000000000000000145b8061134157506001600160e01b03198316155b15611378576040517fc001660b00000000000000000000000000000000000000000000000000000000815260040160405180910390fd5b6001600160e01b031983165f9081527f0bb70095b32b9671358306b0339b4c06e7cbd8cb82505941fba30d1eb5b82f02602052604090205483906001600160a01b0316156113ff576040517fa56a04dd0000000000000000000000000000000000000000000000000000000081526001600160e01b031990911660048201526024016105d7565b506040805180820182526001600160a01b038a81168083526001600160f81b0319861660208085019182526001600160e01b031989165f9081527f0bb70095b32b9671358306b0339b4c06e7cbd8cb82505941fba30d1eb5b82f0290915285902093518454915160f81c600160a01b027fffffffffffffffffffffff0000000000000000000000000000000000000000009092169316929092179190911790915590516306d61fe760e41b8152636d61fe70906114c09084906004016119b4565b5f604051808303815f87803b1580156114d7575f5ffd5b505af1158015610c60573d5f5f3e3d5ffd5b5f546001600160a01b0316801561156b576040517f96fb72170000000000000000000000000000000000000000000000000000000081526001600160a01b038481166004830152602482018490528216906396fb7217906044015f6040518083038186803b158015611559575f5ffd5b505afa1580156106a5573d5f5f3e3d5ffd5b505050565b6001600160a01b038116158061158f57506001600160a01b0381166001145b156115b857604051637c84ecfb60e01b81526001600160a01b03821660048201526024016105d7565b6001600160a01b038181165f908152602084905260409020541615611614576040517f40d3d1a40000000000000000000000000000000000000000000000000000000081526001600160a01b03821660048201526024016105d7565b60015f818152602093909352604080842080546001600160a01b0394851680875292862080549590911673ffffffffffffffffffffffffffffffffffffffff199586161790559190935280549091169091179055565b60605f6001600160a01b03841660011480159061168e575061168c858561182b565b155b156116b757604051637c84ecfb60e01b81526001600160a01b03851660048201526024016105d7565b825f036116f0576040517ff725081700000000000000000000000000000000000000000000000000000000815260040160405180910390fd5b8267ffffffffffffffff811115611709576117096118bf565b604051908082528060200260200182016040528015611732578160200160208202803683370190505b506001600160a01b038086165f90815260208890526040812054929450911691505b6001600160a01b0382161580159061177657506001600160a01b038216600114155b801561178157508381105b156117da578183828151811061179957611799611ea6565b6001600160a01b039283166020918202929092018101919091529281165f9081529287905260409092205490911690806117d28161227b565b915050611754565b6001600160a01b0382166001148015906117f357505f81115b1561181f5782611804600183612293565b8151811061181457611814611ea6565b602002602001015191505b80835250935093915050565b5f60016001600160a01b0383161480159061185e57506001600160a01b038281165f908152602085905260409020541615155b9392505050565b81835281816020850137505f828201602090810191909152601f909101601f19169091010190565b6001600160a01b0385168152836020820152606060408201525f6118b5606083018486611865565b9695505050505050565b634e487b7160e01b5f52604160045260245ffd5b5f602082840312156118e3575f5ffd5b815167ffffffffffffffff8111156118f9575f5ffd5b8201601f81018413611909575f5ffd5b805167ffffffffffffffff811115611923576119236118bf565b604051601f8201601f19908116603f0116810167ffffffffffffffff81118282101715611952576119526118bf565b604052818152828201602001861015611969575f5ffd5b8160208401602083015e5f91810160200191909152949350505050565b5f81518084528060208401602086015e5f602082860101526020601f19601f83011685010191505092915050565b602081525f61185e6020830184611986565b6001600160a01b03811681146119da575f5ffd5b50565b80356119e8816119c6565b919050565b5f5f83601f8401126119fd575f5ffd5b50813567ffffffffffffffff811115611a14575f5ffd5b6020830191508360208260051b8501011115611a2e575f5ffd5b9250929050565b803560ff811681146119e8575f5ffd5b5f5f5f5f5f5f5f60a0888a031215611a5b575f5ffd5b8735611a66816119c6565b9650602088013567ffffffffffffffff811115611a81575f5ffd5b8801601f81018a13611a91575f5ffd5b803567ffffffffffffffff811115611aa7575f5ffd5b8a6020828401011115611ab8575f5ffd5b60209190910196509450611ace604089016119dd565b9350606088013567ffffffffffffffff811115611ae9575f5ffd5b611af58a828b016119ed565b9094509250611b08905060808901611a35565b905092959891949750929550565b5f60208284031215611b26575f5ffd5b81356001600160e01b03198116811461185e575f5ffd5b5f60408284031215611b4d575f5ffd5b50919050565b5f5f5f5f5f5f5f60a0888a031215611b69575f5ffd5b873567ffffffffffffffff811115611b7f575f5ffd5b611b8b8a828b016119ed565b909850965050602088013567ffffffffffffffff811115611baa575f5ffd5b611bb68a828b01611b3d565b9550506040880135611ace816119c6565b5f5f60408385031215611bd8575f5ffd5b8235611be3816119c6565b946020939093013593505050565b604080825283519082018190525f9060208501906060840190835b81811015611c335783516001600160a01b0316835260209384019390920191600101611c0c565b505080925050506001600160a01b03831660208301529392505050565b5f5f5f5f5f60808688031215611c64575f5ffd5b853567ffffffffffffffff811115611c7a575f5ffd5b611c8688828901611b3d565b9550506020860135611c97816119c6565b9350604086013567ffffffffffffffff811115611cb2575f5ffd5b611cbe888289016119ed565b9094509250611cd1905060608701611a35565b90509295509295909350565b6001600160f81b03198816815260e060208201525f611cff60e0830189611986565b8281036040840152611d118189611986565b606084018890526001600160a01b038716608085015260a0840186905283810360c0850152845180825260208087019350909101905f5b81811015611d66578351835260209384019390920191600101611d48565b50909b9a5050505050505050505050565b5f5f5f5f5f5f5f5f5f5f5f60e08c8e031215611d91575f5ffd5b8b3567ffffffffffffffff811115611da7575f5ffd5b611db38e828f016119ed565b909c509a505060208c013567ffffffffffffffff811115611dd2575f5ffd5b611dde8e828f016119ed565b909a5098505060408c013567ffffffffffffffff811115611dfd575f5ffd5b611e098e828f01611b3d565b97505060608c013567ffffffffffffffff811115611e25575f5ffd5b611e318e828f016119ed565b9097509550611e44905060808d016119dd565b935060a08c013567ffffffffffffffff811115611e5f575f5ffd5b611e6b8e828f016119ed565b9094509250611e7e905060c08d01611a35565b90509295989b509295989b9093969950565b5f82518060208501845e5f920191825250919050565b634e487b7160e01b5f52603260045260245ffd5b5f8235603e19833603018112611ece575f5ffd5b9190910192915050565b5f60208284031215611ee8575f5ffd5b813561185e816119c6565b5f5f8335601e19843603018112611f08575f5ffd5b83018035915067ffffffffffffffff821115611f22575f5ffd5b602001915036819003821315611a2e575f5ffd5b8183526020830192505f815f5b84811015611f74578135611f56816119c6565b6001600160a01b031686526020958601959190910190600101611f43565b5093949350505050565b6001600160a01b038816815260a060208201525f611fa060a08301888a611865565b6001600160a01b03871660408401528281036060840152611fc2818688611f36565b91505060ff8316608083015298975050505050505050565b6001600160a01b0383168152604060208201525f611ffb6040830184611986565b949350505050565b5f813561200f816119c6565b6001600160a01b03168352602082013536839003601e19018112612031575f5ffd5b820160208101903567ffffffffffffffff81111561204d575f5ffd5b80360382131561205b575f5ffd5b60406020860152612070604086018284611865565b95945050505050565b5f8383855260208501945060208460051b820101835f5b868110156120d857838303601f19018852813536879003603e190181126120b5575f5ffd5b6120c184888301612003565b6020998a0199909450929092019150600101612090565b50909695505050505050565b60a081525f6120f760a08301898b612079565b82810360208401526121098189612003565b90506001600160a01b03871660408401528281036060840152611fc2818688611f36565b60e081525f61214060e083018d8f612079565b8281036020840152612153818c8e612079565b90508281036040840152612167818b612003565b9050828103606084015261217c81898b612079565b90506001600160a01b038716608084015282810360a08401526121a0818688611f36565b91505060ff831660c08301529c9b505050505050505050505050565b60ff84168152604060208201525f612070604083018486611f36565b5f602082840312156121e8575f5ffd5b8151801515811461185e575f5ffd5b602081525f611ffb602083018486611865565b5f5f85851115612218575f5ffd5b83861115612224575f5ffd5b5050820193919092039150565b80356001600160e01b03198116906004841015612260576001600160e01b0319808560040360031b1b82161691505b5092915050565b634e487b7160e01b5f52601160045260245ffd5b5f6001820161228c5761228c612267565b5060010190565b81810381811115610cad57610cad61226756fea164736f6c634300081b000a60806040526040516103e43803806103e48339810160408190526100229161026c565b61002a61003b565b6100348282610063565b5050610351565b7f90b772c2cb8a51aa7a8a65fc23543c6d022d5b3f8e2b92eed79fba7eef8293006001815d50565b61006c826100c1565b6040516001600160a01b038316907fbc7cd75a20ee27fd9adebab32041f755214dbc6bffa90cc0225b39da2e5c2d3b905f90a28051156100b5576100b0828261013c565b505050565b6100bd6101af565b5050565b806001600160a01b03163b5f036100fb57604051634c9c8ce360e01b81526001600160a01b03821660048201526024015b60405180910390fd5b7f360894a13ba1a3210667c828492db98dca3e2076cc3735a920a3ca505d382bbc80546001600160a01b0319166001600160a01b0392909216919091179055565b60605f5f846001600160a01b031684604051610158919061033b565b5f60405180830381855af49150503d805f8114610190576040519150601f19603f3d011682016040523d82523d5f602084013e610195565b606091505b5090925090506101a68583836101d0565b95945050505050565b34156101ce5760405163b398979f60e01b815260040160405180910390fd5b565b6060826101e5576101e08261022f565b610228565b81511580156101fc57506001600160a01b0384163b155b1561022557604051639996b31560e01b81526001600160a01b03851660048201526024016100f2565b50805b9392505050565b80511561023f5780518082602001fd5b60405163d6bda27560e01b815260040160405180910390fd5b634e487b7160e01b5f52604160045260245ffd5b5f5f6040838503121561027d575f5ffd5b82516001600160a01b0381168114610293575f5ffd5b60208401519092506001600160401b038111156102ae575f5ffd5b8301601f810185136102be575f5ffd5b80516001600160401b038111156102d7576102d7610258565b604051601f8201601f19908116603f011681016001600160401b038111828210171561030557610305610258565b60405281815282820160200187101561031c575f5ffd5b8160208401602083015e5f602083830101528093505050509250929050565b5f82518060208501845e5f920191825250919050565b60878061035d5f395ff3fe6080604052600a600c565b005b60186014601a565b605d565b565b5f60587f360894a13ba1a3210667c828492db98dca3e2076cc3735a920a3ca505d382bbc5473ffffffffffffffffffffffffffffffffffffffff1690565b905090565b365f5f375f5f365f845af43d5f5f3e8080156076573d5ff35b3d5ffdfea164736f6c634300081b000aa26469706673582212201f58dbd33549eff5b305c59cc48f1f426db7c0568238ca3858482859808ba23864736f6c634300081c0033","linkReferences":{}},"methodIdentifiers":{"NEXUS_ACCOUNT_FACTORY_BYTECODE()":"4117c951","NEXUS_BOOTSTRAP_BYTECODE()":"8202ad8f","NEXUS_BYTECODE()":"5afb8157","NEXUS_PROXY_BYTECODE()":"7179d2da","createAccount(bytes32,bytes)":"f8a59370","deployNexus(address)":"3692b75f","deployNexusAccountFactory(address,address)":"fcc359ef","deployNexusBootstrap()":"9d229603","getAddress(bytes32,bytes)":"d959fd0e","getInitData(address,bytes)":"18f1c514","init()":"e1c7392a"},"id":121}