{"abi":[{"type":"function","name":"DECIMALS_MATCHER","inputs":[],"outputs":[{"name":"","type":"string","internalType":"string"}],"stateMutability":"view"},{"type":"function","name":"ETH_ADDR_MATCHER","inputs":[],"outputs":[{"name":"","type":"string","internalType":"string"}],"stateMutability":"view"},{"type":"function","name":"INT_MATCHER","inputs":[],"outputs":[{"name":"","type":"string","internalType":"string"}],"stateMutability":"view"},{"type":"function","name":"STRING_MATCHER","inputs":[],"outputs":[{"name":"","type":"string","internalType":"string"}],"stateMutability":"view"},{"type":"function","name":"UINT_MATCHER","inputs":[],"outputs":[{"name":"","type":"string","internalType":"string"}],"stateMutability":"view"},{"type":"function","name":"bytesToHexString","inputs":[{"name":"data","type":"bytes","internalType":"bytes"}],"outputs":[{"name":"","type":"string","internalType":"string"}],"stateMutability":"pure"},{"type":"function","name":"computeExpectedCommand","inputs":[{"name":"commandParams","type":"bytes[]","internalType":"bytes[]"},{"name":"template","type":"string[]","internalType":"string[]"},{"name":"stringCase","type":"uint256","internalType":"uint256"}],"outputs":[{"name":"expectedCommand","type":"string","internalType":"string"}],"stateMutability":"pure"},{"type":"error","name":"StringsInsufficientHexLength","inputs":[{"name":"value","type":"uint256","internalType":"uint256"},{"name":"length","type":"uint256","internalType":"uint256"}]}],"bytecode":{"object":"0x6112c4610034600b8282823980515f1a607314602857634e487b7160e01b5f525f60045260245ffd5b305f52607381538281f3fe7300000000000000000000000000000000000000003014608060405260043610610084575f3560e01c80634e5cb584116100635780634e5cb584146100fd5780637d520c2214610124578063e53028c014610137578063fae5ce331461015c575f5ffd5b8062cbd18a1461008857806343b08005146100c65780634d69ffee146100ea575b5f5ffd5b6100b0604051806040016040528060098152602001687b657468416464727d60b81b81525081565b6040516100bd9190610dfa565b60405180910390f35b6100b0604051806040016040528060058152602001647b696e747d60d81b81525081565b6100b06100f8366004610fb3565b610185565b6100b0604051806040016040528060088152602001677b737472696e677d60c01b81525081565b6100b0610132366004611098565b610554565b6100b0604051806040016040528060068152602001657b75696e747d60d01b81525081565b6100b06040518060400160405280600a8152602001697b646563696d616c737d60b01b81525081565b60605f8181805b86518160ff16101561054957600191506101e2878260ff16815181106101b4576101b46110ca565b6020026020010151604051806040016040528060088152602001677b737472696e677d60c01b8152506106c6565b15610221575f888560ff16815181106101fd576101fd6110ca565b602002602001015180602001905181019061021891906110de565b93506104d39050565b610265878260ff1681518110610239576102396110ca565b6020026020010151604051806040016040528060068152602001657b75696e747d60d01b8152506106c6565b156102ae575f888560ff1681518110610280576102806110ca565b602002602001015180602001905181019061029b9190611153565b90506102a6816106ee565b9350506104d3565b6102f1878260ff16815181106102c6576102c66110ca565b6020026020010151604051806040016040528060058152602001647b696e747d60d81b8152506106c6565b15610332575f888560ff168151811061030c5761030c6110ca565b60200260200101518060200190518101906103279190611153565b90506102a68161077e565b61037a878260ff168151811061034a5761034a6110ca565b60200260200101516040518060400160405280600a8152602001697b646563696d616c737d60b01b8152506106c6565b15610427575f888560ff1681518110610395576103956110ca565b60200260200101518060200190518101906103b09190611153565b604051636f186a7960e01b81526004810182905290915073__$b958e84c583dfa7d5447cd5333f5db1188$__90636f186a79906024015f60405180830381865af4158015610400573d5f5f3e3d5ffd5b505050506040513d5f823e601f3d908101601f191682016040526102a691908101906110de565b61046e878260ff168151811061043f5761043f6110ca565b6020026020010151604051806040016040528060098152602001687b657468416464727d60b81b8152506106c6565b156104b0575f888560ff1681518110610489576104896110ca565b60200260200101518060200190518101906104a4919061116a565b90506102a681886107ee565b5f9150868160ff16815181106104c8576104c86110ca565b602002602001015192505b60ff8116156104ff57846040516020016104ed91906111ae565b60405160208183030381529060405294505b84836040516020016105129291906111ca565b604051602081830303815290604052945081156105375783610533816111f2565b9450505b80610541816111f2565b91505061018c565b505050509392505050565b60408051808201909152601081526f181899199a1a9b1b9c1cb0b131b232b360811b60208201528151606091905f9061058e906002611210565b67ffffffffffffffff8111156105a6576105a6610e2f565b6040519080825280601f01601f1916602001820160405280156105d0576020820181803683370190505b5090505f5b84518110156106be575f8582815181106105f1576105f16110ca565b0160200151845160f882901c9250859160fc1c908110610613576106136110ca565b01602001516001600160f81b0319168361062e846002611210565b8151811061063e5761063e6110ca565b60200101906001600160f81b03191690815f1a9053508381600f1681518110610669576106696110ca565b01602001516001600160f81b03191683610684846002611210565b61068f906001611227565b8151811061069f5761069f6110ca565b60200101906001600160f81b03191690815f1a905350506001016105d5565b509392505050565b5f815183511480156106e5575081805190602001208380519060200120145b90505b92915050565b60605f6106fa83610873565b60010190505f8167ffffffffffffffff81111561071957610719610e2f565b6040519080825280601f01601f191660200182016040528015610743576020820181803683370190505b5090508181016020015b5f19016f181899199a1a9b1b9c1cb0b131b232b360811b600a86061a8153600a850494508461074d57509392505050565b60605f821261079b5760405180602001604052805f8152506107b6565b604051806040016040528060018152602001602d60f81b8152505b6107c760ff84901d808501186106ee565b6040516020016107d89291906111ca565b6040516020818303038152906040529050919050565b6060815f03610807576108008361094a565b90506106e8565b816001036108185761080083610b9e565b816002036108315761080061082c84610b9e565b610bb4565b60405162461bcd60e51b8152602060048201526012602482015271696e76616c696420737472696e674361736560701b60448201526064015b60405180910390fd5b5f8072184f03e93ff9f4daa797ed6e38ed64bf6a1f0160401b83106108b15772184f03e93ff9f4daa797ed6e38ed64bf6a1f0160401b830492506040015b6d04ee2d6d415b85acef810000000083106108dd576d04ee2d6d415b85acef8100000000830492506020015b662386f26fc1000083106108fb57662386f26fc10000830492506010015b6305f5e1008310610913576305f5e100830492506008015b612710831061092757612710830492506004015b60648310610939576064830492506002015b600a83106106e85760010192915050565b60605f61095683610b9e565b604080516028808252606082019092529192505f919060208201818036833701905050905060025b602a8160ff1610156109eb57828160ff168151811061099f5761099f6110ca565b01602001516001600160f81b031916826109ba60028461123a565b60ff16815181106109cd576109cd6110ca565b60200101906001600160f81b03191690815f1a90535060010161097e565b505f816040516020016109fe9190611253565b60408051808303601f190181528282528051602090910120602a8084526060840190925292505f9190602082018180368337019050509050600360fc1b815f81518110610a4d57610a4d6110ca565b60200101906001600160f81b03191690815f1a905350600f60fb1b81600181518110610a7b57610a7b6110ca565b60200101906001600160f81b03191690815f1a90535060609190911c906001600160a01b03861660295b60018160ff161115610b9257600f80851690831660088210610b1d576f181899199a1a9b1b9c1ca0a121a222a360811b8160ff1660108110610ae957610ae96110ca565b1a60f81b858460ff1681518110610b0257610b026110ca565b60200101906001600160f81b03191690815f1a905350610b75565b6f181899199a1a9b1b9c1cb0b131b232b360811b8160ff1660108110610b4557610b456110ca565b1a60f81b858460ff1681518110610b5e57610b5e6110ca565b60200101906001600160f81b03191690815f1a9053505b5050600493841c939190911c90610b8b8161125e565b9050610aa5565b50909695505050505050565b60606106e86001600160a01b0383166014610c80565b6060815f5b8151811015610c7957606160f81b828281518110610bd957610bd96110ca565b01602001516001600160f81b03191610801590610c1a5750606660f81b828281518110610c0857610c086110ca565b01602001516001600160f81b03191611155b15610c71576020828281518110610c3357610c336110ca565b0160200151610c45919060f81c61123a565b60f81b828281518110610c5a57610c5a6110ca565b60200101906001600160f81b03191690815f1a9053505b600101610bb9565b5092915050565b6060825f610c8f846002611210565b610c9a906002611227565b67ffffffffffffffff811115610cb257610cb2610e2f565b6040519080825280601f01601f191660200182016040528015610cdc576020820181803683370190505b509050600360fc1b815f81518110610cf657610cf66110ca565b60200101906001600160f81b03191690815f1a905350600f60fb1b81600181518110610d2457610d246110ca565b60200101906001600160f81b03191690815f1a9053505f610d46856002611210565b610d51906001611227565b90505b6001811115610dc8576f181899199a1a9b1b9c1cb0b131b232b360811b83600f1660108110610d8557610d856110ca565b1a60f81b828281518110610d9b57610d9b6110ca565b60200101906001600160f81b03191690815f1a90535060049290921c91610dc181611279565b9050610d54565b508115610df25760405163e22e27eb60e01b8152600481018690526024810185905260440161086a565b949350505050565b602081525f82518060208401528060208501604085015e5f604082850101526040601f19601f83011684010191505092915050565b634e487b7160e01b5f52604160045260245ffd5b604051601f8201601f1916810167ffffffffffffffff81118282101715610e6c57610e6c610e2f565b604052919050565b5f67ffffffffffffffff821115610e8d57610e8d610e2f565b5060051b60200190565b5f67ffffffffffffffff821115610eb057610eb0610e2f565b50601f01601f191660200190565b5f610ed0610ecb84610e97565b610e43565b9050828152838383011115610ee3575f5ffd5b828260208301375f602084830101529392505050565b5f82601f830112610f08575f5ffd5b6106e583833560208501610ebe565b5f82601f830112610f26575f5ffd5b8135610f34610ecb82610e74565b8082825260208201915060208360051b860101925085831115610f55575f5ffd5b602085015b83811015610fa957803567ffffffffffffffff811115610f78575f5ffd5b8601603f81018813610f88575f5ffd5b610f9a88602083013560408401610ebe565b84525060209283019201610f5a565b5095945050505050565b5f5f5f60608486031215610fc5575f5ffd5b833567ffffffffffffffff811115610fdb575f5ffd5b8401601f81018613610feb575f5ffd5b8035610ff9610ecb82610e74565b8082825260208201915060208360051b85010192508883111561101a575f5ffd5b602084015b8381101561105b57803567ffffffffffffffff81111561103d575f5ffd5b61104c8b602083890101610ef9565b8452506020928301920161101f565b509550505050602084013567ffffffffffffffff81111561107a575f5ffd5b61108686828701610f17565b93969395505050506040919091013590565b5f602082840312156110a8575f5ffd5b813567ffffffffffffffff8111156110be575f5ffd5b610df284828501610ef9565b634e487b7160e01b5f52603260045260245ffd5b5f602082840312156110ee575f5ffd5b815167ffffffffffffffff811115611104575f5ffd5b8201601f81018413611114575f5ffd5b8051611122610ecb82610e97565b818152856020838501011115611136575f5ffd5b8160208401602083015e5f91810160200191909152949350505050565b5f60208284031215611163575f5ffd5b5051919050565b5f6020828403121561117a575f5ffd5b81516001600160a01b0381168114611190575f5ffd5b9392505050565b5f81518060208401855e5f93019283525090919050565b5f6111b98284611197565b600160fd1b81526001019392505050565b5f610df26111d88386611197565b84611197565b634e487b7160e01b5f52601160045260245ffd5b5f60ff821660ff8103611207576112076111de565b60010192915050565b80820281158282048414176106e8576106e86111de565b808201808211156106e8576106e86111de565b60ff82811682821603908111156106e8576106e86111de565b5f6106e58284611197565b5f60ff821680611270576112706111de565b5f190192915050565b5f81611287576112876111de565b505f19019056fea264697066735822122079169283fac7861e2ca5c132911c53e17734c392c82852a7a232d939a238270f64736f6c634300081c0033","linkReferences":{"node_modules/@zk-email/ether-email-auth-contracts/src/libraries/DecimalUtils.sol":{"DecimalUtils":[{"start":1021,"length":20}]}}},"methodIdentifiers":{"DECIMALS_MATCHER()":"fae5ce33","ETH_ADDR_MATCHER()":"00cbd18a","INT_MATCHER()":"43b08005","STRING_MATCHER()":"4e5cb584","UINT_MATCHER()":"e53028c0","bytesToHexString(bytes)":"7d520c22","computeExpectedCommand(bytes[],string[],uint256)":"4d69ffee"},"id":224}