{"abi":[{"type":"constructor","inputs":[{"name":"_implementations","type":"tuple","internalType":"struct OPContractsManagerStandardValidator.Implementations","components":[{"name":"l1ERC721BridgeImpl","type":"address","internalType":"address"},{"name":"optimismPortalImpl","type":"address","internalType":"address"},{"name":"optimismPortalInteropImpl","type":"address","internalType":"address"},{"name":"ethLockboxImpl","type":"address","internalType":"address"},{"name":"systemConfigImpl","type":"address","internalType":"address"},{"name":"optimismMintableERC20FactoryImpl","type":"address","internalType":"address"},{"name":"l1CrossDomainMessengerImpl","type":"address","internalType":"address"},{"name":"l1StandardBridgeImpl","type":"address","internalType":"address"},{"name":"disputeGameFactoryImpl","type":"address","internalType":"address"},{"name":"anchorStateRegistryImpl","type":"address","internalType":"address"},{"name":"delayedWETHImpl","type":"address","internalType":"address"},{"name":"mipsImpl","type":"address","internalType":"address"},{"name":"faultDisputeGameImpl","type":"address","internalType":"address"},{"name":"permissionedDisputeGameImpl","type":"address","internalType":"address"}]},{"name":"_superchainConfig","type":"address","internalType":"contract ISuperchainConfig"},{"name":"_l1PAOMultisig","type":"address","internalType":"address"},{"name":"_challenger","type":"address","internalType":"address"},{"name":"_withdrawalDelaySeconds","type":"uint256","internalType":"uint256"},{"name":"_devFeatureBitmap","type":"bytes32","internalType":"bytes32"}],"stateMutability":"nonpayable"},{"type":"function","name":"anchorStateRegistryImpl","inputs":[],"outputs":[{"name":"","type":"address","internalType":"address"}],"stateMutability":"view"},{"type":"function","name":"challenger","inputs":[],"outputs":[{"name":"","type":"address","internalType":"address"}],"stateMutability":"view"},{"type":"function","name":"delayedWETHImpl","inputs":[],"outputs":[{"name":"","type":"address","internalType":"address"}],"stateMutability":"view"},{"type":"function","name":"devFeatureBitmap","inputs":[],"outputs":[{"name":"","type":"bytes32","internalType":"bytes32"}],"stateMutability":"view"},{"type":"function","name":"disputeGameFactoryImpl","inputs":[],"outputs":[{"name":"","type":"address","internalType":"address"}],"stateMutability":"view"},{"type":"function","name":"ethLockboxImpl","inputs":[],"outputs":[{"name":"","type":"address","internalType":"address"}],"stateMutability":"view"},{"type":"function","name":"faultDisputeGameImpl","inputs":[],"outputs":[{"name":"","type":"address","internalType":"address"}],"stateMutability":"view"},{"type":"function","name":"l1CrossDomainMessengerImpl","inputs":[],"outputs":[{"name":"","type":"address","internalType":"address"}],"stateMutability":"view"},{"type":"function","name":"l1ERC721BridgeImpl","inputs":[],"outputs":[{"name":"","type":"address","internalType":"address"}],"stateMutability":"view"},{"type":"function","name":"l1PAOMultisig","inputs":[],"outputs":[{"name":"","type":"address","internalType":"address"}],"stateMutability":"view"},{"type":"function","name":"l1StandardBridgeImpl","inputs":[],"outputs":[{"name":"","type":"address","internalType":"address"}],"stateMutability":"view"},{"type":"function","name":"mipsImpl","inputs":[],"outputs":[{"name":"","type":"address","internalType":"address"}],"stateMutability":"view"},{"type":"function","name":"optimismMintableERC20FactoryImpl","inputs":[],"outputs":[{"name":"","type":"address","internalType":"address"}],"stateMutability":"view"},{"type":"function","name":"optimismPortalImpl","inputs":[],"outputs":[{"name":"","type":"address","internalType":"address"}],"stateMutability":"view"},{"type":"function","name":"optimismPortalInteropImpl","inputs":[],"outputs":[{"name":"","type":"address","internalType":"address"}],"stateMutability":"view"},{"type":"function","name":"permissionedDisputeGameImpl","inputs":[],"outputs":[{"name":"","type":"address","internalType":"address"}],"stateMutability":"view"},{"type":"function","name":"preimageOracleVersion","inputs":[],"outputs":[{"name":"","type":"string","internalType":"string"}],"stateMutability":"pure"},{"type":"function","name":"superchainConfig","inputs":[],"outputs":[{"name":"","type":"address","internalType":"contract ISuperchainConfig"}],"stateMutability":"view"},{"type":"function","name":"systemConfigImpl","inputs":[],"outputs":[{"name":"","type":"address","internalType":"address"}],"stateMutability":"view"},{"type":"function","name":"validate","inputs":[{"name":"_input","type":"tuple","internalType":"struct OPContractsManagerStandardValidator.ValidationInput","components":[{"name":"sysCfg","type":"address","internalType":"contract ISystemConfig"},{"name":"absolutePrestate","type":"bytes32","internalType":"bytes32"},{"name":"l2ChainID","type":"uint256","internalType":"uint256"},{"name":"proposer","type":"address","internalType":"address"}]},{"name":"_allowFailure","type":"bool","internalType":"bool"}],"outputs":[{"name":"","type":"string","internalType":"string"}],"stateMutability":"view"},{"type":"function","name":"validate","inputs":[{"name":"_input","type":"tuple","internalType":"struct OPContractsManagerStandardValidator.ValidationInputDev","components":[{"name":"sysCfg","type":"address","internalType":"contract ISystemConfig"},{"name":"cannonPrestate","type":"bytes32","internalType":"bytes32"},{"name":"cannonKonaPrestate","type":"bytes32","internalType":"bytes32"},{"name":"l2ChainID","type":"uint256","internalType":"uint256"},{"name":"proposer","type":"address","internalType":"address"}]},{"name":"_allowFailure","type":"bool","internalType":"bool"}],"outputs":[{"name":"","type":"string","internalType":"string"}],"stateMutability":"view"},{"type":"function","name":"validateWithOverrides","inputs":[{"name":"_input","type":"tuple","internalType":"struct OPContractsManagerStandardValidator.ValidationInput","components":[{"name":"sysCfg","type":"address","internalType":"contract ISystemConfig"},{"name":"absolutePrestate","type":"bytes32","internalType":"bytes32"},{"name":"l2ChainID","type":"uint256","internalType":"uint256"},{"name":"proposer","type":"address","internalType":"address"}]},{"name":"_allowFailure","type":"bool","internalType":"bool"},{"name":"_overrides","type":"tuple","internalType":"struct OPContractsManagerStandardValidator.ValidationOverrides","components":[{"name":"l1PAOMultisig","type":"address","internalType":"address"},{"name":"challenger","type":"address","internalType":"address"}]}],"outputs":[{"name":"","type":"string","internalType":"string"}],"stateMutability":"view"},{"type":"function","name":"validateWithOverrides","inputs":[{"name":"_input","type":"tuple","internalType":"struct OPContractsManagerStandardValidator.ValidationInputDev","components":[{"name":"sysCfg","type":"address","internalType":"contract ISystemConfig"},{"name":"cannonPrestate","type":"bytes32","internalType":"bytes32"},{"name":"cannonKonaPrestate","type":"bytes32","internalType":"bytes32"},{"name":"l2ChainID","type":"uint256","internalType":"uint256"},{"name":"proposer","type":"address","internalType":"address"}]},{"name":"_allowFailure","type":"bool","internalType":"bool"},{"name":"_overrides","type":"tuple","internalType":"struct OPContractsManagerStandardValidator.ValidationOverrides","components":[{"name":"l1PAOMultisig","type":"address","internalType":"address"},{"name":"challenger","type":"address","internalType":"address"}]}],"outputs":[{"name":"","type":"string","internalType":"string"}],"stateMutability":"view"},{"type":"function","name":"version","inputs":[],"outputs":[{"name":"","type":"string","internalType":"string"}],"stateMutability":"view"},{"type":"function","name":"withdrawalDelaySeconds","inputs":[],"outputs":[{"name":"","type":"uint256","internalType":"uint256"}],"stateMutability":"view"},{"type":"error","name":"InvalidGameArgsLength","inputs":[]}],"bytecode":{"object":"0x60806040523480156200001157600080fd5b506040516200564c3803806200564c8339810160408190526200003491620001ed565b600080546001600160a01b03199081166001600160a01b039788161790915560018054821695871695909517909455600280548516938616939093179092556003556012558251600480548316918416919091179055602083015160058054831691841691909117905560408301516006805483169184169190911790556060830151600780548316918416919091179055608083015160088054831691841691909117905560a083015160098054831691841691909117905560c0830151600a8054831691841691909117905560e0830151600b80548316918416919091179055610100830151600c80548316918416919091179055610120830151600d80548316918416919091179055610140830151600e80548316918416919091179055610160830151600f805483169184169190911790556101808301516010805483169184169190911790556101a09092015160118054909316911617905562000381565b6040516101c081016001600160401b0381118282101715620001ca57634e487b7160e01b600052604160045260246000fd5b60405290565b80516001600160a01b0381168114620001e857600080fd5b919050565b6000806000806000808688036102608112156200020957600080fd5b6101c0808212156200021a57600080fd5b6200022462000198565b91506200023189620001d0565b82526200024160208a01620001d0565b60208301526200025460408a01620001d0565b60408301526200026760608a01620001d0565b60608301526200027a60808a01620001d0565b60808301526200028d60a08a01620001d0565b60a0830152620002a060c08a01620001d0565b60c0830152620002b360e08a01620001d0565b60e0830152610100620002c8818b01620001d0565b90830152610120620002dc8a8201620001d0565b90830152610140620002f08a8201620001d0565b90830152610160620003048a8201620001d0565b90830152610180620003188a8201620001d0565b908301526101a06200032c8a8201620001d0565b818401525081975062000341818a01620001d0565b96505050620003546101e08801620001d0565b9350620003656102008801620001d0565b9250610220870151915061024087015190509295509295509295565b6152bb80620003916000396000f3fe608060405234801561001057600080fd5b50600436106101a35760003560e01c80637d8bd0d8116100ee578063bb98b3f411610097578063dea2198411610071578063dea21984146103ae578063e303272c146103c1578063e3fef4a8146103d4578063f3edcbe1146103e757600080fd5b8063bb98b3f414610375578063bc3f6fd414610388578063c34e047a1461039b57600080fd5b8063a38d5595116100c8578063a38d559514610316578063a4dec37a14610329578063ad7e7e401461033c57600080fd5b80637d8bd0d8146102dd5780638970ac44146102f057806398ccec3e1461030357600080fd5b806354fd4d5011610150578063718394181161012a57806371839418146102ae57806374459cf3146102b75780637b491a98146102ca57600080fd5b806354fd4d501461024c57806358256afb146102885780636c0e21701461029b57600080fd5b806335e80ab31161018157806335e80ab31461021357806341fe538514610226578063534db0e21461023957600080fd5b80630e9d5cb9146101a85780631d8a4e92146101d15780632aecd35c146101e8575b600080fd5b6101bb6101b6366004614888565b6103fa565b6040516101c891906148ff565b60405180910390f35b6101da60125481565b6040519081526020016101c8565b600d546101fb906001600160a01b031681565b6040516001600160a01b0390911681526020016101c8565b6000546101fb906001600160a01b031681565b6101bb610234366004614932565b61047b565b6002546101fb906001600160a01b031681565b6101bb6040518060400160405280600581526020017f322e332e3000000000000000000000000000000000000000000000000000000081525081565b600a546101fb906001600160a01b031681565b6006546101fb906001600160a01b031681565b6101da60035481565b600e546101fb906001600160a01b031681565b6007546101fb906001600160a01b031681565b6004546101fb906001600160a01b031681565b6101bb6102fe3660046149ed565b6104f8565b6011546101fb906001600160a01b031681565b6005546101fb906001600160a01b031681565b6001546101fb906001600160a01b031681565b60408051808201909152600581527f312e312e3400000000000000000000000000000000000000000000000000000060208201526101bb565b600c546101fb906001600160a01b031681565b6008546101fb906001600160a01b031681565b600b546101fb906001600160a01b031681565b6010546101fb906001600160a01b031681565b600f546101fb906001600160a01b031681565b6009546101fb906001600160a01b031681565b6101bb6103f5366004614a2c565b6107a5565b6040805160a0808201835260008083526020808401829052838501829052606084810183905260809485018390528551938401865288516001600160a01b039081168552828a015192850192909252838601839052948801518386015287850151169282019290925290506104708185856104f8565b9150505b9392505050565b6040805160a0808201835260008083526020808401829052838501829052606084810183905260809485018390528551938401865287516001600160a01b0390811685528289015192850192909252838601839052948701518386015286850151169282019290925290506104f081846107a5565b949350505050565b60606000604051806020016040528060008152509050600085600001516001600160a01b0316633e47158c6040518163ffffffff1660e01b8152600401602060405180830381865afa158015610552573d6000803e3d6000fd5b505050506040513d601f19601f820116820180604052508101906105769190614a59565b9050610581826107da565b915061058e8282866108aa565b915061059f82876000015183610977565b91506105b08287600001518361103c565b91506105c1828760000151836115f0565b91506105d282876000015183611b9a565b91506105e382876000015183611e99565b91506105f482876000015183612443565b915061060682876000015183876128ec565b915061062782876000015188602001518960600151858b608001518a612b39565b915061067b828760000151600089602001518a60600151868a6040518060400160405280600481526020017f504c444700000000000000000000000000000000000000000000000000000000815250612d3d565b91506106cf828760000151600889604001518a60600151868a6040518060400160405280600481526020017f434b444700000000000000000000000000000000000000000000000000000000815250612d3d565b91506106e082876000015183612e47565b915060006106ed85613263565b805190915083901561072c57835115610729578184604051602001610713929190614a76565b604051602081830303815290604052905061072c565b50805b6000845111801561073b575086155b1561079a57806040516020016107519190614ace565b60408051601f19818403018152908290527f08c379a0000000000000000000000000000000000000000000000000000000008252610791916004016148ff565b60405180910390fd5b979650505050505050565b60606104748383604051806040016040528060006001600160a01b0316815260200160006001600160a01b03168152506104f8565b600080546040517f2e48152c00000000000000000000000000000000000000000000000000000000815260048101929092526060916108a4916001600160a01b031690632e48152c90602401602060405180830381865afa158015610843573d6000803e3d6000fd5b505050506040513d601f19601f820116820180604052508101906108679190614b39565b156040518060400160405280600981526020017f5350524346472d3130000000000000000000000000000000000000000000000081525084613300565b92915050565b606060006108b78361334c565b905061096e816001600160a01b0316856001600160a01b0316638da5cb5b6040518163ffffffff1660e01b8152600401602060405180830381865afa158015610904573d6000803e3d6000fd5b505050506040513d601f19601f820116820180604052508101906109289190614a59565b6001600160a01b0316146040518060400160405280600981526020017f50524f5859412d3130000000000000000000000000000000000000000000000081525087613300565b95945050505050565b60606109ef6109b361098885613375565b60085461099d906001600160a01b0316613375565b8051602091820120825192909101919091201490565b6040518060400160405280600981526020017f535953434f4e2d3130000000000000000000000000000000000000000000000081525086613300565b9350610aad631dcd650067ffffffffffffffff16846001600160a01b031663f68016b76040518163ffffffff1660e01b8152600401602060405180830381865afa158015610a41573d6000803e3d6000fd5b505050506040513d601f19601f82011682018060405250810190610a659190614b6c565b67ffffffffffffffff1611156040518060400160405280600981526020017f535953434f4e2d3230000000000000000000000000000000000000000000000081525086613300565b9350610b54836001600160a01b031663f45e65d86040518163ffffffff1660e01b8152600401602060405180830381865afa158015610af0573d6000803e3d6000fd5b505050506040513d601f19601f82011682018060405250810190610b149190614b89565b600014156040518060400160405280600981526020017f535953434f4e2d3330000000000000000000000000000000000000000000000081525086613300565b600854909450610bb7906001600160a01b0316610b7184866133dd565b6001600160a01b0316146040518060400160405280600981526020017f535953434f4e2d3430000000000000000000000000000000000000000000000081525086613300565b93506000836001600160a01b031663cc731b026040518163ffffffff1660e01b815260040160c060405180830381865afa158015610bf9573d6000803e3d6000fd5b505050506040513d601f19601f82011682018060405250810190610c1d9190614bcc565b9050610c6f816000015163ffffffff166301312d00146040518060400160405280600981526020017f535953434f4e2d3530000000000000000000000000000000000000000000000081525087613300565b9450610cbb816020015160ff16600a146040518060400160405280600981526020017f535953434f4e2d3630000000000000000000000000000000000000000000000081525087613300565b9450610d07816040015160ff166008146040518060400160405280600981526020017f535953434f4e2d3730000000000000000000000000000000000000000000000081525087613300565b9450610d58816080015163ffffffff16620f4240146040518060400160405280600981526020017f535953434f4e2d3830000000000000000000000000000000000000000000000081525087613300565b9450610daa816060015163ffffffff16633b9aca00146040518060400160405280600981526020017f535953434f4e2d3930000000000000000000000000000000000000000000000081525087613300565b9450610e166fffffffffffffffffffffffffffffffff80168260a001516fffffffffffffffffffffffffffffffff16146040518060400160405280600a81526020017f535953434f4e2d3130300000000000000000000000000000000000000000000081525087613300565b9450610ec2846001600160a01b0316634d5d9a2a6040518163ffffffff1660e01b8152600401602060405180830381865afa158015610e59573d6000803e3d6000fd5b505050506040513d601f19601f82011682018060405250810190610e7d9190614c82565b63ffffffff166000146040518060400160405280600a81526020017f535953434f4e2d3131300000000000000000000000000000000000000000000081525087613300565b9450610f72846001600160a01b03166316d3bc7f6040518163ffffffff1660e01b8152600401602060405180830381865afa158015610f05573d6000803e3d6000fd5b505050506040513d601f19601f82011682018060405250810190610f299190614b6c565b67ffffffffffffffff166000146040518060400160405280600a81526020017f535953434f4e2d3132300000000000000000000000000000000000000000000081525087613300565b945061096e60008054906101000a90046001600160a01b03166001600160a01b0316856001600160a01b03166335e80ab36040518163ffffffff1660e01b8152600401602060405180830381865afa158015610fd2573d6000803e3d6000fd5b505050506040513d601f19601f82011682018060405250810190610ff69190614a59565b6001600160a01b0316146040518060400160405280600a81526020017f535953434f4e2d3133300000000000000000000000000000000000000000000081525087613300565b60606000836001600160a01b031663a71198696040518163ffffffff1660e01b8152600401602060405180830381865afa15801561107e573d6000803e3d6000fd5b505050506040513d601f19601f820116820180604052508101906110a29190614a59565b90506111046110c86110b383613375565b600a5461099d906001600160a01b0316613375565b6040518060400160405280600881526020017f4c3178444d2d313000000000000000000000000000000000000000000000000081525087613300565b600a54909550611167906001600160a01b031661112185846133dd565b6001600160a01b0316146040518060400160405280600881526020017f4c3178444d2d323000000000000000000000000000000000000000000000000081525087613300565b94506000846001600160a01b0316630a49cb036040518163ffffffff1660e01b8152600401602060405180830381865afa1580156111a9573d6000803e3d6000fd5b505050506040513d601f19601f820116820180604052508101906111cd9190614a59565b90506112987342000000000000000000000000000000000000076001600160a01b0316836001600160a01b0316639fce812c6040518163ffffffff1660e01b8152600401602060405180830381865afa15801561122e573d6000803e3d6000fd5b505050506040513d601f19601f820116820180604052508101906112529190614a59565b6001600160a01b0316146040518060400160405280600881526020017f4c3178444d2d333000000000000000000000000000000000000000000000000081525088613300565b95506113637342000000000000000000000000000000000000076001600160a01b0316836001600160a01b031663db505d806040518163ffffffff1660e01b8152600401602060405180830381865afa1580156112f9573d6000803e3d6000fd5b505050506040513d601f19601f8201168201806040525081019061131d9190614a59565b6001600160a01b0316146040518060400160405280600881526020017f4c3178444d2d343000000000000000000000000000000000000000000000000081525088613300565b955061141a816001600160a01b0316836001600160a01b0316630ff754ea6040518163ffffffff1660e01b8152600401602060405180830381865afa1580156113b0573d6000803e3d6000fd5b505050506040513d601f19601f820116820180604052508101906113d49190614a59565b6001600160a01b0316146040518060400160405280600881526020017f4c3178444d2d353000000000000000000000000000000000000000000000000081525088613300565b95506114d1816001600160a01b0316836001600160a01b0316636425666b6040518163ffffffff1660e01b8152600401602060405180830381865afa158015611467573d6000803e3d6000fd5b505050506040513d601f19601f8201168201806040525081019061148b9190614a59565b6001600160a01b0316146040518060400160405280600881526020017f4c3178444d2d363000000000000000000000000000000000000000000000000081525088613300565b9550611588856001600160a01b0316836001600160a01b03166333d7e2bd6040518163ffffffff1660e01b8152600401602060405180830381865afa15801561151e573d6000803e3d6000fd5b505050506040513d601f19601f820116820180604052508101906115429190614a59565b6001600160a01b0316146040518060400160405280600881526020017f4c3178444d2d373000000000000000000000000000000000000000000000000081525088613300565b95506115e6846001600160a01b03166115a084613464565b6001600160a01b0316146040518060400160405280600881526020017f4c3178444d2d383000000000000000000000000000000000000000000000000081525088613300565b9695505050505050565b60606000836001600160a01b031663078f29cf6040518163ffffffff1660e01b8152600401602060405180830381865afa158015611632573d6000803e3d6000fd5b505050506040513d601f19601f820116820180604052508101906116569190614a59565b90506116b861167c61166783613375565b600b5461099d906001600160a01b0316613375565b6040518060400160405280600781526020017f4c3153422d31300000000000000000000000000000000000000000000000000081525087613300565b600b5490955061171b906001600160a01b03166116d585846133dd565b6001600160a01b0316146040518060400160405280600781526020017f4c3153422d32300000000000000000000000000000000000000000000000000081525087613300565b94506000846001600160a01b031663a71198696040518163ffffffff1660e01b8152600401602060405180830381865afa15801561175d573d6000803e3d6000fd5b505050506040513d601f19601f820116820180604052508101906117819190614a59565b9050611838816001600160a01b0316836001600160a01b031663927ede2d6040518163ffffffff1660e01b8152600401602060405180830381865afa1580156117ce573d6000803e3d6000fd5b505050506040513d601f19601f820116820180604052508101906117f29190614a59565b6001600160a01b0316146040518060400160405280600781526020017f4c3153422d33300000000000000000000000000000000000000000000000000081525088613300565b95506118ef816001600160a01b0316836001600160a01b0316633cb747bf6040518163ffffffff1660e01b8152600401602060405180830381865afa158015611885573d6000803e3d6000fd5b505050506040513d601f19601f820116820180604052508101906118a99190614a59565b6001600160a01b0316146040518060400160405280600781526020017f4c3153422d34300000000000000000000000000000000000000000000000000081525088613300565b95506119ba7342000000000000000000000000000000000000106001600160a01b0316836001600160a01b0316637f46ddb26040518163ffffffff1660e01b8152600401602060405180830381865afa158015611950573d6000803e3d6000fd5b505050506040513d601f19601f820116820180604052508101906119749190614a59565b6001600160a01b0316146040518060400160405280600781526020017f4c3153422d35300000000000000000000000000000000000000000000000000081525088613300565b9550611a857342000000000000000000000000000000000000106001600160a01b0316836001600160a01b031663c89701a26040518163ffffffff1660e01b8152600401602060405180830381865afa158015611a1b573d6000803e3d6000fd5b505050506040513d601f19601f82011682018060405250810190611a3f9190614a59565b6001600160a01b0316146040518060400160405280600781526020017f4c3153422d36300000000000000000000000000000000000000000000000000081525088613300565b9550611b3c856001600160a01b0316836001600160a01b03166333d7e2bd6040518163ffffffff1660e01b8152600401602060405180830381865afa158015611ad2573d6000803e3d6000fd5b505050506040513d601f19601f82011682018060405250810190611af69190614a59565b6001600160a01b0316146040518060400160405280600781526020017f4c3153422d37300000000000000000000000000000000000000000000000000081525088613300565b95506115e6846001600160a01b0316611b5484613464565b6001600160a01b0316146040518060400160405280600781526020017f4c3153422d38300000000000000000000000000000000000000000000000000081525088613300565b60606000836001600160a01b0316639b7d7f0a6040518163ffffffff1660e01b8152600401602060405180830381865afa158015611bdc573d6000803e3d6000fd5b505050506040513d601f19601f82011682018060405250810190611c009190614a59565b9050611c62611c26611c1183613375565b60095461099d906001600160a01b0316613375565b6040518060400160405280600a81526020017f4d4552433230462d31300000000000000000000000000000000000000000000081525087613300565b600954909550611cc5906001600160a01b0316611c7f85846133dd565b6001600160a01b0316146040518060400160405280600a81526020017f4d4552433230462d32300000000000000000000000000000000000000000000081525087613300565b94506000846001600160a01b031663078f29cf6040518163ffffffff1660e01b8152600401602060405180830381865afa158015611d07573d6000803e3d6000fd5b505050506040513d601f19601f82011682018060405250810190611d2b9190614a59565b9050611de2816001600160a01b0316836001600160a01b031663ee9a31a26040518163ffffffff1660e01b8152600401602060405180830381865afa158015611d78573d6000803e3d6000fd5b505050506040513d601f19601f82011682018060405250810190611d9c9190614a59565b6001600160a01b0316146040518060400160405280600a81526020017f4d4552433230462d33300000000000000000000000000000000000000000000081525088613300565b95506115e6816001600160a01b0316836001600160a01b031663e78cea926040518163ffffffff1660e01b8152600401602060405180830381865afa158015611e2f573d6000803e3d6000fd5b505050506040513d601f19601f82011682018060405250810190611e539190614a59565b6001600160a01b0316146040518060400160405280600a81526020017f4d4552433230462d34300000000000000000000000000000000000000000000081525088613300565b60606000836001600160a01b031663c4e8ddfa6040518163ffffffff1660e01b8152600401602060405180830381865afa158015611edb573d6000803e3d6000fd5b505050506040513d601f19601f82011682018060405250810190611eff9190614a59565b9050611f61611f25611f1083613375565b60045461099d906001600160a01b0316613375565b6040518060400160405280600881526020017f4c373231422d313000000000000000000000000000000000000000000000000081525087613300565b600454909550611fc4906001600160a01b0316611f7e85846133dd565b6001600160a01b0316146040518060400160405280600881526020017f4c373231422d323000000000000000000000000000000000000000000000000081525087613300565b94506000846001600160a01b031663a71198696040518163ffffffff1660e01b8152600401602060405180830381865afa158015612006573d6000803e3d6000fd5b505050506040513d601f19601f8201168201806040525081019061202a9190614a59565b90506120f57342000000000000000000000000000000000000146001600160a01b0316836001600160a01b0316637f46ddb26040518163ffffffff1660e01b8152600401602060405180830381865afa15801561208b573d6000803e3d6000fd5b505050506040513d601f19601f820116820180604052508101906120af9190614a59565b6001600160a01b0316146040518060400160405280600881526020017f4c373231422d333000000000000000000000000000000000000000000000000081525088613300565b95506121c07342000000000000000000000000000000000000146001600160a01b0316836001600160a01b031663c89701a26040518163ffffffff1660e01b8152600401602060405180830381865afa158015612156573d6000803e3d6000fd5b505050506040513d601f19601f8201168201806040525081019061217a9190614a59565b6001600160a01b0316146040518060400160405280600881526020017f4c373231422d343000000000000000000000000000000000000000000000000081525088613300565b9550612277816001600160a01b0316836001600160a01b031663927ede2d6040518163ffffffff1660e01b8152600401602060405180830381865afa15801561220d573d6000803e3d6000fd5b505050506040513d601f19601f820116820180604052508101906122319190614a59565b6001600160a01b0316146040518060400160405280600881526020017f4c373231422d353000000000000000000000000000000000000000000000000081525088613300565b955061232e816001600160a01b0316836001600160a01b0316633cb747bf6040518163ffffffff1660e01b8152600401602060405180830381865afa1580156122c4573d6000803e3d6000fd5b505050506040513d601f19601f820116820180604052508101906122e89190614a59565b6001600160a01b0316146040518060400160405280600881526020017f4c373231422d363000000000000000000000000000000000000000000000000081525088613300565b95506123e5856001600160a01b0316836001600160a01b03166333d7e2bd6040518163ffffffff1660e01b8152600401602060405180830381865afa15801561237b573d6000803e3d6000fd5b505050506040513d601f19601f8201168201806040525081019061239f9190614a59565b6001600160a01b0316146040518060400160405280600881526020017f4c373231422d373000000000000000000000000000000000000000000000000081525088613300565b95506115e6846001600160a01b03166123fd84613464565b6001600160a01b0316146040518060400160405280600881526020017f4c373231422d383000000000000000000000000000000000000000000000000081525088613300565b60606000836001600160a01b0316630a49cb036040518163ffffffff1660e01b8152600401602060405180830381865afa158015612485573d6000803e3d6000fd5b505050506040513d601f19601f820116820180604052508101906124a99190614a59565b90506124bb601254600160001b6134c8565b156125bf576125556125196124cf83613375565b6006546124e4906001600160a01b0316613375565b6040516020016124f49190614c9d565b6040516020818303038152906040528051602091820120825192909101919091201490565b6040518060400160405280600981526020017f504f5254414c2d3130000000000000000000000000000000000000000000000081525087613300565b6006549095506125b8906001600160a01b031661257285846133dd565b6001600160a01b0316146040518060400160405280600981526020017f504f5254414c2d3230000000000000000000000000000000000000000000000081525087613300565b9450612603565b6125e36125196125ce83613375565b60055461099d906001600160a01b0316613375565b600554909550612600906001600160a01b031661257285846133dd565b94505b6000846001600160a01b031663f2b4e6176040518163ffffffff1660e01b8152600401602060405180830381865afa158015612643573d6000803e3d6000fd5b505050506040513d601f19601f820116820180604052508101906126679190614a59565b905061271e816001600160a01b0316836001600160a01b031663f2b4e6176040518163ffffffff1660e01b8152600401602060405180830381865afa1580156126b4573d6000803e3d6000fd5b505050506040513d601f19601f820116820180604052508101906126d89190614a59565b6001600160a01b0316146040518060400160405280600981526020017f504f5254414c2d3330000000000000000000000000000000000000000000000081525088613300565b95506127d5856001600160a01b0316836001600160a01b03166333d7e2bd6040518163ffffffff1660e01b8152600401602060405180830381865afa15801561276b573d6000803e3d6000fd5b505050506040513d601f19601f8201168201806040525081019061278f9190614a59565b6001600160a01b0316146040518060400160405280600981526020017f504f5254414c2d3430000000000000000000000000000000000000000000000081525088613300565b955061288e61dead6001600160a01b0316836001600160a01b0316639bf62d826040518163ffffffff1660e01b8152600401602060405180830381865afa158015612824573d6000803e3d6000fd5b505050506040513d601f19601f820116820180604052508101906128489190614a59565b6001600160a01b0316146040518060400160405280600981526020017f504f5254414c2d3830000000000000000000000000000000000000000000000081525088613300565b95506115e6846001600160a01b03166128a684613464565b6001600160a01b0316146040518060400160405280600981526020017f504f5254414c2d3930000000000000000000000000000000000000000000000081525088613300565b606060006128f98361334c565b90506000856001600160a01b031663f2b4e6176040518163ffffffff1660e01b8152600401602060405180830381865afa15801561293b573d6000803e3d6000fd5b505050506040513d601f19601f8201168201806040525081019061295f9190614a59565b90506129c161298561297083613375565b600c5461099d906001600160a01b0316613375565b6040518060400160405280600581526020017f44462d313000000000000000000000000000000000000000000000000000000081525089613300565b600c54909750612a24906001600160a01b03166129de87846133dd565b6001600160a01b0316146040518060400160405280600581526020017f44462d323000000000000000000000000000000000000000000000000000000081525089613300565b9650612adb826001600160a01b0316826001600160a01b0316638da5cb5b6040518163ffffffff1660e01b8152600401602060405180830381865afa158015612a71573d6000803e3d6000fd5b505050506040513d601f19601f82011682018060405250810190612a959190614a59565b6001600160a01b0316146040518060400160405280600581526020017f44462d333000000000000000000000000000000000000000000000000000000081525089613300565b965061079a856001600160a01b0316612af383613464565b6001600160a01b0316146040518060400160405280600581526020017f44462d343000000000000000000000000000000000000000000000000000000081525089613300565b604080518082018252600481527f504444470000000000000000000000000000000000000000000000000000000060208083019190915282516101c081018452600080825291810182905292830181905260608084018290526080840182905260a0840182905260c0840182905260e08401829052610100840182905261012084018290526101408401829052610160840182905261018084018290526101a084018290529260019291612bef8c858d866134dc565b909d5090925090508015612c09578b94505050505061079a565b612c696040518061012001604052808e81526020018d6001600160a01b031681526020018481526020018c81526020018b81526020018a6001600160a01b031681526020018663ffffffff16815260200188815260200185815250613770565b9b506000612c7687613afe565b9050612cd1816001600160a01b03168461018001516001600160a01b0316146040518060400160405280600881526020017f504444472d3133300000000000000000000000000000000000000000000000008152508f613300565b9c50612d2c886001600160a01b0316846101a001516001600160a01b0316146040518060400160405280600881526020017f504444472d3134300000000000000000000000000000000000000000000000008152508f613300565b9d9c50505050505050505050505050565b604080516101c08101825260008082526020820181905291810182905260608082018390526080820183905260a0820183905260c0820183905260e08201839052610100820183905261012082018390526101408201839052610160820183905261018082018390526101a0820183905291612dbb8b8a8c876134dc565b909c5090925090508015612dd3578a92505050612e3b565b612e336040518061012001604052808d81526020018c6001600160a01b031681526020018481526020018a8152602001898152602001886001600160a01b031681526020018b63ffffffff16815260200187815260200186815250613770565b9a508a925050505b98975050505050505050565b60606000836001600160a01b0316630a49cb036040518163ffffffff1660e01b8152600401602060405180830381865afa158015612e89573d6000803e3d6000fd5b505050506040513d601f19601f82011682018060405250810190612ead9190614a59565b90506000816001600160a01b031663b682c4446040518163ffffffff1660e01b8152600401602060405180830381865afa158015612eef573d6000803e3d6000fd5b505050506040513d601f19601f82011682018060405250810190612f139190614a59565b6040517f47af267b0000000000000000000000000000000000000000000000000000000081527f4554485f4c4f434b424f5800000000000000000000000000000000000000000060048201529091506001600160a01b038616906347af267b90602401602060405180830381865afa158015612f93573d6000803e3d6000fd5b505050506040513d601f19601f82011682018060405250810190612fb79190614b39565b612fc5578592505050610474565b613025612fe9612fd483613375565b60075461099d906001600160a01b0316613375565b6040518060400160405280600a81526020017f4c4f434b424f582d31300000000000000000000000000000000000000000000081525088613300565b600754909650613088906001600160a01b031661304286846133dd565b6001600160a01b0316146040518060400160405280600a81526020017f4c4f434b424f582d32300000000000000000000000000000000000000000000081525088613300565b95506130e6846001600160a01b03166130a083613464565b6001600160a01b0316146040518060400160405280600a81526020017f4c4f434b424f582d33300000000000000000000000000000000000000000000081525088613300565b955061319d856001600160a01b0316826001600160a01b03166333d7e2bd6040518163ffffffff1660e01b8152600401602060405180830381865afa158015613133573d6000803e3d6000fd5b505050506040513d601f19601f820116820180604052508101906131579190614a59565b6001600160a01b0316146040518060400160405280600a81526020017f4c4f434b424f582d34300000000000000000000000000000000000000000000081525088613300565b6040517f0fd110770000000000000000000000000000000000000000000000000000000081526001600160a01b0384811660048301529197506115e691831690630fd1107790602401602060405180830381865afa158015613203573d6000803e3d6000fd5b505050506040513d601f19601f820116820180604052508101906132279190614b39565b6040518060400160405280600a81526020017f4c4f434b424f582d35300000000000000000000000000000000000000000000081525088613300565b805160609081906001600160a01b03161561329b57806040516020016132899190614cb9565b60405160208183030381529060405290505b60208301516001600160a01b0316156108a4578051156132d857806040516020016132c69190614cfa565b60405160208183030381529060405290505b806040516020016132e99190614d3b565b604051602081830303815290604052905092915050565b6060831561330f575080610474565b815160000361332057829150613345565b8183604051602001613333929190614a76565b60405160208183030381529060405291505b5092915050565b80516000906001600160a01b03161561336457505190565b50506001546001600160a01b031690565b6060816001600160a01b03166354fd4d506040518163ffffffff1660e01b8152600401600060405180830381865afa1580156133b5573d6000803e3d6000fd5b505050506040513d6000823e601f3d908101601f191682016040526108a49190810190614df0565b6040517f204e1c7a0000000000000000000000000000000000000000000000000000000081526001600160a01b0382811660048301526000919084169063204e1c7a90602401602060405180830381865afa158015613440573d6000803e3d6000fd5b505050506040513d601f19601f820116820180604052508101906104749190614a59565b6000816001600160a01b0316633e47158c6040518163ffffffff1660e01b8152600401602060405180830381865afa1580156134a4573d6000803e3d6000fd5b505050506040513d601f19601f820116820180604052508101906108a49190614a59565b600081158015906104745750509081161490565b604080516101c081018252600080825260208201819052918101829052606081018290526080810182905260a0810182905260c0810182905260e08101829052610100810182905261012081018290526101408101829052610160810182905261018081018290526101a0810182905290859080600163ffffffff881663ffffffff161490506000866001600160a01b031663f2b4e6176040518163ffffffff1660e01b8152600401602060405180830381865afa1580156135a2573d6000803e3d6000fd5b505050506040513d601f19601f820116820180604052508101906135c69190614a59565b6040517f1b685b9e00000000000000000000000000000000000000000000000000000000815263ffffffff8a1660048201529091506000906001600160a01b03831690631b685b9e90602401602060405180830381865afa15801561362f573d6000803e3d6000fd5b505050506040513d601f19601f820116820180604052508101906136539190614a59565b90506001600160a01b03811661369c5761368e6000886040516020016136799190614e39565b60405160208183030381529060405287613300565b945060019350505050613766565b6040517f74cc86ac00000000000000000000000000000000000000000000000000000000815263ffffffff8a1660048201526000906001600160a01b038416906374cc86ac90602401600060405180830381865afa158015613702573d6000803e3d6000fd5b505050506040513d6000823e601f3d908101601f1916820160405261372a9190810190614df0565b9050600061373a8783878c613b2d565b9097509050801561375357600195505050505050613766565b61375e83838d613bb5565b975050505050505b9450945094915050565b805161010082015160408084015161012081015182517fd83ef267000000000000000000000000000000000000000000000000000000008152835192936000936001600160a01b039093169263d83ef2679260048082019392918290030181865afa1580156137e3573d6000803e3d6000fd5b505050506040513d601f19601f820116820180604052508101906138079190614e7a565b509050600085602001516001600160a01b031663f2b4e6176040518163ffffffff1660e01b8152600401602060405180830381865afa15801561384e573d6000803e3d6000fd5b505050506040513d601f19601f820116820180604052508101906138729190614a59565b90506138d96138c86138878560000151613375565b60c089015163ffffffff166001146138b3576010546138ae906001600160a01b0316613375565b61099d565b60115461099d906001600160a01b0316613375565b856040516020016136799190614e9e565b94506139068660c0015163ffffffff168460a0015163ffffffff1614856040516020016136799190614edf565b945061392786606001518460e0015114856040516020016136799190614f20565b9450613949866080015184610160015114856040516020016136799190614f61565b94506139678360c00151600014856040516020016136799190614fa2565b9450613990836080015167ffffffffffffffff16612a3014856040516020016136799190614fe3565b94506139ae8360400151601e14856040516020016136799190615024565b94506139cc8360200151604914856040516020016136799190615065565b94506139f6836060015167ffffffffffffffff1662049d40148560405160200161367991906150a6565b9450613a136000801b8314158560405160200161367991906150e7565b9450613a348587602001518561014001518960a001518a60e0015189613eea565b9450613a51858760200151838661012001518a60a0015189614164565b9450613a638584610100015186614399565b600f546101008501519196506001600160a01b03908116911603613af557613af2858461010001516001600160a01b0316637dc0d1d06040518163ffffffff1660e01b8152600401602060405180830381865afa158015613ac8573d6000803e3d6000fd5b505050506040513d601f19601f82011682018060405250810190613aec9190614a59565b866144ae565b94505b50505050919050565b60208101516000906001600160a01b031615613b1c57506020015190565b50506002546001600160a01b031690565b6060600082604051602001613b429190615128565b60405160208183030381529060405292508315613b9f576000613b66865160a41490565b9050613b928185604051602001613b7d9190614e39565b60405160208183030381529060405289613300565b9650869250159050613bac565b6000613b668651607c1490565b94509492505050565b604080516101c081018252600080825260208201819052918101829052606081018290526080810182905260a0810182905260c0810182905260e08101829052610100810182905261012081018290526101408101829052610160810182905261018081018290526101a0810182905290613c2f84614625565b9050604051806101c00160405280866001600160a01b03168152602001866001600160a01b031663fa315aa96040518163ffffffff1660e01b8152600401602060405180830381865afa158015613c8a573d6000803e3d6000fd5b505050506040513d601f19601f82011682018060405250810190613cae9190614b89565b8152602001866001600160a01b031663ec5e63086040518163ffffffff1660e01b8152600401602060405180830381865afa158015613cf1573d6000803e3d6000fd5b505050506040513d601f19601f82011682018060405250810190613d159190614b89565b8152602001866001600160a01b031663dabd396d6040518163ffffffff1660e01b8152600401602060405180830381865afa158015613d58573d6000803e3d6000fd5b505050506040513d601f19601f82011682018060405250810190613d7c9190614b6c565b67ffffffffffffffff168152602001866001600160a01b0316636b6716c06040518163ffffffff1660e01b8152600401602060405180830381865afa158015613dc9573d6000803e3d6000fd5b505050506040513d601f19601f82011682018060405250810190613ded9190614b6c565b67ffffffffffffffff1681526020018463ffffffff168152602001866001600160a01b03166399735e326040518163ffffffff1660e01b8152600401602060405180830381865afa158015613e46573d6000803e3d6000fd5b505050506040513d601f19601f82011682018060405250810190613e6a9190614b89565b81526020018260000151815260200182602001516001600160a01b0316815260200182604001516001600160a01b0316815260200182606001516001600160a01b03168152602001826080015181526020018260c001516001600160a01b031681526020018260a001516001600160a01b03168152509150509392505050565b606081604051602001613efd9190615169565b6040516020818303038152906040529150613f43613f32613f1d87613375565b600e5461099d906001600160a01b0316613375565b83604051602001613b7d9190614e39565b600e54909750613f7b906001600160a01b0316613f6086886133dd565b6001600160a01b03161483604051602001613b7d9190614e9e565b96506000613f888461334c565b9050614029816001600160a01b0316876001600160a01b031663dad544e06040518163ffffffff1660e01b8152600401602060405180830381865afa158015613fd5573d6000803e3d6000fd5b505050506040513d601f19601f82011682018060405250810190613ff99190614a59565b6001600160a01b031614846040516020016140149190614edf565b6040516020818303038152906040528a613300565b97506140a5600354876001600160a01b0316636a42b8f86040518163ffffffff1660e01b8152600401602060405180830381865afa15801561406f573d6000803e3d6000fd5b505050506040513d601f19601f820116820180604052508101906140939190614b89565b14846040516020016140149190614f20565b9750614131876001600160a01b0316876001600160a01b03166333d7e2bd6040518163ffffffff1660e01b8152600401602060405180830381865afa1580156140f2573d6000803e3d6000fd5b505050506040513d601f19601f820116820180604052508101906141169190614a59565b6001600160a01b0316148460405160200161401491906151aa565b9750612e3b856001600160a01b031661414988613464565b6001600160a01b031614846040516020016140149190614f61565b60608160405160200161417791906151eb565b60405160208183030381529060405291506141ac613f3261419786613375565b600d5461099d906001600160a01b0316613375565b600d549097506141c9906001600160a01b0316613f6085876133dd565b9650614255856001600160a01b0316856001600160a01b031663f2b4e6176040518163ffffffff1660e01b8152600401602060405180830381865afa158015614216573d6000803e3d6000fd5b505050506040513d601f19601f8201168201806040525081019061423a9190614a59565b6001600160a01b03161483604051602001613b7d9190614edf565b96506142e1866001600160a01b0316856001600160a01b03166333d7e2bd6040518163ffffffff1660e01b8152600401602060405180830381865afa1580156142a2573d6000803e3d6000fd5b505050506040513d601f19601f820116820180604052508101906142c69190614a59565b6001600160a01b03161483604051602001613b7d9190614f20565b9650614314836001600160a01b03166142f986613464565b6001600160a01b03161483604051602001613b7d91906151aa565b965061079a6000856001600160a01b0316634086d1836040518163ffffffff1660e01b8152600401602060405180830381865afa158015614359573d6000803e3d6000fd5b505050506040513d601f19601f8201168201806040525081019061437d9190614b6c565b67ffffffffffffffff161183604051602001613b7d9190614f61565b6060816040516020016143ac919061522c565b60408051601f1981840301815290829052600f549093506143fc916001600160a01b03868116921691909114906143e7908590602001614e39565b60405160208183030381529060405286613300565b935061443361442261440d85613375565b600f5461099d906001600160a01b0316613375565b836040516020016143e79190614e9e565b93506104f0836001600160a01b0316631219a4e46040518163ffffffff1660e01b8152600401602060405180830381865afa158015614476573d6000803e3d6000fd5b505050506040513d601f19601f8201168201806040525081019061449a9190614b89565b600814836040516020016143e79190614edf565b6060816040516020016144c1919061526d565b604051602081830303815290604052915061452b61451a6144e185613375565b60408051808201909152600581527f312e312e34000000000000000000000000000000000000000000000000000000602082015261099d565b836040516020016143e79190614e39565b93506145a8836001600160a01b031663f3f480d96040518163ffffffff1660e01b8152600401602060405180830381865afa15801561456e573d6000803e3d6000fd5b505050506040513d601f19601f820116820180604052508101906145929190614b89565b6201518014836040516020016143e79190614e9e565b93506104f0836001600160a01b031663dd24f9bf6040518163ffffffff1660e01b8152600401602060405180830381865afa1580156145eb573d6000803e3d6000fd5b505050506040513d601f19601f8201168201806040525081019061460f9190614b89565b6201ec3014836040516020016143e79190614edf565b6040805160e081018252600080825260208201819052918101829052606081018290526080810182905260a0810182905260c0810191909152815160a481148015906146725750607c8114155b156146a9576040517fbff6e41600000000000000000000000000000000000000000000000000000000815260040160405180910390fd5b6020830151604084015160548501516068860151607c870151606093841c9392831c929190911c906000807fffffffffffffffffffffffffffffffffffffffffffffffffffffffffffffff5c880161470f575050609c88015160b0890151606091821c911c5b6040805160e0810182529788526001600160a01b0396871660208901529486169487019490945291841660608601526080850152821660a08401521660c08201529392505050565b7f4e487b7100000000000000000000000000000000000000000000000000000000600052604160045260246000fd5b6001600160a01b038116811461479b57600080fd5b50565b6000608082840312156147b057600080fd5b6040516080810181811067ffffffffffffffff821117156147d3576147d3614757565b60405290508082356147e481614786565b808252506020830135602082015260408301356040820152606083013561480a81614786565b6060919091015292915050565b801515811461479b57600080fd5b60006040828403121561483757600080fd5b6040516040810181811067ffffffffffffffff8211171561485a5761485a614757565b604052905080823561486b81614786565b8152602083013561487b81614786565b6020919091015292915050565b600080600060e0848603121561489d57600080fd5b6148a7858561479e565b925060808401356148b781614817565b91506148c68560a08601614825565b90509250925092565b60005b838110156148ea5781810151838201526020016148d2565b838111156148f9576000848401525b50505050565b602081526000825180602084015261491e8160408501602087016148cf565b601f01601f19169190910160400192915050565b60008060a0838503121561494557600080fd5b61494f848461479e565b9150608083013561495f81614817565b809150509250929050565b600060a0828403121561497c57600080fd5b60405160a0810181811067ffffffffffffffff8211171561499f5761499f614757565b60405290508082356149b081614786565b8082525060208301356020820152604083013560408201526060830135606082015260808301356149e081614786565b6080919091015292915050565b60008060006101008486031215614a0357600080fd5b614a0d858561496a565b925060a0840135614a1d81614817565b91506148c68560c08601614825565b60008060c08385031215614a3f57600080fd5b614a49848461496a565b915060a083013561495f81614817565b600060208284031215614a6b57600080fd5b815161047481614786565b60008351614a888184602088016148cf565b7f2c000000000000000000000000000000000000000000000000000000000000009083019081528351614ac28160018401602088016148cf565b01600101949350505050565b7f4f50436f6e7472616374734d616e616765725374616e6461726456616c69646181527f746f723a20000000000000000000000000000000000000000000000000000000602082015260008251614b2c8160258501602087016148cf565b9190910160250192915050565b600060208284031215614b4b57600080fd5b815161047481614817565b67ffffffffffffffff8116811461479b57600080fd5b600060208284031215614b7e57600080fd5b815161047481614b56565b600060208284031215614b9b57600080fd5b5051919050565b805163ffffffff81168114614bb657600080fd5b919050565b805160ff81168114614bb657600080fd5b600060c08284031215614bde57600080fd5b60405160c0810181811067ffffffffffffffff82111715614c0157614c01614757565b604052614c0d83614ba2565b8152614c1b60208401614bbb565b6020820152614c2c60408401614bbb565b6040820152614c3d60608401614ba2565b6060820152614c4e60808401614ba2565b608082015260a08301516fffffffffffffffffffffffffffffffff81168114614c7657600080fd5b60a08201529392505050565b600060208284031215614c9457600080fd5b61047482614ba2565b60008251614caf8184602087016148cf565b9190910192915050565b60008251614ccb8184602087016148cf565b7f4f56455252494445532d4c3150414f4d554c5449534947000000000000000000920191825250601701919050565b60008251614d0c8184602087016148cf565b7f2c00000000000000000000000000000000000000000000000000000000000000920191825250600101919050565b60008251614d4d8184602087016148cf565b7f4f56455252494445532d4348414c4c454e474552000000000000000000000000920191825250601401919050565b600067ffffffffffffffff80841115614d9757614d97614757565b604051601f8501601f19908116603f01168101908282118183101715614dbf57614dbf614757565b81604052809350858152868686011115614dd857600080fd5b614de68660208301876148cf565b5050509392505050565b600060208284031215614e0257600080fd5b815167ffffffffffffffff811115614e1957600080fd5b8201601f81018413614e2a57600080fd5b6104f084825160208401614d7c565b60008251614e4b8184602087016148cf565b7f2d31300000000000000000000000000000000000000000000000000000000000920191825250600301919050565b60008060408385031215614e8d57600080fd5b505080516020909101519092909150565b60008251614eb08184602087016148cf565b7f2d32300000000000000000000000000000000000000000000000000000000000920191825250600301919050565b60008251614ef18184602087016148cf565b7f2d33300000000000000000000000000000000000000000000000000000000000920191825250600301919050565b60008251614f328184602087016148cf565b7f2d34300000000000000000000000000000000000000000000000000000000000920191825250600301919050565b60008251614f738184602087016148cf565b7f2d36300000000000000000000000000000000000000000000000000000000000920191825250600301919050565b60008251614fb48184602087016148cf565b7f2d37300000000000000000000000000000000000000000000000000000000000920191825250600301919050565b60008251614ff58184602087016148cf565b7f2d38300000000000000000000000000000000000000000000000000000000000920191825250600301919050565b600082516150368184602087016148cf565b7f2d39300000000000000000000000000000000000000000000000000000000000920191825250600301919050565b600082516150778184602087016148cf565b7f2d31303000000000000000000000000000000000000000000000000000000000920191825250600401919050565b600082516150b88184602087016148cf565b7f2d31313000000000000000000000000000000000000000000000000000000000920191825250600401919050565b600082516150f98184602087016148cf565b7f2d31323000000000000000000000000000000000000000000000000000000000920191825250600401919050565b6000825161513a8184602087016148cf565b7f2d47415247530000000000000000000000000000000000000000000000000000920191825250600601919050565b6000825161517b8184602087016148cf565b7f2d44574554480000000000000000000000000000000000000000000000000000920191825250600601919050565b600082516151bc8184602087016148cf565b7f2d35300000000000000000000000000000000000000000000000000000000000920191825250600301919050565b600082516151fd8184602087016148cf565b7f2d414e43484f5250000000000000000000000000000000000000000000000000920191825250600801919050565b6000825161523e8184602087016148cf565b7f2d564d0000000000000000000000000000000000000000000000000000000000920191825250600301919050565b6000825161527f8184602087016148cf565b7f2d50494d474f000000000000000000000000000000000000000000000000000092019182525060060191905056fea164736f6c634300080f000a","linkReferences":{}},"methodIdentifiers":{"anchorStateRegistryImpl()":"2aecd35c","challenger()":"534db0e2","delayedWETHImpl()":"74459cf3","devFeatureBitmap()":"1d8a4e92","disputeGameFactoryImpl()":"bb98b3f4","ethLockboxImpl()":"7b491a98","faultDisputeGameImpl()":"dea21984","l1CrossDomainMessengerImpl()":"58256afb","l1ERC721BridgeImpl()":"7d8bd0d8","l1PAOMultisig()":"a4dec37a","l1StandardBridgeImpl()":"c34e047a","mipsImpl()":"e303272c","optimismMintableERC20FactoryImpl()":"e3fef4a8","optimismPortalImpl()":"a38d5595","optimismPortalInteropImpl()":"6c0e2170","permissionedDisputeGameImpl()":"98ccec3e","preimageOracleVersion()":"ad7e7e40","superchainConfig()":"35e80ab3","systemConfigImpl()":"bc3f6fd4","validate((address,bytes32,bytes32,uint256,address),bool)":"f3edcbe1","validate((address,bytes32,uint256,address),bool)":"41fe5385","validateWithOverrides((address,bytes32,bytes32,uint256,address),bool,(address,address))":"8970ac44","validateWithOverrides((address,bytes32,uint256,address),bool,(address,address))":"0e9d5cb9","version()":"54fd4d50","withdrawalDelaySeconds()":"71839418"},"storageLayout":{"storage":[{"astId":53215,"contract":"src/L1/OPContractsManagerStandardValidator.sol:OPContractsManagerStandardValidator","label":"superchainConfig","offset":0,"slot":"0","type":"t_contract(ISuperchainConfig)1482"},{"astId":53218,"contract":"src/L1/OPContractsManagerStandardValidator.sol:OPContractsManagerStandardValidator","label":"l1PAOMultisig","offset":0,"slot":"1","type":"t_address"},{"astId":53221,"contract":"src/L1/OPContractsManagerStandardValidator.sol:OPContractsManagerStandardValidator","label":"challenger","offset":0,"slot":"2","type":"t_address"},{"astId":53224,"contract":"src/L1/OPContractsManagerStandardValidator.sol:OPContractsManagerStandardValidator","label":"withdrawalDelaySeconds","offset":0,"slot":"3","type":"t_uint256"},{"astId":53227,"contract":"src/L1/OPContractsManagerStandardValidator.sol:OPContractsManagerStandardValidator","label":"l1ERC721BridgeImpl","offset":0,"slot":"4","type":"t_address"},{"astId":53230,"contract":"src/L1/OPContractsManagerStandardValidator.sol:OPContractsManagerStandardValidator","label":"optimismPortalImpl","offset":0,"slot":"5","type":"t_address"},{"astId":53233,"contract":"src/L1/OPContractsManagerStandardValidator.sol:OPContractsManagerStandardValidator","label":"optimismPortalInteropImpl","offset":0,"slot":"6","type":"t_address"},{"astId":53236,"contract":"src/L1/OPContractsManagerStandardValidator.sol:OPContractsManagerStandardValidator","label":"ethLockboxImpl","offset":0,"slot":"7","type":"t_address"},{"astId":53239,"contract":"src/L1/OPContractsManagerStandardValidator.sol:OPContractsManagerStandardValidator","label":"systemConfigImpl","offset":0,"slot":"8","type":"t_address"},{"astId":53242,"contract":"src/L1/OPContractsManagerStandardValidator.sol:OPContractsManagerStandardValidator","label":"optimismMintableERC20FactoryImpl","offset":0,"slot":"9","type":"t_address"},{"astId":53245,"contract":"src/L1/OPContractsManagerStandardValidator.sol:OPContractsManagerStandardValidator","label":"l1CrossDomainMessengerImpl","offset":0,"slot":"10","type":"t_address"},{"astId":53248,"contract":"src/L1/OPContractsManagerStandardValidator.sol:OPContractsManagerStandardValidator","label":"l1StandardBridgeImpl","offset":0,"slot":"11","type":"t_address"},{"astId":53251,"contract":"src/L1/OPContractsManagerStandardValidator.sol:OPContractsManagerStandardValidator","label":"disputeGameFactoryImpl","offset":0,"slot":"12","type":"t_address"},{"astId":53254,"contract":"src/L1/OPContractsManagerStandardValidator.sol:OPContractsManagerStandardValidator","label":"anchorStateRegistryImpl","offset":0,"slot":"13","type":"t_address"},{"astId":53257,"contract":"src/L1/OPContractsManagerStandardValidator.sol:OPContractsManagerStandardValidator","label":"delayedWETHImpl","offset":0,"slot":"14","type":"t_address"},{"astId":53260,"contract":"src/L1/OPContractsManagerStandardValidator.sol:OPContractsManagerStandardValidator","label":"mipsImpl","offset":0,"slot":"15","type":"t_address"},{"astId":53263,"contract":"src/L1/OPContractsManagerStandardValidator.sol:OPContractsManagerStandardValidator","label":"faultDisputeGameImpl","offset":0,"slot":"16","type":"t_address"},{"astId":53266,"contract":"src/L1/OPContractsManagerStandardValidator.sol:OPContractsManagerStandardValidator","label":"permissionedDisputeGameImpl","offset":0,"slot":"17","type":"t_address"},{"astId":53269,"contract":"src/L1/OPContractsManagerStandardValidator.sol:OPContractsManagerStandardValidator","label":"devFeatureBitmap","offset":0,"slot":"18","type":"t_bytes32"}],"types":{"t_address":{"encoding":"inplace","label":"address","numberOfBytes":"20"},"t_bytes32":{"encoding":"inplace","label":"bytes32","numberOfBytes":"32"},"t_contract(ISuperchainConfig)1482":{"encoding":"inplace","label":"contract ISuperchainConfig","numberOfBytes":"20"},"t_uint256":{"encoding":"inplace","label":"uint256","numberOfBytes":"32"}}},"userdoc":{"version":1,"kind":"user","methods":{"anchorStateRegistryImpl()":{"notice":"The AnchorStateRegistry implementation address."},"challenger()":{"notice":"The challenger address for permissioned dispute games."},"constructor":{"notice":"Constructor for the OPContractsManagerStandardValidator contract."},"delayedWETHImpl()":{"notice":"The DelayedWETH implementation address."},"devFeatureBitmap()":{"notice":"Bitmap of development features, verification may depend on these features."},"disputeGameFactoryImpl()":{"notice":"The DisputeGameFactory implementation address."},"ethLockboxImpl()":{"notice":"The ETHLockbox implementation address."},"faultDisputeGameImpl()":{"notice":"The FaultDisputeGame implementation address."},"l1CrossDomainMessengerImpl()":{"notice":"The L1CrossDomainMessenger implementation address."},"l1ERC721BridgeImpl()":{"notice":"The L1ERC721Bridge implementation address."},"l1PAOMultisig()":{"notice":"The L1 PAO multisig address."},"l1StandardBridgeImpl()":{"notice":"The L1StandardBridge implementation address."},"mipsImpl()":{"notice":"The MIPS implementation address."},"optimismMintableERC20FactoryImpl()":{"notice":"The OptimismMintableERC20Factory implementation address."},"optimismPortalImpl()":{"notice":"The OptimismPortal implementation address."},"optimismPortalInteropImpl()":{"notice":"The OptimismPortalInterop implementation address."},"permissionedDisputeGameImpl()":{"notice":"The PermissionedFaultDisputeGame implementation address."},"preimageOracleVersion()":{"notice":"Returns the expected PreimageOracle version."},"superchainConfig()":{"notice":"The SuperchainConfig contract."},"systemConfigImpl()":{"notice":"The SystemConfig implementation address."},"validate((address,bytes32,bytes32,uint256,address),bool)":{"notice":"Validates the configuration of the L1 contracts when dev features are enabled."},"validate((address,bytes32,uint256,address),bool)":{"notice":"Validates the configuration of the L1 contracts."},"validateWithOverrides((address,bytes32,bytes32,uint256,address),bool,(address,address))":{"notice":"Validates the configuration of the L1 contracts. Supports overrides of certain storage values denoted in the ValidationOverrides struct. Includes validation fields relevant for dev features."},"validateWithOverrides((address,bytes32,uint256,address),bool,(address,address))":{"notice":"Validates the configuration of the L1 contracts. Supports overrides of certain storage values denoted in the ValidationOverrides struct."},"version()":{"notice":"The semantic version of the OPContractsManagerStandardValidator contract."},"withdrawalDelaySeconds()":{"notice":"The withdrawal delay in seconds for the DelayedWETH contract."}},"errors":{"InvalidGameArgsLength()":[{"notice":"Thrown when the length of the game arguments is invalid."}]},"notice":"This contract is used to validate the configuration of the L1 contracts of an OP Stack chain. It is a stateless contract that can be used to ensure that the L1 contracts are configured correctly. It is intended to be used by the L1 PAO multisig to validate the configuration of the L1 contracts before and after an upgrade."},"devdoc":{"version":1,"kind":"dev","title":"OPContractsManagerStandardValidator"},"id":67}