{"abi":[{"type":"receive","stateMutability":"payable"},{"type":"function","name":"addStake","inputs":[{"name":"unstakeDelaySec","type":"uint32","internalType":"uint32"}],"outputs":[],"stateMutability":"payable"},{"type":"function","name":"balanceOf","inputs":[{"name":"account","type":"address","internalType":"address"}],"outputs":[{"name":"","type":"uint256","internalType":"uint256"}],"stateMutability":"view"},{"type":"function","name":"delegateAndRevert","inputs":[{"name":"target","type":"address","internalType":"address"},{"name":"data","type":"bytes","internalType":"bytes"}],"outputs":[],"stateMutability":"nonpayable"},{"type":"function","name":"depositTo","inputs":[{"name":"account","type":"address","internalType":"address"}],"outputs":[],"stateMutability":"payable"},{"type":"function","name":"deposits","inputs":[{"name":"","type":"address","internalType":"address"}],"outputs":[{"name":"deposit","type":"uint256","internalType":"uint256"},{"name":"staked","type":"bool","internalType":"bool"},{"name":"stake","type":"uint112","internalType":"uint112"},{"name":"unstakeDelaySec","type":"uint32","internalType":"uint32"},{"name":"withdrawTime","type":"uint48","internalType":"uint48"}],"stateMutability":"view"},{"type":"function","name":"getDepositInfo","inputs":[{"name":"account","type":"address","internalType":"address"}],"outputs":[{"name":"info","type":"tuple","internalType":"struct IStakeManager.DepositInfo","components":[{"name":"deposit","type":"uint256","internalType":"uint256"},{"name":"staked","type":"bool","internalType":"bool"},{"name":"stake","type":"uint112","internalType":"uint112"},{"name":"unstakeDelaySec","type":"uint32","internalType":"uint32"},{"name":"withdrawTime","type":"uint48","internalType":"uint48"}]}],"stateMutability":"view"},{"type":"function","name":"getGasConsumed","inputs":[{"name":"account","type":"address","internalType":"address"},{"name":"phase","type":"uint256","internalType":"uint256"}],"outputs":[{"name":"","type":"uint256","internalType":"uint256"}],"stateMutability":"view"},{"type":"function","name":"getNonce","inputs":[{"name":"sender","type":"address","internalType":"address"},{"name":"key","type":"uint192","internalType":"uint192"}],"outputs":[{"name":"nonce","type":"uint256","internalType":"uint256"}],"stateMutability":"view"},{"type":"function","name":"getSenderAddress","inputs":[{"name":"initCode","type":"bytes","internalType":"bytes"}],"outputs":[],"stateMutability":"nonpayable"},{"type":"function","name":"getUserOpHash","inputs":[{"name":"userOp","type":"tuple","internalType":"struct PackedUserOperation","components":[{"name":"sender","type":"address","internalType":"address"},{"name":"nonce","type":"uint256","internalType":"uint256"},{"name":"initCode","type":"bytes","internalType":"bytes"},{"name":"callData","type":"bytes","internalType":"bytes"},{"name":"accountGasLimits","type":"bytes32","internalType":"bytes32"},{"name":"preVerificationGas","type":"uint256","internalType":"uint256"},{"name":"gasFees","type":"bytes32","internalType":"bytes32"},{"name":"paymasterAndData","type":"bytes","internalType":"bytes"},{"name":"signature","type":"bytes","internalType":"bytes"}]}],"outputs":[{"name":"","type":"bytes32","internalType":"bytes32"}],"stateMutability":"view"},{"type":"function","name":"handleAggregatedOps","inputs":[{"name":"opsPerAggregator","type":"tuple[]","internalType":"struct IEntryPoint.UserOpsPerAggregator[]","components":[{"name":"userOps","type":"tuple[]","internalType":"struct PackedUserOperation[]","components":[{"name":"sender","type":"address","internalType":"address"},{"name":"nonce","type":"uint256","internalType":"uint256"},{"name":"initCode","type":"bytes","internalType":"bytes"},{"name":"callData","type":"bytes","internalType":"bytes"},{"name":"accountGasLimits","type":"bytes32","internalType":"bytes32"},{"name":"preVerificationGas","type":"uint256","internalType":"uint256"},{"name":"gasFees","type":"bytes32","internalType":"bytes32"},{"name":"paymasterAndData","type":"bytes","internalType":"bytes"},{"name":"signature","type":"bytes","internalType":"bytes"}]},{"name":"aggregator","type":"address","internalType":"contract IAggregator"},{"name":"signature","type":"bytes","internalType":"bytes"}]},{"name":"beneficiary","type":"address","internalType":"address payable"}],"outputs":[],"stateMutability":"nonpayable"},{"type":"function","name":"handleOps","inputs":[{"name":"ops","type":"tuple[]","internalType":"struct PackedUserOperation[]","components":[{"name":"sender","type":"address","internalType":"address"},{"name":"nonce","type":"uint256","internalType":"uint256"},{"name":"initCode","type":"bytes","internalType":"bytes"},{"name":"callData","type":"bytes","internalType":"bytes"},{"name":"accountGasLimits","type":"bytes32","internalType":"bytes32"},{"name":"preVerificationGas","type":"uint256","internalType":"uint256"},{"name":"gasFees","type":"bytes32","internalType":"bytes32"},{"name":"paymasterAndData","type":"bytes","internalType":"bytes"},{"name":"signature","type":"bytes","internalType":"bytes"}]},{"name":"beneficiary","type":"address","internalType":"address payable"}],"outputs":[],"stateMutability":"nonpayable"},{"type":"function","name":"incrementNonce","inputs":[{"name":"key","type":"uint192","internalType":"uint192"}],"outputs":[],"stateMutability":"nonpayable"},{"type":"function","name":"innerHandleOp","inputs":[{"name":"callData","type":"bytes","internalType":"bytes"},{"name":"opInfo","type":"tuple","internalType":"struct EntryPoint.UserOpInfo","components":[{"name":"mUserOp","type":"tuple","internalType":"struct EntryPoint.MemoryUserOp","components":[{"name":"sender","type":"address","internalType":"address"},{"name":"nonce","type":"uint256","internalType":"uint256"},{"name":"verificationGasLimit","type":"uint256","internalType":"uint256"},{"name":"callGasLimit","type":"uint256","internalType":"uint256"},{"name":"paymasterVerificationGasLimit","type":"uint256","internalType":"uint256"},{"name":"paymasterPostOpGasLimit","type":"uint256","internalType":"uint256"},{"name":"preVerificationGas","type":"uint256","internalType":"uint256"},{"name":"paymaster","type":"address","internalType":"address"},{"name":"maxFeePerGas","type":"uint256","internalType":"uint256"},{"name":"maxPriorityFeePerGas","type":"uint256","internalType":"uint256"}]},{"name":"userOpHash","type":"bytes32","internalType":"bytes32"},{"name":"prefund","type":"uint256","internalType":"uint256"},{"name":"contextOffset","type":"uint256","internalType":"uint256"},{"name":"preOpGas","type":"uint256","internalType":"uint256"}]},{"name":"context","type":"bytes","internalType":"bytes"}],"outputs":[{"name":"actualGasCost","type":"uint256","internalType":"uint256"}],"stateMutability":"nonpayable"},{"type":"function","name":"nonceSequenceNumber","inputs":[{"name":"","type":"address","internalType":"address"},{"name":"","type":"uint192","internalType":"uint192"}],"outputs":[{"name":"","type":"uint256","internalType":"uint256"}],"stateMutability":"view"},{"type":"function","name":"supportsInterface","inputs":[{"name":"interfaceId","type":"bytes4","internalType":"bytes4"}],"outputs":[{"name":"","type":"bool","internalType":"bool"}],"stateMutability":"view"},{"type":"function","name":"unlockStake","inputs":[],"outputs":[],"stateMutability":"nonpayable"},{"type":"function","name":"withdrawStake","inputs":[{"name":"withdrawAddress","type":"address","internalType":"address payable"}],"outputs":[],"stateMutability":"nonpayable"},{"type":"function","name":"withdrawTo","inputs":[{"name":"withdrawAddress","type":"address","internalType":"address payable"},{"name":"withdrawAmount","type":"uint256","internalType":"uint256"}],"outputs":[],"stateMutability":"nonpayable"},{"type":"event","name":"AccountDeployed","inputs":[{"name":"userOpHash","type":"bytes32","indexed":true,"internalType":"bytes32"},{"name":"sender","type":"address","indexed":true,"internalType":"address"},{"name":"factory","type":"address","indexed":false,"internalType":"address"},{"name":"paymaster","type":"address","indexed":false,"internalType":"address"}],"anonymous":false},{"type":"event","name":"BeforeExecution","inputs":[],"anonymous":false},{"type":"event","name":"Deposited","inputs":[{"name":"account","type":"address","indexed":true,"internalType":"address"},{"name":"totalDeposit","type":"uint256","indexed":false,"internalType":"uint256"}],"anonymous":false},{"type":"event","name":"PostOpRevertReason","inputs":[{"name":"userOpHash","type":"bytes32","indexed":true,"internalType":"bytes32"},{"name":"sender","type":"address","indexed":true,"internalType":"address"},{"name":"nonce","type":"uint256","indexed":false,"internalType":"uint256"},{"name":"revertReason","type":"bytes","indexed":false,"internalType":"bytes"}],"anonymous":false},{"type":"event","name":"SignatureAggregatorChanged","inputs":[{"name":"aggregator","type":"address","indexed":true,"internalType":"address"}],"anonymous":false},{"type":"event","name":"StakeLocked","inputs":[{"name":"account","type":"address","indexed":true,"internalType":"address"},{"name":"totalStaked","type":"uint256","indexed":false,"internalType":"uint256"},{"name":"unstakeDelaySec","type":"uint256","indexed":false,"internalType":"uint256"}],"anonymous":false},{"type":"event","name":"StakeUnlocked","inputs":[{"name":"account","type":"address","indexed":true,"internalType":"address"},{"name":"withdrawTime","type":"uint256","indexed":false,"internalType":"uint256"}],"anonymous":false},{"type":"event","name":"StakeWithdrawn","inputs":[{"name":"account","type":"address","indexed":true,"internalType":"address"},{"name":"withdrawAddress","type":"address","indexed":false,"internalType":"address"},{"name":"amount","type":"uint256","indexed":false,"internalType":"uint256"}],"anonymous":false},{"type":"event","name":"UserOperationEvent","inputs":[{"name":"userOpHash","type":"bytes32","indexed":true,"internalType":"bytes32"},{"name":"sender","type":"address","indexed":true,"internalType":"address"},{"name":"paymaster","type":"address","indexed":true,"internalType":"address"},{"name":"nonce","type":"uint256","indexed":false,"internalType":"uint256"},{"name":"success","type":"bool","indexed":false,"internalType":"bool"},{"name":"actualGasCost","type":"uint256","indexed":false,"internalType":"uint256"},{"name":"actualGasUsed","type":"uint256","indexed":false,"internalType":"uint256"}],"anonymous":false},{"type":"event","name":"UserOperationPrefundTooLow","inputs":[{"name":"userOpHash","type":"bytes32","indexed":true,"internalType":"bytes32"},{"name":"sender","type":"address","indexed":true,"internalType":"address"},{"name":"nonce","type":"uint256","indexed":false,"internalType":"uint256"}],"anonymous":false},{"type":"event","name":"UserOperationRevertReason","inputs":[{"name":"userOpHash","type":"bytes32","indexed":true,"internalType":"bytes32"},{"name":"sender","type":"address","indexed":true,"internalType":"address"},{"name":"nonce","type":"uint256","indexed":false,"internalType":"uint256"},{"name":"revertReason","type":"bytes","indexed":false,"internalType":"bytes"}],"anonymous":false},{"type":"event","name":"Withdrawn","inputs":[{"name":"account","type":"address","indexed":true,"internalType":"address"},{"name":"withdrawAddress","type":"address","indexed":false,"internalType":"address"},{"name":"amount","type":"uint256","indexed":false,"internalType":"uint256"}],"anonymous":false},{"type":"error","name":"DelegateAndRevert","inputs":[{"name":"success","type":"bool","internalType":"bool"},{"name":"ret","type":"bytes","internalType":"bytes"}]},{"type":"error","name":"FailedOp","inputs":[{"name":"opIndex","type":"uint256","internalType":"uint256"},{"name":"reason","type":"string","internalType":"string"}]},{"type":"error","name":"FailedOpWithRevert","inputs":[{"name":"opIndex","type":"uint256","internalType":"uint256"},{"name":"reason","type":"string","internalType":"string"},{"name":"inner","type":"bytes","internalType":"bytes"}]},{"type":"error","name":"PostOpReverted","inputs":[{"name":"returnData","type":"bytes","internalType":"bytes"}]},{"type":"error","name":"ReentrancyGuardReentrantCall","inputs":[]},{"type":"error","name":"SenderAddressResult","inputs":[{"name":"sender","type":"address","internalType":"address"}]},{"type":"error","name":"SignatureValidationFailed","inputs":[{"name":"aggregator","type":"address","internalType":"address"}]}],"bytecode":{"object":"0x60a0604052604051600e906047565b604051809103905ff0801580156026573d5f5f3e3d5ffd5b506001600160a01b0316608052348015603d575f5ffd5b5060016002556054565b6102188061380183390190565b60805161378e6100735f395f8181610e6a01526127d8015261378e5ff3fe608060405260043610610112575f3560e01c806370a082311161009d578063bb9fe6bf11610062578063bb9fe6bf14610443578063c23a5cea14610457578063dbed18e014610476578063ee5a97c814610495578063fc7e286d146104d6575f5ffd5b806370a082311461039f578063765e827f146103d3578063850aaf62146103f25780639b249f6914610411578063b760faf914610430575f5ffd5b80631b2e01b8116100e35780631b2e01b8146101b9578063205c2878146101ef57806322cdde4c1461020e57806335567e1a1461022d5780635287ce121461028b575f5ffd5b806242dc531461012657806301ffc9a7146101585780630396cb60146101875780630bd28e3b1461019a575f5ffd5b36610122576101203361057c565b005b5f5ffd5b348015610131575f5ffd5b50610145610140366004612d20565b6105d0565b6040519081526020015b60405180910390f35b348015610163575f5ffd5b50610177610172366004612dd8565b61078c565b604051901515815260200161014f565b610120610195366004612dff565b610813565b3480156101a5575f5ffd5b506101206101b4366004612e38565b610a9e565b3480156101c4575f5ffd5b506101456101d3366004612e51565b600160209081525f928352604080842090915290825290205481565b3480156101fa575f5ffd5b50610120610209366004612e84565b610ad4565b348015610219575f5ffd5b50610145610228366004612eae565b610c20565b348015610238575f5ffd5b50610145610247366004612e51565b6001600160a01b0382165f9081526001602090815260408083206001600160c01b038516845290915290819020549082901b67ffffffffffffffff19161792915050565b348015610296575f5ffd5b506103456102a5366004612ee5565b6040805160a0810182525f80825260208201819052918101829052606081018290526080810191909152506001600160a01b03165f9081526020818152604091829020825160a0810184528154815260019091015460ff811615159282019290925261010082046001600160701b031692810192909252600160781b810463ffffffff166060830152600160981b900465ffffffffffff16608082015290565b60405161014f91905f60a082019050825182526020830151151560208301526001600160701b03604084015116604083015263ffffffff606084015116606083015265ffffffffffff608084015116608083015292915050565b3480156103aa575f5ffd5b506101456103b9366004612ee5565b6001600160a01b03165f9081526020819052604090205490565b3480156103de575f5ffd5b506101206103ed366004612f40565b610c61565b3480156103fd575f5ffd5b5061012061040c366004612f92565b610dd6565b34801561041c575f5ffd5b5061012061042b366004612fe2565b610e51565b61012061043e366004612ee5565b61057c565b34801561044e575f5ffd5b50610120610f08565b348015610462575f5ffd5b50610120610471366004612ee5565b611032565b348015610481575f5ffd5b50610120610490366004612f40565b611251565b3480156104a0575f5ffd5b506101456104af366004612e84565b6001600160a01b03919091165f908152600360209081526040808320938352929052205490565b3480156104e1575f5ffd5b506105396104f0366004612ee5565b5f602081905290815260409020805460019091015460ff81169061010081046001600160701b031690600160781b810463ffffffff1690600160981b900465ffffffffffff1685565b6040805195865293151560208601526001600160701b039092169284019290925263ffffffff909116606083015265ffffffffffff16608082015260a00161014f565b5f6105878234611658565b9050816001600160a01b03167f2da466a7b24304f47e87fa2e1e5a81b9831ce54fec19055ce277ca2f39ba42c4826040516105c491815260200190565b60405180910390a25050565b5f5f5a90503330146106295760405162461bcd60e51b815260206004820152601760248201527f4141393220696e7465726e616c2063616c6c206f6e6c7900000000000000000060448201526064015b60405180910390fd5b8451606081015160a082015181016127100160405a603f028161064e5761064e613020565b0410156106645763deaddead60e01b5f5260205ffd5b87515f9015610730575f5a90505f610681855f01515f8d8761168a565b90506106bc855f015160025a6106979086613048565b6001600160a01b039092165f9081526003602090815260408083209383529290522055565b8061072d575f6106cd6108006116a0565b80519091501561072757855f01516001600160a01b03168b602001517f1c4fada7374c0a9ee8841fc38afe82932dc0f8e69012e927f061a8bae611a20188602001518460405161071e929190613089565b60405180910390a35b60019350505b50505b5f88608001515a860301905061077e828a8a8a8080601f0160208091040260200160405190810160405280939291908181526020018383808284375f920191909152508792506116cb915050565b9a9950505050505050505050565b5f6001600160e01b0319821663307e35b760e11b14806107bc57506001600160e01b0319821663122a0e9b60e31b145b806107d757506001600160e01b0319821663cf28ef9760e01b145b806107f257506001600160e01b03198216633e84f02160e01b145b8061080d57506301ffc9a760e01b6001600160e01b03198316145b92915050565b335f90815260208190526040902063ffffffff82166108745760405162461bcd60e51b815260206004820152601a60248201527f6d757374207370656369667920756e7374616b652064656c61790000000000006044820152606401610620565b600181015463ffffffff600160781b909104811690831610156108d95760405162461bcd60e51b815260206004820152601c60248201527f63616e6e6f7420646563726561736520756e7374616b652074696d65000000006044820152606401610620565b60018101545f906108f990349061010090046001600160701b03166130a1565b90505f811161093f5760405162461bcd60e51b81526020600482015260126024820152711b9bc81cdd185ad9481cdc1958da599a595960721b6044820152606401610620565b6001600160701b038111156109875760405162461bcd60e51b815260206004820152600e60248201526d7374616b65206f766572666c6f7760901b6044820152606401610620565b6040805160a08101825283548152600160208083018281526001600160701b0386811685870190815263ffffffff8a8116606088018181525f60808a0181815233808352828a52918c90209a518b55965199909801805494519151965165ffffffffffff16600160981b0265ffffffffffff60981b1997909416600160781b029690961669ffffffffffffffffffff60781b1991909516610100026effffffffffffffffffffffffffff0019991515999099166effffffffffffffffffffffffffffff1990941693909317979097179190911691909117179055835185815290810192909252917fa5ae833d0bb1dcd632d98a8b70973e8516812898e19bf27b70071ebc8dc52c01910160405180910390a2505050565b335f9081526001602090815260408083206001600160c01b03851684529091528120805491610acc836130b4565b919050555050565b335f9081526020819052604090208054821115610b335760405162461bcd60e51b815260206004820152601960248201527f576974686472617720616d6f756e7420746f6f206c61726765000000000000006044820152606401610620565b8054610b40908390613048565b8155604080516001600160a01b03851681526020810184905233917fd1c19fbcd4551a5edfb66d43d2e337c04837afda3482b42bdf569a8fccdae5fb910160405180910390a25f836001600160a01b0316836040515f6040518083038185875af1925050503d805f8114610bcf576040519150601f19603f3d011682016040523d82523d5f602084013e610bd4565b606091505b5050905080610c1a5760405162461bcd60e51b81526020600482015260126024820152716661696c656420746f20776974686472617760701b6044820152606401610620565b50505050565b5f610c2a82611883565b6040805160208101929092523090820152466060820152608001604051602081830303815290604052805190602001209050919050565b610c6961189b565b815f816001600160401b03811115610c8357610c83612b2b565b604051908082528060200260200182016040528015610cbc57816020015b610ca9612aa4565b815260200190600190039081610ca15790505b5090505f5b82811015610d31575f828281518110610cdc57610cdc6130cc565b602002602001015190505f5f610d16848a8a87818110610cfe57610cfe6130cc565b9050602002810190610d1091906130e0565b856118c3565b91509150610d268483835f611ac5565b505050600101610cc1565b506040515f907fbb47ee3e183a558b1a2ff0874b079f3fc5478b7454eacf2bfc5af2ff5878f972908290a15f5b83811015610db957610dad81888884818110610d7c57610d7c6130cc565b9050602002810190610d8e91906130e0565b858481518110610da057610da06130cc565b6020026020010151611c5f565b90910190600101610d5e565b50610dc48482611f0d565b505050610dd16001600255565b505050565b5f5f846001600160a01b03168484604051610df29291906130ff565b5f60405180830381855af49150503d805f8114610e2a576040519150601f19603f3d011682016040523d82523d5f602084013e610e2f565b606091505b50915091508181604051632650415560e21b815260040161062092919061310e565b604051632b870d1b60e11b81525f906001600160a01b037f0000000000000000000000000000000000000000000000000000000000000000169063570e1a3690610ea19086908690600401613150565b6020604051808303815f875af1158015610ebd573d5f5f3e3d5ffd5b505050506040513d601f19601f82011682018060405250810190610ee19190613163565b604051633653dc0360e11b81526001600160a01b0382166004820152909150602401610620565b335f90815260208190526040812060018101549091600160781b90910463ffffffff169003610f665760405162461bcd60e51b815260206004820152600a6024820152691b9bdd081cdd185ad95960b21b6044820152606401610620565b600181015460ff16610fae5760405162461bcd60e51b8152602060048201526011602482015270616c726561647920756e7374616b696e6760781b6044820152606401610620565b60018101545f90610fcc90600160781b900463ffffffff164261317e565b60018301805460ff65ffffffffffff60981b011916600160981b65ffffffffffff841690810260ff19169190911790915560405190815290915033907ffa9b3c14cc825c412c9ed81b3ba365a5b459439403f18829e572ed53a4180f0a906020016105c4565b335f908152602081905260409020600181015461010090046001600160701b0316806110975760405162461bcd60e51b81526020600482015260146024820152734e6f207374616b6520746f20776974686472617760601b6044820152606401610620565b6001820154600160981b900465ffffffffffff166110f75760405162461bcd60e51b815260206004820152601d60248201527f6d7573742063616c6c20756e6c6f636b5374616b6528292066697273740000006044820152606401610620565b600182015442600160981b90910465ffffffffffff16111561115b5760405162461bcd60e51b815260206004820152601b60248201527f5374616b65207769746864726177616c206973206e6f742064756500000000006044820152606401610620565b600182018054610100600160c81b0319169055604080516001600160a01b03851681526020810183905233917fb7c918e0e249f999e965cafeb6c664271b3f4317d296461500e71da39f0cbda3910160405180910390a25f836001600160a01b0316826040515f6040518083038185875af1925050503d805f81146111fb576040519150601f19603f3d011682016040523d82523d5f602084013e611200565b606091505b5050905080610c1a5760405162461bcd60e51b815260206004820152601860248201527f6661696c656420746f207769746864726177207374616b6500000000000000006044820152606401610620565b61125961189b565b815f805b828110156113c05736868683818110611278576112786130cc565b905060200281019061128a919061319c565b9050365f61129883806131b0565b90925090505f6112ae6040850160208601612ee5565b90505f196001600160a01b038216016113095760405162461bcd60e51b815260206004820152601760248201527f4141393620696e76616c69642061676772656761746f720000000000000000006044820152606401610620565b6001600160a01b038116156113a4576001600160a01b038116632dd81133848461133660408901896131f5565b6040518563ffffffff1660e01b81526004016113559493929190613357565b5f6040518083038186803b15801561136b575f5ffd5b505afa92505050801561137c575060015b6113a45760405163086a9f7560e41b81526001600160a01b0382166004820152602401610620565b6113ae82876130a1565b9550506001909301925061125d915050565b505f816001600160401b038111156113da576113da612b2b565b60405190808252806020026020018201604052801561141357816020015b611400612aa4565b8152602001906001900390816113f85790505b5090505f805b848110156114ea5736888883818110611434576114346130cc565b9050602002810190611446919061319c565b9050365f61145483806131b0565b90925090505f61146a6040850160208601612ee5565b9050815f5b818110156114d8575f89898151811061148a5761148a6130cc565b602002602001015190505f5f6114ac8b898987818110610cfe57610cfe6130cc565b915091506114bc84838389611ac5565b8a6114c6816130b4565b9b50506001909301925061146f915050565b50506001909401935061141992505050565b506040517fbb47ee3e183a558b1a2ff0874b079f3fc5478b7454eacf2bfc5af2ff5878f972905f90a1505f80805b858110156116145736898983818110611533576115336130cc565b9050602002810190611545919061319c565b90506115576040820160208301612ee5565b6001600160a01b03167f575ff3acadd5ab348fe1855e217e0f3678f8d767d7494c9f9fefbee2e17cca4d60405160405180910390a2365f61159883806131b0565b9092509050805f5b81811015611603576115e2888585848181106115be576115be6130cc565b90506020028101906115d091906130e0565b8b8b81518110610da057610da06130cc565b6115ec90886130a1565b9650876115f8816130b4565b9850506001016115a0565b505060019093019250611518915050565b506040515f907f575ff3acadd5ab348fe1855e217e0f3678f8d767d7494c9f9fefbee2e17cca4d908290a26116498682611f0d565b5050505050610dd16001600255565b6001600160a01b0382165f9081526020819052604081208054829061167e9085906130a1565b91829055509392505050565b5f5f5f845160208601878987f195945050505050565b60603d828111156116ae5750815b604051602082018101604052818152815f602083013e9392505050565b5f5f5a85519091505f90816116df82612002565b60e08301519091506001600160a01b0381166116fe57825193506117b5565b8093505f885111156117b557868202955060028a6002811115611723576117236133e2565b146117b55760a0830151604051637c627b2160e01b81526001600160a01b03831691637c627b219161175f908e908d908c9089906004016133f6565b5f604051808303815f88803b158015611776575f5ffd5b5087f193505050508015611788575060015b6117b5575f6117986108006116a0565b905080604051632b5e552f60e21b8152600401610620919061343d565b5a60a0840151606085015160808c0151928803999099019801908803808211156117e8576064600a828403020498909801975b505060408901518783029650868110156118415760028b6002811115611810576118106133e2565b03611832578096506118218a612033565b61182d8a5f898b612082565b611875565b63deadaa5160e01b5f5260205ffd5b86810361184e8682611658565b505f808d6002811115611863576118636133e2565b1490506118728c828b8d612082565b50505b505050505050949350505050565b5f61188d826120fd565b805190602001209050919050565b60028054036118bd57604051633ee5aeb560e01b815260040160405180910390fd5b60028055565b5f5f5f5a84519091506118d686826121b2565b6118df86610c20565b6020860152604081015161012082015161010083015160a08401516080850151606086015160c0870151861717171717176effffffffffffffffffffffffffffff81111561196f5760405162461bcd60e51b815260206004820152601860248201527f41413934206761732076616c756573206f766572666c6f7700000000000000006044820152606401610620565b5f61199d8460c081015160a08201516080830151606084015160408501516101009095015194010101010290565b90506119ac8a8a8a84876122be565b96506119bf845f01518560200151612484565b611a155789604051631101335b60e11b8152600401610620918152604060208201819052601a908201527f4141323520696e76616c6964206163636f756e74206e6f6e6365000000000000606082015260800190565b825a86031115611a715789604051631101335b60e11b8152600401610620918152604060208201819052601e908201527f41413236206f76657220766572696669636174696f6e4761734c696d69740000606082015260800190565b60e08401516060906001600160a01b031615611a9857611a938b8b8b856124d0565b975090505b604089018290528060608a015260a08a01355a870301896080018181525050505050505050935093915050565b5f5f611ad085612687565b91509150816001600160a01b0316836001600160a01b031614611b365785604051631101335b60e11b81526004016106209181526040602082018190526014908201527320a0991a1039b4b3b730ba3ab9329032b93937b960611b606082015260800190565b8015611b8e5785604051631101335b60e11b81526004016106209181526040602082018190526017908201527f414132322065787069726564206f72206e6f7420647565000000000000000000606082015260800190565b5f611b9885612687565b925090506001600160a01b03811615611bf45786604051631101335b60e11b81526004016106209181526040602082018190526014908201527320a0999a1039b4b3b730ba3ab9329032b93937b960611b606082015260800190565b8115611c565786604051631101335b60e11b81526004016106209181526040602082018190526021908201527f41413332207061796d61737465722065787069726564206f72206e6f742064756060820152606560f81b608082015260a00190565b50505050505050565b5f5f5a90505f611c70846060015190565b6040519091505f903682611c8760608a018a6131f5565b9150915060605f826003811115611c9d57843591505b506372288ed160e01b6001600160e01b0319821601611d4a575f8b8b60200151604051602401611cce92919061344f565b60408051601f198184030181529181526020820180516001600160e01b0316638dd7712f60e01b1790525190915030906242dc5390611d159084908f908d9060240161351a565b604051602081830303815290604052915060e01b6020820180516001600160e01b038381831617835250505050925050611d9f565b306001600160a01b03166242dc5385858d8b604051602401611d6f949392919061354e565b604051602081830303815290604052915060e01b6020820180516001600160e01b03838183161783525050505091505b60205f8351602085015f305af195505f51985084604052505050505080611f03575f3d80602003611dd45760205f5f3e5f5191505b5063deaddead60e01b8103611e275787604051631101335b60e11b8152600401610620918152604060208201819052600f908201526e41413935206f7574206f662067617360881b606082015260800190565b63deadaa5160e01b8103611e76575f86608001515a611e469087613048565b611e5091906130a1565b6040880151909150611e6188612033565b611e6d885f8385612082565b9550611f019050565b855180516020808901519201516001600160a01b0390911691907ff62676f440ff169a3a9afdbf812e89e7f95975ee8e5c31214ffdef631c5f479290611ebd6108006116a0565b604051611ecb929190613089565b60405180910390a35f86608001515a611ee49087613048565b611eee91906130a1565b9050611efd60028886846116cb565b9550505b505b5050509392505050565b6001600160a01b038216611f635760405162461bcd60e51b815260206004820152601860248201527f4141393020696e76616c69642062656e656669636961727900000000000000006044820152606401610620565b5f826001600160a01b0316826040515f6040518083038185875af1925050503d805f8114611fac576040519150601f19603f3d011682016040523d82523d5f602084013e611fb1565b606091505b5050905080610dd15760405162461bcd60e51b815260206004820152601f60248201527f41413931206661696c65642073656e6420746f2062656e6566696369617279006044820152606401610620565b6101008101516101208201515f919080820361201f575092915050565b61202b824883016126d6565b949350505050565b80518051602080840151928101516040519081526001600160a01b0390921692917f67b4fa9642f42120bf031f3051d1824b0fe25627945b27b8a6a65d5761d5482e910160405180910390a350565b835160e081015181516020808801519301516040516001600160a01b039384169492909316927f49628fd1471006c1482da88028e9ce4dbb080b815c9b0344d39e5a8e6ec1419f916120ef9189908990899093845291151560208401526040830152606082015260800190565b60405180910390a450505050565b6060813560208301355f61211c61211760408701876131f5565b6126ed565b90505f61212f61211760608801886131f5565b9050608086013560a087013560c08801355f61215161211760e08c018c6131f5565b604080516001600160a01b039a909a1660208b015289810198909852606089019690965250608087019390935260a086019190915260c085015260e08401526101008084019190915281518084039091018152610120909201905292915050565b6121bf6020830183612ee5565b6001600160a01b03168152602082810135908201526001600160801b036080808401358281166060850152811c604084015260a084013560c0808501919091528401359182166101008401521c610120820152365f61222160e08501856131f5565b909250905080156122a457603481101561227d5760405162461bcd60e51b815260206004820152601d60248201527f4141393320696e76616c6964207061796d6173746572416e64446174610000006044820152606401610620565b61228782826126ff565b60a086015260808501526001600160a01b031660e0840152610c1a565b5f60e084018190526080840181905260a084015250505050565b825180515f91906122dc88876122d760408b018b6131f5565b612766565b60e08201515f6001600160a01b03821661231d576001600160a01b0383165f9081526020819052604090205487811161231757808803612319565b5f5b9150505b5f5a60208a01516040516306608bdf60e21b81529192506001600160a01b038616916319822f7c918a91612357918f918890600401613583565b6020604051808303815f8887f193505050508015612392575060408051601f3d908101601f1916820190925261238f918101906135a7565b60015b6123bd578a6123a26108006116a0565b6040516365c8fd4d60e01b81526004016106209291906135be565b8096506123ee8560015a85036001600160a01b039092165f9081526003602090815260408083209383529290522055565b506001600160a01b038316612476576001600160a01b0384165f9081526020819052604090208054808a1115612470578c604051631101335b60e11b81526004016106209181526040602082018190526017908201527f41413231206469646e2774207061792070726566756e64000000000000000000606082015260800190565b89900390555b505050505095945050505050565b6001600160a01b0382165f90815260016020908152604080832084821c80855292528220805484916001600160401b0383169190856124c2836130b4565b909155501495945050505050565b60605f5f5a855160e08101516001600160a01b0381165f9081526020819052604090208054939450919290919087811015612557578a604051631101335b60e11b8152600401610620918152604060208201819052601e908201527f41413331207061796d6173746572206465706f73697420746f6f206c6f770000606082015260800190565b878103825f01819055505f84608001519050836001600160a01b03166352b7512c828d8d602001518d6040518563ffffffff1660e01b815260040161259e93929190613583565b5f604051808303815f8887f1935050505080156125dc57506040513d5f823e601f3d908101601f191682016040526125d991908101906135fa565b60015b612607578b6125ec6108006116a0565b6040516365c8fd4d60e01b8152600401610620929190613672565b9098509650805a87031115612678578b604051631101335b60e11b81526004016106209181526040602082018190526027908201527f41413336206f766572207061796d6173746572566572696669636174696f6e47606082015266185cd31a5b5a5d60ca1b608082015260a00190565b50505050505094509492505050565b5f5f825f0361269a57505f928392509050565b5f6126a484612a35565b9050806040015165ffffffffffff164211806126cb5750806020015165ffffffffffff1642105b905194909350915050565b5f8183106126e457816126e6565b825b9392505050565b5f604051828085833790209392505050565b5f808061270f60148286886136ae565b612718916136d5565b60601c6127296024601487896136ae565b61273291613722565b60801c61274360346024888a6136ae565b61274c91613722565b9194506001600160801b0316925060801c90509250925092565b8015610c1a578251516001600160a01b0381163b156127d15784604051631101335b60e11b8152600401610620918152604060208201819052601f908201527f414131302073656e64657220616c726561647920636f6e737472756374656400606082015260800190565b5f5a90505f7f00000000000000000000000000000000000000000000000000000000000000006001600160a01b031663570e1a36875f01516040015187876040518463ffffffff1660e01b815260040161282c929190613150565b6020604051808303815f8887f1158015612848573d5f5f3e3d5ffd5b50505050506040513d601f19601f8201168201806040525081019061286d9190613163565b905061287f835f5a6106979086613048565b6001600160a01b0381166128df5786604051631101335b60e11b8152600401610620918152604060208201819052601b908201527f4141313320696e6974436f6465206661696c6564206f72204f4f470000000000606082015260800190565b826001600160a01b0316816001600160a01b0316146129495786604051631101335b60e11b815260040161062091815260406020808301829052908201527f4141313420696e6974436f6465206d7573742072657475726e2073656e646572606082015260800190565b806001600160a01b03163b5f036129ab5786604051631101335b60e11b815260040161062091815260406020808301829052908201527f4141313520696e6974436f6465206d757374206372656174652073656e646572606082015260800190565b5f6129b960148287896136ae565b6129c2916136d5565b60601c9050836001600160a01b031687602001517fd51a9c61267aa6196961883ecf5ff2da6619c37dac0fa92122513fb32c032d2d838a5f015160e00151604051612a239291906001600160a01b0392831681529116602082015260400190565b60405180910390a35050505050505050565b604080516060810182525f80825260208201819052918101919091528160a081901c65ffffffffffff81165f03612a6f575065ffffffffffff5b604080516060810182526001600160a01b03909316835260d09490941c602083015265ffffffffffff16928101929092525090565b6040518060a00160405280612b0d6040518061014001604052805f6001600160a01b031681526020015f81526020015f81526020015f81526020015f81526020015f81526020015f81526020015f6001600160a01b031681526020015f81526020015f81525090565b81526020015f81526020015f81526020015f81526020015f81525090565b634e487b7160e01b5f52604160045260245ffd5b60405160a081016001600160401b0381118282101715612b6157612b61612b2b565b60405290565b60405161014081016001600160401b0381118282101715612b6157612b61612b2b565b604051601f8201601f191681016001600160401b0381118282101715612bb257612bb2612b2b565b604052919050565b5f6001600160401b03821115612bd257612bd2612b2b565b50601f01601f191660200190565b6001600160a01b0381168114612bf4575f5ffd5b50565b8035612c0281612be0565b919050565b5f8183036101c0811215612c19575f5ffd5b612c21612b3f565b9150610140811215612c31575f5ffd5b50612c3a612b67565b612c4383612bf7565b81526020838101359082015260408084013590820152606080840135908201526080808401359082015260a0808401359082015260c08084013590820152612c8d60e08401612bf7565b60e08201526101008381013590820152610120808401359082015281526101408201356020820152610160820135604082015261018082013560608201526101a0909101356080820152919050565b5f5f83601f840112612cec575f5ffd5b5081356001600160401b03811115612d02575f5ffd5b602083019150836020828501011115612d19575f5ffd5b9250929050565b5f5f5f5f6102008587031215612d34575f5ffd5b84356001600160401b03811115612d49575f5ffd5b8501601f81018713612d59575f5ffd5b8035612d6c612d6782612bba565b612b8a565b818152886020838501011115612d80575f5ffd5b816020840160208301375f60208383010152809650505050612da58660208701612c07565b92506101e08501356001600160401b03811115612dc0575f5ffd5b612dcc87828801612cdc565b95989497509550505050565b5f60208284031215612de8575f5ffd5b81356001600160e01b0319811681146126e6575f5ffd5b5f60208284031215612e0f575f5ffd5b813563ffffffff811681146126e6575f5ffd5b80356001600160c01b0381168114612c02575f5ffd5b5f60208284031215612e48575f5ffd5b6126e682612e22565b5f5f60408385031215612e62575f5ffd5b8235612e6d81612be0565b9150612e7b60208401612e22565b90509250929050565b5f5f60408385031215612e95575f5ffd5b8235612ea081612be0565b946020939093013593505050565b5f60208284031215612ebe575f5ffd5b81356001600160401b03811115612ed3575f5ffd5b820161012081850312156126e6575f5ffd5b5f60208284031215612ef5575f5ffd5b81356126e681612be0565b5f5f83601f840112612f10575f5ffd5b5081356001600160401b03811115612f26575f5ffd5b6020830191508360208260051b8501011115612d19575f5ffd5b5f5f5f60408486031215612f52575f5ffd5b83356001600160401b03811115612f67575f5ffd5b612f7386828701612f00565b9094509250506020840135612f8781612be0565b809150509250925092565b5f5f5f60408486031215612fa4575f5ffd5b8335612faf81612be0565b925060208401356001600160401b03811115612fc9575f5ffd5b612fd586828701612cdc565b9497909650939450505050565b5f5f60208385031215612ff3575f5ffd5b82356001600160401b03811115613008575f5ffd5b61301485828601612cdc565b90969095509350505050565b634e487b7160e01b5f52601260045260245ffd5b634e487b7160e01b5f52601160045260245ffd5b8181038181111561080d5761080d613034565b5f81518084528060208401602086015e5f602082860101526020601f19601f83011685010191505092915050565b828152604060208201525f61202b604083018461305b565b8082018082111561080d5761080d613034565b5f600182016130c5576130c5613034565b5060010190565b634e487b7160e01b5f52603260045260245ffd5b5f823561011e198336030181126130f5575f5ffd5b9190910192915050565b818382375f9101908152919050565b8215158152604060208201525f61202b604083018461305b565b81835281816020850137505f828201602090810191909152601f909101601f19169091010190565b602081525f61202b602083018486613128565b5f60208284031215613173575f5ffd5b81516126e681612be0565b65ffffffffffff818116838216019081111561080d5761080d613034565b5f8235605e198336030181126130f5575f5ffd5b5f5f8335601e198436030181126131c5575f5ffd5b8301803591506001600160401b038211156131de575f5ffd5b6020019150600581901b3603821315612d19575f5ffd5b5f5f8335601e1984360301811261320a575f5ffd5b8301803591506001600160401b03821115613223575f5ffd5b602001915036819003821315612d19575f5ffd5b5f5f8335601e1984360301811261324c575f5ffd5b83016020810192503590506001600160401b0381111561326a575f5ffd5b803603821315612d19575f5ffd5b6132928261328583612bf7565b6001600160a01b03169052565b602081810135908301525f6132aa6040830183613237565b61012060408601526132c161012086018284613128565b9150506132d16060840184613237565b85830360608701526132e4838284613128565b6080868101359088015260a0808701359088015260c08087013590880152925061331491505060e0840184613237565b85830360e0870152613327838284613128565b92505050613339610100840184613237565b85830361010087015261334d838284613128565b9695505050505050565b604080825281018490525f6060600586901b83018101908301878361011e1936839003015b898210156133c057868503605f19018452823581811261339a575f5ffd5b6133a6868d8301613278565b95505060208301925060208401935060018201915061337c565b5050505082810360208401526133d7818587613128565b979650505050505050565b634e487b7160e01b5f52602160045260245ffd5b5f6003861061341357634e487b7160e01b5f52602160045260245ffd5b8582526080602083015261342a608083018661305b565b6040830194909452506060015292915050565b602081525f6126e6602083018461305b565b604081525f6134616040830185613278565b90508260208301529392505050565b805180516001600160a01b031683526020810151602084015260408101516040840152606081015160608401526080810151608084015260a081015160a084015260c081015160c084015260e08101516134d560e08501826001600160a01b03169052565b5061010081810151908401526101209081015190830152602081015161014083015260408101516101608301526060810151610180830152608001516101a090910152565b61020081525f61352e61020083018661305b565b61353b6020840186613470565b8281036101e084015261334d818561305b565b61020081525f61356361020083018688613128565b6135706020840186613470565b8281036101e08401526133d7818561305b565b606081525f6135956060830186613278565b60208301949094525060400152919050565b5f602082840312156135b7575f5ffd5b5051919050565b82815260606020820152600d60608201526c10504c8cc81c995d995c9d1959609a1b608082015260a060408201525f61202b60a083018461305b565b5f5f6040838503121561360b575f5ffd5b82516001600160401b03811115613620575f5ffd5b8301601f81018513613630575f5ffd5b805161363e612d6782612bba565b818152866020838501011115613652575f5ffd5b8160208401602083015e5f60209282018301529401519395939450505050565b82815260606020820152600d60608201526c10504cccc81c995d995c9d1959609a1b608082015260a060408201525f61202b60a083018461305b565b5f5f858511156136bc575f5ffd5b838611156136c8575f5ffd5b5050820193919092039150565b80356bffffffffffffffffffffffff19811690601484101561371b576bffffffffffffffffffffffff196bffffffffffffffffffffffff198560140360031b1b82161691505b5092915050565b80356001600160801b0319811690601084101561371b576001600160801b031960109490940360031b84901b169092169291505056fea264697066735822122061fd31b7b8404270c4930dd2359f8dade1bfcf425bd726be2d5746800582454d64736f6c634300081c00336080604052348015600e575f5ffd5b506101fc8061001c5f395ff3fe608060405234801561000f575f5ffd5b5060043610610029575f3560e01c8063570e1a361461002d575b5f5ffd5b61004061003b3660046100e4565b61005c565b6040516001600160a01b03909116815260200160405180910390f35b5f8061006b6014828587610152565b61007491610179565b60601c90505f6100878460148188610152565b8080601f0160208091040260200160405190810160405280939291908181526020018383808284375f92018290525084519495509360209350849250905082850182875af190505f519350806100db575f93505b50505092915050565b5f5f602083850312156100f5575f5ffd5b823567ffffffffffffffff81111561010b575f5ffd5b8301601f8101851361011b575f5ffd5b803567ffffffffffffffff811115610131575f5ffd5b856020828401011115610142575f5ffd5b6020919091019590945092505050565b5f5f85851115610160575f5ffd5b8386111561016c575f5ffd5b5050820193919092039150565b80356bffffffffffffffffffffffff1981169060148410156101bf576bffffffffffffffffffffffff196bffffffffffffffffffffffff198560140360031b1b82161691505b509291505056fea2646970667358221220282ab1a2d1904fe650fcff42cbd3a0e8e13f26632253742aa654e34d502b0d7b64736f6c634300081c0033","linkReferences":{}},"methodIdentifiers":{"addStake(uint32)":"0396cb60","balanceOf(address)":"70a08231","delegateAndRevert(address,bytes)":"850aaf62","depositTo(address)":"b760faf9","deposits(address)":"fc7e286d","getDepositInfo(address)":"5287ce12","getGasConsumed(address,uint256)":"ee5a97c8","getNonce(address,uint192)":"35567e1a","getSenderAddress(bytes)":"9b249f69","getUserOpHash((address,uint256,bytes,bytes,bytes32,uint256,bytes32,bytes,bytes))":"22cdde4c","handleAggregatedOps(((address,uint256,bytes,bytes,bytes32,uint256,bytes32,bytes,bytes)[],address,bytes)[],address)":"dbed18e0","handleOps((address,uint256,bytes,bytes,bytes32,uint256,bytes32,bytes,bytes)[],address)":"765e827f","incrementNonce(uint192)":"0bd28e3b","innerHandleOp(bytes,((address,uint256,uint256,uint256,uint256,uint256,uint256,address,uint256,uint256),bytes32,uint256,uint256,uint256),bytes)":"0042dc53","nonceSequenceNumber(address,uint192)":"1b2e01b8","supportsInterface(bytes4)":"01ffc9a7","unlockStake()":"bb9fe6bf","withdrawStake(address)":"c23a5cea","withdrawTo(address,uint256)":"205c2878"},"id":6}