{"abi":[{"type":"receive","stateMutability":"payable"},{"type":"function","name":"_entrypointAddr","inputs":[],"outputs":[{"name":"","type":"address","internalType":"address"}],"stateMutability":"view"},{"type":"function","name":"_newSenderCreator","inputs":[],"outputs":[{"name":"","type":"address","internalType":"contract SenderCreator"}],"stateMutability":"view"},{"type":"function","name":"_validateSenderAndPaymaster","inputs":[{"name":"initCode","type":"bytes","internalType":"bytes"},{"name":"sender","type":"address","internalType":"address"},{"name":"paymasterAndData","type":"bytes","internalType":"bytes"}],"outputs":[],"stateMutability":"view"},{"type":"function","name":"addStake","inputs":[{"name":"unstakeDelaySec","type":"uint32","internalType":"uint32"}],"outputs":[],"stateMutability":"payable"},{"type":"function","name":"balanceOf","inputs":[{"name":"account","type":"address","internalType":"address"}],"outputs":[{"name":"","type":"uint256","internalType":"uint256"}],"stateMutability":"view"},{"type":"function","name":"delegateAndRevert","inputs":[{"name":"target","type":"address","internalType":"address"},{"name":"data","type":"bytes","internalType":"bytes"}],"outputs":[],"stateMutability":"nonpayable"},{"type":"function","name":"depositTo","inputs":[{"name":"account","type":"address","internalType":"address"}],"outputs":[],"stateMutability":"payable"},{"type":"function","name":"deposits","inputs":[{"name":"","type":"address","internalType":"address"}],"outputs":[{"name":"deposit","type":"uint256","internalType":"uint256"},{"name":"staked","type":"bool","internalType":"bool"},{"name":"stake","type":"uint112","internalType":"uint112"},{"name":"unstakeDelaySec","type":"uint32","internalType":"uint32"},{"name":"withdrawTime","type":"uint48","internalType":"uint48"}],"stateMutability":"view"},{"type":"function","name":"getDepositInfo","inputs":[{"name":"account","type":"address","internalType":"address"}],"outputs":[{"name":"info","type":"tuple","internalType":"struct IStakeManager.DepositInfo","components":[{"name":"deposit","type":"uint256","internalType":"uint256"},{"name":"staked","type":"bool","internalType":"bool"},{"name":"stake","type":"uint112","internalType":"uint112"},{"name":"unstakeDelaySec","type":"uint32","internalType":"uint32"},{"name":"withdrawTime","type":"uint48","internalType":"uint48"}]}],"stateMutability":"view"},{"type":"function","name":"getGasConsumed","inputs":[{"name":"account","type":"address","internalType":"address"},{"name":"phase","type":"uint256","internalType":"uint256"}],"outputs":[{"name":"","type":"uint256","internalType":"uint256"}],"stateMutability":"view"},{"type":"function","name":"getNonce","inputs":[{"name":"sender","type":"address","internalType":"address"},{"name":"key","type":"uint192","internalType":"uint192"}],"outputs":[{"name":"nonce","type":"uint256","internalType":"uint256"}],"stateMutability":"view"},{"type":"function","name":"getSenderAddress","inputs":[{"name":"initCode","type":"bytes","internalType":"bytes"}],"outputs":[],"stateMutability":"nonpayable"},{"type":"function","name":"getUserOpHash","inputs":[{"name":"userOp","type":"tuple","internalType":"struct PackedUserOperation","components":[{"name":"sender","type":"address","internalType":"address"},{"name":"nonce","type":"uint256","internalType":"uint256"},{"name":"initCode","type":"bytes","internalType":"bytes"},{"name":"callData","type":"bytes","internalType":"bytes"},{"name":"accountGasLimits","type":"bytes32","internalType":"bytes32"},{"name":"preVerificationGas","type":"uint256","internalType":"uint256"},{"name":"gasFees","type":"bytes32","internalType":"bytes32"},{"name":"paymasterAndData","type":"bytes","internalType":"bytes"},{"name":"signature","type":"bytes","internalType":"bytes"}]}],"outputs":[{"name":"","type":"bytes32","internalType":"bytes32"}],"stateMutability":"view"},{"type":"function","name":"handleAggregatedOps","inputs":[{"name":"opsPerAggregator","type":"tuple[]","internalType":"struct IEntryPoint.UserOpsPerAggregator[]","components":[{"name":"userOps","type":"tuple[]","internalType":"struct PackedUserOperation[]","components":[{"name":"sender","type":"address","internalType":"address"},{"name":"nonce","type":"uint256","internalType":"uint256"},{"name":"initCode","type":"bytes","internalType":"bytes"},{"name":"callData","type":"bytes","internalType":"bytes"},{"name":"accountGasLimits","type":"bytes32","internalType":"bytes32"},{"name":"preVerificationGas","type":"uint256","internalType":"uint256"},{"name":"gasFees","type":"bytes32","internalType":"bytes32"},{"name":"paymasterAndData","type":"bytes","internalType":"bytes"},{"name":"signature","type":"bytes","internalType":"bytes"}]},{"name":"aggregator","type":"address","internalType":"contract IAggregator"},{"name":"signature","type":"bytes","internalType":"bytes"}]},{"name":"beneficiary","type":"address","internalType":"address payable"}],"outputs":[],"stateMutability":"nonpayable"},{"type":"function","name":"handleOps","inputs":[{"name":"ops","type":"tuple[]","internalType":"struct PackedUserOperation[]","components":[{"name":"sender","type":"address","internalType":"address"},{"name":"nonce","type":"uint256","internalType":"uint256"},{"name":"initCode","type":"bytes","internalType":"bytes"},{"name":"callData","type":"bytes","internalType":"bytes"},{"name":"accountGasLimits","type":"bytes32","internalType":"bytes32"},{"name":"preVerificationGas","type":"uint256","internalType":"uint256"},{"name":"gasFees","type":"bytes32","internalType":"bytes32"},{"name":"paymasterAndData","type":"bytes","internalType":"bytes"},{"name":"signature","type":"bytes","internalType":"bytes"}]},{"name":"beneficiary","type":"address","internalType":"address payable"}],"outputs":[],"stateMutability":"nonpayable"},{"type":"function","name":"incrementNonce","inputs":[{"name":"key","type":"uint192","internalType":"uint192"}],"outputs":[],"stateMutability":"nonpayable"},{"type":"function","name":"init","inputs":[{"name":"entrypointAddr","type":"address","internalType":"address"}],"outputs":[],"stateMutability":"nonpayable"},{"type":"function","name":"innerHandleOp","inputs":[{"name":"callData","type":"bytes","internalType":"bytes"},{"name":"opInfo","type":"tuple","internalType":"struct EntryPoint.UserOpInfo","components":[{"name":"mUserOp","type":"tuple","internalType":"struct EntryPoint.MemoryUserOp","components":[{"name":"sender","type":"address","internalType":"address"},{"name":"nonce","type":"uint256","internalType":"uint256"},{"name":"verificationGasLimit","type":"uint256","internalType":"uint256"},{"name":"callGasLimit","type":"uint256","internalType":"uint256"},{"name":"paymasterVerificationGasLimit","type":"uint256","internalType":"uint256"},{"name":"paymasterPostOpGasLimit","type":"uint256","internalType":"uint256"},{"name":"preVerificationGas","type":"uint256","internalType":"uint256"},{"name":"paymaster","type":"address","internalType":"address"},{"name":"maxFeePerGas","type":"uint256","internalType":"uint256"},{"name":"maxPriorityFeePerGas","type":"uint256","internalType":"uint256"}]},{"name":"userOpHash","type":"bytes32","internalType":"bytes32"},{"name":"prefund","type":"uint256","internalType":"uint256"},{"name":"contextOffset","type":"uint256","internalType":"uint256"},{"name":"preOpGas","type":"uint256","internalType":"uint256"}]},{"name":"context","type":"bytes","internalType":"bytes"}],"outputs":[{"name":"actualGasCost","type":"uint256","internalType":"uint256"}],"stateMutability":"nonpayable"},{"type":"function","name":"nonceSequenceNumber","inputs":[{"name":"","type":"address","internalType":"address"},{"name":"","type":"uint192","internalType":"uint192"}],"outputs":[{"name":"","type":"uint256","internalType":"uint256"}],"stateMutability":"view"},{"type":"function","name":"simulateHandleOp","inputs":[{"name":"op","type":"tuple","internalType":"struct PackedUserOperation","components":[{"name":"sender","type":"address","internalType":"address"},{"name":"nonce","type":"uint256","internalType":"uint256"},{"name":"initCode","type":"bytes","internalType":"bytes"},{"name":"callData","type":"bytes","internalType":"bytes"},{"name":"accountGasLimits","type":"bytes32","internalType":"bytes32"},{"name":"preVerificationGas","type":"uint256","internalType":"uint256"},{"name":"gasFees","type":"bytes32","internalType":"bytes32"},{"name":"paymasterAndData","type":"bytes","internalType":"bytes"},{"name":"signature","type":"bytes","internalType":"bytes"}]},{"name":"target","type":"address","internalType":"address"},{"name":"targetCallData","type":"bytes","internalType":"bytes"}],"outputs":[{"name":"","type":"tuple","internalType":"struct IEntryPointSimulations.ExecutionResult","components":[{"name":"preOpGas","type":"uint256","internalType":"uint256"},{"name":"paid","type":"uint256","internalType":"uint256"},{"name":"accountValidationData","type":"uint256","internalType":"uint256"},{"name":"paymasterValidationData","type":"uint256","internalType":"uint256"},{"name":"targetSuccess","type":"bool","internalType":"bool"},{"name":"targetResult","type":"bytes","internalType":"bytes"}]}],"stateMutability":"nonpayable"},{"type":"function","name":"simulateValidation","inputs":[{"name":"userOp","type":"tuple","internalType":"struct PackedUserOperation","components":[{"name":"sender","type":"address","internalType":"address"},{"name":"nonce","type":"uint256","internalType":"uint256"},{"name":"initCode","type":"bytes","internalType":"bytes"},{"name":"callData","type":"bytes","internalType":"bytes"},{"name":"accountGasLimits","type":"bytes32","internalType":"bytes32"},{"name":"preVerificationGas","type":"uint256","internalType":"uint256"},{"name":"gasFees","type":"bytes32","internalType":"bytes32"},{"name":"paymasterAndData","type":"bytes","internalType":"bytes"},{"name":"signature","type":"bytes","internalType":"bytes"}]}],"outputs":[{"name":"","type":"tuple","internalType":"struct IEntryPointSimulations.ValidationResult","components":[{"name":"returnInfo","type":"tuple","internalType":"struct IEntryPoint.ReturnInfo","components":[{"name":"preOpGas","type":"uint256","internalType":"uint256"},{"name":"prefund","type":"uint256","internalType":"uint256"},{"name":"accountValidationData","type":"uint256","internalType":"uint256"},{"name":"paymasterValidationData","type":"uint256","internalType":"uint256"},{"name":"paymasterContext","type":"bytes","internalType":"bytes"}]},{"name":"senderInfo","type":"tuple","internalType":"struct IStakeManager.StakeInfo","components":[{"name":"stake","type":"uint256","internalType":"uint256"},{"name":"unstakeDelaySec","type":"uint256","internalType":"uint256"}]},{"name":"factoryInfo","type":"tuple","internalType":"struct IStakeManager.StakeInfo","components":[{"name":"stake","type":"uint256","internalType":"uint256"},{"name":"unstakeDelaySec","type":"uint256","internalType":"uint256"}]},{"name":"paymasterInfo","type":"tuple","internalType":"struct IStakeManager.StakeInfo","components":[{"name":"stake","type":"uint256","internalType":"uint256"},{"name":"unstakeDelaySec","type":"uint256","internalType":"uint256"}]},{"name":"aggregatorInfo","type":"tuple","internalType":"struct IEntryPoint.AggregatorStakeInfo","components":[{"name":"aggregator","type":"address","internalType":"address"},{"name":"stakeInfo","type":"tuple","internalType":"struct IStakeManager.StakeInfo","components":[{"name":"stake","type":"uint256","internalType":"uint256"},{"name":"unstakeDelaySec","type":"uint256","internalType":"uint256"}]}]}]}],"stateMutability":"nonpayable"},{"type":"function","name":"supportsInterface","inputs":[{"name":"interfaceId","type":"bytes4","internalType":"bytes4"}],"outputs":[{"name":"","type":"bool","internalType":"bool"}],"stateMutability":"view"},{"type":"function","name":"unlockStake","inputs":[],"outputs":[],"stateMutability":"nonpayable"},{"type":"function","name":"withdrawStake","inputs":[{"name":"withdrawAddress","type":"address","internalType":"address payable"}],"outputs":[],"stateMutability":"nonpayable"},{"type":"function","name":"withdrawTo","inputs":[{"name":"withdrawAddress","type":"address","internalType":"address payable"},{"name":"withdrawAmount","type":"uint256","internalType":"uint256"}],"outputs":[],"stateMutability":"nonpayable"},{"type":"event","name":"AccountDeployed","inputs":[{"name":"userOpHash","type":"bytes32","indexed":true,"internalType":"bytes32"},{"name":"sender","type":"address","indexed":true,"internalType":"address"},{"name":"factory","type":"address","indexed":false,"internalType":"address"},{"name":"paymaster","type":"address","indexed":false,"internalType":"address"}],"anonymous":false},{"type":"event","name":"BeforeExecution","inputs":[],"anonymous":false},{"type":"event","name":"Deposited","inputs":[{"name":"account","type":"address","indexed":true,"internalType":"address"},{"name":"totalDeposit","type":"uint256","indexed":false,"internalType":"uint256"}],"anonymous":false},{"type":"event","name":"PostOpRevertReason","inputs":[{"name":"userOpHash","type":"bytes32","indexed":true,"internalType":"bytes32"},{"name":"sender","type":"address","indexed":true,"internalType":"address"},{"name":"nonce","type":"uint256","indexed":false,"internalType":"uint256"},{"name":"revertReason","type":"bytes","indexed":false,"internalType":"bytes"}],"anonymous":false},{"type":"event","name":"SignatureAggregatorChanged","inputs":[{"name":"aggregator","type":"address","indexed":true,"internalType":"address"}],"anonymous":false},{"type":"event","name":"StakeLocked","inputs":[{"name":"account","type":"address","indexed":true,"internalType":"address"},{"name":"totalStaked","type":"uint256","indexed":false,"internalType":"uint256"},{"name":"unstakeDelaySec","type":"uint256","indexed":false,"internalType":"uint256"}],"anonymous":false},{"type":"event","name":"StakeUnlocked","inputs":[{"name":"account","type":"address","indexed":true,"internalType":"address"},{"name":"withdrawTime","type":"uint256","indexed":false,"internalType":"uint256"}],"anonymous":false},{"type":"event","name":"StakeWithdrawn","inputs":[{"name":"account","type":"address","indexed":true,"internalType":"address"},{"name":"withdrawAddress","type":"address","indexed":false,"internalType":"address"},{"name":"amount","type":"uint256","indexed":false,"internalType":"uint256"}],"anonymous":false},{"type":"event","name":"UserOperationEvent","inputs":[{"name":"userOpHash","type":"bytes32","indexed":true,"internalType":"bytes32"},{"name":"sender","type":"address","indexed":true,"internalType":"address"},{"name":"paymaster","type":"address","indexed":true,"internalType":"address"},{"name":"nonce","type":"uint256","indexed":false,"internalType":"uint256"},{"name":"success","type":"bool","indexed":false,"internalType":"bool"},{"name":"actualGasCost","type":"uint256","indexed":false,"internalType":"uint256"},{"name":"actualGasUsed","type":"uint256","indexed":false,"internalType":"uint256"}],"anonymous":false},{"type":"event","name":"UserOperationPrefundTooLow","inputs":[{"name":"userOpHash","type":"bytes32","indexed":true,"internalType":"bytes32"},{"name":"sender","type":"address","indexed":true,"internalType":"address"},{"name":"nonce","type":"uint256","indexed":false,"internalType":"uint256"}],"anonymous":false},{"type":"event","name":"UserOperationRevertReason","inputs":[{"name":"userOpHash","type":"bytes32","indexed":true,"internalType":"bytes32"},{"name":"sender","type":"address","indexed":true,"internalType":"address"},{"name":"nonce","type":"uint256","indexed":false,"internalType":"uint256"},{"name":"revertReason","type":"bytes","indexed":false,"internalType":"bytes"}],"anonymous":false},{"type":"event","name":"Withdrawn","inputs":[{"name":"account","type":"address","indexed":true,"internalType":"address"},{"name":"withdrawAddress","type":"address","indexed":false,"internalType":"address"},{"name":"amount","type":"uint256","indexed":false,"internalType":"uint256"}],"anonymous":false},{"type":"error","name":"DelegateAndRevert","inputs":[{"name":"success","type":"bool","internalType":"bool"},{"name":"ret","type":"bytes","internalType":"bytes"}]},{"type":"error","name":"FailedOp","inputs":[{"name":"opIndex","type":"uint256","internalType":"uint256"},{"name":"reason","type":"string","internalType":"string"}]},{"type":"error","name":"FailedOpWithRevert","inputs":[{"name":"opIndex","type":"uint256","internalType":"uint256"},{"name":"reason","type":"string","internalType":"string"},{"name":"inner","type":"bytes","internalType":"bytes"}]},{"type":"error","name":"PostOpReverted","inputs":[{"name":"returnData","type":"bytes","internalType":"bytes"}]},{"type":"error","name":"ReentrancyGuardReentrantCall","inputs":[]},{"type":"error","name":"SenderAddressResult","inputs":[{"name":"sender","type":"address","internalType":"address"}]},{"type":"error","name":"SignatureValidationFailed","inputs":[{"name":"aggregator","type":"address","internalType":"address"}]}],"bytecode":{"object":"0x60a0604052604051600e90609c565b604051809103905ff0801580156026573d5f5f3e3d5ffd5b506001600160a01b039081166080526040805180820182525f808252825180840190935280835260208381019182528201839052905160048054919094166001600160a01b03199182161790935590516005555160065560088054909116301790553480156092575f5ffd5b50600160025560a9565b610218806142cf83390190565b6080516142116100be5f395f50506142115ff3fe608060405260043610610163575f3560e01c8063765e827f116100cd578063b760faf911610087578063c3bce00911610062578063c3bce00914610587578063dbed18e0146105b3578063ee5a97c8146105d2578063fc7e286d14610613575f5ffd5b8063b760faf914610541578063bb9fe6bf14610554578063c23a5cea14610568575f5ffd5b8063765e827f1461047a578063850aaf6214610499578063957122ab146104b857806397b2dcb9146104d75780639b249f6914610503578063aa4d02d914610522575f5ffd5b8063205c28781161011e578063205c28781461025f57806322cdde4c1461027e578063247cde481461029d57806335567e1a146102d45780635287ce121461033257806370a0823114610446575f5ffd5b806242dc531461017757806301ffc9a7146101a95780630396cb60146101d85780630bd28e3b146101eb57806319ab453c1461020a5780631b2e01b814610229575f5ffd5b3661017357610171336106b9565b005b5f5ffd5b348015610182575f5ffd5b506101966101913660046134ac565b6106da565b6040519081526020015b60405180910390f35b3480156101b4575f5ffd5b506101c86101c336600461356a565b610898565b60405190151581526020016101a0565b6101716101e6366004613591565b61091f565b3480156101f6575f5ffd5b506101716102053660046135ca565b610baa565b348015610215575f5ffd5b506101716102243660046135e3565b610be0565b348015610234575f5ffd5b506101966102433660046135fe565b600160209081525f928352604080842090915290825290205481565b34801561026a575f5ffd5b50610171610279366004613631565b610c06565b348015610289575f5ffd5b50610196610298366004613672565b610d52565b3480156102a8575f5ffd5b506008546102bc906001600160a01b031681565b6040516001600160a01b0390911681526020016101a0565b3480156102df575f5ffd5b506101966102ee3660046135fe565b6001600160a01b0382165f9081526001602090815260408083206001600160c01b038516845290915290819020549082901b67ffffffffffffffff19161792915050565b34801561033d575f5ffd5b506103ec61034c3660046135e3565b6040805160a0810182525f80825260208201819052918101829052606081018290526080810191909152506001600160a01b03165f9081526020818152604091829020825160a0810184528154815260019091015460ff811615159282019290925261010082046001600160701b031692810192909252600160781b810463ffffffff166060830152600160981b900465ffffffffffff16608082015290565b6040516101a091905f60a082019050825182526020830151151560208301526001600160701b03604084015116604083015263ffffffff606084015116606083015265ffffffffffff608084015116608083015292915050565b348015610451575f5ffd5b506101966104603660046135e3565b6001600160a01b03165f9081526020819052604090205490565b348015610485575f5ffd5b506101716104943660046136e3565b610d93565b3480156104a4575f5ffd5b506101716104b3366004613735565b610f08565b3480156104c3575f5ffd5b506101716104d2366004613785565b610f83565b3480156104e2575f5ffd5b506104f66104f1366004613805565b61107d565b6040516101a09190613892565b34801561050e575f5ffd5b5061017161051d3660046138e0565b6111a1565b34801561052d575f5ffd5b506009546102bc906001600160a01b031681565b61017161054f3660046135e3565b6106b9565b34801561055f575f5ffd5b50610171611248565b348015610573575f5ffd5b506101716105823660046135e3565b61137a565b348015610592575f5ffd5b506105a66105a1366004613672565b611599565b6040516101a0919061391e565b3480156105be575f5ffd5b506101716105cd3660046136e3565b611742565b3480156105dd575f5ffd5b506101966105ec366004613631565b6001600160a01b03919091165f908152600360209081526040808320938352929052205490565b34801561061e575f5ffd5b5061067661062d3660046135e3565b5f602081905290815260409020805460019091015460ff81169061010081046001600160701b031690600160781b810463ffffffff1690600160981b900465ffffffffffff1685565b6040805195865293151560208601526001600160701b039092169284019290925263ffffffff909116606083015265ffffffffffff16608082015260a0016101a0565b60015b60058110156106cd576001016106bc565b6106d682611b49565b5050565b5f5f5a90503330146107335760405162461bcd60e51b815260206004820152601760248201527f4141393220696e7465726e616c2063616c6c206f6e6c7900000000000000000060448201526064015b60405180910390fd5b8451606081015160a082015181016127100160405a603f0281610758576107586139f1565b04101561076e5763deaddead60e01b5f5260205ffd5b87515f901561083a575f5a90505f61078b855f01515f8d87611b91565b90506107c6855f015160025a6107a19086613a19565b6001600160a01b039092165f9081526003602090815260408083209383529290522055565b80610837575f6107d7610800611ba7565b80519091501561083157855f01516001600160a01b03168b602001517f1c4fada7374c0a9ee8841fc38afe82932dc0f8e69012e927f061a8bae611a201886020015184604051610828929190613a2c565b60405180910390a35b60019350505b50505b5f88608001515a8603019050610888828a8a8a8080601f0160208091040260200160405190810160405280939291908181526020018383808284375f92019190915250879250611bd2915050565b955050505050505b949350505050565b5f6001600160e01b0319821663307e35b760e11b14806108c857506001600160e01b0319821663122a0e9b60e31b145b806108e357506001600160e01b0319821663cf28ef9760e01b145b806108fe57506001600160e01b03198216633e84f02160e01b145b8061091957506301ffc9a760e01b6001600160e01b03198316145b92915050565b335f90815260208190526040902063ffffffff82166109805760405162461bcd60e51b815260206004820152601a60248201527f6d757374207370656369667920756e7374616b652064656c6179000000000000604482015260640161072a565b600181015463ffffffff600160781b909104811690831610156109e55760405162461bcd60e51b815260206004820152601c60248201527f63616e6e6f7420646563726561736520756e7374616b652074696d6500000000604482015260640161072a565b60018101545f90610a0590349061010090046001600160701b0316613a44565b90505f8111610a4b5760405162461bcd60e51b81526020600482015260126024820152711b9bc81cdd185ad9481cdc1958da599a595960721b604482015260640161072a565b6001600160701b03811115610a935760405162461bcd60e51b815260206004820152600e60248201526d7374616b65206f766572666c6f7760901b604482015260640161072a565b6040805160a08101825283548152600160208083018281526001600160701b0386811685870190815263ffffffff8a8116606088018181525f60808a0181815233808352828a52918c90209a518b55965199909801805494519151965165ffffffffffff16600160981b0265ffffffffffff60981b1997909416600160781b029690961669ffffffffffffffffffff60781b1991909516610100026effffffffffffffffffffffffffff0019991515999099166effffffffffffffffffffffffffffff1990941693909317979097179190911691909117179055835185815290810192909252917fa5ae833d0bb1dcd632d98a8b70973e8516812898e19bf27b70071ebc8dc52c01910160405180910390a2505050565b335f9081526001602090815260408083206001600160c01b03851684529091528120805491610bd883613a57565b919050555050565b600880546001600160a01b0319166001600160a01b038316179055610c03611d8a565b50565b335f9081526020819052604090208054821115610c655760405162461bcd60e51b815260206004820152601960248201527f576974686472617720616d6f756e7420746f6f206c6172676500000000000000604482015260640161072a565b8054610c72908390613a19565b8155604080516001600160a01b03851681526020810184905233917fd1c19fbcd4551a5edfb66d43d2e337c04837afda3482b42bdf569a8fccdae5fb910160405180910390a25f836001600160a01b0316836040515f6040518083038185875af1925050503d805f8114610d01576040519150601f19603f3d011682016040523d82523d5f602084013e610d06565b606091505b5050905080610d4c5760405162461bcd60e51b81526020600482015260126024820152716661696c656420746f20776974686472617760701b604482015260640161072a565b50505050565b5f610d5c82611dfe565b6040805160208101929092523090820152466060820152608001604051602081830303815290604052805190602001209050919050565b610d9b611e16565b815f816001600160401b03811115610db557610db56132c7565b604051908082528060200260200182016040528015610dee57816020015b610ddb613160565b815260200190600190039081610dd35790505b5090505f5b82811015610e63575f828281518110610e0e57610e0e613a6f565b602002602001015190505f5f610e48848a8a87818110610e3057610e30613a6f565b9050602002810190610e429190613a83565b85611e3e565b91509150610e588483835f612040565b505050600101610df3565b506040515f907fbb47ee3e183a558b1a2ff0874b079f3fc5478b7454eacf2bfc5af2ff5878f972908290a15f5b83811015610eeb57610edf81888884818110610eae57610eae613a6f565b9050602002810190610ec09190613a83565b858481518110610ed257610ed2613a6f565b60200260200101516121da565b90910190600101610e90565b50610ef68482612488565b505050610f036001600255565b505050565b5f5f846001600160a01b03168484604051610f24929190613aa2565b5f60405180830381855af49150503d805f8114610f5c576040519150601f19603f3d011682016040523d82523d5f602084013e610f61565b606091505b50915091508181604051632650415560e21b815260040161072a929190613ab1565b83158015610f9957506001600160a01b0383163b155b15610fe65760405162461bcd60e51b815260206004820152601960248201527f41413230206163636f756e74206e6f74206465706c6f79656400000000000000604482015260640161072a565b6014811061105c575f610ffc6014828486613acb565b61100591613af2565b60601c9050803b5f0361105a5760405162461bcd60e51b815260206004820152601b60248201527f41413330207061796d6173746572206e6f74206465706c6f7965640000000000604482015260640161072a565b505b60405162461bcd60e51b8152602060048201525f602482015260440161072a565b6110b36040518060c001604052805f81526020015f81526020015f81526020015f81526020015f15158152602001606081525090565b6110bb611e16565b6110c3613160565b6110cc8661257d565b5f5f6110d95f8985611e3e565b915091505f6110e95f8a866121da565b90505f60606001600160a01b038a161561115c57896001600160a01b03168989604051611117929190613aa2565b5f604051808303815f865af19150503d805f8114611150576040519150601f19603f3d011682016040523d82523d5f602084013e611155565b606091505b5090925090505b6040518060c001604052808760800151815260200184815260200186815260200185815260200183151581526020018281525096505050505050506108906001600255565b5f6111b46009546001600160a01b031690565b6001600160a01b031663570e1a3684846040518363ffffffff1660e01b81526004016111e1929190613b67565b6020604051808303815f875af11580156111fd573d5f5f3e3d5ffd5b505050506040513d601f19601f820116820180604052508101906112219190613b7a565b604051633653dc0360e11b81526001600160a01b038216600482015290915060240161072a565b335f90815260208190526040812060018101549091600160781b90910463ffffffff1690036112a65760405162461bcd60e51b815260206004820152600a6024820152691b9bdd081cdd185ad95960b21b604482015260640161072a565b600181015460ff166112ee5760405162461bcd60e51b8152602060048201526011602482015270616c726561647920756e7374616b696e6760781b604482015260640161072a565b60018101545f9061130c90600160781b900463ffffffff1642613b95565b60018301805460ff65ffffffffffff60981b011916600160981b65ffffffffffff841690810260ff19169190911790915560405190815290915033907ffa9b3c14cc825c412c9ed81b3ba365a5b459439403f18829e572ed53a4180f0a906020015b60405180910390a25050565b335f908152602081905260409020600181015461010090046001600160701b0316806113df5760405162461bcd60e51b81526020600482015260146024820152734e6f207374616b6520746f20776974686472617760601b604482015260640161072a565b6001820154600160981b900465ffffffffffff1661143f5760405162461bcd60e51b815260206004820152601d60248201527f6d7573742063616c6c20756e6c6f636b5374616b652829206669727374000000604482015260640161072a565b600182015442600160981b90910465ffffffffffff1611156114a35760405162461bcd60e51b815260206004820152601b60248201527f5374616b65207769746864726177616c206973206e6f74206475650000000000604482015260640161072a565b600182018054610100600160c81b0319169055604080516001600160a01b03851681526020810183905233917fb7c918e0e249f999e965cafeb6c664271b3f4317d296461500e71da39f0cbda3910160405180910390a25f836001600160a01b0316826040515f6040518083038185875af1925050503d805f8114611543576040519150601f19603f3d011682016040523d82523d5f602084013e611548565b606091505b5050905080610d4c5760405162461bcd60e51b815260206004820152601860248201527f6661696c656420746f207769746864726177207374616b650000000000000000604482015260640161072a565b6115a16131e7565b6115a9613160565b6115b28361257d565b5f5f6115bf5f8685611e3e565b915091505f6115d4845f015160e00151612652565b8451519091505f906115e590612652565b905061160260405180604001604052805f81526020015f81525090565b365f61161160408b018b613bb3565b90925090505f6014821015611626575f611640565b61163360145f8486613acb565b61163c91613af2565b60601c5b905061164b81612652565b93505050505f8590505f6040518060a00160405280896080015181526020018960400151815260200188815260200187815260200161168b8a6060015190565b90526040805180820182526004546001600160a01b039081168252825180840190935260055483526006546020848101919091528201929092529192508316158015906116e257506001836001600160a01b031614155b1561170f576040518060400160405280846001600160a01b0316815260200161170a85612652565b905290505b6040805160a081018252928352602083019590955293810192909252506060810192909252608082015295945050505050565b61174a611e16565b815f805b828110156118b1573686868381811061176957611769613a6f565b905060200281019061177b9190613bf5565b9050365f6117898380613c09565b90925090505f61179f60408501602086016135e3565b90505f196001600160a01b038216016117fa5760405162461bcd60e51b815260206004820152601760248201527f4141393620696e76616c69642061676772656761746f72000000000000000000604482015260640161072a565b6001600160a01b03811615611895576001600160a01b038116632dd8113384846118276040890189613bb3565b6040518563ffffffff1660e01b81526004016118469493929190613d6e565b5f6040518083038186803b15801561185c575f5ffd5b505afa92505050801561186d575060015b6118955760405163086a9f7560e41b81526001600160a01b038216600482015260240161072a565b61189f8287613a44565b9550506001909301925061174e915050565b505f816001600160401b038111156118cb576118cb6132c7565b60405190808252806020026020018201604052801561190457816020015b6118f1613160565b8152602001906001900390816118e95790505b5090505f805b848110156119db573688888381811061192557611925613a6f565b90506020028101906119379190613bf5565b9050365f6119458380613c09565b90925090505f61195b60408501602086016135e3565b9050815f5b818110156119c9575f89898151811061197b5761197b613a6f565b602002602001015190505f5f61199d8b898987818110610e3057610e30613a6f565b915091506119ad84838389612040565b8a6119b781613a57565b9b505060019093019250611960915050565b50506001909401935061190a92505050565b506040517fbb47ee3e183a558b1a2ff0874b079f3fc5478b7454eacf2bfc5af2ff5878f972905f90a1505f80805b85811015611b055736898983818110611a2457611a24613a6f565b9050602002810190611a369190613bf5565b9050611a4860408201602083016135e3565b6001600160a01b03167f575ff3acadd5ab348fe1855e217e0f3678f8d767d7494c9f9fefbee2e17cca4d60405160405180910390a2365f611a898380613c09565b9092509050805f5b81811015611af457611ad388858584818110611aaf57611aaf613a6f565b9050602002810190611ac19190613a83565b8b8b81518110610ed257610ed2613a6f565b611add9088613a44565b965087611ae981613a57565b985050600101611a91565b505060019093019250611a09915050565b506040515f907f575ff3acadd5ab348fe1855e217e0f3678f8d767d7494c9f9fefbee2e17cca4d908290a2611b3a8682612488565b5050505050610f036001600255565b5f611b5482346126a3565b9050816001600160a01b03167f2da466a7b24304f47e87fa2e1e5a81b9831ce54fec19055ce277ca2f39ba42c48260405161136e91815260200190565b5f5f5f845160208601878987f195945050505050565b60603d82811115611bb55750815b604051602082018101604052818152815f602083013e9392505050565b5f5f5a85519091505f9081611be6826126d5565b60e08301519091506001600160a01b038116611c055782519350611cbc565b8093505f88511115611cbc57868202955060028a6002811115611c2a57611c2a613df9565b14611cbc5760a0830151604051637c627b2160e01b81526001600160a01b03831691637c627b2191611c66908e908d908c908990600401613e0d565b5f604051808303815f88803b158015611c7d575f5ffd5b5087f193505050508015611c8f575060015b611cbc575f611c9f610800611ba7565b905080604051632b5e552f60e21b815260040161072a9190613e54565b5a60a0840151606085015160808c015192880399909901980190880380821115611cef576064600a828403020498909801975b50506040890151878302965086811015611d485760028b6002811115611d1757611d17613df9565b03611d3957809650611d288a6126fe565b611d348a5f898b61274d565b611d7c565b63deadaa5160e01b5f5260205ffd5b868103611d5586826126a3565b505f808d6002811115611d6a57611d6a613df9565b149050611d798c828b8d61274d565b50505b505050505050949350505050565b6008546040516135a560f21b602082015260609190911b6bffffffffffffffffffffffff19166022820152600160f81b60368201525f9060370160408051808303601f190181529190528051602090910120600980546001600160a01b0319166001600160a01b0390921691909117905550565b5f611e08826127c8565b805190602001209050919050565b6002805403611e3857604051633ee5aeb560e01b815260040160405180910390fd5b60028055565b5f5f5f5a8451909150611e51868261287d565b611e5a86610d52565b6020860152604081015161012082015161010083015160a08401516080850151606086015160c0870151861717171717176effffffffffffffffffffffffffffff811115611eea5760405162461bcd60e51b815260206004820152601860248201527f41413934206761732076616c756573206f766572666c6f770000000000000000604482015260640161072a565b5f611f188460c081015160a08201516080830151606084015160408501516101009095015194010101010290565b9050611f278a8a8a8487612989565b9650611f3a845f01518560200151612b4f565b611f905789604051631101335b60e11b815260040161072a918152604060208201819052601a908201527f4141323520696e76616c6964206163636f756e74206e6f6e6365000000000000606082015260800190565b825a86031115611fec5789604051631101335b60e11b815260040161072a918152604060208201819052601e908201527f41413236206f76657220766572696669636174696f6e4761734c696d69740000606082015260800190565b60e08401516060906001600160a01b0316156120135761200e8b8b8b85612b9b565b975090505b604089018290528060608a015260a08a01355a870301896080018181525050505050505050935093915050565b5f5f61204b85612d52565b91509150816001600160a01b0316836001600160a01b0316146120b15785604051631101335b60e11b815260040161072a9181526040602082018190526014908201527320a0991a1039b4b3b730ba3ab9329032b93937b960611b606082015260800190565b80156121095785604051631101335b60e11b815260040161072a9181526040602082018190526017908201527f414132322065787069726564206f72206e6f7420647565000000000000000000606082015260800190565b5f61211385612d52565b925090506001600160a01b0381161561216f5786604051631101335b60e11b815260040161072a9181526040602082018190526014908201527320a0999a1039b4b3b730ba3ab9329032b93937b960611b606082015260800190565b81156121d15786604051631101335b60e11b815260040161072a9181526040602082018190526021908201527f41413332207061796d61737465722065787069726564206f72206e6f742064756060820152606560f81b608082015260a00190565b50505050505050565b5f5f5a90505f6121eb846060015190565b6040519091505f90368261220260608a018a613bb3565b9150915060605f82600381111561221857843591505b506372288ed160e01b6001600160e01b03198216016122c5575f8b8b60200151604051602401612249929190613e66565b60408051601f198184030181529181526020820180516001600160e01b0316638dd7712f60e01b1790525190915030906242dc53906122909084908f908d90602401613f31565b604051602081830303815290604052915060e01b6020820180516001600160e01b03838183161783525050505092505061231a565b306001600160a01b03166242dc5385858d8b6040516024016122ea9493929190613f65565b604051602081830303815290604052915060e01b6020820180516001600160e01b03838183161783525050505091505b60205f8351602085015f305af195505f5198508460405250505050508061247e575f3d8060200361234f5760205f5f3e5f5191505b5063deaddead60e01b81036123a25787604051631101335b60e11b815260040161072a918152604060208201819052600f908201526e41413935206f7574206f662067617360881b606082015260800190565b63deadaa5160e01b81036123f1575f86608001515a6123c19087613a19565b6123cb9190613a44565b60408801519091506123dc886126fe565b6123e8885f838561274d565b955061247c9050565b855180516020808901519201516001600160a01b0390911691907ff62676f440ff169a3a9afdbf812e89e7f95975ee8e5c31214ffdef631c5f479290612438610800611ba7565b604051612446929190613a2c565b60405180910390a35f86608001515a61245f9087613a19565b6124699190613a44565b90506124786002888684611bd2565b9550505b505b5050509392505050565b6001600160a01b0382166124de5760405162461bcd60e51b815260206004820152601860248201527f4141393020696e76616c69642062656e65666963696172790000000000000000604482015260640161072a565b5f826001600160a01b0316826040515f6040518083038185875af1925050503d805f8114612527576040519150601f19603f3d011682016040523d82523d5f602084013e61252c565b606091505b5050905080610f035760405162461bcd60e51b815260206004820152601f60248201527f41413931206661696c65642073656e6420746f2062656e656669636961727900604482015260640161072a565b612585611d8a565b3063957122ab6125986040840184613bb3565b6125a560208601866135e3565b6125b260e0870187613bb3565b6040518663ffffffff1660e01b81526004016125d2959493929190613f9a565b5f6040518083038186803b1580156125e8575f5ffd5b505afa9250505080156125f9575060015b610c0357612605613fdb565b806308c379a0036126485750612619613ff3565b80612624575061264a565b8051156106d6575f81604051631101335b60e11b815260040161072a929190613a2c565b505b3d5f5f3e3d5ffd5b6040805180820182525f80825260208083018281526001600160a01b03959095168252819052919091206001015461010081046001600160701b03168252600160781b900463ffffffff1690915290565b6001600160a01b0382165f908152602081905260408120805482906126c9908590613a44565b91829055509392505050565b6101008101516101208201515f91908082036126f2575092915050565b61089082488301612da1565b80518051602080840151928101516040519081526001600160a01b0390921692917f67b4fa9642f42120bf031f3051d1824b0fe25627945b27b8a6a65d5761d5482e910160405180910390a350565b835160e081015181516020808801519301516040516001600160a01b039384169492909316927f49628fd1471006c1482da88028e9ce4dbb080b815c9b0344d39e5a8e6ec1419f916127ba9189908990899093845291151560208401526040830152606082015260800190565b60405180910390a450505050565b6060813560208301355f6127e76127e26040870187613bb3565b612db8565b90505f6127fa6127e26060880188613bb3565b9050608086013560a087013560c08801355f61281c6127e260e08c018c613bb3565b604080516001600160a01b039a909a1660208b015289810198909852606089019690965250608087019390935260a086019190915260c085015260e08401526101008084019190915281518084039091018152610120909201905292915050565b61288a60208301836135e3565b6001600160a01b03168152602082810135908201526001600160801b036080808401358281166060850152811c604084015260a084013560c0808501919091528401359182166101008401521c610120820152365f6128ec60e0850185613bb3565b9092509050801561296f5760348110156129485760405162461bcd60e51b815260206004820152601d60248201527f4141393320696e76616c6964207061796d6173746572416e6444617461000000604482015260640161072a565b6129528282612dca565b60a086015260808501526001600160a01b031660e0840152610d4c565b5f60e084018190526080840181905260a084015250505050565b825180515f91906129a788876129a260408b018b613bb3565b612e31565b60e08201515f6001600160a01b0382166129e8576001600160a01b0383165f908152602081905260409020548781116129e2578088036129e4565b5f5b9150505b5f5a60208a01516040516306608bdf60e21b81529192506001600160a01b038616916319822f7c918a91612a22918f91889060040161406d565b6020604051808303815f8887f193505050508015612a5d575060408051601f3d908101601f19168201909252612a5a91810190614091565b60015b612a88578a612a6d610800611ba7565b6040516365c8fd4d60e01b815260040161072a9291906140a8565b809650612ab98560015a85036001600160a01b039092165f9081526003602090815260408083209383529290522055565b506001600160a01b038316612b41576001600160a01b0384165f9081526020819052604090208054808a1115612b3b578c604051631101335b60e11b815260040161072a9181526040602082018190526017908201527f41413231206469646e2774207061792070726566756e64000000000000000000606082015260800190565b89900390555b505050505095945050505050565b6001600160a01b0382165f90815260016020908152604080832084821c80855292528220805484916001600160401b038316919085612b8d83613a57565b909155501495945050505050565b60605f5f5a855160e08101516001600160a01b0381165f9081526020819052604090208054939450919290919087811015612c22578a604051631101335b60e11b815260040161072a918152604060208201819052601e908201527f41413331207061796d6173746572206465706f73697420746f6f206c6f770000606082015260800190565b878103825f01819055505f84608001519050836001600160a01b03166352b7512c828d8d602001518d6040518563ffffffff1660e01b8152600401612c699392919061406d565b5f604051808303815f8887f193505050508015612ca757506040513d5f823e601f3d908101601f19168201604052612ca491908101906140e4565b60015b612cd2578b612cb7610800611ba7565b6040516365c8fd4d60e01b815260040161072a929190614169565b9098509650805a87031115612d43578b604051631101335b60e11b815260040161072a9181526040602082018190526027908201527f41413336206f766572207061796d6173746572566572696669636174696f6e47606082015266185cd31a5b5a5d60ca1b608082015260a00190565b50505050505094509492505050565b5f5f825f03612d6557505f928392509050565b5f612d6f846130f1565b9050806040015165ffffffffffff16421180612d965750806020015165ffffffffffff1642105b905194909350915050565b5f818310612daf5781612db1565b825b9392505050565b5f604051828085833790209392505050565b5f8080612dda6014828688613acb565b612de391613af2565b60601c612df4602460148789613acb565b612dfd916141a5565b60801c612e0e60346024888a613acb565b612e17916141a5565b9194506001600160801b0316925060801c90509250925092565b8015610d4c578251516001600160a01b0381163b15612e9c5784604051631101335b60e11b815260040161072a918152604060208201819052601f908201527f414131302073656e64657220616c726561647920636f6e737472756374656400606082015260800190565b5f5a90505f612eb36009546001600160a01b031690565b6001600160a01b031663570e1a36875f01516040015187876040518463ffffffff1660e01b8152600401612ee8929190613b67565b6020604051808303815f8887f1158015612f04573d5f5f3e3d5ffd5b50505050506040513d601f19601f82011682018060405250810190612f299190613b7a565b9050612f3b835f5a6107a19086613a19565b6001600160a01b038116612f9b5786604051631101335b60e11b815260040161072a918152604060208201819052601b908201527f4141313320696e6974436f6465206661696c6564206f72204f4f470000000000606082015260800190565b826001600160a01b0316816001600160a01b0316146130055786604051631101335b60e11b815260040161072a91815260406020808301829052908201527f4141313420696e6974436f6465206d7573742072657475726e2073656e646572606082015260800190565b806001600160a01b03163b5f036130675786604051631101335b60e11b815260040161072a91815260406020808301829052908201527f4141313520696e6974436f6465206d757374206372656174652073656e646572606082015260800190565b5f6130756014828789613acb565b61307e91613af2565b60601c9050836001600160a01b031687602001517fd51a9c61267aa6196961883ecf5ff2da6619c37dac0fa92122513fb32c032d2d838a5f015160e001516040516130df9291906001600160a01b0392831681529116602082015260400190565b60405180910390a35050505050505050565b604080516060810182525f80825260208201819052918101919091528160a081901c65ffffffffffff81165f0361312b575065ffffffffffff5b604080516060810182526001600160a01b03909316835260d09490941c602083015265ffffffffffff16928101929092525090565b6040518060a001604052806131c96040518061014001604052805f6001600160a01b031681526020015f81526020015f81526020015f81526020015f81526020015f81526020015f81526020015f6001600160a01b031681526020015f81526020015f81525090565b81526020015f81526020015f81526020015f81526020015f81525090565b6040518060a001604052806132206040518060a001604052805f81526020015f81526020015f81526020015f8152602001606081525090565b815260200161324060405180604001604052805f81526020015f81525090565b815260200161326060405180604001604052805f81526020015f81525090565b815260200161328060405180604001604052805f81526020015f81525090565b815260200161328d613292565b905290565b60405180604001604052805f6001600160a01b0316815260200161328d60405180604001604052805f81526020015f81525090565b634e487b7160e01b5f52604160045260245ffd5b60a081018181106001600160401b03821117156132fa576132fa6132c7565b60405250565b601f8201601f191681016001600160401b0381118282101715613325576133256132c7565b6040525050565b60405161333b61014082613300565b90565b5f6001600160401b03821115613356576133566132c7565b50601f01601f191660200190565b6001600160a01b0381168114610c03575f5ffd5b803561338381613364565b919050565b5f8183036101c081121561339a575f5ffd5b6040516133a6816132db565b8092506101408212156133b7575f5ffd5b6133bf61332c565b91506133ca84613378565b82526020848101359083015260408085013590830152606080850135908301526080808501359083015260a0808501359083015260c0808501359083015261341460e08501613378565b60e0830152610100848101359083015261012080850135908301529081526101408301356020820152610160830135604082015261018083013560608201526101a090920135608090920191909152919050565b5f5f83601f840112613478575f5ffd5b5081356001600160401b0381111561348e575f5ffd5b6020830191508360208285010111156134a5575f5ffd5b9250929050565b5f5f5f5f61020085870312156134c0575f5ffd5b84356001600160401b038111156134d5575f5ffd5b8501601f810187136134e5575f5ffd5b80356134f08161333e565b6040516134fd8282613300565b828152896020848601011115613511575f5ffd5b826020850160208301375f60208483010152809750505050506135378660208701613388565b92506101e08501356001600160401b03811115613552575f5ffd5b61355e87828801613468565b95989497509550505050565b5f6020828403121561357a575f5ffd5b81356001600160e01b031981168114612db1575f5ffd5b5f602082840312156135a1575f5ffd5b813563ffffffff81168114612db1575f5ffd5b80356001600160c01b0381168114613383575f5ffd5b5f602082840312156135da575f5ffd5b612db1826135b4565b5f602082840312156135f3575f5ffd5b8135612db181613364565b5f5f6040838503121561360f575f5ffd5b823561361a81613364565b9150613628602084016135b4565b90509250929050565b5f5f60408385031215613642575f5ffd5b823561364d81613364565b946020939093013593505050565b5f610120828403121561366c575f5ffd5b50919050565b5f60208284031215613682575f5ffd5b81356001600160401b03811115613697575f5ffd5b6108908482850161365b565b5f5f83601f8401126136b3575f5ffd5b5081356001600160401b038111156136c9575f5ffd5b6020830191508360208260051b85010111156134a5575f5ffd5b5f5f5f604084860312156136f5575f5ffd5b83356001600160401b0381111561370a575f5ffd5b613716868287016136a3565b909450925050602084013561372a81613364565b809150509250925092565b5f5f5f60408486031215613747575f5ffd5b833561375281613364565b925060208401356001600160401b0381111561376c575f5ffd5b61377886828701613468565b9497909650939450505050565b5f5f5f5f5f60608688031215613799575f5ffd5b85356001600160401b038111156137ae575f5ffd5b6137ba88828901613468565b90965094505060208601356137ce81613364565b925060408601356001600160401b038111156137e8575f5ffd5b6137f488828901613468565b969995985093965092949392505050565b5f5f5f5f60608587031215613818575f5ffd5b84356001600160401b0381111561382d575f5ffd5b6138398782880161365b565b945050602085013561384a81613364565b925060408501356001600160401b03811115613552575f5ffd5b5f81518084528060208401602086015e5f602082860101526020601f19601f83011685010191505092915050565b60208152815160208201526020820151604082015260408201516060820152606082015160808201526080820151151560a08201525f60a083015160c08084015261089060e0840182613864565b5f5f602083850312156138f1575f5ffd5b82356001600160401b03811115613906575f5ffd5b61391285828601613468565b90969095509350505050565b602080825282516101408383015280516101608401529081015161018083015260408101516101a083015260608101516101c08301526080015160a06101e08301525f90613970610200840182613864565b9050602084015161398e604085018280518252602090810151910152565b506040840151805160808581019190915260209182015160a08601526060860151805160c087015282015160e086015285015180516001600160a01b0316610100860152808201518051610120870152909101516101408501525b509392505050565b634e487b7160e01b5f52601260045260245ffd5b634e487b7160e01b5f52601160045260245ffd5b8181038181111561091957610919613a05565b828152604060208201525f6108906040830184613864565b8082018082111561091957610919613a05565b5f60018201613a6857613a68613a05565b5060010190565b634e487b7160e01b5f52603260045260245ffd5b5f823561011e19833603018112613a98575f5ffd5b9190910192915050565b818382375f9101908152919050565b8215158152604060208201525f6108906040830184613864565b5f5f85851115613ad9575f5ffd5b83861115613ae5575f5ffd5b5050820193919092039150565b80356bffffffffffffffffffffffff198116906014841015613b38576bffffffffffffffffffffffff196bffffffffffffffffffffffff198560140360031b1b82161691505b5092915050565b81835281816020850137505f828201602090810191909152601f909101601f19169091010190565b602081525f610890602083018486613b3f565b5f60208284031215613b8a575f5ffd5b8151612db181613364565b65ffffffffffff818116838216019081111561091957610919613a05565b5f5f8335601e19843603018112613bc8575f5ffd5b8301803591506001600160401b03821115613be1575f5ffd5b6020019150368190038213156134a5575f5ffd5b5f8235605e19833603018112613a98575f5ffd5b5f5f8335601e19843603018112613c1e575f5ffd5b8301803591506001600160401b03821115613c37575f5ffd5b6020019150600581901b36038213156134a5575f5ffd5b5f5f8335601e19843603018112613c63575f5ffd5b83016020810192503590506001600160401b03811115613c81575f5ffd5b8036038213156134a5575f5ffd5b613ca982613c9c83613378565b6001600160a01b03169052565b602081810135908301525f613cc16040830183613c4e565b6101206040860152613cd861012086018284613b3f565b915050613ce86060840184613c4e565b8583036060870152613cfb838284613b3f565b6080868101359088015260a0808701359088015260c080870135908801529250613d2b91505060e0840184613c4e565b85830360e0870152613d3e838284613b3f565b92505050613d50610100840184613c4e565b858303610100870152613d64838284613b3f565b9695505050505050565b604080825281018490525f6060600586901b83018101908301878361011e1936839003015b89821015613dd757868503605f190184528235818112613db1575f5ffd5b613dbd868d8301613c8f565b955050602083019250602084019350600182019150613d93565b505050508281036020840152613dee818587613b3f565b979650505050505050565b634e487b7160e01b5f52602160045260245ffd5b5f60038610613e2a57634e487b7160e01b5f52602160045260245ffd5b85825260806020830152613e416080830186613864565b6040830194909452506060015292915050565b602081525f612db16020830184613864565b604081525f613e786040830185613c8f565b90508260208301529392505050565b805180516001600160a01b031683526020810151602084015260408101516040840152606081015160608401526080810151608084015260a081015160a084015260c081015160c084015260e0810151613eec60e08501826001600160a01b03169052565b5061010081810151908401526101209081015190830152602081015161014083015260408101516101608301526060810151610180830152608001516101a090910152565b61020081525f613f45610200830186613864565b613f526020840186613e87565b8281036101e0840152613d648185613864565b61020081525f613f7a61020083018688613b3f565b613f876020840186613e87565b8281036101e0840152613dee8185613864565b606081525f613fad606083018789613b3f565b6001600160a01b03861660208401528281036040840152613fcf818587613b3f565b98975050505050505050565b5f60033d111561333b5760045f5f3e505f5160e01c90565b5f60443d10156140005790565b6040513d600319016004823e80513d60248201116001600160401b038211171561402957505090565b80820180516001600160401b03811115614044575050505090565b3d840160031901828201602001111561405e575050505090565b6139e960208285010185613300565b606081525f61407f6060830186613c8f565b60208301949094525060400152919050565b5f602082840312156140a1575f5ffd5b5051919050565b82815260606020820152600d60608201526c10504c8cc81c995d995c9d1959609a1b608082015260a060408201525f61089060a0830184613864565b5f5f604083850312156140f5575f5ffd5b82516001600160401b0381111561410a575f5ffd5b8301601f8101851361411a575f5ffd5b80516141258161333e565b6040516141328282613300565b828152876020848601011115614146575f5ffd5b8260208501602083015e5f60209382018401529590910151949694955050505050565b82815260606020820152600d60608201526c10504cccc81c995d995c9d1959609a1b608082015260a060408201525f61089060a0830184613864565b80356001600160801b03198116906010841015613b38576001600160801b031960109490940360031b84901b169092169291505056fea26469706673582212206d08cef22c2886880ee0746a7e1ad6afbc09be045338b2f46652347eb17344c164736f6c634300081c00336080604052348015600e575f5ffd5b506101fc8061001c5f395ff3fe608060405234801561000f575f5ffd5b5060043610610029575f3560e01c8063570e1a361461002d575b5f5ffd5b61004061003b3660046100e4565b61005c565b6040516001600160a01b03909116815260200160405180910390f35b5f8061006b6014828587610152565b61007491610179565b60601c90505f6100878460148188610152565b8080601f0160208091040260200160405190810160405280939291908181526020018383808284375f92018290525084519495509360209350849250905082850182875af190505f519350806100db575f93505b50505092915050565b5f5f602083850312156100f5575f5ffd5b823567ffffffffffffffff81111561010b575f5ffd5b8301601f8101851361011b575f5ffd5b803567ffffffffffffffff811115610131575f5ffd5b856020828401011115610142575f5ffd5b6020919091019590945092505050565b5f5f85851115610160575f5ffd5b8386111561016c575f5ffd5b5050820193919092039150565b80356bffffffffffffffffffffffff1981169060148410156101bf576bffffffffffffffffffffffff196bffffffffffffffffffffffff198560140360031b1b82161691505b509291505056fea2646970667358221220282ab1a2d1904fe650fcff42cbd3a0e8e13f26632253742aa654e34d502b0d7b64736f6c634300081c0033","linkReferences":{}},"methodIdentifiers":{"_entrypointAddr()":"247cde48","_newSenderCreator()":"aa4d02d9","_validateSenderAndPaymaster(bytes,address,bytes)":"957122ab","addStake(uint32)":"0396cb60","balanceOf(address)":"70a08231","delegateAndRevert(address,bytes)":"850aaf62","depositTo(address)":"b760faf9","deposits(address)":"fc7e286d","getDepositInfo(address)":"5287ce12","getGasConsumed(address,uint256)":"ee5a97c8","getNonce(address,uint192)":"35567e1a","getSenderAddress(bytes)":"9b249f69","getUserOpHash((address,uint256,bytes,bytes,bytes32,uint256,bytes32,bytes,bytes))":"22cdde4c","handleAggregatedOps(((address,uint256,bytes,bytes,bytes32,uint256,bytes32,bytes,bytes)[],address,bytes)[],address)":"dbed18e0","handleOps((address,uint256,bytes,bytes,bytes32,uint256,bytes32,bytes,bytes)[],address)":"765e827f","incrementNonce(uint192)":"0bd28e3b","init(address)":"19ab453c","innerHandleOp(bytes,((address,uint256,uint256,uint256,uint256,uint256,uint256,address,uint256,uint256),bytes32,uint256,uint256,uint256),bytes)":"0042dc53","nonceSequenceNumber(address,uint192)":"1b2e01b8","simulateHandleOp((address,uint256,bytes,bytes,bytes32,uint256,bytes32,bytes,bytes),address,bytes)":"97b2dcb9","simulateValidation((address,uint256,bytes,bytes,bytes32,uint256,bytes32,bytes,bytes))":"c3bce009","supportsInterface(bytes4)":"01ffc9a7","unlockStake()":"bb9fe6bf","withdrawStake(address)":"c23a5cea","withdrawTo(address,uint256)":"205c2878"},"id":139}