{"abi":[{"type":"constructor","inputs":[{"name":"verifier","type":"address","internalType":"address"},{"name":"dkimRegistry","type":"address","internalType":"address"},{"name":"emailAuthImpl","type":"address","internalType":"address"},{"name":"commandHandler","type":"address","internalType":"address"},{"name":"minimumDelay","type":"uint256","internalType":"uint256"},{"name":"killSwitchAuthorizer","type":"address","internalType":"address"}],"stateMutability":"nonpayable"},{"type":"function","name":"CANCEL_EXPIRED_RECOVERY_COOLDOWN","inputs":[],"outputs":[{"name":"","type":"uint256","internalType":"uint256"}],"stateMutability":"view"},{"type":"function","name":"MAX_VALIDATORS","inputs":[],"outputs":[{"name":"","type":"uint256","internalType":"uint256"}],"stateMutability":"view"},{"type":"function","name":"MINIMUM_RECOVERY_WINDOW","inputs":[],"outputs":[{"name":"","type":"uint256","internalType":"uint256"}],"stateMutability":"view"},{"type":"function","name":"acceptanceCommandTemplates","inputs":[],"outputs":[{"name":"","type":"string[][]","internalType":"string[][]"}],"stateMutability":"view"},{"type":"function","name":"addGuardian","inputs":[{"name":"guardian","type":"address","internalType":"address"},{"name":"weight","type":"uint256","internalType":"uint256"}],"outputs":[],"stateMutability":"nonpayable"},{"type":"function","name":"allowValidatorRecovery","inputs":[{"name":"validator","type":"address","internalType":"address"},{"name":"isInstalledContext","type":"bytes","internalType":"bytes"},{"name":"recoverySelector","type":"bytes4","internalType":"bytes4"}],"outputs":[],"stateMutability":"nonpayable"},{"type":"function","name":"canStartRecoveryRequest","inputs":[{"name":"account","type":"address","internalType":"address"},{"name":"validator","type":"address","internalType":"address"}],"outputs":[{"name":"","type":"bool","internalType":"bool"}],"stateMutability":"view"},{"type":"function","name":"cancelExpiredRecovery","inputs":[{"name":"account","type":"address","internalType":"address"}],"outputs":[],"stateMutability":"nonpayable"},{"type":"function","name":"cancelRecovery","inputs":[],"outputs":[],"stateMutability":"nonpayable"},{"type":"function","name":"changeThreshold","inputs":[{"name":"threshold","type":"uint256","internalType":"uint256"}],"outputs":[],"stateMutability":"nonpayable"},{"type":"function","name":"commandHandler","inputs":[],"outputs":[{"name":"","type":"address","internalType":"address"}],"stateMutability":"view"},{"type":"function","name":"completeRecovery","inputs":[{"name":"account","type":"address","internalType":"address"},{"name":"recoveryData","type":"bytes","internalType":"bytes"}],"outputs":[],"stateMutability":"nonpayable"},{"type":"function","name":"computeAcceptanceTemplateId","inputs":[{"name":"templateIdx","type":"uint256","internalType":"uint256"}],"outputs":[{"name":"","type":"uint256","internalType":"uint256"}],"stateMutability":"pure"},{"type":"function","name":"computeEmailAuthAddress","inputs":[{"name":"recoveredAccount","type":"address","internalType":"address"},{"name":"accountSalt","type":"bytes32","internalType":"bytes32"}],"outputs":[{"name":"","type":"address","internalType":"address"}],"stateMutability":"view"},{"type":"function","name":"computeRecoveryTemplateId","inputs":[{"name":"templateIdx","type":"uint256","internalType":"uint256"}],"outputs":[{"name":"","type":"uint256","internalType":"uint256"}],"stateMutability":"pure"},{"type":"function","name":"disallowValidatorRecovery","inputs":[{"name":"validator","type":"address","internalType":"address"},{"name":"prevValidator","type":"address","internalType":"address"},{"name":"recoverySelector","type":"bytes4","internalType":"bytes4"}],"outputs":[],"stateMutability":"nonpayable"},{"type":"function","name":"dkim","inputs":[],"outputs":[{"name":"","type":"address","internalType":"address"}],"stateMutability":"view"},{"type":"function","name":"dkimAddr","inputs":[],"outputs":[{"name":"","type":"address","internalType":"address"}],"stateMutability":"view"},{"type":"function","name":"emailAuthImplementation","inputs":[],"outputs":[{"name":"","type":"address","internalType":"address"}],"stateMutability":"view"},{"type":"function","name":"emailAuthImplementationAddr","inputs":[],"outputs":[{"name":"","type":"address","internalType":"address"}],"stateMutability":"view"},{"type":"function","name":"exposed_acceptGuardian","inputs":[{"name":"guardian","type":"address","internalType":"address"},{"name":"templateIdx","type":"uint256","internalType":"uint256"},{"name":"commandParams","type":"bytes[]","internalType":"bytes[]"},{"name":"nullifier","type":"bytes32","internalType":"bytes32"}],"outputs":[],"stateMutability":"nonpayable"},{"type":"function","name":"exposed_allowedSelectors","inputs":[{"name":"validator","type":"address","internalType":"address"},{"name":"account","type":"address","internalType":"address"}],"outputs":[{"name":"","type":"bytes4","internalType":"bytes4"}],"stateMutability":"view"},{"type":"function","name":"exposed_clearRecoveryRequest","inputs":[{"name":"account","type":"address","internalType":"address"}],"outputs":[],"stateMutability":"nonpayable"},{"type":"function","name":"exposed_configureRecovery","inputs":[{"name":"guardians","type":"address[]","internalType":"address[]"},{"name":"weights","type":"uint256[]","internalType":"uint256[]"},{"name":"threshold","type":"uint256","internalType":"uint256"},{"name":"delay","type":"uint256","internalType":"uint256"},{"name":"expiry","type":"uint256","internalType":"uint256"}],"outputs":[],"stateMutability":"nonpayable"},{"type":"function","name":"exposed_deInitRecoveryModule","inputs":[{"name":"account","type":"address","internalType":"address"}],"outputs":[],"stateMutability":"nonpayable"},{"type":"function","name":"exposed_deInitRecoveryModule","inputs":[],"outputs":[],"stateMutability":"nonpayable"},{"type":"function","name":"exposed_processRecovery","inputs":[{"name":"guardian","type":"address","internalType":"address"},{"name":"templateIdx","type":"uint256","internalType":"uint256"},{"name":"commandParams","type":"bytes[]","internalType":"bytes[]"},{"name":"nullifier","type":"bytes32","internalType":"bytes32"}],"outputs":[],"stateMutability":"nonpayable"},{"type":"function","name":"exposed_recover","inputs":[{"name":"account","type":"address","internalType":"address"},{"name":"recoveryData","type":"bytes","internalType":"bytes"}],"outputs":[],"stateMutability":"nonpayable"},{"type":"function","name":"exposed_removeAllGuardians","inputs":[{"name":"account","type":"address","internalType":"address"}],"outputs":[],"stateMutability":"nonpayable"},{"type":"function","name":"exposed_setupGuardians","inputs":[{"name":"account","type":"address","internalType":"address"},{"name":"guardians","type":"address[]","internalType":"address[]"},{"name":"weights","type":"uint256[]","internalType":"uint256[]"},{"name":"threshold","type":"uint256","internalType":"uint256"}],"outputs":[{"name":"","type":"uint256","internalType":"uint256"},{"name":"","type":"uint256","internalType":"uint256"}],"stateMutability":"nonpayable"},{"type":"function","name":"exposed_updateGuardianStatus","inputs":[{"name":"account","type":"address","internalType":"address"},{"name":"guardian","type":"address","internalType":"address"},{"name":"newStatus","type":"uint8","internalType":"enum GuardianStatus"}],"outputs":[],"stateMutability":"nonpayable"},{"type":"function","name":"extractRecoveredAccountFromAcceptanceCommand","inputs":[{"name":"commandParams","type":"bytes[]","internalType":"bytes[]"},{"name":"templateIdx","type":"uint256","internalType":"uint256"}],"outputs":[{"name":"","type":"address","internalType":"address"}],"stateMutability":"view"},{"type":"function","name":"extractRecoveredAccountFromRecoveryCommand","inputs":[{"name":"commandParams","type":"bytes[]","internalType":"bytes[]"},{"name":"templateIdx","type":"uint256","internalType":"uint256"}],"outputs":[{"name":"","type":"address","internalType":"address"}],"stateMutability":"view"},{"type":"function","name":"getAllGuardians","inputs":[{"name":"account","type":"address","internalType":"address"}],"outputs":[{"name":"","type":"address[]","internalType":"address[]"}],"stateMutability":"view"},{"type":"function","name":"getAllowedSelectors","inputs":[{"name":"account","type":"address","internalType":"address"}],"outputs":[{"name":"","type":"bytes4[]","internalType":"bytes4[]"}],"stateMutability":"view"},{"type":"function","name":"getAllowedValidators","inputs":[{"name":"account","type":"address","internalType":"address"}],"outputs":[{"name":"","type":"address[]","internalType":"address[]"}],"stateMutability":"view"},{"type":"function","name":"getGuardian","inputs":[{"name":"account","type":"address","internalType":"address"},{"name":"guardian","type":"address","internalType":"address"}],"outputs":[{"name":"","type":"tuple","internalType":"struct GuardianStorage","components":[{"name":"status","type":"uint8","internalType":"enum GuardianStatus"},{"name":"weight","type":"uint256","internalType":"uint256"}]}],"stateMutability":"view"},{"type":"function","name":"getGuardianConfig","inputs":[{"name":"account","type":"address","internalType":"address"}],"outputs":[{"name":"","type":"tuple","internalType":"struct IGuardianManager.GuardianConfig","components":[{"name":"guardianCount","type":"uint256","internalType":"uint256"},{"name":"totalWeight","type":"uint256","internalType":"uint256"},{"name":"acceptedWeight","type":"uint256","internalType":"uint256"},{"name":"threshold","type":"uint256","internalType":"uint256"}]}],"stateMutability":"view"},{"type":"function","name":"getPreviousRecoveryRequest","inputs":[{"name":"account","type":"address","internalType":"address"}],"outputs":[{"name":"","type":"tuple","internalType":"struct IEmailRecoveryManager.PreviousRecoveryRequest","components":[{"name":"previousGuardianInitiated","type":"address","internalType":"address"},{"name":"cancelRecoveryCooldown","type":"uint256","internalType":"uint256"}]}],"stateMutability":"view"},{"type":"function","name":"getRecoveryConfig","inputs":[{"name":"account","type":"address","internalType":"address"}],"outputs":[{"name":"","type":"tuple","internalType":"struct IEmailRecoveryManager.RecoveryConfig","components":[{"name":"delay","type":"uint256","internalType":"uint256"},{"name":"expiry","type":"uint256","internalType":"uint256"}]}],"stateMutability":"view"},{"type":"function","name":"getRecoveryRequest","inputs":[{"name":"account","type":"address","internalType":"address"}],"outputs":[{"name":"executeAfter","type":"uint256","internalType":"uint256"},{"name":"executeBefore","type":"uint256","internalType":"uint256"},{"name":"currentWeight","type":"uint256","internalType":"uint256"},{"name":"recoveryDataHash","type":"bytes32","internalType":"bytes32"}],"stateMutability":"view"},{"type":"function","name":"handleAcceptance","inputs":[{"name":"emailAuthMsg","type":"tuple","internalType":"struct EmailAuthMsg","components":[{"name":"templateId","type":"uint256","internalType":"uint256"},{"name":"commandParams","type":"bytes[]","internalType":"bytes[]"},{"name":"skippedCommandPrefix","type":"uint256","internalType":"uint256"},{"name":"proof","type":"tuple","internalType":"struct EmailProof","components":[{"name":"domainName","type":"string","internalType":"string"},{"name":"publicKeyHash","type":"bytes32","internalType":"bytes32"},{"name":"timestamp","type":"uint256","internalType":"uint256"},{"name":"maskedCommand","type":"string","internalType":"string"},{"name":"emailNullifier","type":"bytes32","internalType":"bytes32"},{"name":"accountSalt","type":"bytes32","internalType":"bytes32"},{"name":"isCodeExist","type":"bool","internalType":"bool"},{"name":"proof","type":"bytes","internalType":"bytes"}]}]},{"name":"templateIdx","type":"uint256","internalType":"uint256"}],"outputs":[],"stateMutability":"nonpayable"},{"type":"function","name":"handleRecovery","inputs":[{"name":"emailAuthMsg","type":"tuple","internalType":"struct EmailAuthMsg","components":[{"name":"templateId","type":"uint256","internalType":"uint256"},{"name":"commandParams","type":"bytes[]","internalType":"bytes[]"},{"name":"skippedCommandPrefix","type":"uint256","internalType":"uint256"},{"name":"proof","type":"tuple","internalType":"struct EmailProof","components":[{"name":"domainName","type":"string","internalType":"string"},{"name":"publicKeyHash","type":"bytes32","internalType":"bytes32"},{"name":"timestamp","type":"uint256","internalType":"uint256"},{"name":"maskedCommand","type":"string","internalType":"string"},{"name":"emailNullifier","type":"bytes32","internalType":"bytes32"},{"name":"accountSalt","type":"bytes32","internalType":"bytes32"},{"name":"isCodeExist","type":"bool","internalType":"bool"},{"name":"proof","type":"bytes","internalType":"bytes"}]}]},{"name":"templateIdx","type":"uint256","internalType":"uint256"}],"outputs":[],"stateMutability":"nonpayable"},{"type":"function","name":"hasGuardianVoted","inputs":[{"name":"account","type":"address","internalType":"address"},{"name":"guardian","type":"address","internalType":"address"}],"outputs":[{"name":"","type":"bool","internalType":"bool"}],"stateMutability":"view"},{"type":"function","name":"isActivated","inputs":[{"name":"account","type":"address","internalType":"address"}],"outputs":[{"name":"","type":"bool","internalType":"bool"}],"stateMutability":"view"},{"type":"function","name":"isInitialized","inputs":[{"name":"account","type":"address","internalType":"address"}],"outputs":[{"name":"","type":"bool","internalType":"bool"}],"stateMutability":"view"},{"type":"function","name":"isModuleType","inputs":[{"name":"typeID","type":"uint256","internalType":"uint256"}],"outputs":[{"name":"","type":"bool","internalType":"bool"}],"stateMutability":"pure"},{"type":"function","name":"killSwitchEnabled","inputs":[],"outputs":[{"name":"","type":"bool","internalType":"bool"}],"stateMutability":"view"},{"type":"function","name":"minimumDelay","inputs":[],"outputs":[{"name":"","type":"uint256","internalType":"uint256"}],"stateMutability":"view"},{"type":"function","name":"name","inputs":[],"outputs":[{"name":"","type":"string","internalType":"string"}],"stateMutability":"pure"},{"type":"function","name":"onInstall","inputs":[{"name":"data","type":"bytes","internalType":"bytes"}],"outputs":[],"stateMutability":"nonpayable"},{"type":"function","name":"onUninstall","inputs":[{"name":"","type":"bytes","internalType":"bytes"}],"outputs":[],"stateMutability":"nonpayable"},{"type":"function","name":"owner","inputs":[],"outputs":[{"name":"","type":"address","internalType":"address"}],"stateMutability":"view"},{"type":"function","name":"recoveryCommandTemplates","inputs":[],"outputs":[{"name":"","type":"string[][]","internalType":"string[][]"}],"stateMutability":"view"},{"type":"function","name":"removeGuardian","inputs":[{"name":"guardian","type":"address","internalType":"address"}],"outputs":[],"stateMutability":"nonpayable"},{"type":"function","name":"renounceOwnership","inputs":[],"outputs":[],"stateMutability":"nonpayable"},{"type":"function","name":"toggleKillSwitch","inputs":[],"outputs":[],"stateMutability":"nonpayable"},{"type":"function","name":"transferOwnership","inputs":[{"name":"newOwner","type":"address","internalType":"address"}],"outputs":[],"stateMutability":"nonpayable"},{"type":"function","name":"updateRecoveryConfig","inputs":[{"name":"recoveryConfig","type":"tuple","internalType":"struct IEmailRecoveryManager.RecoveryConfig","components":[{"name":"delay","type":"uint256","internalType":"uint256"},{"name":"expiry","type":"uint256","internalType":"uint256"}]}],"outputs":[],"stateMutability":"nonpayable"},{"type":"function","name":"validatorCount","inputs":[{"name":"account","type":"address","internalType":"address"}],"outputs":[{"name":"count","type":"uint256","internalType":"uint256"}],"stateMutability":"view"},{"type":"function","name":"verifier","inputs":[],"outputs":[{"name":"","type":"address","internalType":"address"}],"stateMutability":"view"},{"type":"function","name":"verifierAddr","inputs":[],"outputs":[{"name":"","type":"address","internalType":"address"}],"stateMutability":"view"},{"type":"function","name":"version","inputs":[],"outputs":[{"name":"","type":"string","internalType":"string"}],"stateMutability":"pure"},{"type":"function","name":"workaround_getVoteCount","inputs":[{"name":"account","type":"address","internalType":"address"}],"outputs":[{"name":"","type":"uint256","internalType":"uint256"}],"stateMutability":"view"},{"type":"function","name":"workaround_validatorsContains","inputs":[{"name":"account","type":"address","internalType":"address"},{"name":"validator","type":"address","internalType":"address"}],"outputs":[{"name":"","type":"bool","internalType":"bool"}],"stateMutability":"view"},{"type":"function","name":"workaround_validatorsPush","inputs":[{"name":"account","type":"address","internalType":"address"},{"name":"validator","type":"address","internalType":"address"}],"outputs":[],"stateMutability":"nonpayable"},{"type":"event","name":"AddedGuardian","inputs":[{"name":"account","type":"address","indexed":true,"internalType":"address"},{"name":"guardian","type":"address","indexed":true,"internalType":"address"},{"name":"weight","type":"uint256","indexed":false,"internalType":"uint256"}],"anonymous":false},{"type":"event","name":"ChangedThreshold","inputs":[{"name":"account","type":"address","indexed":true,"internalType":"address"},{"name":"threshold","type":"uint256","indexed":false,"internalType":"uint256"}],"anonymous":false},{"type":"event","name":"GuardianAccepted","inputs":[{"name":"account","type":"address","indexed":true,"internalType":"address"},{"name":"guardian","type":"address","indexed":true,"internalType":"address"}],"anonymous":false},{"type":"event","name":"GuardianStatusUpdated","inputs":[{"name":"account","type":"address","indexed":true,"internalType":"address"},{"name":"guardian","type":"address","indexed":true,"internalType":"address"},{"name":"newStatus","type":"uint8","indexed":false,"internalType":"enum GuardianStatus"}],"anonymous":false},{"type":"event","name":"GuardianVoted","inputs":[{"name":"account","type":"address","indexed":true,"internalType":"address"},{"name":"guardian","type":"address","indexed":true,"internalType":"address"},{"name":"currentWeight","type":"uint256","indexed":false,"internalType":"uint256"},{"name":"guardianWeight","type":"uint256","indexed":false,"internalType":"uint256"}],"anonymous":false},{"type":"event","name":"NewValidatorRecovery","inputs":[{"name":"account","type":"address","indexed":true,"internalType":"address"},{"name":"validator","type":"address","indexed":true,"internalType":"address"},{"name":"recoverySelector","type":"bytes4","indexed":false,"internalType":"bytes4"}],"anonymous":false},{"type":"event","name":"OwnershipTransferred","inputs":[{"name":"previousOwner","type":"address","indexed":true,"internalType":"address"},{"name":"newOwner","type":"address","indexed":true,"internalType":"address"}],"anonymous":false},{"type":"event","name":"RecoveryCancelled","inputs":[{"name":"account","type":"address","indexed":true,"internalType":"address"}],"anonymous":false},{"type":"event","name":"RecoveryCompleted","inputs":[{"name":"account","type":"address","indexed":true,"internalType":"address"}],"anonymous":false},{"type":"event","name":"RecoveryConfigUpdated","inputs":[{"name":"account","type":"address","indexed":true,"internalType":"address"},{"name":"delay","type":"uint256","indexed":false,"internalType":"uint256"},{"name":"expiry","type":"uint256","indexed":false,"internalType":"uint256"}],"anonymous":false},{"type":"event","name":"RecoveryConfigured","inputs":[{"name":"account","type":"address","indexed":true,"internalType":"address"},{"name":"guardianCount","type":"uint256","indexed":false,"internalType":"uint256"},{"name":"totalWeight","type":"uint256","indexed":false,"internalType":"uint256"},{"name":"threshold","type":"uint256","indexed":false,"internalType":"uint256"}],"anonymous":false},{"type":"event","name":"RecoveryDeInitialized","inputs":[{"name":"account","type":"address","indexed":true,"internalType":"address"}],"anonymous":false},{"type":"event","name":"RecoveryExecuted","inputs":[{"name":"account","type":"address","indexed":true,"internalType":"address"},{"name":"validator","type":"address","indexed":true,"internalType":"address"}],"anonymous":false},{"type":"event","name":"RecoveryRequestComplete","inputs":[{"name":"account","type":"address","indexed":true,"internalType":"address"},{"name":"guardian","type":"address","indexed":true,"internalType":"address"},{"name":"executeAfter","type":"uint256","indexed":false,"internalType":"uint256"},{"name":"executeBefore","type":"uint256","indexed":false,"internalType":"uint256"},{"name":"recoveryDataHash","type":"bytes32","indexed":false,"internalType":"bytes32"}],"anonymous":false},{"type":"event","name":"RecoveryRequestStarted","inputs":[{"name":"account","type":"address","indexed":true,"internalType":"address"},{"name":"guardian","type":"address","indexed":true,"internalType":"address"},{"name":"executeBefore","type":"uint256","indexed":false,"internalType":"uint256"},{"name":"recoveryDataHash","type":"bytes32","indexed":false,"internalType":"bytes32"}],"anonymous":false},{"type":"event","name":"RemovedGuardian","inputs":[{"name":"account","type":"address","indexed":true,"internalType":"address"},{"name":"guardian","type":"address","indexed":true,"internalType":"address"},{"name":"weight","type":"uint256","indexed":false,"internalType":"uint256"}],"anonymous":false},{"type":"event","name":"RemovedValidatorRecovery","inputs":[{"name":"account","type":"address","indexed":true,"internalType":"address"},{"name":"validator","type":"address","indexed":true,"internalType":"address"},{"name":"recoverySelector","type":"bytes4","indexed":false,"internalType":"bytes4"}],"anonymous":false},{"type":"error","name":"AccountNotConfigured","inputs":[]},{"type":"error","name":"AddressAlreadyGuardian","inputs":[]},{"type":"error","name":"AddressNotGuardianForAccount","inputs":[]},{"type":"error","name":"DelayLessThanMinimumDelay","inputs":[{"name":"delay","type":"uint256","internalType":"uint256"},{"name":"minimumDelay","type":"uint256","internalType":"uint256"}]},{"type":"error","name":"DelayMoreThanExpiry","inputs":[{"name":"delay","type":"uint256","internalType":"uint256"},{"name":"expiry","type":"uint256","internalType":"uint256"}]},{"type":"error","name":"DelayNotPassed","inputs":[{"name":"blockTimestamp","type":"uint256","internalType":"uint256"},{"name":"executeAfter","type":"uint256","internalType":"uint256"}]},{"type":"error","name":"GuardianAlreadyVoted","inputs":[]},{"type":"error","name":"GuardianMustWaitForCooldown","inputs":[{"name":"guardian","type":"address","internalType":"address"}]},{"type":"error","name":"IncorrectNumberOfWeights","inputs":[{"name":"guardianCount","type":"uint256","internalType":"uint256"},{"name":"weightCount","type":"uint256","internalType":"uint256"}]},{"type":"error","name":"InvalidAccountAddress","inputs":[]},{"type":"error","name":"InvalidCommandHandler","inputs":[]},{"type":"error","name":"InvalidDkimRegistry","inputs":[]},{"type":"error","name":"InvalidEmailAuthImpl","inputs":[]},{"type":"error","name":"InvalidFactory","inputs":[]},{"type":"error","name":"InvalidGuardianAddress","inputs":[{"name":"guardian","type":"address","internalType":"address"}]},{"type":"error","name":"InvalidGuardianStatus","inputs":[{"name":"guardianStatus","type":"uint8","internalType":"enum GuardianStatus"},{"name":"expectedGuardianStatus","type":"uint8","internalType":"enum GuardianStatus"}]},{"type":"error","name":"InvalidGuardianWeight","inputs":[]},{"type":"error","name":"InvalidKillSwitchAuthorizer","inputs":[]},{"type":"error","name":"InvalidOnInstallData","inputs":[]},{"type":"error","name":"InvalidProxyBytecodeHash","inputs":[]},{"type":"error","name":"InvalidRecoveryDataHash","inputs":[{"name":"recoveryDataHash","type":"bytes32","internalType":"bytes32"},{"name":"expectedRecoveryDataHash","type":"bytes32","internalType":"bytes32"}]},{"type":"error","name":"InvalidSelector","inputs":[{"name":"selector","type":"bytes4","internalType":"bytes4"}]},{"type":"error","name":"InvalidValidator","inputs":[{"name":"validator","type":"address","internalType":"address"}]},{"type":"error","name":"InvalidVerifier","inputs":[]},{"type":"error","name":"KillSwitchEnabled","inputs":[]},{"type":"error","name":"LinkedList_AlreadyInitialized","inputs":[]},{"type":"error","name":"LinkedList_EntryAlreadyInList","inputs":[{"name":"entry","type":"address","internalType":"address"}]},{"type":"error","name":"LinkedList_InvalidEntry","inputs":[{"name":"entry","type":"address","internalType":"address"}]},{"type":"error","name":"LinkedList_InvalidPage","inputs":[]},{"type":"error","name":"MaxNumberOfGuardiansReached","inputs":[]},{"type":"error","name":"MaxValidatorsReached","inputs":[]},{"type":"error","name":"ModuleAlreadyInitialized","inputs":[{"name":"smartAccount","type":"address","internalType":"address"}]},{"type":"error","name":"NoRecoveryConfigured","inputs":[]},{"type":"error","name":"NoRecoveryInProcess","inputs":[]},{"type":"error","name":"NotEnoughApprovals","inputs":[{"name":"currentWeight","type":"uint256","internalType":"uint256"},{"name":"threshold","type":"uint256","internalType":"uint256"}]},{"type":"error","name":"NotInitialized","inputs":[{"name":"smartAccount","type":"address","internalType":"address"}]},{"type":"error","name":"OwnableInvalidOwner","inputs":[{"name":"owner","type":"address","internalType":"address"}]},{"type":"error","name":"OwnableUnauthorizedAccount","inputs":[{"name":"account","type":"address","internalType":"address"}]},{"type":"error","name":"RecoveryHasNotExpired","inputs":[{"name":"account","type":"address","internalType":"address"},{"name":"blockTimestamp","type":"uint256","internalType":"uint256"},{"name":"executeBefore","type":"uint256","internalType":"uint256"}]},{"type":"error","name":"RecoveryInProcess","inputs":[]},{"type":"error","name":"RecoveryIsNotActivated","inputs":[]},{"type":"error","name":"RecoveryModuleNotInitialized","inputs":[]},{"type":"error","name":"RecoveryRequestExpired","inputs":[{"name":"blockTimestamp","type":"uint256","internalType":"uint256"},{"name":"executeBefore","type":"uint256","internalType":"uint256"}]},{"type":"error","name":"RecoveryWindowTooShort","inputs":[{"name":"recoveryWindow","type":"uint256","internalType":"uint256"}]},{"type":"error","name":"SetupAlreadyCalled","inputs":[]},{"type":"error","name":"SetupNotCalled","inputs":[]},{"type":"error","name":"StatusCannotBeTheSame","inputs":[{"name":"newStatus","type":"uint8","internalType":"enum GuardianStatus"}]},{"type":"error","name":"ThresholdCannotBeZero","inputs":[]},{"type":"error","name":"ThresholdExceedsAcceptedWeight","inputs":[{"name":"threshold","type":"uint256","internalType":"uint256"},{"name":"acceptedWeight","type":"uint256","internalType":"uint256"}]},{"type":"error","name":"ThresholdExceedsTotalWeight","inputs":[{"name":"threshold","type":"uint256","internalType":"uint256"},{"name":"totalWeight","type":"uint256","internalType":"uint256"}]},{"type":"error","name":"TooManyValuesToRemove","inputs":[]}],"bytecode":{"object":"0x60c060405234801561000f575f5ffd5b50604051615f10380380615f1083398101604081905261002e916101fb565b858585858585858585858585806001600160a01b03811661006857604051631e4fbdf760e01b81525f600482015260240160405180910390fd5b6100718161018f565b506001600160a01b0386166100995760405163baa3de5f60e01b815260040160405180910390fd5b6001600160a01b0385166100c05760405163260ce05b60e01b815260040160405180910390fd5b6001600160a01b0384166100e75760405163e98100fb60e01b815260040160405180910390fd5b6001600160a01b03831661010e5760405163fce1ed6f60e01b815260040160405180910390fd5b6001600160a01b03811661013557604051630a19006f60e01b815260040160405180910390fd5b505f80546001600160a01b03199081166001600160a01b0397881617909155600180548216958716959095179094556002805490941692851692909217909255911660805260a052506102649a5050505050505050505050565b600580546001600160a01b038381166001600160a01b0319831681179093556040519116919082907f8be0079c531659141344cd1fd0a4f28419497f9722a3daafe3b4186f6b6457e0905f90a35050565b80516001600160a01b03811681146101f6575f5ffd5b919050565b5f5f5f5f5f5f60c08789031215610210575f5ffd5b610219876101e0565b9550610227602088016101e0565b9450610235604088016101e0565b9350610243606088016101e0565b92506080870151915061025860a088016101e0565b90509295509295509295565b60805160a051615c4c6102c45f395f8181610644015281816114ae01526114ec01525f818161098c015281816116fa015281816117980152818161198d015281816120d701528181612d08015281816133d7015261357c0152615c4c5ff3fe608060405234801561000f575f5ffd5b50600436106103d5575f3560e01c8063714897df11610200578063c18d09cf1161011f578063d786460e116100b4578063f04b12dc11610084578063f04b12dc14610a41578063f2467aa014610a54578063f2fde38b14610a67578063f9c852b714610a7a578063ffd55e3c14610aa2575f5ffd5b8063d786460e146109e7578063d7d5d3d1146109fa578063da34a85014610a0d578063ecd0596114610a2d575f5ffd5b8063d15558bf116100ef578063d15558bf14610987578063d4ab721e146109ae578063d60b347f146109c1578063d779a850146109d4575f5ffd5b8063c18d09cf1461092b578063c7f530221461093e578063c9faa7c514610951578063cfa6c75e1461097f575f5ffd5b80639c8f843911610195578063b620169211610165578063b6201692146108d4578063b68126fa146108e5578063b7f0d5cb146108f8578063bbd2a05e1461090b575f5ffd5b80639c8f84391461087c578063a5e3ee701461088f578063ab1b5fde146108a2578063b264314f146108b5575f5ffd5b806386b97e51116101d057806386b97e51146107d45780638a91b0e31461084e5780638da5cb5b146108615780639915068014610872575f5ffd5b8063714897df1461079e578063715018a6146107a657806373357f85146107ae57806378389c3a146107c1575f5ffd5b80633a8eab14116102f757806354fd4d501161028c578063663ea2e21161025c578063663ea2e214610740578063694e80c3146107525780636d61fe70146107655780636da9951514610778578063714041561461078b575f5ffd5b806354fd4d50146106df5780635707f31814610700578063621a38dd1461070a578063647e28531461071d575f5ffd5b8063427ad624116102c7578063427ad6241461063f5780634630f1d5146106665780634e99fc0b1461066e5780634f9a28b914610681575f5ffd5b80633a8eab14146106005780633d438e36146106135780633ef01b8f14610626578063400ad5ce1461062e575f5ffd5b80631788178f1161036d5780632b7ac3f31161033d5780632b7ac3f3146105745780632c4ce1291461058457806332ccc2f214610597578063398a27ee146105b8575f5ffd5b80631788178f146104be57806318baa84b146104d1578063222f6cb5146104f15780632788bbda14610506575f5ffd5b80630ba234d6116103a85780630ba234d6146104325780630bb6094a1461043a5780631098e02e14610480578063111e5313146104ab575f5ffd5b806301eedf2c146103d95780630481af67146103ee57806306fdde03146104015780630ad12b611461041f575b5f5ffd5b6103ec6103e73660046146b5565b610ab6565b005b6103ec6103fc3660046148c4565b610bf8565b6104096110a2565b6040516104169190614a63565b60405180910390f35b6103ec61042d366004614a75565b6110c2565b6103ec6110ce565b61044d610448366004614a75565b6111b8565b60405161041691908151815260208083015190820152604080830151908201526060918201519181019190915260800190565b600254610493906001600160a01b031681565b6040516001600160a01b039091168152602001610416565b6103ec6104b9366004614a90565b611229565b6103ec6104cc366004614aba565b611372565b6104e46104df366004614a75565b6115f0565b6040516104169190614b08565b6104f96116f6565b6040516104169190614bae565b610559610514366004614a75565b604080518082019091525f8082526020820152506001600160a01b03165f90815260066020908152604091829020825180840190935280548352600101549082015290565b60408051825181526020928301519281019290925201610416565b5f546001600160a01b0316610493565b610493610592366004614c11565b61177f565b6105aa6105a5366004614c52565b611817565b604051908152602001610416565b6105f36105c6366004614c69565b6001600160a01b039182165f908152600b6020908152604080832093909416825291909152205460e01b90565b6040516104169190614ca0565b61049361060e366004614a90565b61186e565b6103ec610621366004614c69565b61193c565b6104f9611989565b6001546001600160a01b0316610493565b6105aa7f000000000000000000000000000000000000000000000000000000000000000081565b6103ec6119e6565b6103ec61067c366004614cb5565b611a0f565b6106bf61068f366004614a75565b6001600160a01b03165f908152600760205260409020805460018201546002830154600390930154919390929190565b604080519485526020850193909352918301526060820152608001610416565b6040805180820190915260058152640312e302e360dc1b6020820152610409565b6105aa6201518081565b6103ec610718366004614cb5565b611a1b565b61073061072b366004614c69565b611a27565b6040519015158152602001610416565b5f54610493906001600160a01b031681565b6103ec610760366004614c52565b611a7f565b6103ec610773366004614d55565b611c7a565b6105aa610786366004614c52565b611cfe565b6103ec610799366004614a75565b611d13565b6105aa602081565b6103ec611fdc565b600154610493906001600160a01b031681565b6103ec6107cf366004614a75565b611fef565b61082a6107e2366004614a75565b6040805180820182525f80825260209182018190526001600160a01b039384168152600882528290208251808401909352805490931682526001909201549181019190915290565b6040805182516001600160a01b031681526020928301519281019290925201610416565b6103ec61085c366004614d55565b611ff8565b6005546001600160a01b0316610493565b6105aa6202a30081565b61073061088a366004614c69565b61209a565b61049361089d366004614c11565b6120be565b6103ec6108b0366004614a75565b61210e565b6105aa6108c3366004614a75565b600a6020525f908152604090205481565b6002546001600160a01b0316610493565b6103ec6108f33660046148c4565b612299565b6103ec610906366004614a75565b612452565b61091e610919366004614a75565b61245b565b6040516104169190614d93565b6103ec610939366004614dd3565b61247e565b61091e61094c366004614a75565b6126a6565b61073061095f366004614a75565b6001600160a01b03165f9081526003602081905260409091200154151590565b6103ec6126d8565b6104937f000000000000000000000000000000000000000000000000000000000000000081565b6107306109bc366004614c69565b6126e0565b6107306109cf366004614a75565b612701565b6103ec6109e2366004614e23565b612717565b6105aa6109f5366004614a75565b6129c5565b6103ec610a08366004614dd3565b6129ef565b610a20610a1b366004614c69565b6129fa565b6040516104169190614ea9565b610730610a3b366004614c52565b60021490565b6103ec610a4f366004614f88565b612a2e565b6103ec610a62366004615004565b612a42565b6103ec610a75366004614a75565b612a4d565b610a8d610a8836600461508f565b612a87565b60408051928352602083019190915201610416565b60055461073090600160a01b900460ff1681565b335f908152600960209081526040808320600184529091529020546001600160a01b0316610af757604051630b088c2360e01b815260040160405180910390fd5b335f908152600960205260409020610b10908385612b06565b335f908152600a60205260408120805491610b2a8361512b565b90915550506001600160a01b0383165f908152600b6020908152604080832033845290915290205460e01b6001600160e01b031990811690821614610b8d57806040516312ba286f60e01b8152600401610b849190614ca0565b60405180910390fd5b6001600160a01b0383165f818152600b6020908152604080832033808552925291829020805463ffffffff1916905590517ff0197ce362f35457b805abe6aecdbf4435a7d26f4e4a8721f3ccf16e40a9fa8990610beb908590614ca0565b60405180910390a3505050565b5f610c0783602001518361177f565b90506001600160a01b038116610c5a5760405162461bcd60e51b81526020600482015260186024820152771a5b9d985b1a59081858d8dbdd5b9d081a5b88195b585a5b60421b6044820152606401610b84565b5f610c6d82856060015160a0015161186e565b90505f610c7984611817565b85519091508114610cc25760405162461bcd60e51b81526020600482015260136024820152721a5b9d985b1a59081d195b5c1b185d19481a59606a1b6044820152606401610b84565b606085015160c001511515600114610d135760405162461bcd60e51b81526020600482015260146024820152736973436f646545786973742069732066616c736560601b6044820152606401610b84565b5f826001600160a01b03163b5f03610f71575f610d3885886060015160a00151612bd9565b9050809150816001600160a01b031663557cf5ef610d5e6001546001600160a01b031690565b6040516001600160e01b031960e084901b1681526001600160a01b0390911660048201526024015f604051808303815f87803b158015610d9c575f5ffd5b505af1158015610dae573d5f5f3e3d5ffd5b50505050816001600160a01b0316634141407c610dd25f546001600160a01b031690565b6040516001600160e01b031960e084901b1681526001600160a01b0390911660048201526024015f604051808303815f87803b158015610e10575f5ffd5b505af1158015610e22573d5f5f3e3d5ffd5b505f925050505b610e316116f6565b51811015610ec857826001600160a01b0316638ff3730f610e5183611817565b610e596116f6565b8481518110610e6a57610e6a615140565b60200260200101516040518363ffffffff1660e01b8152600401610e8f929190615154565b5f604051808303815f87803b158015610ea6575f5ffd5b505af1158015610eb8573d5f5f3e3d5ffd5b505060019092019150610e299050565b505f5b610ed3611989565b51811015610f6a57826001600160a01b0316638ff3730f610ef383611cfe565b610efb611989565b8481518110610f0c57610f0c615140565b60200260200101516040518363ffffffff1660e01b8152600401610f31929190615154565b5f604051808303815f87803b158015610f48575f5ffd5b505af1158015610f5a573d5f5f3e3d5ffd5b505060019092019150610ecb9050565b5050611029565b829050306001600160a01b0316816001600160a01b031663f77c47916040518163ffffffff1660e01b8152600401602060405180830381865afa158015610fba573d5f5f3e3d5ffd5b505050506040513d601f19601f82011682018060405250810190610fde919061516c565b6001600160a01b0316146110295760405162461bcd60e51b815260206004820152601260248201527134b73b30b634b21031b7b73a3937b63632b960711b6044820152606401610b84565b60405163ad3f5f9b60e01b81526001600160a01b0382169063ad3f5f9b90611055908990600401615187565b5f604051808303815f87803b15801561106c575f5ffd5b505af115801561107e573d5f5f3e3d5ffd5b5050505061109a83868860200151896060015160800151612c6c565b505050505050565b6060604051806060016040528060248152602001615bf360249139905090565b6110cb81612ec4565b50565b5f306001600160a01b031663ffd55e3c6040518163ffffffff1660e01b81526004016020604051808303815f875af115801561110c573d5f5f3e3d5ffd5b505050506040513d601f19601f820116820180604052508101906111309190615259565b9050801561115157604051630763fd9560e51b815260040160405180910390fd5b335f908152600760205260408120600201549003611182576040516387434f5160e01b815260040160405180910390fd5b61118b33612ffb565b60405133907f8154b6c5e1fc90d44b49808ef93f9739148d0821411890f8cd684385e24b9f1e905f90a250565b6111df60405180608001604052805f81526020015f81526020015f81526020015f81525090565b506001600160a01b03165f90815260036020818152604092839020835160808101855281548152600182015492810192909252600281015493820193909352910154606082015290565b604051634f9a28b960e01b81523360048201525f903090634f9a28b990602401608060405180830381865afa158015611264573d5f5f3e3d5ffd5b505050506040513d601f19601f820116820180604052508101906112889190615274565b50925050811590506112ad57604051633e43a9bf60e21b815260040160405180910390fd5b5f306001600160a01b031663ffd55e3c6040518163ffffffff1660e01b81526004016020604051808303815f875af11580156112eb573d5f5f3e3d5ffd5b505050506040513d601f19601f8201168201806040525081019061130f9190615259565b9050801561133057604051630763fd9560e51b815260040160405180910390fd5b335f9081526003602081905260408220015490036113615760405163ae69115b60e01b815260040160405180910390fd5b61136c3385856130a8565b50505050565b604051634f9a28b960e01b81523360048201525f903090634f9a28b990602401608060405180830381865afa1580156113ad573d5f5f3e3d5ffd5b505050506040513d601f19601f820116820180604052508101906113d19190615274565b50925050811590506113f657604051633e43a9bf60e21b815260040160405180910390fd5b5f306001600160a01b031663ffd55e3c6040518163ffffffff1660e01b81526004016020604051808303815f875af1158015611434573d5f5f3e3d5ffd5b505050506040513d601f19601f820116820180604052508101906114589190615259565b9050801561147957604051630763fd9560e51b815260040160405180910390fd5b335f8181526003602081905260408220015490036114aa576040516366ecbd6d60e01b815260040160405180910390fd5b83517f00000000000000000000000000000000000000000000000000000000000000001115611518578351604051632cbc002b60e11b815260048101919091527f00000000000000000000000000000000000000000000000000000000000000006024820152604401610b84565b60208401518451111561154e5783516020850151604051632dd0a90f60e21b815260048101929092526024820152604401610b84565b835160208501515f91611560916152a7565b90506202a3008110156115895760405163283cce6760e11b815260048101829052602401610b84565b6001600160a01b0382165f8181526006602090815260409182902088518082558983015160019092018290558351908152918201527f1846bde2c0888937a0a3af4e9b851b2e78758487d44a7ec04ae4bb3dc356b495910160405180910390a25050505050565b60605f6115fc836126a6565b80519091505f816001600160401b0381111561161a5761161a6146f9565b604051908082528060200260200182016040528015611643578160200160208202803683370190505b5090505f5b828110156116ed57600b5f85838151811061166557611665615140565b60200260200101516001600160a01b03166001600160a01b031681526020019081526020015f205f876001600160a01b03166001600160a01b031681526020019081526020015f205f9054906101000a900460e01b8282815181106116cc576116cc615140565b6001600160e01b031990921660209283029190910190910152600101611648565b50949350505050565b60607f00000000000000000000000000000000000000000000000000000000000000006001600160a01b031663222f6cb56040518163ffffffff1660e01b81526004015f60405180830381865afa158015611753573d5f5f3e3d5ffd5b505050506040513d5f823e601f3d908101601f1916820160405261177a91908101906152f0565b905090565b604051632c4ce12960e01b81525f906001600160a01b037f00000000000000000000000000000000000000000000000000000000000000001690632c4ce129906117cf9086908690600401615432565b602060405180830381865afa1580156117ea573d5f5f3e3d5ffd5b505050506040513d601f19601f8201168201806040525081019061180e919061516c565b90505b92915050565b60408051600160208201526060918101829052600a608082015269414343455054414e434560b01b60a08201529081018290525f9060c0015b60408051601f19818403018152919052805160209091012092915050565b5f61180e82604051806020016118839061464a565b601f1982820381018352601f909101166040526118a86002546001600160a01b031690565b6040516001600160a01b03881660248201526044810187905230606482015260840160408051601f19818403018152918152602080830180516001600160e01b03166369359f3760e11b179052905161190393929101615453565b60408051601f1981840301815290829052611921929160200161548d565b6040516020818303038152906040528051906020012061322e565b6001600160a01b0382165f90815260096020526040902061195d908261323a565b6001600160a01b0382165f908152600a60205260408120805491611980836154a1565b91905055505050565b60607f00000000000000000000000000000000000000000000000000000000000000006001600160a01b0316633ef01b8f6040518163ffffffff1660e01b81526004015f60405180830381865afa158015611753573d5f5f3e3d5ffd5b6119ee61330e565b6005805460ff60a01b198116600160a01b9182900460ff1615909102179055565b61136c8484848461333b565b61136c84848484612c6c565b5f5f611a32846111b8565b90505f8160600151118015611a4f57508060600151816040015110155b8015611a7757506001600160a01b0384165f908152600960205260409020611a7790846138dd565b949350505050565b604051634f9a28b960e01b81523360048201525f903090634f9a28b990602401608060405180830381865afa158015611aba573d5f5f3e3d5ffd5b505050506040513d601f19601f82011682018060405250810190611ade9190615274565b5092505081159050611b0357604051633e43a9bf60e21b815260040160405180910390fd5b5f306001600160a01b031663ffd55e3c6040518163ffffffff1660e01b81526004016020604051808303815f875af1158015611b41573d5f5f3e3d5ffd5b505050506040513d601f19601f82011682018060405250810190611b659190615259565b90508015611b8657604051630763fd9560e51b815260040160405180910390fd5b335f908152600360208190526040822001549003611bb75760405163ae69115b60e01b815260040160405180910390fd5b335f90815260036020526040902060010154831115611c0757335f908152600360205260409081902060010154905163eb912f7160e01b8152610b84918591600401918252602082015260400190565b825f03611c2757604051637a0920b360e11b815260040160405180910390fd5b335f8181526003602081905260409182902001859055517fde3e32a86d32ca955594af26f515d3dc60003ab279776b14b4012fe99d96f8f690611c6d9086815260200190565b60405180910390a2505050565b5f819003611c9b57604051632e111c4160e11b815260040160405180910390fd5b5f80808080808080611caf898b018b6154c4565b335f908152600960205260409020979f50959d50939b509199509750955093509150611cda90613915565b611ce5888888612717565b611cf28585858585613970565b50505050505050505050565b5f60018260405160200161185092919061558a565b604051634f9a28b960e01b81523360048201525f903090634f9a28b990602401608060405180830381865afa158015611d4e573d5f5f3e3d5ffd5b505050506040513d601f19601f82011682018060405250810190611d729190615274565b5092505081159050611d9757604051633e43a9bf60e21b815260040160405180910390fd5b5f306001600160a01b031663ffd55e3c6040518163ffffffff1660e01b81526004016020604051808303815f875af1158015611dd5573d5f5f3e3d5ffd5b505050506040513d601f19601f82011682018060405250810190611df99190615259565b90508015611e1a57604051630763fd9560e51b815260040160405180910390fd5b335f818152600360208181526040808420815160808101835281548152600182015481850152600282015481840152930154606084015293835260049052918120611e659086613aac565b335f90815260046020526040812091925090611e819087613b23565b905080611ea15760405163f3f7774960e01b815260040160405180910390fd5b5f82602001518460200151611eb691906152a7565b90508360600151811015611eed57606084015160405163eb912f7160e01b8152610b84918391600401918252602082015260400190565b335f908152600360205260408120805491611f078361512b565b9091555050602080840151335f908152600390925260408220600101805491929091611f349084906152a7565b909155506002905083516002811115611f4f57611f4f614e75565b03611f8257602080840151335f908152600390925260408220600201805491929091611f7c9084906152a7565b90915550505b866001600160a01b0316336001600160a01b03167f99aeb23a57fa639a61aa8afa1b8b63e67a2e6d601c008c8a7cb4e0719992d1998560200151604051611fcb91815260200190565b60405180910390a350505050505050565b611fe461330e565b611fed5f613b54565b565b6110cb81613ba5565b5f612002336126a6565b90505f5b815181101561206657600b5f83838151811061202457612024615140565b6020908102919091018101516001600160a01b031682528181019290925260409081015f9081203382529092529020805463ffffffff19169055600101612006565b50335f90815260096020526040902061207e90613be6565b335f908152600a6020526040812055612095613c41565b505050565b6001600160a01b0382165f90815260076020526040812061180e9060040183613ccf565b604051630a5e3ee760e41b81525f906001600160a01b037f0000000000000000000000000000000000000000000000000000000000000000169063a5e3ee70906117cf9086908690600401615432565b5f306001600160a01b031663ffd55e3c6040518163ffffffff1660e01b81526004016020604051808303815f875af115801561214c573d5f5f3e3d5ffd5b505050506040513d601f19601f820116820180604052508101906121709190615259565b9050801561219157604051630763fd9560e51b815260040160405180910390fd5b6001600160a01b0382165f9081526007602052604081206002015490036121cb576040516387434f5160e01b815260040160405180910390fd5b6001600160a01b0382165f90815260076020526040902060010154421015612231576001600160a01b0382165f81815260076020526040908190206001015490516349d70fe360e11b815260048101929092524260248301526044820152606401610b84565b61223e62015180426155bd565b6001600160a01b0383165f9081526008602052604090206001015561226282612ffb565b6040516001600160a01b038316907f8154b6c5e1fc90d44b49808ef93f9739148d0821411890f8cd684385e24b9f1e905f90a25050565b5f6122a88360200151836120be565b90506001600160a01b0381166122fb5760405162461bcd60e51b81526020600482015260186024820152771a5b9d985b1a59081858d8dbdd5b9d081a5b88195b585a5b60421b6044820152606401610b84565b5f61230e82856060015160a0015161186e565b90505f816001600160a01b03163b116123695760405162461bcd60e51b815260206004820152601860248201527f677561726469616e206973206e6f74206465706c6f79656400000000000000006044820152606401610b84565b5f60018460405160200161237e92919061558a565b60408051601f198184030181529190528051602090910120855190915081146123df5760405162461bcd60e51b81526020600482015260136024820152721a5b9d985b1a59081d195b5c1b185d19481a59606a1b6044820152606401610b84565b60405163ad3f5f9b60e01b815282906001600160a01b0382169063ad3f5f9b9061240d908990600401615187565b5f604051808303815f87803b158015612424575f5ffd5b505af1158015612436573d5f5f3e3d5ffd5b5050505061109a8386886020015189606001516080015161333b565b6110cb81612ffb565b6001600160a01b0381165f90815260046020526040902060609061181190613cf0565b5f306001600160a01b031663ffd55e3c6040518163ffffffff1660e01b81526004016020604051808303815f875af11580156124bc573d5f5f3e3d5ffd5b505050506040513d601f19601f820116820180604052508101906124e09190615259565b9050801561250157604051630763fd9560e51b815260040160405180910390fd5b6001600160a01b0384166125285760405163200db56f60e11b815260040160405180910390fd5b6001600160a01b0384165f90815260076020908152604080832060039283905290832090910154909181900361257157604051635337335b60e11b815260040160405180910390fd5b80826002015410156125a657600282015460405163443282f560e01b8152600481019190915260248101829052604401610b84565b81544210156125d4578154604051632f37ae3960e01b81524260048201526024810191909152604401610b84565b81600101544210612607576001820154604051632b356baf60e11b81524260048201526024810191909152604401610b84565b5f85856040516126189291906155d0565b6040518091039020905082600301548114612656576003830154604051639e1a616f60e01b8152610b84918391600401918252602082015260400190565b61265f87612ffb565b61266a878787613cfb565b6040516001600160a01b038816907f46f5008939fa0b4beb46ae7f0e8368318bb72b56608910ca71c23e83382f609f905f90a250505050505050565b6001600160a01b0381165f9081526009602090815260408220606092916126d09190600190613e07565b509392505050565b611fed613c41565b6001600160a01b0382165f90815260096020526040812061180e90836138dd565b5f61270b826111b8565b60600151151592915050565b335f908152600960209081526040808320600184529091529020546001600160a01b031661275857604051630b088c2360e01b815260040160405180910390fd5b8281336001600160a01b038316036127fb576001600160e01b03198116630d582f1360e01b1480159061279c57506001600160e01b0319811663f8dc5dd960e01b14155b80156127b957506001600160e01b0319811663e318b52b60e01b14155b80156127d657506001600160e01b0319811663694e80c360e01b14155b156127f657806040516312ba286f60e01b8152600401610b849190614ca0565b61285d565b6001600160e01b031981166306d61fe760e41b148061282a57506001600160e01b03198116638a91b0e360e01b145b8061283d57506001600160e01b03198116155b1561285d57806040516312ba286f60e01b8152600401610b849190614ca0565b60405163112d3a7d60e01b8152339063112d3a7d9061288590600190899089906004016155df565b602060405180830381865afa1580156128a0573d5f5f3e3d5ffd5b505050506040513d601f19601f820116820180604052508101906128c49190615259565b6128eb57604051628eae2b60e51b81526001600160a01b0386166004820152602401610b84565b335f908152600a60209081526040909120541061291b576040516376bca46b60e11b815260040160405180910390fd5b335f908152600960205260409020612933908661323a565b335f908152600a6020526040812080549161294d836154a1565b90915550506001600160a01b0385165f818152600b6020908152604080832033808552925291829020805463ffffffff191660e088901c17905590517f83ccdcb4121fbd52f43483b0109351c571e564b33420da9b26a05346a739f66b906129b6908790614ca0565b60405180910390a35050505050565b6001600160a01b0381165f9081526007602052604081206129e890600401613fae565b5192915050565b612095838383613cfb565b604080518082019091525f80825260208201526001600160a01b0383165f90815260046020526040902061180e9083613aac565b612a3b8585858585613970565b5050505050565b612095838383613fc1565b612a5561330e565b6001600160a01b038116612a7e57604051631e4fbdf760e01b81525f6004820152602401610b84565b6110cb81613b54565b5f5f612af7888888808060200260200160405190810160405280939291908181526020018383602002808284375f9201919091525050604080516020808c0282810182019093528b82529093508b92508a9182918501908490808284375f920191909152508992506140bc915050565b91509150965096945050505050565b6001600160a01b0381161580612b2557506001600160a01b0381166001145b15612b4e57604051637c84ecfb60e01b81526001600160a01b0383166004820152602401610b84565b6001600160a01b038281165f90815260208590526040902054811690821614612b9557604051637c84ecfb60e01b81526001600160a01b0382166004820152602401610b84565b6001600160a01b039081165f8181526020949094526040808520805494841686529085208054949093166001600160a01b0319948516179092559092528154169055565b5f5f82612bee6002546001600160a01b031690565b6040516001600160a01b03871660248201526044810186905230606482015260840160408051601f198184030181529181526020820180516001600160e01b03166369359f3760e11b17905251612c449061464a565b612c4f929190615453565b8190604051809103905ff59050801580156116ed573d5f5f3e3d5ffd5b5f306001600160a01b031663ffd55e3c6040518163ffffffff1660e01b81526004016020604051808303815f875af1158015612caa573d5f5f3e3d5ffd5b505050506040513d601f19601f82011682018060405250810190612cce9190615259565b90508015612cef57604051630763fd9560e51b815260040160405180910390fd5b60405163861f45b760e01b81525f906001600160a01b037f0000000000000000000000000000000000000000000000000000000000000000169063861f45b790612d3f9088908890600401615154565b602060405180830381865afa158015612d5a573d5f5f3e3d5ffd5b505050506040513d601f19601f82011682018060405250810190612d7e919061516c565b6001600160a01b0381165f9081526007602052604090206002015490915015612dba57604051633e43a9bf60e21b815260040160405180910390fd5b6001600160a01b0381165f9081526003602081905260409091200154612df35760405163c737140f60e01b815260040160405180910390fd5b5f612dfe82886129fa565b9050600181516002811115612e1557612e15614e75565b14612e39578051604051632b44da8d60e11b8152610b849190600190600401615608565b612e4582886002613fc1565b806020015160035f846001600160a01b03166001600160a01b031681526020019081526020015f206002015f828254612e7e91906155bd565b90915550506040516001600160a01b0380891691908416907f442abc7a4ecd5a019ce3f9fa872ad2d87c094248c412954aaf8ccf7a538e938c905f90a350505050505050565b604051634f9a28b960e01b81523360048201525f903090634f9a28b990602401608060405180830381865afa158015612eff573d5f5f3e3d5ffd5b505050506040513d601f19601f82011682018060405250810190612f239190615274565b5092505081159050612f4857604051633e43a9bf60e21b815260040160405180910390fd5b6001600160a01b0382165f90815260066020526040812081815560010155612f6f82612ffb565b6001600160a01b0382165f90815260086020526040812080546001600160a01b031916815560010155612fa182613ba5565b6001600160a01b0382165f8181526003602081905260408083208381556001810184905560028101849055909101829055517fe07cb859e0fb96f60563e9ac3596b37d0c617a96f9f6db589548caaa99fa9b669190a25050565b6001600160a01b0381165f9081526007602052604081209061301f60048301613fae565b80519091505f5b818110156130665761305d83828151811061304357613043615140565b6020026020010151856004016141d090919063ffffffff16565b50600101613026565b506001600160a01b0384165f9081526007602052604081208181556001810182905560028101829055600381018290559060048201818181611cf28282614657565b6001600160a01b03821615806130cf5750826001600160a01b0316826001600160a01b0316145b156130f857604051631af7497560e01b81526001600160a01b0383166004820152602401610b84565b805f036131175760405162a47bc760e51b815260040160405180910390fd5b5f6131628360405180604001604052806001600281111561313a5761313a614e75565b815260209081018690526001600160a01b0388165f90815260049091526040902091906141e4565b90508061318257604051637270b0a760e11b815260040160405180910390fd5b6001600160a01b0384165f9081526003602052604081208054916131a5836154a1565b90915550506001600160a01b0384165f90815260036020526040812060010180548492906131d49084906155bd565b92505081905550826001600160a01b0316846001600160a01b03167f6e56b96fb8216ff6218412de4842e5d754f98ee57d19d9ed40af02fac2b30d9c8460405161322091815260200190565b60405180910390a350505050565b5f61180e838330614275565b6001600160a01b038116158061325957506001600160a01b0381166001145b1561328257604051637c84ecfb60e01b81526001600160a01b0382166004820152602401610b84565b6001600160a01b038181165f9081526020849052604090205416156132c557604051631034f46960e21b81526001600160a01b0382166004820152602401610b84565b60015f818152602093909352604080842080546001600160a01b039485168087529286208054959091166001600160a01b03199586161790559190935280549091169091179055565b6005546001600160a01b03163314611fed5760405163118cdaa760e01b8152336004820152602401610b84565b5f306001600160a01b031663ffd55e3c6040518163ffffffff1660e01b81526004016020604051808303815f875af1158015613379573d5f5f3e3d5ffd5b505050506040513d601f19601f8201168201806040525081019061339d9190615259565b905080156133be57604051630763fd9560e51b815260040160405180910390fd5b60405163029b2a1760e11b81525f906001600160a01b037f00000000000000000000000000000000000000000000000000000000000000001690630536542e9061340e9088908890600401615154565b602060405180830381865afa158015613429573d5f5f3e3d5ffd5b505050506040513d601f19601f8201168201806040525081019061344d919061516c565b9050613473816001600160a01b03165f9081526003602081905260409091200154151590565b6134905760405163c737140f60e01b815260040160405180910390fd5b6001600160a01b0381165f90815260036020818152604092839020835160808101855281548152600182015492810192909252600281015493820184905290910154606082018190529091101561350d5760608101516040808301519051631f0fa60f60e21b815260048101929092526024820152604401610b84565b5f61351883896129fa565b905060028151600281111561352f5761352f614e75565b14613553578051604051632b44da8d60e11b8152610b849190600290600401615608565b6001600160a01b038084165f90815260076020526040808220905163da06673960e01b815290927f0000000000000000000000000000000000000000000000000000000000000000169063da066739906135b3908c908c90600401615154565b602060405180830381865afa1580156135ce573d5f5f3e3d5ffd5b505050506040513d601f19601f820116820180604052508101906135f29190615623565b90506135fe858b61209a565b1561361c5760405163e11487a760e01b815260040160405180910390fd5b6001600160a01b038086165f90815260036020908152604080832054600890925290912060018101549054919242909111918116908d1614801561365d5750805b80156136695750600182115b1561369257604051638035b5fd60e01b81526001600160a01b038d166004820152602401610b84565b6003840154613783578284600301819055508b60085f896001600160a01b03166001600160a01b031681526020019081526020015f205f015f6101000a8154816001600160a01b0302191690836001600160a01b031602179055505f60065f896001600160a01b03166001600160a01b031681526020019081526020015f20600101544261372091906155bd565b90508085600101819055508c6001600160a01b0316886001600160a01b03167f9ca1cbcd26e9b736cca48e36442bff1755b2b7bab34abc02f31799e500c0a0318387604051613779929190918252602082015260400190565b60405180910390a3505b828460030154146137b7576003840154604051639e1a616f60e01b8152610b84918591600401918252602082015260400190565b8460200151846002015f8282546137ce91906155bd565b909155506137e19050600485018d6142a7565b508b6001600160a01b0316876001600160a01b03167f5aa823676e4da0337bf6a25190a447b23198601a92ee2fa36de835e75624179a86600201548860200151604051613838929190918252602082015260400190565b60405180910390a385606001518460020154106138cf576001600160a01b0387165f9081526006602052604081205461387190426155bd565b808655600186015460408051838152602081019290925281018690529091506001600160a01b03808f1691908a16907fbe82017c3d0c6b6283a0d6137f7aaa225271859454c3c1ff1a5a444ee23abd239060600160405180910390a3505b505050505050505050505050565b5f60016001600160a01b0383161480159061180e5750506001600160a01b039081165f90815260209290925260409091205416151590565b60015f908152602082905260409020546001600160a01b03161561394c576040516329e42f3360e11b815260040160405180910390fd5b60015f818152602092909252604090912080546001600160a01b0319169091179055565b5f306001600160a01b031663ffd55e3c6040518163ffffffff1660e01b81526004016020604051808303815f875af11580156139ae573d5f5f3e3d5ffd5b505050506040513d601f19601f820116820180604052508101906139d29190615259565b905080156139f357604051630763fd9560e51b815260040160405180910390fd5b335f818152600360208190526040909120015415613a245760405163b3af559360e01b815260040160405180910390fd5b5f5f613a32838a8a8a6140bc565b60408051808201909152888152602081018890529193509150613a5481611372565b60408051848152602081018490529081018990526001600160a01b038516907fe8d4b5048e4b6ac385ae4b62872cffb372825354882a4823833c9720bacdfc6a9060600160405180910390a250505050505050505050565b604080518082019091525f80825260208201526001600160a01b0382165f9081526002808501602052604091829020825180840190935280549091839160ff1690811115613afc57613afc614e75565b6002811115613b0d57613b0d614e75565b8152602001600182015481525050905092915050565b6001600160a01b0381165f9081526002830160205260408120805460ff1916815560010181905561180e83836141d0565b600580546001600160a01b038381166001600160a01b0319831681179093556040519116919082907f8be0079c531659141344cd1fd0a4f28419497f9722a3daafe3b4186f6b6457e0905f90a35050565b6001600160a01b0381165f9081526004602052604090206110cb90613bc990613cf0565b6001600160a01b0383165f908152600460205260409020906142bb565b60015f908152602082905260409020546001600160a01b03165b6001600160a01b03811615613c3d576001600160a01b039081165f90815260208390526040902080546001600160a01b0319811690915516613c00565b5050565b604051634f9a28b960e01b81523360048201525f903090634f9a28b990602401608060405180830381865afa158015613c7c573d5f5f3e3d5ffd5b505050506040513d601f19601f82011682018060405250810190613ca09190615274565b5092505081159050613cc557604051633e43a9bf60e21b815260040160405180910390fd5b33613c3d81612ec4565b6001600160a01b0381165f908152600183016020526040812054151561180e565b606061181182613fae565b5f80613d098385018561563a565b90925090506001600160a01b038216613d3f57604051628eae2b60e51b81526001600160a01b0383166004820152602401610b84565b5f613d4e606460608688615686565b613d57916156ad565b6001600160a01b038085165f908152600b60209081526040808320938b168352929052205490915060e01b6001600160e01b031980821690831614613db157816040516312ba286f60e01b8152600401610b849190614ca0565b613dbd87855f8661436a565b50836001600160a01b0316876001600160a01b03167f60f9f98be64687700419cfa6fdd7877bc88c6daeb10bc664a2be9fdd6b0c792160405160405180910390a350505050505050565b60605f6001600160a01b038416600114801590613e2b5750613e2985856138dd565b155b15613e5457604051637c84ecfb60e01b81526001600160a01b0385166004820152602401610b84565b825f03613e745760405163f725081760e01b815260040160405180910390fd5b826001600160401b03811115613e8c57613e8c6146f9565b604051908082528060200260200182016040528015613eb5578160200160208202803683370190505b506001600160a01b038086165f90815260208890526040812054929450911691505b6001600160a01b03821615801590613ef957506001600160a01b038216600114155b8015613f0457508381105b15613f5d5781838281518110613f1c57613f1c615140565b6001600160a01b039283166020918202929092018101919091529281165f908152928790526040909220549091169080613f55816154a1565b915050613ed7565b6001600160a01b038216600114801590613f7657505f81115b15613fa25782613f876001836152a7565b81518110613f9757613f97615140565b602002602001015191505b80835250935093915050565b60605f613fba83614419565b9392505050565b6001600160a01b0383165f908152600460205260408120613fe29084613aac565b80519091506002811115613ff857613ff8614e75565b82600281111561400a5761400a614e75565b0361402a5781604051637e12071160e01b8152600401610b8491906156e3565b61407883604051806040016040528085600281111561404b5761404b614e75565b8152602085810151918101919091526001600160a01b0388165f90815260049091526040902091906141e4565b50826001600160a01b0316846001600160a01b03167f6ae2e7cc465b15375a93daf2ea1e59f4c98d82465e7f2885f0b864db38b279748460405161322091906156e3565b825182515f91829181146140f057845160405163166e79bd60e01b8152610b84918391600401918252602082015260400190565b835f0361411057604051637a0920b360e11b815260040160405180910390fd5b5f5b8181101561415f576141578888838151811061413057614130615140565b602002602001015188848151811061414a5761414a615140565b60200260200101516130a8565b600101614112565b506001600160a01b0387165f90815260036020526040902060010154808511156141a65760405163eb912f7160e01b81526004810186905260248101829052604401610b84565b6001600160a01b03979097165f908152600360208190526040909120019390935550909492505050565b5f61180e836001600160a01b038416614472565b6001600160a01b0382165f908152600280850160205260408220835181548593839160ff191690600190849081111561421f5761421f614e75565b0217905550602091909101516001909101555f61423c85856142a7565b90505f6142488661455c565b90508180156142575750602081115b156116ed5760405163bb6c1e9360e01b815260040160405180910390fd5b5f604051836040820152846020820152828152600b8101905060ff8153605590206001600160a01b0316949350505050565b5f61180e836001600160a01b038416614565565b6020815111156142de5760405163e023c21160e01b815260040160405180910390fd5b5f5b815181101561209557826002015f83838151811061430057614300615140565b6020908102919091018101516001600160a01b031682528101919091526040015f908120805460ff191681556001015581516143619083908390811061434857614348615140565b6020026020010151845f016141d090919063ffffffff16565b506001016142e0565b60605f614379818080806145b1565b9050856001600160a01b031663d691c9648261439688888861461b565b6040518363ffffffff1660e01b81526004016143b39291906156f1565b5f604051808303815f875af11580156143ce573d5f5f3e3d5ffd5b505050506040513d5f823e601f3d908101601f191682016040526143f59190810190615709565b5f8151811061440657614406615140565b6020026020010151915050949350505050565b6060815f0180548060200260200160405190810160405280929190818152602001828054801561446657602002820191905f5260205f20905b815481526020019060010190808311614452575b50505050509050919050565b5f818152600183016020526040812054801561454c575f6144946001836152a7565b85549091505f906144a7906001906152a7565b9050808214614506575f865f0182815481106144c5576144c5615140565b905f5260205f200154905080875f0184815481106144e5576144e5615140565b5f918252602080832090910192909255918252600188019052604090208390555b8554869080614517576145176157c0565b600190038181905f5260205f20015f90559055856001015f8681526020019081526020015f205f905560019350505050611811565b5f915050611811565b5092915050565b5f611811825490565b5f8181526001830160205260408120546145aa57508154600181810184555f848152602080822090930184905584548482528286019093526040902091909155611811565b505f611811565b604080516001600160f81b03198087166020830152851660218201525f602282018190526001600160e01b03198516602683015269ffffffffffffffffffff198416602a8301529101604051602081830303815290604052614612906157d4565b95945050505050565b6060838383604051602001614632939291906157fa565b60405160208183030381529060405290509392505050565b6103cf8061582483390190565b5080545f8255905f5260205f20908101906110cb91905b80821115614681575f815560010161466e565b5090565b6001600160a01b03811681146110cb575f5ffd5b80356001600160e01b0319811681146146b0575f5ffd5b919050565b5f5f5f606084860312156146c7575f5ffd5b83356146d281614685565b925060208401356146e281614685565b91506146f060408501614699565b90509250925092565b634e487b7160e01b5f52604160045260245ffd5b604051608081016001600160401b038111828210171561472f5761472f6146f9565b60405290565b60405161010081016001600160401b038111828210171561472f5761472f6146f9565b604051601f8201601f191681016001600160401b0381118282101715614780576147806146f9565b604052919050565b5f6001600160401b038211156147a0576147a06146f9565b5060051b60200190565b5f6001600160401b038211156147c2576147c26146f9565b50601f01601f191660200190565b5f82601f8301126147df575f5ffd5b8135602083015f6147f76147f2846147aa565b614758565b905082815285838301111561480a575f5ffd5b828260208301375f92810160200192909252509392505050565b5f82601f830112614833575f5ffd5b81356148416147f282614788565b8082825260208201915060208360051b860101925085831115614862575f5ffd5b602085015b838110156148a25780356001600160401b03811115614884575f5ffd5b614893886020838a01016147d0565b84525060209283019201614867565b5095945050505050565b80151581146110cb575f5ffd5b80356146b0816148ac565b5f5f604083850312156148d5575f5ffd5b82356001600160401b038111156148ea575f5ffd5b8301608081860312156148fb575f5ffd5b61490361470d565b8135815260208201356001600160401b0381111561491f575f5ffd5b61492b87828501614824565b6020830152506040828101359082015260608201356001600160401b03811115614953575f5ffd5b91909101906101008287031215614968575f5ffd5b614970614735565b82356001600160401b03811115614985575f5ffd5b614991888286016147d0565b825250602083810135908201526040808401359082015260608301356001600160401b038111156149c0575f5ffd5b6149cc888286016147d0565b6060830152506080838101359082015260a080840135908201526149f260c084016148b9565b60c082015260e08301356001600160401b03811115614a0f575f5ffd5b614a1b888286016147d0565b60e083015250606082015295602094909401359450505050565b5f81518084528060208401602086015e5f602082860101526020601f19601f83011685010191505092915050565b602081525f61180e6020830184614a35565b5f60208284031215614a85575f5ffd5b8135613fba81614685565b5f5f60408385031215614aa1575f5ffd5b8235614aac81614685565b946020939093013593505050565b5f6040828403128015614acb575f5ffd5b50604080519081016001600160401b0381118282101715614aee57614aee6146f9565b604052823581526020928301359281019290925250919050565b602080825282518282018190525f918401906040840190835b81811015614b495783516001600160e01b031916835260209384019390920191600101614b21565b509095945050505050565b5f82825180855260208501945060208160051b830101602085015f5b83811015614ba257601f19858403018852614b8c838351614a35565b6020988901989093509190910190600101614b70565b50909695505050505050565b5f602082016020835280845180835260408501915060408160051b8601019250602086015f5b82811015614c0557603f19878603018452614bf0858351614b54565b94506020938401939190910190600101614bd4565b50929695505050505050565b5f5f60408385031215614c22575f5ffd5b82356001600160401b03811115614c37575f5ffd5b614c4385828601614824565b95602094909401359450505050565b5f60208284031215614c62575f5ffd5b5035919050565b5f5f60408385031215614c7a575f5ffd5b8235614c8581614685565b91506020830135614c9581614685565b809150509250929050565b6001600160e01b031991909116815260200190565b5f5f5f5f60808587031215614cc8575f5ffd5b8435614cd381614685565b93506020850135925060408501356001600160401b03811115614cf4575f5ffd5b614d0087828801614824565b949793965093946060013593505050565b5f5f83601f840112614d21575f5ffd5b5081356001600160401b03811115614d37575f5ffd5b602083019150836020828501011115614d4e575f5ffd5b9250929050565b5f5f60208385031215614d66575f5ffd5b82356001600160401b03811115614d7b575f5ffd5b614d8785828601614d11565b90969095509350505050565b602080825282518282018190525f918401906040840190835b81811015614b495783516001600160a01b0316835260209384019390920191600101614dac565b5f5f5f60408486031215614de5575f5ffd5b8335614df081614685565b925060208401356001600160401b03811115614e0a575f5ffd5b614e1686828701614d11565b9497909650939450505050565b5f5f5f60608486031215614e35575f5ffd5b8335614e4081614685565b925060208401356001600160401b03811115614e5a575f5ffd5b614e66868287016147d0565b9250506146f060408501614699565b634e487b7160e01b5f52602160045260245ffd5b60038110614ea557634e487b7160e01b5f52602160045260245ffd5b9052565b5f604082019050614ebb828451614e89565b602092830151919092015290565b5f82601f830112614ed8575f5ffd5b8135614ee66147f282614788565b8082825260208201915060208360051b860101925085831115614f07575f5ffd5b602085015b838110156148a2578035614f1f81614685565b835260209283019201614f0c565b5f82601f830112614f3c575f5ffd5b8135614f4a6147f282614788565b8082825260208201915060208360051b860101925085831115614f6b575f5ffd5b602085015b838110156148a2578035835260209283019201614f70565b5f5f5f5f5f60a08688031215614f9c575f5ffd5b85356001600160401b03811115614fb1575f5ffd5b614fbd88828901614ec9565b95505060208601356001600160401b03811115614fd8575f5ffd5b614fe488828901614f2d565b959895975050505060408401359360608101359360809091013592509050565b5f5f5f60608486031215615016575f5ffd5b833561502181614685565b9250602084013561503181614685565b9150604084013560038110615044575f5ffd5b809150509250925092565b5f5f83601f84011261505f575f5ffd5b5081356001600160401b03811115615075575f5ffd5b6020830191508360208260051b8501011115614d4e575f5ffd5b5f5f5f5f5f5f608087890312156150a4575f5ffd5b86356150af81614685565b955060208701356001600160401b038111156150c9575f5ffd5b6150d589828a0161504f565b90965094505060408701356001600160401b038111156150f3575f5ffd5b6150ff89828a0161504f565b979a9699509497949695606090950135949350505050565b634e487b7160e01b5f52601160045260245ffd5b5f8161513957615139615117565b505f190190565b634e487b7160e01b5f52603260045260245ffd5b828152604060208201525f611a776040830184614b54565b5f6020828403121561517c575f5ffd5b8151613fba81614685565b60208152815160208201525f6020830151608060408401526151ac60a0840182614b54565b9050604084015160608401526060840151601f19848303016080850152805161010083526151de610100840182614a35565b905060208201516020840152604082015160408401526060820151838203606085015261520b8282614a35565b9150506080820151608084015260a082015160a084015260c082015161523560c085018215159052565b5060e0820151915082810360e084015261524f8183614a35565b9695505050505050565b5f60208284031215615269575f5ffd5b8151613fba816148ac565b5f5f5f5f60808587031215615287575f5ffd5b505082516020840151604085015160609095015191969095509092509050565b8181038181111561181157611811615117565b5f6152c76147f2846147aa565b90508281528383830111156152da575f5ffd5b8282602083015e5f602084830101529392505050565b5f60208284031215615300575f5ffd5b81516001600160401b03811115615315575f5ffd5b8201601f81018413615325575f5ffd5b80516153336147f282614788565b8082825260208201915060208360051b850101925086831115615354575f5ffd5b602084015b838110156154275780516001600160401b03811115615376575f5ffd5b8501603f81018913615386575f5ffd5b60208101516153976147f282614788565b808282526020820191506020808460051b8601010192508b8311156153ba575f5ffd5b604084015b838110156154115780516001600160401b038111156153dc575f5ffd5b85016020810190605f018e136153f0575f5ffd5b6154028e6020830151604084016152ba565b845250602092830192016153bf565b5086525050602093840193919091019050615359565b509695505050505050565b604081525f6154446040830185614b54565b90508260208301529392505050565b6001600160a01b03831681526040602082018190525f90611a7790830184614a35565b5f81518060208401855e5f93019283525090919050565b5f611a7761549b8386615476565b84615476565b5f600182016154b2576154b2615117565b5060010190565b80356146b081614685565b5f5f5f5f5f5f5f5f610100898b0312156154dc575f5ffd5b6154e5896154b9565b975060208901356001600160401b038111156154ff575f5ffd5b61550b8b828c016147d0565b97505061551a60408a01614699565b955060608901356001600160401b03811115615534575f5ffd5b6155408b828c01614ec9565b95505060808901356001600160401b0381111561555b575f5ffd5b6155678b828c01614f2d565b989b979a50959894979660a0860135965060c08601359560e00135945092505050565b60ff929092168252606060208301819052600890830152675245434f5645525960c01b6080830152604082015260a00190565b8082018082111561181157611811615117565b818382375f9101908152919050565b8381526001600160a01b03831660208201526060604082018190525f9061461290830184614a35565b604081016156168285614e89565b613fba6020830184614e89565b5f60208284031215615633575f5ffd5b5051919050565b5f5f6040838503121561564b575f5ffd5b823561565681614685565b915060208301356001600160401b03811115615670575f5ffd5b61567c858286016147d0565b9150509250929050565b5f5f85851115615694575f5ffd5b838611156156a0575f5ffd5b5050820193919092039150565b80356001600160e01b03198116906004841015614555576001600160e01b031960049490940360031b84901b1690921692915050565b602081016118118284614e89565b828152604060208201525f611a776040830184614a35565b5f60208284031215615719575f5ffd5b81516001600160401b0381111561572e575f5ffd5b8201601f8101841361573e575f5ffd5b805161574c6147f282614788565b8082825260208201915060208360051b85010192508683111561576d575f5ffd5b602084015b838110156154275780516001600160401b0381111561578f575f5ffd5b8501603f8101891361579f575f5ffd5b6157b1896020830151604084016152ba565b84525060209283019201615772565b634e487b7160e01b5f52603160045260245ffd5b805160208083015191908110156157f4575f198160200360031b1b821691505b50919050565b6bffffffffffffffffffffffff198460601b1681528260148201525f614612603483018461547656fe60806040526040516103cf3803806103cf8339810160408190526100229161023b565b61002c8282610033565b5050610320565b61003c82610091565b6040516001600160a01b038316907fbc7cd75a20ee27fd9adebab32041f755214dbc6bffa90cc0225b39da2e5c2d3b905f90a280511561008557610080828261010c565b505050565b61008d61017f565b5050565b806001600160a01b03163b5f036100cb57604051634c9c8ce360e01b81526001600160a01b03821660048201526024015b60405180910390fd5b7f360894a13ba1a3210667c828492db98dca3e2076cc3735a920a3ca505d382bbc80546001600160a01b0319166001600160a01b0392909216919091179055565b60605f5f846001600160a01b031684604051610128919061030a565b5f60405180830381855af49150503d805f8114610160576040519150601f19603f3d011682016040523d82523d5f602084013e610165565b606091505b5090925090506101768583836101a0565b95945050505050565b341561019e5760405163b398979f60e01b815260040160405180910390fd5b565b6060826101b5576101b0826101ff565b6101f8565b81511580156101cc57506001600160a01b0384163b155b156101f557604051639996b31560e01b81526001600160a01b03851660048201526024016100c2565b50805b9392505050565b80511561020e57805160208201fd5b60405163d6bda27560e01b815260040160405180910390fd5b634e487b7160e01b5f52604160045260245ffd5b5f5f6040838503121561024c575f5ffd5b82516001600160a01b0381168114610262575f5ffd5b60208401519092506001600160401b0381111561027d575f5ffd5b8301601f8101851361028d575f5ffd5b80516001600160401b038111156102a6576102a6610227565b604051601f8201601f19908116603f011681016001600160401b03811182821017156102d4576102d4610227565b6040528181528282016020018710156102eb575f5ffd5b8160208401602083015e5f602083830101528093505050509250929050565b5f82518060208501845e5f920191825250919050565b60a38061032c5f395ff3fe6080604052600a600c565b005b60186014601a565b6050565b565b5f604b7f360894a13ba1a3210667c828492db98dca3e2076cc3735a920a3ca505d382bbc546001600160a01b031690565b905090565b365f5f375f5f365f845af43d5f5f3e8080156069573d5ff35b3d5ffdfea2646970667358221220d981d9ee70f01ad48e7100822b90c6eac94807a706d05eca81ffeb3e95633e9964736f6c634300081c00335a4b456d61696c2e556e6976657273616c456d61696c5265636f766572794d6f64756c65a26469706673582212207f04385e26ddcfa3c124bf41851ff0dcc7cf76f4c95b9c37ae04963dbb83616064736f6c634300081c0033","linkReferences":{}},"methodIdentifiers":{"CANCEL_EXPIRED_RECOVERY_COOLDOWN()":"5707f318","MAX_VALIDATORS()":"714897df","MINIMUM_RECOVERY_WINDOW()":"99150680","acceptanceCommandTemplates()":"222f6cb5","addGuardian(address,uint256)":"111e5313","allowValidatorRecovery(address,bytes,bytes4)":"d779a850","canStartRecoveryRequest(address,address)":"647e2853","cancelExpiredRecovery(address)":"ab1b5fde","cancelRecovery()":"0ba234d6","changeThreshold(uint256)":"694e80c3","commandHandler()":"d15558bf","completeRecovery(address,bytes)":"c18d09cf","computeAcceptanceTemplateId(uint256)":"32ccc2f2","computeEmailAuthAddress(address,bytes32)":"3a8eab14","computeRecoveryTemplateId(uint256)":"6da99515","disallowValidatorRecovery(address,address,bytes4)":"01eedf2c","dkim()":"400ad5ce","dkimAddr()":"73357f85","emailAuthImplementation()":"b6201692","emailAuthImplementationAddr()":"1098e02e","exposed_acceptGuardian(address,uint256,bytes[],bytes32)":"621a38dd","exposed_allowedSelectors(address,address)":"398a27ee","exposed_clearRecoveryRequest(address)":"b7f0d5cb","exposed_configureRecovery(address[],uint256[],uint256,uint256,uint256)":"f04b12dc","exposed_deInitRecoveryModule()":"cfa6c75e","exposed_deInitRecoveryModule(address)":"0ad12b61","exposed_processRecovery(address,uint256,bytes[],bytes32)":"4e99fc0b","exposed_recover(address,bytes)":"d7d5d3d1","exposed_removeAllGuardians(address)":"78389c3a","exposed_setupGuardians(address,address[],uint256[],uint256)":"f9c852b7","exposed_updateGuardianStatus(address,address,uint8)":"f2467aa0","extractRecoveredAccountFromAcceptanceCommand(bytes[],uint256)":"2c4ce129","extractRecoveredAccountFromRecoveryCommand(bytes[],uint256)":"a5e3ee70","getAllGuardians(address)":"bbd2a05e","getAllowedSelectors(address)":"18baa84b","getAllowedValidators(address)":"c7f53022","getGuardian(address,address)":"da34a850","getGuardianConfig(address)":"0bb6094a","getPreviousRecoveryRequest(address)":"86b97e51","getRecoveryConfig(address)":"2788bbda","getRecoveryRequest(address)":"4f9a28b9","handleAcceptance((uint256,bytes[],uint256,(string,bytes32,uint256,string,bytes32,bytes32,bool,bytes)),uint256)":"0481af67","handleRecovery((uint256,bytes[],uint256,(string,bytes32,uint256,string,bytes32,bytes32,bool,bytes)),uint256)":"b68126fa","hasGuardianVoted(address,address)":"9c8f8439","isActivated(address)":"c9faa7c5","isInitialized(address)":"d60b347f","isModuleType(uint256)":"ecd05961","killSwitchEnabled()":"ffd55e3c","minimumDelay()":"427ad624","name()":"06fdde03","onInstall(bytes)":"6d61fe70","onUninstall(bytes)":"8a91b0e3","owner()":"8da5cb5b","recoveryCommandTemplates()":"3ef01b8f","removeGuardian(address)":"71404156","renounceOwnership()":"715018a6","toggleKillSwitch()":"4630f1d5","transferOwnership(address)":"f2fde38b","updateRecoveryConfig((uint256,uint256))":"1788178f","validatorCount(address)":"b264314f","verifier()":"2b7ac3f3","verifierAddr()":"663ea2e2","version()":"54fd4d50","workaround_getVoteCount(address)":"d786460e","workaround_validatorsContains(address,address)":"d4ab721e","workaround_validatorsPush(address,address)":"3d438e36"},"id":362}