{"abi":[{"type":"constructor","inputs":[],"stateMutability":"nonpayable"},{"type":"function","name":"DEFAULT_TIMELOCK_PERIOD","inputs":[],"outputs":[{"name":"","type":"uint256","internalType":"uint256"}],"stateMutability":"view"},{"type":"function","name":"acceptanceCommandTemplates","inputs":[],"outputs":[{"name":"","type":"string[][]","internalType":"string[][]"}],"stateMutability":"pure"},{"type":"function","name":"completeRecovery","inputs":[{"name":"account","type":"address","internalType":"address"},{"name":"","type":"bytes","internalType":"bytes"}],"outputs":[],"stateMutability":"nonpayable"},{"type":"function","name":"computeAcceptanceTemplateId","inputs":[{"name":"templateIdx","type":"uint256","internalType":"uint256"}],"outputs":[{"name":"","type":"uint256","internalType":"uint256"}],"stateMutability":"pure"},{"type":"function","name":"computeEmailAuthAddress","inputs":[{"name":"recoveredAccount","type":"address","internalType":"address"},{"name":"accountSalt","type":"bytes32","internalType":"bytes32"}],"outputs":[{"name":"","type":"address","internalType":"address"}],"stateMutability":"view"},{"type":"function","name":"computeRecoveryTemplateId","inputs":[{"name":"templateIdx","type":"uint256","internalType":"uint256"}],"outputs":[{"name":"","type":"uint256","internalType":"uint256"}],"stateMutability":"pure"},{"type":"function","name":"configureTimelockPeriod","inputs":[{"name":"period","type":"uint256","internalType":"uint256"}],"outputs":[],"stateMutability":"nonpayable"},{"type":"function","name":"currentTimelockOfAccount","inputs":[{"name":"account","type":"address","internalType":"address"}],"outputs":[{"name":"currentTimelock","type":"uint256","internalType":"uint256"}],"stateMutability":"view"},{"type":"function","name":"dkim","inputs":[],"outputs":[{"name":"","type":"address","internalType":"address"}],"stateMutability":"view"},{"type":"function","name":"dkimAddr","inputs":[],"outputs":[{"name":"","type":"address","internalType":"address"}],"stateMutability":"view"},{"type":"function","name":"emailAuthImplementation","inputs":[],"outputs":[{"name":"","type":"address","internalType":"address"}],"stateMutability":"view"},{"type":"function","name":"emailAuthImplementationAddr","inputs":[],"outputs":[{"name":"","type":"address","internalType":"address"}],"stateMutability":"view"},{"type":"function","name":"extractRecoveredAccountFromAcceptanceCommand","inputs":[{"name":"commandParams","type":"bytes[]","internalType":"bytes[]"},{"name":"templateIdx","type":"uint256","internalType":"uint256"}],"outputs":[{"name":"","type":"address","internalType":"address"}],"stateMutability":"pure"},{"type":"function","name":"extractRecoveredAccountFromRecoveryCommand","inputs":[{"name":"commandParams","type":"bytes[]","internalType":"bytes[]"},{"name":"templateIdx","type":"uint256","internalType":"uint256"}],"outputs":[{"name":"","type":"address","internalType":"address"}],"stateMutability":"pure"},{"type":"function","name":"guardians","inputs":[{"name":"guardian","type":"address","internalType":"address"}],"outputs":[{"name":"guardianStatus","type":"uint8","internalType":"enum RecoveryController.GuardianStatus"}],"stateMutability":"view"},{"type":"function","name":"handleAcceptance","inputs":[{"name":"emailAuthMsg","type":"tuple","internalType":"struct EmailAuthMsg","components":[{"name":"templateId","type":"uint256","internalType":"uint256"},{"name":"commandParams","type":"bytes[]","internalType":"bytes[]"},{"name":"skippedCommandPrefix","type":"uint256","internalType":"uint256"},{"name":"proof","type":"tuple","internalType":"struct EmailProof","components":[{"name":"domainName","type":"string","internalType":"string"},{"name":"publicKeyHash","type":"bytes32","internalType":"bytes32"},{"name":"timestamp","type":"uint256","internalType":"uint256"},{"name":"maskedCommand","type":"string","internalType":"string"},{"name":"emailNullifier","type":"bytes32","internalType":"bytes32"},{"name":"accountSalt","type":"bytes32","internalType":"bytes32"},{"name":"isCodeExist","type":"bool","internalType":"bool"},{"name":"proof","type":"bytes","internalType":"bytes"}]}]},{"name":"templateIdx","type":"uint256","internalType":"uint256"}],"outputs":[],"stateMutability":"nonpayable"},{"type":"function","name":"handleRecovery","inputs":[{"name":"emailAuthMsg","type":"tuple","internalType":"struct EmailAuthMsg","components":[{"name":"templateId","type":"uint256","internalType":"uint256"},{"name":"commandParams","type":"bytes[]","internalType":"bytes[]"},{"name":"skippedCommandPrefix","type":"uint256","internalType":"uint256"},{"name":"proof","type":"tuple","internalType":"struct EmailProof","components":[{"name":"domainName","type":"string","internalType":"string"},{"name":"publicKeyHash","type":"bytes32","internalType":"bytes32"},{"name":"timestamp","type":"uint256","internalType":"uint256"},{"name":"maskedCommand","type":"string","internalType":"string"},{"name":"emailNullifier","type":"bytes32","internalType":"bytes32"},{"name":"accountSalt","type":"bytes32","internalType":"bytes32"},{"name":"isCodeExist","type":"bool","internalType":"bool"},{"name":"proof","type":"bytes","internalType":"bytes"}]}]},{"name":"templateIdx","type":"uint256","internalType":"uint256"}],"outputs":[],"stateMutability":"nonpayable"},{"type":"function","name":"initialize","inputs":[{"name":"_initialOwner","type":"address","internalType":"address"},{"name":"_verifier","type":"address","internalType":"address"},{"name":"_dkim","type":"address","internalType":"address"},{"name":"_emailAuthImplementation","type":"address","internalType":"address"}],"outputs":[],"stateMutability":"nonpayable"},{"type":"function","name":"isActivated","inputs":[{"name":"recoveredAccount","type":"address","internalType":"address"}],"outputs":[{"name":"","type":"bool","internalType":"bool"}],"stateMutability":"view"},{"type":"function","name":"isActivatedOfAccount","inputs":[{"name":"account","type":"address","internalType":"address"}],"outputs":[{"name":"isActivated","type":"bool","internalType":"bool"}],"stateMutability":"view"},{"type":"function","name":"isRecovering","inputs":[{"name":"account","type":"address","internalType":"address"}],"outputs":[{"name":"recovering","type":"bool","internalType":"bool"}],"stateMutability":"view"},{"type":"function","name":"newSignerCandidateOfAccount","inputs":[{"name":"account","type":"address","internalType":"address"}],"outputs":[{"name":"newSignerCandidate","type":"address","internalType":"address"}],"stateMutability":"view"},{"type":"function","name":"owner","inputs":[],"outputs":[{"name":"","type":"address","internalType":"address"}],"stateMutability":"view"},{"type":"function","name":"recoveryCommandTemplates","inputs":[],"outputs":[{"name":"","type":"string[][]","internalType":"string[][]"}],"stateMutability":"pure"},{"type":"function","name":"rejectRecovery","inputs":[],"outputs":[],"stateMutability":"nonpayable"},{"type":"function","name":"renounceOwnership","inputs":[],"outputs":[],"stateMutability":"nonpayable"},{"type":"function","name":"requestGuardian","inputs":[{"name":"guardian","type":"address","internalType":"address"}],"outputs":[],"stateMutability":"nonpayable"},{"type":"function","name":"timelockPeriodOfAccount","inputs":[{"name":"account","type":"address","internalType":"address"}],"outputs":[{"name":"timelockPeriod","type":"uint256","internalType":"uint256"}],"stateMutability":"view"},{"type":"function","name":"transferOwnership","inputs":[{"name":"newOwner","type":"address","internalType":"address"}],"outputs":[],"stateMutability":"nonpayable"},{"type":"function","name":"verifier","inputs":[],"outputs":[{"name":"","type":"address","internalType":"address"}],"stateMutability":"view"},{"type":"function","name":"verifierAddr","inputs":[],"outputs":[{"name":"","type":"address","internalType":"address"}],"stateMutability":"view"},{"type":"event","name":"Initialized","inputs":[{"name":"version","type":"uint64","indexed":false,"internalType":"uint64"}],"anonymous":false},{"type":"event","name":"OwnershipTransferred","inputs":[{"name":"previousOwner","type":"address","indexed":true,"internalType":"address"},{"name":"newOwner","type":"address","indexed":true,"internalType":"address"}],"anonymous":false},{"type":"error","name":"InvalidInitialization","inputs":[]},{"type":"error","name":"NotInitializing","inputs":[]},{"type":"error","name":"OwnableInvalidOwner","inputs":[{"name":"owner","type":"address","internalType":"address"}]},{"type":"error","name":"OwnableUnauthorizedAccount","inputs":[{"name":"account","type":"address","internalType":"address"}]}],"bytecode":{"object":"0x6080604052348015600e575f5ffd5b50612a578061001c5f395ff3fe608060405234801561000f575f5ffd5b50600436106101dc575f3560e01c806373357f8511610109578063c18d09cf1161009e578063dbeb882a1161006e578063dbeb882a14610485578063ef3dde4c14610498578063f2fde38b146104c0578063f8c8765e146104d3575f5ffd5b8063c18d09cf14610435578063c9faa7c514610448578063ca914d2714610473578063d446bb9a1461047d575f5ffd5b8063a5e3ee70116100d9578063a5e3ee70146103dc578063b34313af146103ef578063b620169214610411578063b68126fa14610422575f5ffd5b806373357f851461035b5780637f101b9f1461036e5780638da5cb5b1461038d578063a12de995146103bd575f5ffd5b806332ccc2f21161017f5780634e4ee3ca1161014f5780634e4ee3ca146102fc578063663ea2e21461032e5780636da9951514610340578063715018a614610353575f5ffd5b806332ccc2f2146102af5780633a8eab14146102d05780633ef01b8f146102e3578063400ad5ce146102eb575f5ffd5b8063138d2a4b116101ba578063138d2a4b14610258578063222f6cb5146102775780632b7ac3f31461028c5780632c4ce1291461029c575f5ffd5b80630481af67146101e05780630633b14a146101f55780631098e02e1461022d575b5f5ffd5b6101f36101ee366004611f57565b6104e6565b005b6102176102033660046120dc565b60066020525f908152604090205460ff1681565b6040516102249190612112565b60405180910390f35b600254610240906001600160a01b031681565b6040516001600160a01b039091168152602001610224565b6101f3610266366004612138565b335f90815260076020526040902055565b61027f610995565b604051610224919061217d565b5f546001600160a01b0316610240565b6102406102aa366004612226565b610bc2565b6102c26102bd366004612138565b610c38565b604051908152602001610224565b6102406102de366004612267565b610c8f565b61027f610d5d565b6001546001600160a01b0316610240565b61031e61030a3660046120dc565b60036020525f908152604090205460ff1681565b6040519015158152602001610224565b5f54610240906001600160a01b031681565b6102c261034e366004612138565b61106f565b6101f3611084565b600154610240906001600160a01b031681565b6102c261037c3660046120dc565b60076020525f908152604090205481565b7f9016d09d72d40fdae2fd8ceac6b6234c7706214fd39c1cd1e609a0528c199300546001600160a01b0316610240565b6102c26103cb3660046120dc565b60086020525f908152604090205481565b6102406103ea366004612226565b611097565b61031e6103fd3660046120dc565b60046020525f908152604090205460ff1681565b6002546001600160a01b0316610240565b6101f3610430366004611f57565b6110d7565b6101f3610443366004612291565b611290565b61031e6104563660046120dc565b6001600160a01b03165f9081526003602052604090205460ff1690565b6102c26203f48081565b6101f3611432565b6101f36104933660046120dc565b611524565b6102406104a63660046120dc565b60056020525f90815260409020546001600160a01b031681565b6101f36104ce3660046120dc565b611658565b6101f36104e13660046122dd565b611695565b5f6104f5836020015183610bc2565b90506001600160a01b03811661054d5760405162461bcd60e51b81526020600482015260186024820152771a5b9d985b1a59081858d8dbdd5b9d081a5b88195b585a5b60421b60448201526064015b60405180910390fd5b5f61056082856060015160a00151610c8f565b90505f61056c84610c38565b855190915081146105b55760405162461bcd60e51b81526020600482015260136024820152721a5b9d985b1a59081d195b5c1b185d19481a59606a1b6044820152606401610544565b606085015160c0015115156001146106065760405162461bcd60e51b81526020600482015260146024820152736973436f646545786973742069732066616c736560601b6044820152606401610544565b5f826001600160a01b03163b5f03610864575f61062b85886060015160a001516117e0565b9050809150816001600160a01b031663557cf5ef6106516001546001600160a01b031690565b6040516001600160e01b031960e084901b1681526001600160a01b0390911660048201526024015f604051808303815f87803b15801561068f575f5ffd5b505af11580156106a1573d5f5f3e3d5ffd5b50505050816001600160a01b0316634141407c6106c55f546001600160a01b031690565b6040516001600160e01b031960e084901b1681526001600160a01b0390911660048201526024015f604051808303815f87803b158015610703575f5ffd5b505af1158015610715573d5f5f3e3d5ffd5b505f925050505b610724610995565b518110156107bb57826001600160a01b0316638ff3730f61074483610c38565b61074c610995565b848151811061075d5761075d612336565b60200260200101516040518363ffffffff1660e01b815260040161078292919061234a565b5f604051808303815f87803b158015610799575f5ffd5b505af11580156107ab573d5f5f3e3d5ffd5b50506001909201915061071c9050565b505f5b6107c6610d5d565b5181101561085d57826001600160a01b0316638ff3730f6107e68361106f565b6107ee610d5d565b84815181106107ff576107ff612336565b60200260200101516040518363ffffffff1660e01b815260040161082492919061234a565b5f604051808303815f87803b15801561083b575f5ffd5b505af115801561084d573d5f5f3e3d5ffd5b5050600190920191506107be9050565b505061091c565b829050306001600160a01b0316816001600160a01b031663f77c47916040518163ffffffff1660e01b8152600401602060405180830381865afa1580156108ad573d5f5f3e3d5ffd5b505050506040513d601f19601f820116820180604052508101906108d191906123b4565b6001600160a01b03161461091c5760405162461bcd60e51b815260206004820152601260248201527134b73b30b634b21031b7b73a3937b63632b960711b6044820152606401610544565b60405163ad3f5f9b60e01b81526001600160a01b0382169063ad3f5f9b9061094890899060040161245d565b5f604051808303815f87803b15801561095f575f5ffd5b505af1158015610971573d5f5f3e3d5ffd5b5050505061098d8386886020015189606001516080015161187c565b505050505050565b6040805160018082528183019092526060915f9190816020015b60608152602001906001900390816109af57505060408051600580825260c08201909252919250602082015b60608152602001906001900390816109db57905050815f81518110610a0257610a02612336565b6020026020010181905250604051806040016040528060068152602001651058d8d95c1d60d21b815250815f81518110610a3e57610a3e612336565b60200260200101515f81518110610a5757610a57612336565b60200260200101819052506040518060400160405280600881526020016733bab0b93234b0b760c11b815250815f81518110610a9557610a95612336565b6020026020010151600181518110610aaf57610aaf612336565b6020026020010181905250604051806040016040528060078152602001661c995c5d595cdd60ca1b815250815f81518110610aec57610aec612336565b6020026020010151600281518110610b0657610b06612336565b6020026020010181905250604051806040016040528060038152602001623337b960e91b815250815f81518110610b3f57610b3f612336565b6020026020010151600381518110610b5957610b59612336565b6020026020010181905250604051806040016040528060098152602001687b657468416464727d60b81b815250815f81518110610b9857610b98612336565b6020026020010151600481518110610bb257610bb2612336565b6020908102919091010152919050565b5f8115610be15760405162461bcd60e51b8152600401610544906124f2565b8251600114610c025760405162461bcd60e51b815260040161054490612522565b825f81518110610c1457610c14612336565b6020026020010151806020019051810190610c2f91906123b4565b90505b92915050565b60408051600160208201526060918101829052600a608082015269414343455054414e434560b01b60a08201529081018290525f9060c0015b60408051601f19818403018152919052805160209091012092915050565b5f610c2f8260405180602001610ca490611d94565b601f1982820381018352601f90910116604052610cc96002546001600160a01b031690565b6040516001600160a01b03881660248201526044810187905230606482015260840160408051601f19818403018152918152602080830180516001600160e01b03166369359f3760e11b1790529051610d2493929101612552565b60408051601f1981840301815290829052610d429291602001612594565b604051602081830303815290604052805190602001206119ec565b6040805160018082528183019092526060915f9190816020015b6060815260200190600190039081610d775750506040805160088082526101208201909252919250602082015b6060815260200190600190039081610da457905050815f81518110610dcb57610dcb612336565b60200260200101819052506040518060400160405280600381526020016214d95d60ea1b815250815f81518110610e0457610e04612336565b60200260200101515f81518110610e1d57610e1d612336565b60200260200101819052506040518060400160405280600381526020016274686560e81b815250815f81518110610e5657610e56612336565b6020026020010151600181518110610e7057610e70612336565b6020026020010181905250604051806040016040528060038152602001626e657760e81b815250815f81518110610ea957610ea9612336565b6020026020010151600281518110610ec357610ec3612336565b60200260200101819052506040518060400160405280600681526020016539b4b3b732b960d11b815250815f81518110610eff57610eff612336565b6020026020010151600381518110610f1957610f19612336565b60200260200101819052506040518060400160405280600281526020016137b360f11b815250815f81518110610f5157610f51612336565b6020026020010151600481518110610f6b57610f6b612336565b6020026020010181905250604051806040016040528060098152602001687b657468416464727d60b81b815250815f81518110610faa57610faa612336565b6020026020010151600581518110610fc457610fc4612336565b602002602001018190525060405180604001604052806002815260200161746f60f01b815250815f81518110610ffc57610ffc612336565b602002602001015160068151811061101657611016612336565b6020026020010181905250604051806040016040528060098152602001687b657468416464727d60b81b815250815f8151811061105557611055612336565b6020026020010151600781518110610bb257610bb2612336565b5f600182604051602001610c719291906125a8565b61108c6119f8565b6110955f611a53565b565b5f81156110b65760405162461bcd60e51b8152600401610544906124f2565b8251600214610c025760405162461bcd60e51b815260040161054490612522565b5f6110e6836020015183611097565b90506001600160a01b0381166111395760405162461bcd60e51b81526020600482015260186024820152771a5b9d985b1a59081858d8dbdd5b9d081a5b88195b585a5b60421b6044820152606401610544565b5f61114c82856060015160a00151610c8f565b90505f816001600160a01b03163b116111a75760405162461bcd60e51b815260206004820152601860248201527f677561726469616e206973206e6f74206465706c6f79656400000000000000006044820152606401610544565b5f6001846040516020016111bc9291906125a8565b60408051601f1981840301815291905280516020909101208551909150811461121d5760405162461bcd60e51b81526020600482015260136024820152721a5b9d985b1a59081d195b5c1b185d19481a59606a1b6044820152606401610544565b60405163ad3f5f9b60e01b815282906001600160a01b0382169063ad3f5f9b9061124b90899060040161245d565b5f604051808303815f87803b158015611262575f5ffd5b505af1158015611274573d5f5f3e3d5ffd5b5050505061098d83868860200151896060015160800151611ac3565b6001600160a01b0382166112d85760405162461bcd60e51b815260206004820152600f60248201526e1a5b9d985b1a59081858d8dbdd5b9d608a1b6044820152606401610544565b6001600160a01b0382165f9081526004602052604090205460ff1661133a5760405162461bcd60e51b81526020600482015260186024820152777265636f76657279206e6f7420696e2070726f677265737360401b6044820152606401610544565b6001600160a01b0382165f908152600860205260409020544210156113985760405162461bcd60e51b81526020600482015260146024820152731d1a5b595b1bd8dac81b9bdd08195e1c1a5c995960621b6044820152606401610544565b6001600160a01b038281165f81815260056020818152604080842080546004808552838720805460ff1916905560088552838720969096559390925281546001600160a01b0319169091555163a6f9dae160e01b815293169083018190529163a6f9dae1906024015f604051808303815f87803b158015611417575f5ffd5b505af1158015611429573d5f5f3e3d5ffd5b50505050505050565b335f8181526004602052604090205460ff1661148b5760405162461bcd60e51b81526020600482015260186024820152777265636f76657279206e6f7420696e2070726f677265737360401b6044820152606401610544565b6001600160a01b0381165f9081526008602052604090205442106114e45760405162461bcd60e51b815260206004820152601060248201526f1d1a5b595b1bd8dac8195e1c1a5c995960821b6044820152606401610544565b6001600160a01b03165f908152600460209081526040808320805460ff191690556005825280832080546001600160a01b03191690556008909152812055565b335f8181526004602052604090205460ff16156115535760405162461bcd60e51b8152600401610544906125db565b6001600160a01b0382166115795760405162461bcd60e51b815260040161054490612609565b6001600160a01b0382165f9081526006602052604081205460ff1660028111156115a5576115a56120fe565b146115f25760405162461bcd60e51b815260206004820152601c60248201527f677561726469616e20737461747573206d757374206265204e4f4e45000000006044820152606401610544565b6001600160a01b0381165f9081526003602052604090205460ff16611634576001600160a01b0381165f908152600360205260409020805460ff191660011790555b506001600160a01b03165f908152600660205260409020805460ff19166001179055565b6116606119f8565b6001600160a01b03811661168957604051631e4fbdf760e01b81525f6004820152602401610544565b61169281611a53565b50565b7ff0c57e16840df040f15088dc2f81fe391c3923bec73e23a9662efc9c229c6a008054600160401b810460ff1615906001600160401b03165f811580156116d95750825b90505f826001600160401b031660011480156116f45750303b155b905081158015611702575080155b156117205760405163f92ee8a960e01b815260040160405180910390fd5b845467ffffffffffffffff19166001178555831561174a57845460ff60401b1916600160401b1785555b61175389611d00565b5f80546001600160a01b03808b166001600160a01b031992831617909255600180548a8416908316179055600280549289169290911691909117905583156117d557845460ff60401b19168555604051600181527fc7f505b2f371ae2175ee4913f4499e1f2633a7b5936321eed1cdaeb6115181d29060200160405180910390a15b505050505050505050565b5f5f826117f56002546001600160a01b031690565b6040516001600160a01b03871660248201526044810186905230606482015260840160408051601f198184030181529181526020820180516001600160e01b03166369359f3760e11b1790525161184b90611d94565b611856929190612552565b8190604051809103905ff5905080158015611873573d5f5f3e3d5ffd5b50949350505050565b5f825f8151811061188f5761188f612336565b60200260200101518060200190518101906118aa91906123b4565b6001600160a01b0381165f9081526004602052604090205490915060ff16156118e55760405162461bcd60e51b8152600401610544906125db565b6001600160a01b03851661190b5760405162461bcd60e51b815260040161054490612609565b60016001600160a01b0386165f9081526006602052604090205460ff166002811115611939576119396120fe565b146119865760405162461bcd60e51b815260206004820152601860248201527f737461747573206d7573742062652052455155455354454400000000000000006044820152606401610544565b83156119a45760405162461bcd60e51b8152600401610544906124f2565b82516001146119c55760405162461bcd60e51b815260040161054490612522565b505050506001600160a01b03165f908152600660205260409020805460ff19166002179055565b5f610c2f838330611d11565b33611a2a7f9016d09d72d40fdae2fd8ceac6b6234c7706214fd39c1cd1e609a0528c199300546001600160a01b031690565b6001600160a01b0316146110955760405163118cdaa760e01b8152336004820152602401610544565b7f9016d09d72d40fdae2fd8ceac6b6234c7706214fd39c1cd1e609a0528c19930080546001600160a01b031981166001600160a01b03848116918217845560405192169182907f8be0079c531659141344cd1fd0a4f28419497f9722a3daafe3b4186f6b6457e0905f90a3505050565b5f825f81518110611ad657611ad6612336565b6020026020010151806020019051810190611af191906123b4565b6001600160a01b0381165f9081526004602052604090205490915060ff1615611b2c5760405162461bcd60e51b8152600401610544906125db565b6001600160a01b038516611b525760405162461bcd60e51b815260040161054490612609565b60026001600160a01b0386165f9081526006602052604090205460ff166002811115611b8057611b806120fe565b14611bcd5760405162461bcd60e51b815260206004820181905260248201527f677561726469616e20737461747573206d7573742062652041434345505445446044820152606401610544565b8315611beb5760405162461bcd60e51b8152600401610544906124f2565b8251600214611c0c5760405162461bcd60e51b815260040161054490612522565b5f83600181518110611c2057611c20612336565b6020026020010151806020019051810190611c3b91906123b4565b90506001600160a01b038116611c885760405162461bcd60e51b815260206004820152601260248201527134b73b30b634b2103732bb9039b4b3b732b960711b6044820152606401610544565b6001600160a01b038083165f908152600460209081526040808320805460ff191660011790556005825280832080549486166001600160a01b031990951694909417909355600790522054611cdd9042612633565b6001600160a01b039092165f908152600860205260409020919091555050505050565b611d08611d43565b61169281611d8c565b5f604051836040820152846020820152828152600b8101905060ff8153605590206001600160a01b0316949350505050565b7ff0c57e16840df040f15088dc2f81fe391c3923bec73e23a9662efc9c229c6a0054600160401b900460ff1661109557604051631afcd79f60e31b815260040160405180910390fd5b611660611d43565b6103cf8061265383390190565b634e487b7160e01b5f52604160045260245ffd5b604051608081016001600160401b0381118282101715611dd757611dd7611da1565b60405290565b60405161010081016001600160401b0381118282101715611dd757611dd7611da1565b604051601f8201601f191681016001600160401b0381118282101715611e2857611e28611da1565b604052919050565b5f82601f830112611e3f575f5ffd5b8135602083015f5f6001600160401b03841115611e5e57611e5e611da1565b50601f8301601f1916602001611e7381611e00565b915050828152858383011115611e87575f5ffd5b828260208301375f92810160200192909252509392505050565b5f82601f830112611eb0575f5ffd5b81356001600160401b03811115611ec957611ec9611da1565b8060051b611ed960208201611e00565b91825260208185018101929081019086841115611ef4575f5ffd5b6020860192505b83831015611f395782356001600160401b03811115611f18575f5ffd5b611f27886020838a0101611e30565b83525060209283019290910190611efb565b9695505050505050565b80358015158114611f52575f5ffd5b919050565b5f5f60408385031215611f68575f5ffd5b82356001600160401b03811115611f7d575f5ffd5b830160808186031215611f8e575f5ffd5b611f96611db5565b8135815260208201356001600160401b03811115611fb2575f5ffd5b611fbe87828501611ea1565b6020830152506040828101359082015260608201356001600160401b03811115611fe6575f5ffd5b91909101906101008287031215611ffb575f5ffd5b612003611ddd565b82356001600160401b03811115612018575f5ffd5b61202488828601611e30565b825250602083810135908201526040808401359082015260608301356001600160401b03811115612053575f5ffd5b61205f88828601611e30565b6060830152506080838101359082015260a0808401359082015261208560c08401611f43565b60c082015260e08301356001600160401b038111156120a2575f5ffd5b6120ae88828601611e30565b60e083015250606082015295602094909401359450505050565b6001600160a01b0381168114611692575f5ffd5b5f602082840312156120ec575f5ffd5b81356120f7816120c8565b9392505050565b634e487b7160e01b5f52602160045260245ffd5b602081016003831061213257634e487b7160e01b5f52602160045260245ffd5b91905290565b5f60208284031215612148575f5ffd5b5035919050565b5f81518084528060208401602086015e5f602082860101526020601f19601f83011685010191505092915050565b5f602082016020835280845180835260408501915060408160051b8601019250602086015f5b8281101561221a57868503603f19018452815180518087526020918201918088019190600582901b8901015f5b8281101561220157601f198a83030184526121ec82865161214f565b602095860195949094019391506001016121d0565b50975050506020948501949290920191506001016121a3565b50929695505050505050565b5f5f60408385031215612237575f5ffd5b82356001600160401b0381111561224c575f5ffd5b61225885828601611ea1565b95602094909401359450505050565b5f5f60408385031215612278575f5ffd5b8235612283816120c8565b946020939093013593505050565b5f5f604083850312156122a2575f5ffd5b82356122ad816120c8565b915060208301356001600160401b038111156122c7575f5ffd5b6122d385828601611e30565b9150509250929050565b5f5f5f5f608085870312156122f0575f5ffd5b84356122fb816120c8565b9350602085013561230b816120c8565b9250604085013561231b816120c8565b9150606085013561232b816120c8565b939692955090935050565b634e487b7160e01b5f52603260045260245ffd5b5f604082018483526040602084015280845180835260608501915060608160051b8601019250602086015f5b828110156123a757605f1987860301845261239285835161214f565b94506020938401939190910190600101612376565b5092979650505050505050565b5f602082840312156123c4575f5ffd5b81516120f7816120c8565b5f815161010084526123e561010085018261214f565b9050602083015160208501526040830151604085015260608301518482036060860152612412828261214f565b9150506080830151608085015260a083015160a085015260c083015161243c60c086018215159052565b5060e083015184820360e0860152612454828261214f565b95945050505050565b602081525f60a082018351602084015260208401516080604085015281815180845260c08601915060c08160051b87010193506020830192505f5b818110156124c95760bf198786030183526124b485855161214f565b94506020938401939290920191600101612498565b50505050604084015160608401526060840151601f1984830301608085015261245482826123cf565b6020808252601690820152750d2dcecc2d8d2c840e8cadae0d8c2e8ca40d2dcc8caf60531b604082015260600190565b602080825260169082015275696e76616c696420636f6d6d616e6420706172616d7360501b604082015260600190565b6001600160a01b03831681526040602082018190525f906125759083018461214f565b949350505050565b5f81518060208401855e5f93019283525090919050565b5f6125756125a2838661257d565b8461257d565b60ff929092168252606060208301819052600890830152675245434f5645525960c01b6080830152604082015260a00190565b6020808252601490820152737265636f7665727920696e2070726f677265737360601b604082015260600190565b60208082526010908201526f34b73b30b634b21033bab0b93234b0b760811b604082015260600190565b80820180821115610c3257634e487b7160e01b5f52601160045260245ffdfe60806040526040516103cf3803806103cf8339810160408190526100229161023b565b61002c8282610033565b5050610320565b61003c82610091565b6040516001600160a01b038316907fbc7cd75a20ee27fd9adebab32041f755214dbc6bffa90cc0225b39da2e5c2d3b905f90a280511561008557610080828261010c565b505050565b61008d61017f565b5050565b806001600160a01b03163b5f036100cb57604051634c9c8ce360e01b81526001600160a01b03821660048201526024015b60405180910390fd5b7f360894a13ba1a3210667c828492db98dca3e2076cc3735a920a3ca505d382bbc80546001600160a01b0319166001600160a01b0392909216919091179055565b60605f5f846001600160a01b031684604051610128919061030a565b5f60405180830381855af49150503d805f8114610160576040519150601f19603f3d011682016040523d82523d5f602084013e610165565b606091505b5090925090506101768583836101a0565b95945050505050565b341561019e5760405163b398979f60e01b815260040160405180910390fd5b565b6060826101b5576101b0826101ff565b6101f8565b81511580156101cc57506001600160a01b0384163b155b156101f557604051639996b31560e01b81526001600160a01b03851660048201526024016100c2565b50805b9392505050565b80511561020e57805160208201fd5b60405163d6bda27560e01b815260040160405180910390fd5b634e487b7160e01b5f52604160045260245ffd5b5f5f6040838503121561024c575f5ffd5b82516001600160a01b0381168114610262575f5ffd5b60208401519092506001600160401b0381111561027d575f5ffd5b8301601f8101851361028d575f5ffd5b80516001600160401b038111156102a6576102a6610227565b604051601f8201601f19908116603f011681016001600160401b03811182821017156102d4576102d4610227565b6040528181528282016020018710156102eb575f5ffd5b8160208401602083015e5f602083830101528093505050509250929050565b5f82518060208501845e5f920191825250919050565b60a38061032c5f395ff3fe6080604052600a600c565b005b60186014601a565b6050565b565b5f604b7f360894a13ba1a3210667c828492db98dca3e2076cc3735a920a3ca505d382bbc546001600160a01b031690565b905090565b365f5f375f5f365f845af43d5f5f3e8080156069573d5ff35b3d5ffdfea2646970667358221220d981d9ee70f01ad48e7100822b90c6eac94807a706d05eca81ffeb3e95633e9964736f6c634300081c0033a264697066735822122073799b8591011fe58a951891525959dc054ceb30010b707f10cc798ea3d84cba64736f6c634300081c0033","linkReferences":{}},"methodIdentifiers":{"DEFAULT_TIMELOCK_PERIOD()":"ca914d27","acceptanceCommandTemplates()":"222f6cb5","completeRecovery(address,bytes)":"c18d09cf","computeAcceptanceTemplateId(uint256)":"32ccc2f2","computeEmailAuthAddress(address,bytes32)":"3a8eab14","computeRecoveryTemplateId(uint256)":"6da99515","configureTimelockPeriod(uint256)":"138d2a4b","currentTimelockOfAccount(address)":"a12de995","dkim()":"400ad5ce","dkimAddr()":"73357f85","emailAuthImplementation()":"b6201692","emailAuthImplementationAddr()":"1098e02e","extractRecoveredAccountFromAcceptanceCommand(bytes[],uint256)":"2c4ce129","extractRecoveredAccountFromRecoveryCommand(bytes[],uint256)":"a5e3ee70","guardians(address)":"0633b14a","handleAcceptance((uint256,bytes[],uint256,(string,bytes32,uint256,string,bytes32,bytes32,bool,bytes)),uint256)":"0481af67","handleRecovery((uint256,bytes[],uint256,(string,bytes32,uint256,string,bytes32,bytes32,bool,bytes)),uint256)":"b68126fa","initialize(address,address,address,address)":"f8c8765e","isActivated(address)":"c9faa7c5","isActivatedOfAccount(address)":"4e4ee3ca","isRecovering(address)":"b34313af","newSignerCandidateOfAccount(address)":"ef3dde4c","owner()":"8da5cb5b","recoveryCommandTemplates()":"3ef01b8f","rejectRecovery()":"d446bb9a","renounceOwnership()":"715018a6","requestGuardian(address)":"dbeb882a","timelockPeriodOfAccount(address)":"7f101b9f","transferOwnership(address)":"f2fde38b","verifier()":"2b7ac3f3","verifierAddr()":"663ea2e2"},"id":303}