{"abi":[{"type":"function","name":"auxiliary","inputs":[],"outputs":[{"name":"entrypoint","type":"address","internalType":"contract IEntryPoint"},{"name":"gasSimulation","type":"address","internalType":"contract UserOpGasLog"},{"name":"registry","type":"address","internalType":"contract IERC7484"},{"name":"mockFactory","type":"address","internalType":"contract MockFactory"},{"name":"smartSession","type":"address","internalType":"contract ISmartSession"}],"stateMutability":"view"}],"bytecode":{"object":"0x6080604052348015600e575f5ffd5b5060c680601a5f395ff3fe6080604052348015600e575f5ffd5b50600436106026575f3560e01c8063cb802c5514602a575b5f5ffd5b5f546001546002546003546004546054946001600160a01b03908116948116938116928116911685565b604080516001600160a01b0396871681529486166020860152928516848401529084166060840152909216608082015290519081900360a00190f3fea264697066735822122095f2123fff83967b2e3c4d7eb080c3ca4b4474f07cfd61deed5c14d6e5b1645b64736f6c634300081c0033","linkReferences":{}},"methodIdentifiers":{"auxiliary()":"cb802c55"},"id":182}