{"abi":[{"type":"function","name":"_getInitCallData","inputs":[{"name":"salt","type":"bytes32","internalType":"bytes32"},{"name":"txValidator","type":"address","internalType":"address"},{"name":"originalInitCode","type":"bytes","internalType":"bytes"},{"name":"erc4337CallData","type":"bytes","internalType":"bytes"}],"outputs":[{"name":"initCode","type":"bytes","internalType":"bytes"},{"name":"callData","type":"bytes","internalType":"bytes"}],"stateMutability":"nonpayable"},{"type":"function","name":"configModuleUserOp","inputs":[{"name":"instance","type":"tuple","internalType":"struct AccountInstance","components":[{"name":"account","type":"address","internalType":"address"},{"name":"accountType","type":"uint8","internalType":"enum AccountType"},{"name":"accountHelper","type":"address","internalType":"address"},{"name":"aux","type":"tuple","internalType":"struct Auxiliary","components":[{"name":"entrypoint","type":"address","internalType":"contract IEntryPoint"},{"name":"gasSimulation","type":"address","internalType":"contract UserOpGasLog"},{"name":"registry","type":"address","internalType":"contract IERC7484"},{"name":"mockFactory","type":"address","internalType":"contract MockFactory"},{"name":"smartSession","type":"address","internalType":"contract ISmartSession"}]},{"name":"defaultValidator","type":"address","internalType":"contract IValidator"},{"name":"salt","type":"bytes32","internalType":"bytes32"},{"name":"initCode","type":"bytes","internalType":"bytes"},{"name":"accountFactory","type":"address","internalType":"address"},{"name":"smartSession","type":"address","internalType":"contract ISmartSession"},{"name":"defaultSessionValidator","type":"address","internalType":"contract ISessionValidator"}]},{"name":"moduleType","type":"uint256","internalType":"uint256"},{"name":"module","type":"address","internalType":"address"},{"name":"initData","type":"bytes","internalType":"bytes"},{"name":"isInstall","type":"bool","internalType":"bool"},{"name":"txValidator","type":"address","internalType":"address"}],"outputs":[{"name":"userOp","type":"tuple","internalType":"struct PackedUserOperation","components":[{"name":"sender","type":"address","internalType":"address"},{"name":"nonce","type":"uint256","internalType":"uint256"},{"name":"initCode","type":"bytes","internalType":"bytes"},{"name":"callData","type":"bytes","internalType":"bytes"},{"name":"accountGasLimits","type":"bytes32","internalType":"bytes32"},{"name":"preVerificationGas","type":"uint256","internalType":"uint256"},{"name":"gasFees","type":"bytes32","internalType":"bytes32"},{"name":"paymasterAndData","type":"bytes","internalType":"bytes"},{"name":"signature","type":"bytes","internalType":"bytes"}]},{"name":"userOpHash","type":"bytes32","internalType":"bytes32"}],"stateMutability":"nonpayable"},{"type":"function","name":"deployAccount","inputs":[{"name":"instance","type":"tuple","internalType":"struct AccountInstance","components":[{"name":"account","type":"address","internalType":"address"},{"name":"accountType","type":"uint8","internalType":"enum AccountType"},{"name":"accountHelper","type":"address","internalType":"address"},{"name":"aux","type":"tuple","internalType":"struct Auxiliary","components":[{"name":"entrypoint","type":"address","internalType":"contract IEntryPoint"},{"name":"gasSimulation","type":"address","internalType":"contract UserOpGasLog"},{"name":"registry","type":"address","internalType":"contract IERC7484"},{"name":"mockFactory","type":"address","internalType":"contract MockFactory"},{"name":"smartSession","type":"address","internalType":"contract ISmartSession"}]},{"name":"defaultValidator","type":"address","internalType":"contract IValidator"},{"name":"salt","type":"bytes32","internalType":"bytes32"},{"name":"initCode","type":"bytes","internalType":"bytes"},{"name":"accountFactory","type":"address","internalType":"address"},{"name":"smartSession","type":"address","internalType":"contract ISmartSession"},{"name":"defaultSessionValidator","type":"address","internalType":"contract ISessionValidator"}]}],"outputs":[],"stateMutability":"nonpayable"},{"type":"function","name":"encode","inputs":[{"name":"target","type":"address","internalType":"address"},{"name":"value","type":"uint256","internalType":"uint256"},{"name":"callData","type":"bytes","internalType":"bytes"}],"outputs":[{"name":"erc7579Tx","type":"bytes","internalType":"bytes"}],"stateMutability":"pure"},{"type":"function","name":"encode","inputs":[{"name":"executions","type":"tuple[]","internalType":"struct Execution[]","components":[{"name":"target","type":"address","internalType":"address"},{"name":"value","type":"uint256","internalType":"uint256"},{"name":"callData","type":"bytes","internalType":"bytes"}]}],"outputs":[{"name":"erc7579Tx","type":"bytes","internalType":"bytes"}],"stateMutability":"pure"},{"type":"function","name":"execUserOp","inputs":[{"name":"instance","type":"tuple","internalType":"struct AccountInstance","components":[{"name":"account","type":"address","internalType":"address"},{"name":"accountType","type":"uint8","internalType":"enum AccountType"},{"name":"accountHelper","type":"address","internalType":"address"},{"name":"aux","type":"tuple","internalType":"struct Auxiliary","components":[{"name":"entrypoint","type":"address","internalType":"contract IEntryPoint"},{"name":"gasSimulation","type":"address","internalType":"contract UserOpGasLog"},{"name":"registry","type":"address","internalType":"contract IERC7484"},{"name":"mockFactory","type":"address","internalType":"contract MockFactory"},{"name":"smartSession","type":"address","internalType":"contract ISmartSession"}]},{"name":"defaultValidator","type":"address","internalType":"contract IValidator"},{"name":"salt","type":"bytes32","internalType":"bytes32"},{"name":"initCode","type":"bytes","internalType":"bytes"},{"name":"accountFactory","type":"address","internalType":"address"},{"name":"smartSession","type":"address","internalType":"contract ISmartSession"},{"name":"defaultSessionValidator","type":"address","internalType":"contract ISessionValidator"}]},{"name":"callData","type":"bytes","internalType":"bytes"},{"name":"txValidator","type":"address","internalType":"address"}],"outputs":[{"name":"userOp","type":"tuple","internalType":"struct PackedUserOperation","components":[{"name":"sender","type":"address","internalType":"address"},{"name":"nonce","type":"uint256","internalType":"uint256"},{"name":"initCode","type":"bytes","internalType":"bytes"},{"name":"callData","type":"bytes","internalType":"bytes"},{"name":"accountGasLimits","type":"bytes32","internalType":"bytes32"},{"name":"preVerificationGas","type":"uint256","internalType":"uint256"},{"name":"gasFees","type":"bytes32","internalType":"bytes32"},{"name":"paymasterAndData","type":"bytes","internalType":"bytes"},{"name":"signature","type":"bytes","internalType":"bytes"}]},{"name":"userOpHash","type":"bytes32","internalType":"bytes32"}],"stateMutability":"nonpayable"},{"type":"function","name":"formatERC1271Hash","inputs":[{"name":"instance","type":"tuple","internalType":"struct AccountInstance","components":[{"name":"account","type":"address","internalType":"address"},{"name":"accountType","type":"uint8","internalType":"enum AccountType"},{"name":"accountHelper","type":"address","internalType":"address"},{"name":"aux","type":"tuple","internalType":"struct Auxiliary","components":[{"name":"entrypoint","type":"address","internalType":"contract IEntryPoint"},{"name":"gasSimulation","type":"address","internalType":"contract UserOpGasLog"},{"name":"registry","type":"address","internalType":"contract IERC7484"},{"name":"mockFactory","type":"address","internalType":"contract MockFactory"},{"name":"smartSession","type":"address","internalType":"contract ISmartSession"}]},{"name":"defaultValidator","type":"address","internalType":"contract IValidator"},{"name":"salt","type":"bytes32","internalType":"bytes32"},{"name":"initCode","type":"bytes","internalType":"bytes"},{"name":"accountFactory","type":"address","internalType":"address"},{"name":"smartSession","type":"address","internalType":"contract ISmartSession"},{"name":"defaultSessionValidator","type":"address","internalType":"contract ISessionValidator"}]},{"name":"validator","type":"address","internalType":"address"},{"name":"hash","type":"bytes32","internalType":"bytes32"}],"outputs":[{"name":"","type":"bytes32","internalType":"bytes32"}],"stateMutability":"nonpayable"},{"type":"function","name":"formatERC1271Signature","inputs":[{"name":"","type":"tuple","internalType":"struct AccountInstance","components":[{"name":"account","type":"address","internalType":"address"},{"name":"accountType","type":"uint8","internalType":"enum AccountType"},{"name":"accountHelper","type":"address","internalType":"address"},{"name":"aux","type":"tuple","internalType":"struct Auxiliary","components":[{"name":"entrypoint","type":"address","internalType":"contract IEntryPoint"},{"name":"gasSimulation","type":"address","internalType":"contract UserOpGasLog"},{"name":"registry","type":"address","internalType":"contract IERC7484"},{"name":"mockFactory","type":"address","internalType":"contract MockFactory"},{"name":"smartSession","type":"address","internalType":"contract ISmartSession"}]},{"name":"defaultValidator","type":"address","internalType":"contract IValidator"},{"name":"salt","type":"bytes32","internalType":"bytes32"},{"name":"initCode","type":"bytes","internalType":"bytes"},{"name":"accountFactory","type":"address","internalType":"address"},{"name":"smartSession","type":"address","internalType":"contract ISmartSession"},{"name":"defaultSessionValidator","type":"address","internalType":"contract ISessionValidator"}]},{"name":"validator","type":"address","internalType":"address"},{"name":"signature","type":"bytes","internalType":"bytes"}],"outputs":[{"name":"","type":"bytes","internalType":"bytes"}],"stateMutability":"nonpayable"},{"type":"function","name":"getInstallExecutorData","inputs":[{"name":"","type":"tuple","internalType":"struct AccountInstance","components":[{"name":"account","type":"address","internalType":"address"},{"name":"accountType","type":"uint8","internalType":"enum AccountType"},{"name":"accountHelper","type":"address","internalType":"address"},{"name":"aux","type":"tuple","internalType":"struct Auxiliary","components":[{"name":"entrypoint","type":"address","internalType":"contract IEntryPoint"},{"name":"gasSimulation","type":"address","internalType":"contract UserOpGasLog"},{"name":"registry","type":"address","internalType":"contract IERC7484"},{"name":"mockFactory","type":"address","internalType":"contract MockFactory"},{"name":"smartSession","type":"address","internalType":"contract ISmartSession"}]},{"name":"defaultValidator","type":"address","internalType":"contract IValidator"},{"name":"salt","type":"bytes32","internalType":"bytes32"},{"name":"initCode","type":"bytes","internalType":"bytes"},{"name":"accountFactory","type":"address","internalType":"address"},{"name":"smartSession","type":"address","internalType":"contract ISmartSession"},{"name":"defaultSessionValidator","type":"address","internalType":"contract ISessionValidator"}]},{"name":"","type":"address","internalType":"address"},{"name":"initData","type":"bytes","internalType":"bytes"}],"outputs":[{"name":"data","type":"bytes","internalType":"bytes"}],"stateMutability":"view"},{"type":"function","name":"getInstallFallbackData","inputs":[{"name":"","type":"tuple","internalType":"struct AccountInstance","components":[{"name":"account","type":"address","internalType":"address"},{"name":"accountType","type":"uint8","internalType":"enum AccountType"},{"name":"accountHelper","type":"address","internalType":"address"},{"name":"aux","type":"tuple","internalType":"struct Auxiliary","components":[{"name":"entrypoint","type":"address","internalType":"contract IEntryPoint"},{"name":"gasSimulation","type":"address","internalType":"contract UserOpGasLog"},{"name":"registry","type":"address","internalType":"contract IERC7484"},{"name":"mockFactory","type":"address","internalType":"contract MockFactory"},{"name":"smartSession","type":"address","internalType":"contract ISmartSession"}]},{"name":"defaultValidator","type":"address","internalType":"contract IValidator"},{"name":"salt","type":"bytes32","internalType":"bytes32"},{"name":"initCode","type":"bytes","internalType":"bytes"},{"name":"accountFactory","type":"address","internalType":"address"},{"name":"smartSession","type":"address","internalType":"contract ISmartSession"},{"name":"defaultSessionValidator","type":"address","internalType":"contract ISessionValidator"}]},{"name":"","type":"address","internalType":"address"},{"name":"initData","type":"bytes","internalType":"bytes"}],"outputs":[{"name":"data","type":"bytes","internalType":"bytes"}],"stateMutability":"view"},{"type":"function","name":"getInstallHookData","inputs":[{"name":"","type":"tuple","internalType":"struct AccountInstance","components":[{"name":"account","type":"address","internalType":"address"},{"name":"accountType","type":"uint8","internalType":"enum AccountType"},{"name":"accountHelper","type":"address","internalType":"address"},{"name":"aux","type":"tuple","internalType":"struct Auxiliary","components":[{"name":"entrypoint","type":"address","internalType":"contract IEntryPoint"},{"name":"gasSimulation","type":"address","internalType":"contract UserOpGasLog"},{"name":"registry","type":"address","internalType":"contract IERC7484"},{"name":"mockFactory","type":"address","internalType":"contract MockFactory"},{"name":"smartSession","type":"address","internalType":"contract ISmartSession"}]},{"name":"defaultValidator","type":"address","internalType":"contract IValidator"},{"name":"salt","type":"bytes32","internalType":"bytes32"},{"name":"initCode","type":"bytes","internalType":"bytes"},{"name":"accountFactory","type":"address","internalType":"address"},{"name":"smartSession","type":"address","internalType":"contract ISmartSession"},{"name":"defaultSessionValidator","type":"address","internalType":"contract ISessionValidator"}]},{"name":"","type":"address","internalType":"address"},{"name":"initData","type":"bytes","internalType":"bytes"}],"outputs":[{"name":"data","type":"bytes","internalType":"bytes"}],"stateMutability":"view"},{"type":"function","name":"getInstallModuleCallData","inputs":[{"name":"","type":"tuple","internalType":"struct AccountInstance","components":[{"name":"account","type":"address","internalType":"address"},{"name":"accountType","type":"uint8","internalType":"enum AccountType"},{"name":"accountHelper","type":"address","internalType":"address"},{"name":"aux","type":"tuple","internalType":"struct Auxiliary","components":[{"name":"entrypoint","type":"address","internalType":"contract IEntryPoint"},{"name":"gasSimulation","type":"address","internalType":"contract UserOpGasLog"},{"name":"registry","type":"address","internalType":"contract IERC7484"},{"name":"mockFactory","type":"address","internalType":"contract MockFactory"},{"name":"smartSession","type":"address","internalType":"contract ISmartSession"}]},{"name":"defaultValidator","type":"address","internalType":"contract IValidator"},{"name":"salt","type":"bytes32","internalType":"bytes32"},{"name":"initCode","type":"bytes","internalType":"bytes"},{"name":"accountFactory","type":"address","internalType":"address"},{"name":"smartSession","type":"address","internalType":"contract ISmartSession"},{"name":"defaultSessionValidator","type":"address","internalType":"contract ISessionValidator"}]},{"name":"moduleType","type":"uint256","internalType":"uint256"},{"name":"module","type":"address","internalType":"address"},{"name":"initData","type":"bytes","internalType":"bytes"}],"outputs":[{"name":"callData","type":"bytes","internalType":"bytes"}],"stateMutability":"view"},{"type":"function","name":"getInstallModuleData","inputs":[{"name":"instance","type":"tuple","internalType":"struct AccountInstance","components":[{"name":"account","type":"address","internalType":"address"},{"name":"accountType","type":"uint8","internalType":"enum AccountType"},{"name":"accountHelper","type":"address","internalType":"address"},{"name":"aux","type":"tuple","internalType":"struct Auxiliary","components":[{"name":"entrypoint","type":"address","internalType":"contract IEntryPoint"},{"name":"gasSimulation","type":"address","internalType":"contract UserOpGasLog"},{"name":"registry","type":"address","internalType":"contract IERC7484"},{"name":"mockFactory","type":"address","internalType":"contract MockFactory"},{"name":"smartSession","type":"address","internalType":"contract ISmartSession"}]},{"name":"defaultValidator","type":"address","internalType":"contract IValidator"},{"name":"salt","type":"bytes32","internalType":"bytes32"},{"name":"initCode","type":"bytes","internalType":"bytes"},{"name":"accountFactory","type":"address","internalType":"address"},{"name":"smartSession","type":"address","internalType":"contract ISmartSession"},{"name":"defaultSessionValidator","type":"address","internalType":"contract ISessionValidator"}]},{"name":"moduleType","type":"uint256","internalType":"uint256"},{"name":"module","type":"address","internalType":"address"},{"name":"initData","type":"bytes","internalType":"bytes"}],"outputs":[{"name":"","type":"bytes","internalType":"bytes"}],"stateMutability":"view"},{"type":"function","name":"getInstallValidatorData","inputs":[{"name":"","type":"tuple","internalType":"struct AccountInstance","components":[{"name":"account","type":"address","internalType":"address"},{"name":"accountType","type":"uint8","internalType":"enum AccountType"},{"name":"accountHelper","type":"address","internalType":"address"},{"name":"aux","type":"tuple","internalType":"struct Auxiliary","components":[{"name":"entrypoint","type":"address","internalType":"contract IEntryPoint"},{"name":"gasSimulation","type":"address","internalType":"contract UserOpGasLog"},{"name":"registry","type":"address","internalType":"contract IERC7484"},{"name":"mockFactory","type":"address","internalType":"contract MockFactory"},{"name":"smartSession","type":"address","internalType":"contract ISmartSession"}]},{"name":"defaultValidator","type":"address","internalType":"contract IValidator"},{"name":"salt","type":"bytes32","internalType":"bytes32"},{"name":"initCode","type":"bytes","internalType":"bytes"},{"name":"accountFactory","type":"address","internalType":"address"},{"name":"smartSession","type":"address","internalType":"contract ISmartSession"},{"name":"defaultSessionValidator","type":"address","internalType":"contract ISessionValidator"}]},{"name":"","type":"address","internalType":"address"},{"name":"initData","type":"bytes","internalType":"bytes"}],"outputs":[{"name":"data","type":"bytes","internalType":"bytes"}],"stateMutability":"view"},{"type":"function","name":"getNonce","inputs":[{"name":"instance","type":"tuple","internalType":"struct AccountInstance","components":[{"name":"account","type":"address","internalType":"address"},{"name":"accountType","type":"uint8","internalType":"enum AccountType"},{"name":"accountHelper","type":"address","internalType":"address"},{"name":"aux","type":"tuple","internalType":"struct Auxiliary","components":[{"name":"entrypoint","type":"address","internalType":"contract IEntryPoint"},{"name":"gasSimulation","type":"address","internalType":"contract UserOpGasLog"},{"name":"registry","type":"address","internalType":"contract IERC7484"},{"name":"mockFactory","type":"address","internalType":"contract MockFactory"},{"name":"smartSession","type":"address","internalType":"contract ISmartSession"}]},{"name":"defaultValidator","type":"address","internalType":"contract IValidator"},{"name":"salt","type":"bytes32","internalType":"bytes32"},{"name":"initCode","type":"bytes","internalType":"bytes"},{"name":"accountFactory","type":"address","internalType":"address"},{"name":"smartSession","type":"address","internalType":"contract ISmartSession"},{"name":"defaultSessionValidator","type":"address","internalType":"contract ISessionValidator"}]},{"name":"","type":"bytes","internalType":"bytes"},{"name":"txValidator","type":"address","internalType":"address"}],"outputs":[{"name":"nonce","type":"uint256","internalType":"uint256"}],"stateMutability":"nonpayable"},{"type":"function","name":"getUninstallExecutorData","inputs":[{"name":"instance","type":"tuple","internalType":"struct AccountInstance","components":[{"name":"account","type":"address","internalType":"address"},{"name":"accountType","type":"uint8","internalType":"enum AccountType"},{"name":"accountHelper","type":"address","internalType":"address"},{"name":"aux","type":"tuple","internalType":"struct Auxiliary","components":[{"name":"entrypoint","type":"address","internalType":"contract IEntryPoint"},{"name":"gasSimulation","type":"address","internalType":"contract UserOpGasLog"},{"name":"registry","type":"address","internalType":"contract IERC7484"},{"name":"mockFactory","type":"address","internalType":"contract MockFactory"},{"name":"smartSession","type":"address","internalType":"contract ISmartSession"}]},{"name":"defaultValidator","type":"address","internalType":"contract IValidator"},{"name":"salt","type":"bytes32","internalType":"bytes32"},{"name":"initCode","type":"bytes","internalType":"bytes"},{"name":"accountFactory","type":"address","internalType":"address"},{"name":"smartSession","type":"address","internalType":"contract ISmartSession"},{"name":"defaultSessionValidator","type":"address","internalType":"contract ISessionValidator"}]},{"name":"module","type":"address","internalType":"address"},{"name":"initData","type":"bytes","internalType":"bytes"}],"outputs":[{"name":"data","type":"bytes","internalType":"bytes"}],"stateMutability":"view"},{"type":"function","name":"getUninstallFallbackData","inputs":[{"name":"","type":"tuple","internalType":"struct AccountInstance","components":[{"name":"account","type":"address","internalType":"address"},{"name":"accountType","type":"uint8","internalType":"enum AccountType"},{"name":"accountHelper","type":"address","internalType":"address"},{"name":"aux","type":"tuple","internalType":"struct Auxiliary","components":[{"name":"entrypoint","type":"address","internalType":"contract IEntryPoint"},{"name":"gasSimulation","type":"address","internalType":"contract UserOpGasLog"},{"name":"registry","type":"address","internalType":"contract IERC7484"},{"name":"mockFactory","type":"address","internalType":"contract MockFactory"},{"name":"smartSession","type":"address","internalType":"contract ISmartSession"}]},{"name":"defaultValidator","type":"address","internalType":"contract IValidator"},{"name":"salt","type":"bytes32","internalType":"bytes32"},{"name":"initCode","type":"bytes","internalType":"bytes"},{"name":"accountFactory","type":"address","internalType":"address"},{"name":"smartSession","type":"address","internalType":"contract ISmartSession"},{"name":"defaultSessionValidator","type":"address","internalType":"contract ISessionValidator"}]},{"name":"","type":"address","internalType":"address"},{"name":"initData","type":"bytes","internalType":"bytes"}],"outputs":[{"name":"data","type":"bytes","internalType":"bytes"}],"stateMutability":"pure"},{"type":"function","name":"getUninstallHookData","inputs":[{"name":"","type":"tuple","internalType":"struct AccountInstance","components":[{"name":"account","type":"address","internalType":"address"},{"name":"accountType","type":"uint8","internalType":"enum AccountType"},{"name":"accountHelper","type":"address","internalType":"address"},{"name":"aux","type":"tuple","internalType":"struct Auxiliary","components":[{"name":"entrypoint","type":"address","internalType":"contract IEntryPoint"},{"name":"gasSimulation","type":"address","internalType":"contract UserOpGasLog"},{"name":"registry","type":"address","internalType":"contract IERC7484"},{"name":"mockFactory","type":"address","internalType":"contract MockFactory"},{"name":"smartSession","type":"address","internalType":"contract ISmartSession"}]},{"name":"defaultValidator","type":"address","internalType":"contract IValidator"},{"name":"salt","type":"bytes32","internalType":"bytes32"},{"name":"initCode","type":"bytes","internalType":"bytes"},{"name":"accountFactory","type":"address","internalType":"address"},{"name":"smartSession","type":"address","internalType":"contract ISmartSession"},{"name":"defaultSessionValidator","type":"address","internalType":"contract ISessionValidator"}]},{"name":"","type":"address","internalType":"address"},{"name":"initData","type":"bytes","internalType":"bytes"}],"outputs":[{"name":"data","type":"bytes","internalType":"bytes"}],"stateMutability":"pure"},{"type":"function","name":"getUninstallModuleCallData","inputs":[{"name":"","type":"tuple","internalType":"struct AccountInstance","components":[{"name":"account","type":"address","internalType":"address"},{"name":"accountType","type":"uint8","internalType":"enum AccountType"},{"name":"accountHelper","type":"address","internalType":"address"},{"name":"aux","type":"tuple","internalType":"struct Auxiliary","components":[{"name":"entrypoint","type":"address","internalType":"contract IEntryPoint"},{"name":"gasSimulation","type":"address","internalType":"contract UserOpGasLog"},{"name":"registry","type":"address","internalType":"contract IERC7484"},{"name":"mockFactory","type":"address","internalType":"contract MockFactory"},{"name":"smartSession","type":"address","internalType":"contract ISmartSession"}]},{"name":"defaultValidator","type":"address","internalType":"contract IValidator"},{"name":"salt","type":"bytes32","internalType":"bytes32"},{"name":"initCode","type":"bytes","internalType":"bytes"},{"name":"accountFactory","type":"address","internalType":"address"},{"name":"smartSession","type":"address","internalType":"contract ISmartSession"},{"name":"defaultSessionValidator","type":"address","internalType":"contract ISessionValidator"}]},{"name":"moduleType","type":"uint256","internalType":"uint256"},{"name":"module","type":"address","internalType":"address"},{"name":"initData","type":"bytes","internalType":"bytes"}],"outputs":[{"name":"callData","type":"bytes","internalType":"bytes"}],"stateMutability":"view"},{"type":"function","name":"getUninstallModuleData","inputs":[{"name":"instance","type":"tuple","internalType":"struct AccountInstance","components":[{"name":"account","type":"address","internalType":"address"},{"name":"accountType","type":"uint8","internalType":"enum AccountType"},{"name":"accountHelper","type":"address","internalType":"address"},{"name":"aux","type":"tuple","internalType":"struct Auxiliary","components":[{"name":"entrypoint","type":"address","internalType":"contract IEntryPoint"},{"name":"gasSimulation","type":"address","internalType":"contract UserOpGasLog"},{"name":"registry","type":"address","internalType":"contract IERC7484"},{"name":"mockFactory","type":"address","internalType":"contract MockFactory"},{"name":"smartSession","type":"address","internalType":"contract ISmartSession"}]},{"name":"defaultValidator","type":"address","internalType":"contract IValidator"},{"name":"salt","type":"bytes32","internalType":"bytes32"},{"name":"initCode","type":"bytes","internalType":"bytes"},{"name":"accountFactory","type":"address","internalType":"address"},{"name":"smartSession","type":"address","internalType":"contract ISmartSession"},{"name":"defaultSessionValidator","type":"address","internalType":"contract ISessionValidator"}]},{"name":"moduleType","type":"uint256","internalType":"uint256"},{"name":"module","type":"address","internalType":"address"},{"name":"initData","type":"bytes","internalType":"bytes"}],"outputs":[{"name":"","type":"bytes","internalType":"bytes"}],"stateMutability":"view"},{"type":"function","name":"getUninstallValidatorData","inputs":[{"name":"instance","type":"tuple","internalType":"struct AccountInstance","components":[{"name":"account","type":"address","internalType":"address"},{"name":"accountType","type":"uint8","internalType":"enum AccountType"},{"name":"accountHelper","type":"address","internalType":"address"},{"name":"aux","type":"tuple","internalType":"struct Auxiliary","components":[{"name":"entrypoint","type":"address","internalType":"contract IEntryPoint"},{"name":"gasSimulation","type":"address","internalType":"contract UserOpGasLog"},{"name":"registry","type":"address","internalType":"contract IERC7484"},{"name":"mockFactory","type":"address","internalType":"contract MockFactory"},{"name":"smartSession","type":"address","internalType":"contract ISmartSession"}]},{"name":"defaultValidator","type":"address","internalType":"contract IValidator"},{"name":"salt","type":"bytes32","internalType":"bytes32"},{"name":"initCode","type":"bytes","internalType":"bytes"},{"name":"accountFactory","type":"address","internalType":"address"},{"name":"smartSession","type":"address","internalType":"contract ISmartSession"},{"name":"defaultSessionValidator","type":"address","internalType":"contract ISessionValidator"}]},{"name":"module","type":"address","internalType":"address"},{"name":"initData","type":"bytes","internalType":"bytes"}],"outputs":[{"name":"data","type":"bytes","internalType":"bytes"}],"stateMutability":"view"},{"type":"function","name":"isModuleInstalled","inputs":[{"name":"instance","type":"tuple","internalType":"struct AccountInstance","components":[{"name":"account","type":"address","internalType":"address"},{"name":"accountType","type":"uint8","internalType":"enum AccountType"},{"name":"accountHelper","type":"address","internalType":"address"},{"name":"aux","type":"tuple","internalType":"struct Auxiliary","components":[{"name":"entrypoint","type":"address","internalType":"contract IEntryPoint"},{"name":"gasSimulation","type":"address","internalType":"contract UserOpGasLog"},{"name":"registry","type":"address","internalType":"contract IERC7484"},{"name":"mockFactory","type":"address","internalType":"contract MockFactory"},{"name":"smartSession","type":"address","internalType":"contract ISmartSession"}]},{"name":"defaultValidator","type":"address","internalType":"contract IValidator"},{"name":"salt","type":"bytes32","internalType":"bytes32"},{"name":"initCode","type":"bytes","internalType":"bytes"},{"name":"accountFactory","type":"address","internalType":"address"},{"name":"smartSession","type":"address","internalType":"contract ISmartSession"},{"name":"defaultSessionValidator","type":"address","internalType":"contract ISessionValidator"}]},{"name":"moduleTypeId","type":"uint256","internalType":"uint256"},{"name":"module","type":"address","internalType":"address"}],"outputs":[{"name":"","type":"bool","internalType":"bool"}],"stateMutability":"nonpayable"},{"type":"function","name":"isModuleInstalled","inputs":[{"name":"instance","type":"tuple","internalType":"struct AccountInstance","components":[{"name":"account","type":"address","internalType":"address"},{"name":"accountType","type":"uint8","internalType":"enum AccountType"},{"name":"accountHelper","type":"address","internalType":"address"},{"name":"aux","type":"tuple","internalType":"struct Auxiliary","components":[{"name":"entrypoint","type":"address","internalType":"contract IEntryPoint"},{"name":"gasSimulation","type":"address","internalType":"contract UserOpGasLog"},{"name":"registry","type":"address","internalType":"contract IERC7484"},{"name":"mockFactory","type":"address","internalType":"contract MockFactory"},{"name":"smartSession","type":"address","internalType":"contract ISmartSession"}]},{"name":"defaultValidator","type":"address","internalType":"contract IValidator"},{"name":"salt","type":"bytes32","internalType":"bytes32"},{"name":"initCode","type":"bytes","internalType":"bytes"},{"name":"accountFactory","type":"address","internalType":"address"},{"name":"smartSession","type":"address","internalType":"contract ISmartSession"},{"name":"defaultSessionValidator","type":"address","internalType":"contract ISessionValidator"}]},{"name":"moduleTypeId","type":"uint256","internalType":"uint256"},{"name":"module","type":"address","internalType":"address"},{"name":"data","type":"bytes","internalType":"bytes"}],"outputs":[{"name":"","type":"bool","internalType":"bool"}],"stateMutability":"nonpayable"},{"type":"function","name":"isValidSignature","inputs":[{"name":"instance","type":"tuple","internalType":"struct AccountInstance","components":[{"name":"account","type":"address","internalType":"address"},{"name":"accountType","type":"uint8","internalType":"enum AccountType"},{"name":"accountHelper","type":"address","internalType":"address"},{"name":"aux","type":"tuple","internalType":"struct Auxiliary","components":[{"name":"entrypoint","type":"address","internalType":"contract IEntryPoint"},{"name":"gasSimulation","type":"address","internalType":"contract UserOpGasLog"},{"name":"registry","type":"address","internalType":"contract IERC7484"},{"name":"mockFactory","type":"address","internalType":"contract MockFactory"},{"name":"smartSession","type":"address","internalType":"contract ISmartSession"}]},{"name":"defaultValidator","type":"address","internalType":"contract IValidator"},{"name":"salt","type":"bytes32","internalType":"bytes32"},{"name":"initCode","type":"bytes","internalType":"bytes"},{"name":"accountFactory","type":"address","internalType":"address"},{"name":"smartSession","type":"address","internalType":"contract ISmartSession"},{"name":"defaultSessionValidator","type":"address","internalType":"contract ISessionValidator"}]},{"name":"validator","type":"address","internalType":"address"},{"name":"hash","type":"bytes32","internalType":"bytes32"},{"name":"signature","type":"bytes","internalType":"bytes"}],"outputs":[{"name":"isValid","type":"bool","internalType":"bool"}],"stateMutability":"nonpayable"},{"type":"function","name":"toExecutions","inputs":[{"name":"targets","type":"address[]","internalType":"address[]"},{"name":"values","type":"uint256[]","internalType":"uint256[]"},{"name":"callDatas","type":"bytes[]","internalType":"bytes[]"}],"outputs":[{"name":"executions","type":"tuple[]","internalType":"struct Execution[]","components":[{"name":"target","type":"address","internalType":"address"},{"name":"value","type":"uint256","internalType":"uint256"},{"name":"callData","type":"bytes","internalType":"bytes"}]}],"stateMutability":"pure"}],"bytecode":{"object":"0x6080604052348015600e575f5ffd5b50612d9c8061001c5f395ff3fe608060405234801561000f575f5ffd5b506004361061016d575f3560e01c80637e5f37a5116100d9578063c3581ca811610093578063d3cc71e11161006e578063d3cc71e114610327578063d5ff7bd41461033a578063df50bee51461034d578063ee5747e714610360575f5ffd5b8063c3581ca8146102ee578063cda93f5a14610301578063d2c0d9fb14610314575f5ffd5b80637e5f37a5146102a05780637eca7228146102b557806387a00540146102c85780639e3d7bd3146101ba578063a4ac1916146102db578063c338a7e9146101ce575f5ffd5b80634e68a7a71161012a5780634e68a7a714610215578063514692c6146102285780635d393e6e1461024b578063693a019e1461026c5780636edb81af146101ba578063772472051461027f575f5ffd5b80630858191814610171578063183504071461019a5780632368d27a146101ba57806335ad6bf4146101ce578063416d2f1d146101e15780634ca667bb14610202575b5f5ffd5b61018461017f366004611d0b565b610373565b6040516101919190611db7565b60405180910390f35b6101ad6101a8366004611ed5565b610413565b6040516101919190611fc0565b6101846101c836600461204d565b92915050565b6101846101dc36600461204d565b610577565b6101f46101ef3660046120b7565b6105a7565b604051908152602001610191565b610184610210366004611d0b565b61063c565b61018461022336600461204d565b610686565b61023b61023636600461212d565b6107ea565b6040519015158152602001610191565b61025e6102593660046120b7565b6108d8565b604051610191929190612233565b61018461027a36600461204d565b610a69565b61029261028d366004612254565b610b9e565b6040516101919291906122ba565b6102b36102ae3660046122de565b610d0a565b005b6101846102c336600461230f565b61107d565b6101846102d636600461204d565b6110fd565b61025e6102e936600461235a565b61112d565b6101f46102fc3660046123fd565b61136c565b61018461030f36600461204d565b61155f565b61023b610322366004612452565b611574565b61018461033536600461249d565b6115c9565b610184610348366004611d0b565b61163f565b61018461035b366004611d0b565b611689565b61023b61036e366004611d0b565b6116c8565b60606001840361038f57610388858484610a69565b905061040b565b600284036103a257610388858484610686565b600484036103b557610388858484610577565b600384036103c8576103888584846110fd565b60405162461bcd60e51b8152602060048201526013602482015272496e76616c6964206d6f64756c65207479706560681b60448201526064015b60405180910390fd5b949350505050565b606083516001600160401b0381111561042e5761042e611a14565b60405190808252806020026020018201604052801561047a57816020015b60408051606080820183525f80835260208301529181019190915281526020019060019003908161044c5790505b509050825184511415801561049157508151835114155b156104d05760405162461bcd60e51b815260206004820152600f60248201526e098cadccee8d0409ad2e6dac2e8c6d608b1b6044820152606401610402565b5f5b845181101561056f5760405180606001604052808683815181106104f8576104f86125a1565b60200260200101516001600160a01b03168152602001858381518110610520576105206125a1565b6020026020010151815260200184838151811061053f5761053f6125a1565b602002602001015181525082828151811061055c5761055c6125a1565b60209081029190910101526001016104d2565b509392505050565b60405160609061058f905f90819085906020016125b5565b60405160208183030381529060405290509392505050565b6060830151518351604051631aab3f0d60e11b81526001600160a01b039182166004820152602084901b640100000000600160c01b0316602482018190525f93909216906335567e1a90604401602060405180830381865afa15801561060f573d5f5f3e3d5ffd5b505050506040513d601f19601f8201168201806040525081019061063391906125f8565b95945050505050565b60608383836040516024016106539392919061260f565b60408051601f198184030181529190526020810180516001600160e01b0316639517e29f60e01b17905295945050505050565b8251604051630ea5f61d60e41b815260016004820152606460248201526060915f9182916001600160a01b03169063ea5f61d0906044015f60405180830381865afa1580156106d7573d5f5f3e3d5ffd5b505050506040513d5f823e601f3d908101601f191682016040526106fe91908101906126a7565b509050805160010361071357600191506107bd565b846001600160a01b0316815f8151811061072f5761072f6125a1565b60200260200101516001600160a01b03160361074e57600191506107bd565b60015b81518110156107bb57856001600160a01b0316828281518110610776576107766125a1565b60200260200101516001600160a01b0316036107b357816107986001836126f5565b815181106107a8576107a86125a1565b602002602001015192505b600101610751565b505b81846040516020016107d0929190612714565b604051602081830303815290604052925050509392505050565b83515f9085906001600160a01b03163b151582816108155761080a6117a4565b905061081583610d0a565b8751604051630b135d3f60e11b916001600160a01b031690631626ba7e908990610845908c908b9060200161274e565b6040516020818303038152906040526040518363ffffffff1660e01b8152600401610871929190612771565b602060405180830381865afa15801561088c573d5f5f3e3d5ffd5b505050506040513d601f19601f820116820180604052508101906108b091906127a0565b6001600160e01b031916149350816108cd576108cb8161181f565b505b505050949350505050565b6108e06119c4565b83515f906060906001600160a01b03163b158015610900578660c0015191505b81511561091c576109178760a00151868489610b9e565b965091505b604051806101200160405280885f01516001600160a01b031681526020016109458989896105a7565b8152602001838152602001878152602001621e84808060405160200161096c9291906127b9565b604051602081830303815290604052610984906127e4565b8152602001621e848081526020016001806040516020016109a69291906127b9565b6040516020818303038152906040526109be906127e4565b815260200160405180602001604052805f815250815260200160405180602001604052805f815250815250935086606001515f01516001600160a01b03166322cdde4c856040518263ffffffff1660e01b8152600401610a1e919061280a565b602060405180830381865afa158015610a39573d5f5f3e3d5ffd5b505050506040513d601f19601f82011682018060405250810190610a5d91906125f8565b92505050935093915050565b8251604051635faac46b60e01b815260016004820152606460248201526060915f9182916001600160a01b031690635faac46b906044015f60405180830381865afa158015610aba573d5f5f3e3d5ffd5b505050506040513d5f823e601f3d908101601f19168201604052610ae191908101906126a7565b5090508051600103610af657600191506107bd565b846001600160a01b0316815f81518110610b1257610b126125a1565b60200260200101516001600160a01b031603610b3157600191506107bd565b60015b81518110156107bb57856001600160a01b0316828281518110610b5957610b596125a1565b60200260200101516001600160a01b031603610b965781610b7b6001836126f5565b81518110610b8b57610b8b6125a1565b602002602001015192505b600101610b34565b60148201516040805163063c714560e21b81526001600160a01b03868116600483015260248201929092525f6044820181905260609384939092908316906318f1c514906064015f604051808303815f875af1158015610c00573d5f5f3e3d5ffd5b505050506040513d5f823e601f3d908101601f19168201604052610c279190810190612869565b806020019051810190610c3a919061296a565b9050848160e00181905250818882604051602001610c589190612b4d565b60408051601f1981840301815290829052610c769291602401612771565b60408051601f19818403018152918152602080830180516001600160e01b0316630f8a593760e41b1790529051610caf9392910161274e565b604051602081830303815290604052935080604051602401610cd19190612b4d565b60408051601f198184030181529190526020810180516001600160e01b031663d9ed0e8f60e01b17905293989397509295505050505050565b80516001600160a01b03163b5f0361107a578060c00151515f03610d7c5760405162461bcd60e51b815260206004820152602360248201527f6465706c6f794163636f756e743a206e6f20696e6974436f64652070726f766960448201526219195960ea1b6064820152608401610402565b5f5f610daa8360a0015184608001518560c0015161028d60018060405180602001604052805f81525061107d565b9150915060148201515f5f8451603486015f855af1905080610dca575f5ffd5b505f604051806101200160405280855f01516001600160a01b03168152602001610df9868588608001516105a7565b815260200160405180602001604052805f8152508152602001838152602001621e848080604051602001610e2e9291906127b9565b604051602081830303815290604052610e46906127e4565b8152602001621e84808152602001600180604051602001610e689291906127b9565b604051602081830303815290604052610e80906127e4565b815260200160405180602001604052805f815250815260200160405180602001604052805f81525081525090505f84606001515f01516001600160a01b03166322cdde4c836040518263ffffffff1660e01b8152600401610ee1919061280a565b602060405180830381865afa158015610efc573d5f5f3e3d5ffd5b505050506040513d601f19601f82011682018060405250810190610f2091906125f8565b90505f82825f604051602401610f3893929190612c1d565b60408051601f198184030181529190526020810180516001600160e01b03166306608bdf60e21b179052606087015151909150610f7490611894565b5f865f01516001600160a01b031682604051610f909190612c41565b5f604051808303815f865af19150503d805f8114610fc9576040519150601f19603f3d011682016040523d82523d5f602084013e610fce565b606091505b5050905080610fef5760405162461bcd60e51b815260040161040290612c4c565b865f01516001600160a01b03168560405161100a9190612c41565b5f604051808303815f865af19150503d805f8114611043576040519150601f19603f3d011682016040523d82523d5f602084013e611048565b606091505b5050809150508061106b5760405162461bcd60e51b815260040161040290612c4c565b6110736118ff565b5050505050505b50565b60605f61108c81808080611963565b90505f8585856040516020016110a493929190612c91565b604051602081830303815290604052905081816040516024016110c8929190612771565b60408051601f198184030181529190526020810180516001600160e01b031663e9ae5c5360e01b179052925050509392505050565b60605f5f838060200190518101906111159190612cba565b925050915081816040516020016107d0929190612d19565b6111356119c4565b5f6060885f01516001600160a01b03163b5f03611153575060c08801515b606085156111af576111678a8a8a8a611689565b965088888860405160240161117e9392919061260f565b60408051601f198184030181529190526020810180516001600160e01b0316639517e29f60e01b17905290506111ff565b6111bb8a8a8a8a610373565b96508888886040516024016111d29392919061260f565b60408051601f198184030181529190526020810180516001600160e01b03166314e2ec7560e31b17905290505b81511561121c576112168a60a00151868484610b9e565b90925090505b6040518061012001604052808b5f01516001600160a01b031681526020016112458c84896105a7565b8152602001838152602001828152602001621e84808060405160200161126c9291906127b9565b604051602081830303815290604052611284906127e4565b8152602001621e848081526020016001806040516020016112a69291906127b9565b6040516020818303038152906040526112be906127e4565b815260200160405180602001604052805f815250815260200160405180602001604052805f815250815250935089606001515f01516001600160a01b03166322cdde4c856040518263ffffffff1660e01b815260040161131e919061280a565b602060405180830381865afa158015611339573d5f5f3e3d5ffd5b505050506040513d601f19601f8201168201806040525081019061135d91906125f8565b92505050965096945050505050565b82515f9084906001600160a01b03163b151582816113975761138c6117a4565b905061139783610d0a565b6113b28760018860405180602001604052805f8152506116c8565b156114115760405162461bcd60e51b815260206004820152602960248201527f666f726d617445524331323731486173683a2076616c696461746f72206973206044820152681a5b9cdd185b1b195960ba1b6064820152608401610402565b5f601960f81b600160f81b895f01516001600160a01b031663f698da256040518163ffffffff1660e01b8152600401602060405180830381865afa15801561145b573d5f5f3e3d5ffd5b505050506040513d601f19601f8201168201806040525081019061147f91906125f8565b60408051602081018b90527f60b3cbf8b4a223d68d641b3b6ddf9a298e7f33710cf3d3a9d1146b5a6150fbca910160408051601f198184030181528282528051602091820120908301520160408051601f19818403018152908290526114e89291602001612d3a565b60408051808303601f190181529082905280516020918201206001600160f81b0319958616918301919091529290931660218401526022830152604282015260620160408051601f19818403018152919052805160209091012094505081611555576115538161181f565b505b5050509392505050565b6060828260405160200161058f92919061274e565b82515f9084906001600160a01b03163b1515828161159f576115946117a4565b905061159f83610d0a565b6115b987878760405180602001604052805f8152506116c8565b935081611555576115538161181f565b60605f6115dc600160f81b828080611963565b905080836040516020016115f09190611fc0565b60408051601f198184030181529082905261160e9291602401612771565b60408051601f198184030181529190526020810180516001600160e01b031663e9ae5c5360e01b1790529392505050565b60608383836040516024016116569392919061260f565b60408051601f198184030181529190526020810180516001600160e01b03166314e2ec7560e31b17905295945050505050565b6060600184036116995781610388565b600284036116a75781610388565b600484036116ba57610388858484610577565b600384036103c85781610388565b83515f9085906001600160a01b03163b151582816116f3576116e86117a4565b90506116f383610d0a565b6004870361172257604051611710905f90819088906020016125b5565b60405160208183030381529060405294505b875160405163112d3a7d60e01b81526001600160a01b039091169063112d3a7d90611755908a908a908a9060040161260f565b602060405180830381865afa158015611770573d5f5f3e3d5ffd5b505050506040513d601f19601f820116820180604052508101906117949190612d4b565b9350816108cd576108cb8161181f565b5f737109709ecfa91a80626ff3989d68f67f5b1dd12d6001600160a01b0316639cd238356040518163ffffffff1660e01b81526004016020604051808303815f875af11580156117f6573d5f5f3e3d5ffd5b505050506040513d601f19601f8201168201806040525081019061181a91906125f8565b905090565b60405163c252740560e01b8152600481018290525f90737109709ecfa91a80626ff3989d68f67f5b1dd12d9063c2527405906024016020604051808303815f875af1158015611870573d5f5f3e3d5ffd5b505050506040513d601f19601f820116820180604052508101906101c89190612d4b565b6040516303223eab60e11b81526001600160a01b0382166004820152737109709ecfa91a80626ff3989d68f67f5b1dd12d906306447d56906024015f604051808303815f87803b1580156118e6575f5ffd5b505af11580156118f8573d5f5f3e3d5ffd5b5050505050565b737109709ecfa91a80626ff3989d68f67f5b1dd12d6001600160a01b03166390c5013b6040518163ffffffff1660e01b81526004015f604051808303815f87803b15801561194b575f5ffd5b505af115801561195d573d5f5f3e3d5ffd5b50505050565b604080516001600160f81b03198087166020830152851660218201525f602282018190526001600160e01b03198516602683015269ffffffffffffffffffff198416602a8301529101604051602081830303815290604052610633906127e4565b6040518061012001604052805f6001600160a01b031681526020015f815260200160608152602001606081526020015f81526020015f81526020015f815260200160608152602001606081525090565b634e487b7160e01b5f52604160045260245ffd5b60405161014081016001600160401b0381118282101715611a4b57611a4b611a14565b60405290565b604051606081016001600160401b0381118282101715611a4b57611a4b611a14565b604080519081016001600160401b0381118282101715611a4b57611a4b611a14565b60405161010081016001600160401b0381118282101715611a4b57611a4b611a14565b604051601f8201601f191681016001600160401b0381118282101715611ae057611ae0611a14565b604052919050565b6001600160a01b038116811461107a575f5ffd5b8035611b0781611ae8565b919050565b803560058110611b07575f5ffd5b5f60a08284031215611b2a575f5ffd5b60405160a081016001600160401b0381118282101715611b4c57611b4c611a14565b6040529050808235611b5d81611ae8565b81526020830135611b6d81611ae8565b60208201526040830135611b8081611ae8565b60408201526060830135611b9381611ae8565b60608201526080830135611ba681611ae8565b6080919091015292915050565b5f6001600160401b03821115611bcb57611bcb611a14565b50601f01601f191660200190565b5f82601f830112611be8575f5ffd5b8135611bfb611bf682611bb3565b611ab8565b818152846020838601011115611c0f575f5ffd5b816020850160208301375f918101602001919091529392505050565b5f6101c08284031215611c3c575f5ffd5b611c44611a28565b9050611c4f82611afc565b8152611c5d60208301611b0c565b6020820152611c6e60408301611afc565b6040820152611c808360608401611b1a565b6060820152611c926101008301611afc565b608082015261012082013560a08201526101408201356001600160401b03811115611cbb575f5ffd5b611cc784828501611bd9565b60c083015250611cda6101608301611afc565b60e0820152611cec6101808301611afc565b610100820152611cff6101a08301611afc565b61012082015292915050565b5f5f5f5f60808587031215611d1e575f5ffd5b84356001600160401b03811115611d33575f5ffd5b611d3f87828801611c2b565b945050602085013592506040850135611d5781611ae8565b915060608501356001600160401b03811115611d71575f5ffd5b611d7d87828801611bd9565b91505092959194509250565b5f81518084528060208401602086015e5f602082860101526020601f19601f83011685010191505092915050565b602081525f611dc96020830184611d89565b9392505050565b5f6001600160401b03821115611de857611de8611a14565b5060051b60200190565b5f82601f830112611e01575f5ffd5b8135611e0f611bf682611dd0565b8082825260208201915060208360051b860101925085831115611e30575f5ffd5b602085015b83811015611e4d578035835260209283019201611e35565b5095945050505050565b5f82601f830112611e66575f5ffd5b8135611e74611bf682611dd0565b8082825260208201915060208360051b860101925085831115611e95575f5ffd5b602085015b83811015611e4d5780356001600160401b03811115611eb7575f5ffd5b611ec6886020838a0101611bd9565b84525060209283019201611e9a565b5f5f5f60608486031215611ee7575f5ffd5b83356001600160401b03811115611efc575f5ffd5b8401601f81018613611f0c575f5ffd5b8035611f1a611bf682611dd0565b8082825260208201915060208360051b850101925088831115611f3b575f5ffd5b6020840193505b82841015611f66578335611f5581611ae8565b825260209384019390910190611f42565b955050505060208401356001600160401b03811115611f83575f5ffd5b611f8f86828701611df2565b92505060408401356001600160401b03811115611faa575f5ffd5b611fb686828701611e57565b9150509250925092565b5f602082016020835280845180835260408501915060408160051b8601019250602086015f5b8281101561204157868503603f19018452815180516001600160a01b031686526020808201519087015260409081015160609187018290529061202b90870182611d89565b9550506020938401939190910190600101611fe6565b50929695505050505050565b5f5f5f6060848603121561205f575f5ffd5b83356001600160401b03811115612074575f5ffd5b61208086828701611c2b565b935050602084013561209181611ae8565b915060408401356001600160401b038111156120ab575f5ffd5b611fb686828701611bd9565b5f5f5f606084860312156120c9575f5ffd5b83356001600160401b038111156120de575f5ffd5b6120ea86828701611c2b565b93505060208401356001600160401b03811115612105575f5ffd5b61211186828701611bd9565b925050604084013561212281611ae8565b809150509250925092565b5f5f5f5f60808587031215612140575f5ffd5b84356001600160401b03811115612155575f5ffd5b61216187828801611c2b565b945050602085013561217281611ae8565b92506040850135915060608501356001600160401b03811115611d71575f5ffd5b80516001600160a01b03168252602081015160208301525f604082015161012060408501526121c6610120850182611d89565b9050606083015184820360608601526121df8282611d89565b9150506080830151608085015260a083015160a085015260c083015160c085015260e083015184820360e08601526122178282611d89565b9150506101008301518482036101008601526106338282611d89565b604081525f6122456040830185612193565b90508260208301529392505050565b5f5f5f5f60808587031215612267575f5ffd5b84359350602085013561227981611ae8565b925060408501356001600160401b03811115612293575f5ffd5b61229f87828801611bd9565b92505060608501356001600160401b03811115611d71575f5ffd5b604081525f6122cc6040830185611d89565b82810360208401526106338185611d89565b5f602082840312156122ee575f5ffd5b81356001600160401b03811115612303575f5ffd5b61040b84828501611c2b565b5f5f5f60608486031215612321575f5ffd5b833561232c81611ae8565b92506020840135915060408401356001600160401b038111156120ab575f5ffd5b801515811461107a575f5ffd5b5f5f5f5f5f5f60c0878903121561236f575f5ffd5b86356001600160401b03811115612384575f5ffd5b61239089828a01611c2b565b9650506020870135945060408701356123a881611ae8565b935060608701356001600160401b038111156123c2575f5ffd5b6123ce89828a01611bd9565b93505060808701356123df8161234d565b915060a08701356123ef81611ae8565b809150509295509295509295565b5f5f5f6060848603121561240f575f5ffd5b83356001600160401b03811115612424575f5ffd5b61243086828701611c2b565b935050602084013561244181611ae8565b929592945050506040919091013590565b5f5f5f60608486031215612464575f5ffd5b83356001600160401b03811115612479575f5ffd5b61248586828701611c2b565b93505060208401359150604084013561212281611ae8565b5f602082840312156124ad575f5ffd5b81356001600160401b038111156124c2575f5ffd5b8201601f810184136124d2575f5ffd5b80356124e0611bf682611dd0565b8082825260208201915060208360051b850101925086831115612501575f5ffd5b602084015b838110156125965780356001600160401b03811115612523575f5ffd5b85016060818a03601f19011215612538575f5ffd5b612540611a51565b602082013561254e81611ae8565b81526040820135602082015260608201356001600160401b03811115612572575f5ffd5b6125818b602083860101611bd9565b60408301525084525060209283019201612506565b509695505050505050565b634e487b7160e01b5f52603260045260245ffd5b5f600285106125d257634e487b7160e01b5f52602160045260245ffd5b84825263ffffffff60e01b84166020830152606060408301526106336060830184611d89565b5f60208284031215612608575f5ffd5b5051919050565b8381526001600160a01b03831660208201526060604082018190525f9061063390830184611d89565b8051611b0781611ae8565b5f82601f830112612652575f5ffd5b8151612660611bf682611dd0565b8082825260208201915060208360051b860101925085831115612681575f5ffd5b602085015b83811015611e4d57805161269981611ae8565b835260209283019201612686565b5f5f604083850312156126b8575f5ffd5b82516001600160401b038111156126cd575f5ffd5b6126d985828601612643565b92505060208301516126ea81611ae8565b809150509250929050565b818103818111156101c857634e487b7160e01b5f52601160045260245ffd5b6001600160a01b03831681526040602082018190525f9061040b90830184611d89565b5f81518060208401855e5f93019283525090919050565b6bffffffffffffffffffffffff198360601b1681525f61040b6014830184612737565b828152604060208201525f61040b6040830184611d89565b80516001600160e01b031981168114611b07575f5ffd5b5f602082840312156127b0575f5ffd5b611dc982612789565b6fffffffffffffffffffffffffffffffff19608093841b811682529190921b16601082015260200190565b80516020808301519190811015612804575f198160200360031b1b821691505b50919050565b602081525f611dc96020830184612193565b5f82601f83011261282b575f5ffd5b8151612839611bf682611bb3565b81815284602083860101111561284d575f5ffd5b8160208501602083015e5f918101602001919091529392505050565b5f60208284031215612879575f5ffd5b81516001600160401b0381111561288e575f5ffd5b61040b8482850161281c565b5f82601f8301126128a9575f5ffd5b81516128b7611bf682611dd0565b8082825260208201915060208360051b8601019250858311156128d8575f5ffd5b602085015b83811015611e4d5780516001600160401b038111156128fa575f5ffd5b86016040818903601f1901121561290f575f5ffd5b612917611a73565b602082015161292581611ae8565b815260408201516001600160401b0381111561293f575f5ffd5b61294e8a60208386010161281c565b60208301525080855250506020830192506020810190506128dd565b5f6020828403121561297a575f5ffd5b81516001600160401b0381111561298f575f5ffd5b820161010081850312156129a1575f5ffd5b6129a9611a95565b6129b282612638565b815260208201516001600160401b038111156129cc575f5ffd5b6129d886828501612643565b602083015250604082810151908201526129f460608301612638565b606082015260808201516001600160401b03811115612a11575f5ffd5b612a1d8682850161281c565b608083015250612a2f60a08301612638565b60a082015260c08201516001600160401b03811115612a4c575f5ffd5b612a588682850161289a565b60c08301525060e08201516001600160401b03811115612a76575f5ffd5b612a828682850161281c565b60e083015250949350505050565b5f8151808452602084019350602083015f5b82811015612ac95781516001600160a01b0316865260209586019590910190600101612aa2565b5093949350505050565b5f82825180855260208501945060208160051b830101602085015f5b83811015612b4157848303601f19018852815180516001600160a01b03168452602090810151604091850182905290612b2a90850182611d89565b6020998a0199909450929092019150600101612aef565b50909695505050505050565b60208152612b676020820183516001600160a01b03169052565b5f60208301516101006040840152612b83610120840182612a90565b9050604084015160608401526060840151612ba960808501826001600160a01b03169052565b506080840151838203601f190160a0850152612bc58282611d89565b91505060a0840151612be260c08501826001600160a01b03169052565b5060c0840151838203601f190160e0850152612bfe8282612ad3565b91505060e0840151601f19848303016101008501526106338282611d89565b606081525f612c2f6060830186612193565b60208301949094525060400152919050565b5f611dc98284612737565b60208082526025908201527f6465706c6f794163636f756e743a206661696c656420746f2063616c6c20616360408201526418dbdd5b9d60da1b606082015260800190565b6bffffffffffffffffffffffff198460601b1681528260148201525f6106336034830184612737565b5f5f5f60608486031215612ccc575f5ffd5b612cd584612789565b60208501519093506001600160f81b031981168114612cf2575f5ffd5b60408501519092506001600160401b03811115612d0d575f5ffd5b611fb68682870161281c565b63ffffffff60e01b83168152604060208201525f61040b6040830184611d89565b8281525f61040b6020830184612737565b5f60208284031215612d5b575f5ffd5b8151611dc98161234d56fea26469706673582212206926d8eb12d35e8f1f1a02ec342fc98ff2a7f6efcb897f400bb5aa0f4d2ce9fd64736f6c634300081c0033","linkReferences":{}},"methodIdentifiers":{"_getInitCallData(bytes32,address,bytes,bytes)":"77247205","configModuleUserOp((address,uint8,address,(address,address,address,address,address),address,bytes32,bytes,address,address,address),uint256,address,bytes,bool,address)":"a4ac1916","deployAccount((address,uint8,address,(address,address,address,address,address),address,bytes32,bytes,address,address,address))":"7e5f37a5","encode((address,uint256,bytes)[])":"d3cc71e1","encode(address,uint256,bytes)":"7eca7228","execUserOp((address,uint8,address,(address,address,address,address,address),address,bytes32,bytes,address,address,address),bytes,address)":"5d393e6e","formatERC1271Hash((address,uint8,address,(address,address,address,address,address),address,bytes32,bytes,address,address,address),address,bytes32)":"c3581ca8","formatERC1271Signature((address,uint8,address,(address,address,address,address,address),address,bytes32,bytes,address,address,address),address,bytes)":"cda93f5a","getInstallExecutorData((address,uint8,address,(address,address,address,address,address),address,bytes32,bytes,address,address,address),address,bytes)":"9e3d7bd3","getInstallFallbackData((address,uint8,address,(address,address,address,address,address),address,bytes32,bytes,address,address,address),address,bytes)":"2368d27a","getInstallHookData((address,uint8,address,(address,address,address,address,address),address,bytes32,bytes,address,address,address),address,bytes)":"c338a7e9","getInstallModuleCallData((address,uint8,address,(address,address,address,address,address),address,bytes32,bytes,address,address,address),uint256,address,bytes)":"4ca667bb","getInstallModuleData((address,uint8,address,(address,address,address,address,address),address,bytes32,bytes,address,address,address),uint256,address,bytes)":"df50bee5","getInstallValidatorData((address,uint8,address,(address,address,address,address,address),address,bytes32,bytes,address,address,address),address,bytes)":"6edb81af","getNonce((address,uint8,address,(address,address,address,address,address),address,bytes32,bytes,address,address,address),bytes,address)":"416d2f1d","getUninstallExecutorData((address,uint8,address,(address,address,address,address,address),address,bytes32,bytes,address,address,address),address,bytes)":"4e68a7a7","getUninstallFallbackData((address,uint8,address,(address,address,address,address,address),address,bytes32,bytes,address,address,address),address,bytes)":"87a00540","getUninstallHookData((address,uint8,address,(address,address,address,address,address),address,bytes32,bytes,address,address,address),address,bytes)":"35ad6bf4","getUninstallModuleCallData((address,uint8,address,(address,address,address,address,address),address,bytes32,bytes,address,address,address),uint256,address,bytes)":"d5ff7bd4","getUninstallModuleData((address,uint8,address,(address,address,address,address,address),address,bytes32,bytes,address,address,address),uint256,address,bytes)":"08581918","getUninstallValidatorData((address,uint8,address,(address,address,address,address,address),address,bytes32,bytes,address,address,address),address,bytes)":"693a019e","isModuleInstalled((address,uint8,address,(address,address,address,address,address),address,bytes32,bytes,address,address,address),uint256,address)":"d2c0d9fb","isModuleInstalled((address,uint8,address,(address,address,address,address,address),address,bytes32,bytes,address,address,address),uint256,address,bytes)":"ee5747e7","isValidSignature((address,uint8,address,(address,address,address,address,address),address,bytes32,bytes,address,address,address),address,bytes32,bytes)":"514692c6","toExecutions(address[],uint256[],bytes[])":"18350407"},"id":189}