{"abi":[{"type":"constructor","inputs":[],"stateMutability":"nonpayable"},{"type":"function","name":"UPGRADE_INTERFACE_VERSION","inputs":[],"outputs":[{"name":"","type":"string","internalType":"string"}],"stateMutability":"view"},{"type":"function","name":"accountSalt","inputs":[],"outputs":[{"name":"","type":"bytes32","internalType":"bytes32"}],"stateMutability":"view"},{"type":"function","name":"authEmail","inputs":[{"name":"emailAuthMsg","type":"tuple","internalType":"struct EmailAuthMsg","components":[{"name":"templateId","type":"uint256","internalType":"uint256"},{"name":"commandParams","type":"bytes[]","internalType":"bytes[]"},{"name":"skippedCommandPrefix","type":"uint256","internalType":"uint256"},{"name":"proof","type":"tuple","internalType":"struct EmailProof","components":[{"name":"domainName","type":"string","internalType":"string"},{"name":"publicKeyHash","type":"bytes32","internalType":"bytes32"},{"name":"timestamp","type":"uint256","internalType":"uint256"},{"name":"maskedCommand","type":"string","internalType":"string"},{"name":"emailNullifier","type":"bytes32","internalType":"bytes32"},{"name":"accountSalt","type":"bytes32","internalType":"bytes32"},{"name":"isCodeExist","type":"bool","internalType":"bool"},{"name":"proof","type":"bytes","internalType":"bytes"}]}]}],"outputs":[],"stateMutability":"nonpayable"},{"type":"function","name":"commandTemplates","inputs":[{"name":"","type":"uint256","internalType":"uint256"},{"name":"","type":"uint256","internalType":"uint256"}],"outputs":[{"name":"","type":"string","internalType":"string"}],"stateMutability":"view"},{"type":"function","name":"controller","inputs":[],"outputs":[{"name":"","type":"address","internalType":"address"}],"stateMutability":"view"},{"type":"function","name":"deleteCommandTemplate","inputs":[{"name":"_templateId","type":"uint256","internalType":"uint256"}],"outputs":[],"stateMutability":"nonpayable"},{"type":"function","name":"dkimRegistryAddr","inputs":[],"outputs":[{"name":"","type":"address","internalType":"address"}],"stateMutability":"view"},{"type":"function","name":"getCommandTemplate","inputs":[{"name":"_templateId","type":"uint256","internalType":"uint256"}],"outputs":[{"name":"","type":"string[]","internalType":"string[]"}],"stateMutability":"view"},{"type":"function","name":"initDKIMRegistry","inputs":[{"name":"_dkimRegistryAddr","type":"address","internalType":"address"}],"outputs":[],"stateMutability":"nonpayable"},{"type":"function","name":"initVerifier","inputs":[{"name":"_verifierAddr","type":"address","internalType":"address"}],"outputs":[],"stateMutability":"nonpayable"},{"type":"function","name":"initialize","inputs":[{"name":"_initialOwner","type":"address","internalType":"address"},{"name":"_accountSalt","type":"bytes32","internalType":"bytes32"},{"name":"_controller","type":"address","internalType":"address"}],"outputs":[],"stateMutability":"nonpayable"},{"type":"function","name":"insertCommandTemplate","inputs":[{"name":"_templateId","type":"uint256","internalType":"uint256"},{"name":"_commandTemplate","type":"string[]","internalType":"string[]"}],"outputs":[],"stateMutability":"nonpayable"},{"type":"function","name":"lastTimestamp","inputs":[],"outputs":[{"name":"","type":"uint256","internalType":"uint256"}],"stateMutability":"view"},{"type":"function","name":"owner","inputs":[],"outputs":[{"name":"","type":"address","internalType":"address"}],"stateMutability":"view"},{"type":"function","name":"proxiableUUID","inputs":[],"outputs":[{"name":"","type":"bytes32","internalType":"bytes32"}],"stateMutability":"view"},{"type":"function","name":"renounceOwnership","inputs":[],"outputs":[],"stateMutability":"nonpayable"},{"type":"function","name":"setTimestampCheckEnabled","inputs":[{"name":"_enabled","type":"bool","internalType":"bool"}],"outputs":[],"stateMutability":"nonpayable"},{"type":"function","name":"timestampCheckEnabled","inputs":[],"outputs":[{"name":"","type":"bool","internalType":"bool"}],"stateMutability":"view"},{"type":"function","name":"transferOwnership","inputs":[{"name":"newOwner","type":"address","internalType":"address"}],"outputs":[],"stateMutability":"nonpayable"},{"type":"function","name":"updateCommandTemplate","inputs":[{"name":"_templateId","type":"uint256","internalType":"uint256"},{"name":"_commandTemplate","type":"string[]","internalType":"string[]"}],"outputs":[],"stateMutability":"nonpayable"},{"type":"function","name":"updateDKIMRegistry","inputs":[{"name":"_dkimRegistryAddr","type":"address","internalType":"address"}],"outputs":[],"stateMutability":"nonpayable"},{"type":"function","name":"updateVerifier","inputs":[{"name":"_verifierAddr","type":"address","internalType":"address"}],"outputs":[],"stateMutability":"nonpayable"},{"type":"function","name":"upgradeToAndCall","inputs":[{"name":"newImplementation","type":"address","internalType":"address"},{"name":"data","type":"bytes","internalType":"bytes"}],"outputs":[],"stateMutability":"payable"},{"type":"function","name":"usedNullifiers","inputs":[{"name":"","type":"bytes32","internalType":"bytes32"}],"outputs":[{"name":"","type":"bool","internalType":"bool"}],"stateMutability":"view"},{"type":"function","name":"verifierAddr","inputs":[],"outputs":[{"name":"","type":"address","internalType":"address"}],"stateMutability":"view"},{"type":"event","name":"CommandTemplateDeleted","inputs":[{"name":"templateId","type":"uint256","indexed":true,"internalType":"uint256"}],"anonymous":false},{"type":"event","name":"CommandTemplateInserted","inputs":[{"name":"templateId","type":"uint256","indexed":true,"internalType":"uint256"}],"anonymous":false},{"type":"event","name":"CommandTemplateUpdated","inputs":[{"name":"templateId","type":"uint256","indexed":true,"internalType":"uint256"}],"anonymous":false},{"type":"event","name":"DKIMRegistryUpdated","inputs":[{"name":"dkimRegistry","type":"address","indexed":true,"internalType":"address"}],"anonymous":false},{"type":"event","name":"EmailAuthed","inputs":[{"name":"emailNullifier","type":"bytes32","indexed":true,"internalType":"bytes32"},{"name":"accountSalt","type":"bytes32","indexed":true,"internalType":"bytes32"},{"name":"isCodeExist","type":"bool","indexed":false,"internalType":"bool"},{"name":"templateId","type":"uint256","indexed":false,"internalType":"uint256"}],"anonymous":false},{"type":"event","name":"Initialized","inputs":[{"name":"version","type":"uint64","indexed":false,"internalType":"uint64"}],"anonymous":false},{"type":"event","name":"OwnershipTransferred","inputs":[{"name":"previousOwner","type":"address","indexed":true,"internalType":"address"},{"name":"newOwner","type":"address","indexed":true,"internalType":"address"}],"anonymous":false},{"type":"event","name":"TimestampCheckEnabled","inputs":[{"name":"enabled","type":"bool","indexed":false,"internalType":"bool"}],"anonymous":false},{"type":"event","name":"Upgraded","inputs":[{"name":"implementation","type":"address","indexed":true,"internalType":"address"}],"anonymous":false},{"type":"event","name":"VerifierUpdated","inputs":[{"name":"verifier","type":"address","indexed":true,"internalType":"address"}],"anonymous":false},{"type":"error","name":"AddressEmptyCode","inputs":[{"name":"target","type":"address","internalType":"address"}]},{"type":"error","name":"ERC1967InvalidImplementation","inputs":[{"name":"implementation","type":"address","internalType":"address"}]},{"type":"error","name":"ERC1967NonPayable","inputs":[]},{"type":"error","name":"FailedCall","inputs":[]},{"type":"error","name":"InvalidInitialization","inputs":[]},{"type":"error","name":"NotInitializing","inputs":[]},{"type":"error","name":"OwnableInvalidOwner","inputs":[{"name":"owner","type":"address","internalType":"address"}]},{"type":"error","name":"OwnableUnauthorizedAccount","inputs":[{"name":"account","type":"address","internalType":"address"}]},{"type":"error","name":"UUPSUnauthorizedCallContext","inputs":[]},{"type":"error","name":"UUPSUnsupportedProxiableUUID","inputs":[{"name":"slot","type":"bytes32","internalType":"bytes32"}]}],"bytecode":{"object":"0x60a0604052306080523480156012575f5ffd5b5060805161263f6100395f395f8181611593015281816115bc0152611700015261263f5ff3fe608060405260043610610161575f3560e01c80636c74921e116100cd578063a500125c11610087578063d26b3e6e11610062578063d26b3e6e14610443578063e453c0f314610462578063f2fde38b14610481578063f77c4791146104a0575f5ffd5b8063a500125c146103d5578063ad3cb1cc146103f4578063ad3f5f9b14610424575f5ffd5b80636c74921e14610307578063715018a61461031b5780638da5cb5b1461032f5780638ff3730f1461036b57806395e33c081461038a57806397fc007c146103b6575f5ffd5b80634141407c1161011e5780634141407c146102665780634f1ef2861461028557806352d1902d14610298578063557cf5ef146102ac578063640e8b69146102cb578063663ea2e2146102ea575f5ffd5b8063091c16501461016557806319d8ac611461019a5780631bc01b83146101bd578063206137aa146101ee57806324e33f111461022c5780633e56f5291461024d575b5f5ffd5b348015610170575f5ffd5b5061018461017f366004611c4d565b6104bf565b6040516101919190611c9b565b60405180910390f35b3480156101a5575f5ffd5b506101af60055481565b604051908152602001610191565b3480156101c8575f5ffd5b506001546001600160a01b03165b6040516001600160a01b039091168152602001610191565b3480156101f9575f5ffd5b5061021c610208366004611cad565b60066020525f908152604090205460ff1681565b6040519015158152602001610191565b348015610237575f5ffd5b5061024b610246366004611def565b610570565b005b348015610258575f5ffd5b5060075461021c9060ff1681565b348015610271575f5ffd5b5061024b610280366004611ec5565b610666565b61024b610293366004611ede565b610783565b3480156102a3575f5ffd5b506101af6107a2565b3480156102b7575f5ffd5b5061024b6102c6366004611ec5565b6107bd565b3480156102d6575f5ffd5b5061024b6102e5366004611cad565b6108e9565b3480156102f5575f5ffd5b506002546001600160a01b03166101d6565b348015610312575f5ffd5b506101af5f5481565b348015610326575f5ffd5b5061024b610980565b34801561033a575f5ffd5b507f9016d09d72d40fdae2fd8ceac6b6234c7706214fd39c1cd1e609a0528c199300546001600160a01b03166101d6565b348015610376575f5ffd5b5061024b610385366004611def565b610993565b348015610395575f5ffd5b506103a96103a4366004611cad565b610ab1565b6040516101919190611f28565b3480156103c1575f5ffd5b5061024b6103d0366004611ec5565b610bb9565b3480156103e0575f5ffd5b5061024b6103ef366004611ec5565b610c12565b3480156103ff575f5ffd5b50610184604051806040016040528060058152602001640352e302e360dc1b81525081565b34801561042f575f5ffd5b5061024b61043e366004612075565b610c70565b34801561044e575f5ffd5b5061024b61045d366004612193565b61139e565b34801561046d575f5ffd5b5061024b61047c3660046121cc565b6114da565b34801561048c575f5ffd5b5061024b61049b366004611ec5565b61154b565b3480156104ab575f5ffd5b506003546101d6906001600160a01b031681565b6004602052815f5260405f2081815481106104d8575f80fd5b905f5260205f20015f915091505080546104f1906121e7565b80601f016020809104026020016040519081016040528092919081815260200182805461051d906121e7565b80156105685780601f1061053f57610100808354040283529160200191610568565b820191905f5260205f20905b81548152906001019060200180831161054b57829003601f168201915b505050505081565b6003546001600160a01b031633146105a35760405162461bcd60e51b815260040161059a9061221f565b60405180910390fd5b5f8151116105ef5760405162461bcd60e51b8152602060048201526019602482015278636f6d6d616e642074656d706c61746520697320656d70747960381b604482015260640161059a565b5f828152600460205260409020546106195760405162461bcd60e51b815260040161059a90612248565b5f828152600460209081526040909120825161063792840190611b80565b5060405182907fdc95812ca71c6147b64adc8089e8212c14080c611798d5b4a7b87a1c873a206d905f90a25050565b6003546001600160a01b031633146106905760405162461bcd60e51b815260040161059a9061221f565b6001600160a01b0381166106e15760405162461bcd60e51b8152602060048201526018602482015277696e76616c6964207665726966696572206164647265737360401b604482015260640161059a565b6002546001600160a01b03161561073a5760405162461bcd60e51b815260206004820152601c60248201527f766572696669657220616c726561647920696e697469616c697a656400000000604482015260640161059a565b600280546001600160a01b0319166001600160a01b0383169081179091556040517fd24015cc99cc1700cafca3042840a1d8ac1e3964fd2e0e37ea29c654056ee327905f90a250565b61078b611588565b6107948261162c565b61079e8282611634565b5050565b5f6107ab6116f5565b505f5160206125ea5f395f51905f5290565b6003546001600160a01b031633146107e75760405162461bcd60e51b815260040161059a9061221f565b6001600160a01b03811661083d5760405162461bcd60e51b815260206004820152601d60248201527f696e76616c696420646b696d2072656769737472792061646472657373000000604482015260640161059a565b6001546001600160a01b0316156108a05760405162461bcd60e51b815260206004820152602160248201527f646b696d20726567697374727920616c726561647920696e697469616c697a656044820152601960fa1b606482015260840161059a565b600180546001600160a01b0319166001600160a01b0383169081179091556040517f7dcb4f21aa9071293fb8d282306d5269b110fb7db13ebd4007d1cc52df669871905f90a250565b6003546001600160a01b031633146109135760405162461bcd60e51b815260040161059a9061221f565b5f8181526004602052604090205461093d5760405162461bcd60e51b815260040161059a90612248565b5f81815260046020526040812061095391611bd4565b60405181907fd1df6b3b9269ea7ad12a1e9b67edf66ea65e4a308727c00f94ff7d1700e96400905f90a250565b61098861173e565b6109915f611799565b565b6003546001600160a01b031633146109bd5760405162461bcd60e51b815260040161059a9061221f565b5f815111610a095760405162461bcd60e51b8152602060048201526019602482015278636f6d6d616e642074656d706c61746520697320656d70747960381b604482015260640161059a565b5f8281526004602052604090205415610a645760405162461bcd60e51b815260206004820152601a60248201527f74656d706c61746520696420616c726561647920657869737473000000000000604482015260640161059a565b5f8281526004602090815260409091208251610a8292840190611b80565b5060405182907fc1b747b5a151be511e4c17beca7d944cf64950b8deae15f8f3d4f879ed4bea65905f90a25050565b5f81815260046020526040902054606090610ade5760405162461bcd60e51b815260040161059a90612248565b5f82815260046020908152604080832080548251818502810185019093528083529193909284015b82821015610bae578382905f5260205f20018054610b23906121e7565b80601f0160208091040260200160405190810160405280929190818152602001828054610b4f906121e7565b8015610b9a5780601f10610b7157610100808354040283529160200191610b9a565b820191905f5260205f20905b815481529060010190602001808311610b7d57829003601f168201915b505050505081526020019060010190610b06565b505050509050919050565b610bc161173e565b6001600160a01b03811661073a5760405162461bcd60e51b8152602060048201526018602482015277696e76616c6964207665726966696572206164647265737360401b604482015260640161059a565b610c1a61173e565b6001600160a01b0381166108a05760405162461bcd60e51b815260206004820152601d60248201527f696e76616c696420646b696d2072656769737472792061646472657373000000604482015260640161059a565b6003546001600160a01b03163314610c9a5760405162461bcd60e51b815260040161059a9061221f565b80515f90815260046020908152604080832080548251818502810185019093528083529192909190849084015b82821015610d6f578382905f5260205f20018054610ce4906121e7565b80601f0160208091040260200160405190810160405280929190818152602001828054610d10906121e7565b8015610d5b5780601f10610d3257610100808354040283529160200191610d5b565b820191905f5260205f20905b815481529060010190602001808311610d3e57829003601f168201915b505050505081526020019060010190610cc7565b5050505090505f815111610d955760405162461bcd60e51b815260040161059a90612248565b600154606083015180516020909101516040516373d3cbbd60e11b81526001600160a01b039093169263e7a7977a92610dd2929091600401612278565b602060405180830381865afa158015610ded573d5f5f3e3d5ffd5b505050506040513d601f19601f82011682018060405250810190610e119190612299565b1515600114610e625760405162461bcd60e51b815260206004820152601c60248201527f696e76616c696420646b696d207075626c6963206b6579206861736800000000604482015260640161059a565b6060820151608001515f9081526006602052604090205460ff1615610ec95760405162461bcd60e51b815260206004820152601c60248201527f656d61696c206e756c6c696669657220616c7265616479207573656400000000604482015260640161059a565b816060015160a001515f5414610f185760405162461bcd60e51b81526020600482015260146024820152731a5b9d985b1a59081858d8dbdd5b9d081cd85b1d60621b604482015260640161059a565b60075460ff161580610f305750606082015160400151155b80610f445750600554826060015160400151115b610f845760405162461bcd60e51b81526020600482015260116024820152700696e76616c69642074696d657374616d7607c1b604482015260640161059a565b60025f9054906101000a90046001600160a01b03166001600160a01b0316634f37e3dc6040518163ffffffff1660e01b8152600401602060405180830381865afa158015610fd4573d5f5f3e3d5ffd5b505050506040513d601f19601f82011682018060405250810190610ff891906122b4565b8260600151606001515111156110505760405162461bcd60e51b815260206004820152601d60248201527f696e76616c6964206d61736b656420636f6d6d616e64206c656e677468000000604482015260640161059a565b60025f9054906101000a90046001600160a01b03166001600160a01b0316634f37e3dc6040518163ffffffff1660e01b8152600401602060405180830381865afa1580156110a0573d5f5f3e3d5ffd5b505050506040513d601f19601f820116820180604052508101906110c491906122b4565b8260400151106111295760405162461bcd60e51b815260206004820152602a60248201527f696e76616c69642073697a65206f662074686520736b697070656420636f6d6d6044820152690c2dcc840e0e4caccd2f60b31b606482015260840161059a565b5f6111408360600151606001518460400151611809565b60408051602081019091525f808252919250905b60038110156112375760208501516040516326b4fff760e11b815273__$f4d9430cf243fdb92b3e972bc682ac2906$__91634d69ffee9161119c9190889086906004016122cb565b5f60405180830381865af41580156111b6573d5f5f3e3d5ffd5b505050506040513d5f823e601f3d908101601f191682016040526111dd9190810190612392565b91506111e9828461192b565b611237578060020361122f5760405162461bcd60e51b815260206004820152600f60248201526e1a5b9d985b1a590818dbdb5b585b99608a1b604482015260640161059a565b600101611154565b5060025460608501516040516309ecd83160e41b81526001600160a01b0390921691639ecd83109161126b91600401612406565b602060405180830381865afa158015611286573d5f5f3e3d5ffd5b505050506040513d601f19601f820116820180604052508101906112aa9190612299565b15156001146112f15760405162461bcd60e51b815260206004820152601360248201527234b73b30b634b21032b6b0b4b610383937b7b360691b604482015260640161059a565b6060840151608001515f908152600660205260409020805460ff1916600117905560075460ff16801561132b575060608401516040015115155b1561133d576060840151604001516005555b606084015160a0810151608082015160c09092015186516040519293927f9f27709bbc2a611bc1af72b1bacf08b9776aa76e2d491ba740ad5625b2f6260492611390929015158252602082015260400190565b60405180910390a350505050565b7ff0c57e16840df040f15088dc2f81fe391c3923bec73e23a9662efc9c229c6a008054600160401b810460ff1615906001600160401b03165f811580156113e25750825b90505f826001600160401b031660011480156113fd5750303b155b90508115801561140b575080155b156114295760405163f92ee8a960e01b815260040160405180910390fd5b845467ffffffffffffffff19166001178555831561145357845460ff60401b1916600160401b1785555b61145c88611951565b5f8790556007805460ff19166001179055600380546001600160a01b0388166001600160a01b031990911617905583156114d057845460ff60401b19168555604051600181527fc7f505b2f371ae2175ee4913f4499e1f2633a7b5936321eed1cdaeb6115181d29060200160405180910390a15b5050505050505050565b6003546001600160a01b031633146115045760405162461bcd60e51b815260040161059a9061221f565b6007805460ff19168215159081179091556040519081527f65ee182e1dca6facd6369fe77c73620dceaa4d694dd6f200cfa7b92228c48edd9060200160405180910390a150565b61155361173e565b6001600160a01b03811661157c57604051631e4fbdf760e01b81525f600482015260240161059a565b61158581611799565b50565b306001600160a01b037f000000000000000000000000000000000000000000000000000000000000000016148061160e57507f00000000000000000000000000000000000000000000000000000000000000006001600160a01b03166116025f5160206125ea5f395f51905f52546001600160a01b031690565b6001600160a01b031614155b156109915760405163703e46dd60e11b815260040160405180910390fd5b61158561173e565b816001600160a01b03166352d1902d6040518163ffffffff1660e01b8152600401602060405180830381865afa92505050801561168e575060408051601f3d908101601f1916820190925261168b918101906122b4565b60015b6116b657604051634c9c8ce360e01b81526001600160a01b038316600482015260240161059a565b5f5160206125ea5f395f51905f5281146116e657604051632a87526960e21b81526004810182905260240161059a565b6116f08383611962565b505050565b306001600160a01b037f000000000000000000000000000000000000000000000000000000000000000016146109915760405163703e46dd60e11b815260040160405180910390fd5b336117707f9016d09d72d40fdae2fd8ceac6b6234c7706214fd39c1cd1e609a0528c199300546001600160a01b031690565b6001600160a01b0316146109915760405163118cdaa760e01b815233600482015260240161059a565b7f9016d09d72d40fdae2fd8ceac6b6234c7706214fd39c1cd1e609a0528c19930080546001600160a01b031981166001600160a01b03848116918217845560405192169182907f8be0079c531659141344cd1fd0a4f28419497f9722a3daafe3b4186f6b6457e0905f90a3505050565b606082518211156118665760405162461bcd60e51b815260206004820152602160248201527f496e76616c69642073697a65206f66207468652072656d6f76656420627974656044820152607360f81b606482015260840161059a565b825183905f9061187790859061249b565b6001600160401b0381111561188e5761188e611cc4565b6040519080825280601f01601f1916602001820160405280156118b8576020820181803683370190505b509050835b8251811015611920578281815181106118d8576118d86124ba565b01602001516001600160f81b031916826118f2878461249b565b81518110611902576119026124ba565b60200101906001600160f81b03191690815f1a9053506001016118bd565b509150505b92915050565b5f8151835114801561194a575081805190602001208380519060200120145b9392505050565b6119596119b7565b61158581611a00565b61196b82611a08565b6040516001600160a01b038316907fbc7cd75a20ee27fd9adebab32041f755214dbc6bffa90cc0225b39da2e5c2d3b905f90a28051156119af576116f08282611a6b565b61079e611add565b7ff0c57e16840df040f15088dc2f81fe391c3923bec73e23a9662efc9c229c6a0054600160401b900460ff1661099157604051631afcd79f60e31b815260040160405180910390fd5b6115536119b7565b806001600160a01b03163b5f03611a3d57604051634c9c8ce360e01b81526001600160a01b038216600482015260240161059a565b5f5160206125ea5f395f51905f5280546001600160a01b0319166001600160a01b0392909216919091179055565b60605f5f846001600160a01b031684604051611a8791906124ce565b5f60405180830381855af49150503d805f8114611abf576040519150601f19603f3d011682016040523d82523d5f602084013e611ac4565b606091505b5091509150611ad4858383611afc565b95945050505050565b34156109915760405163b398979f60e01b815260040160405180910390fd5b606082611b1157611b0c82611b58565b61194a565b8151158015611b2857506001600160a01b0384163b155b15611b5157604051639996b31560e01b81526001600160a01b038516600482015260240161059a565b5092915050565b805115611b6757805160208201fd5b60405163d6bda27560e01b815260040160405180910390fd5b828054828255905f5260205f20908101928215611bc4579160200282015b82811115611bc45782518290611bb4908261252f565b5091602001919060010190611b9e565b50611bd0929150611beb565b5090565b5080545f8255905f5260205f209081019061158591905b80821115611bd0575f611bfe8282611c07565b50600101611beb565b508054611c13906121e7565b5f825580601f10611c22575050565b601f0160209004905f5260205f209081019061158591905b80821115611bd0575f8155600101611c3a565b5f5f60408385031215611c5e575f5ffd5b50508035926020909101359150565b5f81518084528060208401602086015e5f602082860101526020601f19601f83011685010191505092915050565b602081525f61194a6020830184611c6d565b5f60208284031215611cbd575f5ffd5b5035919050565b634e487b7160e01b5f52604160045260245ffd5b60405161010081016001600160401b0381118282101715611cfb57611cfb611cc4565b60405290565b604051608081016001600160401b0381118282101715611cfb57611cfb611cc4565b604051601f8201601f191681016001600160401b0381118282101715611d4b57611d4b611cc4565b604052919050565b5f6001600160401b03821115611d6b57611d6b611cc4565b5060051b60200190565b5f6001600160401b03821115611d8d57611d8d611cc4565b50601f01601f191660200190565b5f82601f830112611daa575f5ffd5b8135602083015f611dc2611dbd84611d75565b611d23565b9050828152858383011115611dd5575f5ffd5b828260208301375f92810160200192909252509392505050565b5f5f60408385031215611e00575f5ffd5b8235915060208301356001600160401b03811115611e1c575f5ffd5b8301601f81018513611e2c575f5ffd5b8035611e3a611dbd82611d53565b8082825260208201915060208360051b850101925087831115611e5b575f5ffd5b602084015b83811015611e9b5780356001600160401b03811115611e7d575f5ffd5b611e8c8a602083890101611d9b565b84525060209283019201611e60565b50809450505050509250929050565b80356001600160a01b0381168114611ec0575f5ffd5b919050565b5f60208284031215611ed5575f5ffd5b61194a82611eaa565b5f5f60408385031215611eef575f5ffd5b611ef883611eaa565b915060208301356001600160401b03811115611f12575f5ffd5b611f1e85828601611d9b565b9150509250929050565b5f602082016020835280845180835260408501915060408160051b8601019250602086015f5b82811015611f7f57603f19878603018452611f6a858351611c6d565b94506020938401939190910190600101611f4e565b50929695505050505050565b8015158114611585575f5ffd5b8035611ec081611f8b565b5f6101008284031215611fb4575f5ffd5b611fbc611cd8565b905081356001600160401b03811115611fd3575f5ffd5b611fdf84828501611d9b565b825250602082810135908201526040808301359082015260608201356001600160401b0381111561200e575f5ffd5b61201a84828501611d9b565b6060830152506080828101359082015260a0808301359082015261204060c08301611f98565b60c082015260e08201356001600160401b0381111561205d575f5ffd5b61206984828501611d9b565b60e08301525092915050565b5f60208284031215612085575f5ffd5b81356001600160401b0381111561209a575f5ffd5b8201608081850312156120ab575f5ffd5b6120b3611d01565b8135815260208201356001600160401b038111156120cf575f5ffd5b8201601f810186136120df575f5ffd5b80356120ed611dbd82611d53565b8082825260208201915060208360051b85010192508883111561210e575f5ffd5b602084015b8381101561214e5780356001600160401b03811115612130575f5ffd5b61213f8b602083890101611d9b565b84525060209283019201612113565b5060208501525050506040828101359082015260608201356001600160401b03811115612179575f5ffd5b61218586828501611fa3565b606083015250949350505050565b5f5f5f606084860312156121a5575f5ffd5b6121ae84611eaa565b9250602084013591506121c360408501611eaa565b90509250925092565b5f602082840312156121dc575f5ffd5b813561194a81611f8b565b600181811c908216806121fb57607f821691505b60208210810361221957634e487b7160e01b5f52602260045260245ffd5b50919050565b6020808252600f908201526e37b7363c9031b7b73a3937b63632b960891b604082015260600190565b60208082526016908201527574656d706c617465206964206e6f742065786973747360501b604082015260600190565b604081525f61228a6040830185611c6d565b90508260208301529392505050565b5f602082840312156122a9575f5ffd5b815161194a81611f8b565b5f602082840312156122c4575f5ffd5b5051919050565b5f606082016060835280865180835260808501915060808160051b8601019250602088015f5b8281101561232257607f1987860301845261230d858351611c6d565b945060209384019391909101906001016122f1565b50505050828103602084015280855180835260208301915060208160051b840101602088015f5b8381101561237b57601f19868403018552612365838351611c6d565b6020958601959093509190910190600101612349565b505080945050505050826040830152949350505050565b5f602082840312156123a2575f5ffd5b81516001600160401b038111156123b7575f5ffd5b8201601f810184136123c7575f5ffd5b80516123d5611dbd82611d75565b8181528560208385010111156123e9575f5ffd5b8160208401602083015e5f91810160200191909152949350505050565b602081525f82516101006020840152612423610120840182611c6d565b905060208401516040840152604084015160608401526060840151601f198483030160808501526124548282611c6d565b915050608084015160a084015260a084015160c084015260c084015161247e60e085018215159052565b5060e0840151838203601f1901610100850152611ad48282611c6d565b8181038181111561192557634e487b7160e01b5f52601160045260245ffd5b634e487b7160e01b5f52603260045260245ffd5b5f82518060208501845e5f920191825250919050565b601f8211156116f057805f5260205f20601f840160051c810160208510156125095750805b601f840160051c820191505b81811015612528575f8155600101612515565b5050505050565b81516001600160401b0381111561254857612548611cc4565b61255c8161255684546121e7565b846124e4565b6020601f82116001811461258e575f83156125775750848201515b5f19600385901b1c1916600184901b178455612528565b5f84815260208120601f198516915b828110156125bd578785015182556020948501946001909201910161259d565b50848210156125da57868401515f19600387901b60f8161c191681555b50505050600190811b0190555056fe360894a13ba1a3210667c828492db98dca3e2076cc3735a920a3ca505d382bbca2646970667358221220883add931fc8d64bd92537534e00b697b4243cc932a05519d321b75da5361a5964736f6c634300081c0033","linkReferences":{"node_modules/@zk-email/ether-email-auth-contracts/src/libraries/CommandUtils.sol":{"CommandUtils":[{"start":4522,"length":20}]}}},"methodIdentifiers":{"UPGRADE_INTERFACE_VERSION()":"ad3cb1cc","accountSalt()":"6c74921e","authEmail((uint256,bytes[],uint256,(string,bytes32,uint256,string,bytes32,bytes32,bool,bytes)))":"ad3f5f9b","commandTemplates(uint256,uint256)":"091c1650","controller()":"f77c4791","deleteCommandTemplate(uint256)":"640e8b69","dkimRegistryAddr()":"1bc01b83","getCommandTemplate(uint256)":"95e33c08","initDKIMRegistry(address)":"557cf5ef","initVerifier(address)":"4141407c","initialize(address,bytes32,address)":"d26b3e6e","insertCommandTemplate(uint256,string[])":"8ff3730f","lastTimestamp()":"19d8ac61","owner()":"8da5cb5b","proxiableUUID()":"52d1902d","renounceOwnership()":"715018a6","setTimestampCheckEnabled(bool)":"e453c0f3","timestampCheckEnabled()":"3e56f529","transferOwnership(address)":"f2fde38b","updateCommandTemplate(uint256,string[])":"24e33f11","updateDKIMRegistry(address)":"a500125c","updateVerifier(address)":"97fc007c","upgradeToAndCall(address,bytes)":"4f1ef286","usedNullifiers(bytes32)":"206137aa","verifierAddr()":"663ea2e2"},"id":221}