{"abi":[{"type":"constructor","inputs":[],"stateMutability":"nonpayable"},{"type":"function","name":"REACTIVATE_PREFIX","inputs":[],"outputs":[{"name":"","type":"string","internalType":"string"}],"stateMutability":"view"},{"type":"function","name":"REVOKE_PREFIX","inputs":[],"outputs":[{"name":"","type":"string","internalType":"string"}],"stateMutability":"view"},{"type":"function","name":"SET_PREFIX","inputs":[],"outputs":[{"name":"","type":"string","internalType":"string"}],"stateMutability":"view"},{"type":"function","name":"UPGRADE_INTERFACE_VERSION","inputs":[],"outputs":[{"name":"","type":"string","internalType":"string"}],"stateMutability":"view"},{"type":"function","name":"changeMainAuthorizer","inputs":[{"name":"newMainAuthorizer","type":"address","internalType":"address"}],"outputs":[],"stateMutability":"nonpayable"},{"type":"function","name":"computeSignedMsg","inputs":[{"name":"prefix","type":"string","internalType":"string"},{"name":"domainName","type":"string","internalType":"string"},{"name":"publicKeyHash","type":"bytes32","internalType":"bytes32"}],"outputs":[{"name":"","type":"string","internalType":"string"}],"stateMutability":"pure"},{"type":"function","name":"dkimPublicKeyHashes","inputs":[{"name":"","type":"string","internalType":"string"},{"name":"","type":"bytes32","internalType":"bytes32"},{"name":"","type":"address","internalType":"address"}],"outputs":[{"name":"","type":"bool","internalType":"bool"}],"stateMutability":"view"},{"type":"function","name":"enabledTimeOfDKIMPublicKeyHash","inputs":[{"name":"","type":"bytes32","internalType":"bytes32"}],"outputs":[{"name":"","type":"uint256","internalType":"uint256"}],"stateMutability":"view"},{"type":"function","name":"initialize","inputs":[{"name":"_initialOwner","type":"address","internalType":"address"},{"name":"_mainAuthorizer","type":"address","internalType":"address"},{"name":"_setTimestampDelay","type":"uint256","internalType":"uint256"}],"outputs":[],"stateMutability":"nonpayable"},{"type":"function","name":"isDKIMPublicKeyHashValid","inputs":[{"name":"domainName","type":"string","internalType":"string"},{"name":"publicKeyHash","type":"bytes32","internalType":"bytes32"},{"name":"authorizer","type":"address","internalType":"address"}],"outputs":[{"name":"","type":"bool","internalType":"bool"}],"stateMutability":"view"},{"type":"function","name":"isDKIMPublicKeyHashValid","inputs":[{"name":"domainName","type":"string","internalType":"string"},{"name":"publicKeyHash","type":"bytes32","internalType":"bytes32"}],"outputs":[{"name":"","type":"bool","internalType":"bool"}],"stateMutability":"view"},{"type":"function","name":"mainAuthorizer","inputs":[],"outputs":[{"name":"","type":"address","internalType":"address"}],"stateMutability":"view"},{"type":"function","name":"owner","inputs":[],"outputs":[{"name":"","type":"address","internalType":"address"}],"stateMutability":"view"},{"type":"function","name":"proxiableUUID","inputs":[],"outputs":[{"name":"","type":"bytes32","internalType":"bytes32"}],"stateMutability":"view"},{"type":"function","name":"reactivateDKIMPublicKeyHash","inputs":[{"name":"domainName","type":"string","internalType":"string"},{"name":"publicKeyHash","type":"bytes32","internalType":"bytes32"},{"name":"authorizer","type":"address","internalType":"address"},{"name":"signature","type":"bytes","internalType":"bytes"}],"outputs":[],"stateMutability":"nonpayable"},{"type":"function","name":"reactivatedDKIMPublicKeyHashes","inputs":[{"name":"","type":"bytes32","internalType":"bytes32"},{"name":"","type":"address","internalType":"address"}],"outputs":[{"name":"","type":"bool","internalType":"bool"}],"stateMutability":"view"},{"type":"function","name":"renounceOwnership","inputs":[],"outputs":[],"stateMutability":"nonpayable"},{"type":"function","name":"revokeDKIMPublicKeyHash","inputs":[{"name":"domainName","type":"string","internalType":"string"},{"name":"publicKeyHash","type":"bytes32","internalType":"bytes32"},{"name":"authorizer","type":"address","internalType":"address"},{"name":"signature","type":"bytes","internalType":"bytes"}],"outputs":[],"stateMutability":"nonpayable"},{"type":"function","name":"revokedDKIMPublicKeyHashes","inputs":[{"name":"","type":"bytes32","internalType":"bytes32"},{"name":"","type":"address","internalType":"address"}],"outputs":[{"name":"","type":"bool","internalType":"bool"}],"stateMutability":"view"},{"type":"function","name":"setDKIMPublicKeyHash","inputs":[{"name":"domainName","type":"string","internalType":"string"},{"name":"publicKeyHash","type":"bytes32","internalType":"bytes32"},{"name":"authorizer","type":"address","internalType":"address"},{"name":"signature","type":"bytes","internalType":"bytes"}],"outputs":[],"stateMutability":"nonpayable"},{"type":"function","name":"setDKIMPublicKeyHashes","inputs":[{"name":"domainNames","type":"string[]","internalType":"string[]"},{"name":"publicKeyHashes","type":"bytes32[]","internalType":"bytes32[]"},{"name":"authorizers","type":"address[]","internalType":"address[]"},{"name":"signatures","type":"bytes[]","internalType":"bytes[]"}],"outputs":[],"stateMutability":"nonpayable"},{"type":"function","name":"setTimestampDelay","inputs":[],"outputs":[{"name":"","type":"uint256","internalType":"uint256"}],"stateMutability":"view"},{"type":"function","name":"transferOwnership","inputs":[{"name":"newOwner","type":"address","internalType":"address"}],"outputs":[],"stateMutability":"nonpayable"},{"type":"function","name":"upgradeToAndCall","inputs":[{"name":"newImplementation","type":"address","internalType":"address"},{"name":"data","type":"bytes","internalType":"bytes"}],"outputs":[],"stateMutability":"payable"},{"type":"event","name":"DKIMPublicKeyHashReactivated","inputs":[{"name":"publicKeyHash","type":"bytes32","indexed":true,"internalType":"bytes32"},{"name":"authorizer","type":"address","indexed":true,"internalType":"address"}],"anonymous":false},{"type":"event","name":"DKIMPublicKeyHashRegistered","inputs":[{"name":"domainName","type":"string","indexed":true,"internalType":"string"},{"name":"publicKeyHash","type":"bytes32","indexed":true,"internalType":"bytes32"},{"name":"authorizer","type":"address","indexed":true,"internalType":"address"}],"anonymous":false},{"type":"event","name":"DKIMPublicKeyHashRevoked","inputs":[{"name":"publicKeyHash","type":"bytes32","indexed":true,"internalType":"bytes32"},{"name":"authorizer","type":"address","indexed":true,"internalType":"address"}],"anonymous":false},{"type":"event","name":"Initialized","inputs":[{"name":"version","type":"uint64","indexed":false,"internalType":"uint64"}],"anonymous":false},{"type":"event","name":"MainAuthorizerChanged","inputs":[{"name":"newMainAuthorizer","type":"address","indexed":true,"internalType":"address"}],"anonymous":false},{"type":"event","name":"OwnershipTransferred","inputs":[{"name":"previousOwner","type":"address","indexed":true,"internalType":"address"},{"name":"newOwner","type":"address","indexed":true,"internalType":"address"}],"anonymous":false},{"type":"event","name":"Upgraded","inputs":[{"name":"implementation","type":"address","indexed":true,"internalType":"address"}],"anonymous":false},{"type":"error","name":"AddressEmptyCode","inputs":[{"name":"target","type":"address","internalType":"address"}]},{"type":"error","name":"ECDSAInvalidSignature","inputs":[]},{"type":"error","name":"ECDSAInvalidSignatureLength","inputs":[{"name":"length","type":"uint256","internalType":"uint256"}]},{"type":"error","name":"ECDSAInvalidSignatureS","inputs":[{"name":"s","type":"bytes32","internalType":"bytes32"}]},{"type":"error","name":"ERC1967InvalidImplementation","inputs":[{"name":"implementation","type":"address","internalType":"address"}]},{"type":"error","name":"ERC1967NonPayable","inputs":[]},{"type":"error","name":"FailedCall","inputs":[]},{"type":"error","name":"InvalidInitialization","inputs":[]},{"type":"error","name":"NotInitializing","inputs":[]},{"type":"error","name":"OwnableInvalidOwner","inputs":[{"name":"owner","type":"address","internalType":"address"}]},{"type":"error","name":"OwnableUnauthorizedAccount","inputs":[{"name":"account","type":"address","internalType":"address"}]},{"type":"error","name":"StringsInsufficientHexLength","inputs":[{"name":"value","type":"uint256","internalType":"uint256"},{"name":"length","type":"uint256","internalType":"uint256"}]},{"type":"error","name":"UUPSUnauthorizedCallContext","inputs":[]},{"type":"error","name":"UUPSUnsupportedProxiableUUID","inputs":[{"name":"slot","type":"bytes32","internalType":"bytes32"}]}],"bytecode":{"object":"0x60a0604052306080523480156012575f5ffd5b506080516129d86100395f395f8181611798015281816117c1015261190501526129d85ff3fe608060405260043610610147575f3560e01c80637d463648116100b3578063ad3cb1cc1161006d578063ad3cb1cc14610404578063d507c32014610434578063e308de0c14610466578063e7a7977a146104b5578063f0bfb197146104d4578063f2fde38b1461050d575f5ffd5b80637d463648146103145780637f8e29ba1461034a5780637ff103da14610375578063812e12ce1461039457806382bff8cd146103a95780638da5cb5b146103c8575f5ffd5b80634c930607116101045780634c930607146102545780634f1ef2861461027357806352d1902d14610286578063574900dd146102a8578063614a4485146102e1578063715018a614610300575f5ffd5b806307f1eaf51461014b5780630b55b37c146101905780631794bb3c146101bf578063225a08d4146101e057806332e1e194146102165780634bcbbe9614610235575b5f5ffd5b348015610156575f5ffd5b5061017a6040518060400160405280600481526020016329a2aa1d60e11b81525081565b6040516101879190612096565b60405180910390f35b34801561019b575f5ffd5b506101af6101aa366004612171565b61052c565b6040519015158152602001610187565b3480156101ca575f5ffd5b506101de6101d93660046121c7565b610650565b005b3480156101eb575f5ffd5b5061017a6040518060400160405280600b81526020016a2922a0a1aa24ab20aa229d60a91b81525081565b348015610221575f5ffd5b506101de610230366004612205565b61077d565b348015610240575f5ffd5b5061017a61024f366004612283565b610b3a565b34801561025f575f5ffd5b506101de61026e3660046122ef565b610b71565b6101de61028136600461230a565b610cbd565b348015610291575f5ffd5b5061029a610cdc565b604051908152602001610187565b3480156102b3575f5ffd5b506101af6102c2366004612356565b600460209081525f928352604080842090915290825290205460ff1681565b3480156102ec575f5ffd5b506101de6102fb366004612205565b610cf7565b34801561030b575f5ffd5b506101de611028565b34801561031f575f5ffd5b505f54610332906001600160a01b031681565b6040516001600160a01b039091168152602001610187565b348015610355575f5ffd5b5061029a610364366004612384565b60056020525f908152604090205481565b348015610380575f5ffd5b506101de61038f366004612509565b61103b565b34801561039f575f5ffd5b5061029a60015481565b3480156103b4575f5ffd5b506101de6103c3366004612205565b6111b8565b3480156103d3575f5ffd5b507f9016d09d72d40fdae2fd8ceac6b6234c7706214fd39c1cd1e609a0528c199300546001600160a01b0316610332565b34801561040f575f5ffd5b5061017a604051806040016040528060058152602001640352e302e360dc1b81525081565b34801561043f575f5ffd5b5061017a604051806040016040528060078152602001662922ab27a5a29d60c91b81525081565b348015610471575f5ffd5b506101af610480366004612171565b825160208185018101805160028252928201958201959095209190945283525f91825260408083209093528152205460ff1681565b3480156104c0575f5ffd5b506101af6104cf366004612628565b6113f6565b3480156104df575f5ffd5b506101af6104ee366004612356565b600360209081525f928352604080842090915290825290205460ff1681565b348015610518575f5ffd5b506101de6105273660046122ef565b61146f565b5f5f8451116105565760405162461bcd60e51b815260040161054d90612669565b60405180910390fd5b826105735760405162461bcd60e51b815260040161054d906126a0565b6001600160a01b0382166105995760405162461bcd60e51b815260040161054d906126d7565b5f546001600160a01b03908116908316036106025760405162461bcd60e51b815260206004820152602360248201527f617574686f72697a65722063616e6e6f74206265206d61696e417574686f72696044820152623d32b960e91b606482015260840161054d565b5f61060d84846114ac565b90505f61061b868686611575565b90506001821061062f575f92505050610649565b6002811015610642575f92505050610649565b6001925050505b9392505050565b7ff0c57e16840df040f15088dc2f81fe391c3923bec73e23a9662efc9c229c6a008054600160401b810460ff1615906001600160401b03165f811580156106945750825b90505f826001600160401b031660011480156106af5750303b155b9050811580156106bd575080155b156106db5760405163f92ee8a960e01b815260040160405180910390fd5b845467ffffffffffffffff19166001178555831561070557845460ff60401b1916600160401b1785555b61070e88611656565b5f80546001600160a01b0319166001600160a01b0389161790556001869055831561077357845460ff60401b19168555604051600181527fc7f505b2f371ae2175ee4913f4499e1f2633a7b5936321eed1cdaeb6115181d29060200160405180910390a15b5050505050505050565b5f84511161079d5760405162461bcd60e51b815260040161054d90612669565b826107ba5760405162461bcd60e51b815260040161054d906126a0565b6001600160a01b0382166107e05760405162461bcd60e51b815260040161054d906126d7565b5f546001600160a01b039081169083160361085a5760405162461bcd60e51b815260206004820152603460248201527f6d61696e417574686f72697a65722063616e6e6f742072656163746976617465604482015273040e8d0ca40e0eac4d8d2c640d6caf240d0c2e6d60631b606482015260840161054d565b5f8381526004602090815260408083206001600160a01b038616845290915290205460ff16156108db5760405162461bcd60e51b815260206004820152602660248201527f7075626c6963206b6579206861736820697320616c72656164792072656163746044820152651a5d985d195960d21b606482015260840161054d565b6108e583836114ac565b6001146109345760405162461bcd60e51b815260206004820152601c60248201527f7265766f6b65207468726573686f6c64206d757374206265206f6e6500000000604482015260640161054d565b6002610941858585611575565b101561099d5760405162461bcd60e51b815260206004820152602560248201527f736574207468726573686f6c64206d757374206265206c6172676572207468616044820152646e2074776f60d81b606482015260840161054d565b336001600160a01b03831614610ade575f6109dc6040518060400160405280600b81526020016a2922a0a1aa24ab20aa229d60a91b8152508686610b3a565b90505f6109e882611667565b90506001600160a01b0384163b15610a9b57604051630b135d3f60e11b81526001600160a01b03851690631626ba7e90610a289084908790600401612718565b602060405180830381865afa158015610a43573d5f5f3e3d5ffd5b505050506040513d601f19601f82011682018060405250810190610a679190612730565b6001600160e01b031916631626ba7e60e01b14610a965760405162461bcd60e51b815260040161054d90612757565b610adb565b5f610aa682856116a1565b9050846001600160a01b0316816001600160a01b031614610ad95760405162461bcd60e51b815260040161054d9061278e565b505b50505b5f8381526004602090815260408083206001600160a01b0386168085529252808320805460ff1916600117905551909185917f32899a1ea4d8e4917c6b3d6c1c69fd4c70943943b027fe9d832b2052e7eff8d69190a350505050565b60608383610b47846116c9565b604051602001610b59939291906127dc565b60405160208183030381529060405290509392505050565b610b79611732565b6001600160a01b038116610be05760405162461bcd60e51b815260206004820152602860248201527f6e65774d61696e417574686f72697a657220616464726573732063616e6e6f74604482015267206265207a65726f60c01b606482015260840161054d565b5f546001600160a01b0390811690821603610c765760405162461bcd60e51b815260206004820152604a60248201527f6e65774d61696e417574686f72697a657220616464726573732063616e6e6f7460448201527f206265207468652073616d65206173207468652063757272656e74206d61696e60648201526920baba3437b934bd32b960b11b608482015260a40161054d565b5f80546001600160a01b0319166001600160a01b038316908117825560405190917f3bb19611d1156631a85c59ddfe7668541a2f00e6ba2b7e71cb0c60ece0d5e55b91a250565b610cc561178d565b610cce82611831565b610cd88282611839565b5050565b5f610ce56118fa565b505f5160206129835f395f51905f5290565b5f845111610d175760405162461bcd60e51b815260040161054d90612669565b82610d345760405162461bcd60e51b815260040161054d906126a0565b6001600160a01b038216610d5a5760405162461bcd60e51b815260040161054d906126d7565b600284604051610d6a919061283b565b90815260408051602092819003830190205f8681529083528181206001600160a01b038616825290925290205460ff1615610de75760405162461bcd60e51b815260206004820152601e60248201527f7075626c6963206b6579206861736820697320616c7265616479207365740000604482015260640161054d565b5f8381526003602090815260408083206001600160a01b038616845290915290205460ff1615610e295760405162461bcd60e51b815260040161054d90612846565b336001600160a01b03831614610f63575f610e616040518060400160405280600481526020016329a2aa1d60e11b8152508686610b3a565b90505f610e6d82611667565b90506001600160a01b0384163b15610f2057604051630b135d3f60e11b81526001600160a01b03851690631626ba7e90610ead9084908790600401612718565b602060405180830381865afa158015610ec8573d5f5f3e3d5ffd5b505050506040513d601f19601f82011682018060405250810190610eec9190612730565b6001600160e01b031916631626ba7e60e01b14610f1b5760405162461bcd60e51b815260040161054d90612757565b610f60565b5f610f2b82856116a1565b9050846001600160a01b0316816001600160a01b031614610f5e5760405162461bcd60e51b815260040161054d9061278e565b505b50505b6001600285604051610f75919061283b565b90815260408051602092819003830190205f8781529083528181206001600160a01b0387811680845291909452918120805460ff1916941515949094179093559154169003610fda57600154610fcb904261289c565b5f848152600560205260409020555b816001600160a01b03168385604051610ff3919061283b565b604051908190038120907f7d617edc9d0ade2fb76843ef5f7372bd2730e900fa12e674becaa8ad01eab6cb905f90a450505050565b611030611732565b6110395f611943565b565b825184511461108c5760405162461bcd60e51b815260206004820152601e60248201527f696e76616c6964207075626c69634b6579486173686573206c656e6774680000604482015260640161054d565b81518451146110dd5760405162461bcd60e51b815260206004820152601a60248201527f696e76616c696420617574686f72697a657273206c656e677468000000000000604482015260640161054d565b805184511461112e5760405162461bcd60e51b815260206004820152601960248201527f696e76616c6964207369676e617475726573206c656e67746800000000000000604482015260640161054d565b5f5b84518110156111b1576111a985828151811061114e5761114e6128af565b6020026020010151858381518110611168576111686128af565b6020026020010151858481518110611182576111826128af565b602002602001015185858151811061119c5761119c6128af565b6020026020010151610cf7565b600101611130565b5050505050565b5f8451116111d85760405162461bcd60e51b815260040161054d90612669565b826111f55760405162461bcd60e51b815260040161054d906126a0565b6001600160a01b03821661121b5760405162461bcd60e51b815260040161054d906126d7565b5f8381526003602090815260408083206001600160a01b038616845290915290205460ff161561125d5760405162461bcd60e51b815260040161054d90612846565b336001600160a01b0383161461139a575f611298604051806040016040528060078152602001662922ab27a5a29d60c91b8152508686610b3a565b90505f6112a482611667565b90506001600160a01b0384163b1561135757604051630b135d3f60e11b81526001600160a01b03851690631626ba7e906112e49084908790600401612718565b602060405180830381865afa1580156112ff573d5f5f3e3d5ffd5b505050506040513d601f19601f820116820180604052508101906113239190612730565b6001600160e01b031916631626ba7e60e01b146113525760405162461bcd60e51b815260040161054d90612757565b611397565b5f61136282856116a1565b9050846001600160a01b0316816001600160a01b0316146113955760405162461bcd60e51b815260040161054d9061278e565b505b50505b5f8381526003602090815260408083206001600160a01b0386168085529252808320805460ff1916600117905551909185917f355036b8ad963e185e09f074e8565596483a0012cbe620f507c0f34950a2f0b39190a350505050565b5f5f336001600160a01b0316638da5cb5b6040518163ffffffff1660e01b8152600401602060405180830381865afa158015611434573d5f5f3e3d5ffd5b505050506040513d601f19601f8201168201806040525081019061145891906128c3565b905061146584848361052c565b9150505b92915050565b611477611732565b6001600160a01b0381166114a057604051631e4fbdf760e01b81525f600482015260240161054d565b6114a981611943565b50565b5f82815260036020908152604080832083546001600160a01b03168452909152812054819060ff1615156001036114eb576114e860018261289c565b90505b5f8481526003602090815260408083206001600160a01b038716845290915290205460ff1615156001036115275761152460028261289c565b90505b80600114801561155d57505f8481526004602090815260408083206001600160a01b038716845290915290205460ff1615156001145b156106495761156d6001826128de565b949350505050565b5f5f5f905060028560405161158a919061283b565b90815260408051602092819003830190205f87815290835281812081546001600160a01b0316825290925290205460ff1615156001036115f9575f848152600560205260409020544210156115eb576115e460018261289c565b90506115f9565b6115f660028261289c565b90505b600285604051611609919061283b565b90815260408051602092819003830190205f8781529083528181206001600160a01b038716825290925290205460ff16151560010361156d5761164d60028261289c565b95945050505050565b61165e6119b3565b6114a9816119fc565b5f6116728251611a04565b826040516020016116849291906128f1565b604051602081830303815290604052805190602001209050919050565b5f5f5f5f6116af8686611a93565b9250925092506116bf8282611adc565b5090949350505050565b60606114698261172a845f60076fffffffffffffffffffffffffffffffff8311901b905060066001600160401b0383831c11901b17600563ffffffff83831c11901b17600461ffff83831c11901b1760ff82821c1160039190911c17919050565b600101611b94565b336117647f9016d09d72d40fdae2fd8ceac6b6234c7706214fd39c1cd1e609a0528c199300546001600160a01b031690565b6001600160a01b0316146110395760405163118cdaa760e01b815233600482015260240161054d565b306001600160a01b037f000000000000000000000000000000000000000000000000000000000000000016148061181357507f00000000000000000000000000000000000000000000000000000000000000006001600160a01b03166118075f5160206129835f395f51905f52546001600160a01b031690565b6001600160a01b031614155b156110395760405163703e46dd60e11b815260040160405180910390fd5b6114a9611732565b816001600160a01b03166352d1902d6040518163ffffffff1660e01b8152600401602060405180830381865afa925050508015611893575060408051601f3d908101601f191682019092526118909181019061292b565b60015b6118bb57604051634c9c8ce360e01b81526001600160a01b038316600482015260240161054d565b5f5160206129835f395f51905f5281146118eb57604051632a87526960e21b81526004810182905260240161054d565b6118f58383611d05565b505050565b306001600160a01b037f000000000000000000000000000000000000000000000000000000000000000016146110395760405163703e46dd60e11b815260040160405180910390fd5b7f9016d09d72d40fdae2fd8ceac6b6234c7706214fd39c1cd1e609a0528c19930080546001600160a01b031981166001600160a01b03848116918217845560405192169182907f8be0079c531659141344cd1fd0a4f28419497f9722a3daafe3b4186f6b6457e0905f90a3505050565b7ff0c57e16840df040f15088dc2f81fe391c3923bec73e23a9662efc9c229c6a0054600160401b900460ff1661103957604051631afcd79f60e31b815260040160405180910390fd5b6114776119b3565b60605f611a1083611d5a565b60010190505f816001600160401b03811115611a2e57611a2e6120a8565b6040519080825280601f01601f191660200182016040528015611a58576020820181803683370190505b5090508181016020015b5f19016f181899199a1a9b1b9c1cb0b131b232b360811b600a86061a8153600a8504945084611a6257509392505050565b5f5f5f8351604103611aca576020840151604085015160608601515f1a611abc88828585611e31565b955095509550505050611ad5565b505081515f91506002905b9250925092565b5f826003811115611aef57611aef612942565b03611af8575050565b6001826003811115611b0c57611b0c612942565b03611b2a5760405163f645eedf60e01b815260040160405180910390fd5b6002826003811115611b3e57611b3e612942565b03611b5f5760405163fce698f760e01b81526004810182905260240161054d565b6003826003811115611b7357611b73612942565b03610cd8576040516335e2f38360e21b81526004810182905260240161054d565b6060825f611ba3846002612956565b611bae90600261289c565b6001600160401b03811115611bc557611bc56120a8565b6040519080825280601f01601f191660200182016040528015611bef576020820181803683370190505b509050600360fc1b815f81518110611c0957611c096128af565b60200101906001600160f81b03191690815f1a905350600f60fb1b81600181518110611c3757611c376128af565b60200101906001600160f81b03191690815f1a9053505f611c59856002612956565b611c6490600161289c565b90505b6001811115611cdb576f181899199a1a9b1b9c1cb0b131b232b360811b83600f1660108110611c9857611c986128af565b1a60f81b828281518110611cae57611cae6128af565b60200101906001600160f81b03191690815f1a90535060049290921c91611cd48161296d565b9050611c67565b5081156114655760405163e22e27eb60e01b8152600481018690526024810185905260440161054d565b611d0e82611ef9565b6040516001600160a01b038316907fbc7cd75a20ee27fd9adebab32041f755214dbc6bffa90cc0225b39da2e5c2d3b905f90a2805115611d52576118f58282611f5c565b610cd8611fc5565b5f8072184f03e93ff9f4daa797ed6e38ed64bf6a1f0160401b8310611d985772184f03e93ff9f4daa797ed6e38ed64bf6a1f0160401b830492506040015b6d04ee2d6d415b85acef81000000008310611dc4576d04ee2d6d415b85acef8100000000830492506020015b662386f26fc100008310611de257662386f26fc10000830492506010015b6305f5e1008310611dfa576305f5e100830492506008015b6127108310611e0e57612710830492506004015b60648310611e20576064830492506002015b600a83106114695760010192915050565b5f80807f7fffffffffffffffffffffffffffffff5d576e7357a4501ddfe92f46681b20a0841115611e6a57505f91506003905082611eef565b604080515f808252602082018084528a905260ff891692820192909252606081018790526080810186905260019060a0016020604051602081039080840390855afa158015611ebb573d5f5f3e3d5ffd5b5050604051601f1901519150506001600160a01b038116611ee657505f925060019150829050611eef565b92505f91508190505b9450945094915050565b806001600160a01b03163b5f03611f2e57604051634c9c8ce360e01b81526001600160a01b038216600482015260240161054d565b5f5160206129835f395f51905f5280546001600160a01b0319166001600160a01b0392909216919091179055565b60605f5f846001600160a01b031684604051611f78919061283b565b5f60405180830381855af49150503d805f8114611fb0576040519150601f19603f3d011682016040523d82523d5f602084013e611fb5565b606091505b509150915061164d858383611fe4565b34156110395760405163b398979f60e01b815260040160405180910390fd5b606082611ff957611ff482612040565b610649565b815115801561201057506001600160a01b0384163b155b1561203957604051639996b31560e01b81526001600160a01b038516600482015260240161054d565b5080610649565b80511561204f57805160208201fd5b60405163d6bda27560e01b815260040160405180910390fd5b5f81518084528060208401602086015e5f602082860101526020601f19601f83011685010191505092915050565b602081525f6106496020830184612068565b634e487b7160e01b5f52604160045260245ffd5b604051601f8201601f191681016001600160401b03811182821017156120e4576120e46120a8565b604052919050565b5f82601f8301126120fb575f5ffd5b8135602083015f5f6001600160401b0384111561211a5761211a6120a8565b50601f8301601f191660200161212f816120bc565b915050828152858383011115612143575f5ffd5b828260208301375f92810160200192909252509392505050565b6001600160a01b03811681146114a9575f5ffd5b5f5f5f60608486031215612183575f5ffd5b83356001600160401b03811115612198575f5ffd5b6121a4868287016120ec565b9350506020840135915060408401356121bc8161215d565b809150509250925092565b5f5f5f606084860312156121d9575f5ffd5b83356121e48161215d565b925060208401356121f48161215d565b929592945050506040919091013590565b5f5f5f5f60808587031215612218575f5ffd5b84356001600160401b0381111561222d575f5ffd5b612239878288016120ec565b9450506020850135925060408501356122518161215d565b915060608501356001600160401b0381111561226b575f5ffd5b612277878288016120ec565b91505092959194509250565b5f5f5f60608486031215612295575f5ffd5b83356001600160401b038111156122aa575f5ffd5b6122b6868287016120ec565b93505060208401356001600160401b038111156122d1575f5ffd5b6122dd868287016120ec565b93969395505050506040919091013590565b5f602082840312156122ff575f5ffd5b81356106498161215d565b5f5f6040838503121561231b575f5ffd5b82356123268161215d565b915060208301356001600160401b03811115612340575f5ffd5b61234c858286016120ec565b9150509250929050565b5f5f60408385031215612367575f5ffd5b8235915060208301356123798161215d565b809150509250929050565b5f60208284031215612394575f5ffd5b5035919050565b5f6001600160401b038211156123b3576123b36120a8565b5060051b60200190565b5f82601f8301126123cc575f5ffd5b81356123df6123da8261239b565b6120bc565b8082825260208201915060208360051b860101925085831115612400575f5ffd5b602085015b8381101561241d578035835260209283019201612405565b5095945050505050565b5f82601f830112612436575f5ffd5b81356124446123da8261239b565b8082825260208201915060208360051b860101925085831115612465575f5ffd5b602085015b8381101561241d57803561247d8161215d565b83526020928301920161246a565b5f82601f83011261249a575f5ffd5b81356124a86123da8261239b565b8082825260208201915060208360051b8601019250858311156124c9575f5ffd5b602085015b8381101561241d5780356001600160401b038111156124eb575f5ffd5b6124fa886020838a01016120ec565b845250602092830192016124ce565b5f5f5f5f6080858703121561251c575f5ffd5b84356001600160401b03811115612531575f5ffd5b8501601f81018713612541575f5ffd5b803561254f6123da8261239b565b8082825260208201915060208360051b850101925089831115612570575f5ffd5b602084015b838110156125b05780356001600160401b03811115612592575f5ffd5b6125a18c6020838901016120ec565b84525060209283019201612575565b50965050505060208501356001600160401b038111156125ce575f5ffd5b6125da878288016123bd565b93505060408501356001600160401b038111156125f5575f5ffd5b61260187828801612427565b92505060608501356001600160401b0381111561261c575f5ffd5b6122778782880161248b565b5f5f60408385031215612639575f5ffd5b82356001600160401b0381111561264e575f5ffd5b61265a858286016120ec565b95602094909401359450505050565b6020808252601a908201527f646f6d61696e206e616d652063616e6e6f74206265207a65726f000000000000604082015260600190565b6020808252601e908201527f7075626c6963206b657920686173682063616e6e6f74206265207a65726f0000604082015260600190565b60208082526021908201527f617574686f72697a657220616464726573732063616e6e6f74206265207a65726040820152606f60f81b606082015260800190565b828152604060208201525f61156d6040830184612068565b5f60208284031215612740575f5ffd5b81516001600160e01b031981168114610649575f5ffd5b60208082526019908201527f696e76616c69642065697031323731207369676e617475726500000000000000604082015260600190565b60208082526017908201527f696e76616c6964206563647361207369676e6174757265000000000000000000604082015260600190565b5f81518060208401855e5f93019283525090919050565b5f6127e782866127c5565b66646f6d61696e3d60c81b815261280160078201866127c5565b9050703b7075626c69635f6b65795f686173683d60781b815261282760118201856127c5565b603b60f81b81526001019695505050505050565b5f61064982846127c5565b60208082526022908201527f7075626c6963206b6579206861736820697320616c7265616479207265766f6b604082015261195960f21b606082015260800190565b634e487b7160e01b5f52601160045260245ffd5b8082018082111561146957611469612888565b634e487b7160e01b5f52603260045260245ffd5b5f602082840312156128d3575f5ffd5b81516106498161215d565b8181038181111561146957611469612888565b7f19457468657265756d205369676e6564204d6573736167653a0a00000000000081525f61156d612925601a8401866127c5565b846127c5565b5f6020828403121561293b575f5ffd5b5051919050565b634e487b7160e01b5f52602160045260245ffd5b808202811582820484141761146957611469612888565b5f8161297b5761297b612888565b505f19019056fe360894a13ba1a3210667c828492db98dca3e2076cc3735a920a3ca505d382bbca2646970667358221220be9441b5a21a186b22d653622a2bd864cce7f81f832ca75711e8a227b535194264736f6c634300081c0033","linkReferences":{}},"methodIdentifiers":{"REACTIVATE_PREFIX()":"225a08d4","REVOKE_PREFIX()":"d507c320","SET_PREFIX()":"07f1eaf5","UPGRADE_INTERFACE_VERSION()":"ad3cb1cc","changeMainAuthorizer(address)":"4c930607","computeSignedMsg(string,string,bytes32)":"4bcbbe96","dkimPublicKeyHashes(string,bytes32,address)":"e308de0c","enabledTimeOfDKIMPublicKeyHash(bytes32)":"7f8e29ba","initialize(address,address,uint256)":"1794bb3c","isDKIMPublicKeyHashValid(string,bytes32)":"e7a7977a","isDKIMPublicKeyHashValid(string,bytes32,address)":"0b55b37c","mainAuthorizer()":"7d463648","owner()":"8da5cb5b","proxiableUUID()":"52d1902d","reactivateDKIMPublicKeyHash(string,bytes32,address,bytes)":"32e1e194","reactivatedDKIMPublicKeyHashes(bytes32,address)":"574900dd","renounceOwnership()":"715018a6","revokeDKIMPublicKeyHash(string,bytes32,address,bytes)":"82bff8cd","revokedDKIMPublicKeyHashes(bytes32,address)":"f0bfb197","setDKIMPublicKeyHash(string,bytes32,address,bytes)":"614a4485","setDKIMPublicKeyHashes(string[],bytes32[],address[],bytes[])":"7ff103da","setTimestampDelay()":"812e12ce","transferOwnership(address)":"f2fde38b","upgradeToAndCall(address,bytes)":"4f1ef286"},"id":219}