{"abi":[{"type":"function","name":"acceptanceCommandTemplates","inputs":[],"outputs":[{"name":"","type":"string[][]","internalType":"string[][]"}],"stateMutability":"pure"},{"type":"function","name":"extractRecoveredAccountFromAcceptanceCommand","inputs":[{"name":"commandParams","type":"bytes[]","internalType":"bytes[]"},{"name":"","type":"uint256","internalType":"uint256"}],"outputs":[{"name":"","type":"address","internalType":"address"}],"stateMutability":"pure"},{"type":"function","name":"extractRecoveredAccountFromRecoveryCommand","inputs":[{"name":"commandParams","type":"bytes[]","internalType":"bytes[]"},{"name":"","type":"uint256","internalType":"uint256"}],"outputs":[{"name":"","type":"address","internalType":"address"}],"stateMutability":"pure"},{"type":"function","name":"parseRecoveryDataHash","inputs":[{"name":"templateIdx","type":"uint256","internalType":"uint256"},{"name":"commandParams","type":"bytes[]","internalType":"bytes[]"}],"outputs":[{"name":"","type":"bytes32","internalType":"bytes32"}],"stateMutability":"view"},{"type":"function","name":"recoveryCommandTemplates","inputs":[],"outputs":[{"name":"","type":"string[][]","internalType":"string[][]"}],"stateMutability":"pure"},{"type":"function","name":"selector","inputs":[],"outputs":[{"name":"","type":"bytes4","internalType":"bytes4"}],"stateMutability":"view"},{"type":"function","name":"validateAcceptanceCommand","inputs":[{"name":"templateIdx","type":"uint256","internalType":"uint256"},{"name":"commandParams","type":"bytes[]","internalType":"bytes[]"}],"outputs":[{"name":"","type":"address","internalType":"address"}],"stateMutability":"pure"},{"type":"function","name":"validateRecoveryCommand","inputs":[{"name":"templateIdx","type":"uint256","internalType":"uint256"},{"name":"commandParams","type":"bytes[]","internalType":"bytes[]"}],"outputs":[{"name":"","type":"address","internalType":"address"}],"stateMutability":"view"},{"type":"error","name":"InvalidCommandParams","inputs":[{"name":"paramsLength","type":"uint256","internalType":"uint256"},{"name":"expectedParamsLength","type":"uint256","internalType":"uint256"}]},{"type":"error","name":"InvalidNewOwner","inputs":[{"name":"newOwner","type":"address","internalType":"address"}]},{"type":"error","name":"InvalidOldOwner","inputs":[{"name":"oldOwner","type":"address","internalType":"address"}]},{"type":"error","name":"InvalidTemplateIndex","inputs":[{"name":"templateIdx","type":"uint256","internalType":"uint256"},{"name":"expectedTemplateIdx","type":"uint256","internalType":"uint256"}]}],"bytecode":{"object":"0x6080604052348015600e575f5ffd5b506111188061001c5f395ff3fe608060405234801561000f575f5ffd5b5060043610610085575f3560e01c8063861f45b711610058578063861f45b7146100e9578063a5e3ee70146100ce578063da066739146100fc578063ea3d508a1461011d575f5ffd5b80630536542e14610089578063222f6cb5146100b95780632c4ce129146100ce5780633ef01b8f146100e1575b5f5ffd5b61009c610097366004610d79565b61013e565b6040516001600160a01b0390911681526020015b60405180910390f35b6100c1610381565b6040516100b09190610def565b61009c6100dc366004610e98565b6105ae565b6100c16105e8565b61009c6100f7366004610d79565b610a04565b61010f61010a366004610d79565b610a93565b6040519081526020016100b0565b610125610c17565b6040516001600160e01b031990911681526020016100b0565b5f831561016c57604051635be7785560e01b8152600481018590525f60248201526044015b60405180910390fd5b60038214610197576040516325922ecf60e21b81526004810183905260036024820152604401610163565b5f83835f8181106101aa576101aa610ee0565b90506020028101906101bc9190610ef4565b8101906101c99190610f4e565b90505f848460018181106101df576101df610ee0565b90506020028101906101f19190610ef4565b8101906101fe9190610f4e565b90505f8585600281811061021457610214610ee0565b90506020028101906102269190610ef4565b8101906102339190610f4e565b6040516317aa5fb760e11b81526001600160a01b0384811660048301529192505f91851690632f54bf6e90602401602060405180830381865afa15801561027c573d5f5f3e3d5ffd5b505050506040513d601f19601f820116820180604052508101906102a09190610f70565b9050806102cb5760405163377abe5160e01b81526001600160a01b0384166004820152602401610163565b6040516317aa5fb760e11b81526001600160a01b0383811660048301525f9190861690632f54bf6e90602401602060405180830381865afa158015610312573d5f5f3e3d5ffd5b505050506040513d601f19601f820116820180604052508101906103369190610f70565b90506001600160a01b038316158061034b5750805b1561037457604051630896d9ad60e41b81526001600160a01b0384166004820152602401610163565b5092979650505050505050565b6040805160018082528183019092526060915f9190816020015b606081526020019060019003908161039b57505060408051600580825260c08201909252919250602082015b60608152602001906001900390816103c757905050815f815181106103ee576103ee610ee0565b6020026020010181905250604051806040016040528060068152602001651058d8d95c1d60d21b815250815f8151811061042a5761042a610ee0565b60200260200101515f8151811061044357610443610ee0565b60200260200101819052506040518060400160405280600881526020016733bab0b93234b0b760c11b815250815f8151811061048157610481610ee0565b602002602001015160018151811061049b5761049b610ee0565b6020026020010181905250604051806040016040528060078152602001661c995c5d595cdd60ca1b815250815f815181106104d8576104d8610ee0565b60200260200101516002815181106104f2576104f2610ee0565b6020026020010181905250604051806040016040528060038152602001623337b960e91b815250815f8151811061052b5761052b610ee0565b602002602001015160038151811061054557610545610ee0565b6020026020010181905250604051806040016040528060098152602001687b657468416464727d60b81b815250815f8151811061058457610584610ee0565b602002602001015160048151811061059e5761059e610ee0565b6020908102919091010152919050565b5f83835f8181106105c1576105c1610ee0565b90506020028101906105d39190610ef4565b8101906105e09190610f4e565b949350505050565b6040805160018082528183019092526060915f9190816020015b606081526020019060019003908161060257505060408051600b8082526101808201909252919250602082015b606081526020019060019003908161062f57905050815f8151811061065657610656610ee0565b6020026020010181905250604051806040016040528060078152602001662932b1b7bb32b960c91b815250815f8151811061069357610693610ee0565b60200260200101515f815181106106ac576106ac610ee0565b6020026020010181905250604051806040016040528060078152602001661858d8dbdd5b9d60ca1b815250815f815181106106e9576106e9610ee0565b602002602001015160018151811061070357610703610ee0565b6020026020010181905250604051806040016040528060098152602001687b657468416464727d60b81b815250815f8151811061074257610742610ee0565b602002602001015160028151811061075c5761075c610ee0565b60200260200101819052506040518060400160405280600481526020016366726f6d60e01b815250815f8151811061079657610796610ee0565b60200260200101516003815181106107b0576107b0610ee0565b6020026020010181905250604051806040016040528060038152602001621bdb1960ea1b815250815f815181106107e9576107e9610ee0565b602002602001015160048151811061080357610803610ee0565b60200260200101819052506040518060400160405280600581526020016437bbb732b960d91b815250815f8151811061083e5761083e610ee0565b602002602001015160058151811061085857610858610ee0565b6020026020010181905250604051806040016040528060098152602001687b657468416464727d60b81b815250815f8151811061089757610897610ee0565b60200260200101516006815181106108b1576108b1610ee0565b602002602001018190525060405180604001604052806002815260200161746f60f01b815250815f815181106108e9576108e9610ee0565b602002602001015160078151811061090357610903610ee0565b6020026020010181905250604051806040016040528060038152602001626e657760e81b815250815f8151811061093c5761093c610ee0565b602002602001015160088151811061095657610956610ee0565b60200260200101819052506040518060400160405280600581526020016437bbb732b960d91b815250815f8151811061099157610991610ee0565b60200260200101516009815181106109ab576109ab610ee0565b6020026020010181905250604051806040016040528060098152602001687b657468416464727d60b81b815250815f815181106109ea576109ea610ee0565b6020026020010151600a8151811061059e5761059e610ee0565b5f8315610a2d57604051635be7785560e01b8152600481018590525f6024820152604401610163565b60018214610a58576040516325922ecf60e21b81526004810183905260016024820152604401610163565b5f83835f818110610a6b57610a6b610ee0565b9050602002810190610a7d9190610ef4565b810190610a8a9190610f4e565b95945050505050565b5f8315610abc57604051635be7785560e01b8152600481018590525f6024820152604401610163565b5f83835f818110610acf57610acf610ee0565b9050602002810190610ae19190610ef4565b810190610aee9190610f4e565b90505f84846001818110610b0457610b04610ee0565b9050602002810190610b169190610ef4565b810190610b239190610f4e565b90505f85856002818110610b3957610b39610ee0565b9050602002810190610b4b9190610ef4565b810190610b589190610f4e565b90505f610b658484610c3a565b90505f6040518060600160405280602281526020016110c16022913980516020909101206040516001600160a01b03808516602483015280871660448301528516606482015260840160408051601f19818403018152918152602080830180516001600160e01b03166001600160e01b03199095169490941790935251909250610bf3918791849101610fa3565b60405160208183030381529060405280519060200120955050505050509392505050565b6040518060600160405280602281526020016110c1602291398051906020012081565b5f5f836001600160a01b031663a0e67e2b6040518163ffffffff1660e01b81526004015f60405180830381865afa158015610c77573d5f5f3e3d5ffd5b505050506040513d5f823e601f3d908101601f19168201604052610c9e9190810190610fd6565b80519091505f805b82811015610cf057856001600160a01b0316848281518110610cca57610cca610ee0565b60200260200101516001600160a01b031603610ce857809150610cf0565b600101610ca6565b5060018115610d225783610d056001846110a1565b81518110610d1557610d15610ee0565b6020026020010151610d24565b805b9450505050505b92915050565b5f5f83601f840112610d41575f5ffd5b50813567ffffffffffffffff811115610d58575f5ffd5b6020830191508360208260051b8501011115610d72575f5ffd5b9250929050565b5f5f5f60408486031215610d8b575f5ffd5b83359250602084013567ffffffffffffffff811115610da8575f5ffd5b610db486828701610d31565b9497909650939450505050565b5f81518084528060208401602086015e5f602082860101526020601f19601f83011685010191505092915050565b5f602082016020835280845180835260408501915060408160051b8601019250602086015f5b82811015610e8c57868503603f19018452815180518087526020918201918088019190600582901b8901015f5b82811015610e7357601f198a8303018452610e5e828651610dc1565b60209586019594909401939150600101610e42565b5097505050602094850194929092019150600101610e15565b50929695505050505050565b5f5f5f60408486031215610eaa575f5ffd5b833567ffffffffffffffff811115610ec0575f5ffd5b610ecc86828701610d31565b909790965060209590950135949350505050565b634e487b7160e01b5f52603260045260245ffd5b5f5f8335601e19843603018112610f09575f5ffd5b83018035915067ffffffffffffffff821115610f23575f5ffd5b602001915036819003821315610d72575f5ffd5b6001600160a01b0381168114610f4b575f5ffd5b50565b5f60208284031215610f5e575f5ffd5b8135610f6981610f37565b9392505050565b5f60208284031215610f80575f5ffd5b81518015158114610f69575f5ffd5b634e487b7160e01b5f52604160045260245ffd5b6001600160a01b03831681526040602082018190525f906105e090830184610dc1565b8051610fd181610f37565b919050565b5f60208284031215610fe6575f5ffd5b815167ffffffffffffffff811115610ffc575f5ffd5b8201601f8101841361100c575f5ffd5b805167ffffffffffffffff81111561102657611026610f8f565b8060051b604051601f19603f830116810181811067ffffffffffffffff8211171561105357611053610f8f565b604052918252602081840181019290810187841115611070575f5ffd5b6020850194505b838510156110965761108885610fc6565b815260209485019401611077565b509695505050505050565b81810381811115610d2b57634e487b7160e01b5f52601160045260245ffdfe737761704f776e657228616464726573732c616464726573732c6164647265737329a2646970667358221220e9869a205dbc9b9ada5611316598e3b0a785ba730995da7750cab1a708cde27b64736f6c634300081c0033","linkReferences":{}},"methodIdentifiers":{"acceptanceCommandTemplates()":"222f6cb5","extractRecoveredAccountFromAcceptanceCommand(bytes[],uint256)":"2c4ce129","extractRecoveredAccountFromRecoveryCommand(bytes[],uint256)":"a5e3ee70","parseRecoveryDataHash(uint256,bytes[])":"da066739","recoveryCommandTemplates()":"3ef01b8f","selector()":"ea3d508a","validateAcceptanceCommand(uint256,bytes[])":"861f45b7","validateRecoveryCommand(uint256,bytes[])":"0536542e"},"id":289}